{
	"don-correction.sol": {
		"don": {
			"abi": [
				{
					"anonymous": false,
					"inputs": [
						{
							"indexed": false,
							"internalType": "uint256",
							"name": "id",
							"type": "uint256"
						},
						{
							"indexed": false,
							"internalType": "uint256",
							"name": "amount",
							"type": "uint256"
						},
						{
							"indexed": false,
							"internalType": "string",
							"name": "donor",
							"type": "string"
						},
						{
							"indexed": false,
							"internalType": "string",
							"name": "message",
							"type": "string"
						}
					],
					"name": "DonationEvent",
					"type": "event"
				},
				{
					"inputs": [
						{
							"internalType": "address",
							"name": "",
							"type": "address"
						}
					],
					"name": "balances",
					"outputs": [
						{
							"internalType": "uint256",
							"name": "",
							"type": "uint256"
						}
					],
					"stateMutability": "view",
					"type": "function"
				},
				{
					"inputs": [
						{
							"internalType": "address",
							"name": "_recipient",
							"type": "address"
						}
					],
					"name": "balances_getter",
					"outputs": [
						{
							"internalType": "uint256",
							"name": "",
							"type": "uint256"
						}
					],
					"stateMutability": "view",
					"type": "function"
				},
				{
					"inputs": [
						{
							"internalType": "address",
							"name": "_recipient",
							"type": "address"
						},
						{
							"internalType": "string",
							"name": "_donor",
							"type": "string"
						},
						{
							"internalType": "string",
							"name": "_msg",
							"type": "string"
						}
					],
					"name": "donate",
					"outputs": [],
					"stateMutability": "payable",
					"type": "function"
				},
				{
					"inputs": [
						{
							"internalType": "address",
							"name": "",
							"type": "address"
						},
						{
							"internalType": "uint256",
							"name": "",
							"type": "uint256"
						}
					],
					"name": "donationsMap",
					"outputs": [
						{
							"internalType": "uint256",
							"name": "id",
							"type": "uint256"
						},
						{
							"internalType": "uint256",
							"name": "amount",
							"type": "uint256"
						},
						{
							"internalType": "string",
							"name": "donor",
							"type": "string"
						},
						{
							"internalType": "string",
							"name": "message",
							"type": "string"
						},
						{
							"internalType": "uint256",
							"name": "timestamp",
							"type": "uint256"
						}
					],
					"stateMutability": "view",
					"type": "function"
				},
				{
					"inputs": [
						{
							"internalType": "address",
							"name": "_recipient",
							"type": "address"
						}
					],
					"name": "donations_getter",
					"outputs": [
						{
							"components": [
								{
									"internalType": "uint256",
									"name": "id",
									"type": "uint256"
								},
								{
									"internalType": "uint256",
									"name": "amount",
									"type": "uint256"
								},
								{
									"internalType": "string",
									"name": "donor",
									"type": "string"
								},
								{
									"internalType": "string",
									"name": "message",
									"type": "string"
								},
								{
									"internalType": "uint256",
									"name": "timestamp",
									"type": "uint256"
								}
							],
							"internalType": "struct don.Donation[]",
							"name": "",
							"type": "tuple[]"
						}
					],
					"stateMutability": "view",
					"type": "function"
				},
				{
					"inputs": [],
					"name": "getBalance",
					"outputs": [
						{
							"internalType": "uint256",
							"name": "",
							"type": "uint256"
						}
					],
					"stateMutability": "view",
					"type": "function"
				},
				{
					"inputs": [],
					"name": "withdraw",
					"outputs": [],
					"stateMutability": "nonpayable",
					"type": "function"
				}
			],
			"devdoc": {
				"kind": "dev",
				"methods": {},
				"version": 1
			},
			"evm": {
				"assembly": "    /* \"don-correction.sol\":138:1906  contract don {... */\n  mstore(0x40, 0x80)\n    /* \"don-correction.sol\":387:388  0 */\n  0x00\n    /* \"don-correction.sol\":373:388  uint amount = 0 */\n  dup1\n  sstore\n    /* \"don-correction.sol\":404:405  0 */\n  0x00\n    /* \"don-correction.sol\":394:405  uint id = 0 */\n  0x01\n  sstore\n    /* \"don-correction.sol\":138:1906  contract don {... */\n  callvalue\n  dup1\n  iszero\n  tag_1\n  jumpi\n  0x00\n  dup1\n  revert\ntag_1:\n  pop\n  dataSize(sub_0)\n  dup1\n  dataOffset(sub_0)\n  0x00\n  codecopy\n  0x00\n  return\nstop\n\nsub_0: assembly {\n        /* \"don-correction.sol\":138:1906  contract don {... */\n      mstore(0x40, 0x80)\n      jumpi(tag_1, lt(calldatasize, 0x04))\n      shr(0xe0, calldataload(0x00))\n      dup1\n      0x3ccfd60b\n      gt\n      tag_9\n      jumpi\n      dup1\n      0x3ccfd60b\n      eq\n      tag_5\n      jumpi\n      dup1\n      0x6d73c365\n      eq\n      tag_6\n      jumpi\n      dup1\n      0xa4664aff\n      eq\n      tag_7\n      jumpi\n      dup1\n      0xbf773d6e\n      eq\n      tag_8\n      jumpi\n      jump(tag_1)\n    tag_9:\n      dup1\n      0x12065fe0\n      eq\n      tag_2\n      jumpi\n      dup1\n      0x1280db73\n      eq\n      tag_3\n      jumpi\n      dup1\n      0x27e235e3\n      eq\n      tag_4\n      jumpi\n    tag_1:\n      0x00\n      dup1\n      revert\n        /* \"don-correction.sol\":1808:1902  function getBalance() public view returns(uint) {... */\n    tag_2:\n      callvalue\n      dup1\n      iszero\n      tag_10\n      jumpi\n      0x00\n      dup1\n      revert\n    tag_10:\n      pop\n      tag_11\n      tag_12\n      jump\t// in\n    tag_11:\n      mload(0x40)\n      tag_13\n      swap2\n      swap1\n      tag_14\n      jump\t// in\n    tag_13:\n      mload(0x40)\n      dup1\n      swap2\n      sub\n      swap1\n      return\n        /* \"don-correction.sol\":716:1110  function donate(address _recipient, string memory _donor, string memory _msg) public payable {... */\n    tag_3:\n      tag_15\n      0x04\n      dup1\n      calldatasize\n      sub\n      dup2\n      add\n      swap1\n      tag_16\n      swap2\n      swap1\n      tag_17\n      jump\t// in\n    tag_16:\n      tag_18\n      jump\t// in\n    tag_15:\n      stop\n        /* \"don-correction.sol\":438:478  mapping(address => uint) public balances */\n    tag_4:\n      callvalue\n      dup1\n      iszero\n      tag_19\n      jumpi\n      0x00\n      dup1\n      revert\n    tag_19:\n      pop\n      tag_20\n      0x04\n      dup1\n      calldatasize\n      sub\n      dup2\n      add\n      swap1\n      tag_21\n      swap2\n      swap1\n      tag_22\n      jump\t// in\n    tag_21:\n      tag_23\n      jump\t// in\n    tag_20:\n      mload(0x40)\n      tag_24\n      swap2\n      swap1\n      tag_14\n      jump\t// in\n    tag_24:\n      mload(0x40)\n      dup1\n      swap2\n      sub\n      swap1\n      return\n        /* \"don-correction.sol\":1143:1459  function withdraw() public {  // whole thing by default.... */\n    tag_5:\n      callvalue\n      dup1\n      iszero\n      tag_25\n      jumpi\n      0x00\n      dup1\n      revert\n    tag_25:\n      pop\n      tag_26\n      tag_27\n      jump\t// in\n    tag_26:\n      stop\n        /* \"don-correction.sol\":1465:1598  function donations_getter(address _recipient) public view returns (Donation[] memory){... */\n    tag_6:\n      callvalue\n      dup1\n      iszero\n      tag_28\n      jumpi\n      0x00\n      dup1\n      revert\n    tag_28:\n      pop\n      tag_29\n      0x04\n      dup1\n      calldatasize\n      sub\n      dup2\n      add\n      swap1\n      tag_30\n      swap2\n      swap1\n      tag_22\n      jump\t// in\n    tag_30:\n      tag_31\n      jump\t// in\n    tag_29:\n      mload(0x40)\n      tag_32\n      swap2\n      swap1\n      tag_33\n      jump\t// in\n    tag_32:\n      mload(0x40)\n      dup1\n      swap2\n      sub\n      swap1\n      return\n        /* \"don-correction.sol\":1646:1765  function balances_getter(address _recipient) public view returns (uint){... */\n    tag_7:\n      callvalue\n      dup1\n      iszero\n      tag_34\n      jumpi\n      0x00\n      dup1\n      revert\n    tag_34:\n      pop\n      tag_35\n      0x04\n      dup1\n      calldatasize\n      sub\n      dup2\n      add\n      swap1\n      tag_36\n      swap2\n      swap1\n      tag_22\n      jump\t// in\n    tag_36:\n      tag_37\n      jump\t// in\n    tag_35:\n      mload(0x40)\n      tag_38\n      swap2\n      swap1\n      tag_14\n      jump\t// in\n    tag_38:\n      mload(0x40)\n      dup1\n      swap2\n      sub\n      swap1\n      return\n        /* \"don-correction.sol\":484:534  mapping(address => Donation[]) public donationsMap */\n    tag_8:\n      callvalue\n      dup1\n      iszero\n      tag_39\n      jumpi\n      0x00\n      dup1\n      revert\n    tag_39:\n      pop\n      tag_40\n      0x04\n      dup1\n      calldatasize\n      sub\n      dup2\n      add\n      swap1\n      tag_41\n      swap2\n      swap1\n      tag_42\n      jump\t// in\n    tag_41:\n      tag_43\n      jump\t// in\n    tag_40:\n      mload(0x40)\n      tag_44\n      swap6\n      swap5\n      swap4\n      swap3\n      swap2\n      swap1\n      tag_45\n      jump\t// in\n    tag_44:\n      mload(0x40)\n      dup1\n      swap2\n      sub\n      swap1\n      return\n        /* \"don-correction.sol\":1808:1902  function getBalance() public view returns(uint) {... */\n    tag_12:\n        /* \"don-correction.sol\":1850:1854  uint */\n      0x00\n        /* \"don-correction.sol\":1877:1887  msg.sender */\n      caller\n        /* \"don-correction.sol\":1877:1895  msg.sender.balance */\n      0xffffffffffffffffffffffffffffffffffffffff\n      and\n      balance\n        /* \"don-correction.sol\":1870:1895  return msg.sender.balance */\n      swap1\n      pop\n        /* \"don-correction.sol\":1808:1902  function getBalance() public view returns(uint) {... */\n      swap1\n      jump\t// out\n        /* \"don-correction.sol\":716:1110  function donate(address _recipient, string memory _donor, string memory _msg) public payable {... */\n    tag_18:\n        /* \"don-correction.sol\":820:840  Donation memory test */\n      tag_48\n      tag_49\n      jump\t// in\n    tag_48:\n        /* \"don-correction.sol\":870:871  0 */\n      0x00\n        /* \"don-correction.sol\":858:867  msg.value */\n      callvalue\n        /* \"don-correction.sol\":858:871  msg.value > 0 */\n      gt\n        /* \"don-correction.sol\":850:933  require(msg.value > 0, \"The donation needs to be >0 in order for it to go through\") */\n      tag_50\n      jumpi\n      mload(0x40)\n      0x08c379a000000000000000000000000000000000000000000000000000000000\n      dup2\n      mstore\n      0x04\n      add\n      tag_51\n      swap1\n      tag_52\n      jump\t// in\n    tag_51:\n      mload(0x40)\n      dup1\n      swap2\n      sub\n      swap1\n      revert\n    tag_50:\n        /* \"don-correction.sol\":952:961  msg.value */\n      callvalue\n        /* \"don-correction.sol\":943:949  amount */\n      0x00\n        /* \"don-correction.sol\":943:961  amount = msg.value */\n      dup2\n      swap1\n      sstore\n      pop\n        /* \"don-correction.sol\":995:1001  amount */\n      sload(0x00)\n        /* \"don-correction.sol\":971:979  balances */\n      0x02\n        /* \"don-correction.sol\":971:991  balances[_recipient] */\n      0x00\n        /* \"don-correction.sol\":980:990  _recipient */\n      dup7\n        /* \"don-correction.sol\":971:991  balances[_recipient] */\n      0xffffffffffffffffffffffffffffffffffffffff\n      and\n      0xffffffffffffffffffffffffffffffffffffffff\n      and\n      dup2\n      mstore\n      0x20\n      add\n      swap1\n      dup2\n      mstore\n      0x20\n      add\n      0x00\n      keccak256\n      0x00\n        /* \"don-correction.sol\":971:1001  balances[_recipient] += amount */\n      dup3\n      dup3\n      sload\n      tag_53\n      swap2\n      swap1\n      tag_54\n      jump\t// in\n    tag_53:\n      swap3\n      pop\n      pop\n      dup2\n      swap1\n      sstore\n      pop\n        /* \"don-correction.sol\":1019:1031  donationsMap */\n      0x03\n        /* \"don-correction.sol\":1019:1043  donationsMap[_recipient] */\n      0x00\n        /* \"don-correction.sol\":1032:1042  _recipient */\n      dup6\n        /* \"don-correction.sol\":1019:1043  donationsMap[_recipient] */\n      0xffffffffffffffffffffffffffffffffffffffff\n      and\n      0xffffffffffffffffffffffffffffffffffffffff\n      and\n      dup2\n      mstore\n      0x20\n      add\n      swap1\n      dup2\n      mstore\n      0x20\n      add\n      0x00\n      keccak256\n        /* \"don-correction.sol\":1049:1102  Donation(id++, amount, _donor, _msg, block.timestamp) */\n      mload(0x40)\n      dup1\n      0xa0\n      add\n      0x40\n      mstore\n      dup1\n        /* \"don-correction.sol\":1058:1060  id */\n      0x01\n      0x00\n        /* \"don-correction.sol\":1058:1062  id++ */\n      dup2\n      sload\n      dup1\n      swap3\n      swap2\n      swap1\n      tag_55\n      swap1\n      tag_56\n      jump\t// in\n    tag_55:\n      swap2\n      swap1\n      pop\n      sstore\n        /* \"don-correction.sol\":1049:1102  Donation(id++, amount, _donor, _msg, block.timestamp) */\n      dup2\n      mstore\n      0x20\n      add\n        /* \"don-correction.sol\":1064:1070  amount */\n      sload(0x00)\n        /* \"don-correction.sol\":1049:1102  Donation(id++, amount, _donor, _msg, block.timestamp) */\n      dup2\n      mstore\n      0x20\n      add\n        /* \"don-correction.sol\":1072:1078  _donor */\n      dup6\n        /* \"don-correction.sol\":1049:1102  Donation(id++, amount, _donor, _msg, block.timestamp) */\n      dup2\n      mstore\n      0x20\n      add\n        /* \"don-correction.sol\":1080:1084  _msg */\n      dup5\n        /* \"don-correction.sol\":1049:1102  Donation(id++, amount, _donor, _msg, block.timestamp) */\n      dup2\n      mstore\n      0x20\n      add\n        /* \"don-correction.sol\":1086:1101  block.timestamp */\n      timestamp\n        /* \"don-correction.sol\":1049:1102  Donation(id++, amount, _donor, _msg, block.timestamp) */\n      dup2\n      mstore\n      pop\n        /* \"don-correction.sol\":1019:1103  donationsMap[_recipient].push(Donation(id++, amount, _donor, _msg, block.timestamp)) */\n      swap1\n      dup1\n      0x01\n      dup2\n      sload\n      add\n      dup1\n      dup3\n      sstore\n      dup1\n      swap2\n      pop\n      pop\n      0x01\n      swap1\n      sub\n      swap1\n      0x00\n      mstore\n      keccak256(0x00, 0x20)\n      swap1\n      0x05\n      mul\n      add\n      0x00\n      swap1\n      swap2\n      swap1\n      swap2\n      swap1\n      swap2\n      pop\n      0x00\n      dup3\n      add\n      mload\n      dup2\n      0x00\n      add\n      sstore\n      0x20\n      dup3\n      add\n      mload\n      dup2\n      0x01\n      add\n      sstore\n      0x40\n      dup3\n      add\n      mload\n      dup2\n      0x02\n      add\n      swap1\n      dup2\n      tag_58\n      swap2\n      swap1\n      tag_59\n      jump\t// in\n    tag_58:\n      pop\n      0x60\n      dup3\n      add\n      mload\n      dup2\n      0x03\n      add\n      swap1\n      dup2\n      tag_60\n      swap2\n      swap1\n      tag_59\n      jump\t// in\n    tag_60:\n      pop\n      0x80\n      dup3\n      add\n      mload\n      dup2\n      0x04\n      add\n      sstore\n      pop\n      pop\n        /* \"don-correction.sol\":809:1110  {... */\n      pop\n        /* \"don-correction.sol\":716:1110  function donate(address _recipient, string memory _donor, string memory _msg) public payable {... */\n      pop\n      pop\n      pop\n      jump\t// out\n        /* \"don-correction.sol\":438:478  mapping(address => uint) public balances */\n    tag_23:\n      mstore(0x20, 0x02)\n      dup1\n      0x00\n      mstore\n      keccak256(0x00, 0x40)\n      0x00\n      swap2\n      pop\n      swap1\n      pop\n      sload\n      dup2\n      jump\t// out\n        /* \"don-correction.sol\":1143:1459  function withdraw() public {  // whole thing by default.... */\n    tag_27:\n        /* \"don-correction.sol\":1217:1225  balances */\n      0x02\n        /* \"don-correction.sol\":1217:1237  balances[msg.sender] */\n      0x00\n        /* \"don-correction.sol\":1226:1236  msg.sender */\n      caller\n        /* \"don-correction.sol\":1217:1237  balances[msg.sender] */\n      0xffffffffffffffffffffffffffffffffffffffff\n      and\n      0xffffffffffffffffffffffffffffffffffffffff\n      and\n      dup2\n      mstore\n      0x20\n      add\n      swap1\n      dup2\n      mstore\n      0x20\n      add\n      0x00\n      keccak256\n      sload\n        /* \"don-correction.sol\":1208:1214  amount */\n      0x00\n        /* \"don-correction.sol\":1208:1237  amount = balances[msg.sender] */\n      dup2\n      swap1\n      sstore\n      pop\n        /* \"don-correction.sol\":1271:1277  amount */\n      sload(0x00)\n        /* \"don-correction.sol\":1247:1255  balances */\n      0x02\n        /* \"don-correction.sol\":1247:1267  balances[msg.sender] */\n      0x00\n        /* \"don-correction.sol\":1256:1266  msg.sender */\n      caller\n        /* \"don-correction.sol\":1247:1267  balances[msg.sender] */\n      0xffffffffffffffffffffffffffffffffffffffff\n      and\n      0xffffffffffffffffffffffffffffffffffffffff\n      and\n      dup2\n      mstore\n      0x20\n      add\n      swap1\n      dup2\n      mstore\n      0x20\n      add\n      0x00\n      keccak256\n      0x00\n        /* \"don-correction.sol\":1247:1277  balances[msg.sender] -= amount */\n      dup3\n      dup3\n      sload\n      tag_62\n      swap2\n      swap1\n      tag_63\n      jump\t// in\n    tag_62:\n      swap3\n      pop\n      pop\n      dup2\n      swap1\n      sstore\n      pop\n        /* \"don-correction.sol\":1304:1305  0 */\n      0x00\n        /* \"don-correction.sol\":1295:1301  amount */\n      dup1\n      sload\n        /* \"don-correction.sol\":1295:1305  amount > 0 */\n      gt\n        /* \"don-correction.sol\":1287:1335  require(amount > 0, \"Your current balance is 0\") */\n      tag_64\n      jumpi\n      mload(0x40)\n      0x08c379a000000000000000000000000000000000000000000000000000000000\n      dup2\n      mstore\n      0x04\n      add\n      tag_65\n      swap1\n      tag_66\n      jump\t// in\n    tag_65:\n      mload(0x40)\n      dup1\n      swap2\n      sub\n      swap1\n      revert\n    tag_64:\n        /* \"don-correction.sol\":1346:1358  bool success */\n      0x00\n        /* \"don-correction.sol\":1363:1373  msg.sender */\n      caller\n        /* \"don-correction.sol\":1363:1378  msg.sender.call */\n      0xffffffffffffffffffffffffffffffffffffffff\n      and\n        /* \"don-correction.sol\":1385:1391  amount */\n      sload(0x00)\n        /* \"don-correction.sol\":1363:1396  msg.sender.call{value:amount}(\"\") */\n      mload(0x40)\n      tag_67\n      swap1\n      tag_68\n      jump\t// in\n    tag_67:\n      0x00\n      mload(0x40)\n      dup1\n      dup4\n      sub\n      dup2\n      dup6\n      dup8\n      gas\n      call\n      swap3\n      pop\n      pop\n      pop\n      returndatasize\n      dup1\n      0x00\n      dup2\n      eq\n      tag_71\n      jumpi\n      mload(0x40)\n      swap2\n      pop\n      and(add(returndatasize, 0x3f), not(0x1f))\n      dup3\n      add\n      0x40\n      mstore\n      returndatasize\n      dup3\n      mstore\n      returndatasize\n      0x00\n      0x20\n      dup5\n      add\n      returndatacopy\n      jump(tag_70)\n    tag_71:\n      0x60\n      swap2\n      pop\n    tag_70:\n      pop\n        /* \"don-correction.sol\":1345:1396  (bool success,) = msg.sender.call{value:amount}(\"\") */\n      pop\n      swap1\n      pop\n        /* \"don-correction.sol\":1411:1418  success */\n      dup1\n        /* \"don-correction.sol\":1406:1453  if (!success) {... */\n      tag_72\n      jumpi\n        /* \"don-correction.sol\":1434:1442  revert() */\n      0x00\n      dup1\n      revert\n        /* \"don-correction.sol\":1406:1453  if (!success) {... */\n    tag_72:\n        /* \"don-correction.sol\":1170:1459  {  // whole thing by default.... */\n      pop\n        /* \"don-correction.sol\":1143:1459  function withdraw() public {  // whole thing by default.... */\n      jump\t// out\n        /* \"don-correction.sol\":1465:1598  function donations_getter(address _recipient) public view returns (Donation[] memory){... */\n    tag_31:\n        /* \"don-correction.sol\":1532:1549  Donation[] memory */\n      0x60\n        /* \"don-correction.sol\":1567:1579  donationsMap */\n      0x03\n        /* \"don-correction.sol\":1567:1591  donationsMap[_recipient] */\n      0x00\n        /* \"don-correction.sol\":1580:1590  _recipient */\n      dup4\n        /* \"don-correction.sol\":1567:1591  donationsMap[_recipient] */\n      0xffffffffffffffffffffffffffffffffffffffff\n      and\n      0xffffffffffffffffffffffffffffffffffffffff\n      and\n      dup2\n      mstore\n      0x20\n      add\n      swap1\n      dup2\n      mstore\n      0x20\n      add\n      0x00\n      keccak256\n        /* \"don-correction.sol\":1560:1591  return donationsMap[_recipient] */\n      dup1\n      sload\n      dup1\n      0x20\n      mul\n      0x20\n      add\n      mload(0x40)\n      swap1\n      dup2\n      add\n      0x40\n      mstore\n      dup1\n      swap3\n      swap2\n      swap1\n      dup2\n      dup2\n      mstore\n      0x20\n      add\n      0x00\n      swap1\n    tag_74:\n      dup3\n      dup3\n      lt\n      iszero\n      tag_75\n      jumpi\n      dup4\n      dup3\n      swap1\n      0x00\n      mstore\n      keccak256(0x00, 0x20)\n      swap1\n      0x05\n      mul\n      add\n      mload(0x40)\n      dup1\n      0xa0\n      add\n      0x40\n      mstore\n      swap1\n      dup2\n      0x00\n      dup3\n      add\n      sload\n      dup2\n      mstore\n      0x20\n      add\n      0x01\n      dup3\n      add\n      sload\n      dup2\n      mstore\n      0x20\n      add\n      0x02\n      dup3\n      add\n      dup1\n      sload\n      tag_77\n      swap1\n      tag_78\n      jump\t// in\n    tag_77:\n      dup1\n      0x1f\n      add\n      0x20\n      dup1\n      swap2\n      div\n      mul\n      0x20\n      add\n      mload(0x40)\n      swap1\n      dup2\n      add\n      0x40\n      mstore\n      dup1\n      swap3\n      swap2\n      swap1\n      dup2\n      dup2\n      mstore\n      0x20\n      add\n      dup3\n      dup1\n      sload\n      tag_79\n      swap1\n      tag_78\n      jump\t// in\n    tag_79:\n      dup1\n      iszero\n      tag_80\n      jumpi\n      dup1\n      0x1f\n      lt\n      tag_81\n      jumpi\n      0x0100\n      dup1\n      dup4\n      sload\n      div\n      mul\n      dup4\n      mstore\n      swap2\n      0x20\n      add\n      swap2\n      jump(tag_80)\n    tag_81:\n      dup3\n      add\n      swap2\n      swap1\n      0x00\n      mstore\n      keccak256(0x00, 0x20)\n      swap1\n    tag_82:\n      dup2\n      sload\n      dup2\n      mstore\n      swap1\n      0x01\n      add\n      swap1\n      0x20\n      add\n      dup1\n      dup4\n      gt\n      tag_82\n      jumpi\n      dup3\n      swap1\n      sub\n      0x1f\n      and\n      dup3\n      add\n      swap2\n    tag_80:\n      pop\n      pop\n      pop\n      pop\n      pop\n      dup2\n      mstore\n      0x20\n      add\n      0x03\n      dup3\n      add\n      dup1\n      sload\n      tag_83\n      swap1\n      tag_78\n      jump\t// in\n    tag_83:\n      dup1\n      0x1f\n      add\n      0x20\n      dup1\n      swap2\n      div\n      mul\n      0x20\n      add\n      mload(0x40)\n      swap1\n      dup2\n      add\n      0x40\n      mstore\n      dup1\n      swap3\n      swap2\n      swap1\n      dup2\n      dup2\n      mstore\n      0x20\n      add\n      dup3\n      dup1\n      sload\n      tag_84\n      swap1\n      tag_78\n      jump\t// in\n    tag_84:\n      dup1\n      iszero\n      tag_85\n      jumpi\n      dup1\n      0x1f\n      lt\n      tag_86\n      jumpi\n      0x0100\n      dup1\n      dup4\n      sload\n      div\n      mul\n      dup4\n      mstore\n      swap2\n      0x20\n      add\n      swap2\n      jump(tag_85)\n    tag_86:\n      dup3\n      add\n      swap2\n      swap1\n      0x00\n      mstore\n      keccak256(0x00, 0x20)\n      swap1\n    tag_87:\n      dup2\n      sload\n      dup2\n      mstore\n      swap1\n      0x01\n      add\n      swap1\n      0x20\n      add\n      dup1\n      dup4\n      gt\n      tag_87\n      jumpi\n      dup3\n      swap1\n      sub\n      0x1f\n      and\n      dup3\n      add\n      swap2\n    tag_85:\n      pop\n      pop\n      pop\n      pop\n      pop\n      dup2\n      mstore\n      0x20\n      add\n      0x04\n      dup3\n      add\n      sload\n      dup2\n      mstore\n      pop\n      pop\n      dup2\n      mstore\n      0x20\n      add\n      swap1\n      0x01\n      add\n      swap1\n      jump(tag_74)\n    tag_75:\n      pop\n      pop\n      pop\n      pop\n      swap1\n      pop\n        /* \"don-correction.sol\":1465:1598  function donations_getter(address _recipient) public view returns (Donation[] memory){... */\n      swap2\n      swap1\n      pop\n      jump\t// out\n        /* \"don-correction.sol\":1646:1765  function balances_getter(address _recipient) public view returns (uint){... */\n    tag_37:\n        /* \"don-correction.sol\":1712:1716  uint */\n      0x00\n        /* \"don-correction.sol\":1738:1746  balances */\n      0x02\n        /* \"don-correction.sol\":1738:1758  balances[_recipient] */\n      0x00\n        /* \"don-correction.sol\":1747:1757  _recipient */\n      dup4\n        /* \"don-correction.sol\":1738:1758  balances[_recipient] */\n      0xffffffffffffffffffffffffffffffffffffffff\n      and\n      0xffffffffffffffffffffffffffffffffffffffff\n      and\n      dup2\n      mstore\n      0x20\n      add\n      swap1\n      dup2\n      mstore\n      0x20\n      add\n      0x00\n      keccak256\n      sload\n        /* \"don-correction.sol\":1731:1758  return balances[_recipient] */\n      swap1\n      pop\n        /* \"don-correction.sol\":1646:1765  function balances_getter(address _recipient) public view returns (uint){... */\n      swap2\n      swap1\n      pop\n      jump\t// out\n        /* \"don-correction.sol\":484:534  mapping(address => Donation[]) public donationsMap */\n    tag_43:\n      mstore(0x20, 0x03)\n      dup2\n      0x00\n      mstore\n      keccak256(0x00, 0x40)\n      dup2\n      dup2\n      sload\n      dup2\n      lt\n      tag_89\n      jumpi\n      0x00\n      dup1\n      revert\n    tag_89:\n      swap1\n      0x00\n      mstore\n      keccak256(0x00, 0x20)\n      swap1\n      0x05\n      mul\n      add\n      0x00\n      swap2\n      pop\n      swap2\n      pop\n      pop\n      dup1\n      0x00\n      add\n      sload\n      swap1\n      dup1\n      0x01\n      add\n      sload\n      swap1\n      dup1\n      0x02\n      add\n      dup1\n      sload\n      tag_91\n      swap1\n      tag_78\n      jump\t// in\n    tag_91:\n      dup1\n      0x1f\n      add\n      0x20\n      dup1\n      swap2\n      div\n      mul\n      0x20\n      add\n      mload(0x40)\n      swap1\n      dup2\n      add\n      0x40\n      mstore\n      dup1\n      swap3\n      swap2\n      swap1\n      dup2\n      dup2\n      mstore\n      0x20\n      add\n      dup3\n      dup1\n      sload\n      tag_92\n      swap1\n      tag_78\n      jump\t// in\n    tag_92:\n      dup1\n      iszero\n      tag_93\n      jumpi\n      dup1\n      0x1f\n      lt\n      tag_94\n      jumpi\n      0x0100\n      dup1\n      dup4\n      sload\n      div\n      mul\n      dup4\n      mstore\n      swap2\n      0x20\n      add\n      swap2\n      jump(tag_93)\n    tag_94:\n      dup3\n      add\n      swap2\n      swap1\n      0x00\n      mstore\n      keccak256(0x00, 0x20)\n      swap1\n    tag_95:\n      dup2\n      sload\n      dup2\n      mstore\n      swap1\n      0x01\n      add\n      swap1\n      0x20\n      add\n      dup1\n      dup4\n      gt\n      tag_95\n      jumpi\n      dup3\n      swap1\n      sub\n      0x1f\n      and\n      dup3\n      add\n      swap2\n    tag_93:\n      pop\n      pop\n      pop\n      pop\n      pop\n      swap1\n      dup1\n      0x03\n      add\n      dup1\n      sload\n      tag_96\n      swap1\n      tag_78\n      jump\t// in\n    tag_96:\n      dup1\n      0x1f\n      add\n      0x20\n      dup1\n      swap2\n      div\n      mul\n      0x20\n      add\n      mload(0x40)\n      swap1\n      dup2\n      add\n      0x40\n      mstore\n      dup1\n      swap3\n      swap2\n      swap1\n      dup2\n      dup2\n      mstore\n      0x20\n      add\n      dup3\n      dup1\n      sload\n      tag_97\n      swap1\n      tag_78\n      jump\t// in\n    tag_97:\n      dup1\n      iszero\n      tag_98\n      jumpi\n      dup1\n      0x1f\n      lt\n      tag_99\n      jumpi\n      0x0100\n      dup1\n      dup4\n      sload\n      div\n      mul\n      dup4\n      mstore\n      swap2\n      0x20\n      add\n      swap2\n      jump(tag_98)\n    tag_99:\n      dup3\n      add\n      swap2\n      swap1\n      0x00\n      mstore\n      keccak256(0x00, 0x20)\n      swap1\n    tag_100:\n      dup2\n      sload\n      dup2\n      mstore\n      swap1\n      0x01\n      add\n      swap1\n      0x20\n      add\n      dup1\n      dup4\n      gt\n      tag_100\n      jumpi\n      dup3\n      swap1\n      sub\n      0x1f\n      and\n      dup3\n      add\n      swap2\n    tag_98:\n      pop\n      pop\n      pop\n      pop\n      pop\n      swap1\n      dup1\n      0x04\n      add\n      sload\n      swap1\n      pop\n      dup6\n      jump\t// out\n    tag_49:\n      mload(0x40)\n      dup1\n      0xa0\n      add\n      0x40\n      mstore\n      dup1\n      0x00\n      dup2\n      mstore\n      0x20\n      add\n      0x00\n      dup2\n      mstore\n      0x20\n      add\n      0x60\n      dup2\n      mstore\n      0x20\n      add\n      0x60\n      dup2\n      mstore\n      0x20\n      add\n      0x00\n      dup2\n      mstore\n      pop\n      swap1\n      jump\t// out\n        /* \"#utility.yul\":7:84   */\n    tag_101:\n        /* \"#utility.yul\":44:51   */\n      0x00\n        /* \"#utility.yul\":73:78   */\n      dup2\n        /* \"#utility.yul\":62:78   */\n      swap1\n      pop\n        /* \"#utility.yul\":7:84   */\n      swap2\n      swap1\n      pop\n      jump\t// out\n        /* \"#utility.yul\":90:208   */\n    tag_102:\n        /* \"#utility.yul\":177:201   */\n      tag_163\n        /* \"#utility.yul\":195:200   */\n      dup2\n        /* \"#utility.yul\":177:201   */\n      tag_101\n      jump\t// in\n    tag_163:\n        /* \"#utility.yul\":172:175   */\n      dup3\n        /* \"#utility.yul\":165:202   */\n      mstore\n        /* \"#utility.yul\":90:208   */\n      pop\n      pop\n      jump\t// out\n        /* \"#utility.yul\":214:436   */\n    tag_14:\n        /* \"#utility.yul\":307:311   */\n      0x00\n        /* \"#utility.yul\":345:347   */\n      0x20\n        /* \"#utility.yul\":334:343   */\n      dup3\n        /* \"#utility.yul\":330:348   */\n      add\n        /* \"#utility.yul\":322:348   */\n      swap1\n      pop\n        /* \"#utility.yul\":358:429   */\n      tag_165\n        /* \"#utility.yul\":426:427   */\n      0x00\n        /* \"#utility.yul\":415:424   */\n      dup4\n        /* \"#utility.yul\":411:428   */\n      add\n        /* \"#utility.yul\":402:408   */\n      dup5\n        /* \"#utility.yul\":358:429   */\n      tag_102\n      jump\t// in\n    tag_165:\n        /* \"#utility.yul\":214:436   */\n      swap3\n      swap2\n      pop\n      pop\n      jump\t// out\n        /* \"#utility.yul\":442:517   */\n    tag_103:\n        /* \"#utility.yul\":475:481   */\n      0x00\n        /* \"#utility.yul\":508:510   */\n      0x40\n        /* \"#utility.yul\":502:511   */\n      mload\n        /* \"#utility.yul\":492:511   */\n      swap1\n      pop\n        /* \"#utility.yul\":442:517   */\n      swap1\n      jump\t// out\n        /* \"#utility.yul\":523:640   */\n    tag_104:\n        /* \"#utility.yul\":632:633   */\n      0x00\n        /* \"#utility.yul\":629:630   */\n      dup1\n        /* \"#utility.yul\":622:634   */\n      revert\n        /* \"#utility.yul\":646:763   */\n    tag_105:\n        /* \"#utility.yul\":755:756   */\n      0x00\n        /* \"#utility.yul\":752:753   */\n      dup1\n        /* \"#utility.yul\":745:757   */\n      revert\n        /* \"#utility.yul\":769:895   */\n    tag_106:\n        /* \"#utility.yul\":806:813   */\n      0x00\n        /* \"#utility.yul\":846:888   */\n      0xffffffffffffffffffffffffffffffffffffffff\n        /* \"#utility.yul\":839:844   */\n      dup3\n        /* \"#utility.yul\":835:889   */\n      and\n        /* \"#utility.yul\":824:889   */\n      swap1\n      pop\n        /* \"#utility.yul\":769:895   */\n      swap2\n      swap1\n      pop\n      jump\t// out\n        /* \"#utility.yul\":901:997   */\n    tag_107:\n        /* \"#utility.yul\":938:945   */\n      0x00\n        /* \"#utility.yul\":967:991   */\n      tag_171\n        /* \"#utility.yul\":985:990   */\n      dup3\n        /* \"#utility.yul\":967:991   */\n      tag_106\n      jump\t// in\n    tag_171:\n        /* \"#utility.yul\":956:991   */\n      swap1\n      pop\n        /* \"#utility.yul\":901:997   */\n      swap2\n      swap1\n      pop\n      jump\t// out\n        /* \"#utility.yul\":1003:1125   */\n    tag_108:\n        /* \"#utility.yul\":1076:1100   */\n      tag_173\n        /* \"#utility.yul\":1094:1099   */\n      dup2\n        /* \"#utility.yul\":1076:1100   */\n      tag_107\n      jump\t// in\n    tag_173:\n        /* \"#utility.yul\":1069:1074   */\n      dup2\n        /* \"#utility.yul\":1066:1101   */\n      eq\n        /* \"#utility.yul\":1056:1119   */\n      tag_174\n      jumpi\n        /* \"#utility.yul\":1115:1116   */\n      0x00\n        /* \"#utility.yul\":1112:1113   */\n      dup1\n        /* \"#utility.yul\":1105:1117   */\n      revert\n        /* \"#utility.yul\":1056:1119   */\n    tag_174:\n        /* \"#utility.yul\":1003:1125   */\n      pop\n      jump\t// out\n        /* \"#utility.yul\":1131:1270   */\n    tag_109:\n        /* \"#utility.yul\":1177:1182   */\n      0x00\n        /* \"#utility.yul\":1215:1221   */\n      dup2\n        /* \"#utility.yul\":1202:1222   */\n      calldataload\n        /* \"#utility.yul\":1193:1222   */\n      swap1\n      pop\n        /* \"#utility.yul\":1231:1264   */\n      tag_176\n        /* \"#utility.yul\":1258:1263   */\n      dup2\n        /* \"#utility.yul\":1231:1264   */\n      tag_108\n      jump\t// in\n    tag_176:\n        /* \"#utility.yul\":1131:1270   */\n      swap3\n      swap2\n      pop\n      pop\n      jump\t// out\n        /* \"#utility.yul\":1276:1393   */\n    tag_110:\n        /* \"#utility.yul\":1385:1386   */\n      0x00\n        /* \"#utility.yul\":1382:1383   */\n      dup1\n        /* \"#utility.yul\":1375:1387   */\n      revert\n        /* \"#utility.yul\":1399:1516   */\n    tag_111:\n        /* \"#utility.yul\":1508:1509   */\n      0x00\n        /* \"#utility.yul\":1505:1506   */\n      dup1\n        /* \"#utility.yul\":1498:1510   */\n      revert\n        /* \"#utility.yul\":1522:1624   */\n    tag_112:\n        /* \"#utility.yul\":1563:1569   */\n      0x00\n        /* \"#utility.yul\":1614:1616   */\n      0x1f\n        /* \"#utility.yul\":1610:1617   */\n      not\n        /* \"#utility.yul\":1605:1607   */\n      0x1f\n        /* \"#utility.yul\":1598:1603   */\n      dup4\n        /* \"#utility.yul\":1594:1608   */\n      add\n        /* \"#utility.yul\":1590:1618   */\n      and\n        /* \"#utility.yul\":1580:1618   */\n      swap1\n      pop\n        /* \"#utility.yul\":1522:1624   */\n      swap2\n      swap1\n      pop\n      jump\t// out\n        /* \"#utility.yul\":1630:1810   */\n    tag_113:\n        /* \"#utility.yul\":1678:1755   */\n      0x4e487b7100000000000000000000000000000000000000000000000000000000\n        /* \"#utility.yul\":1675:1676   */\n      0x00\n        /* \"#utility.yul\":1668:1756   */\n      mstore\n        /* \"#utility.yul\":1775:1779   */\n      0x41\n        /* \"#utility.yul\":1772:1773   */\n      0x04\n        /* \"#utility.yul\":1765:1780   */\n      mstore\n        /* \"#utility.yul\":1799:1803   */\n      0x24\n        /* \"#utility.yul\":1796:1797   */\n      0x00\n        /* \"#utility.yul\":1789:1804   */\n      revert\n        /* \"#utility.yul\":1816:2097   */\n    tag_114:\n        /* \"#utility.yul\":1899:1926   */\n      tag_182\n        /* \"#utility.yul\":1921:1925   */\n      dup3\n        /* \"#utility.yul\":1899:1926   */\n      tag_112\n      jump\t// in\n    tag_182:\n        /* \"#utility.yul\":1891:1897   */\n      dup2\n        /* \"#utility.yul\":1887:1927   */\n      add\n        /* \"#utility.yul\":2029:2035   */\n      dup2\n        /* \"#utility.yul\":2017:2027   */\n      dup2\n        /* \"#utility.yul\":2014:2036   */\n      lt\n        /* \"#utility.yul\":1993:2011   */\n      0xffffffffffffffff\n        /* \"#utility.yul\":1981:1991   */\n      dup3\n        /* \"#utility.yul\":1978:2012   */\n      gt\n        /* \"#utility.yul\":1975:2037   */\n      or\n        /* \"#utility.yul\":1972:2060   */\n      iszero\n      tag_183\n      jumpi\n        /* \"#utility.yul\":2040:2058   */\n      tag_184\n      tag_113\n      jump\t// in\n    tag_184:\n        /* \"#utility.yul\":1972:2060   */\n    tag_183:\n        /* \"#utility.yul\":2080:2090   */\n      dup1\n        /* \"#utility.yul\":2076:2078   */\n      0x40\n        /* \"#utility.yul\":2069:2091   */\n      mstore\n        /* \"#utility.yul\":1859:2097   */\n      pop\n        /* \"#utility.yul\":1816:2097   */\n      pop\n      pop\n      jump\t// out\n        /* \"#utility.yul\":2103:2232   */\n    tag_115:\n        /* \"#utility.yul\":2137:2143   */\n      0x00\n        /* \"#utility.yul\":2164:2184   */\n      tag_186\n      tag_103\n      jump\t// in\n    tag_186:\n        /* \"#utility.yul\":2154:2184   */\n      swap1\n      pop\n        /* \"#utility.yul\":2193:2226   */\n      tag_187\n        /* \"#utility.yul\":2221:2225   */\n      dup3\n        /* \"#utility.yul\":2213:2219   */\n      dup3\n        /* \"#utility.yul\":2193:2226   */\n      tag_114\n      jump\t// in\n    tag_187:\n        /* \"#utility.yul\":2103:2232   */\n      swap2\n      swap1\n      pop\n      jump\t// out\n        /* \"#utility.yul\":2238:2546   */\n    tag_116:\n        /* \"#utility.yul\":2300:2304   */\n      0x00\n        /* \"#utility.yul\":2390:2408   */\n      0xffffffffffffffff\n        /* \"#utility.yul\":2382:2388   */\n      dup3\n        /* \"#utility.yul\":2379:2409   */\n      gt\n        /* \"#utility.yul\":2376:2432   */\n      iszero\n      tag_189\n      jumpi\n        /* \"#utility.yul\":2412:2430   */\n      tag_190\n      tag_113\n      jump\t// in\n    tag_190:\n        /* \"#utility.yul\":2376:2432   */\n    tag_189:\n        /* \"#utility.yul\":2450:2479   */\n      tag_191\n        /* \"#utility.yul\":2472:2478   */\n      dup3\n        /* \"#utility.yul\":2450:2479   */\n      tag_112\n      jump\t// in\n    tag_191:\n        /* \"#utility.yul\":2442:2479   */\n      swap1\n      pop\n        /* \"#utility.yul\":2534:2538   */\n      0x20\n        /* \"#utility.yul\":2528:2532   */\n      dup2\n        /* \"#utility.yul\":2524:2539   */\n      add\n        /* \"#utility.yul\":2516:2539   */\n      swap1\n      pop\n        /* \"#utility.yul\":2238:2546   */\n      swap2\n      swap1\n      pop\n      jump\t// out\n        /* \"#utility.yul\":2552:2698   */\n    tag_117:\n        /* \"#utility.yul\":2649:2655   */\n      dup3\n        /* \"#utility.yul\":2644:2647   */\n      dup2\n        /* \"#utility.yul\":2639:2642   */\n      dup4\n        /* \"#utility.yul\":2626:2656   */\n      calldatacopy\n        /* \"#utility.yul\":2690:2691   */\n      0x00\n        /* \"#utility.yul\":2681:2687   */\n      dup4\n        /* \"#utility.yul\":2676:2679   */\n      dup4\n        /* \"#utility.yul\":2672:2688   */\n      add\n        /* \"#utility.yul\":2665:2692   */\n      mstore\n        /* \"#utility.yul\":2552:2698   */\n      pop\n      pop\n      pop\n      jump\t// out\n        /* \"#utility.yul\":2704:3129   */\n    tag_118:\n        /* \"#utility.yul\":2782:2787   */\n      0x00\n        /* \"#utility.yul\":2807:2873   */\n      tag_194\n        /* \"#utility.yul\":2823:2872   */\n      tag_195\n        /* \"#utility.yul\":2865:2871   */\n      dup5\n        /* \"#utility.yul\":2823:2872   */\n      tag_116\n      jump\t// in\n    tag_195:\n        /* \"#utility.yul\":2807:2873   */\n      tag_115\n      jump\t// in\n    tag_194:\n        /* \"#utility.yul\":2798:2873   */\n      swap1\n      pop\n        /* \"#utility.yul\":2896:2902   */\n      dup3\n        /* \"#utility.yul\":2889:2894   */\n      dup2\n        /* \"#utility.yul\":2882:2903   */\n      mstore\n        /* \"#utility.yul\":2934:2938   */\n      0x20\n        /* \"#utility.yul\":2927:2932   */\n      dup2\n        /* \"#utility.yul\":2923:2939   */\n      add\n        /* \"#utility.yul\":2972:2975   */\n      dup5\n        /* \"#utility.yul\":2963:2969   */\n      dup5\n        /* \"#utility.yul\":2958:2961   */\n      dup5\n        /* \"#utility.yul\":2954:2970   */\n      add\n        /* \"#utility.yul\":2951:2976   */\n      gt\n        /* \"#utility.yul\":2948:3060   */\n      iszero\n      tag_196\n      jumpi\n        /* \"#utility.yul\":2979:3058   */\n      tag_197\n      tag_111\n      jump\t// in\n    tag_197:\n        /* \"#utility.yul\":2948:3060   */\n    tag_196:\n        /* \"#utility.yul\":3069:3123   */\n      tag_198\n        /* \"#utility.yul\":3116:3122   */\n      dup5\n        /* \"#utility.yul\":3111:3114   */\n      dup3\n        /* \"#utility.yul\":3106:3109   */\n      dup6\n        /* \"#utility.yul\":3069:3123   */\n      tag_117\n      jump\t// in\n    tag_198:\n        /* \"#utility.yul\":2788:3129   */\n      pop\n        /* \"#utility.yul\":2704:3129   */\n      swap4\n      swap3\n      pop\n      pop\n      pop\n      jump\t// out\n        /* \"#utility.yul\":3149:3489   */\n    tag_119:\n        /* \"#utility.yul\":3205:3210   */\n      0x00\n        /* \"#utility.yul\":3254:3257   */\n      dup3\n        /* \"#utility.yul\":3247:3251   */\n      0x1f\n        /* \"#utility.yul\":3239:3245   */\n      dup4\n        /* \"#utility.yul\":3235:3252   */\n      add\n        /* \"#utility.yul\":3231:3258   */\n      slt\n        /* \"#utility.yul\":3221:3343   */\n      tag_200\n      jumpi\n        /* \"#utility.yul\":3262:3341   */\n      tag_201\n      tag_110\n      jump\t// in\n    tag_201:\n        /* \"#utility.yul\":3221:3343   */\n    tag_200:\n        /* \"#utility.yul\":3379:3385   */\n      dup2\n        /* \"#utility.yul\":3366:3386   */\n      calldataload\n        /* \"#utility.yul\":3404:3483   */\n      tag_202\n        /* \"#utility.yul\":3479:3482   */\n      dup5\n        /* \"#utility.yul\":3471:3477   */\n      dup3\n        /* \"#utility.yul\":3464:3468   */\n      0x20\n        /* \"#utility.yul\":3456:3462   */\n      dup7\n        /* \"#utility.yul\":3452:3469   */\n      add\n        /* \"#utility.yul\":3404:3483   */\n      tag_118\n      jump\t// in\n    tag_202:\n        /* \"#utility.yul\":3395:3483   */\n      swap2\n      pop\n        /* \"#utility.yul\":3211:3489   */\n      pop\n        /* \"#utility.yul\":3149:3489   */\n      swap3\n      swap2\n      pop\n      pop\n      jump\t// out\n        /* \"#utility.yul\":3495:4474   */\n    tag_17:\n        /* \"#utility.yul\":3592:3598   */\n      0x00\n        /* \"#utility.yul\":3600:3606   */\n      dup1\n        /* \"#utility.yul\":3608:3614   */\n      0x00\n        /* \"#utility.yul\":3657:3659   */\n      0x60\n        /* \"#utility.yul\":3645:3654   */\n      dup5\n        /* \"#utility.yul\":3636:3643   */\n      dup7\n        /* \"#utility.yul\":3632:3655   */\n      sub\n        /* \"#utility.yul\":3628:3660   */\n      slt\n        /* \"#utility.yul\":3625:3744   */\n      iszero\n      tag_204\n      jumpi\n        /* \"#utility.yul\":3663:3742   */\n      tag_205\n      tag_104\n      jump\t// in\n    tag_205:\n        /* \"#utility.yul\":3625:3744   */\n    tag_204:\n        /* \"#utility.yul\":3783:3784   */\n      0x00\n        /* \"#utility.yul\":3808:3861   */\n      tag_206\n        /* \"#utility.yul\":3853:3860   */\n      dup7\n        /* \"#utility.yul\":3844:3850   */\n      dup3\n        /* \"#utility.yul\":3833:3842   */\n      dup8\n        /* \"#utility.yul\":3829:3851   */\n      add\n        /* \"#utility.yul\":3808:3861   */\n      tag_109\n      jump\t// in\n    tag_206:\n        /* \"#utility.yul\":3798:3861   */\n      swap4\n      pop\n        /* \"#utility.yul\":3754:3871   */\n      pop\n        /* \"#utility.yul\":3938:3940   */\n      0x20\n        /* \"#utility.yul\":3927:3936   */\n      dup5\n        /* \"#utility.yul\":3923:3941   */\n      add\n        /* \"#utility.yul\":3910:3942   */\n      calldataload\n        /* \"#utility.yul\":3969:3987   */\n      0xffffffffffffffff\n        /* \"#utility.yul\":3961:3967   */\n      dup2\n        /* \"#utility.yul\":3958:3988   */\n      gt\n        /* \"#utility.yul\":3955:4072   */\n      iszero\n      tag_207\n      jumpi\n        /* \"#utility.yul\":3991:4070   */\n      tag_208\n      tag_105\n      jump\t// in\n    tag_208:\n        /* \"#utility.yul\":3955:4072   */\n    tag_207:\n        /* \"#utility.yul\":4096:4159   */\n      tag_209\n        /* \"#utility.yul\":4151:4158   */\n      dup7\n        /* \"#utility.yul\":4142:4148   */\n      dup3\n        /* \"#utility.yul\":4131:4140   */\n      dup8\n        /* \"#utility.yul\":4127:4149   */\n      add\n        /* \"#utility.yul\":4096:4159   */\n      tag_119\n      jump\t// in\n    tag_209:\n        /* \"#utility.yul\":4086:4159   */\n      swap3\n      pop\n        /* \"#utility.yul\":3881:4169   */\n      pop\n        /* \"#utility.yul\":4236:4238   */\n      0x40\n        /* \"#utility.yul\":4225:4234   */\n      dup5\n        /* \"#utility.yul\":4221:4239   */\n      add\n        /* \"#utility.yul\":4208:4240   */\n      calldataload\n        /* \"#utility.yul\":4267:4285   */\n      0xffffffffffffffff\n        /* \"#utility.yul\":4259:4265   */\n      dup2\n        /* \"#utility.yul\":4256:4286   */\n      gt\n        /* \"#utility.yul\":4253:4370   */\n      iszero\n      tag_210\n      jumpi\n        /* \"#utility.yul\":4289:4368   */\n      tag_211\n      tag_105\n      jump\t// in\n    tag_211:\n        /* \"#utility.yul\":4253:4370   */\n    tag_210:\n        /* \"#utility.yul\":4394:4457   */\n      tag_212\n        /* \"#utility.yul\":4449:4456   */\n      dup7\n        /* \"#utility.yul\":4440:4446   */\n      dup3\n        /* \"#utility.yul\":4429:4438   */\n      dup8\n        /* \"#utility.yul\":4425:4447   */\n      add\n        /* \"#utility.yul\":4394:4457   */\n      tag_119\n      jump\t// in\n    tag_212:\n        /* \"#utility.yul\":4384:4457   */\n      swap2\n      pop\n        /* \"#utility.yul\":4179:4467   */\n      pop\n        /* \"#utility.yul\":3495:4474   */\n      swap3\n      pop\n      swap3\n      pop\n      swap3\n      jump\t// out\n        /* \"#utility.yul\":4480:4809   */\n    tag_22:\n        /* \"#utility.yul\":4539:4545   */\n      0x00\n        /* \"#utility.yul\":4588:4590   */\n      0x20\n        /* \"#utility.yul\":4576:4585   */\n      dup3\n        /* \"#utility.yul\":4567:4574   */\n      dup5\n        /* \"#utility.yul\":4563:4586   */\n      sub\n        /* \"#utility.yul\":4559:4591   */\n      slt\n        /* \"#utility.yul\":4556:4675   */\n      iszero\n      tag_214\n      jumpi\n        /* \"#utility.yul\":4594:4673   */\n      tag_215\n      tag_104\n      jump\t// in\n    tag_215:\n        /* \"#utility.yul\":4556:4675   */\n    tag_214:\n        /* \"#utility.yul\":4714:4715   */\n      0x00\n        /* \"#utility.yul\":4739:4792   */\n      tag_216\n        /* \"#utility.yul\":4784:4791   */\n      dup5\n        /* \"#utility.yul\":4775:4781   */\n      dup3\n        /* \"#utility.yul\":4764:4773   */\n      dup6\n        /* \"#utility.yul\":4760:4782   */\n      add\n        /* \"#utility.yul\":4739:4792   */\n      tag_109\n      jump\t// in\n    tag_216:\n        /* \"#utility.yul\":4729:4792   */\n      swap2\n      pop\n        /* \"#utility.yul\":4685:4802   */\n      pop\n        /* \"#utility.yul\":4480:4809   */\n      swap3\n      swap2\n      pop\n      pop\n      jump\t// out\n        /* \"#utility.yul\":4815:4953   */\n    tag_120:\n        /* \"#utility.yul\":4906:4912   */\n      0x00\n        /* \"#utility.yul\":4940:4945   */\n      dup2\n        /* \"#utility.yul\":4934:4946   */\n      mload\n        /* \"#utility.yul\":4924:4946   */\n      swap1\n      pop\n        /* \"#utility.yul\":4815:4953   */\n      swap2\n      swap1\n      pop\n      jump\t// out\n        /* \"#utility.yul\":4959:5167   */\n    tag_121:\n        /* \"#utility.yul\":5082:5093   */\n      0x00\n        /* \"#utility.yul\":5116:5122   */\n      dup3\n        /* \"#utility.yul\":5111:5114   */\n      dup3\n        /* \"#utility.yul\":5104:5123   */\n      mstore\n        /* \"#utility.yul\":5156:5160   */\n      0x20\n        /* \"#utility.yul\":5151:5154   */\n      dup3\n        /* \"#utility.yul\":5147:5161   */\n      add\n        /* \"#utility.yul\":5132:5161   */\n      swap1\n      pop\n        /* \"#utility.yul\":4959:5167   */\n      swap3\n      swap2\n      pop\n      pop\n      jump\t// out\n        /* \"#utility.yul\":5173:5329   */\n    tag_122:\n        /* \"#utility.yul\":5264:5268   */\n      0x00\n        /* \"#utility.yul\":5287:5290   */\n      dup2\n        /* \"#utility.yul\":5279:5290   */\n      swap1\n      pop\n        /* \"#utility.yul\":5317:5321   */\n      0x20\n        /* \"#utility.yul\":5312:5315   */\n      dup3\n        /* \"#utility.yul\":5308:5322   */\n      add\n        /* \"#utility.yul\":5300:5322   */\n      swap1\n      pop\n        /* \"#utility.yul\":5173:5329   */\n      swap2\n      swap1\n      pop\n      jump\t// out\n        /* \"#utility.yul\":5335:5443   */\n    tag_123:\n        /* \"#utility.yul\":5412:5436   */\n      tag_221\n        /* \"#utility.yul\":5430:5435   */\n      dup2\n        /* \"#utility.yul\":5412:5436   */\n      tag_101\n      jump\t// in\n    tag_221:\n        /* \"#utility.yul\":5407:5410   */\n      dup3\n        /* \"#utility.yul\":5400:5437   */\n      mstore\n        /* \"#utility.yul\":5335:5443   */\n      pop\n      pop\n      jump\t// out\n        /* \"#utility.yul\":5449:5548   */\n    tag_124:\n        /* \"#utility.yul\":5501:5507   */\n      0x00\n        /* \"#utility.yul\":5535:5540   */\n      dup2\n        /* \"#utility.yul\":5529:5541   */\n      mload\n        /* \"#utility.yul\":5519:5541   */\n      swap1\n      pop\n        /* \"#utility.yul\":5449:5548   */\n      swap2\n      swap1\n      pop\n      jump\t// out\n        /* \"#utility.yul\":5554:5713   */\n    tag_125:\n        /* \"#utility.yul\":5628:5639   */\n      0x00\n        /* \"#utility.yul\":5662:5668   */\n      dup3\n        /* \"#utility.yul\":5657:5660   */\n      dup3\n        /* \"#utility.yul\":5650:5669   */\n      mstore\n        /* \"#utility.yul\":5702:5706   */\n      0x20\n        /* \"#utility.yul\":5697:5700   */\n      dup3\n        /* \"#utility.yul\":5693:5707   */\n      add\n        /* \"#utility.yul\":5678:5707   */\n      swap1\n      pop\n        /* \"#utility.yul\":5554:5713   */\n      swap3\n      swap2\n      pop\n      pop\n      jump\t// out\n        /* \"#utility.yul\":5719:5965   */\n    tag_126:\n        /* \"#utility.yul\":5800:5801   */\n      0x00\n        /* \"#utility.yul\":5810:5923   */\n    tag_225:\n        /* \"#utility.yul\":5824:5830   */\n      dup4\n        /* \"#utility.yul\":5821:5822   */\n      dup2\n        /* \"#utility.yul\":5818:5831   */\n      lt\n        /* \"#utility.yul\":5810:5923   */\n      iszero\n      tag_227\n      jumpi\n        /* \"#utility.yul\":5909:5910   */\n      dup1\n        /* \"#utility.yul\":5904:5907   */\n      dup3\n        /* \"#utility.yul\":5900:5911   */\n      add\n        /* \"#utility.yul\":5894:5912   */\n      mload\n        /* \"#utility.yul\":5890:5891   */\n      dup2\n        /* \"#utility.yul\":5885:5888   */\n      dup5\n        /* \"#utility.yul\":5881:5892   */\n      add\n        /* \"#utility.yul\":5874:5913   */\n      mstore\n        /* \"#utility.yul\":5846:5848   */\n      0x20\n        /* \"#utility.yul\":5843:5844   */\n      dup2\n        /* \"#utility.yul\":5839:5849   */\n      add\n        /* \"#utility.yul\":5834:5849   */\n      swap1\n      pop\n        /* \"#utility.yul\":5810:5923   */\n      jump(tag_225)\n    tag_227:\n        /* \"#utility.yul\":5957:5958   */\n      0x00\n        /* \"#utility.yul\":5948:5954   */\n      dup5\n        /* \"#utility.yul\":5943:5946   */\n      dup5\n        /* \"#utility.yul\":5939:5955   */\n      add\n        /* \"#utility.yul\":5932:5959   */\n      mstore\n        /* \"#utility.yul\":5781:5965   */\n      pop\n        /* \"#utility.yul\":5719:5965   */\n      pop\n      pop\n      pop\n      jump\t// out\n        /* \"#utility.yul\":5971:6328   */\n    tag_127:\n        /* \"#utility.yul\":6049:6052   */\n      0x00\n        /* \"#utility.yul\":6077:6116   */\n      tag_229\n        /* \"#utility.yul\":6110:6115   */\n      dup3\n        /* \"#utility.yul\":6077:6116   */\n      tag_124\n      jump\t// in\n    tag_229:\n        /* \"#utility.yul\":6132:6193   */\n      tag_230\n        /* \"#utility.yul\":6186:6192   */\n      dup2\n        /* \"#utility.yul\":6181:6184   */\n      dup6\n        /* \"#utility.yul\":6132:6193   */\n      tag_125\n      jump\t// in\n    tag_230:\n        /* \"#utility.yul\":6125:6193   */\n      swap4\n      pop\n        /* \"#utility.yul\":6202:6267   */\n      tag_231\n        /* \"#utility.yul\":6260:6266   */\n      dup2\n        /* \"#utility.yul\":6255:6258   */\n      dup6\n        /* \"#utility.yul\":6248:6252   */\n      0x20\n        /* \"#utility.yul\":6241:6246   */\n      dup7\n        /* \"#utility.yul\":6237:6253   */\n      add\n        /* \"#utility.yul\":6202:6267   */\n      tag_126\n      jump\t// in\n    tag_231:\n        /* \"#utility.yul\":6292:6321   */\n      tag_232\n        /* \"#utility.yul\":6314:6320   */\n      dup2\n        /* \"#utility.yul\":6292:6321   */\n      tag_112\n      jump\t// in\n    tag_232:\n        /* \"#utility.yul\":6287:6290   */\n      dup5\n        /* \"#utility.yul\":6283:6322   */\n      add\n        /* \"#utility.yul\":6276:6322   */\n      swap2\n      pop\n        /* \"#utility.yul\":6053:6328   */\n      pop\n        /* \"#utility.yul\":5971:6328   */\n      swap3\n      swap2\n      pop\n      pop\n      jump\t// out\n        /* \"#utility.yul\":6384:7580   */\n    tag_128:\n        /* \"#utility.yul\":6491:6494   */\n      0x00\n        /* \"#utility.yul\":6527:6531   */\n      0xa0\n        /* \"#utility.yul\":6522:6525   */\n      dup4\n        /* \"#utility.yul\":6518:6532   */\n      add\n        /* \"#utility.yul\":6612:6616   */\n      0x00\n        /* \"#utility.yul\":6605:6610   */\n      dup4\n        /* \"#utility.yul\":6601:6617   */\n      add\n        /* \"#utility.yul\":6595:6618   */\n      mload\n        /* \"#utility.yul\":6631:6694   */\n      tag_234\n        /* \"#utility.yul\":6688:6692   */\n      0x00\n        /* \"#utility.yul\":6683:6686   */\n      dup7\n        /* \"#utility.yul\":6679:6693   */\n      add\n        /* \"#utility.yul\":6665:6677   */\n      dup3\n        /* \"#utility.yul\":6631:6694   */\n      tag_123\n      jump\t// in\n    tag_234:\n        /* \"#utility.yul\":6542:6704   */\n      pop\n        /* \"#utility.yul\":6788:6792   */\n      0x20\n        /* \"#utility.yul\":6781:6786   */\n      dup4\n        /* \"#utility.yul\":6777:6793   */\n      add\n        /* \"#utility.yul\":6771:6794   */\n      mload\n        /* \"#utility.yul\":6807:6870   */\n      tag_235\n        /* \"#utility.yul\":6864:6868   */\n      0x20\n        /* \"#utility.yul\":6859:6862   */\n      dup7\n        /* \"#utility.yul\":6855:6869   */\n      add\n        /* \"#utility.yul\":6841:6853   */\n      dup3\n        /* \"#utility.yul\":6807:6870   */\n      tag_123\n      jump\t// in\n    tag_235:\n        /* \"#utility.yul\":6714:6880   */\n      pop\n        /* \"#utility.yul\":6963:6967   */\n      0x40\n        /* \"#utility.yul\":6956:6961   */\n      dup4\n        /* \"#utility.yul\":6952:6968   */\n      add\n        /* \"#utility.yul\":6946:6969   */\n      mload\n        /* \"#utility.yul\":7016:7019   */\n      dup5\n        /* \"#utility.yul\":7010:7014   */\n      dup3\n        /* \"#utility.yul\":7006:7020   */\n      sub\n        /* \"#utility.yul\":6999:7003   */\n      0x40\n        /* \"#utility.yul\":6994:6997   */\n      dup7\n        /* \"#utility.yul\":6990:7004   */\n      add\n        /* \"#utility.yul\":6983:7021   */\n      mstore\n        /* \"#utility.yul\":7042:7115   */\n      tag_236\n        /* \"#utility.yul\":7110:7114   */\n      dup3\n        /* \"#utility.yul\":7096:7108   */\n      dup3\n        /* \"#utility.yul\":7042:7115   */\n      tag_127\n      jump\t// in\n    tag_236:\n        /* \"#utility.yul\":7034:7115   */\n      swap2\n      pop\n        /* \"#utility.yul\":6890:7126   */\n      pop\n        /* \"#utility.yul\":7211:7215   */\n      0x60\n        /* \"#utility.yul\":7204:7209   */\n      dup4\n        /* \"#utility.yul\":7200:7216   */\n      add\n        /* \"#utility.yul\":7194:7217   */\n      mload\n        /* \"#utility.yul\":7264:7267   */\n      dup5\n        /* \"#utility.yul\":7258:7262   */\n      dup3\n        /* \"#utility.yul\":7254:7268   */\n      sub\n        /* \"#utility.yul\":7247:7251   */\n      0x60\n        /* \"#utility.yul\":7242:7245   */\n      dup7\n        /* \"#utility.yul\":7238:7252   */\n      add\n        /* \"#utility.yul\":7231:7269   */\n      mstore\n        /* \"#utility.yul\":7290:7363   */\n      tag_237\n        /* \"#utility.yul\":7358:7362   */\n      dup3\n        /* \"#utility.yul\":7344:7356   */\n      dup3\n        /* \"#utility.yul\":7290:7363   */\n      tag_127\n      jump\t// in\n    tag_237:\n        /* \"#utility.yul\":7282:7363   */\n      swap2\n      pop\n        /* \"#utility.yul\":7136:7374   */\n      pop\n        /* \"#utility.yul\":7461:7465   */\n      0x80\n        /* \"#utility.yul\":7454:7459   */\n      dup4\n        /* \"#utility.yul\":7450:7466   */\n      add\n        /* \"#utility.yul\":7444:7467   */\n      mload\n        /* \"#utility.yul\":7480:7543   */\n      tag_238\n        /* \"#utility.yul\":7537:7541   */\n      0x80\n        /* \"#utility.yul\":7532:7535   */\n      dup7\n        /* \"#utility.yul\":7528:7542   */\n      add\n        /* \"#utility.yul\":7514:7526   */\n      dup3\n        /* \"#utility.yul\":7480:7543   */\n      tag_123\n      jump\t// in\n    tag_238:\n        /* \"#utility.yul\":7384:7553   */\n      pop\n        /* \"#utility.yul\":7570:7574   */\n      dup1\n        /* \"#utility.yul\":7563:7574   */\n      swap2\n      pop\n        /* \"#utility.yul\":6496:7580   */\n      pop\n        /* \"#utility.yul\":6384:7580   */\n      swap3\n      swap2\n      pop\n      pop\n      jump\t// out\n        /* \"#utility.yul\":7586:7838   */\n    tag_129:\n        /* \"#utility.yul\":7703:7713   */\n      0x00\n        /* \"#utility.yul\":7738:7832   */\n      tag_240\n        /* \"#utility.yul\":7828:7831   */\n      dup4\n        /* \"#utility.yul\":7820:7826   */\n      dup4\n        /* \"#utility.yul\":7738:7832   */\n      tag_128\n      jump\t// in\n    tag_240:\n        /* \"#utility.yul\":7724:7832   */\n      swap1\n      pop\n        /* \"#utility.yul\":7586:7838   */\n      swap3\n      swap2\n      pop\n      pop\n      jump\t// out\n        /* \"#utility.yul\":7844:7981   */\n    tag_130:\n        /* \"#utility.yul\":7938:7942   */\n      0x00\n        /* \"#utility.yul\":7970:7974   */\n      0x20\n        /* \"#utility.yul\":7965:7968   */\n      dup3\n        /* \"#utility.yul\":7961:7975   */\n      add\n        /* \"#utility.yul\":7953:7975   */\n      swap1\n      pop\n        /* \"#utility.yul\":7844:7981   */\n      swap2\n      swap1\n      pop\n      jump\t// out\n        /* \"#utility.yul\":8041:9144   */\n    tag_131:\n        /* \"#utility.yul\":8208:8211   */\n      0x00\n        /* \"#utility.yul\":8237:8315   */\n      tag_243\n        /* \"#utility.yul\":8309:8314   */\n      dup3\n        /* \"#utility.yul\":8237:8315   */\n      tag_120\n      jump\t// in\n    tag_243:\n        /* \"#utility.yul\":8331:8441   */\n      tag_244\n        /* \"#utility.yul\":8434:8440   */\n      dup2\n        /* \"#utility.yul\":8429:8432   */\n      dup6\n        /* \"#utility.yul\":8331:8441   */\n      tag_121\n      jump\t// in\n    tag_244:\n        /* \"#utility.yul\":8324:8441   */\n      swap4\n      pop\n        /* \"#utility.yul\":8467:8470   */\n      dup4\n        /* \"#utility.yul\":8512:8516   */\n      0x20\n        /* \"#utility.yul\":8504:8510   */\n      dup3\n        /* \"#utility.yul\":8500:8517   */\n      mul\n        /* \"#utility.yul\":8495:8498   */\n      dup6\n        /* \"#utility.yul\":8491:8518   */\n      add\n        /* \"#utility.yul\":8542:8622   */\n      tag_245\n        /* \"#utility.yul\":8616:8621   */\n      dup6\n        /* \"#utility.yul\":8542:8622   */\n      tag_122\n      jump\t// in\n    tag_245:\n        /* \"#utility.yul\":8645:8652   */\n      dup1\n        /* \"#utility.yul\":8676:8677   */\n      0x00\n        /* \"#utility.yul\":8661:9099   */\n    tag_246:\n        /* \"#utility.yul\":8686:8692   */\n      dup6\n        /* \"#utility.yul\":8683:8684   */\n      dup2\n        /* \"#utility.yul\":8680:8693   */\n      lt\n        /* \"#utility.yul\":8661:9099   */\n      iszero\n      tag_248\n      jumpi\n        /* \"#utility.yul\":8757:8766   */\n      dup5\n        /* \"#utility.yul\":8751:8755   */\n      dup5\n        /* \"#utility.yul\":8747:8767   */\n      sub\n        /* \"#utility.yul\":8742:8745   */\n      dup10\n        /* \"#utility.yul\":8735:8768   */\n      mstore\n        /* \"#utility.yul\":8808:8814   */\n      dup2\n        /* \"#utility.yul\":8802:8815   */\n      mload\n        /* \"#utility.yul\":8836:8948   */\n      tag_249\n        /* \"#utility.yul\":8943:8947   */\n      dup6\n        /* \"#utility.yul\":8928:8941   */\n      dup3\n        /* \"#utility.yul\":8836:8948   */\n      tag_129\n      jump\t// in\n    tag_249:\n        /* \"#utility.yul\":8828:8948   */\n      swap5\n      pop\n        /* \"#utility.yul\":8971:9055   */\n      tag_250\n        /* \"#utility.yul\":9048:9054   */\n      dup4\n        /* \"#utility.yul\":8971:9055   */\n      tag_130\n      jump\t// in\n    tag_250:\n        /* \"#utility.yul\":8961:9055   */\n      swap3\n      pop\n        /* \"#utility.yul\":9084:9088   */\n      0x20\n        /* \"#utility.yul\":9079:9082   */\n      dup11\n        /* \"#utility.yul\":9075:9089   */\n      add\n        /* \"#utility.yul\":9068:9089   */\n      swap10\n      pop\n        /* \"#utility.yul\":8721:9099   */\n      pop\n        /* \"#utility.yul\":8708:8709   */\n      0x01\n        /* \"#utility.yul\":8705:8706   */\n      dup2\n        /* \"#utility.yul\":8701:8710   */\n      add\n        /* \"#utility.yul\":8696:8710   */\n      swap1\n      pop\n        /* \"#utility.yul\":8661:9099   */\n      jump(tag_246)\n    tag_248:\n        /* \"#utility.yul\":8665:8679   */\n      pop\n        /* \"#utility.yul\":9115:9119   */\n      dup3\n        /* \"#utility.yul\":9108:9119   */\n      swap8\n      pop\n        /* \"#utility.yul\":9135:9138   */\n      dup8\n        /* \"#utility.yul\":9128:9138   */\n      swap6\n      pop\n        /* \"#utility.yul\":8213:9144   */\n      pop\n      pop\n      pop\n      pop\n      pop\n        /* \"#utility.yul\":8041:9144   */\n      swap3\n      swap2\n      pop\n      pop\n      jump\t// out\n        /* \"#utility.yul\":9150:9619   */\n    tag_33:\n        /* \"#utility.yul\":9341:9345   */\n      0x00\n        /* \"#utility.yul\":9379:9381   */\n      0x20\n        /* \"#utility.yul\":9368:9377   */\n      dup3\n        /* \"#utility.yul\":9364:9382   */\n      add\n        /* \"#utility.yul\":9356:9382   */\n      swap1\n      pop\n        /* \"#utility.yul\":9428:9437   */\n      dup2\n        /* \"#utility.yul\":9422:9426   */\n      dup2\n        /* \"#utility.yul\":9418:9438   */\n      sub\n        /* \"#utility.yul\":9414:9415   */\n      0x00\n        /* \"#utility.yul\":9403:9412   */\n      dup4\n        /* \"#utility.yul\":9399:9416   */\n      add\n        /* \"#utility.yul\":9392:9439   */\n      mstore\n        /* \"#utility.yul\":9456:9612   */\n      tag_252\n        /* \"#utility.yul\":9607:9611   */\n      dup2\n        /* \"#utility.yul\":9598:9604   */\n      dup5\n        /* \"#utility.yul\":9456:9612   */\n      tag_131\n      jump\t// in\n    tag_252:\n        /* \"#utility.yul\":9448:9612   */\n      swap1\n      pop\n        /* \"#utility.yul\":9150:9619   */\n      swap3\n      swap2\n      pop\n      pop\n      jump\t// out\n        /* \"#utility.yul\":9625:9747   */\n    tag_132:\n        /* \"#utility.yul\":9698:9722   */\n      tag_254\n        /* \"#utility.yul\":9716:9721   */\n      dup2\n        /* \"#utility.yul\":9698:9722   */\n      tag_101\n      jump\t// in\n    tag_254:\n        /* \"#utility.yul\":9691:9696   */\n      dup2\n        /* \"#utility.yul\":9688:9723   */\n      eq\n        /* \"#utility.yul\":9678:9741   */\n      tag_255\n      jumpi\n        /* \"#utility.yul\":9737:9738   */\n      0x00\n        /* \"#utility.yul\":9734:9735   */\n      dup1\n        /* \"#utility.yul\":9727:9739   */\n      revert\n        /* \"#utility.yul\":9678:9741   */\n    tag_255:\n        /* \"#utility.yul\":9625:9747   */\n      pop\n      jump\t// out\n        /* \"#utility.yul\":9753:9892   */\n    tag_133:\n        /* \"#utility.yul\":9799:9804   */\n      0x00\n        /* \"#utility.yul\":9837:9843   */\n      dup2\n        /* \"#utility.yul\":9824:9844   */\n      calldataload\n        /* \"#utility.yul\":9815:9844   */\n      swap1\n      pop\n        /* \"#utility.yul\":9853:9886   */\n      tag_257\n        /* \"#utility.yul\":9880:9885   */\n      dup2\n        /* \"#utility.yul\":9853:9886   */\n      tag_132\n      jump\t// in\n    tag_257:\n        /* \"#utility.yul\":9753:9892   */\n      swap3\n      swap2\n      pop\n      pop\n      jump\t// out\n        /* \"#utility.yul\":9898:10372   */\n    tag_42:\n        /* \"#utility.yul\":9966:9972   */\n      0x00\n        /* \"#utility.yul\":9974:9980   */\n      dup1\n        /* \"#utility.yul\":10023:10025   */\n      0x40\n        /* \"#utility.yul\":10011:10020   */\n      dup4\n        /* \"#utility.yul\":10002:10009   */\n      dup6\n        /* \"#utility.yul\":9998:10021   */\n      sub\n        /* \"#utility.yul\":9994:10026   */\n      slt\n        /* \"#utility.yul\":9991:10110   */\n      iszero\n      tag_259\n      jumpi\n        /* \"#utility.yul\":10029:10108   */\n      tag_260\n      tag_104\n      jump\t// in\n    tag_260:\n        /* \"#utility.yul\":9991:10110   */\n    tag_259:\n        /* \"#utility.yul\":10149:10150   */\n      0x00\n        /* \"#utility.yul\":10174:10227   */\n      tag_261\n        /* \"#utility.yul\":10219:10226   */\n      dup6\n        /* \"#utility.yul\":10210:10216   */\n      dup3\n        /* \"#utility.yul\":10199:10208   */\n      dup7\n        /* \"#utility.yul\":10195:10217   */\n      add\n        /* \"#utility.yul\":10174:10227   */\n      tag_109\n      jump\t// in\n    tag_261:\n        /* \"#utility.yul\":10164:10227   */\n      swap3\n      pop\n        /* \"#utility.yul\":10120:10237   */\n      pop\n        /* \"#utility.yul\":10276:10278   */\n      0x20\n        /* \"#utility.yul\":10302:10355   */\n      tag_262\n        /* \"#utility.yul\":10347:10354   */\n      dup6\n        /* \"#utility.yul\":10338:10344   */\n      dup3\n        /* \"#utility.yul\":10327:10336   */\n      dup7\n        /* \"#utility.yul\":10323:10345   */\n      add\n        /* \"#utility.yul\":10302:10355   */\n      tag_133\n      jump\t// in\n    tag_262:\n        /* \"#utility.yul\":10292:10355   */\n      swap2\n      pop\n        /* \"#utility.yul\":10247:10365   */\n      pop\n        /* \"#utility.yul\":9898:10372   */\n      swap3\n      pop\n      swap3\n      swap1\n      pop\n      jump\t// out\n        /* \"#utility.yul\":10378:10547   */\n    tag_134:\n        /* \"#utility.yul\":10462:10473   */\n      0x00\n        /* \"#utility.yul\":10496:10502   */\n      dup3\n        /* \"#utility.yul\":10491:10494   */\n      dup3\n        /* \"#utility.yul\":10484:10503   */\n      mstore\n        /* \"#utility.yul\":10536:10540   */\n      0x20\n        /* \"#utility.yul\":10531:10534   */\n      dup3\n        /* \"#utility.yul\":10527:10541   */\n      add\n        /* \"#utility.yul\":10512:10541   */\n      swap1\n      pop\n        /* \"#utility.yul\":10378:10547   */\n      swap3\n      swap2\n      pop\n      pop\n      jump\t// out\n        /* \"#utility.yul\":10553:10930   */\n    tag_135:\n        /* \"#utility.yul\":10641:10644   */\n      0x00\n        /* \"#utility.yul\":10669:10708   */\n      tag_265\n        /* \"#utility.yul\":10702:10707   */\n      dup3\n        /* \"#utility.yul\":10669:10708   */\n      tag_124\n      jump\t// in\n    tag_265:\n        /* \"#utility.yul\":10724:10795   */\n      tag_266\n        /* \"#utility.yul\":10788:10794   */\n      dup2\n        /* \"#utility.yul\":10783:10786   */\n      dup6\n        /* \"#utility.yul\":10724:10795   */\n      tag_134\n      jump\t// in\n    tag_266:\n        /* \"#utility.yul\":10717:10795   */\n      swap4\n      pop\n        /* \"#utility.yul\":10804:10869   */\n      tag_267\n        /* \"#utility.yul\":10862:10868   */\n      dup2\n        /* \"#utility.yul\":10857:10860   */\n      dup6\n        /* \"#utility.yul\":10850:10854   */\n      0x20\n        /* \"#utility.yul\":10843:10848   */\n      dup7\n        /* \"#utility.yul\":10839:10855   */\n      add\n        /* \"#utility.yul\":10804:10869   */\n      tag_126\n      jump\t// in\n    tag_267:\n        /* \"#utility.yul\":10894:10923   */\n      tag_268\n        /* \"#utility.yul\":10916:10922   */\n      dup2\n        /* \"#utility.yul\":10894:10923   */\n      tag_112\n      jump\t// in\n    tag_268:\n        /* \"#utility.yul\":10889:10892   */\n      dup5\n        /* \"#utility.yul\":10885:10924   */\n      add\n        /* \"#utility.yul\":10878:10924   */\n      swap2\n      pop\n        /* \"#utility.yul\":10645:10930   */\n      pop\n        /* \"#utility.yul\":10553:10930   */\n      swap3\n      swap2\n      pop\n      pop\n      jump\t// out\n        /* \"#utility.yul\":10936:11782   */\n    tag_45:\n        /* \"#utility.yul\":11181:11185   */\n      0x00\n        /* \"#utility.yul\":11219:11222   */\n      0xa0\n        /* \"#utility.yul\":11208:11217   */\n      dup3\n        /* \"#utility.yul\":11204:11223   */\n      add\n        /* \"#utility.yul\":11196:11223   */\n      swap1\n      pop\n        /* \"#utility.yul\":11233:11304   */\n      tag_270\n        /* \"#utility.yul\":11301:11302   */\n      0x00\n        /* \"#utility.yul\":11290:11299   */\n      dup4\n        /* \"#utility.yul\":11286:11303   */\n      add\n        /* \"#utility.yul\":11277:11283   */\n      dup9\n        /* \"#utility.yul\":11233:11304   */\n      tag_102\n      jump\t// in\n    tag_270:\n        /* \"#utility.yul\":11314:11386   */\n      tag_271\n        /* \"#utility.yul\":11382:11384   */\n      0x20\n        /* \"#utility.yul\":11371:11380   */\n      dup4\n        /* \"#utility.yul\":11367:11385   */\n      add\n        /* \"#utility.yul\":11358:11364   */\n      dup8\n        /* \"#utility.yul\":11314:11386   */\n      tag_102\n      jump\t// in\n    tag_271:\n        /* \"#utility.yul\":11433:11442   */\n      dup2\n        /* \"#utility.yul\":11427:11431   */\n      dup2\n        /* \"#utility.yul\":11423:11443   */\n      sub\n        /* \"#utility.yul\":11418:11420   */\n      0x40\n        /* \"#utility.yul\":11407:11416   */\n      dup4\n        /* \"#utility.yul\":11403:11421   */\n      add\n        /* \"#utility.yul\":11396:11444   */\n      mstore\n        /* \"#utility.yul\":11461:11539   */\n      tag_272\n        /* \"#utility.yul\":11534:11538   */\n      dup2\n        /* \"#utility.yul\":11525:11531   */\n      dup7\n        /* \"#utility.yul\":11461:11539   */\n      tag_135\n      jump\t// in\n    tag_272:\n        /* \"#utility.yul\":11453:11539   */\n      swap1\n      pop\n        /* \"#utility.yul\":11586:11595   */\n      dup2\n        /* \"#utility.yul\":11580:11584   */\n      dup2\n        /* \"#utility.yul\":11576:11596   */\n      sub\n        /* \"#utility.yul\":11571:11573   */\n      0x60\n        /* \"#utility.yul\":11560:11569   */\n      dup4\n        /* \"#utility.yul\":11556:11574   */\n      add\n        /* \"#utility.yul\":11549:11597   */\n      mstore\n        /* \"#utility.yul\":11614:11692   */\n      tag_273\n        /* \"#utility.yul\":11687:11691   */\n      dup2\n        /* \"#utility.yul\":11678:11684   */\n      dup6\n        /* \"#utility.yul\":11614:11692   */\n      tag_135\n      jump\t// in\n    tag_273:\n        /* \"#utility.yul\":11606:11692   */\n      swap1\n      pop\n        /* \"#utility.yul\":11702:11775   */\n      tag_274\n        /* \"#utility.yul\":11770:11773   */\n      0x80\n        /* \"#utility.yul\":11759:11768   */\n      dup4\n        /* \"#utility.yul\":11755:11774   */\n      add\n        /* \"#utility.yul\":11746:11752   */\n      dup5\n        /* \"#utility.yul\":11702:11775   */\n      tag_102\n      jump\t// in\n    tag_274:\n        /* \"#utility.yul\":10936:11782   */\n      swap7\n      swap6\n      pop\n      pop\n      pop\n      pop\n      pop\n      pop\n      jump\t// out\n        /* \"#utility.yul\":11788:12032   */\n    tag_136:\n        /* \"#utility.yul\":11928:11962   */\n      0x54686520646f6e6174696f6e206e6565647320746f206265203e3020696e206f\n        /* \"#utility.yul\":11924:11925   */\n      0x00\n        /* \"#utility.yul\":11916:11922   */\n      dup3\n        /* \"#utility.yul\":11912:11926   */\n      add\n        /* \"#utility.yul\":11905:11963   */\n      mstore\n        /* \"#utility.yul\":11997:12024   */\n      0x7264657220666f7220697420746f20676f207468726f75676800000000000000\n        /* \"#utility.yul\":11992:11994   */\n      0x20\n        /* \"#utility.yul\":11984:11990   */\n      dup3\n        /* \"#utility.yul\":11980:11995   */\n      add\n        /* \"#utility.yul\":11973:12025   */\n      mstore\n        /* \"#utility.yul\":11788:12032   */\n      pop\n      jump\t// out\n        /* \"#utility.yul\":12038:12404   */\n    tag_137:\n        /* \"#utility.yul\":12180:12183   */\n      0x00\n        /* \"#utility.yul\":12201:12268   */\n      tag_277\n        /* \"#utility.yul\":12265:12267   */\n      0x39\n        /* \"#utility.yul\":12260:12263   */\n      dup4\n        /* \"#utility.yul\":12201:12268   */\n      tag_134\n      jump\t// in\n    tag_277:\n        /* \"#utility.yul\":12194:12268   */\n      swap2\n      pop\n        /* \"#utility.yul\":12277:12370   */\n      tag_278\n        /* \"#utility.yul\":12366:12369   */\n      dup3\n        /* \"#utility.yul\":12277:12370   */\n      tag_136\n      jump\t// in\n    tag_278:\n        /* \"#utility.yul\":12395:12397   */\n      0x40\n        /* \"#utility.yul\":12390:12393   */\n      dup3\n        /* \"#utility.yul\":12386:12398   */\n      add\n        /* \"#utility.yul\":12379:12398   */\n      swap1\n      pop\n        /* \"#utility.yul\":12038:12404   */\n      swap2\n      swap1\n      pop\n      jump\t// out\n        /* \"#utility.yul\":12410:12829   */\n    tag_52:\n        /* \"#utility.yul\":12576:12580   */\n      0x00\n        /* \"#utility.yul\":12614:12616   */\n      0x20\n        /* \"#utility.yul\":12603:12612   */\n      dup3\n        /* \"#utility.yul\":12599:12617   */\n      add\n        /* \"#utility.yul\":12591:12617   */\n      swap1\n      pop\n        /* \"#utility.yul\":12663:12672   */\n      dup2\n        /* \"#utility.yul\":12657:12661   */\n      dup2\n        /* \"#utility.yul\":12653:12673   */\n      sub\n        /* \"#utility.yul\":12649:12650   */\n      0x00\n        /* \"#utility.yul\":12638:12647   */\n      dup4\n        /* \"#utility.yul\":12634:12651   */\n      add\n        /* \"#utility.yul\":12627:12674   */\n      mstore\n        /* \"#utility.yul\":12691:12822   */\n      tag_280\n        /* \"#utility.yul\":12817:12821   */\n      dup2\n        /* \"#utility.yul\":12691:12822   */\n      tag_137\n      jump\t// in\n    tag_280:\n        /* \"#utility.yul\":12683:12822   */\n      swap1\n      pop\n        /* \"#utility.yul\":12410:12829   */\n      swap2\n      swap1\n      pop\n      jump\t// out\n        /* \"#utility.yul\":12835:13015   */\n    tag_138:\n        /* \"#utility.yul\":12883:12960   */\n      0x4e487b7100000000000000000000000000000000000000000000000000000000\n        /* \"#utility.yul\":12880:12881   */\n      0x00\n        /* \"#utility.yul\":12873:12961   */\n      mstore\n        /* \"#utility.yul\":12980:12984   */\n      0x11\n        /* \"#utility.yul\":12977:12978   */\n      0x04\n        /* \"#utility.yul\":12970:12985   */\n      mstore\n        /* \"#utility.yul\":13004:13008   */\n      0x24\n        /* \"#utility.yul\":13001:13002   */\n      0x00\n        /* \"#utility.yul\":12994:13009   */\n      revert\n        /* \"#utility.yul\":13021:13212   */\n    tag_54:\n        /* \"#utility.yul\":13061:13064   */\n      0x00\n        /* \"#utility.yul\":13080:13100   */\n      tag_283\n        /* \"#utility.yul\":13098:13099   */\n      dup3\n        /* \"#utility.yul\":13080:13100   */\n      tag_101\n      jump\t// in\n    tag_283:\n        /* \"#utility.yul\":13075:13100   */\n      swap2\n      pop\n        /* \"#utility.yul\":13114:13134   */\n      tag_284\n        /* \"#utility.yul\":13132:13133   */\n      dup4\n        /* \"#utility.yul\":13114:13134   */\n      tag_101\n      jump\t// in\n    tag_284:\n        /* \"#utility.yul\":13109:13134   */\n      swap3\n      pop\n        /* \"#utility.yul\":13157:13158   */\n      dup3\n        /* \"#utility.yul\":13154:13155   */\n      dup3\n        /* \"#utility.yul\":13150:13159   */\n      add\n        /* \"#utility.yul\":13143:13159   */\n      swap1\n      pop\n        /* \"#utility.yul\":13178:13181   */\n      dup1\n        /* \"#utility.yul\":13175:13176   */\n      dup3\n        /* \"#utility.yul\":13172:13182   */\n      gt\n        /* \"#utility.yul\":13169:13205   */\n      iszero\n      tag_285\n      jumpi\n        /* \"#utility.yul\":13185:13203   */\n      tag_286\n      tag_138\n      jump\t// in\n    tag_286:\n        /* \"#utility.yul\":13169:13205   */\n    tag_285:\n        /* \"#utility.yul\":13021:13212   */\n      swap3\n      swap2\n      pop\n      pop\n      jump\t// out\n        /* \"#utility.yul\":13218:13451   */\n    tag_56:\n        /* \"#utility.yul\":13257:13260   */\n      0x00\n        /* \"#utility.yul\":13280:13304   */\n      tag_288\n        /* \"#utility.yul\":13298:13303   */\n      dup3\n        /* \"#utility.yul\":13280:13304   */\n      tag_101\n      jump\t// in\n    tag_288:\n        /* \"#utility.yul\":13271:13304   */\n      swap2\n      pop\n        /* \"#utility.yul\":13326:13392   */\n      0xffffffffffffffffffffffffffffffffffffffffffffffffffffffffffffffff\n        /* \"#utility.yul\":13319:13324   */\n      dup3\n        /* \"#utility.yul\":13316:13393   */\n      sub\n        /* \"#utility.yul\":13313:13416   */\n      tag_289\n      jumpi\n        /* \"#utility.yul\":13396:13414   */\n      tag_290\n      tag_138\n      jump\t// in\n    tag_290:\n        /* \"#utility.yul\":13313:13416   */\n    tag_289:\n        /* \"#utility.yul\":13443:13444   */\n      0x01\n        /* \"#utility.yul\":13436:13441   */\n      dup3\n        /* \"#utility.yul\":13432:13445   */\n      add\n        /* \"#utility.yul\":13425:13445   */\n      swap1\n      pop\n        /* \"#utility.yul\":13218:13451   */\n      swap2\n      swap1\n      pop\n      jump\t// out\n        /* \"#utility.yul\":13457:13637   */\n    tag_139:\n        /* \"#utility.yul\":13505:13582   */\n      0x4e487b7100000000000000000000000000000000000000000000000000000000\n        /* \"#utility.yul\":13502:13503   */\n      0x00\n        /* \"#utility.yul\":13495:13583   */\n      mstore\n        /* \"#utility.yul\":13602:13606   */\n      0x22\n        /* \"#utility.yul\":13599:13600   */\n      0x04\n        /* \"#utility.yul\":13592:13607   */\n      mstore\n        /* \"#utility.yul\":13626:13630   */\n      0x24\n        /* \"#utility.yul\":13623:13624   */\n      0x00\n        /* \"#utility.yul\":13616:13631   */\n      revert\n        /* \"#utility.yul\":13643:13963   */\n    tag_78:\n        /* \"#utility.yul\":13687:13693   */\n      0x00\n        /* \"#utility.yul\":13724:13725   */\n      0x02\n        /* \"#utility.yul\":13718:13722   */\n      dup3\n        /* \"#utility.yul\":13714:13726   */\n      div\n        /* \"#utility.yul\":13704:13726   */\n      swap1\n      pop\n        /* \"#utility.yul\":13771:13772   */\n      0x01\n        /* \"#utility.yul\":13765:13769   */\n      dup3\n        /* \"#utility.yul\":13761:13773   */\n      and\n        /* \"#utility.yul\":13792:13810   */\n      dup1\n        /* \"#utility.yul\":13782:13863   */\n      tag_293\n      jumpi\n        /* \"#utility.yul\":13848:13852   */\n      0x7f\n        /* \"#utility.yul\":13840:13846   */\n      dup3\n        /* \"#utility.yul\":13836:13853   */\n      and\n        /* \"#utility.yul\":13826:13853   */\n      swap2\n      pop\n        /* \"#utility.yul\":13782:13863   */\n    tag_293:\n        /* \"#utility.yul\":13910:13912   */\n      0x20\n        /* \"#utility.yul\":13902:13908   */\n      dup3\n        /* \"#utility.yul\":13899:13913   */\n      lt\n        /* \"#utility.yul\":13879:13897   */\n      dup2\n        /* \"#utility.yul\":13876:13914   */\n      sub\n        /* \"#utility.yul\":13873:13957   */\n      tag_294\n      jumpi\n        /* \"#utility.yul\":13929:13947   */\n      tag_295\n      tag_139\n      jump\t// in\n    tag_295:\n        /* \"#utility.yul\":13873:13957   */\n    tag_294:\n        /* \"#utility.yul\":13694:13963   */\n      pop\n        /* \"#utility.yul\":13643:13963   */\n      swap2\n      swap1\n      pop\n      jump\t// out\n        /* \"#utility.yul\":13969:14110   */\n    tag_140:\n        /* \"#utility.yul\":14018:14022   */\n      0x00\n        /* \"#utility.yul\":14041:14044   */\n      dup2\n        /* \"#utility.yul\":14033:14044   */\n      swap1\n      pop\n        /* \"#utility.yul\":14064:14067   */\n      dup2\n        /* \"#utility.yul\":14061:14062   */\n      0x00\n        /* \"#utility.yul\":14054:14068   */\n      mstore\n        /* \"#utility.yul\":14098:14102   */\n      0x20\n        /* \"#utility.yul\":14095:14096   */\n      0x00\n        /* \"#utility.yul\":14085:14103   */\n      keccak256\n        /* \"#utility.yul\":14077:14103   */\n      swap1\n      pop\n        /* \"#utility.yul\":13969:14110   */\n      swap2\n      swap1\n      pop\n      jump\t// out\n        /* \"#utility.yul\":14116:14209   */\n    tag_141:\n        /* \"#utility.yul\":14153:14159   */\n      0x00\n        /* \"#utility.yul\":14200:14202   */\n      0x20\n        /* \"#utility.yul\":14195:14197   */\n      0x1f\n        /* \"#utility.yul\":14188:14193   */\n      dup4\n        /* \"#utility.yul\":14184:14198   */\n      add\n        /* \"#utility.yul\":14180:14203   */\n      div\n        /* \"#utility.yul\":14170:14203   */\n      swap1\n      pop\n        /* \"#utility.yul\":14116:14209   */\n      swap2\n      swap1\n      pop\n      jump\t// out\n        /* \"#utility.yul\":14215:14322   */\n    tag_142:\n        /* \"#utility.yul\":14259:14267   */\n      0x00\n        /* \"#utility.yul\":14309:14314   */\n      dup3\n        /* \"#utility.yul\":14303:14307   */\n      dup3\n        /* \"#utility.yul\":14299:14315   */\n      shl\n        /* \"#utility.yul\":14278:14315   */\n      swap1\n      pop\n        /* \"#utility.yul\":14215:14322   */\n      swap3\n      swap2\n      pop\n      pop\n      jump\t// out\n        /* \"#utility.yul\":14328:14721   */\n    tag_143:\n        /* \"#utility.yul\":14397:14403   */\n      0x00\n        /* \"#utility.yul\":14447:14448   */\n      0x08\n        /* \"#utility.yul\":14435:14445   */\n      dup4\n        /* \"#utility.yul\":14431:14449   */\n      mul\n        /* \"#utility.yul\":14470:14567   */\n      tag_300\n        /* \"#utility.yul\":14500:14566   */\n      0xffffffffffffffffffffffffffffffffffffffffffffffffffffffffffffffff\n        /* \"#utility.yul\":14489:14498   */\n      dup3\n        /* \"#utility.yul\":14470:14567   */\n      tag_142\n      jump\t// in\n    tag_300:\n        /* \"#utility.yul\":14588:14627   */\n      tag_301\n        /* \"#utility.yul\":14618:14626   */\n      dup7\n        /* \"#utility.yul\":14607:14616   */\n      dup4\n        /* \"#utility.yul\":14588:14627   */\n      tag_142\n      jump\t// in\n    tag_301:\n        /* \"#utility.yul\":14576:14627   */\n      swap6\n      pop\n        /* \"#utility.yul\":14660:14664   */\n      dup1\n        /* \"#utility.yul\":14656:14665   */\n      not\n        /* \"#utility.yul\":14649:14654   */\n      dup5\n        /* \"#utility.yul\":14645:14666   */\n      and\n        /* \"#utility.yul\":14636:14666   */\n      swap4\n      pop\n        /* \"#utility.yul\":14709:14713   */\n      dup1\n        /* \"#utility.yul\":14699:14707   */\n      dup7\n        /* \"#utility.yul\":14695:14714   */\n      and\n        /* \"#utility.yul\":14688:14693   */\n      dup5\n        /* \"#utility.yul\":14685:14715   */\n      or\n        /* \"#utility.yul\":14675:14715   */\n      swap3\n      pop\n        /* \"#utility.yul\":14404:14721   */\n      pop\n      pop\n        /* \"#utility.yul\":14328:14721   */\n      swap4\n      swap3\n      pop\n      pop\n      pop\n      jump\t// out\n        /* \"#utility.yul\":14727:14787   */\n    tag_144:\n        /* \"#utility.yul\":14755:14758   */\n      0x00\n        /* \"#utility.yul\":14776:14781   */\n      dup2\n        /* \"#utility.yul\":14769:14781   */\n      swap1\n      pop\n        /* \"#utility.yul\":14727:14787   */\n      swap2\n      swap1\n      pop\n      jump\t// out\n        /* \"#utility.yul\":14793:14935   */\n    tag_145:\n        /* \"#utility.yul\":14843:14852   */\n      0x00\n        /* \"#utility.yul\":14876:14929   */\n      tag_304\n        /* \"#utility.yul\":14894:14928   */\n      tag_305\n        /* \"#utility.yul\":14903:14927   */\n      tag_306\n        /* \"#utility.yul\":14921:14926   */\n      dup5\n        /* \"#utility.yul\":14903:14927   */\n      tag_101\n      jump\t// in\n    tag_306:\n        /* \"#utility.yul\":14894:14928   */\n      tag_144\n      jump\t// in\n    tag_305:\n        /* \"#utility.yul\":14876:14929   */\n      tag_101\n      jump\t// in\n    tag_304:\n        /* \"#utility.yul\":14863:14929   */\n      swap1\n      pop\n        /* \"#utility.yul\":14793:14935   */\n      swap2\n      swap1\n      pop\n      jump\t// out\n        /* \"#utility.yul\":14941:15016   */\n    tag_146:\n        /* \"#utility.yul\":14984:14987   */\n      0x00\n        /* \"#utility.yul\":15005:15010   */\n      dup2\n        /* \"#utility.yul\":14998:15010   */\n      swap1\n      pop\n        /* \"#utility.yul\":14941:15016   */\n      swap2\n      swap1\n      pop\n      jump\t// out\n        /* \"#utility.yul\":15022:15291   */\n    tag_147:\n        /* \"#utility.yul\":15132:15171   */\n      tag_309\n        /* \"#utility.yul\":15163:15170   */\n      dup4\n        /* \"#utility.yul\":15132:15171   */\n      tag_145\n      jump\t// in\n    tag_309:\n        /* \"#utility.yul\":15193:15284   */\n      tag_310\n        /* \"#utility.yul\":15242:15283   */\n      tag_311\n        /* \"#utility.yul\":15266:15282   */\n      dup3\n        /* \"#utility.yul\":15242:15283   */\n      tag_146\n      jump\t// in\n    tag_311:\n        /* \"#utility.yul\":15234:15240   */\n      dup5\n        /* \"#utility.yul\":15227:15231   */\n      dup5\n        /* \"#utility.yul\":15221:15232   */\n      sload\n        /* \"#utility.yul\":15193:15284   */\n      tag_143\n      jump\t// in\n    tag_310:\n        /* \"#utility.yul\":15187:15191   */\n      dup3\n        /* \"#utility.yul\":15180:15285   */\n      sstore\n        /* \"#utility.yul\":15098:15291   */\n      pop\n        /* \"#utility.yul\":15022:15291   */\n      pop\n      pop\n      pop\n      jump\t// out\n        /* \"#utility.yul\":15297:15370   */\n    tag_148:\n        /* \"#utility.yul\":15342:15345   */\n      0x00\n        /* \"#utility.yul\":15297:15370   */\n      swap1\n      jump\t// out\n        /* \"#utility.yul\":15376:15565   */\n    tag_149:\n        /* \"#utility.yul\":15453:15485   */\n      tag_314\n      tag_148\n      jump\t// in\n    tag_314:\n        /* \"#utility.yul\":15494:15559   */\n      tag_315\n        /* \"#utility.yul\":15552:15558   */\n      dup2\n        /* \"#utility.yul\":15544:15550   */\n      dup5\n        /* \"#utility.yul\":15538:15542   */\n      dup5\n        /* \"#utility.yul\":15494:15559   */\n      tag_147\n      jump\t// in\n    tag_315:\n        /* \"#utility.yul\":15429:15565   */\n      pop\n        /* \"#utility.yul\":15376:15565   */\n      pop\n      pop\n      jump\t// out\n        /* \"#utility.yul\":15571:15757   */\n    tag_150:\n        /* \"#utility.yul\":15631:15751   */\n    tag_317:\n        /* \"#utility.yul\":15648:15651   */\n      dup2\n        /* \"#utility.yul\":15641:15646   */\n      dup2\n        /* \"#utility.yul\":15638:15652   */\n      lt\n        /* \"#utility.yul\":15631:15751   */\n      iszero\n      tag_319\n      jumpi\n        /* \"#utility.yul\":15702:15741   */\n      tag_320\n        /* \"#utility.yul\":15739:15740   */\n      0x00\n        /* \"#utility.yul\":15732:15737   */\n      dup3\n        /* \"#utility.yul\":15702:15741   */\n      tag_149\n      jump\t// in\n    tag_320:\n        /* \"#utility.yul\":15675:15676   */\n      0x01\n        /* \"#utility.yul\":15668:15673   */\n      dup2\n        /* \"#utility.yul\":15664:15677   */\n      add\n        /* \"#utility.yul\":15655:15677   */\n      swap1\n      pop\n        /* \"#utility.yul\":15631:15751   */\n      jump(tag_317)\n    tag_319:\n        /* \"#utility.yul\":15571:15757   */\n      pop\n      pop\n      jump\t// out\n        /* \"#utility.yul\":15763:16306   */\n    tag_151:\n        /* \"#utility.yul\":15864:15866   */\n      0x1f\n        /* \"#utility.yul\":15859:15862   */\n      dup3\n        /* \"#utility.yul\":15856:15867   */\n      gt\n        /* \"#utility.yul\":15853:16299   */\n      iszero\n      tag_322\n      jumpi\n        /* \"#utility.yul\":15898:15936   */\n      tag_323\n        /* \"#utility.yul\":15930:15935   */\n      dup2\n        /* \"#utility.yul\":15898:15936   */\n      tag_140\n      jump\t// in\n    tag_323:\n        /* \"#utility.yul\":15982:16011   */\n      tag_324\n        /* \"#utility.yul\":16000:16010   */\n      dup5\n        /* \"#utility.yul\":15982:16011   */\n      tag_141\n      jump\t// in\n    tag_324:\n        /* \"#utility.yul\":15972:15980   */\n      dup2\n        /* \"#utility.yul\":15968:16012   */\n      add\n        /* \"#utility.yul\":16165:16167   */\n      0x20\n        /* \"#utility.yul\":16153:16163   */\n      dup6\n        /* \"#utility.yul\":16150:16168   */\n      lt\n        /* \"#utility.yul\":16147:16196   */\n      iszero\n      tag_325\n      jumpi\n        /* \"#utility.yul\":16186:16194   */\n      dup2\n        /* \"#utility.yul\":16171:16194   */\n      swap1\n      pop\n        /* \"#utility.yul\":16147:16196   */\n    tag_325:\n        /* \"#utility.yul\":16209:16289   */\n      tag_326\n        /* \"#utility.yul\":16265:16287   */\n      tag_327\n        /* \"#utility.yul\":16283:16286   */\n      dup6\n        /* \"#utility.yul\":16265:16287   */\n      tag_141\n      jump\t// in\n    tag_327:\n        /* \"#utility.yul\":16255:16263   */\n      dup4\n        /* \"#utility.yul\":16251:16288   */\n      add\n        /* \"#utility.yul\":16238:16249   */\n      dup3\n        /* \"#utility.yul\":16209:16289   */\n      tag_150\n      jump\t// in\n    tag_326:\n        /* \"#utility.yul\":15868:16299   */\n      pop\n      pop\n        /* \"#utility.yul\":15853:16299   */\n    tag_322:\n        /* \"#utility.yul\":15763:16306   */\n      pop\n      pop\n      pop\n      jump\t// out\n        /* \"#utility.yul\":16312:16429   */\n    tag_152:\n        /* \"#utility.yul\":16366:16374   */\n      0x00\n        /* \"#utility.yul\":16416:16421   */\n      dup3\n        /* \"#utility.yul\":16410:16414   */\n      dup3\n        /* \"#utility.yul\":16406:16422   */\n      shr\n        /* \"#utility.yul\":16385:16422   */\n      swap1\n      pop\n        /* \"#utility.yul\":16312:16429   */\n      swap3\n      swap2\n      pop\n      pop\n      jump\t// out\n        /* \"#utility.yul\":16435:16604   */\n    tag_153:\n        /* \"#utility.yul\":16479:16485   */\n      0x00\n        /* \"#utility.yul\":16512:16563   */\n      tag_330\n        /* \"#utility.yul\":16560:16561   */\n      0x00\n        /* \"#utility.yul\":16556:16562   */\n      not\n        /* \"#utility.yul\":16548:16553   */\n      dup5\n        /* \"#utility.yul\":16545:16546   */\n      0x08\n        /* \"#utility.yul\":16541:16554   */\n      mul\n        /* \"#utility.yul\":16512:16563   */\n      tag_152\n      jump\t// in\n    tag_330:\n        /* \"#utility.yul\":16508:16564   */\n      not\n        /* \"#utility.yul\":16593:16597   */\n      dup1\n        /* \"#utility.yul\":16587:16591   */\n      dup4\n        /* \"#utility.yul\":16583:16598   */\n      and\n        /* \"#utility.yul\":16573:16598   */\n      swap2\n      pop\n        /* \"#utility.yul\":16486:16604   */\n      pop\n        /* \"#utility.yul\":16435:16604   */\n      swap3\n      swap2\n      pop\n      pop\n      jump\t// out\n        /* \"#utility.yul\":16609:16904   */\n    tag_154:\n        /* \"#utility.yul\":16685:16689   */\n      0x00\n        /* \"#utility.yul\":16831:16860   */\n      tag_332\n        /* \"#utility.yul\":16856:16859   */\n      dup4\n        /* \"#utility.yul\":16850:16854   */\n      dup4\n        /* \"#utility.yul\":16831:16860   */\n      tag_153\n      jump\t// in\n    tag_332:\n        /* \"#utility.yul\":16823:16860   */\n      swap2\n      pop\n        /* \"#utility.yul\":16893:16896   */\n      dup3\n        /* \"#utility.yul\":16890:16891   */\n      0x02\n        /* \"#utility.yul\":16886:16897   */\n      mul\n        /* \"#utility.yul\":16880:16884   */\n      dup3\n        /* \"#utility.yul\":16877:16898   */\n      or\n        /* \"#utility.yul\":16869:16898   */\n      swap1\n      pop\n        /* \"#utility.yul\":16609:16904   */\n      swap3\n      swap2\n      pop\n      pop\n      jump\t// out\n        /* \"#utility.yul\":16909:18304   */\n    tag_59:\n        /* \"#utility.yul\":17026:17063   */\n      tag_334\n        /* \"#utility.yul\":17059:17062   */\n      dup3\n        /* \"#utility.yul\":17026:17063   */\n      tag_124\n      jump\t// in\n    tag_334:\n        /* \"#utility.yul\":17128:17146   */\n      0xffffffffffffffff\n        /* \"#utility.yul\":17120:17126   */\n      dup2\n        /* \"#utility.yul\":17117:17147   */\n      gt\n        /* \"#utility.yul\":17114:17170   */\n      iszero\n      tag_335\n      jumpi\n        /* \"#utility.yul\":17150:17168   */\n      tag_336\n      tag_113\n      jump\t// in\n    tag_336:\n        /* \"#utility.yul\":17114:17170   */\n    tag_335:\n        /* \"#utility.yul\":17194:17232   */\n      tag_337\n        /* \"#utility.yul\":17226:17230   */\n      dup3\n        /* \"#utility.yul\":17220:17231   */\n      sload\n        /* \"#utility.yul\":17194:17232   */\n      tag_78\n      jump\t// in\n    tag_337:\n        /* \"#utility.yul\":17279:17346   */\n      tag_338\n        /* \"#utility.yul\":17339:17345   */\n      dup3\n        /* \"#utility.yul\":17331:17337   */\n      dup3\n        /* \"#utility.yul\":17325:17329   */\n      dup6\n        /* \"#utility.yul\":17279:17346   */\n      tag_151\n      jump\t// in\n    tag_338:\n        /* \"#utility.yul\":17373:17374   */\n      0x00\n        /* \"#utility.yul\":17397:17401   */\n      0x20\n        /* \"#utility.yul\":17384:17401   */\n      swap1\n      pop\n        /* \"#utility.yul\":17429:17431   */\n      0x1f\n        /* \"#utility.yul\":17421:17427   */\n      dup4\n        /* \"#utility.yul\":17418:17432   */\n      gt\n        /* \"#utility.yul\":17446:17447   */\n      0x01\n        /* \"#utility.yul\":17441:18059   */\n      dup2\n      eq\n      tag_340\n      jumpi\n        /* \"#utility.yul\":18103:18104   */\n      0x00\n        /* \"#utility.yul\":18120:18126   */\n      dup5\n        /* \"#utility.yul\":18117:18194   */\n      iszero\n      tag_341\n      jumpi\n        /* \"#utility.yul\":18169:18178   */\n      dup3\n        /* \"#utility.yul\":18164:18167   */\n      dup8\n        /* \"#utility.yul\":18160:18179   */\n      add\n        /* \"#utility.yul\":18154:18180   */\n      mload\n        /* \"#utility.yul\":18145:18180   */\n      swap1\n      pop\n        /* \"#utility.yul\":18117:18194   */\n    tag_341:\n        /* \"#utility.yul\":18220:18287   */\n      tag_342\n        /* \"#utility.yul\":18280:18286   */\n      dup6\n        /* \"#utility.yul\":18273:18278   */\n      dup3\n        /* \"#utility.yul\":18220:18287   */\n      tag_154\n      jump\t// in\n    tag_342:\n        /* \"#utility.yul\":18214:18218   */\n      dup7\n        /* \"#utility.yul\":18207:18288   */\n      sstore\n        /* \"#utility.yul\":18076:18298   */\n      pop\n        /* \"#utility.yul\":17411:18298   */\n      jump(tag_339)\n        /* \"#utility.yul\":17441:18059   */\n    tag_340:\n        /* \"#utility.yul\":17493:17497   */\n      0x1f\n        /* \"#utility.yul\":17489:17498   */\n      not\n        /* \"#utility.yul\":17481:17487   */\n      dup5\n        /* \"#utility.yul\":17477:17499   */\n      and\n        /* \"#utility.yul\":17527:17564   */\n      tag_343\n        /* \"#utility.yul\":17559:17563   */\n      dup7\n        /* \"#utility.yul\":17527:17564   */\n      tag_140\n      jump\t// in\n    tag_343:\n        /* \"#utility.yul\":17586:17587   */\n      0x00\n        /* \"#utility.yul\":17600:17808   */\n    tag_344:\n        /* \"#utility.yul\":17614:17621   */\n      dup3\n        /* \"#utility.yul\":17611:17612   */\n      dup2\n        /* \"#utility.yul\":17608:17622   */\n      lt\n        /* \"#utility.yul\":17600:17808   */\n      iszero\n      tag_346\n      jumpi\n        /* \"#utility.yul\":17693:17702   */\n      dup5\n        /* \"#utility.yul\":17688:17691   */\n      dup10\n        /* \"#utility.yul\":17684:17703   */\n      add\n        /* \"#utility.yul\":17678:17704   */\n      mload\n        /* \"#utility.yul\":17670:17676   */\n      dup3\n        /* \"#utility.yul\":17663:17705   */\n      sstore\n        /* \"#utility.yul\":17744:17745   */\n      0x01\n        /* \"#utility.yul\":17736:17742   */\n      dup3\n        /* \"#utility.yul\":17732:17746   */\n      add\n        /* \"#utility.yul\":17722:17746   */\n      swap2\n      pop\n        /* \"#utility.yul\":17791:17793   */\n      0x20\n        /* \"#utility.yul\":17780:17789   */\n      dup6\n        /* \"#utility.yul\":17776:17794   */\n      add\n        /* \"#utility.yul\":17763:17794   */\n      swap5\n      pop\n        /* \"#utility.yul\":17637:17641   */\n      0x20\n        /* \"#utility.yul\":17634:17635   */\n      dup2\n        /* \"#utility.yul\":17630:17642   */\n      add\n        /* \"#utility.yul\":17625:17642   */\n      swap1\n      pop\n        /* \"#utility.yul\":17600:17808   */\n      jump(tag_344)\n    tag_346:\n        /* \"#utility.yul\":17836:17842   */\n      dup7\n        /* \"#utility.yul\":17827:17834   */\n      dup4\n        /* \"#utility.yul\":17824:17843   */\n      lt\n        /* \"#utility.yul\":17821:18000   */\n      iszero\n      tag_347\n      jumpi\n        /* \"#utility.yul\":17894:17903   */\n      dup5\n        /* \"#utility.yul\":17889:17892   */\n      dup10\n        /* \"#utility.yul\":17885:17904   */\n      add\n        /* \"#utility.yul\":17879:17905   */\n      mload\n        /* \"#utility.yul\":17937:17985   */\n      tag_348\n        /* \"#utility.yul\":17979:17983   */\n      0x1f\n        /* \"#utility.yul\":17971:17977   */\n      dup10\n        /* \"#utility.yul\":17967:17984   */\n      and\n        /* \"#utility.yul\":17956:17965   */\n      dup3\n        /* \"#utility.yul\":17937:17985   */\n      tag_153\n      jump\t// in\n    tag_348:\n        /* \"#utility.yul\":17929:17935   */\n      dup4\n        /* \"#utility.yul\":17922:17986   */\n      sstore\n        /* \"#utility.yul\":17844:18000   */\n      pop\n        /* \"#utility.yul\":17821:18000   */\n    tag_347:\n        /* \"#utility.yul\":18046:18047   */\n      0x01\n        /* \"#utility.yul\":18042:18043   */\n      0x02\n        /* \"#utility.yul\":18034:18040   */\n      dup9\n        /* \"#utility.yul\":18030:18044   */\n      mul\n        /* \"#utility.yul\":18026:18048   */\n      add\n        /* \"#utility.yul\":18020:18024   */\n      dup9\n        /* \"#utility.yul\":18013:18049   */\n      sstore\n        /* \"#utility.yul\":17448:18059   */\n      pop\n      pop\n      pop\n        /* \"#utility.yul\":17411:18298   */\n    tag_339:\n      pop\n        /* \"#utility.yul\":17001:18304   */\n      pop\n      pop\n      pop\n        /* \"#utility.yul\":16909:18304   */\n      pop\n      pop\n      jump\t// out\n        /* \"#utility.yul\":18310:18504   */\n    tag_63:\n        /* \"#utility.yul\":18350:18354   */\n      0x00\n        /* \"#utility.yul\":18370:18390   */\n      tag_350\n        /* \"#utility.yul\":18388:18389   */\n      dup3\n        /* \"#utility.yul\":18370:18390   */\n      tag_101\n      jump\t// in\n    tag_350:\n        /* \"#utility.yul\":18365:18390   */\n      swap2\n      pop\n        /* \"#utility.yul\":18404:18424   */\n      tag_351\n        /* \"#utility.yul\":18422:18423   */\n      dup4\n        /* \"#utility.yul\":18404:18424   */\n      tag_101\n      jump\t// in\n    tag_351:\n        /* \"#utility.yul\":18399:18424   */\n      swap3\n      pop\n        /* \"#utility.yul\":18448:18449   */\n      dup3\n        /* \"#utility.yul\":18445:18446   */\n      dup3\n        /* \"#utility.yul\":18441:18450   */\n      sub\n        /* \"#utility.yul\":18433:18450   */\n      swap1\n      pop\n        /* \"#utility.yul\":18472:18473   */\n      dup2\n        /* \"#utility.yul\":18466:18470   */\n      dup2\n        /* \"#utility.yul\":18463:18474   */\n      gt\n        /* \"#utility.yul\":18460:18497   */\n      iszero\n      tag_352\n      jumpi\n        /* \"#utility.yul\":18477:18495   */\n      tag_353\n      tag_138\n      jump\t// in\n    tag_353:\n        /* \"#utility.yul\":18460:18497   */\n    tag_352:\n        /* \"#utility.yul\":18310:18504   */\n      swap3\n      swap2\n      pop\n      pop\n      jump\t// out\n        /* \"#utility.yul\":18510:18685   */\n    tag_155:\n        /* \"#utility.yul\":18650:18677   */\n      0x596f75722063757272656e742062616c616e6365206973203000000000000000\n        /* \"#utility.yul\":18646:18647   */\n      0x00\n        /* \"#utility.yul\":18638:18644   */\n      dup3\n        /* \"#utility.yul\":18634:18648   */\n      add\n        /* \"#utility.yul\":18627:18678   */\n      mstore\n        /* \"#utility.yul\":18510:18685   */\n      pop\n      jump\t// out\n        /* \"#utility.yul\":18691:19057   */\n    tag_156:\n        /* \"#utility.yul\":18833:18836   */\n      0x00\n        /* \"#utility.yul\":18854:18921   */\n      tag_356\n        /* \"#utility.yul\":18918:18920   */\n      0x19\n        /* \"#utility.yul\":18913:18916   */\n      dup4\n        /* \"#utility.yul\":18854:18921   */\n      tag_134\n      jump\t// in\n    tag_356:\n        /* \"#utility.yul\":18847:18921   */\n      swap2\n      pop\n        /* \"#utility.yul\":18930:19023   */\n      tag_357\n        /* \"#utility.yul\":19019:19022   */\n      dup3\n        /* \"#utility.yul\":18930:19023   */\n      tag_155\n      jump\t// in\n    tag_357:\n        /* \"#utility.yul\":19048:19050   */\n      0x20\n        /* \"#utility.yul\":19043:19046   */\n      dup3\n        /* \"#utility.yul\":19039:19051   */\n      add\n        /* \"#utility.yul\":19032:19051   */\n      swap1\n      pop\n        /* \"#utility.yul\":18691:19057   */\n      swap2\n      swap1\n      pop\n      jump\t// out\n        /* \"#utility.yul\":19063:19482   */\n    tag_66:\n        /* \"#utility.yul\":19229:19233   */\n      0x00\n        /* \"#utility.yul\":19267:19269   */\n      0x20\n        /* \"#utility.yul\":19256:19265   */\n      dup3\n        /* \"#utility.yul\":19252:19270   */\n      add\n        /* \"#utility.yul\":19244:19270   */\n      swap1\n      pop\n        /* \"#utility.yul\":19316:19325   */\n      dup2\n        /* \"#utility.yul\":19310:19314   */\n      dup2\n        /* \"#utility.yul\":19306:19326   */\n      sub\n        /* \"#utility.yul\":19302:19303   */\n      0x00\n        /* \"#utility.yul\":19291:19300   */\n      dup4\n        /* \"#utility.yul\":19287:19304   */\n      add\n        /* \"#utility.yul\":19280:19327   */\n      mstore\n        /* \"#utility.yul\":19344:19475   */\n      tag_359\n        /* \"#utility.yul\":19470:19474   */\n      dup2\n        /* \"#utility.yul\":19344:19475   */\n      tag_156\n      jump\t// in\n    tag_359:\n        /* \"#utility.yul\":19336:19475   */\n      swap1\n      pop\n        /* \"#utility.yul\":19063:19482   */\n      swap2\n      swap1\n      pop\n      jump\t// out\n        /* \"#utility.yul\":19488:19635   */\n    tag_157:\n        /* \"#utility.yul\":19589:19600   */\n      0x00\n        /* \"#utility.yul\":19626:19629   */\n      dup2\n        /* \"#utility.yul\":19611:19629   */\n      swap1\n      pop\n        /* \"#utility.yul\":19488:19635   */\n      swap3\n      swap2\n      pop\n      pop\n      jump\t// out\n        /* \"#utility.yul\":19641:19755   */\n    tag_158:\n      pop\n      jump\t// out\n        /* \"#utility.yul\":19761:20159   */\n    tag_159:\n        /* \"#utility.yul\":19920:19923   */\n      0x00\n        /* \"#utility.yul\":19941:20024   */\n      tag_363\n        /* \"#utility.yul\":20022:20023   */\n      0x00\n        /* \"#utility.yul\":20017:20020   */\n      dup4\n        /* \"#utility.yul\":19941:20024   */\n      tag_157\n      jump\t// in\n    tag_363:\n        /* \"#utility.yul\":19934:20024   */\n      swap2\n      pop\n        /* \"#utility.yul\":20033:20126   */\n      tag_364\n        /* \"#utility.yul\":20122:20125   */\n      dup3\n        /* \"#utility.yul\":20033:20126   */\n      tag_158\n      jump\t// in\n    tag_364:\n        /* \"#utility.yul\":20151:20152   */\n      0x00\n        /* \"#utility.yul\":20146:20149   */\n      dup3\n        /* \"#utility.yul\":20142:20153   */\n      add\n        /* \"#utility.yul\":20135:20153   */\n      swap1\n      pop\n        /* \"#utility.yul\":19761:20159   */\n      swap2\n      swap1\n      pop\n      jump\t// out\n        /* \"#utility.yul\":20165:20544   */\n    tag_68:\n        /* \"#utility.yul\":20349:20352   */\n      0x00\n        /* \"#utility.yul\":20371:20518   */\n      tag_366\n        /* \"#utility.yul\":20514:20517   */\n      dup3\n        /* \"#utility.yul\":20371:20518   */\n      tag_159\n      jump\t// in\n    tag_366:\n        /* \"#utility.yul\":20364:20518   */\n      swap2\n      pop\n        /* \"#utility.yul\":20535:20538   */\n      dup2\n        /* \"#utility.yul\":20528:20538   */\n      swap1\n      pop\n        /* \"#utility.yul\":20165:20544   */\n      swap2\n      swap1\n      pop\n      jump\t// out\n\n    auxdata: 0xa264697066735822122026cbc8f1f53765033ad2a1baf7f4abd6f8c4893b3f6bbe4c3a7b05780696f14a64736f6c63430008110033\n}\n",
				"bytecode": {
					"linkReferences": {},
					"object": "608060405260008055600060015534801561001957600080fd5b5061139e806100296000396000f3fe6080604052600436106100705760003560e01c80633ccfd60b1161004e5780633ccfd60b146100f95780636d73c36514610110578063a4664aff1461014d578063bf773d6e1461018a57610070565b806312065fe0146100755780631280db73146100a057806327e235e3146100bc575b600080fd5b34801561008157600080fd5b5061008a6101cb565b60405161009791906108d6565b60405180910390f35b6100ba60048036038101906100b59190610aa9565b6101ea565b005b3480156100c857600080fd5b506100e360048036038101906100de9190610b34565b61038d565b6040516100f091906108d6565b60405180910390f35b34801561010557600080fd5b5061010e6103a5565b005b34801561011c57600080fd5b5061013760048036038101906101329190610b34565b610502565b6040516101449190610d2e565b60405180910390f35b34801561015957600080fd5b50610174600480360381019061016f9190610b34565b6106e2565b60405161018191906108d6565b60405180910390f35b34801561019657600080fd5b506101b160048036038101906101ac9190610d7c565b61072b565b6040516101c2959493929190610e06565b60405180910390f35b60003373ffffffffffffffffffffffffffffffffffffffff1631905090565b6101f261088e565b60003411610235576040517f08c379a000000000000000000000000000000000000000000000000000000000815260040161022c90610ed9565b60405180910390fd5b34600081905550600054600260008673ffffffffffffffffffffffffffffffffffffffff1673ffffffffffffffffffffffffffffffffffffffff168152602001908152602001600020600082825461028d9190610f28565b92505081905550600360008573ffffffffffffffffffffffffffffffffffffffff1673ffffffffffffffffffffffffffffffffffffffff1681526020019081526020016000206040518060a00160405280600160008154809291906102f190610f5c565b91905055815260200160005481526020018581526020018481526020014281525090806001815401808255809150506001900390600052602060002090600502016000909190919091506000820151816000015560208201518160010155604082015181600201908161036491906111b0565b50606082015181600301908161037a91906111b0565b5060808201518160040155505050505050565b60026020528060005260406000206000915090505481565b600260003373ffffffffffffffffffffffffffffffffffffffff1673ffffffffffffffffffffffffffffffffffffffff16815260200190815260200160002054600081905550600054600260003373ffffffffffffffffffffffffffffffffffffffff1673ffffffffffffffffffffffffffffffffffffffff168152602001908152602001600020600082825461043c9190611282565b925050819055506000805411610487576040517f08c379a000000000000000000000000000000000000000000000000000000000815260040161047e90611302565b60405180910390fd5b60003373ffffffffffffffffffffffffffffffffffffffff166000546040516104af90611353565b60006040518083038185875af1925050503d80600081146104ec576040519150601f19603f3d011682016040523d82523d6000602084013e6104f1565b606091505b50509050806104ff57600080fd5b50565b6060600360008373ffffffffffffffffffffffffffffffffffffffff1673ffffffffffffffffffffffffffffffffffffffff168152602001908152602001600020805480602002602001604051908101604052809291908181526020016000905b828210156106d757838290600052602060002090600502016040518060a001604052908160008201548152602001600182015481526020016002820180546105aa90610fd3565b80601f01602080910402602001604051908101604052809291908181526020018280546105d690610fd3565b80156106235780601f106105f857610100808354040283529160200191610623565b820191906000526020600020905b81548152906001019060200180831161060657829003601f168201915b5050505050815260200160038201805461063c90610fd3565b80601f016020809104026020016040519081016040528092919081815260200182805461066890610fd3565b80156106b55780601f1061068a576101008083540402835291602001916106b5565b820191906000526020600020905b81548152906001019060200180831161069857829003601f168201915b5050505050815260200160048201548152505081526020019060010190610563565b505050509050919050565b6000600260008373ffffffffffffffffffffffffffffffffffffffff1673ffffffffffffffffffffffffffffffffffffffff168152602001908152602001600020549050919050565b6003602052816000526040600020818154811061074757600080fd5b90600052602060002090600502016000915091505080600001549080600101549080600201805461077790610fd3565b80601f01602080910402602001604051908101604052809291908181526020018280546107a390610fd3565b80156107f05780601f106107c5576101008083540402835291602001916107f0565b820191906000526020600020905b8154815290600101906020018083116107d357829003601f168201915b50505050509080600301805461080590610fd3565b80601f016020809104026020016040519081016040528092919081815260200182805461083190610fd3565b801561087e5780601f106108535761010080835404028352916020019161087e565b820191906000526020600020905b81548152906001019060200180831161086157829003601f168201915b5050505050908060040154905085565b6040518060a0016040528060008152602001600081526020016060815260200160608152602001600081525090565b6000819050919050565b6108d0816108bd565b82525050565b60006020820190506108eb60008301846108c7565b92915050565b6000604051905090565b600080fd5b600080fd5b600073ffffffffffffffffffffffffffffffffffffffff82169050919050565b600061093082610905565b9050919050565b61094081610925565b811461094b57600080fd5b50565b60008135905061095d81610937565b92915050565b600080fd5b600080fd5b6000601f19601f8301169050919050565b7f4e487b7100000000000000000000000000000000000000000000000000000000600052604160045260246000fd5b6109b68261096d565b810181811067ffffffffffffffff821117156109d5576109d461097e565b5b80604052505050565b60006109e86108f1565b90506109f482826109ad565b919050565b600067ffffffffffffffff821115610a1457610a1361097e565b5b610a1d8261096d565b9050602081019050919050565b82818337600083830152505050565b6000610a4c610a47846109f9565b6109de565b905082815260208101848484011115610a6857610a67610968565b5b610a73848285610a2a565b509392505050565b600082601f830112610a9057610a8f610963565b5b8135610aa0848260208601610a39565b91505092915050565b600080600060608486031215610ac257610ac16108fb565b5b6000610ad08682870161094e565b935050602084013567ffffffffffffffff811115610af157610af0610900565b5b610afd86828701610a7b565b925050604084013567ffffffffffffffff811115610b1e57610b1d610900565b5b610b2a86828701610a7b565b9150509250925092565b600060208284031215610b4a57610b496108fb565b5b6000610b588482850161094e565b91505092915050565b600081519050919050565b600082825260208201905092915050565b6000819050602082019050919050565b610b96816108bd565b82525050565b600081519050919050565b600082825260208201905092915050565b60005b83811015610bd6578082015181840152602081019050610bbb565b60008484015250505050565b6000610bed82610b9c565b610bf78185610ba7565b9350610c07818560208601610bb8565b610c108161096d565b840191505092915050565b600060a083016000830151610c336000860182610b8d565b506020830151610c466020860182610b8d565b5060408301518482036040860152610c5e8282610be2565b91505060608301518482036060860152610c788282610be2565b9150506080830151610c8d6080860182610b8d565b508091505092915050565b6000610ca48383610c1b565b905092915050565b6000602082019050919050565b6000610cc482610b61565b610cce8185610b6c565b935083602082028501610ce085610b7d565b8060005b85811015610d1c5784840389528151610cfd8582610c98565b9450610d0883610cac565b925060208a01995050600181019050610ce4565b50829750879550505050505092915050565b60006020820190508181036000830152610d488184610cb9565b905092915050565b610d59816108bd565b8114610d6457600080fd5b50565b600081359050610d7681610d50565b92915050565b60008060408385031215610d9357610d926108fb565b5b6000610da18582860161094e565b9250506020610db285828601610d67565b9150509250929050565b600082825260208201905092915050565b6000610dd882610b9c565b610de28185610dbc565b9350610df2818560208601610bb8565b610dfb8161096d565b840191505092915050565b600060a082019050610e1b60008301886108c7565b610e2860208301876108c7565b8181036040830152610e3a8186610dcd565b90508181036060830152610e4e8185610dcd565b9050610e5d60808301846108c7565b9695505050505050565b7f54686520646f6e6174696f6e206e6565647320746f206265203e3020696e206f60008201527f7264657220666f7220697420746f20676f207468726f75676800000000000000602082015250565b6000610ec3603983610dbc565b9150610ece82610e67565b604082019050919050565b60006020820190508181036000830152610ef281610eb6565b9050919050565b7f4e487b7100000000000000000000000000000000000000000000000000000000600052601160045260246000fd5b6000610f33826108bd565b9150610f3e836108bd565b9250828201905080821115610f5657610f55610ef9565b5b92915050565b6000610f67826108bd565b91507fffffffffffffffffffffffffffffffffffffffffffffffffffffffffffffffff8203610f9957610f98610ef9565b5b600182019050919050565b7f4e487b7100000000000000000000000000000000000000000000000000000000600052602260045260246000fd5b60006002820490506001821680610feb57607f821691505b602082108103610ffe57610ffd610fa4565b5b50919050565b60008190508160005260206000209050919050565b60006020601f8301049050919050565b600082821b905092915050565b6000600883026110667fffffffffffffffffffffffffffffffffffffffffffffffffffffffffffffffff82611029565b6110708683611029565b95508019841693508086168417925050509392505050565b6000819050919050565b60006110ad6110a86110a3846108bd565b611088565b6108bd565b9050919050565b6000819050919050565b6110c783611092565b6110db6110d3826110b4565b848454611036565b825550505050565b600090565b6110f06110e3565b6110fb8184846110be565b505050565b5b8181101561111f576111146000826110e8565b600181019050611101565b5050565b601f8211156111645761113581611004565b61113e84611019565b8101602085101561114d578190505b61116161115985611019565b830182611100565b50505b505050565b600082821c905092915050565b600061118760001984600802611169565b1980831691505092915050565b60006111a08383611176565b9150826002028217905092915050565b6111b982610b9c565b67ffffffffffffffff8111156111d2576111d161097e565b5b6111dc8254610fd3565b6111e7828285611123565b600060209050601f83116001811461121a5760008415611208578287015190505b6112128582611194565b86555061127a565b601f19841661122886611004565b60005b828110156112505784890151825560018201915060208501945060208101905061122b565b8683101561126d5784890151611269601f891682611176565b8355505b6001600288020188555050505b505050505050565b600061128d826108bd565b9150611298836108bd565b92508282039050818111156112b0576112af610ef9565b5b92915050565b7f596f75722063757272656e742062616c616e6365206973203000000000000000600082015250565b60006112ec601983610dbc565b91506112f7826112b6565b602082019050919050565b6000602082019050818103600083015261131b816112df565b9050919050565b600081905092915050565b50565b600061133d600083611322565b91506113488261132d565b600082019050919050565b600061135e82611330565b915081905091905056fea264697066735822122026cbc8f1f53765033ad2a1baf7f4abd6f8c4893b3f6bbe4c3a7b05780696f14a64736f6c63430008110033",
					"opcodes": "PUSH1 0x80 PUSH1 0x40 MSTORE PUSH1 0x0 DUP1 SSTORE PUSH1 0x0 PUSH1 0x1 SSTORE CALLVALUE DUP1 ISZERO PUSH2 0x19 JUMPI PUSH1 0x0 DUP1 REVERT JUMPDEST POP PUSH2 0x139E DUP1 PUSH2 0x29 PUSH1 0x0 CODECOPY PUSH1 0x0 RETURN INVALID PUSH1 0x80 PUSH1 0x40 MSTORE PUSH1 0x4 CALLDATASIZE LT PUSH2 0x70 JUMPI PUSH1 0x0 CALLDATALOAD PUSH1 0xE0 SHR DUP1 PUSH4 0x3CCFD60B GT PUSH2 0x4E JUMPI DUP1 PUSH4 0x3CCFD60B EQ PUSH2 0xF9 JUMPI DUP1 PUSH4 0x6D73C365 EQ PUSH2 0x110 JUMPI DUP1 PUSH4 0xA4664AFF EQ PUSH2 0x14D JUMPI DUP1 PUSH4 0xBF773D6E EQ PUSH2 0x18A JUMPI PUSH2 0x70 JUMP JUMPDEST DUP1 PUSH4 0x12065FE0 EQ PUSH2 0x75 JUMPI DUP1 PUSH4 0x1280DB73 EQ PUSH2 0xA0 JUMPI DUP1 PUSH4 0x27E235E3 EQ PUSH2 0xBC JUMPI JUMPDEST PUSH1 0x0 DUP1 REVERT JUMPDEST CALLVALUE DUP1 ISZERO PUSH2 0x81 JUMPI PUSH1 0x0 DUP1 REVERT JUMPDEST POP PUSH2 0x8A PUSH2 0x1CB JUMP JUMPDEST PUSH1 0x40 MLOAD PUSH2 0x97 SWAP2 SWAP1 PUSH2 0x8D6 JUMP JUMPDEST PUSH1 0x40 MLOAD DUP1 SWAP2 SUB SWAP1 RETURN JUMPDEST PUSH2 0xBA PUSH1 0x4 DUP1 CALLDATASIZE SUB DUP2 ADD SWAP1 PUSH2 0xB5 SWAP2 SWAP1 PUSH2 0xAA9 JUMP JUMPDEST PUSH2 0x1EA JUMP JUMPDEST STOP JUMPDEST CALLVALUE DUP1 ISZERO PUSH2 0xC8 JUMPI PUSH1 0x0 DUP1 REVERT JUMPDEST POP PUSH2 0xE3 PUSH1 0x4 DUP1 CALLDATASIZE SUB DUP2 ADD SWAP1 PUSH2 0xDE SWAP2 SWAP1 PUSH2 0xB34 JUMP JUMPDEST PUSH2 0x38D JUMP JUMPDEST PUSH1 0x40 MLOAD PUSH2 0xF0 SWAP2 SWAP1 PUSH2 0x8D6 JUMP JUMPDEST PUSH1 0x40 MLOAD DUP1 SWAP2 SUB SWAP1 RETURN JUMPDEST CALLVALUE DUP1 ISZERO PUSH2 0x105 JUMPI PUSH1 0x0 DUP1 REVERT JUMPDEST POP PUSH2 0x10E PUSH2 0x3A5 JUMP JUMPDEST STOP JUMPDEST CALLVALUE DUP1 ISZERO PUSH2 0x11C JUMPI PUSH1 0x0 DUP1 REVERT JUMPDEST POP PUSH2 0x137 PUSH1 0x4 DUP1 CALLDATASIZE SUB DUP2 ADD SWAP1 PUSH2 0x132 SWAP2 SWAP1 PUSH2 0xB34 JUMP JUMPDEST PUSH2 0x502 JUMP JUMPDEST PUSH1 0x40 MLOAD PUSH2 0x144 SWAP2 SWAP1 PUSH2 0xD2E JUMP JUMPDEST PUSH1 0x40 MLOAD DUP1 SWAP2 SUB SWAP1 RETURN JUMPDEST CALLVALUE DUP1 ISZERO PUSH2 0x159 JUMPI PUSH1 0x0 DUP1 REVERT JUMPDEST POP PUSH2 0x174 PUSH1 0x4 DUP1 CALLDATASIZE SUB DUP2 ADD SWAP1 PUSH2 0x16F SWAP2 SWAP1 PUSH2 0xB34 JUMP JUMPDEST PUSH2 0x6E2 JUMP JUMPDEST PUSH1 0x40 MLOAD PUSH2 0x181 SWAP2 SWAP1 PUSH2 0x8D6 JUMP JUMPDEST PUSH1 0x40 MLOAD DUP1 SWAP2 SUB SWAP1 RETURN JUMPDEST CALLVALUE DUP1 ISZERO PUSH2 0x196 JUMPI PUSH1 0x0 DUP1 REVERT JUMPDEST POP PUSH2 0x1B1 PUSH1 0x4 DUP1 CALLDATASIZE SUB DUP2 ADD SWAP1 PUSH2 0x1AC SWAP2 SWAP1 PUSH2 0xD7C JUMP JUMPDEST PUSH2 0x72B JUMP JUMPDEST PUSH1 0x40 MLOAD PUSH2 0x1C2 SWAP6 SWAP5 SWAP4 SWAP3 SWAP2 SWAP1 PUSH2 0xE06 JUMP JUMPDEST PUSH1 0x40 MLOAD DUP1 SWAP2 SUB SWAP1 RETURN JUMPDEST PUSH1 0x0 CALLER PUSH20 0xFFFFFFFFFFFFFFFFFFFFFFFFFFFFFFFFFFFFFFFF AND BALANCE SWAP1 POP SWAP1 JUMP JUMPDEST PUSH2 0x1F2 PUSH2 0x88E JUMP JUMPDEST PUSH1 0x0 CALLVALUE GT PUSH2 0x235 JUMPI PUSH1 0x40 MLOAD PUSH32 0x8C379A000000000000000000000000000000000000000000000000000000000 DUP2 MSTORE PUSH1 0x4 ADD PUSH2 0x22C SWAP1 PUSH2 0xED9 JUMP JUMPDEST PUSH1 0x40 MLOAD DUP1 SWAP2 SUB SWAP1 REVERT JUMPDEST CALLVALUE PUSH1 0x0 DUP2 SWAP1 SSTORE POP PUSH1 0x0 SLOAD PUSH1 0x2 PUSH1 0x0 DUP7 PUSH20 0xFFFFFFFFFFFFFFFFFFFFFFFFFFFFFFFFFFFFFFFF AND PUSH20 0xFFFFFFFFFFFFFFFFFFFFFFFFFFFFFFFFFFFFFFFF AND DUP2 MSTORE PUSH1 0x20 ADD SWAP1 DUP2 MSTORE PUSH1 0x20 ADD PUSH1 0x0 KECCAK256 PUSH1 0x0 DUP3 DUP3 SLOAD PUSH2 0x28D SWAP2 SWAP1 PUSH2 0xF28 JUMP JUMPDEST SWAP3 POP POP DUP2 SWAP1 SSTORE POP PUSH1 0x3 PUSH1 0x0 DUP6 PUSH20 0xFFFFFFFFFFFFFFFFFFFFFFFFFFFFFFFFFFFFFFFF AND PUSH20 0xFFFFFFFFFFFFFFFFFFFFFFFFFFFFFFFFFFFFFFFF AND DUP2 MSTORE PUSH1 0x20 ADD SWAP1 DUP2 MSTORE PUSH1 0x20 ADD PUSH1 0x0 KECCAK256 PUSH1 0x40 MLOAD DUP1 PUSH1 0xA0 ADD PUSH1 0x40 MSTORE DUP1 PUSH1 0x1 PUSH1 0x0 DUP2 SLOAD DUP1 SWAP3 SWAP2 SWAP1 PUSH2 0x2F1 SWAP1 PUSH2 0xF5C JUMP JUMPDEST SWAP2 SWAP1 POP SSTORE DUP2 MSTORE PUSH1 0x20 ADD PUSH1 0x0 SLOAD DUP2 MSTORE PUSH1 0x20 ADD DUP6 DUP2 MSTORE PUSH1 0x20 ADD DUP5 DUP2 MSTORE PUSH1 0x20 ADD TIMESTAMP DUP2 MSTORE POP SWAP1 DUP1 PUSH1 0x1 DUP2 SLOAD ADD DUP1 DUP3 SSTORE DUP1 SWAP2 POP POP PUSH1 0x1 SWAP1 SUB SWAP1 PUSH1 0x0 MSTORE PUSH1 0x20 PUSH1 0x0 KECCAK256 SWAP1 PUSH1 0x5 MUL ADD PUSH1 0x0 SWAP1 SWAP2 SWAP1 SWAP2 SWAP1 SWAP2 POP PUSH1 0x0 DUP3 ADD MLOAD DUP2 PUSH1 0x0 ADD SSTORE PUSH1 0x20 DUP3 ADD MLOAD DUP2 PUSH1 0x1 ADD SSTORE PUSH1 0x40 DUP3 ADD MLOAD DUP2 PUSH1 0x2 ADD SWAP1 DUP2 PUSH2 0x364 SWAP2 SWAP1 PUSH2 0x11B0 JUMP JUMPDEST POP PUSH1 0x60 DUP3 ADD MLOAD DUP2 PUSH1 0x3 ADD SWAP1 DUP2 PUSH2 0x37A SWAP2 SWAP1 PUSH2 0x11B0 JUMP JUMPDEST POP PUSH1 0x80 DUP3 ADD MLOAD DUP2 PUSH1 0x4 ADD SSTORE POP POP POP POP POP POP JUMP JUMPDEST PUSH1 0x2 PUSH1 0x20 MSTORE DUP1 PUSH1 0x0 MSTORE PUSH1 0x40 PUSH1 0x0 KECCAK256 PUSH1 0x0 SWAP2 POP SWAP1 POP SLOAD DUP2 JUMP JUMPDEST PUSH1 0x2 PUSH1 0x0 CALLER PUSH20 0xFFFFFFFFFFFFFFFFFFFFFFFFFFFFFFFFFFFFFFFF AND PUSH20 0xFFFFFFFFFFFFFFFFFFFFFFFFFFFFFFFFFFFFFFFF AND DUP2 MSTORE PUSH1 0x20 ADD SWAP1 DUP2 MSTORE PUSH1 0x20 ADD PUSH1 0x0 KECCAK256 SLOAD PUSH1 0x0 DUP2 SWAP1 SSTORE POP PUSH1 0x0 SLOAD PUSH1 0x2 PUSH1 0x0 CALLER PUSH20 0xFFFFFFFFFFFFFFFFFFFFFFFFFFFFFFFFFFFFFFFF AND PUSH20 0xFFFFFFFFFFFFFFFFFFFFFFFFFFFFFFFFFFFFFFFF AND DUP2 MSTORE PUSH1 0x20 ADD SWAP1 DUP2 MSTORE PUSH1 0x20 ADD PUSH1 0x0 KECCAK256 PUSH1 0x0 DUP3 DUP3 SLOAD PUSH2 0x43C SWAP2 SWAP1 PUSH2 0x1282 JUMP JUMPDEST SWAP3 POP POP DUP2 SWAP1 SSTORE POP PUSH1 0x0 DUP1 SLOAD GT PUSH2 0x487 JUMPI PUSH1 0x40 MLOAD PUSH32 0x8C379A000000000000000000000000000000000000000000000000000000000 DUP2 MSTORE PUSH1 0x4 ADD PUSH2 0x47E SWAP1 PUSH2 0x1302 JUMP JUMPDEST PUSH1 0x40 MLOAD DUP1 SWAP2 SUB SWAP1 REVERT JUMPDEST PUSH1 0x0 CALLER PUSH20 0xFFFFFFFFFFFFFFFFFFFFFFFFFFFFFFFFFFFFFFFF AND PUSH1 0x0 SLOAD PUSH1 0x40 MLOAD PUSH2 0x4AF SWAP1 PUSH2 0x1353 JUMP JUMPDEST PUSH1 0x0 PUSH1 0x40 MLOAD DUP1 DUP4 SUB DUP2 DUP6 DUP8 GAS CALL SWAP3 POP POP POP RETURNDATASIZE DUP1 PUSH1 0x0 DUP2 EQ PUSH2 0x4EC JUMPI PUSH1 0x40 MLOAD SWAP2 POP PUSH1 0x1F NOT PUSH1 0x3F RETURNDATASIZE ADD AND DUP3 ADD PUSH1 0x40 MSTORE RETURNDATASIZE DUP3 MSTORE RETURNDATASIZE PUSH1 0x0 PUSH1 0x20 DUP5 ADD RETURNDATACOPY PUSH2 0x4F1 JUMP JUMPDEST PUSH1 0x60 SWAP2 POP JUMPDEST POP POP SWAP1 POP DUP1 PUSH2 0x4FF JUMPI PUSH1 0x0 DUP1 REVERT JUMPDEST POP JUMP JUMPDEST PUSH1 0x60 PUSH1 0x3 PUSH1 0x0 DUP4 PUSH20 0xFFFFFFFFFFFFFFFFFFFFFFFFFFFFFFFFFFFFFFFF AND PUSH20 0xFFFFFFFFFFFFFFFFFFFFFFFFFFFFFFFFFFFFFFFF AND DUP2 MSTORE PUSH1 0x20 ADD SWAP1 DUP2 MSTORE PUSH1 0x20 ADD PUSH1 0x0 KECCAK256 DUP1 SLOAD DUP1 PUSH1 0x20 MUL PUSH1 0x20 ADD PUSH1 0x40 MLOAD SWAP1 DUP2 ADD PUSH1 0x40 MSTORE DUP1 SWAP3 SWAP2 SWAP1 DUP2 DUP2 MSTORE PUSH1 0x20 ADD PUSH1 0x0 SWAP1 JUMPDEST DUP3 DUP3 LT ISZERO PUSH2 0x6D7 JUMPI DUP4 DUP3 SWAP1 PUSH1 0x0 MSTORE PUSH1 0x20 PUSH1 0x0 KECCAK256 SWAP1 PUSH1 0x5 MUL ADD PUSH1 0x40 MLOAD DUP1 PUSH1 0xA0 ADD PUSH1 0x40 MSTORE SWAP1 DUP2 PUSH1 0x0 DUP3 ADD SLOAD DUP2 MSTORE PUSH1 0x20 ADD PUSH1 0x1 DUP3 ADD SLOAD DUP2 MSTORE PUSH1 0x20 ADD PUSH1 0x2 DUP3 ADD DUP1 SLOAD PUSH2 0x5AA SWAP1 PUSH2 0xFD3 JUMP JUMPDEST DUP1 PUSH1 0x1F ADD PUSH1 0x20 DUP1 SWAP2 DIV MUL PUSH1 0x20 ADD PUSH1 0x40 MLOAD SWAP1 DUP2 ADD PUSH1 0x40 MSTORE DUP1 SWAP3 SWAP2 SWAP1 DUP2 DUP2 MSTORE PUSH1 0x20 ADD DUP3 DUP1 SLOAD PUSH2 0x5D6 SWAP1 PUSH2 0xFD3 JUMP JUMPDEST DUP1 ISZERO PUSH2 0x623 JUMPI DUP1 PUSH1 0x1F LT PUSH2 0x5F8 JUMPI PUSH2 0x100 DUP1 DUP4 SLOAD DIV MUL DUP4 MSTORE SWAP2 PUSH1 0x20 ADD SWAP2 PUSH2 0x623 JUMP JUMPDEST DUP3 ADD SWAP2 SWAP1 PUSH1 0x0 MSTORE PUSH1 0x20 PUSH1 0x0 KECCAK256 SWAP1 JUMPDEST DUP2 SLOAD DUP2 MSTORE SWAP1 PUSH1 0x1 ADD SWAP1 PUSH1 0x20 ADD DUP1 DUP4 GT PUSH2 0x606 JUMPI DUP3 SWAP1 SUB PUSH1 0x1F AND DUP3 ADD SWAP2 JUMPDEST POP POP POP POP POP DUP2 MSTORE PUSH1 0x20 ADD PUSH1 0x3 DUP3 ADD DUP1 SLOAD PUSH2 0x63C SWAP1 PUSH2 0xFD3 JUMP JUMPDEST DUP1 PUSH1 0x1F ADD PUSH1 0x20 DUP1 SWAP2 DIV MUL PUSH1 0x20 ADD PUSH1 0x40 MLOAD SWAP1 DUP2 ADD PUSH1 0x40 MSTORE DUP1 SWAP3 SWAP2 SWAP1 DUP2 DUP2 MSTORE PUSH1 0x20 ADD DUP3 DUP1 SLOAD PUSH2 0x668 SWAP1 PUSH2 0xFD3 JUMP JUMPDEST DUP1 ISZERO PUSH2 0x6B5 JUMPI DUP1 PUSH1 0x1F LT PUSH2 0x68A JUMPI PUSH2 0x100 DUP1 DUP4 SLOAD DIV MUL DUP4 MSTORE SWAP2 PUSH1 0x20 ADD SWAP2 PUSH2 0x6B5 JUMP JUMPDEST DUP3 ADD SWAP2 SWAP1 PUSH1 0x0 MSTORE PUSH1 0x20 PUSH1 0x0 KECCAK256 SWAP1 JUMPDEST DUP2 SLOAD DUP2 MSTORE SWAP1 PUSH1 0x1 ADD SWAP1 PUSH1 0x20 ADD DUP1 DUP4 GT PUSH2 0x698 JUMPI DUP3 SWAP1 SUB PUSH1 0x1F AND DUP3 ADD SWAP2 JUMPDEST POP POP POP POP POP DUP2 MSTORE PUSH1 0x20 ADD PUSH1 0x4 DUP3 ADD SLOAD DUP2 MSTORE POP POP DUP2 MSTORE PUSH1 0x20 ADD SWAP1 PUSH1 0x1 ADD SWAP1 PUSH2 0x563 JUMP JUMPDEST POP POP POP POP SWAP1 POP SWAP2 SWAP1 POP JUMP JUMPDEST PUSH1 0x0 PUSH1 0x2 PUSH1 0x0 DUP4 PUSH20 0xFFFFFFFFFFFFFFFFFFFFFFFFFFFFFFFFFFFFFFFF AND PUSH20 0xFFFFFFFFFFFFFFFFFFFFFFFFFFFFFFFFFFFFFFFF AND DUP2 MSTORE PUSH1 0x20 ADD SWAP1 DUP2 MSTORE PUSH1 0x20 ADD PUSH1 0x0 KECCAK256 SLOAD SWAP1 POP SWAP2 SWAP1 POP JUMP JUMPDEST PUSH1 0x3 PUSH1 0x20 MSTORE DUP2 PUSH1 0x0 MSTORE PUSH1 0x40 PUSH1 0x0 KECCAK256 DUP2 DUP2 SLOAD DUP2 LT PUSH2 0x747 JUMPI PUSH1 0x0 DUP1 REVERT JUMPDEST SWAP1 PUSH1 0x0 MSTORE PUSH1 0x20 PUSH1 0x0 KECCAK256 SWAP1 PUSH1 0x5 MUL ADD PUSH1 0x0 SWAP2 POP SWAP2 POP POP DUP1 PUSH1 0x0 ADD SLOAD SWAP1 DUP1 PUSH1 0x1 ADD SLOAD SWAP1 DUP1 PUSH1 0x2 ADD DUP1 SLOAD PUSH2 0x777 SWAP1 PUSH2 0xFD3 JUMP JUMPDEST DUP1 PUSH1 0x1F ADD PUSH1 0x20 DUP1 SWAP2 DIV MUL PUSH1 0x20 ADD PUSH1 0x40 MLOAD SWAP1 DUP2 ADD PUSH1 0x40 MSTORE DUP1 SWAP3 SWAP2 SWAP1 DUP2 DUP2 MSTORE PUSH1 0x20 ADD DUP3 DUP1 SLOAD PUSH2 0x7A3 SWAP1 PUSH2 0xFD3 JUMP JUMPDEST DUP1 ISZERO PUSH2 0x7F0 JUMPI DUP1 PUSH1 0x1F LT PUSH2 0x7C5 JUMPI PUSH2 0x100 DUP1 DUP4 SLOAD DIV MUL DUP4 MSTORE SWAP2 PUSH1 0x20 ADD SWAP2 PUSH2 0x7F0 JUMP JUMPDEST DUP3 ADD SWAP2 SWAP1 PUSH1 0x0 MSTORE PUSH1 0x20 PUSH1 0x0 KECCAK256 SWAP1 JUMPDEST DUP2 SLOAD DUP2 MSTORE SWAP1 PUSH1 0x1 ADD SWAP1 PUSH1 0x20 ADD DUP1 DUP4 GT PUSH2 0x7D3 JUMPI DUP3 SWAP1 SUB PUSH1 0x1F AND DUP3 ADD SWAP2 JUMPDEST POP POP POP POP POP SWAP1 DUP1 PUSH1 0x3 ADD DUP1 SLOAD PUSH2 0x805 SWAP1 PUSH2 0xFD3 JUMP JUMPDEST DUP1 PUSH1 0x1F ADD PUSH1 0x20 DUP1 SWAP2 DIV MUL PUSH1 0x20 ADD PUSH1 0x40 MLOAD SWAP1 DUP2 ADD PUSH1 0x40 MSTORE DUP1 SWAP3 SWAP2 SWAP1 DUP2 DUP2 MSTORE PUSH1 0x20 ADD DUP3 DUP1 SLOAD PUSH2 0x831 SWAP1 PUSH2 0xFD3 JUMP JUMPDEST DUP1 ISZERO PUSH2 0x87E JUMPI DUP1 PUSH1 0x1F LT PUSH2 0x853 JUMPI PUSH2 0x100 DUP1 DUP4 SLOAD DIV MUL DUP4 MSTORE SWAP2 PUSH1 0x20 ADD SWAP2 PUSH2 0x87E JUMP JUMPDEST DUP3 ADD SWAP2 SWAP1 PUSH1 0x0 MSTORE PUSH1 0x20 PUSH1 0x0 KECCAK256 SWAP1 JUMPDEST DUP2 SLOAD DUP2 MSTORE SWAP1 PUSH1 0x1 ADD SWAP1 PUSH1 0x20 ADD DUP1 DUP4 GT PUSH2 0x861 JUMPI DUP3 SWAP1 SUB PUSH1 0x1F AND DUP3 ADD SWAP2 JUMPDEST POP POP POP POP POP SWAP1 DUP1 PUSH1 0x4 ADD SLOAD SWAP1 POP DUP6 JUMP JUMPDEST PUSH1 0x40 MLOAD DUP1 PUSH1 0xA0 ADD PUSH1 0x40 MSTORE DUP1 PUSH1 0x0 DUP2 MSTORE PUSH1 0x20 ADD PUSH1 0x0 DUP2 MSTORE PUSH1 0x20 ADD PUSH1 0x60 DUP2 MSTORE PUSH1 0x20 ADD PUSH1 0x60 DUP2 MSTORE PUSH1 0x20 ADD PUSH1 0x0 DUP2 MSTORE POP SWAP1 JUMP JUMPDEST PUSH1 0x0 DUP2 SWAP1 POP SWAP2 SWAP1 POP JUMP JUMPDEST PUSH2 0x8D0 DUP2 PUSH2 0x8BD JUMP JUMPDEST DUP3 MSTORE POP POP JUMP JUMPDEST PUSH1 0x0 PUSH1 0x20 DUP3 ADD SWAP1 POP PUSH2 0x8EB PUSH1 0x0 DUP4 ADD DUP5 PUSH2 0x8C7 JUMP JUMPDEST SWAP3 SWAP2 POP POP JUMP JUMPDEST PUSH1 0x0 PUSH1 0x40 MLOAD SWAP1 POP SWAP1 JUMP JUMPDEST PUSH1 0x0 DUP1 REVERT JUMPDEST PUSH1 0x0 DUP1 REVERT JUMPDEST PUSH1 0x0 PUSH20 0xFFFFFFFFFFFFFFFFFFFFFFFFFFFFFFFFFFFFFFFF DUP3 AND SWAP1 POP SWAP2 SWAP1 POP JUMP JUMPDEST PUSH1 0x0 PUSH2 0x930 DUP3 PUSH2 0x905 JUMP JUMPDEST SWAP1 POP SWAP2 SWAP1 POP JUMP JUMPDEST PUSH2 0x940 DUP2 PUSH2 0x925 JUMP JUMPDEST DUP2 EQ PUSH2 0x94B JUMPI PUSH1 0x0 DUP1 REVERT JUMPDEST POP JUMP JUMPDEST PUSH1 0x0 DUP2 CALLDATALOAD SWAP1 POP PUSH2 0x95D DUP2 PUSH2 0x937 JUMP JUMPDEST SWAP3 SWAP2 POP POP JUMP JUMPDEST PUSH1 0x0 DUP1 REVERT JUMPDEST PUSH1 0x0 DUP1 REVERT JUMPDEST PUSH1 0x0 PUSH1 0x1F NOT PUSH1 0x1F DUP4 ADD AND SWAP1 POP SWAP2 SWAP1 POP JUMP JUMPDEST PUSH32 0x4E487B7100000000000000000000000000000000000000000000000000000000 PUSH1 0x0 MSTORE PUSH1 0x41 PUSH1 0x4 MSTORE PUSH1 0x24 PUSH1 0x0 REVERT JUMPDEST PUSH2 0x9B6 DUP3 PUSH2 0x96D JUMP JUMPDEST DUP2 ADD DUP2 DUP2 LT PUSH8 0xFFFFFFFFFFFFFFFF DUP3 GT OR ISZERO PUSH2 0x9D5 JUMPI PUSH2 0x9D4 PUSH2 0x97E JUMP JUMPDEST JUMPDEST DUP1 PUSH1 0x40 MSTORE POP POP POP JUMP JUMPDEST PUSH1 0x0 PUSH2 0x9E8 PUSH2 0x8F1 JUMP JUMPDEST SWAP1 POP PUSH2 0x9F4 DUP3 DUP3 PUSH2 0x9AD JUMP JUMPDEST SWAP2 SWAP1 POP JUMP JUMPDEST PUSH1 0x0 PUSH8 0xFFFFFFFFFFFFFFFF DUP3 GT ISZERO PUSH2 0xA14 JUMPI PUSH2 0xA13 PUSH2 0x97E JUMP JUMPDEST JUMPDEST PUSH2 0xA1D DUP3 PUSH2 0x96D JUMP JUMPDEST SWAP1 POP PUSH1 0x20 DUP2 ADD SWAP1 POP SWAP2 SWAP1 POP JUMP JUMPDEST DUP3 DUP2 DUP4 CALLDATACOPY PUSH1 0x0 DUP4 DUP4 ADD MSTORE POP POP POP JUMP JUMPDEST PUSH1 0x0 PUSH2 0xA4C PUSH2 0xA47 DUP5 PUSH2 0x9F9 JUMP JUMPDEST PUSH2 0x9DE JUMP JUMPDEST SWAP1 POP DUP3 DUP2 MSTORE PUSH1 0x20 DUP2 ADD DUP5 DUP5 DUP5 ADD GT ISZERO PUSH2 0xA68 JUMPI PUSH2 0xA67 PUSH2 0x968 JUMP JUMPDEST JUMPDEST PUSH2 0xA73 DUP5 DUP3 DUP6 PUSH2 0xA2A JUMP JUMPDEST POP SWAP4 SWAP3 POP POP POP JUMP JUMPDEST PUSH1 0x0 DUP3 PUSH1 0x1F DUP4 ADD SLT PUSH2 0xA90 JUMPI PUSH2 0xA8F PUSH2 0x963 JUMP JUMPDEST JUMPDEST DUP2 CALLDATALOAD PUSH2 0xAA0 DUP5 DUP3 PUSH1 0x20 DUP7 ADD PUSH2 0xA39 JUMP JUMPDEST SWAP2 POP POP SWAP3 SWAP2 POP POP JUMP JUMPDEST PUSH1 0x0 DUP1 PUSH1 0x0 PUSH1 0x60 DUP5 DUP7 SUB SLT ISZERO PUSH2 0xAC2 JUMPI PUSH2 0xAC1 PUSH2 0x8FB JUMP JUMPDEST JUMPDEST PUSH1 0x0 PUSH2 0xAD0 DUP7 DUP3 DUP8 ADD PUSH2 0x94E JUMP JUMPDEST SWAP4 POP POP PUSH1 0x20 DUP5 ADD CALLDATALOAD PUSH8 0xFFFFFFFFFFFFFFFF DUP2 GT ISZERO PUSH2 0xAF1 JUMPI PUSH2 0xAF0 PUSH2 0x900 JUMP JUMPDEST JUMPDEST PUSH2 0xAFD DUP7 DUP3 DUP8 ADD PUSH2 0xA7B JUMP JUMPDEST SWAP3 POP POP PUSH1 0x40 DUP5 ADD CALLDATALOAD PUSH8 0xFFFFFFFFFFFFFFFF DUP2 GT ISZERO PUSH2 0xB1E JUMPI PUSH2 0xB1D PUSH2 0x900 JUMP JUMPDEST JUMPDEST PUSH2 0xB2A DUP7 DUP3 DUP8 ADD PUSH2 0xA7B JUMP JUMPDEST SWAP2 POP POP SWAP3 POP SWAP3 POP SWAP3 JUMP JUMPDEST PUSH1 0x0 PUSH1 0x20 DUP3 DUP5 SUB SLT ISZERO PUSH2 0xB4A JUMPI PUSH2 0xB49 PUSH2 0x8FB JUMP JUMPDEST JUMPDEST PUSH1 0x0 PUSH2 0xB58 DUP5 DUP3 DUP6 ADD PUSH2 0x94E JUMP JUMPDEST SWAP2 POP POP SWAP3 SWAP2 POP POP JUMP JUMPDEST PUSH1 0x0 DUP2 MLOAD SWAP1 POP SWAP2 SWAP1 POP JUMP JUMPDEST PUSH1 0x0 DUP3 DUP3 MSTORE PUSH1 0x20 DUP3 ADD SWAP1 POP SWAP3 SWAP2 POP POP JUMP JUMPDEST PUSH1 0x0 DUP2 SWAP1 POP PUSH1 0x20 DUP3 ADD SWAP1 POP SWAP2 SWAP1 POP JUMP JUMPDEST PUSH2 0xB96 DUP2 PUSH2 0x8BD JUMP JUMPDEST DUP3 MSTORE POP POP JUMP JUMPDEST PUSH1 0x0 DUP2 MLOAD SWAP1 POP SWAP2 SWAP1 POP JUMP JUMPDEST PUSH1 0x0 DUP3 DUP3 MSTORE PUSH1 0x20 DUP3 ADD SWAP1 POP SWAP3 SWAP2 POP POP JUMP JUMPDEST PUSH1 0x0 JUMPDEST DUP4 DUP2 LT ISZERO PUSH2 0xBD6 JUMPI DUP1 DUP3 ADD MLOAD DUP2 DUP5 ADD MSTORE PUSH1 0x20 DUP2 ADD SWAP1 POP PUSH2 0xBBB JUMP JUMPDEST PUSH1 0x0 DUP5 DUP5 ADD MSTORE POP POP POP POP JUMP JUMPDEST PUSH1 0x0 PUSH2 0xBED DUP3 PUSH2 0xB9C JUMP JUMPDEST PUSH2 0xBF7 DUP2 DUP6 PUSH2 0xBA7 JUMP JUMPDEST SWAP4 POP PUSH2 0xC07 DUP2 DUP6 PUSH1 0x20 DUP7 ADD PUSH2 0xBB8 JUMP JUMPDEST PUSH2 0xC10 DUP2 PUSH2 0x96D JUMP JUMPDEST DUP5 ADD SWAP2 POP POP SWAP3 SWAP2 POP POP JUMP JUMPDEST PUSH1 0x0 PUSH1 0xA0 DUP4 ADD PUSH1 0x0 DUP4 ADD MLOAD PUSH2 0xC33 PUSH1 0x0 DUP7 ADD DUP3 PUSH2 0xB8D JUMP JUMPDEST POP PUSH1 0x20 DUP4 ADD MLOAD PUSH2 0xC46 PUSH1 0x20 DUP7 ADD DUP3 PUSH2 0xB8D JUMP JUMPDEST POP PUSH1 0x40 DUP4 ADD MLOAD DUP5 DUP3 SUB PUSH1 0x40 DUP7 ADD MSTORE PUSH2 0xC5E DUP3 DUP3 PUSH2 0xBE2 JUMP JUMPDEST SWAP2 POP POP PUSH1 0x60 DUP4 ADD MLOAD DUP5 DUP3 SUB PUSH1 0x60 DUP7 ADD MSTORE PUSH2 0xC78 DUP3 DUP3 PUSH2 0xBE2 JUMP JUMPDEST SWAP2 POP POP PUSH1 0x80 DUP4 ADD MLOAD PUSH2 0xC8D PUSH1 0x80 DUP7 ADD DUP3 PUSH2 0xB8D JUMP JUMPDEST POP DUP1 SWAP2 POP POP SWAP3 SWAP2 POP POP JUMP JUMPDEST PUSH1 0x0 PUSH2 0xCA4 DUP4 DUP4 PUSH2 0xC1B JUMP JUMPDEST SWAP1 POP SWAP3 SWAP2 POP POP JUMP JUMPDEST PUSH1 0x0 PUSH1 0x20 DUP3 ADD SWAP1 POP SWAP2 SWAP1 POP JUMP JUMPDEST PUSH1 0x0 PUSH2 0xCC4 DUP3 PUSH2 0xB61 JUMP JUMPDEST PUSH2 0xCCE DUP2 DUP6 PUSH2 0xB6C JUMP JUMPDEST SWAP4 POP DUP4 PUSH1 0x20 DUP3 MUL DUP6 ADD PUSH2 0xCE0 DUP6 PUSH2 0xB7D JUMP JUMPDEST DUP1 PUSH1 0x0 JUMPDEST DUP6 DUP2 LT ISZERO PUSH2 0xD1C JUMPI DUP5 DUP5 SUB DUP10 MSTORE DUP2 MLOAD PUSH2 0xCFD DUP6 DUP3 PUSH2 0xC98 JUMP JUMPDEST SWAP5 POP PUSH2 0xD08 DUP4 PUSH2 0xCAC JUMP JUMPDEST SWAP3 POP PUSH1 0x20 DUP11 ADD SWAP10 POP POP PUSH1 0x1 DUP2 ADD SWAP1 POP PUSH2 0xCE4 JUMP JUMPDEST POP DUP3 SWAP8 POP DUP8 SWAP6 POP POP POP POP POP POP SWAP3 SWAP2 POP POP JUMP JUMPDEST PUSH1 0x0 PUSH1 0x20 DUP3 ADD SWAP1 POP DUP2 DUP2 SUB PUSH1 0x0 DUP4 ADD MSTORE PUSH2 0xD48 DUP2 DUP5 PUSH2 0xCB9 JUMP JUMPDEST SWAP1 POP SWAP3 SWAP2 POP POP JUMP JUMPDEST PUSH2 0xD59 DUP2 PUSH2 0x8BD JUMP JUMPDEST DUP2 EQ PUSH2 0xD64 JUMPI PUSH1 0x0 DUP1 REVERT JUMPDEST POP JUMP JUMPDEST PUSH1 0x0 DUP2 CALLDATALOAD SWAP1 POP PUSH2 0xD76 DUP2 PUSH2 0xD50 JUMP JUMPDEST SWAP3 SWAP2 POP POP JUMP JUMPDEST PUSH1 0x0 DUP1 PUSH1 0x40 DUP4 DUP6 SUB SLT ISZERO PUSH2 0xD93 JUMPI PUSH2 0xD92 PUSH2 0x8FB JUMP JUMPDEST JUMPDEST PUSH1 0x0 PUSH2 0xDA1 DUP6 DUP3 DUP7 ADD PUSH2 0x94E JUMP JUMPDEST SWAP3 POP POP PUSH1 0x20 PUSH2 0xDB2 DUP6 DUP3 DUP7 ADD PUSH2 0xD67 JUMP JUMPDEST SWAP2 POP POP SWAP3 POP SWAP3 SWAP1 POP JUMP JUMPDEST PUSH1 0x0 DUP3 DUP3 MSTORE PUSH1 0x20 DUP3 ADD SWAP1 POP SWAP3 SWAP2 POP POP JUMP JUMPDEST PUSH1 0x0 PUSH2 0xDD8 DUP3 PUSH2 0xB9C JUMP JUMPDEST PUSH2 0xDE2 DUP2 DUP6 PUSH2 0xDBC JUMP JUMPDEST SWAP4 POP PUSH2 0xDF2 DUP2 DUP6 PUSH1 0x20 DUP7 ADD PUSH2 0xBB8 JUMP JUMPDEST PUSH2 0xDFB DUP2 PUSH2 0x96D JUMP JUMPDEST DUP5 ADD SWAP2 POP POP SWAP3 SWAP2 POP POP JUMP JUMPDEST PUSH1 0x0 PUSH1 0xA0 DUP3 ADD SWAP1 POP PUSH2 0xE1B PUSH1 0x0 DUP4 ADD DUP9 PUSH2 0x8C7 JUMP JUMPDEST PUSH2 0xE28 PUSH1 0x20 DUP4 ADD DUP8 PUSH2 0x8C7 JUMP JUMPDEST DUP2 DUP2 SUB PUSH1 0x40 DUP4 ADD MSTORE PUSH2 0xE3A DUP2 DUP7 PUSH2 0xDCD JUMP JUMPDEST SWAP1 POP DUP2 DUP2 SUB PUSH1 0x60 DUP4 ADD MSTORE PUSH2 0xE4E DUP2 DUP6 PUSH2 0xDCD JUMP JUMPDEST SWAP1 POP PUSH2 0xE5D PUSH1 0x80 DUP4 ADD DUP5 PUSH2 0x8C7 JUMP JUMPDEST SWAP7 SWAP6 POP POP POP POP POP POP JUMP JUMPDEST PUSH32 0x54686520646F6E6174696F6E206E6565647320746F206265203E3020696E206F PUSH1 0x0 DUP3 ADD MSTORE PUSH32 0x7264657220666F7220697420746F20676F207468726F75676800000000000000 PUSH1 0x20 DUP3 ADD MSTORE POP JUMP JUMPDEST PUSH1 0x0 PUSH2 0xEC3 PUSH1 0x39 DUP4 PUSH2 0xDBC JUMP JUMPDEST SWAP2 POP PUSH2 0xECE DUP3 PUSH2 0xE67 JUMP JUMPDEST PUSH1 0x40 DUP3 ADD SWAP1 POP SWAP2 SWAP1 POP JUMP JUMPDEST PUSH1 0x0 PUSH1 0x20 DUP3 ADD SWAP1 POP DUP2 DUP2 SUB PUSH1 0x0 DUP4 ADD MSTORE PUSH2 0xEF2 DUP2 PUSH2 0xEB6 JUMP JUMPDEST SWAP1 POP SWAP2 SWAP1 POP JUMP JUMPDEST PUSH32 0x4E487B7100000000000000000000000000000000000000000000000000000000 PUSH1 0x0 MSTORE PUSH1 0x11 PUSH1 0x4 MSTORE PUSH1 0x24 PUSH1 0x0 REVERT JUMPDEST PUSH1 0x0 PUSH2 0xF33 DUP3 PUSH2 0x8BD JUMP JUMPDEST SWAP2 POP PUSH2 0xF3E DUP4 PUSH2 0x8BD JUMP JUMPDEST SWAP3 POP DUP3 DUP3 ADD SWAP1 POP DUP1 DUP3 GT ISZERO PUSH2 0xF56 JUMPI PUSH2 0xF55 PUSH2 0xEF9 JUMP JUMPDEST JUMPDEST SWAP3 SWAP2 POP POP JUMP JUMPDEST PUSH1 0x0 PUSH2 0xF67 DUP3 PUSH2 0x8BD JUMP JUMPDEST SWAP2 POP PUSH32 0xFFFFFFFFFFFFFFFFFFFFFFFFFFFFFFFFFFFFFFFFFFFFFFFFFFFFFFFFFFFFFFFF DUP3 SUB PUSH2 0xF99 JUMPI PUSH2 0xF98 PUSH2 0xEF9 JUMP JUMPDEST JUMPDEST PUSH1 0x1 DUP3 ADD SWAP1 POP SWAP2 SWAP1 POP JUMP JUMPDEST PUSH32 0x4E487B7100000000000000000000000000000000000000000000000000000000 PUSH1 0x0 MSTORE PUSH1 0x22 PUSH1 0x4 MSTORE PUSH1 0x24 PUSH1 0x0 REVERT JUMPDEST PUSH1 0x0 PUSH1 0x2 DUP3 DIV SWAP1 POP PUSH1 0x1 DUP3 AND DUP1 PUSH2 0xFEB JUMPI PUSH1 0x7F DUP3 AND SWAP2 POP JUMPDEST PUSH1 0x20 DUP3 LT DUP2 SUB PUSH2 0xFFE JUMPI PUSH2 0xFFD PUSH2 0xFA4 JUMP JUMPDEST JUMPDEST POP SWAP2 SWAP1 POP JUMP JUMPDEST PUSH1 0x0 DUP2 SWAP1 POP DUP2 PUSH1 0x0 MSTORE PUSH1 0x20 PUSH1 0x0 KECCAK256 SWAP1 POP SWAP2 SWAP1 POP JUMP JUMPDEST PUSH1 0x0 PUSH1 0x20 PUSH1 0x1F DUP4 ADD DIV SWAP1 POP SWAP2 SWAP1 POP JUMP JUMPDEST PUSH1 0x0 DUP3 DUP3 SHL SWAP1 POP SWAP3 SWAP2 POP POP JUMP JUMPDEST PUSH1 0x0 PUSH1 0x8 DUP4 MUL PUSH2 0x1066 PUSH32 0xFFFFFFFFFFFFFFFFFFFFFFFFFFFFFFFFFFFFFFFFFFFFFFFFFFFFFFFFFFFFFFFF DUP3 PUSH2 0x1029 JUMP JUMPDEST PUSH2 0x1070 DUP7 DUP4 PUSH2 0x1029 JUMP JUMPDEST SWAP6 POP DUP1 NOT DUP5 AND SWAP4 POP DUP1 DUP7 AND DUP5 OR SWAP3 POP POP POP SWAP4 SWAP3 POP POP POP JUMP JUMPDEST PUSH1 0x0 DUP2 SWAP1 POP SWAP2 SWAP1 POP JUMP JUMPDEST PUSH1 0x0 PUSH2 0x10AD PUSH2 0x10A8 PUSH2 0x10A3 DUP5 PUSH2 0x8BD JUMP JUMPDEST PUSH2 0x1088 JUMP JUMPDEST PUSH2 0x8BD JUMP JUMPDEST SWAP1 POP SWAP2 SWAP1 POP JUMP JUMPDEST PUSH1 0x0 DUP2 SWAP1 POP SWAP2 SWAP1 POP JUMP JUMPDEST PUSH2 0x10C7 DUP4 PUSH2 0x1092 JUMP JUMPDEST PUSH2 0x10DB PUSH2 0x10D3 DUP3 PUSH2 0x10B4 JUMP JUMPDEST DUP5 DUP5 SLOAD PUSH2 0x1036 JUMP JUMPDEST DUP3 SSTORE POP POP POP POP JUMP JUMPDEST PUSH1 0x0 SWAP1 JUMP JUMPDEST PUSH2 0x10F0 PUSH2 0x10E3 JUMP JUMPDEST PUSH2 0x10FB DUP2 DUP5 DUP5 PUSH2 0x10BE JUMP JUMPDEST POP POP POP JUMP JUMPDEST JUMPDEST DUP2 DUP2 LT ISZERO PUSH2 0x111F JUMPI PUSH2 0x1114 PUSH1 0x0 DUP3 PUSH2 0x10E8 JUMP JUMPDEST PUSH1 0x1 DUP2 ADD SWAP1 POP PUSH2 0x1101 JUMP JUMPDEST POP POP JUMP JUMPDEST PUSH1 0x1F DUP3 GT ISZERO PUSH2 0x1164 JUMPI PUSH2 0x1135 DUP2 PUSH2 0x1004 JUMP JUMPDEST PUSH2 0x113E DUP5 PUSH2 0x1019 JUMP JUMPDEST DUP2 ADD PUSH1 0x20 DUP6 LT ISZERO PUSH2 0x114D JUMPI DUP2 SWAP1 POP JUMPDEST PUSH2 0x1161 PUSH2 0x1159 DUP6 PUSH2 0x1019 JUMP JUMPDEST DUP4 ADD DUP3 PUSH2 0x1100 JUMP JUMPDEST POP POP JUMPDEST POP POP POP JUMP JUMPDEST PUSH1 0x0 DUP3 DUP3 SHR SWAP1 POP SWAP3 SWAP2 POP POP JUMP JUMPDEST PUSH1 0x0 PUSH2 0x1187 PUSH1 0x0 NOT DUP5 PUSH1 0x8 MUL PUSH2 0x1169 JUMP JUMPDEST NOT DUP1 DUP4 AND SWAP2 POP POP SWAP3 SWAP2 POP POP JUMP JUMPDEST PUSH1 0x0 PUSH2 0x11A0 DUP4 DUP4 PUSH2 0x1176 JUMP JUMPDEST SWAP2 POP DUP3 PUSH1 0x2 MUL DUP3 OR SWAP1 POP SWAP3 SWAP2 POP POP JUMP JUMPDEST PUSH2 0x11B9 DUP3 PUSH2 0xB9C JUMP JUMPDEST PUSH8 0xFFFFFFFFFFFFFFFF DUP2 GT ISZERO PUSH2 0x11D2 JUMPI PUSH2 0x11D1 PUSH2 0x97E JUMP JUMPDEST JUMPDEST PUSH2 0x11DC DUP3 SLOAD PUSH2 0xFD3 JUMP JUMPDEST PUSH2 0x11E7 DUP3 DUP3 DUP6 PUSH2 0x1123 JUMP JUMPDEST PUSH1 0x0 PUSH1 0x20 SWAP1 POP PUSH1 0x1F DUP4 GT PUSH1 0x1 DUP2 EQ PUSH2 0x121A JUMPI PUSH1 0x0 DUP5 ISZERO PUSH2 0x1208 JUMPI DUP3 DUP8 ADD MLOAD SWAP1 POP JUMPDEST PUSH2 0x1212 DUP6 DUP3 PUSH2 0x1194 JUMP JUMPDEST DUP7 SSTORE POP PUSH2 0x127A JUMP JUMPDEST PUSH1 0x1F NOT DUP5 AND PUSH2 0x1228 DUP7 PUSH2 0x1004 JUMP JUMPDEST PUSH1 0x0 JUMPDEST DUP3 DUP2 LT ISZERO PUSH2 0x1250 JUMPI DUP5 DUP10 ADD MLOAD DUP3 SSTORE PUSH1 0x1 DUP3 ADD SWAP2 POP PUSH1 0x20 DUP6 ADD SWAP5 POP PUSH1 0x20 DUP2 ADD SWAP1 POP PUSH2 0x122B JUMP JUMPDEST DUP7 DUP4 LT ISZERO PUSH2 0x126D JUMPI DUP5 DUP10 ADD MLOAD PUSH2 0x1269 PUSH1 0x1F DUP10 AND DUP3 PUSH2 0x1176 JUMP JUMPDEST DUP4 SSTORE POP JUMPDEST PUSH1 0x1 PUSH1 0x2 DUP9 MUL ADD DUP9 SSTORE POP POP POP JUMPDEST POP POP POP POP POP POP JUMP JUMPDEST PUSH1 0x0 PUSH2 0x128D DUP3 PUSH2 0x8BD JUMP JUMPDEST SWAP2 POP PUSH2 0x1298 DUP4 PUSH2 0x8BD JUMP JUMPDEST SWAP3 POP DUP3 DUP3 SUB SWAP1 POP DUP2 DUP2 GT ISZERO PUSH2 0x12B0 JUMPI PUSH2 0x12AF PUSH2 0xEF9 JUMP JUMPDEST JUMPDEST SWAP3 SWAP2 POP POP JUMP JUMPDEST PUSH32 0x596F75722063757272656E742062616C616E6365206973203000000000000000 PUSH1 0x0 DUP3 ADD MSTORE POP JUMP JUMPDEST PUSH1 0x0 PUSH2 0x12EC PUSH1 0x19 DUP4 PUSH2 0xDBC JUMP JUMPDEST SWAP2 POP PUSH2 0x12F7 DUP3 PUSH2 0x12B6 JUMP JUMPDEST PUSH1 0x20 DUP3 ADD SWAP1 POP SWAP2 SWAP1 POP JUMP JUMPDEST PUSH1 0x0 PUSH1 0x20 DUP3 ADD SWAP1 POP DUP2 DUP2 SUB PUSH1 0x0 DUP4 ADD MSTORE PUSH2 0x131B DUP2 PUSH2 0x12DF JUMP JUMPDEST SWAP1 POP SWAP2 SWAP1 POP JUMP JUMPDEST PUSH1 0x0 DUP2 SWAP1 POP SWAP3 SWAP2 POP POP JUMP JUMPDEST POP JUMP JUMPDEST PUSH1 0x0 PUSH2 0x133D PUSH1 0x0 DUP4 PUSH2 0x1322 JUMP JUMPDEST SWAP2 POP PUSH2 0x1348 DUP3 PUSH2 0x132D JUMP JUMPDEST PUSH1 0x0 DUP3 ADD SWAP1 POP SWAP2 SWAP1 POP JUMP JUMPDEST PUSH1 0x0 PUSH2 0x135E DUP3 PUSH2 0x1330 JUMP JUMPDEST SWAP2 POP DUP2 SWAP1 POP SWAP2 SWAP1 POP JUMP INVALID LOG2 PUSH5 0x6970667358 0x22 SLT KECCAK256 0x26 0xCB 0xC8 CALL CREATE2 CALLDATACOPY PUSH6 0x33AD2A1BAF7 DELEGATECALL 0xAB 0xD6 0xF8 0xC4 DUP10 EXTCODESIZE EXTCODEHASH PUSH12 0xBE4C3A7B05780696F14A6473 PUSH16 0x6C634300081100330000000000000000 "
				},
				"gasEstimates": {
					"creation": {
						"codeDepositCost": "1004400",
						"executionCost": "11053",
						"totalCost": "1015453"
					},
					"external": {
						"balances(address)": "2859",
						"balances_getter(address)": "2885",
						"donate(address,string,string)": "infinite",
						"donationsMap(address,uint256)": "infinite",
						"donations_getter(address)": "infinite",
						"getBalance()": "2943",
						"withdraw()": "infinite"
					}
				},
				"methodIdentifiers": {
					"balances(address)": "27e235e3",
					"balances_getter(address)": "a4664aff",
					"donate(address,string,string)": "1280db73",
					"donationsMap(address,uint256)": "bf773d6e",
					"donations_getter(address)": "6d73c365",
					"getBalance()": "12065fe0",
					"withdraw()": "3ccfd60b"
				}
			},
			"storageLayout": {
				"storage": [
					{
						"astId": 15,
						"contract": "don-correction.sol:don",
						"label": "amount",
						"offset": 0,
						"slot": "0",
						"type": "t_uint256"
					},
					{
						"astId": 18,
						"contract": "don-correction.sol:don",
						"label": "id",
						"offset": 0,
						"slot": "1",
						"type": "t_uint256"
					},
					{
						"astId": 22,
						"contract": "don-correction.sol:don",
						"label": "balances",
						"offset": 0,
						"slot": "2",
						"type": "t_mapping(t_address,t_uint256)"
					},
					{
						"astId": 28,
						"contract": "don-correction.sol:don",
						"label": "donationsMap",
						"offset": 0,
						"slot": "3",
						"type": "t_mapping(t_address,t_array(t_struct(Donation)12_storage)dyn_storage)"
					}
				],
				"types": {
					"t_address": {
						"encoding": "inplace",
						"label": "address",
						"numberOfBytes": "20"
					},
					"t_array(t_struct(Donation)12_storage)dyn_storage": {
						"base": "t_struct(Donation)12_storage",
						"encoding": "dynamic_array",
						"label": "struct don.Donation[]",
						"numberOfBytes": "32"
					},
					"t_mapping(t_address,t_array(t_struct(Donation)12_storage)dyn_storage)": {
						"encoding": "mapping",
						"key": "t_address",
						"label": "mapping(address => struct don.Donation[])",
						"numberOfBytes": "32",
						"value": "t_array(t_struct(Donation)12_storage)dyn_storage"
					},
					"t_mapping(t_address,t_uint256)": {
						"encoding": "mapping",
						"key": "t_address",
						"label": "mapping(address => uint256)",
						"numberOfBytes": "32",
						"value": "t_uint256"
					},
					"t_string_storage": {
						"encoding": "bytes",
						"label": "string",
						"numberOfBytes": "32"
					},
					"t_struct(Donation)12_storage": {
						"encoding": "inplace",
						"label": "struct don.Donation",
						"members": [
							{
								"astId": 3,
								"contract": "don-correction.sol:don",
								"label": "id",
								"offset": 0,
								"slot": "0",
								"type": "t_uint256"
							},
							{
								"astId": 5,
								"contract": "don-correction.sol:don",
								"label": "amount",
								"offset": 0,
								"slot": "1",
								"type": "t_uint256"
							},
							{
								"astId": 7,
								"contract": "don-correction.sol:don",
								"label": "donor",
								"offset": 0,
								"slot": "2",
								"type": "t_string_storage"
							},
							{
								"astId": 9,
								"contract": "don-correction.sol:don",
								"label": "message",
								"offset": 0,
								"slot": "3",
								"type": "t_string_storage"
							},
							{
								"astId": 11,
								"contract": "don-correction.sol:don",
								"label": "timestamp",
								"offset": 0,
								"slot": "4",
								"type": "t_uint256"
							}
						],
						"numberOfBytes": "160"
					},
					"t_uint256": {
						"encoding": "inplace",
						"label": "uint256",
						"numberOfBytes": "32"
					}
				}
			},
			"userdoc": {
				"kind": "user",
				"methods": {},
				"version": 1
			}
		}
	}
}