{
	"Errors.sol": {
		"Errors": {
			"abi": [
				{
					"inputs": [
						{
							"internalType": "uint256",
							"name": "fonds",
							"type": "uint256"
						},
						{
							"internalType": "uint256",
							"name": "qtteSouhaitee",
							"type": "uint256"
						}
					],
					"name": "FondsInsuffisants",
					"type": "error"
				},
				{
					"inputs": [],
					"name": "TestAssert",
					"outputs": [],
					"stateMutability": "view",
					"type": "function"
				},
				{
					"inputs": [
						{
							"internalType": "uint256",
							"name": "qtte",
							"type": "uint256"
						}
					],
					"name": "TestCustomError",
					"outputs": [],
					"stateMutability": "view",
					"type": "function"
				},
				{
					"inputs": [
						{
							"internalType": "uint256",
							"name": "i",
							"type": "uint256"
						}
					],
					"name": "TestRequire",
					"outputs": [],
					"stateMutability": "pure",
					"type": "function"
				},
				{
					"inputs": [
						{
							"internalType": "uint256",
							"name": "i",
							"type": "uint256"
						}
					],
					"name": "TestRevert",
					"outputs": [],
					"stateMutability": "pure",
					"type": "function"
				},
				{
					"inputs": [],
					"name": "num",
					"outputs": [
						{
							"internalType": "uint256",
							"name": "",
							"type": "uint256"
						}
					],
					"stateMutability": "view",
					"type": "function"
				}
			],
			"devdoc": {
				"kind": "dev",
				"methods": {},
				"version": 1
			},
			"evm": {
				"assembly": "    /* \"Errors.sol\":138:827  contract Errors {... */\n  mstore(0x40, 0x80)\n  callvalue\n  dup1\n  iszero\n  tag_1\n  jumpi\n  0x00\n  dup1\n  revert\ntag_1:\n  pop\n  dataSize(sub_0)\n  dup1\n  dataOffset(sub_0)\n  0x00\n  codecopy\n  0x00\n  return\nstop\n\nsub_0: assembly {\n        /* \"Errors.sol\":138:827  contract Errors {... */\n      mstore(0x40, 0x80)\n      callvalue\n      dup1\n      iszero\n      tag_1\n      jumpi\n      0x00\n      dup1\n      revert\n    tag_1:\n      pop\n      jumpi(tag_2, lt(calldatasize, 0x04))\n      shr(0xe0, calldataload(0x00))\n      dup1\n      0x11aba007\n      eq\n      tag_3\n      jumpi\n      dup1\n      0x4e70b1dc\n      eq\n      tag_4\n      jumpi\n      dup1\n      0x6183bf9c\n      eq\n      tag_5\n      jumpi\n      dup1\n      0x8750b2c2\n      eq\n      tag_6\n      jumpi\n      dup1\n      0x9d94c040\n      eq\n      tag_7\n      jumpi\n    tag_2:\n      0x00\n      dup1\n      revert\n        /* \"Errors.sol\":205:307  function TestRequire(uint i) public pure{... */\n    tag_3:\n      tag_8\n      0x04\n      dup1\n      calldatasize\n      sub\n      dup2\n      add\n      swap1\n      tag_9\n      swap2\n      swap1\n      tag_10\n      jump\t// in\n    tag_9:\n      tag_11\n      jump\t// in\n    tag_8:\n      stop\n        /* \"Errors.sol\":449:464  uint public num */\n    tag_4:\n      tag_12\n      tag_13\n      jump\t// in\n    tag_12:\n      mload(0x40)\n      tag_14\n      swap2\n      swap1\n      tag_15\n      jump\t// in\n    tag_14:\n      mload(0x40)\n      dup1\n      swap2\n      sub\n      swap1\n      return\n        /* \"Errors.sol\":471:538  function TestAssert() public view {... */\n    tag_5:\n      tag_16\n      tag_17\n      jump\t// in\n    tag_16:\n      stop\n        /* \"Errors.sol\":313:443  function TestRevert(uint i) public pure {... */\n    tag_6:\n      tag_18\n      0x04\n      dup1\n      calldatasize\n      sub\n      dup2\n      add\n      swap1\n      tag_19\n      swap2\n      swap1\n      tag_10\n      jump\t// in\n    tag_19:\n      tag_20\n      jump\t// in\n    tag_18:\n      stop\n        /* \"Errors.sol\":606:824  function TestCustomError(uint qtte) public view {... */\n    tag_7:\n      tag_21\n      0x04\n      dup1\n      calldatasize\n      sub\n      dup2\n      add\n      swap1\n      tag_22\n      swap2\n      swap1\n      tag_10\n      jump\t// in\n    tag_22:\n      tag_23\n      jump\t// in\n    tag_21:\n      stop\n        /* \"Errors.sol\":205:307  function TestRequire(uint i) public pure{... */\n    tag_11:\n        /* \"Errors.sol\":267:269  10 */\n      0x0a\n        /* \"Errors.sol\":263:264  i */\n      dup2\n        /* \"Errors.sol\":263:269  i > 10 */\n      gt\n        /* \"Errors.sol\":255:300  require(i > 10, \"i doit etre superieur a 10\") */\n      tag_25\n      jumpi\n      mload(0x40)\n      0x08c379a000000000000000000000000000000000000000000000000000000000\n      dup2\n      mstore\n      0x04\n      add\n      tag_26\n      swap1\n      tag_27\n      jump\t// in\n    tag_26:\n      mload(0x40)\n      dup1\n      swap2\n      sub\n      swap1\n      revert\n    tag_25:\n        /* \"Errors.sol\":205:307  function TestRequire(uint i) public pure{... */\n      pop\n      jump\t// out\n        /* \"Errors.sol\":449:464  uint public num */\n    tag_13:\n      sload(0x00)\n      dup2\n      jump\t// out\n        /* \"Errors.sol\":471:538  function TestAssert() public view {... */\n    tag_17:\n        /* \"Errors.sol\":529:530  0 */\n      0x00\n        /* \"Errors.sol\":522:525  num */\n      dup1\n      sload\n        /* \"Errors.sol\":522:530  num == 0 */\n      eq\n        /* \"Errors.sol\":515:531  assert(num == 0) */\n      tag_29\n      jumpi\n      tag_30\n      tag_31\n      jump\t// in\n    tag_30:\n    tag_29:\n        /* \"Errors.sol\":471:538  function TestAssert() public view {... */\n      jump\t// out\n        /* \"Errors.sol\":313:443  function TestRevert(uint i) public pure {... */\n    tag_20:\n        /* \"Errors.sol\":372:374  10 */\n      0x0a\n        /* \"Errors.sol\":367:368  i */\n      dup2\n        /* \"Errors.sol\":367:374  i <= 10 */\n      gt\n        /* \"Errors.sol\":363:437  if (i <= 10) {... */\n      tag_33\n      jumpi\n        /* \"Errors.sol\":390:426  revert(\"i doit etre superieur a 10\") */\n      mload(0x40)\n      0x08c379a000000000000000000000000000000000000000000000000000000000\n      dup2\n      mstore\n      0x04\n      add\n      tag_34\n      swap1\n      tag_27\n      jump\t// in\n    tag_34:\n      mload(0x40)\n      dup1\n      swap2\n      sub\n      swap1\n      revert\n        /* \"Errors.sol\":363:437  if (i <= 10) {... */\n    tag_33:\n        /* \"Errors.sol\":313:443  function TestRevert(uint i) public pure {... */\n      pop\n      jump\t// out\n        /* \"Errors.sol\":606:824  function TestCustomError(uint qtte) public view {... */\n    tag_23:\n        /* \"Errors.sol\":664:676  uint balance */\n      0x00\n        /* \"Errors.sol\":679:700  address(this).balance */\n      selfbalance\n        /* \"Errors.sol\":664:700  uint balance = address(this).balance */\n      swap1\n      pop\n        /* \"Errors.sol\":724:728  qtte */\n      dup2\n        /* \"Errors.sol\":714:721  balance */\n      dup2\n        /* \"Errors.sol\":714:728  balance < qtte */\n      lt\n        /* \"Errors.sol\":710:818  if (balance < qtte) {... */\n      iszero\n      tag_36\n      jumpi\n        /* \"Errors.sol\":777:784  balance */\n      dup1\n        /* \"Errors.sol\":801:805  qtte */\n      dup3\n        /* \"Errors.sol\":751:807  FondsInsuffisants({fonds: balance, qtteSouhaitee: qtte}) */\n      mload(0x40)\n      0xe5a2e8e700000000000000000000000000000000000000000000000000000000\n      dup2\n      mstore\n      0x04\n      add\n      tag_37\n      swap3\n      swap2\n      swap1\n      tag_38\n      jump\t// in\n    tag_37:\n      mload(0x40)\n      dup1\n      swap2\n      sub\n      swap1\n      revert\n        /* \"Errors.sol\":710:818  if (balance < qtte) {... */\n    tag_36:\n        /* \"Errors.sol\":654:824  {... */\n      pop\n        /* \"Errors.sol\":606:824  function TestCustomError(uint qtte) public view {... */\n      pop\n      jump\t// out\n        /* \"#utility.yul\":88:205   */\n    tag_40:\n        /* \"#utility.yul\":197:198   */\n      0x00\n        /* \"#utility.yul\":194:195   */\n      dup1\n        /* \"#utility.yul\":187:199   */\n      revert\n        /* \"#utility.yul\":334:411   */\n    tag_42:\n        /* \"#utility.yul\":371:378   */\n      0x00\n        /* \"#utility.yul\":400:405   */\n      dup2\n        /* \"#utility.yul\":389:405   */\n      swap1\n      pop\n        /* \"#utility.yul\":334:411   */\n      swap2\n      swap1\n      pop\n      jump\t// out\n        /* \"#utility.yul\":417:539   */\n    tag_43:\n        /* \"#utility.yul\":490:514   */\n      tag_55\n        /* \"#utility.yul\":508:513   */\n      dup2\n        /* \"#utility.yul\":490:514   */\n      tag_42\n      jump\t// in\n    tag_55:\n        /* \"#utility.yul\":483:488   */\n      dup2\n        /* \"#utility.yul\":480:515   */\n      eq\n        /* \"#utility.yul\":470:533   */\n      tag_56\n      jumpi\n        /* \"#utility.yul\":529:530   */\n      0x00\n        /* \"#utility.yul\":526:527   */\n      dup1\n        /* \"#utility.yul\":519:531   */\n      revert\n        /* \"#utility.yul\":470:533   */\n    tag_56:\n        /* \"#utility.yul\":417:539   */\n      pop\n      jump\t// out\n        /* \"#utility.yul\":545:684   */\n    tag_44:\n        /* \"#utility.yul\":591:596   */\n      0x00\n        /* \"#utility.yul\":629:635   */\n      dup2\n        /* \"#utility.yul\":616:636   */\n      calldataload\n        /* \"#utility.yul\":607:636   */\n      swap1\n      pop\n        /* \"#utility.yul\":645:678   */\n      tag_58\n        /* \"#utility.yul\":672:677   */\n      dup2\n        /* \"#utility.yul\":645:678   */\n      tag_43\n      jump\t// in\n    tag_58:\n        /* \"#utility.yul\":545:684   */\n      swap3\n      swap2\n      pop\n      pop\n      jump\t// out\n        /* \"#utility.yul\":690:1019   */\n    tag_10:\n        /* \"#utility.yul\":749:755   */\n      0x00\n        /* \"#utility.yul\":798:800   */\n      0x20\n        /* \"#utility.yul\":786:795   */\n      dup3\n        /* \"#utility.yul\":777:784   */\n      dup5\n        /* \"#utility.yul\":773:796   */\n      sub\n        /* \"#utility.yul\":769:801   */\n      slt\n        /* \"#utility.yul\":766:885   */\n      iszero\n      tag_60\n      jumpi\n        /* \"#utility.yul\":804:883   */\n      tag_61\n      tag_40\n      jump\t// in\n    tag_61:\n        /* \"#utility.yul\":766:885   */\n    tag_60:\n        /* \"#utility.yul\":924:925   */\n      0x00\n        /* \"#utility.yul\":949:1002   */\n      tag_62\n        /* \"#utility.yul\":994:1001   */\n      dup5\n        /* \"#utility.yul\":985:991   */\n      dup3\n        /* \"#utility.yul\":974:983   */\n      dup6\n        /* \"#utility.yul\":970:992   */\n      add\n        /* \"#utility.yul\":949:1002   */\n      tag_44\n      jump\t// in\n    tag_62:\n        /* \"#utility.yul\":939:1002   */\n      swap2\n      pop\n        /* \"#utility.yul\":895:1012   */\n      pop\n        /* \"#utility.yul\":690:1019   */\n      swap3\n      swap2\n      pop\n      pop\n      jump\t// out\n        /* \"#utility.yul\":1025:1143   */\n    tag_45:\n        /* \"#utility.yul\":1112:1136   */\n      tag_64\n        /* \"#utility.yul\":1130:1135   */\n      dup2\n        /* \"#utility.yul\":1112:1136   */\n      tag_42\n      jump\t// in\n    tag_64:\n        /* \"#utility.yul\":1107:1110   */\n      dup3\n        /* \"#utility.yul\":1100:1137   */\n      mstore\n        /* \"#utility.yul\":1025:1143   */\n      pop\n      pop\n      jump\t// out\n        /* \"#utility.yul\":1149:1371   */\n    tag_15:\n        /* \"#utility.yul\":1242:1246   */\n      0x00\n        /* \"#utility.yul\":1280:1282   */\n      0x20\n        /* \"#utility.yul\":1269:1278   */\n      dup3\n        /* \"#utility.yul\":1265:1283   */\n      add\n        /* \"#utility.yul\":1257:1283   */\n      swap1\n      pop\n        /* \"#utility.yul\":1293:1364   */\n      tag_66\n        /* \"#utility.yul\":1361:1362   */\n      0x00\n        /* \"#utility.yul\":1350:1359   */\n      dup4\n        /* \"#utility.yul\":1346:1363   */\n      add\n        /* \"#utility.yul\":1337:1343   */\n      dup5\n        /* \"#utility.yul\":1293:1364   */\n      tag_45\n      jump\t// in\n    tag_66:\n        /* \"#utility.yul\":1149:1371   */\n      swap3\n      swap2\n      pop\n      pop\n      jump\t// out\n        /* \"#utility.yul\":1377:1546   */\n    tag_46:\n        /* \"#utility.yul\":1461:1472   */\n      0x00\n        /* \"#utility.yul\":1495:1501   */\n      dup3\n        /* \"#utility.yul\":1490:1493   */\n      dup3\n        /* \"#utility.yul\":1483:1502   */\n      mstore\n        /* \"#utility.yul\":1535:1539   */\n      0x20\n        /* \"#utility.yul\":1530:1533   */\n      dup3\n        /* \"#utility.yul\":1526:1540   */\n      add\n        /* \"#utility.yul\":1511:1540   */\n      swap1\n      pop\n        /* \"#utility.yul\":1377:1546   */\n      swap3\n      swap2\n      pop\n      pop\n      jump\t// out\n        /* \"#utility.yul\":1552:1728   */\n    tag_47:\n        /* \"#utility.yul\":1692:1720   */\n      0x6920646f69742065747265207375706572696575722061203130000000000000\n        /* \"#utility.yul\":1688:1689   */\n      0x00\n        /* \"#utility.yul\":1680:1686   */\n      dup3\n        /* \"#utility.yul\":1676:1690   */\n      add\n        /* \"#utility.yul\":1669:1721   */\n      mstore\n        /* \"#utility.yul\":1552:1728   */\n      pop\n      jump\t// out\n        /* \"#utility.yul\":1734:2100   */\n    tag_48:\n        /* \"#utility.yul\":1876:1879   */\n      0x00\n        /* \"#utility.yul\":1897:1964   */\n      tag_70\n        /* \"#utility.yul\":1961:1963   */\n      0x1a\n        /* \"#utility.yul\":1956:1959   */\n      dup4\n        /* \"#utility.yul\":1897:1964   */\n      tag_46\n      jump\t// in\n    tag_70:\n        /* \"#utility.yul\":1890:1964   */\n      swap2\n      pop\n        /* \"#utility.yul\":1973:2066   */\n      tag_71\n        /* \"#utility.yul\":2062:2065   */\n      dup3\n        /* \"#utility.yul\":1973:2066   */\n      tag_47\n      jump\t// in\n    tag_71:\n        /* \"#utility.yul\":2091:2093   */\n      0x20\n        /* \"#utility.yul\":2086:2089   */\n      dup3\n        /* \"#utility.yul\":2082:2094   */\n      add\n        /* \"#utility.yul\":2075:2094   */\n      swap1\n      pop\n        /* \"#utility.yul\":1734:2100   */\n      swap2\n      swap1\n      pop\n      jump\t// out\n        /* \"#utility.yul\":2106:2525   */\n    tag_27:\n        /* \"#utility.yul\":2272:2276   */\n      0x00\n        /* \"#utility.yul\":2310:2312   */\n      0x20\n        /* \"#utility.yul\":2299:2308   */\n      dup3\n        /* \"#utility.yul\":2295:2313   */\n      add\n        /* \"#utility.yul\":2287:2313   */\n      swap1\n      pop\n        /* \"#utility.yul\":2359:2368   */\n      dup2\n        /* \"#utility.yul\":2353:2357   */\n      dup2\n        /* \"#utility.yul\":2349:2369   */\n      sub\n        /* \"#utility.yul\":2345:2346   */\n      0x00\n        /* \"#utility.yul\":2334:2343   */\n      dup4\n        /* \"#utility.yul\":2330:2347   */\n      add\n        /* \"#utility.yul\":2323:2370   */\n      mstore\n        /* \"#utility.yul\":2387:2518   */\n      tag_73\n        /* \"#utility.yul\":2513:2517   */\n      dup2\n        /* \"#utility.yul\":2387:2518   */\n      tag_48\n      jump\t// in\n    tag_73:\n        /* \"#utility.yul\":2379:2518   */\n      swap1\n      pop\n        /* \"#utility.yul\":2106:2525   */\n      swap2\n      swap1\n      pop\n      jump\t// out\n        /* \"#utility.yul\":2531:2711   */\n    tag_31:\n        /* \"#utility.yul\":2579:2656   */\n      0x4e487b7100000000000000000000000000000000000000000000000000000000\n        /* \"#utility.yul\":2576:2577   */\n      0x00\n        /* \"#utility.yul\":2569:2657   */\n      mstore\n        /* \"#utility.yul\":2676:2680   */\n      0x01\n        /* \"#utility.yul\":2673:2674   */\n      0x04\n        /* \"#utility.yul\":2666:2681   */\n      mstore\n        /* \"#utility.yul\":2700:2704   */\n      0x24\n        /* \"#utility.yul\":2697:2698   */\n      0x00\n        /* \"#utility.yul\":2690:2705   */\n      revert\n        /* \"#utility.yul\":2717:3049   */\n    tag_38:\n        /* \"#utility.yul\":2838:2842   */\n      0x00\n        /* \"#utility.yul\":2876:2878   */\n      0x40\n        /* \"#utility.yul\":2865:2874   */\n      dup3\n        /* \"#utility.yul\":2861:2879   */\n      add\n        /* \"#utility.yul\":2853:2879   */\n      swap1\n      pop\n        /* \"#utility.yul\":2889:2960   */\n      tag_76\n        /* \"#utility.yul\":2957:2958   */\n      0x00\n        /* \"#utility.yul\":2946:2955   */\n      dup4\n        /* \"#utility.yul\":2942:2959   */\n      add\n        /* \"#utility.yul\":2933:2939   */\n      dup6\n        /* \"#utility.yul\":2889:2960   */\n      tag_45\n      jump\t// in\n    tag_76:\n        /* \"#utility.yul\":2970:3042   */\n      tag_77\n        /* \"#utility.yul\":3038:3040   */\n      0x20\n        /* \"#utility.yul\":3027:3036   */\n      dup4\n        /* \"#utility.yul\":3023:3041   */\n      add\n        /* \"#utility.yul\":3014:3020   */\n      dup5\n        /* \"#utility.yul\":2970:3042   */\n      tag_45\n      jump\t// in\n    tag_77:\n        /* \"#utility.yul\":2717:3049   */\n      swap4\n      swap3\n      pop\n      pop\n      pop\n      jump\t// out\n\n    auxdata: 0xa2646970667358221220e535a1f8c8b56e49799725396a11f08c05181bbb3790f421bac1ae0d3d649cf464736f6c63430008110033\n}\n",
				"bytecode": {
					"linkReferences": {},
					"object": "608060405234801561001057600080fd5b5061036b806100206000396000f3fe608060405234801561001057600080fd5b50600436106100575760003560e01c806311aba0071461005c5780634e70b1dc146100785780636183bf9c146100965780638750b2c2146100a05780639d94c040146100bc575b600080fd5b61007660048036038101906100719190610209565b6100d8565b005b61008061011e565b60405161008d9190610245565b60405180910390f35b61009e610124565b005b6100ba60048036038101906100b59190610209565b610138565b005b6100d660048036038101906100d19190610209565b61017e565b005b600a811161011b576040517f08c379a0000000000000000000000000000000000000000000000000000000008152600401610112906102bd565b60405180910390fd5b50565b60005481565b6000805414610136576101356102dd565b5b565b600a811161017b576040517f08c379a0000000000000000000000000000000000000000000000000000000008152600401610172906102bd565b60405180910390fd5b50565b6000479050818110156101ca5780826040517fe5a2e8e70000000000000000000000000000000000000000000000000000000081526004016101c192919061030c565b60405180910390fd5b5050565b600080fd5b6000819050919050565b6101e6816101d3565b81146101f157600080fd5b50565b600081359050610203816101dd565b92915050565b60006020828403121561021f5761021e6101ce565b5b600061022d848285016101f4565b91505092915050565b61023f816101d3565b82525050565b600060208201905061025a6000830184610236565b92915050565b600082825260208201905092915050565b7f6920646f69742065747265207375706572696575722061203130000000000000600082015250565b60006102a7601a83610260565b91506102b282610271565b602082019050919050565b600060208201905081810360008301526102d68161029a565b9050919050565b7f4e487b7100000000000000000000000000000000000000000000000000000000600052600160045260246000fd5b60006040820190506103216000830185610236565b61032e6020830184610236565b939250505056fea2646970667358221220e535a1f8c8b56e49799725396a11f08c05181bbb3790f421bac1ae0d3d649cf464736f6c63430008110033",
					"opcodes": "PUSH1 0x80 PUSH1 0x40 MSTORE CALLVALUE DUP1 ISZERO PUSH2 0x10 JUMPI PUSH1 0x0 DUP1 REVERT JUMPDEST POP PUSH2 0x36B DUP1 PUSH2 0x20 PUSH1 0x0 CODECOPY PUSH1 0x0 RETURN INVALID PUSH1 0x80 PUSH1 0x40 MSTORE CALLVALUE DUP1 ISZERO PUSH2 0x10 JUMPI PUSH1 0x0 DUP1 REVERT JUMPDEST POP PUSH1 0x4 CALLDATASIZE LT PUSH2 0x57 JUMPI PUSH1 0x0 CALLDATALOAD PUSH1 0xE0 SHR DUP1 PUSH4 0x11ABA007 EQ PUSH2 0x5C JUMPI DUP1 PUSH4 0x4E70B1DC EQ PUSH2 0x78 JUMPI DUP1 PUSH4 0x6183BF9C EQ PUSH2 0x96 JUMPI DUP1 PUSH4 0x8750B2C2 EQ PUSH2 0xA0 JUMPI DUP1 PUSH4 0x9D94C040 EQ PUSH2 0xBC JUMPI JUMPDEST PUSH1 0x0 DUP1 REVERT JUMPDEST PUSH2 0x76 PUSH1 0x4 DUP1 CALLDATASIZE SUB DUP2 ADD SWAP1 PUSH2 0x71 SWAP2 SWAP1 PUSH2 0x209 JUMP JUMPDEST PUSH2 0xD8 JUMP JUMPDEST STOP JUMPDEST PUSH2 0x80 PUSH2 0x11E JUMP JUMPDEST PUSH1 0x40 MLOAD PUSH2 0x8D SWAP2 SWAP1 PUSH2 0x245 JUMP JUMPDEST PUSH1 0x40 MLOAD DUP1 SWAP2 SUB SWAP1 RETURN JUMPDEST PUSH2 0x9E PUSH2 0x124 JUMP JUMPDEST STOP JUMPDEST PUSH2 0xBA PUSH1 0x4 DUP1 CALLDATASIZE SUB DUP2 ADD SWAP1 PUSH2 0xB5 SWAP2 SWAP1 PUSH2 0x209 JUMP JUMPDEST PUSH2 0x138 JUMP JUMPDEST STOP JUMPDEST PUSH2 0xD6 PUSH1 0x4 DUP1 CALLDATASIZE SUB DUP2 ADD SWAP1 PUSH2 0xD1 SWAP2 SWAP1 PUSH2 0x209 JUMP JUMPDEST PUSH2 0x17E JUMP JUMPDEST STOP JUMPDEST PUSH1 0xA DUP2 GT PUSH2 0x11B JUMPI PUSH1 0x40 MLOAD PUSH32 0x8C379A000000000000000000000000000000000000000000000000000000000 DUP2 MSTORE PUSH1 0x4 ADD PUSH2 0x112 SWAP1 PUSH2 0x2BD JUMP JUMPDEST PUSH1 0x40 MLOAD DUP1 SWAP2 SUB SWAP1 REVERT JUMPDEST POP JUMP JUMPDEST PUSH1 0x0 SLOAD DUP2 JUMP JUMPDEST PUSH1 0x0 DUP1 SLOAD EQ PUSH2 0x136 JUMPI PUSH2 0x135 PUSH2 0x2DD JUMP JUMPDEST JUMPDEST JUMP JUMPDEST PUSH1 0xA DUP2 GT PUSH2 0x17B JUMPI PUSH1 0x40 MLOAD PUSH32 0x8C379A000000000000000000000000000000000000000000000000000000000 DUP2 MSTORE PUSH1 0x4 ADD PUSH2 0x172 SWAP1 PUSH2 0x2BD JUMP JUMPDEST PUSH1 0x40 MLOAD DUP1 SWAP2 SUB SWAP1 REVERT JUMPDEST POP JUMP JUMPDEST PUSH1 0x0 SELFBALANCE SWAP1 POP DUP2 DUP2 LT ISZERO PUSH2 0x1CA JUMPI DUP1 DUP3 PUSH1 0x40 MLOAD PUSH32 0xE5A2E8E700000000000000000000000000000000000000000000000000000000 DUP2 MSTORE PUSH1 0x4 ADD PUSH2 0x1C1 SWAP3 SWAP2 SWAP1 PUSH2 0x30C JUMP JUMPDEST PUSH1 0x40 MLOAD DUP1 SWAP2 SUB SWAP1 REVERT JUMPDEST POP POP JUMP JUMPDEST PUSH1 0x0 DUP1 REVERT JUMPDEST PUSH1 0x0 DUP2 SWAP1 POP SWAP2 SWAP1 POP JUMP JUMPDEST PUSH2 0x1E6 DUP2 PUSH2 0x1D3 JUMP JUMPDEST DUP2 EQ PUSH2 0x1F1 JUMPI PUSH1 0x0 DUP1 REVERT JUMPDEST POP JUMP JUMPDEST PUSH1 0x0 DUP2 CALLDATALOAD SWAP1 POP PUSH2 0x203 DUP2 PUSH2 0x1DD JUMP JUMPDEST SWAP3 SWAP2 POP POP JUMP JUMPDEST PUSH1 0x0 PUSH1 0x20 DUP3 DUP5 SUB SLT ISZERO PUSH2 0x21F JUMPI PUSH2 0x21E PUSH2 0x1CE JUMP JUMPDEST JUMPDEST PUSH1 0x0 PUSH2 0x22D DUP5 DUP3 DUP6 ADD PUSH2 0x1F4 JUMP JUMPDEST SWAP2 POP POP SWAP3 SWAP2 POP POP JUMP JUMPDEST PUSH2 0x23F DUP2 PUSH2 0x1D3 JUMP JUMPDEST DUP3 MSTORE POP POP JUMP JUMPDEST PUSH1 0x0 PUSH1 0x20 DUP3 ADD SWAP1 POP PUSH2 0x25A PUSH1 0x0 DUP4 ADD DUP5 PUSH2 0x236 JUMP JUMPDEST SWAP3 SWAP2 POP POP JUMP JUMPDEST PUSH1 0x0 DUP3 DUP3 MSTORE PUSH1 0x20 DUP3 ADD SWAP1 POP SWAP3 SWAP2 POP POP JUMP JUMPDEST PUSH32 0x6920646F69742065747265207375706572696575722061203130000000000000 PUSH1 0x0 DUP3 ADD MSTORE POP JUMP JUMPDEST PUSH1 0x0 PUSH2 0x2A7 PUSH1 0x1A DUP4 PUSH2 0x260 JUMP JUMPDEST SWAP2 POP PUSH2 0x2B2 DUP3 PUSH2 0x271 JUMP JUMPDEST PUSH1 0x20 DUP3 ADD SWAP1 POP SWAP2 SWAP1 POP JUMP JUMPDEST PUSH1 0x0 PUSH1 0x20 DUP3 ADD SWAP1 POP DUP2 DUP2 SUB PUSH1 0x0 DUP4 ADD MSTORE PUSH2 0x2D6 DUP2 PUSH2 0x29A JUMP JUMPDEST SWAP1 POP SWAP2 SWAP1 POP JUMP JUMPDEST PUSH32 0x4E487B7100000000000000000000000000000000000000000000000000000000 PUSH1 0x0 MSTORE PUSH1 0x1 PUSH1 0x4 MSTORE PUSH1 0x24 PUSH1 0x0 REVERT JUMPDEST PUSH1 0x0 PUSH1 0x40 DUP3 ADD SWAP1 POP PUSH2 0x321 PUSH1 0x0 DUP4 ADD DUP6 PUSH2 0x236 JUMP JUMPDEST PUSH2 0x32E PUSH1 0x20 DUP4 ADD DUP5 PUSH2 0x236 JUMP JUMPDEST SWAP4 SWAP3 POP POP POP JUMP INVALID LOG2 PUSH5 0x6970667358 0x22 SLT KECCAK256 0xE5 CALLDATALOAD LOG1 0xF8 0xC8 0xB5 PUSH15 0x49799725396A11F08C05181BBB3790 DELEGATECALL 0x21 0xBA 0xC1 0xAE 0xD RETURNDATASIZE PUSH5 0x9CF464736F PUSH13 0x63430008110033000000000000 "
				},
				"gasEstimates": {
					"creation": {
						"codeDepositCost": "175000",
						"executionCost": "220",
						"totalCost": "175220"
					},
					"external": {
						"TestAssert()": "2318",
						"TestCustomError(uint256)": "infinite",
						"TestRequire(uint256)": "694",
						"TestRevert(uint256)": "760",
						"num()": "2429"
					}
				},
				"methodIdentifiers": {
					"TestAssert()": "6183bf9c",
					"TestCustomError(uint256)": "9d94c040",
					"TestRequire(uint256)": "11aba007",
					"TestRevert(uint256)": "8750b2c2",
					"num()": "4e70b1dc"
				}
			},
			"storageLayout": {
				"storage": [
					{
						"astId": 31,
						"contract": "Errors.sol:Errors",
						"label": "num",
						"offset": 0,
						"slot": "0",
						"type": "t_uint256"
					}
				],
				"types": {
					"t_uint256": {
						"encoding": "inplace",
						"label": "uint256",
						"numberOfBytes": "32"
					}
				}
			},
			"userdoc": {
				"kind": "user",
				"methods": {},
				"version": 1
			}
		}
	}
}