{
	"Basics.sol": {
		"Basics": {
			"abi": [
				{
					"inputs": [
						{
							"internalType": "uint256",
							"name": "x",
							"type": "uint256"
						}
					],
					"name": "ifelse",
					"outputs": [
						{
							"internalType": "uint256",
							"name": "",
							"type": "uint256"
						}
					],
					"stateMutability": "view",
					"type": "function"
				},
				{
					"inputs": [],
					"name": "loop",
					"outputs": [],
					"stateMutability": "pure",
					"type": "function"
				},
				{
					"inputs": [
						{
							"internalType": "uint256",
							"name": "x",
							"type": "uint256"
						}
					],
					"name": "ternary",
					"outputs": [
						{
							"internalType": "uint256",
							"name": "",
							"type": "uint256"
						}
					],
					"stateMutability": "pure",
					"type": "function"
				},
				{
					"inputs": [],
					"name": "y",
					"outputs": [
						{
							"internalType": "uint256",
							"name": "",
							"type": "uint256"
						}
					],
					"stateMutability": "view",
					"type": "function"
				}
			],
			"devdoc": {
				"kind": "dev",
				"methods": {},
				"version": 1
			},
			"evm": {
				"assembly": "    /* \"Basics.sol\":138:715  contract Basics {... */\n  mstore(0x40, 0x80)\n    /* \"Basics.sol\":177:179  30 */\n  0x1e\n    /* \"Basics.sol\":161:179  uint public y = 30 */\n  0x00\n  sstore\n    /* \"Basics.sol\":138:715  contract Basics {... */\n  callvalue\n  dup1\n  iszero\n  tag_1\n  jumpi\n  0x00\n  dup1\n  revert\ntag_1:\n  pop\n  dataSize(sub_0)\n  dup1\n  dataOffset(sub_0)\n  0x00\n  codecopy\n  0x00\n  return\nstop\n\nsub_0: assembly {\n        /* \"Basics.sol\":138:715  contract Basics {... */\n      mstore(0x40, 0x80)\n      callvalue\n      dup1\n      iszero\n      tag_1\n      jumpi\n      0x00\n      dup1\n      revert\n    tag_1:\n      pop\n      jumpi(tag_2, lt(calldatasize, 0x04))\n      shr(0xe0, calldataload(0x00))\n      dup1\n      0x55278c5b\n      eq\n      tag_3\n      jumpi\n      dup1\n      0x65109810\n      eq\n      tag_4\n      jumpi\n      dup1\n      0xa56dfe4a\n      eq\n      tag_5\n      jumpi\n      dup1\n      0xa92100cb\n      eq\n      tag_6\n      jumpi\n    tag_2:\n      0x00\n      dup1\n      revert\n        /* \"Basics.sol\":395:485  function ternary(uint x) public pure returns (uint) {... */\n    tag_3:\n      tag_7\n      0x04\n      dup1\n      calldatasize\n      sub\n      dup2\n      add\n      swap1\n      tag_8\n      swap2\n      swap1\n      tag_9\n      jump\t// in\n    tag_8:\n      tag_10\n      jump\t// in\n    tag_7:\n      mload(0x40)\n      tag_11\n      swap2\n      swap1\n      tag_12\n      jump\t// in\n    tag_11:\n      mload(0x40)\n      dup1\n      swap2\n      sub\n      swap1\n      return\n        /* \"Basics.sol\":186:388  function ifelse(uint x) public view returns (uint) {... */\n    tag_4:\n      tag_13\n      0x04\n      dup1\n      calldatasize\n      sub\n      dup2\n      add\n      swap1\n      tag_14\n      swap2\n      swap1\n      tag_9\n      jump\t// in\n    tag_14:\n      tag_15\n      jump\t// in\n    tag_13:\n      mload(0x40)\n      tag_16\n      swap2\n      swap1\n      tag_12\n      jump\t// in\n    tag_16:\n      mload(0x40)\n      dup1\n      swap2\n      sub\n      swap1\n      return\n        /* \"Basics.sol\":161:179  uint public y = 30 */\n    tag_5:\n      tag_17\n      tag_18\n      jump\t// in\n    tag_17:\n      mload(0x40)\n      tag_19\n      swap2\n      swap1\n      tag_12\n      jump\t// in\n    tag_19:\n      mload(0x40)\n      dup1\n      swap2\n      sub\n      swap1\n      return\n        /* \"Basics.sol\":491:708  function loop () public pure {... */\n    tag_6:\n      tag_20\n      tag_21\n      jump\t// in\n    tag_20:\n      stop\n        /* \"Basics.sol\":395:485  function ternary(uint x) public pure returns (uint) {... */\n    tag_10:\n        /* \"Basics.sol\":441:445  uint */\n      0x00\n        /* \"Basics.sol\":467:469  10 */\n      0x0a\n        /* \"Basics.sol\":465:466  x */\n      dup3\n        /* \"Basics.sol\":465:469  x<10 */\n      lt\n        /* \"Basics.sol\":464:478  (x<10) ? 1 : 2 */\n      tag_23\n      jumpi\n        /* \"Basics.sol\":477:478  2 */\n      0x02\n        /* \"Basics.sol\":464:478  (x<10) ? 1 : 2 */\n      jump(tag_24)\n    tag_23:\n        /* \"Basics.sol\":473:474  1 */\n      0x01\n        /* \"Basics.sol\":464:478  (x<10) ? 1 : 2 */\n    tag_24:\n        /* \"Basics.sol\":457:478  return (x<10) ? 1 : 2 */\n      0xff\n      and\n      swap1\n      pop\n        /* \"Basics.sol\":395:485  function ternary(uint x) public pure returns (uint) {... */\n      swap2\n      swap1\n      pop\n      jump\t// out\n        /* \"Basics.sol\":186:388  function ifelse(uint x) public view returns (uint) {... */\n    tag_15:\n        /* \"Basics.sol\":231:235  uint */\n      0x00\n        /* \"Basics.sol\":255:257  10 */\n      0x0a\n        /* \"Basics.sol\":251:252  x */\n      dup3\n        /* \"Basics.sol\":251:257  x < 10 */\n      lt\n        /* \"Basics.sol\":247:382  if (x < 10) {... */\n      iszero\n      tag_26\n      jumpi\n        /* \"Basics.sol\":280:281  0 */\n      0x00\n        /* \"Basics.sol\":273:281  return 0 */\n      swap1\n      pop\n      jump(tag_25)\n        /* \"Basics.sol\":247:382  if (x < 10) {... */\n    tag_26:\n        /* \"Basics.sol\":306:308  20 */\n      0x14\n        /* \"Basics.sol\":302:303  x */\n      dup3\n        /* \"Basics.sol\":302:308  x < 20 */\n      lt\n        /* \"Basics.sol\":298:382  if (x < 20) {... */\n      iszero\n      tag_28\n      jumpi\n        /* \"Basics.sol\":331:332  1 */\n      0x01\n        /* \"Basics.sol\":324:332  return 1 */\n      swap1\n      pop\n      jump(tag_25)\n        /* \"Basics.sol\":298:382  if (x < 20) {... */\n    tag_28:\n        /* \"Basics.sol\":370:371  2 */\n      0x02\n        /* \"Basics.sol\":363:371  return 2 */\n      swap1\n      pop\n        /* \"Basics.sol\":186:388  function ifelse(uint x) public view returns (uint) {... */\n    tag_25:\n      swap2\n      swap1\n      pop\n      jump\t// out\n        /* \"Basics.sol\":161:179  uint public y = 30 */\n    tag_18:\n      sload(0x00)\n      dup2\n      jump\t// out\n        /* \"Basics.sol\":491:708  function loop () public pure {... */\n    tag_21:\n        /* \"Basics.sol\":535:541  uint i */\n      0x00\n        /* \"Basics.sol\":530:634  for (uint i = 0; i < 10; i++) {... */\n    tag_31:\n        /* \"Basics.sol\":551:553  10 */\n      0x0a\n        /* \"Basics.sol\":547:548  i */\n      dup2\n        /* \"Basics.sol\":547:553  i < 10 */\n      lt\n        /* \"Basics.sol\":530:634  for (uint i = 0; i < 10; i++) {... */\n      iszero\n      tag_32\n      jumpi\n        /* \"Basics.sol\":555:558  i++ */\n      dup1\n      dup1\n      tag_36\n      swap1\n      tag_37\n      jump\t// in\n    tag_36:\n      swap2\n      pop\n      pop\n        /* \"Basics.sol\":530:634  for (uint i = 0; i < 10; i++) {... */\n      jump(tag_31)\n    tag_32:\n      pop\n        /* \"Basics.sol\":644:650  uint j */\n      0x00\n        /* \"Basics.sol\":660:702  while (j< 10) {... */\n    tag_38:\n        /* \"Basics.sol\":670:672  10 */\n      0x0a\n        /* \"Basics.sol\":667:668  j */\n      dup2\n        /* \"Basics.sol\":667:672  j< 10 */\n      lt\n        /* \"Basics.sol\":660:702  while (j< 10) {... */\n      iszero\n      tag_39\n      jumpi\n        /* \"Basics.sol\":688:691  j++ */\n      dup1\n      dup1\n      tag_40\n      swap1\n      tag_37\n      jump\t// in\n    tag_40:\n      swap2\n      pop\n      pop\n        /* \"Basics.sol\":660:702  while (j< 10) {... */\n      jump(tag_38)\n    tag_39:\n        /* \"Basics.sol\":520:708  {... */\n      pop\n        /* \"Basics.sol\":491:708  function loop () public pure {... */\n      jump\t// out\n        /* \"#utility.yul\":88:205   */\n    tag_42:\n        /* \"#utility.yul\":197:198   */\n      0x00\n        /* \"#utility.yul\":194:195   */\n      dup1\n        /* \"#utility.yul\":187:199   */\n      revert\n        /* \"#utility.yul\":334:411   */\n    tag_44:\n        /* \"#utility.yul\":371:378   */\n      0x00\n        /* \"#utility.yul\":400:405   */\n      dup2\n        /* \"#utility.yul\":389:405   */\n      swap1\n      pop\n        /* \"#utility.yul\":334:411   */\n      swap2\n      swap1\n      pop\n      jump\t// out\n        /* \"#utility.yul\":417:539   */\n    tag_45:\n        /* \"#utility.yul\":490:514   */\n      tag_55\n        /* \"#utility.yul\":508:513   */\n      dup2\n        /* \"#utility.yul\":490:514   */\n      tag_44\n      jump\t// in\n    tag_55:\n        /* \"#utility.yul\":483:488   */\n      dup2\n        /* \"#utility.yul\":480:515   */\n      eq\n        /* \"#utility.yul\":470:533   */\n      tag_56\n      jumpi\n        /* \"#utility.yul\":529:530   */\n      0x00\n        /* \"#utility.yul\":526:527   */\n      dup1\n        /* \"#utility.yul\":519:531   */\n      revert\n        /* \"#utility.yul\":470:533   */\n    tag_56:\n        /* \"#utility.yul\":417:539   */\n      pop\n      jump\t// out\n        /* \"#utility.yul\":545:684   */\n    tag_46:\n        /* \"#utility.yul\":591:596   */\n      0x00\n        /* \"#utility.yul\":629:635   */\n      dup2\n        /* \"#utility.yul\":616:636   */\n      calldataload\n        /* \"#utility.yul\":607:636   */\n      swap1\n      pop\n        /* \"#utility.yul\":645:678   */\n      tag_58\n        /* \"#utility.yul\":672:677   */\n      dup2\n        /* \"#utility.yul\":645:678   */\n      tag_45\n      jump\t// in\n    tag_58:\n        /* \"#utility.yul\":545:684   */\n      swap3\n      swap2\n      pop\n      pop\n      jump\t// out\n        /* \"#utility.yul\":690:1019   */\n    tag_9:\n        /* \"#utility.yul\":749:755   */\n      0x00\n        /* \"#utility.yul\":798:800   */\n      0x20\n        /* \"#utility.yul\":786:795   */\n      dup3\n        /* \"#utility.yul\":777:784   */\n      dup5\n        /* \"#utility.yul\":773:796   */\n      sub\n        /* \"#utility.yul\":769:801   */\n      slt\n        /* \"#utility.yul\":766:885   */\n      iszero\n      tag_60\n      jumpi\n        /* \"#utility.yul\":804:883   */\n      tag_61\n      tag_42\n      jump\t// in\n    tag_61:\n        /* \"#utility.yul\":766:885   */\n    tag_60:\n        /* \"#utility.yul\":924:925   */\n      0x00\n        /* \"#utility.yul\":949:1002   */\n      tag_62\n        /* \"#utility.yul\":994:1001   */\n      dup5\n        /* \"#utility.yul\":985:991   */\n      dup3\n        /* \"#utility.yul\":974:983   */\n      dup6\n        /* \"#utility.yul\":970:992   */\n      add\n        /* \"#utility.yul\":949:1002   */\n      tag_46\n      jump\t// in\n    tag_62:\n        /* \"#utility.yul\":939:1002   */\n      swap2\n      pop\n        /* \"#utility.yul\":895:1012   */\n      pop\n        /* \"#utility.yul\":690:1019   */\n      swap3\n      swap2\n      pop\n      pop\n      jump\t// out\n        /* \"#utility.yul\":1025:1143   */\n    tag_47:\n        /* \"#utility.yul\":1112:1136   */\n      tag_64\n        /* \"#utility.yul\":1130:1135   */\n      dup2\n        /* \"#utility.yul\":1112:1136   */\n      tag_44\n      jump\t// in\n    tag_64:\n        /* \"#utility.yul\":1107:1110   */\n      dup3\n        /* \"#utility.yul\":1100:1137   */\n      mstore\n        /* \"#utility.yul\":1025:1143   */\n      pop\n      pop\n      jump\t// out\n        /* \"#utility.yul\":1149:1371   */\n    tag_12:\n        /* \"#utility.yul\":1242:1246   */\n      0x00\n        /* \"#utility.yul\":1280:1282   */\n      0x20\n        /* \"#utility.yul\":1269:1278   */\n      dup3\n        /* \"#utility.yul\":1265:1283   */\n      add\n        /* \"#utility.yul\":1257:1283   */\n      swap1\n      pop\n        /* \"#utility.yul\":1293:1364   */\n      tag_66\n        /* \"#utility.yul\":1361:1362   */\n      0x00\n        /* \"#utility.yul\":1350:1359   */\n      dup4\n        /* \"#utility.yul\":1346:1363   */\n      add\n        /* \"#utility.yul\":1337:1343   */\n      dup5\n        /* \"#utility.yul\":1293:1364   */\n      tag_47\n      jump\t// in\n    tag_66:\n        /* \"#utility.yul\":1149:1371   */\n      swap3\n      swap2\n      pop\n      pop\n      jump\t// out\n        /* \"#utility.yul\":1377:1557   */\n    tag_48:\n        /* \"#utility.yul\":1425:1502   */\n      0x4e487b7100000000000000000000000000000000000000000000000000000000\n        /* \"#utility.yul\":1422:1423   */\n      0x00\n        /* \"#utility.yul\":1415:1503   */\n      mstore\n        /* \"#utility.yul\":1522:1526   */\n      0x11\n        /* \"#utility.yul\":1519:1520   */\n      0x04\n        /* \"#utility.yul\":1512:1527   */\n      mstore\n        /* \"#utility.yul\":1546:1550   */\n      0x24\n        /* \"#utility.yul\":1543:1544   */\n      0x00\n        /* \"#utility.yul\":1536:1551   */\n      revert\n        /* \"#utility.yul\":1563:1796   */\n    tag_37:\n        /* \"#utility.yul\":1602:1605   */\n      0x00\n        /* \"#utility.yul\":1625:1649   */\n      tag_69\n        /* \"#utility.yul\":1643:1648   */\n      dup3\n        /* \"#utility.yul\":1625:1649   */\n      tag_44\n      jump\t// in\n    tag_69:\n        /* \"#utility.yul\":1616:1649   */\n      swap2\n      pop\n        /* \"#utility.yul\":1671:1737   */\n      0xffffffffffffffffffffffffffffffffffffffffffffffffffffffffffffffff\n        /* \"#utility.yul\":1664:1669   */\n      dup3\n        /* \"#utility.yul\":1661:1738   */\n      sub\n        /* \"#utility.yul\":1658:1761   */\n      tag_70\n      jumpi\n        /* \"#utility.yul\":1741:1759   */\n      tag_71\n      tag_48\n      jump\t// in\n    tag_71:\n        /* \"#utility.yul\":1658:1761   */\n    tag_70:\n        /* \"#utility.yul\":1788:1789   */\n      0x01\n        /* \"#utility.yul\":1781:1786   */\n      dup3\n        /* \"#utility.yul\":1777:1790   */\n      add\n        /* \"#utility.yul\":1770:1790   */\n      swap1\n      pop\n        /* \"#utility.yul\":1563:1796   */\n      swap2\n      swap1\n      pop\n      jump\t// out\n\n    auxdata: 0xa26469706673582212207ba419a8057f5d452cf9b136adbd98d0c5eeb9b3f619b6ed08e222a978a06a0c64736f6c63430008110033\n}\n",
				"bytecode": {
					"linkReferences": {},
					"object": "6080604052601e60005534801561001557600080fd5b506102ae806100256000396000f3fe608060405234801561001057600080fd5b506004361061004c5760003560e01c806355278c5b146100515780636510981014610081578063a56dfe4a146100b1578063a92100cb146100cf575b600080fd5b61006b600480360381019061006691906101aa565b6100d9565b60405161007891906101e6565b60405180910390f35b61009b600480360381019061009691906101aa565b6100f7565b6040516100a891906101e6565b60405180910390f35b6100b9610127565b6040516100c691906101e6565b60405180910390f35b6100d761012d565b005b6000600a82106100ea5760026100ed565b60015b60ff169050919050565b6000600a82101561010b5760009050610122565b601482101561011d5760019050610122565b600290505b919050565b60005481565b60005b600a81101561014c57808061014490610230565b915050610130565b5060005b600a81101561016c57808061016490610230565b915050610150565b50565b600080fd5b6000819050919050565b61018781610174565b811461019257600080fd5b50565b6000813590506101a48161017e565b92915050565b6000602082840312156101c0576101bf61016f565b5b60006101ce84828501610195565b91505092915050565b6101e081610174565b82525050565b60006020820190506101fb60008301846101d7565b92915050565b7f4e487b7100000000000000000000000000000000000000000000000000000000600052601160045260246000fd5b600061023b82610174565b91507fffffffffffffffffffffffffffffffffffffffffffffffffffffffffffffffff820361026d5761026c610201565b5b60018201905091905056fea26469706673582212207ba419a8057f5d452cf9b136adbd98d0c5eeb9b3f619b6ed08e222a978a06a0c64736f6c63430008110033",
					"opcodes": "PUSH1 0x80 PUSH1 0x40 MSTORE PUSH1 0x1E PUSH1 0x0 SSTORE CALLVALUE DUP1 ISZERO PUSH2 0x15 JUMPI PUSH1 0x0 DUP1 REVERT JUMPDEST POP PUSH2 0x2AE DUP1 PUSH2 0x25 PUSH1 0x0 CODECOPY PUSH1 0x0 RETURN INVALID PUSH1 0x80 PUSH1 0x40 MSTORE CALLVALUE DUP1 ISZERO PUSH2 0x10 JUMPI PUSH1 0x0 DUP1 REVERT JUMPDEST POP PUSH1 0x4 CALLDATASIZE LT PUSH2 0x4C JUMPI PUSH1 0x0 CALLDATALOAD PUSH1 0xE0 SHR DUP1 PUSH4 0x55278C5B EQ PUSH2 0x51 JUMPI DUP1 PUSH4 0x65109810 EQ PUSH2 0x81 JUMPI DUP1 PUSH4 0xA56DFE4A EQ PUSH2 0xB1 JUMPI DUP1 PUSH4 0xA92100CB EQ PUSH2 0xCF JUMPI JUMPDEST PUSH1 0x0 DUP1 REVERT JUMPDEST PUSH2 0x6B PUSH1 0x4 DUP1 CALLDATASIZE SUB DUP2 ADD SWAP1 PUSH2 0x66 SWAP2 SWAP1 PUSH2 0x1AA JUMP JUMPDEST PUSH2 0xD9 JUMP JUMPDEST PUSH1 0x40 MLOAD PUSH2 0x78 SWAP2 SWAP1 PUSH2 0x1E6 JUMP JUMPDEST PUSH1 0x40 MLOAD DUP1 SWAP2 SUB SWAP1 RETURN JUMPDEST PUSH2 0x9B PUSH1 0x4 DUP1 CALLDATASIZE SUB DUP2 ADD SWAP1 PUSH2 0x96 SWAP2 SWAP1 PUSH2 0x1AA JUMP JUMPDEST PUSH2 0xF7 JUMP JUMPDEST PUSH1 0x40 MLOAD PUSH2 0xA8 SWAP2 SWAP1 PUSH2 0x1E6 JUMP JUMPDEST PUSH1 0x40 MLOAD DUP1 SWAP2 SUB SWAP1 RETURN JUMPDEST PUSH2 0xB9 PUSH2 0x127 JUMP JUMPDEST PUSH1 0x40 MLOAD PUSH2 0xC6 SWAP2 SWAP1 PUSH2 0x1E6 JUMP JUMPDEST PUSH1 0x40 MLOAD DUP1 SWAP2 SUB SWAP1 RETURN JUMPDEST PUSH2 0xD7 PUSH2 0x12D JUMP JUMPDEST STOP JUMPDEST PUSH1 0x0 PUSH1 0xA DUP3 LT PUSH2 0xEA JUMPI PUSH1 0x2 PUSH2 0xED JUMP JUMPDEST PUSH1 0x1 JUMPDEST PUSH1 0xFF AND SWAP1 POP SWAP2 SWAP1 POP JUMP JUMPDEST PUSH1 0x0 PUSH1 0xA DUP3 LT ISZERO PUSH2 0x10B JUMPI PUSH1 0x0 SWAP1 POP PUSH2 0x122 JUMP JUMPDEST PUSH1 0x14 DUP3 LT ISZERO PUSH2 0x11D JUMPI PUSH1 0x1 SWAP1 POP PUSH2 0x122 JUMP JUMPDEST PUSH1 0x2 SWAP1 POP JUMPDEST SWAP2 SWAP1 POP JUMP JUMPDEST PUSH1 0x0 SLOAD DUP2 JUMP JUMPDEST PUSH1 0x0 JUMPDEST PUSH1 0xA DUP2 LT ISZERO PUSH2 0x14C JUMPI DUP1 DUP1 PUSH2 0x144 SWAP1 PUSH2 0x230 JUMP JUMPDEST SWAP2 POP POP PUSH2 0x130 JUMP JUMPDEST POP PUSH1 0x0 JUMPDEST PUSH1 0xA DUP2 LT ISZERO PUSH2 0x16C JUMPI DUP1 DUP1 PUSH2 0x164 SWAP1 PUSH2 0x230 JUMP JUMPDEST SWAP2 POP POP PUSH2 0x150 JUMP JUMPDEST POP JUMP JUMPDEST PUSH1 0x0 DUP1 REVERT JUMPDEST PUSH1 0x0 DUP2 SWAP1 POP SWAP2 SWAP1 POP JUMP JUMPDEST PUSH2 0x187 DUP2 PUSH2 0x174 JUMP JUMPDEST DUP2 EQ PUSH2 0x192 JUMPI PUSH1 0x0 DUP1 REVERT JUMPDEST POP JUMP JUMPDEST PUSH1 0x0 DUP2 CALLDATALOAD SWAP1 POP PUSH2 0x1A4 DUP2 PUSH2 0x17E JUMP JUMPDEST SWAP3 SWAP2 POP POP JUMP JUMPDEST PUSH1 0x0 PUSH1 0x20 DUP3 DUP5 SUB SLT ISZERO PUSH2 0x1C0 JUMPI PUSH2 0x1BF PUSH2 0x16F JUMP JUMPDEST JUMPDEST PUSH1 0x0 PUSH2 0x1CE DUP5 DUP3 DUP6 ADD PUSH2 0x195 JUMP JUMPDEST SWAP2 POP POP SWAP3 SWAP2 POP POP JUMP JUMPDEST PUSH2 0x1E0 DUP2 PUSH2 0x174 JUMP JUMPDEST DUP3 MSTORE POP POP JUMP JUMPDEST PUSH1 0x0 PUSH1 0x20 DUP3 ADD SWAP1 POP PUSH2 0x1FB PUSH1 0x0 DUP4 ADD DUP5 PUSH2 0x1D7 JUMP JUMPDEST SWAP3 SWAP2 POP POP JUMP JUMPDEST PUSH32 0x4E487B7100000000000000000000000000000000000000000000000000000000 PUSH1 0x0 MSTORE PUSH1 0x11 PUSH1 0x4 MSTORE PUSH1 0x24 PUSH1 0x0 REVERT JUMPDEST PUSH1 0x0 PUSH2 0x23B DUP3 PUSH2 0x174 JUMP JUMPDEST SWAP2 POP PUSH32 0xFFFFFFFFFFFFFFFFFFFFFFFFFFFFFFFFFFFFFFFFFFFFFFFFFFFFFFFFFFFFFFFF DUP3 SUB PUSH2 0x26D JUMPI PUSH2 0x26C PUSH2 0x201 JUMP JUMPDEST JUMPDEST PUSH1 0x1 DUP3 ADD SWAP1 POP SWAP2 SWAP1 POP JUMP INVALID LOG2 PUSH5 0x6970667358 0x22 SLT KECCAK256 PUSH28 0xA419A8057F5D452CF9B136ADBD98D0C5EEB9B3F619B6ED08E222A978 LOG0 PUSH11 0xC64736F6C634300081100 CALLER "
				},
				"gasEstimates": {
					"creation": {
						"codeDepositCost": "137200",
						"executionCost": "22289",
						"totalCost": "159489"
					},
					"external": {
						"ifelse(uint256)": "infinite",
						"loop()": "infinite",
						"ternary(uint256)": "infinite",
						"y()": "2451"
					}
				},
				"methodIdentifiers": {
					"ifelse(uint256)": "65109810",
					"loop()": "a92100cb",
					"ternary(uint256)": "55278c5b",
					"y()": "a56dfe4a"
				}
			},
			"storageLayout": {
				"storage": [
					{
						"astId": 4,
						"contract": "Basics.sol:Basics",
						"label": "y",
						"offset": 0,
						"slot": "0",
						"type": "t_uint256"
					}
				],
				"types": {
					"t_uint256": {
						"encoding": "inplace",
						"label": "uint256",
						"numberOfBytes": "32"
					}
				}
			},
			"userdoc": {
				"kind": "user",
				"methods": {},
				"version": 1
			}
		}
	}
}