{
	"Variables.sol": {
		"Variables": {
			"abi": [
				{
					"inputs": [],
					"name": "addr",
					"outputs": [
						{
							"internalType": "address",
							"name": "",
							"type": "address"
						}
					],
					"stateMutability": "view",
					"type": "function"
				},
				{
					"inputs": [],
					"name": "addressdefault",
					"outputs": [
						{
							"internalType": "address",
							"name": "",
							"type": "address"
						}
					],
					"stateMutability": "view",
					"type": "function"
				},
				{
					"inputs": [],
					"name": "booldefault",
					"outputs": [
						{
							"internalType": "bool",
							"name": "",
							"type": "bool"
						}
					],
					"stateMutability": "view",
					"type": "function"
				},
				{
					"inputs": [],
					"name": "booltest",
					"outputs": [
						{
							"internalType": "bool",
							"name": "",
							"type": "bool"
						}
					],
					"stateMutability": "view",
					"type": "function"
				},
				{
					"inputs": [],
					"name": "i256",
					"outputs": [
						{
							"internalType": "int256",
							"name": "",
							"type": "int256"
						}
					],
					"stateMutability": "view",
					"type": "function"
				},
				{
					"inputs": [],
					"name": "i8",
					"outputs": [
						{
							"internalType": "int8",
							"name": "",
							"type": "int8"
						}
					],
					"stateMutability": "view",
					"type": "function"
				},
				{
					"inputs": [],
					"name": "intdefault",
					"outputs": [
						{
							"internalType": "int256",
							"name": "",
							"type": "int256"
						}
					],
					"stateMutability": "view",
					"type": "function"
				},
				{
					"inputs": [],
					"name": "u256",
					"outputs": [
						{
							"internalType": "uint256",
							"name": "",
							"type": "uint256"
						}
					],
					"stateMutability": "view",
					"type": "function"
				},
				{
					"inputs": [],
					"name": "u8",
					"outputs": [
						{
							"internalType": "uint8",
							"name": "",
							"type": "uint8"
						}
					],
					"stateMutability": "view",
					"type": "function"
				},
				{
					"inputs": [],
					"name": "uintdefault",
					"outputs": [
						{
							"internalType": "uint256",
							"name": "",
							"type": "uint256"
						}
					],
					"stateMutability": "view",
					"type": "function"
				}
			],
			"devdoc": {
				"kind": "dev",
				"methods": {},
				"version": 1
			},
			"evm": {
				"assembly": "    /* \"Variables.sol\":139:498  contract Variables {... */\n  mstore(0x40, 0x80)\n    /* \"Variables.sol\":188:192  true */\n  0x01\n    /* \"Variables.sol\":165:192  bool public booltest = true */\n  0x00\n  dup1\n  0x0100\n  exp\n  dup2\n  sload\n  dup2\n  0xff\n  mul\n  not\n  and\n  swap1\n  dup4\n  iszero\n  iszero\n  mul\n  or\n  swap1\n  sstore\n  pop\n    /* \"Variables.sol\":217:219  10 */\n  0x0a\n    /* \"Variables.sol\":199:219  uint8 public u8 = 10 */\n  0x00\n  exp(0x0100, 0x01)\n  dup2\n  sload\n  dup2\n  0xff\n  mul\n  not\n  and\n  swap1\n  dup4\n  0xff\n  and\n  mul\n  or\n  swap1\n  sstore\n  pop\n    /* \"Variables.sol\":244:247  467 */\n  0x01d3\n    /* \"Variables.sol\":225:247  uint public u256 = 467 */\n  0x01\n  sstore\n    /* \"Variables.sol\":272:274  -1 */\n  0xffffffffffffffffffffffffffffffffffffffffffffffffffffffffffffffff\n    /* \"Variables.sol\":255:274  int8 public i8 = -1 */\n  0x02\n  exp(0x0100, 0x00)\n  dup2\n  sload\n  dup2\n  0xff\n  mul\n  not\n  and\n  swap1\n  dup4\n  0x00\n  signextend\n  0xff\n  and\n  mul\n  or\n  swap1\n  sstore\n  pop\n    /* \"Variables.sol\":298:301  -24 */\n  0xffffffffffffffffffffffffffffffffffffffffffffffffffffffffffffffe8\n    /* \"Variables.sol\":280:301  int public i256 = -24 */\n  0x03\n  sstore\n    /* \"Variables.sol\":330:372  0x5B38Da6a701c568545dCfcB03FcB875f56beddC4 */\n  0x5b38da6a701c568545dcfcb03fcb875f56beddc4\n    /* \"Variables.sol\":308:372  address public addr = 0x5B38Da6a701c568545dCfcB03FcB875f56beddC4 */\n  0x04\n  exp(0x0100, 0x00)\n  dup2\n  sload\n  dup2\n  0xffffffffffffffffffffffffffffffffffffffff\n  mul\n  not\n  and\n  swap1\n  dup4\n  0xffffffffffffffffffffffffffffffffffffffff\n  and\n  mul\n  or\n  swap1\n  sstore\n  pop\n    /* \"Variables.sol\":139:498  contract Variables {... */\n  callvalue\n  dup1\n  iszero\n  tag_1\n  jumpi\n  0x00\n  dup1\n  revert\ntag_1:\n  pop\n  dataSize(sub_0)\n  dup1\n  dataOffset(sub_0)\n  0x00\n  codecopy\n  0x00\n  return\nstop\n\nsub_0: assembly {\n        /* \"Variables.sol\":139:498  contract Variables {... */\n      mstore(0x40, 0x80)\n      callvalue\n      dup1\n      iszero\n      tag_1\n      jumpi\n      0x00\n      dup1\n      revert\n    tag_1:\n      pop\n      jumpi(tag_2, lt(calldatasize, 0x04))\n      shr(0xe0, calldataload(0x00))\n      dup1\n      0x91afc8eb\n      gt\n      tag_13\n      jumpi\n      dup1\n      0x91afc8eb\n      eq\n      tag_8\n      jumpi\n      dup1\n      0x921cda74\n      eq\n      tag_9\n      jumpi\n      dup1\n      0xab3a58a3\n      eq\n      tag_10\n      jumpi\n      dup1\n      0xca055b0f\n      eq\n      tag_11\n      jumpi\n      dup1\n      0xe15536fc\n      eq\n      tag_12\n      jumpi\n      jump(tag_2)\n    tag_13:\n      dup1\n      0x459b1acf\n      eq\n      tag_3\n      jumpi\n      dup1\n      0x4c27fd62\n      eq\n      tag_4\n      jumpi\n      dup1\n      0x55e185a0\n      eq\n      tag_5\n      jumpi\n      dup1\n      0x767800de\n      eq\n      tag_6\n      jumpi\n      dup1\n      0x882665ce\n      eq\n      tag_7\n      jumpi\n    tag_2:\n      0x00\n      dup1\n      revert\n        /* \"Variables.sol\":225:247  uint public u256 = 467 */\n    tag_3:\n      tag_14\n      tag_15\n      jump\t// in\n    tag_14:\n      mload(0x40)\n      tag_16\n      swap2\n      swap1\n      tag_17\n      jump\t// in\n    tag_16:\n      mload(0x40)\n      dup1\n      swap2\n      sub\n      swap1\n      return\n        /* \"Variables.sol\":280:301  int public i256 = -24 */\n    tag_4:\n      tag_18\n      tag_19\n      jump\t// in\n    tag_18:\n      mload(0x40)\n      tag_20\n      swap2\n      swap1\n      tag_21\n      jump\t// in\n    tag_20:\n      mload(0x40)\n      dup1\n      swap2\n      sub\n      swap1\n      return\n        /* \"Variables.sol\":379:402  bool public booldefault */\n    tag_5:\n      tag_22\n      tag_23\n      jump\t// in\n    tag_22:\n      mload(0x40)\n      tag_24\n      swap2\n      swap1\n      tag_25\n      jump\t// in\n    tag_24:\n      mload(0x40)\n      dup1\n      swap2\n      sub\n      swap1\n      return\n        /* \"Variables.sol\":308:372  address public addr = 0x5B38Da6a701c568545dCfcB03FcB875f56beddC4 */\n    tag_6:\n      tag_26\n      tag_27\n      jump\t// in\n    tag_26:\n      mload(0x40)\n      tag_28\n      swap2\n      swap1\n      tag_29\n      jump\t// in\n    tag_28:\n      mload(0x40)\n      dup1\n      swap2\n      sub\n      swap1\n      return\n        /* \"Variables.sol\":437:458  int public intdefault */\n    tag_7:\n      tag_30\n      tag_31\n      jump\t// in\n    tag_30:\n      mload(0x40)\n      tag_32\n      swap2\n      swap1\n      tag_21\n      jump\t// in\n    tag_32:\n      mload(0x40)\n      dup1\n      swap2\n      sub\n      swap1\n      return\n        /* \"Variables.sol\":165:192  bool public booltest = true */\n    tag_8:\n      tag_33\n      tag_34\n      jump\t// in\n    tag_33:\n      mload(0x40)\n      tag_35\n      swap2\n      swap1\n      tag_25\n      jump\t// in\n    tag_35:\n      mload(0x40)\n      dup1\n      swap2\n      sub\n      swap1\n      return\n        /* \"Variables.sol\":255:274  int8 public i8 = -1 */\n    tag_9:\n      tag_36\n      tag_37\n      jump\t// in\n    tag_36:\n      mload(0x40)\n      tag_38\n      swap2\n      swap1\n      tag_39\n      jump\t// in\n    tag_38:\n      mload(0x40)\n      dup1\n      swap2\n      sub\n      swap1\n      return\n        /* \"Variables.sol\":199:219  uint8 public u8 = 10 */\n    tag_10:\n      tag_40\n      tag_41\n      jump\t// in\n    tag_40:\n      mload(0x40)\n      tag_42\n      swap2\n      swap1\n      tag_43\n      jump\t// in\n    tag_42:\n      mload(0x40)\n      dup1\n      swap2\n      sub\n      swap1\n      return\n        /* \"Variables.sol\":408:431  uint public uintdefault */\n    tag_11:\n      tag_44\n      tag_45\n      jump\t// in\n    tag_44:\n      mload(0x40)\n      tag_46\n      swap2\n      swap1\n      tag_17\n      jump\t// in\n    tag_46:\n      mload(0x40)\n      dup1\n      swap2\n      sub\n      swap1\n      return\n        /* \"Variables.sol\":464:493  address public addressdefault */\n    tag_12:\n      tag_47\n      tag_48\n      jump\t// in\n    tag_47:\n      mload(0x40)\n      tag_49\n      swap2\n      swap1\n      tag_29\n      jump\t// in\n    tag_49:\n      mload(0x40)\n      dup1\n      swap2\n      sub\n      swap1\n      return\n        /* \"Variables.sol\":225:247  uint public u256 = 467 */\n    tag_15:\n      sload(0x01)\n      dup2\n      jump\t// out\n        /* \"Variables.sol\":280:301  int public i256 = -24 */\n    tag_19:\n      sload(0x03)\n      dup2\n      jump\t// out\n        /* \"Variables.sol\":379:402  bool public booldefault */\n    tag_23:\n      0x04\n      0x14\n      swap1\n      sload\n      swap1\n      0x0100\n      exp\n      swap1\n      div\n      0xff\n      and\n      dup2\n      jump\t// out\n        /* \"Variables.sol\":308:372  address public addr = 0x5B38Da6a701c568545dCfcB03FcB875f56beddC4 */\n    tag_27:\n      0x04\n      0x00\n      swap1\n      sload\n      swap1\n      0x0100\n      exp\n      swap1\n      div\n      0xffffffffffffffffffffffffffffffffffffffff\n      and\n      dup2\n      jump\t// out\n        /* \"Variables.sol\":437:458  int public intdefault */\n    tag_31:\n      sload(0x06)\n      dup2\n      jump\t// out\n        /* \"Variables.sol\":165:192  bool public booltest = true */\n    tag_34:\n      0x00\n      dup1\n      sload\n      swap1\n      0x0100\n      exp\n      swap1\n      div\n      0xff\n      and\n      dup2\n      jump\t// out\n        /* \"Variables.sol\":255:274  int8 public i8 = -1 */\n    tag_37:\n      0x02\n      0x00\n      swap1\n      sload\n      swap1\n      0x0100\n      exp\n      swap1\n      div\n      0x00\n      signextend\n      dup2\n      jump\t// out\n        /* \"Variables.sol\":199:219  uint8 public u8 = 10 */\n    tag_41:\n      0x00\n      0x01\n      swap1\n      sload\n      swap1\n      0x0100\n      exp\n      swap1\n      div\n      0xff\n      and\n      dup2\n      jump\t// out\n        /* \"Variables.sol\":408:431  uint public uintdefault */\n    tag_45:\n      sload(0x05)\n      dup2\n      jump\t// out\n        /* \"Variables.sol\":464:493  address public addressdefault */\n    tag_48:\n      0x07\n      0x00\n      swap1\n      sload\n      swap1\n      0x0100\n      exp\n      swap1\n      div\n      0xffffffffffffffffffffffffffffffffffffffff\n      and\n      dup2\n      jump\t// out\n        /* \"#utility.yul\":7:84   */\n    tag_50:\n        /* \"#utility.yul\":44:51   */\n      0x00\n        /* \"#utility.yul\":73:78   */\n      dup2\n        /* \"#utility.yul\":62:78   */\n      swap1\n      pop\n        /* \"#utility.yul\":7:84   */\n      swap2\n      swap1\n      pop\n      jump\t// out\n        /* \"#utility.yul\":90:208   */\n    tag_51:\n        /* \"#utility.yul\":177:201   */\n      tag_66\n        /* \"#utility.yul\":195:200   */\n      dup2\n        /* \"#utility.yul\":177:201   */\n      tag_50\n      jump\t// in\n    tag_66:\n        /* \"#utility.yul\":172:175   */\n      dup3\n        /* \"#utility.yul\":165:202   */\n      mstore\n        /* \"#utility.yul\":90:208   */\n      pop\n      pop\n      jump\t// out\n        /* \"#utility.yul\":214:436   */\n    tag_17:\n        /* \"#utility.yul\":307:311   */\n      0x00\n        /* \"#utility.yul\":345:347   */\n      0x20\n        /* \"#utility.yul\":334:343   */\n      dup3\n        /* \"#utility.yul\":330:348   */\n      add\n        /* \"#utility.yul\":322:348   */\n      swap1\n      pop\n        /* \"#utility.yul\":358:429   */\n      tag_68\n        /* \"#utility.yul\":426:427   */\n      0x00\n        /* \"#utility.yul\":415:424   */\n      dup4\n        /* \"#utility.yul\":411:428   */\n      add\n        /* \"#utility.yul\":402:408   */\n      dup5\n        /* \"#utility.yul\":358:429   */\n      tag_51\n      jump\t// in\n    tag_68:\n        /* \"#utility.yul\":214:436   */\n      swap3\n      swap2\n      pop\n      pop\n      jump\t// out\n        /* \"#utility.yul\":442:518   */\n    tag_52:\n        /* \"#utility.yul\":478:485   */\n      0x00\n        /* \"#utility.yul\":507:512   */\n      dup2\n        /* \"#utility.yul\":496:512   */\n      swap1\n      pop\n        /* \"#utility.yul\":442:518   */\n      swap2\n      swap1\n      pop\n      jump\t// out\n        /* \"#utility.yul\":524:639   */\n    tag_53:\n        /* \"#utility.yul\":609:632   */\n      tag_71\n        /* \"#utility.yul\":626:631   */\n      dup2\n        /* \"#utility.yul\":609:632   */\n      tag_52\n      jump\t// in\n    tag_71:\n        /* \"#utility.yul\":604:607   */\n      dup3\n        /* \"#utility.yul\":597:633   */\n      mstore\n        /* \"#utility.yul\":524:639   */\n      pop\n      pop\n      jump\t// out\n        /* \"#utility.yul\":645:863   */\n    tag_21:\n        /* \"#utility.yul\":736:740   */\n      0x00\n        /* \"#utility.yul\":774:776   */\n      0x20\n        /* \"#utility.yul\":763:772   */\n      dup3\n        /* \"#utility.yul\":759:777   */\n      add\n        /* \"#utility.yul\":751:777   */\n      swap1\n      pop\n        /* \"#utility.yul\":787:856   */\n      tag_73\n        /* \"#utility.yul\":853:854   */\n      0x00\n        /* \"#utility.yul\":842:851   */\n      dup4\n        /* \"#utility.yul\":838:855   */\n      add\n        /* \"#utility.yul\":829:835   */\n      dup5\n        /* \"#utility.yul\":787:856   */\n      tag_53\n      jump\t// in\n    tag_73:\n        /* \"#utility.yul\":645:863   */\n      swap3\n      swap2\n      pop\n      pop\n      jump\t// out\n        /* \"#utility.yul\":869:959   */\n    tag_54:\n        /* \"#utility.yul\":903:910   */\n      0x00\n        /* \"#utility.yul\":946:951   */\n      dup2\n        /* \"#utility.yul\":939:952   */\n      iszero\n        /* \"#utility.yul\":932:953   */\n      iszero\n        /* \"#utility.yul\":921:953   */\n      swap1\n      pop\n        /* \"#utility.yul\":869:959   */\n      swap2\n      swap1\n      pop\n      jump\t// out\n        /* \"#utility.yul\":965:1074   */\n    tag_55:\n        /* \"#utility.yul\":1046:1067   */\n      tag_76\n        /* \"#utility.yul\":1061:1066   */\n      dup2\n        /* \"#utility.yul\":1046:1067   */\n      tag_54\n      jump\t// in\n    tag_76:\n        /* \"#utility.yul\":1041:1044   */\n      dup3\n        /* \"#utility.yul\":1034:1068   */\n      mstore\n        /* \"#utility.yul\":965:1074   */\n      pop\n      pop\n      jump\t// out\n        /* \"#utility.yul\":1080:1290   */\n    tag_25:\n        /* \"#utility.yul\":1167:1171   */\n      0x00\n        /* \"#utility.yul\":1205:1207   */\n      0x20\n        /* \"#utility.yul\":1194:1203   */\n      dup3\n        /* \"#utility.yul\":1190:1208   */\n      add\n        /* \"#utility.yul\":1182:1208   */\n      swap1\n      pop\n        /* \"#utility.yul\":1218:1283   */\n      tag_78\n        /* \"#utility.yul\":1280:1281   */\n      0x00\n        /* \"#utility.yul\":1269:1278   */\n      dup4\n        /* \"#utility.yul\":1265:1282   */\n      add\n        /* \"#utility.yul\":1256:1262   */\n      dup5\n        /* \"#utility.yul\":1218:1283   */\n      tag_55\n      jump\t// in\n    tag_78:\n        /* \"#utility.yul\":1080:1290   */\n      swap3\n      swap2\n      pop\n      pop\n      jump\t// out\n        /* \"#utility.yul\":1296:1422   */\n    tag_56:\n        /* \"#utility.yul\":1333:1340   */\n      0x00\n        /* \"#utility.yul\":1373:1415   */\n      0xffffffffffffffffffffffffffffffffffffffff\n        /* \"#utility.yul\":1366:1371   */\n      dup3\n        /* \"#utility.yul\":1362:1416   */\n      and\n        /* \"#utility.yul\":1351:1416   */\n      swap1\n      pop\n        /* \"#utility.yul\":1296:1422   */\n      swap2\n      swap1\n      pop\n      jump\t// out\n        /* \"#utility.yul\":1428:1524   */\n    tag_57:\n        /* \"#utility.yul\":1465:1472   */\n      0x00\n        /* \"#utility.yul\":1494:1518   */\n      tag_81\n        /* \"#utility.yul\":1512:1517   */\n      dup3\n        /* \"#utility.yul\":1494:1518   */\n      tag_56\n      jump\t// in\n    tag_81:\n        /* \"#utility.yul\":1483:1518   */\n      swap1\n      pop\n        /* \"#utility.yul\":1428:1524   */\n      swap2\n      swap1\n      pop\n      jump\t// out\n        /* \"#utility.yul\":1530:1648   */\n    tag_58:\n        /* \"#utility.yul\":1617:1641   */\n      tag_83\n        /* \"#utility.yul\":1635:1640   */\n      dup2\n        /* \"#utility.yul\":1617:1641   */\n      tag_57\n      jump\t// in\n    tag_83:\n        /* \"#utility.yul\":1612:1615   */\n      dup3\n        /* \"#utility.yul\":1605:1642   */\n      mstore\n        /* \"#utility.yul\":1530:1648   */\n      pop\n      pop\n      jump\t// out\n        /* \"#utility.yul\":1654:1876   */\n    tag_29:\n        /* \"#utility.yul\":1747:1751   */\n      0x00\n        /* \"#utility.yul\":1785:1787   */\n      0x20\n        /* \"#utility.yul\":1774:1783   */\n      dup3\n        /* \"#utility.yul\":1770:1788   */\n      add\n        /* \"#utility.yul\":1762:1788   */\n      swap1\n      pop\n        /* \"#utility.yul\":1798:1869   */\n      tag_85\n        /* \"#utility.yul\":1866:1867   */\n      0x00\n        /* \"#utility.yul\":1855:1864   */\n      dup4\n        /* \"#utility.yul\":1851:1868   */\n      add\n        /* \"#utility.yul\":1842:1848   */\n      dup5\n        /* \"#utility.yul\":1798:1869   */\n      tag_58\n      jump\t// in\n    tag_85:\n        /* \"#utility.yul\":1654:1876   */\n      swap3\n      swap2\n      pop\n      pop\n      jump\t// out\n        /* \"#utility.yul\":1882:1971   */\n    tag_59:\n        /* \"#utility.yul\":1916:1923   */\n      0x00\n        /* \"#utility.yul\":1959:1964   */\n      dup2\n        /* \"#utility.yul\":1956:1957   */\n      0x00\n        /* \"#utility.yul\":1945:1965   */\n      signextend\n        /* \"#utility.yul\":1934:1965   */\n      swap1\n      pop\n        /* \"#utility.yul\":1882:1971   */\n      swap2\n      swap1\n      pop\n      jump\t// out\n        /* \"#utility.yul\":1977:2086   */\n    tag_60:\n        /* \"#utility.yul\":2058:2079   */\n      tag_88\n        /* \"#utility.yul\":2073:2078   */\n      dup2\n        /* \"#utility.yul\":2058:2079   */\n      tag_59\n      jump\t// in\n    tag_88:\n        /* \"#utility.yul\":2053:2056   */\n      dup3\n        /* \"#utility.yul\":2046:2080   */\n      mstore\n        /* \"#utility.yul\":1977:2086   */\n      pop\n      pop\n      jump\t// out\n        /* \"#utility.yul\":2092:2302   */\n    tag_39:\n        /* \"#utility.yul\":2179:2183   */\n      0x00\n        /* \"#utility.yul\":2217:2219   */\n      0x20\n        /* \"#utility.yul\":2206:2215   */\n      dup3\n        /* \"#utility.yul\":2202:2220   */\n      add\n        /* \"#utility.yul\":2194:2220   */\n      swap1\n      pop\n        /* \"#utility.yul\":2230:2295   */\n      tag_90\n        /* \"#utility.yul\":2292:2293   */\n      0x00\n        /* \"#utility.yul\":2281:2290   */\n      dup4\n        /* \"#utility.yul\":2277:2294   */\n      add\n        /* \"#utility.yul\":2268:2274   */\n      dup5\n        /* \"#utility.yul\":2230:2295   */\n      tag_60\n      jump\t// in\n    tag_90:\n        /* \"#utility.yul\":2092:2302   */\n      swap3\n      swap2\n      pop\n      pop\n      jump\t// out\n        /* \"#utility.yul\":2308:2394   */\n    tag_61:\n        /* \"#utility.yul\":2343:2350   */\n      0x00\n        /* \"#utility.yul\":2383:2387   */\n      0xff\n        /* \"#utility.yul\":2376:2381   */\n      dup3\n        /* \"#utility.yul\":2372:2388   */\n      and\n        /* \"#utility.yul\":2361:2388   */\n      swap1\n      pop\n        /* \"#utility.yul\":2308:2394   */\n      swap2\n      swap1\n      pop\n      jump\t// out\n        /* \"#utility.yul\":2400:2512   */\n    tag_62:\n        /* \"#utility.yul\":2483:2505   */\n      tag_93\n        /* \"#utility.yul\":2499:2504   */\n      dup2\n        /* \"#utility.yul\":2483:2505   */\n      tag_61\n      jump\t// in\n    tag_93:\n        /* \"#utility.yul\":2478:2481   */\n      dup3\n        /* \"#utility.yul\":2471:2506   */\n      mstore\n        /* \"#utility.yul\":2400:2512   */\n      pop\n      pop\n      jump\t// out\n        /* \"#utility.yul\":2518:2732   */\n    tag_43:\n        /* \"#utility.yul\":2607:2611   */\n      0x00\n        /* \"#utility.yul\":2645:2647   */\n      0x20\n        /* \"#utility.yul\":2634:2643   */\n      dup3\n        /* \"#utility.yul\":2630:2648   */\n      add\n        /* \"#utility.yul\":2622:2648   */\n      swap1\n      pop\n        /* \"#utility.yul\":2658:2725   */\n      tag_95\n        /* \"#utility.yul\":2722:2723   */\n      0x00\n        /* \"#utility.yul\":2711:2720   */\n      dup4\n        /* \"#utility.yul\":2707:2724   */\n      add\n        /* \"#utility.yul\":2698:2704   */\n      dup5\n        /* \"#utility.yul\":2658:2725   */\n      tag_62\n      jump\t// in\n    tag_95:\n        /* \"#utility.yul\":2518:2732   */\n      swap3\n      swap2\n      pop\n      pop\n      jump\t// out\n\n    auxdata: 0xa26469706673582212209d781a3453ca77dd1aee24b2d7b3b916b54167ed6638a0f6f805b9f68876791464736f6c63430008110033\n}\n",
				"bytecode": {
					"linkReferences": {},
					"object": "608060405260016000806101000a81548160ff021916908315150217905550600a600060016101000a81548160ff021916908360ff1602179055506101d36001557fffffffffffffffffffffffffffffffffffffffffffffffffffffffffffffffff600260006101000a81548160ff021916908360000b60ff1602179055507fffffffffffffffffffffffffffffffffffffffffffffffffffffffffffffffe8600355735b38da6a701c568545dcfcb03fcb875f56beddc4600460006101000a81548173ffffffffffffffffffffffffffffffffffffffff021916908373ffffffffffffffffffffffffffffffffffffffff16021790555034801561010357600080fd5b5061041b806101136000396000f3fe608060405234801561001057600080fd5b506004361061009e5760003560e01c806391afc8eb1161006657806391afc8eb14610139578063921cda7414610157578063ab3a58a314610175578063ca055b0f14610193578063e15536fc146101b15761009e565b8063459b1acf146100a35780634c27fd62146100c157806355e185a0146100df578063767800de146100fd578063882665ce1461011b575b600080fd5b6100ab6101cf565b6040516100b89190610296565b60405180910390f35b6100c96101d5565b6040516100d691906102ca565b60405180910390f35b6100e76101db565b6040516100f49190610300565b60405180910390f35b6101056101ee565b604051610112919061035c565b60405180910390f35b610123610214565b60405161013091906102ca565b60405180910390f35b61014161021a565b60405161014e9190610300565b60405180910390f35b61015f61022b565b60405161016c9190610393565b60405180910390f35b61017d61023e565b60405161018a91906103ca565b60405180910390f35b61019b610251565b6040516101a89190610296565b60405180910390f35b6101b9610257565b6040516101c6919061035c565b60405180910390f35b60015481565b60035481565b600460149054906101000a900460ff1681565b600460009054906101000a900473ffffffffffffffffffffffffffffffffffffffff1681565b60065481565b60008054906101000a900460ff1681565b600260009054906101000a900460000b81565b600060019054906101000a900460ff1681565b60055481565b600760009054906101000a900473ffffffffffffffffffffffffffffffffffffffff1681565b6000819050919050565b6102908161027d565b82525050565b60006020820190506102ab6000830184610287565b92915050565b6000819050919050565b6102c4816102b1565b82525050565b60006020820190506102df60008301846102bb565b92915050565b60008115159050919050565b6102fa816102e5565b82525050565b600060208201905061031560008301846102f1565b92915050565b600073ffffffffffffffffffffffffffffffffffffffff82169050919050565b60006103468261031b565b9050919050565b6103568161033b565b82525050565b6000602082019050610371600083018461034d565b92915050565b60008160000b9050919050565b61038d81610377565b82525050565b60006020820190506103a86000830184610384565b92915050565b600060ff82169050919050565b6103c4816103ae565b82525050565b60006020820190506103df60008301846103bb565b9291505056fea26469706673582212209d781a3453ca77dd1aee24b2d7b3b916b54167ed6638a0f6f805b9f68876791464736f6c63430008110033",
					"opcodes": "PUSH1 0x80 PUSH1 0x40 MSTORE PUSH1 0x1 PUSH1 0x0 DUP1 PUSH2 0x100 EXP DUP2 SLOAD DUP2 PUSH1 0xFF MUL NOT AND SWAP1 DUP4 ISZERO ISZERO MUL OR SWAP1 SSTORE POP PUSH1 0xA PUSH1 0x0 PUSH1 0x1 PUSH2 0x100 EXP DUP2 SLOAD DUP2 PUSH1 0xFF MUL NOT AND SWAP1 DUP4 PUSH1 0xFF AND MUL OR SWAP1 SSTORE POP PUSH2 0x1D3 PUSH1 0x1 SSTORE PUSH32 0xFFFFFFFFFFFFFFFFFFFFFFFFFFFFFFFFFFFFFFFFFFFFFFFFFFFFFFFFFFFFFFFF PUSH1 0x2 PUSH1 0x0 PUSH2 0x100 EXP DUP2 SLOAD DUP2 PUSH1 0xFF MUL NOT AND SWAP1 DUP4 PUSH1 0x0 SIGNEXTEND PUSH1 0xFF AND MUL OR SWAP1 SSTORE POP PUSH32 0xFFFFFFFFFFFFFFFFFFFFFFFFFFFFFFFFFFFFFFFFFFFFFFFFFFFFFFFFFFFFFFE8 PUSH1 0x3 SSTORE PUSH20 0x5B38DA6A701C568545DCFCB03FCB875F56BEDDC4 PUSH1 0x4 PUSH1 0x0 PUSH2 0x100 EXP DUP2 SLOAD DUP2 PUSH20 0xFFFFFFFFFFFFFFFFFFFFFFFFFFFFFFFFFFFFFFFF MUL NOT AND SWAP1 DUP4 PUSH20 0xFFFFFFFFFFFFFFFFFFFFFFFFFFFFFFFFFFFFFFFF AND MUL OR SWAP1 SSTORE POP CALLVALUE DUP1 ISZERO PUSH2 0x103 JUMPI PUSH1 0x0 DUP1 REVERT JUMPDEST POP PUSH2 0x41B DUP1 PUSH2 0x113 PUSH1 0x0 CODECOPY PUSH1 0x0 RETURN INVALID PUSH1 0x80 PUSH1 0x40 MSTORE CALLVALUE DUP1 ISZERO PUSH2 0x10 JUMPI PUSH1 0x0 DUP1 REVERT JUMPDEST POP PUSH1 0x4 CALLDATASIZE LT PUSH2 0x9E JUMPI PUSH1 0x0 CALLDATALOAD PUSH1 0xE0 SHR DUP1 PUSH4 0x91AFC8EB GT PUSH2 0x66 JUMPI DUP1 PUSH4 0x91AFC8EB EQ PUSH2 0x139 JUMPI DUP1 PUSH4 0x921CDA74 EQ PUSH2 0x157 JUMPI DUP1 PUSH4 0xAB3A58A3 EQ PUSH2 0x175 JUMPI DUP1 PUSH4 0xCA055B0F EQ PUSH2 0x193 JUMPI DUP1 PUSH4 0xE15536FC EQ PUSH2 0x1B1 JUMPI PUSH2 0x9E JUMP JUMPDEST DUP1 PUSH4 0x459B1ACF EQ PUSH2 0xA3 JUMPI DUP1 PUSH4 0x4C27FD62 EQ PUSH2 0xC1 JUMPI DUP1 PUSH4 0x55E185A0 EQ PUSH2 0xDF JUMPI DUP1 PUSH4 0x767800DE EQ PUSH2 0xFD JUMPI DUP1 PUSH4 0x882665CE EQ PUSH2 0x11B JUMPI JUMPDEST PUSH1 0x0 DUP1 REVERT JUMPDEST PUSH2 0xAB PUSH2 0x1CF JUMP JUMPDEST PUSH1 0x40 MLOAD PUSH2 0xB8 SWAP2 SWAP1 PUSH2 0x296 JUMP JUMPDEST PUSH1 0x40 MLOAD DUP1 SWAP2 SUB SWAP1 RETURN JUMPDEST PUSH2 0xC9 PUSH2 0x1D5 JUMP JUMPDEST PUSH1 0x40 MLOAD PUSH2 0xD6 SWAP2 SWAP1 PUSH2 0x2CA JUMP JUMPDEST PUSH1 0x40 MLOAD DUP1 SWAP2 SUB SWAP1 RETURN JUMPDEST PUSH2 0xE7 PUSH2 0x1DB JUMP JUMPDEST PUSH1 0x40 MLOAD PUSH2 0xF4 SWAP2 SWAP1 PUSH2 0x300 JUMP JUMPDEST PUSH1 0x40 MLOAD DUP1 SWAP2 SUB SWAP1 RETURN JUMPDEST PUSH2 0x105 PUSH2 0x1EE JUMP JUMPDEST PUSH1 0x40 MLOAD PUSH2 0x112 SWAP2 SWAP1 PUSH2 0x35C JUMP JUMPDEST PUSH1 0x40 MLOAD DUP1 SWAP2 SUB SWAP1 RETURN JUMPDEST PUSH2 0x123 PUSH2 0x214 JUMP JUMPDEST PUSH1 0x40 MLOAD PUSH2 0x130 SWAP2 SWAP1 PUSH2 0x2CA JUMP JUMPDEST PUSH1 0x40 MLOAD DUP1 SWAP2 SUB SWAP1 RETURN JUMPDEST PUSH2 0x141 PUSH2 0x21A JUMP JUMPDEST PUSH1 0x40 MLOAD PUSH2 0x14E SWAP2 SWAP1 PUSH2 0x300 JUMP JUMPDEST PUSH1 0x40 MLOAD DUP1 SWAP2 SUB SWAP1 RETURN JUMPDEST PUSH2 0x15F PUSH2 0x22B JUMP JUMPDEST PUSH1 0x40 MLOAD PUSH2 0x16C SWAP2 SWAP1 PUSH2 0x393 JUMP JUMPDEST PUSH1 0x40 MLOAD DUP1 SWAP2 SUB SWAP1 RETURN JUMPDEST PUSH2 0x17D PUSH2 0x23E JUMP JUMPDEST PUSH1 0x40 MLOAD PUSH2 0x18A SWAP2 SWAP1 PUSH2 0x3CA JUMP JUMPDEST PUSH1 0x40 MLOAD DUP1 SWAP2 SUB SWAP1 RETURN JUMPDEST PUSH2 0x19B PUSH2 0x251 JUMP JUMPDEST PUSH1 0x40 MLOAD PUSH2 0x1A8 SWAP2 SWAP1 PUSH2 0x296 JUMP JUMPDEST PUSH1 0x40 MLOAD DUP1 SWAP2 SUB SWAP1 RETURN JUMPDEST PUSH2 0x1B9 PUSH2 0x257 JUMP JUMPDEST PUSH1 0x40 MLOAD PUSH2 0x1C6 SWAP2 SWAP1 PUSH2 0x35C JUMP JUMPDEST PUSH1 0x40 MLOAD DUP1 SWAP2 SUB SWAP1 RETURN JUMPDEST PUSH1 0x1 SLOAD DUP2 JUMP JUMPDEST PUSH1 0x3 SLOAD DUP2 JUMP JUMPDEST PUSH1 0x4 PUSH1 0x14 SWAP1 SLOAD SWAP1 PUSH2 0x100 EXP SWAP1 DIV PUSH1 0xFF AND DUP2 JUMP JUMPDEST PUSH1 0x4 PUSH1 0x0 SWAP1 SLOAD SWAP1 PUSH2 0x100 EXP SWAP1 DIV PUSH20 0xFFFFFFFFFFFFFFFFFFFFFFFFFFFFFFFFFFFFFFFF AND DUP2 JUMP JUMPDEST PUSH1 0x6 SLOAD DUP2 JUMP JUMPDEST PUSH1 0x0 DUP1 SLOAD SWAP1 PUSH2 0x100 EXP SWAP1 DIV PUSH1 0xFF AND DUP2 JUMP JUMPDEST PUSH1 0x2 PUSH1 0x0 SWAP1 SLOAD SWAP1 PUSH2 0x100 EXP SWAP1 DIV PUSH1 0x0 SIGNEXTEND DUP2 JUMP JUMPDEST PUSH1 0x0 PUSH1 0x1 SWAP1 SLOAD SWAP1 PUSH2 0x100 EXP SWAP1 DIV PUSH1 0xFF AND DUP2 JUMP JUMPDEST PUSH1 0x5 SLOAD DUP2 JUMP JUMPDEST PUSH1 0x7 PUSH1 0x0 SWAP1 SLOAD SWAP1 PUSH2 0x100 EXP SWAP1 DIV PUSH20 0xFFFFFFFFFFFFFFFFFFFFFFFFFFFFFFFFFFFFFFFF AND DUP2 JUMP JUMPDEST PUSH1 0x0 DUP2 SWAP1 POP SWAP2 SWAP1 POP JUMP JUMPDEST PUSH2 0x290 DUP2 PUSH2 0x27D JUMP JUMPDEST DUP3 MSTORE POP POP JUMP JUMPDEST PUSH1 0x0 PUSH1 0x20 DUP3 ADD SWAP1 POP PUSH2 0x2AB PUSH1 0x0 DUP4 ADD DUP5 PUSH2 0x287 JUMP JUMPDEST SWAP3 SWAP2 POP POP JUMP JUMPDEST PUSH1 0x0 DUP2 SWAP1 POP SWAP2 SWAP1 POP JUMP JUMPDEST PUSH2 0x2C4 DUP2 PUSH2 0x2B1 JUMP JUMPDEST DUP3 MSTORE POP POP JUMP JUMPDEST PUSH1 0x0 PUSH1 0x20 DUP3 ADD SWAP1 POP PUSH2 0x2DF PUSH1 0x0 DUP4 ADD DUP5 PUSH2 0x2BB JUMP JUMPDEST SWAP3 SWAP2 POP POP JUMP JUMPDEST PUSH1 0x0 DUP2 ISZERO ISZERO SWAP1 POP SWAP2 SWAP1 POP JUMP JUMPDEST PUSH2 0x2FA DUP2 PUSH2 0x2E5 JUMP JUMPDEST DUP3 MSTORE POP POP JUMP JUMPDEST PUSH1 0x0 PUSH1 0x20 DUP3 ADD SWAP1 POP PUSH2 0x315 PUSH1 0x0 DUP4 ADD DUP5 PUSH2 0x2F1 JUMP JUMPDEST SWAP3 SWAP2 POP POP JUMP JUMPDEST PUSH1 0x0 PUSH20 0xFFFFFFFFFFFFFFFFFFFFFFFFFFFFFFFFFFFFFFFF DUP3 AND SWAP1 POP SWAP2 SWAP1 POP JUMP JUMPDEST PUSH1 0x0 PUSH2 0x346 DUP3 PUSH2 0x31B JUMP JUMPDEST SWAP1 POP SWAP2 SWAP1 POP JUMP JUMPDEST PUSH2 0x356 DUP2 PUSH2 0x33B JUMP JUMPDEST DUP3 MSTORE POP POP JUMP JUMPDEST PUSH1 0x0 PUSH1 0x20 DUP3 ADD SWAP1 POP PUSH2 0x371 PUSH1 0x0 DUP4 ADD DUP5 PUSH2 0x34D JUMP JUMPDEST SWAP3 SWAP2 POP POP JUMP JUMPDEST PUSH1 0x0 DUP2 PUSH1 0x0 SIGNEXTEND SWAP1 POP SWAP2 SWAP1 POP JUMP JUMPDEST PUSH2 0x38D DUP2 PUSH2 0x377 JUMP JUMPDEST DUP3 MSTORE POP POP JUMP JUMPDEST PUSH1 0x0 PUSH1 0x20 DUP3 ADD SWAP1 POP PUSH2 0x3A8 PUSH1 0x0 DUP4 ADD DUP5 PUSH2 0x384 JUMP JUMPDEST SWAP3 SWAP2 POP POP JUMP JUMPDEST PUSH1 0x0 PUSH1 0xFF DUP3 AND SWAP1 POP SWAP2 SWAP1 POP JUMP JUMPDEST PUSH2 0x3C4 DUP2 PUSH2 0x3AE JUMP JUMPDEST DUP3 MSTORE POP POP JUMP JUMPDEST PUSH1 0x0 PUSH1 0x20 DUP3 ADD SWAP1 POP PUSH2 0x3DF PUSH1 0x0 DUP4 ADD DUP5 PUSH2 0x3BB JUMP JUMPDEST SWAP3 SWAP2 POP POP JUMP INVALID LOG2 PUSH5 0x6970667358 0x22 SLT KECCAK256 SWAP14 PUSH25 0x1A3453CA77DD1AEE24B2D7B3B916B54167ED6638A0F6F805B9 0xF6 DUP9 PUSH23 0x791464736F6C6343000811003300000000000000000000 "
				},
				"gasEstimates": {
					"creation": {
						"codeDepositCost": "210200",
						"executionCost": "141589",
						"totalCost": "351789"
					},
					"external": {
						"addr()": "2581",
						"addressdefault()": "2602",
						"booldefault()": "2566",
						"booltest()": "2468",
						"i256()": "2452",
						"i8()": "2497",
						"intdefault()": "2518",
						"u256()": "2430",
						"u8()": "2565",
						"uintdefault()": "2495"
					}
				},
				"methodIdentifiers": {
					"addr()": "767800de",
					"addressdefault()": "e15536fc",
					"booldefault()": "55e185a0",
					"booltest()": "91afc8eb",
					"i256()": "4c27fd62",
					"i8()": "921cda74",
					"intdefault()": "882665ce",
					"u256()": "459b1acf",
					"u8()": "ab3a58a3",
					"uintdefault()": "ca055b0f"
				}
			},
			"storageLayout": {
				"storage": [
					{
						"astId": 4,
						"contract": "Variables.sol:Variables",
						"label": "booltest",
						"offset": 0,
						"slot": "0",
						"type": "t_bool"
					},
					{
						"astId": 7,
						"contract": "Variables.sol:Variables",
						"label": "u8",
						"offset": 1,
						"slot": "0",
						"type": "t_uint8"
					},
					{
						"astId": 10,
						"contract": "Variables.sol:Variables",
						"label": "u256",
						"offset": 0,
						"slot": "1",
						"type": "t_uint256"
					},
					{
						"astId": 14,
						"contract": "Variables.sol:Variables",
						"label": "i8",
						"offset": 0,
						"slot": "2",
						"type": "t_int8"
					},
					{
						"astId": 18,
						"contract": "Variables.sol:Variables",
						"label": "i256",
						"offset": 0,
						"slot": "3",
						"type": "t_int256"
					},
					{
						"astId": 21,
						"contract": "Variables.sol:Variables",
						"label": "addr",
						"offset": 0,
						"slot": "4",
						"type": "t_address"
					},
					{
						"astId": 23,
						"contract": "Variables.sol:Variables",
						"label": "booldefault",
						"offset": 20,
						"slot": "4",
						"type": "t_bool"
					},
					{
						"astId": 25,
						"contract": "Variables.sol:Variables",
						"label": "uintdefault",
						"offset": 0,
						"slot": "5",
						"type": "t_uint256"
					},
					{
						"astId": 27,
						"contract": "Variables.sol:Variables",
						"label": "intdefault",
						"offset": 0,
						"slot": "6",
						"type": "t_int256"
					},
					{
						"astId": 29,
						"contract": "Variables.sol:Variables",
						"label": "addressdefault",
						"offset": 0,
						"slot": "7",
						"type": "t_address"
					}
				],
				"types": {
					"t_address": {
						"encoding": "inplace",
						"label": "address",
						"numberOfBytes": "20"
					},
					"t_bool": {
						"encoding": "inplace",
						"label": "bool",
						"numberOfBytes": "1"
					},
					"t_int256": {
						"encoding": "inplace",
						"label": "int256",
						"numberOfBytes": "32"
					},
					"t_int8": {
						"encoding": "inplace",
						"label": "int8",
						"numberOfBytes": "1"
					},
					"t_uint256": {
						"encoding": "inplace",
						"label": "uint256",
						"numberOfBytes": "32"
					},
					"t_uint8": {
						"encoding": "inplace",
						"label": "uint8",
						"numberOfBytes": "1"
					}
				}
			},
			"userdoc": {
				"kind": "user",
				"methods": {},
				"version": 1
			}
		}
	}
}