{
	"tuple.sol": {
		"tableau": {
			"abi": [
				{
					"inputs": [
						{
							"internalType": "uint256",
							"name": "index",
							"type": "uint256"
						}
					],
					"name": "getArray",
					"outputs": [
						{
							"internalType": "string",
							"name": "",
							"type": "string"
						}
					],
					"stateMutability": "view",
					"type": "function"
				},
				{
					"inputs": [],
					"name": "test",
					"outputs": [],
					"stateMutability": "nonpayable",
					"type": "function"
				}
			],
			"devdoc": {
				"kind": "dev",
				"methods": {},
				"version": 1
			},
			"evm": {
				"assembly": "    /* \"tuple.sol\":387:671  contract tableau {... */\n  mstore(0x40, 0x80)\n  callvalue\n  dup1\n  iszero\n  tag_1\n  jumpi\n  0x00\n  dup1\n  revert\ntag_1:\n  pop\n  dataSize(sub_0)\n  dup1\n  dataOffset(sub_0)\n  0x00\n  codecopy\n  0x00\n  return\nstop\n\nsub_0: assembly {\n        /* \"tuple.sol\":387:671  contract tableau {... */\n      mstore(0x40, 0x80)\n      callvalue\n      dup1\n      iszero\n      tag_1\n      jumpi\n      0x00\n      dup1\n      revert\n    tag_1:\n      pop\n      jumpi(tag_2, lt(calldatasize, 0x04))\n      shr(0xe0, calldataload(0x00))\n      dup1\n      0xab35ec63\n      eq\n      tag_3\n      jumpi\n      dup1\n      0xf8a8fd6d\n      eq\n      tag_4\n      jumpi\n    tag_2:\n      0x00\n      dup1\n      revert\n        /* \"tuple.sol\":562:669  function getArray(uint index) public view returns(string memory) {... */\n    tag_3:\n      tag_5\n      0x04\n      dup1\n      calldatasize\n      sub\n      dup2\n      add\n      swap1\n      tag_6\n      swap2\n      swap1\n      tag_7\n      jump\t// in\n    tag_6:\n      tag_8\n      jump\t// in\n    tag_5:\n      mload(0x40)\n      tag_9\n      swap2\n      swap1\n      tag_10\n      jump\t// in\n    tag_9:\n      mload(0x40)\n      dup1\n      swap2\n      sub\n      swap1\n      return\n        /* \"tuple.sol\":437:555  function test() public {... */\n    tag_4:\n      tag_11\n      tag_12\n      jump\t// in\n    tag_11:\n      stop\n        /* \"tuple.sol\":562:669  function getArray(uint index) public view returns(string memory) {... */\n    tag_8:\n        /* \"tuple.sol\":612:625  string memory */\n      0x60\n        /* \"tuple.sol\":644:655  stringArray */\n      0x00\n        /* \"tuple.sol\":656:661  index */\n      dup3\n        /* \"tuple.sol\":644:662  stringArray[index] */\n      dup2\n      sload\n      dup2\n      lt\n      tag_14\n      jumpi\n      tag_15\n      tag_16\n      jump\t// in\n    tag_15:\n    tag_14:\n      swap1\n      0x00\n      mstore\n      keccak256(0x00, 0x20)\n      add\n        /* \"tuple.sol\":637:662  return stringArray[index] */\n      dup1\n      sload\n      tag_18\n      swap1\n      tag_19\n      jump\t// in\n    tag_18:\n      dup1\n      0x1f\n      add\n      0x20\n      dup1\n      swap2\n      div\n      mul\n      0x20\n      add\n      mload(0x40)\n      swap1\n      dup2\n      add\n      0x40\n      mstore\n      dup1\n      swap3\n      swap2\n      swap1\n      dup2\n      dup2\n      mstore\n      0x20\n      add\n      dup3\n      dup1\n      sload\n      tag_20\n      swap1\n      tag_19\n      jump\t// in\n    tag_20:\n      dup1\n      iszero\n      tag_21\n      jumpi\n      dup1\n      0x1f\n      lt\n      tag_22\n      jumpi\n      0x0100\n      dup1\n      dup4\n      sload\n      div\n      mul\n      dup4\n      mstore\n      swap2\n      0x20\n      add\n      swap2\n      jump(tag_21)\n    tag_22:\n      dup3\n      add\n      swap2\n      swap1\n      0x00\n      mstore\n      keccak256(0x00, 0x20)\n      swap1\n    tag_23:\n      dup2\n      sload\n      dup2\n      mstore\n      swap1\n      0x01\n      add\n      swap1\n      0x20\n      add\n      dup1\n      dup4\n      gt\n      tag_23\n      jumpi\n      dup3\n      swap1\n      sub\n      0x1f\n      and\n      dup3\n      add\n      swap2\n    tag_21:\n      pop\n      pop\n      pop\n      pop\n      pop\n      swap1\n      pop\n        /* \"tuple.sol\":562:669  function getArray(uint index) public view returns(string memory) {... */\n      swap2\n      swap1\n      pop\n      jump\t// out\n        /* \"tuple.sol\":437:555  function test() public {... */\n    tag_12:\n        /* \"tuple.sol\":470:481  stringArray */\n      0x00\n        /* \"tuple.sol\":470:504  stringArray.push(\"test message 1\") */\n      dup1\n      0x01\n      dup2\n      sload\n      add\n      dup1\n      dup3\n      sstore\n      dup1\n      swap2\n      pop\n      pop\n      0x01\n      swap1\n      sub\n      swap1\n      0x00\n      mstore\n      keccak256(0x00, 0x20)\n      add\n      0x00\n      mload(0x40)\n      dup1\n      0x40\n      add\n      0x40\n      mstore\n      dup1\n      0x0e\n      dup2\n      mstore\n      0x20\n      add\n      0x74657374206d6573736167652031000000000000000000000000000000000000\n      dup2\n      mstore\n      pop\n      swap1\n      swap2\n      swap1\n      swap2\n      pop\n      swap1\n      dup2\n      tag_26\n      swap2\n      swap1\n      tag_27\n      jump\t// in\n    tag_26:\n      pop\n        /* \"tuple.sol\":514:525  stringArray */\n      0x00\n        /* \"tuple.sol\":514:548  stringArray.push(\"test message 2\") */\n      dup1\n      0x01\n      dup2\n      sload\n      add\n      dup1\n      dup3\n      sstore\n      dup1\n      swap2\n      pop\n      pop\n      0x01\n      swap1\n      sub\n      swap1\n      0x00\n      mstore\n      keccak256(0x00, 0x20)\n      add\n      0x00\n      mload(0x40)\n      dup1\n      0x40\n      add\n      0x40\n      mstore\n      dup1\n      0x0e\n      dup2\n      mstore\n      0x20\n      add\n      0x74657374206d6573736167652032000000000000000000000000000000000000\n      dup2\n      mstore\n      pop\n      swap1\n      swap2\n      swap1\n      swap2\n      pop\n      swap1\n      dup2\n      tag_29\n      swap2\n      swap1\n      tag_27\n      jump\t// in\n    tag_29:\n      pop\n        /* \"tuple.sol\":437:555  function test() public {... */\n      jump\t// out\n        /* \"#utility.yul\":88:205   */\n    tag_31:\n        /* \"#utility.yul\":197:198   */\n      0x00\n        /* \"#utility.yul\":194:195   */\n      dup1\n        /* \"#utility.yul\":187:199   */\n      revert\n        /* \"#utility.yul\":334:411   */\n    tag_33:\n        /* \"#utility.yul\":371:378   */\n      0x00\n        /* \"#utility.yul\":400:405   */\n      dup2\n        /* \"#utility.yul\":389:405   */\n      swap1\n      pop\n        /* \"#utility.yul\":334:411   */\n      swap2\n      swap1\n      pop\n      jump\t// out\n        /* \"#utility.yul\":417:539   */\n    tag_34:\n        /* \"#utility.yul\":490:514   */\n      tag_64\n        /* \"#utility.yul\":508:513   */\n      dup2\n        /* \"#utility.yul\":490:514   */\n      tag_33\n      jump\t// in\n    tag_64:\n        /* \"#utility.yul\":483:488   */\n      dup2\n        /* \"#utility.yul\":480:515   */\n      eq\n        /* \"#utility.yul\":470:533   */\n      tag_65\n      jumpi\n        /* \"#utility.yul\":529:530   */\n      0x00\n        /* \"#utility.yul\":526:527   */\n      dup1\n        /* \"#utility.yul\":519:531   */\n      revert\n        /* \"#utility.yul\":470:533   */\n    tag_65:\n        /* \"#utility.yul\":417:539   */\n      pop\n      jump\t// out\n        /* \"#utility.yul\":545:684   */\n    tag_35:\n        /* \"#utility.yul\":591:596   */\n      0x00\n        /* \"#utility.yul\":629:635   */\n      dup2\n        /* \"#utility.yul\":616:636   */\n      calldataload\n        /* \"#utility.yul\":607:636   */\n      swap1\n      pop\n        /* \"#utility.yul\":645:678   */\n      tag_67\n        /* \"#utility.yul\":672:677   */\n      dup2\n        /* \"#utility.yul\":645:678   */\n      tag_34\n      jump\t// in\n    tag_67:\n        /* \"#utility.yul\":545:684   */\n      swap3\n      swap2\n      pop\n      pop\n      jump\t// out\n        /* \"#utility.yul\":690:1019   */\n    tag_7:\n        /* \"#utility.yul\":749:755   */\n      0x00\n        /* \"#utility.yul\":798:800   */\n      0x20\n        /* \"#utility.yul\":786:795   */\n      dup3\n        /* \"#utility.yul\":777:784   */\n      dup5\n        /* \"#utility.yul\":773:796   */\n      sub\n        /* \"#utility.yul\":769:801   */\n      slt\n        /* \"#utility.yul\":766:885   */\n      iszero\n      tag_69\n      jumpi\n        /* \"#utility.yul\":804:883   */\n      tag_70\n      tag_31\n      jump\t// in\n    tag_70:\n        /* \"#utility.yul\":766:885   */\n    tag_69:\n        /* \"#utility.yul\":924:925   */\n      0x00\n        /* \"#utility.yul\":949:1002   */\n      tag_71\n        /* \"#utility.yul\":994:1001   */\n      dup5\n        /* \"#utility.yul\":985:991   */\n      dup3\n        /* \"#utility.yul\":974:983   */\n      dup6\n        /* \"#utility.yul\":970:992   */\n      add\n        /* \"#utility.yul\":949:1002   */\n      tag_35\n      jump\t// in\n    tag_71:\n        /* \"#utility.yul\":939:1002   */\n      swap2\n      pop\n        /* \"#utility.yul\":895:1012   */\n      pop\n        /* \"#utility.yul\":690:1019   */\n      swap3\n      swap2\n      pop\n      pop\n      jump\t// out\n        /* \"#utility.yul\":1025:1124   */\n    tag_36:\n        /* \"#utility.yul\":1077:1083   */\n      0x00\n        /* \"#utility.yul\":1111:1116   */\n      dup2\n        /* \"#utility.yul\":1105:1117   */\n      mload\n        /* \"#utility.yul\":1095:1117   */\n      swap1\n      pop\n        /* \"#utility.yul\":1025:1124   */\n      swap2\n      swap1\n      pop\n      jump\t// out\n        /* \"#utility.yul\":1130:1299   */\n    tag_37:\n        /* \"#utility.yul\":1214:1225   */\n      0x00\n        /* \"#utility.yul\":1248:1254   */\n      dup3\n        /* \"#utility.yul\":1243:1246   */\n      dup3\n        /* \"#utility.yul\":1236:1255   */\n      mstore\n        /* \"#utility.yul\":1288:1292   */\n      0x20\n        /* \"#utility.yul\":1283:1286   */\n      dup3\n        /* \"#utility.yul\":1279:1293   */\n      add\n        /* \"#utility.yul\":1264:1293   */\n      swap1\n      pop\n        /* \"#utility.yul\":1130:1299   */\n      swap3\n      swap2\n      pop\n      pop\n      jump\t// out\n        /* \"#utility.yul\":1305:1551   */\n    tag_38:\n        /* \"#utility.yul\":1386:1387   */\n      0x00\n        /* \"#utility.yul\":1396:1509   */\n    tag_75:\n        /* \"#utility.yul\":1410:1416   */\n      dup4\n        /* \"#utility.yul\":1407:1408   */\n      dup2\n        /* \"#utility.yul\":1404:1417   */\n      lt\n        /* \"#utility.yul\":1396:1509   */\n      iszero\n      tag_77\n      jumpi\n        /* \"#utility.yul\":1495:1496   */\n      dup1\n        /* \"#utility.yul\":1490:1493   */\n      dup3\n        /* \"#utility.yul\":1486:1497   */\n      add\n        /* \"#utility.yul\":1480:1498   */\n      mload\n        /* \"#utility.yul\":1476:1477   */\n      dup2\n        /* \"#utility.yul\":1471:1474   */\n      dup5\n        /* \"#utility.yul\":1467:1478   */\n      add\n        /* \"#utility.yul\":1460:1499   */\n      mstore\n        /* \"#utility.yul\":1432:1434   */\n      0x20\n        /* \"#utility.yul\":1429:1430   */\n      dup2\n        /* \"#utility.yul\":1425:1435   */\n      add\n        /* \"#utility.yul\":1420:1435   */\n      swap1\n      pop\n        /* \"#utility.yul\":1396:1509   */\n      jump(tag_75)\n    tag_77:\n        /* \"#utility.yul\":1543:1544   */\n      0x00\n        /* \"#utility.yul\":1534:1540   */\n      dup5\n        /* \"#utility.yul\":1529:1532   */\n      dup5\n        /* \"#utility.yul\":1525:1541   */\n      add\n        /* \"#utility.yul\":1518:1545   */\n      mstore\n        /* \"#utility.yul\":1367:1551   */\n      pop\n        /* \"#utility.yul\":1305:1551   */\n      pop\n      pop\n      pop\n      jump\t// out\n        /* \"#utility.yul\":1557:1659   */\n    tag_39:\n        /* \"#utility.yul\":1598:1604   */\n      0x00\n        /* \"#utility.yul\":1649:1651   */\n      0x1f\n        /* \"#utility.yul\":1645:1652   */\n      not\n        /* \"#utility.yul\":1640:1642   */\n      0x1f\n        /* \"#utility.yul\":1633:1638   */\n      dup4\n        /* \"#utility.yul\":1629:1643   */\n      add\n        /* \"#utility.yul\":1625:1653   */\n      and\n        /* \"#utility.yul\":1615:1653   */\n      swap1\n      pop\n        /* \"#utility.yul\":1557:1659   */\n      swap2\n      swap1\n      pop\n      jump\t// out\n        /* \"#utility.yul\":1665:2042   */\n    tag_40:\n        /* \"#utility.yul\":1753:1756   */\n      0x00\n        /* \"#utility.yul\":1781:1820   */\n      tag_80\n        /* \"#utility.yul\":1814:1819   */\n      dup3\n        /* \"#utility.yul\":1781:1820   */\n      tag_36\n      jump\t// in\n    tag_80:\n        /* \"#utility.yul\":1836:1907   */\n      tag_81\n        /* \"#utility.yul\":1900:1906   */\n      dup2\n        /* \"#utility.yul\":1895:1898   */\n      dup6\n        /* \"#utility.yul\":1836:1907   */\n      tag_37\n      jump\t// in\n    tag_81:\n        /* \"#utility.yul\":1829:1907   */\n      swap4\n      pop\n        /* \"#utility.yul\":1916:1981   */\n      tag_82\n        /* \"#utility.yul\":1974:1980   */\n      dup2\n        /* \"#utility.yul\":1969:1972   */\n      dup6\n        /* \"#utility.yul\":1962:1966   */\n      0x20\n        /* \"#utility.yul\":1955:1960   */\n      dup7\n        /* \"#utility.yul\":1951:1967   */\n      add\n        /* \"#utility.yul\":1916:1981   */\n      tag_38\n      jump\t// in\n    tag_82:\n        /* \"#utility.yul\":2006:2035   */\n      tag_83\n        /* \"#utility.yul\":2028:2034   */\n      dup2\n        /* \"#utility.yul\":2006:2035   */\n      tag_39\n      jump\t// in\n    tag_83:\n        /* \"#utility.yul\":2001:2004   */\n      dup5\n        /* \"#utility.yul\":1997:2036   */\n      add\n        /* \"#utility.yul\":1990:2036   */\n      swap2\n      pop\n        /* \"#utility.yul\":1757:2042   */\n      pop\n        /* \"#utility.yul\":1665:2042   */\n      swap3\n      swap2\n      pop\n      pop\n      jump\t// out\n        /* \"#utility.yul\":2048:2361   */\n    tag_10:\n        /* \"#utility.yul\":2161:2165   */\n      0x00\n        /* \"#utility.yul\":2199:2201   */\n      0x20\n        /* \"#utility.yul\":2188:2197   */\n      dup3\n        /* \"#utility.yul\":2184:2202   */\n      add\n        /* \"#utility.yul\":2176:2202   */\n      swap1\n      pop\n        /* \"#utility.yul\":2248:2257   */\n      dup2\n        /* \"#utility.yul\":2242:2246   */\n      dup2\n        /* \"#utility.yul\":2238:2258   */\n      sub\n        /* \"#utility.yul\":2234:2235   */\n      0x00\n        /* \"#utility.yul\":2223:2232   */\n      dup4\n        /* \"#utility.yul\":2219:2236   */\n      add\n        /* \"#utility.yul\":2212:2259   */\n      mstore\n        /* \"#utility.yul\":2276:2354   */\n      tag_85\n        /* \"#utility.yul\":2349:2353   */\n      dup2\n        /* \"#utility.yul\":2340:2346   */\n      dup5\n        /* \"#utility.yul\":2276:2354   */\n      tag_40\n      jump\t// in\n    tag_85:\n        /* \"#utility.yul\":2268:2354   */\n      swap1\n      pop\n        /* \"#utility.yul\":2048:2361   */\n      swap3\n      swap2\n      pop\n      pop\n      jump\t// out\n        /* \"#utility.yul\":2367:2547   */\n    tag_16:\n        /* \"#utility.yul\":2415:2492   */\n      0x4e487b7100000000000000000000000000000000000000000000000000000000\n        /* \"#utility.yul\":2412:2413   */\n      0x00\n        /* \"#utility.yul\":2405:2493   */\n      mstore\n        /* \"#utility.yul\":2512:2516   */\n      0x32\n        /* \"#utility.yul\":2509:2510   */\n      0x04\n        /* \"#utility.yul\":2502:2517   */\n      mstore\n        /* \"#utility.yul\":2536:2540   */\n      0x24\n        /* \"#utility.yul\":2533:2534   */\n      0x00\n        /* \"#utility.yul\":2526:2541   */\n      revert\n        /* \"#utility.yul\":2553:2733   */\n    tag_41:\n        /* \"#utility.yul\":2601:2678   */\n      0x4e487b7100000000000000000000000000000000000000000000000000000000\n        /* \"#utility.yul\":2598:2599   */\n      0x00\n        /* \"#utility.yul\":2591:2679   */\n      mstore\n        /* \"#utility.yul\":2698:2702   */\n      0x22\n        /* \"#utility.yul\":2695:2696   */\n      0x04\n        /* \"#utility.yul\":2688:2703   */\n      mstore\n        /* \"#utility.yul\":2722:2726   */\n      0x24\n        /* \"#utility.yul\":2719:2720   */\n      0x00\n        /* \"#utility.yul\":2712:2727   */\n      revert\n        /* \"#utility.yul\":2739:3059   */\n    tag_19:\n        /* \"#utility.yul\":2783:2789   */\n      0x00\n        /* \"#utility.yul\":2820:2821   */\n      0x02\n        /* \"#utility.yul\":2814:2818   */\n      dup3\n        /* \"#utility.yul\":2810:2822   */\n      div\n        /* \"#utility.yul\":2800:2822   */\n      swap1\n      pop\n        /* \"#utility.yul\":2867:2868   */\n      0x01\n        /* \"#utility.yul\":2861:2865   */\n      dup3\n        /* \"#utility.yul\":2857:2869   */\n      and\n        /* \"#utility.yul\":2888:2906   */\n      dup1\n        /* \"#utility.yul\":2878:2959   */\n      tag_89\n      jumpi\n        /* \"#utility.yul\":2944:2948   */\n      0x7f\n        /* \"#utility.yul\":2936:2942   */\n      dup3\n        /* \"#utility.yul\":2932:2949   */\n      and\n        /* \"#utility.yul\":2922:2949   */\n      swap2\n      pop\n        /* \"#utility.yul\":2878:2959   */\n    tag_89:\n        /* \"#utility.yul\":3006:3008   */\n      0x20\n        /* \"#utility.yul\":2998:3004   */\n      dup3\n        /* \"#utility.yul\":2995:3009   */\n      lt\n        /* \"#utility.yul\":2975:2993   */\n      dup2\n        /* \"#utility.yul\":2972:3010   */\n      sub\n        /* \"#utility.yul\":2969:3053   */\n      tag_90\n      jumpi\n        /* \"#utility.yul\":3025:3043   */\n      tag_91\n      tag_41\n      jump\t// in\n    tag_91:\n        /* \"#utility.yul\":2969:3053   */\n    tag_90:\n        /* \"#utility.yul\":2790:3059   */\n      pop\n        /* \"#utility.yul\":2739:3059   */\n      swap2\n      swap1\n      pop\n      jump\t// out\n        /* \"#utility.yul\":3065:3245   */\n    tag_42:\n        /* \"#utility.yul\":3113:3190   */\n      0x4e487b7100000000000000000000000000000000000000000000000000000000\n        /* \"#utility.yul\":3110:3111   */\n      0x00\n        /* \"#utility.yul\":3103:3191   */\n      mstore\n        /* \"#utility.yul\":3210:3214   */\n      0x41\n        /* \"#utility.yul\":3207:3208   */\n      0x04\n        /* \"#utility.yul\":3200:3215   */\n      mstore\n        /* \"#utility.yul\":3234:3238   */\n      0x24\n        /* \"#utility.yul\":3231:3232   */\n      0x00\n        /* \"#utility.yul\":3224:3239   */\n      revert\n        /* \"#utility.yul\":3251:3392   */\n    tag_43:\n        /* \"#utility.yul\":3300:3304   */\n      0x00\n        /* \"#utility.yul\":3323:3326   */\n      dup2\n        /* \"#utility.yul\":3315:3326   */\n      swap1\n      pop\n        /* \"#utility.yul\":3346:3349   */\n      dup2\n        /* \"#utility.yul\":3343:3344   */\n      0x00\n        /* \"#utility.yul\":3336:3350   */\n      mstore\n        /* \"#utility.yul\":3380:3384   */\n      0x20\n        /* \"#utility.yul\":3377:3378   */\n      0x00\n        /* \"#utility.yul\":3367:3385   */\n      keccak256\n        /* \"#utility.yul\":3359:3385   */\n      swap1\n      pop\n        /* \"#utility.yul\":3251:3392   */\n      swap2\n      swap1\n      pop\n      jump\t// out\n        /* \"#utility.yul\":3398:3491   */\n    tag_44:\n        /* \"#utility.yul\":3435:3441   */\n      0x00\n        /* \"#utility.yul\":3482:3484   */\n      0x20\n        /* \"#utility.yul\":3477:3479   */\n      0x1f\n        /* \"#utility.yul\":3470:3475   */\n      dup4\n        /* \"#utility.yul\":3466:3480   */\n      add\n        /* \"#utility.yul\":3462:3485   */\n      div\n        /* \"#utility.yul\":3452:3485   */\n      swap1\n      pop\n        /* \"#utility.yul\":3398:3491   */\n      swap2\n      swap1\n      pop\n      jump\t// out\n        /* \"#utility.yul\":3497:3604   */\n    tag_45:\n        /* \"#utility.yul\":3541:3549   */\n      0x00\n        /* \"#utility.yul\":3591:3596   */\n      dup3\n        /* \"#utility.yul\":3585:3589   */\n      dup3\n        /* \"#utility.yul\":3581:3597   */\n      shl\n        /* \"#utility.yul\":3560:3597   */\n      swap1\n      pop\n        /* \"#utility.yul\":3497:3604   */\n      swap3\n      swap2\n      pop\n      pop\n      jump\t// out\n        /* \"#utility.yul\":3610:4003   */\n    tag_46:\n        /* \"#utility.yul\":3679:3685   */\n      0x00\n        /* \"#utility.yul\":3729:3730   */\n      0x08\n        /* \"#utility.yul\":3717:3727   */\n      dup4\n        /* \"#utility.yul\":3713:3731   */\n      mul\n        /* \"#utility.yul\":3752:3849   */\n      tag_97\n        /* \"#utility.yul\":3782:3848   */\n      0xffffffffffffffffffffffffffffffffffffffffffffffffffffffffffffffff\n        /* \"#utility.yul\":3771:3780   */\n      dup3\n        /* \"#utility.yul\":3752:3849   */\n      tag_45\n      jump\t// in\n    tag_97:\n        /* \"#utility.yul\":3870:3909   */\n      tag_98\n        /* \"#utility.yul\":3900:3908   */\n      dup7\n        /* \"#utility.yul\":3889:3898   */\n      dup4\n        /* \"#utility.yul\":3870:3909   */\n      tag_45\n      jump\t// in\n    tag_98:\n        /* \"#utility.yul\":3858:3909   */\n      swap6\n      pop\n        /* \"#utility.yul\":3942:3946   */\n      dup1\n        /* \"#utility.yul\":3938:3947   */\n      not\n        /* \"#utility.yul\":3931:3936   */\n      dup5\n        /* \"#utility.yul\":3927:3948   */\n      and\n        /* \"#utility.yul\":3918:3948   */\n      swap4\n      pop\n        /* \"#utility.yul\":3991:3995   */\n      dup1\n        /* \"#utility.yul\":3981:3989   */\n      dup7\n        /* \"#utility.yul\":3977:3996   */\n      and\n        /* \"#utility.yul\":3970:3975   */\n      dup5\n        /* \"#utility.yul\":3967:3997   */\n      or\n        /* \"#utility.yul\":3957:3997   */\n      swap3\n      pop\n        /* \"#utility.yul\":3686:4003   */\n      pop\n      pop\n        /* \"#utility.yul\":3610:4003   */\n      swap4\n      swap3\n      pop\n      pop\n      pop\n      jump\t// out\n        /* \"#utility.yul\":4009:4069   */\n    tag_47:\n        /* \"#utility.yul\":4037:4040   */\n      0x00\n        /* \"#utility.yul\":4058:4063   */\n      dup2\n        /* \"#utility.yul\":4051:4063   */\n      swap1\n      pop\n        /* \"#utility.yul\":4009:4069   */\n      swap2\n      swap1\n      pop\n      jump\t// out\n        /* \"#utility.yul\":4075:4217   */\n    tag_48:\n        /* \"#utility.yul\":4125:4134   */\n      0x00\n        /* \"#utility.yul\":4158:4211   */\n      tag_101\n        /* \"#utility.yul\":4176:4210   */\n      tag_102\n        /* \"#utility.yul\":4185:4209   */\n      tag_103\n        /* \"#utility.yul\":4203:4208   */\n      dup5\n        /* \"#utility.yul\":4185:4209   */\n      tag_33\n      jump\t// in\n    tag_103:\n        /* \"#utility.yul\":4176:4210   */\n      tag_47\n      jump\t// in\n    tag_102:\n        /* \"#utility.yul\":4158:4211   */\n      tag_33\n      jump\t// in\n    tag_101:\n        /* \"#utility.yul\":4145:4211   */\n      swap1\n      pop\n        /* \"#utility.yul\":4075:4217   */\n      swap2\n      swap1\n      pop\n      jump\t// out\n        /* \"#utility.yul\":4223:4298   */\n    tag_49:\n        /* \"#utility.yul\":4266:4269   */\n      0x00\n        /* \"#utility.yul\":4287:4292   */\n      dup2\n        /* \"#utility.yul\":4280:4292   */\n      swap1\n      pop\n        /* \"#utility.yul\":4223:4298   */\n      swap2\n      swap1\n      pop\n      jump\t// out\n        /* \"#utility.yul\":4304:4573   */\n    tag_50:\n        /* \"#utility.yul\":4414:4453   */\n      tag_106\n        /* \"#utility.yul\":4445:4452   */\n      dup4\n        /* \"#utility.yul\":4414:4453   */\n      tag_48\n      jump\t// in\n    tag_106:\n        /* \"#utility.yul\":4475:4566   */\n      tag_107\n        /* \"#utility.yul\":4524:4565   */\n      tag_108\n        /* \"#utility.yul\":4548:4564   */\n      dup3\n        /* \"#utility.yul\":4524:4565   */\n      tag_49\n      jump\t// in\n    tag_108:\n        /* \"#utility.yul\":4516:4522   */\n      dup5\n        /* \"#utility.yul\":4509:4513   */\n      dup5\n        /* \"#utility.yul\":4503:4514   */\n      sload\n        /* \"#utility.yul\":4475:4566   */\n      tag_46\n      jump\t// in\n    tag_107:\n        /* \"#utility.yul\":4469:4473   */\n      dup3\n        /* \"#utility.yul\":4462:4567   */\n      sstore\n        /* \"#utility.yul\":4380:4573   */\n      pop\n        /* \"#utility.yul\":4304:4573   */\n      pop\n      pop\n      pop\n      jump\t// out\n        /* \"#utility.yul\":4579:4652   */\n    tag_51:\n        /* \"#utility.yul\":4624:4627   */\n      0x00\n        /* \"#utility.yul\":4579:4652   */\n      swap1\n      jump\t// out\n        /* \"#utility.yul\":4658:4847   */\n    tag_52:\n        /* \"#utility.yul\":4735:4767   */\n      tag_111\n      tag_51\n      jump\t// in\n    tag_111:\n        /* \"#utility.yul\":4776:4841   */\n      tag_112\n        /* \"#utility.yul\":4834:4840   */\n      dup2\n        /* \"#utility.yul\":4826:4832   */\n      dup5\n        /* \"#utility.yul\":4820:4824   */\n      dup5\n        /* \"#utility.yul\":4776:4841   */\n      tag_50\n      jump\t// in\n    tag_112:\n        /* \"#utility.yul\":4711:4847   */\n      pop\n        /* \"#utility.yul\":4658:4847   */\n      pop\n      pop\n      jump\t// out\n        /* \"#utility.yul\":4853:5039   */\n    tag_53:\n        /* \"#utility.yul\":4913:5033   */\n    tag_114:\n        /* \"#utility.yul\":4930:4933   */\n      dup2\n        /* \"#utility.yul\":4923:4928   */\n      dup2\n        /* \"#utility.yul\":4920:4934   */\n      lt\n        /* \"#utility.yul\":4913:5033   */\n      iszero\n      tag_116\n      jumpi\n        /* \"#utility.yul\":4984:5023   */\n      tag_117\n        /* \"#utility.yul\":5021:5022   */\n      0x00\n        /* \"#utility.yul\":5014:5019   */\n      dup3\n        /* \"#utility.yul\":4984:5023   */\n      tag_52\n      jump\t// in\n    tag_117:\n        /* \"#utility.yul\":4957:4958   */\n      0x01\n        /* \"#utility.yul\":4950:4955   */\n      dup2\n        /* \"#utility.yul\":4946:4959   */\n      add\n        /* \"#utility.yul\":4937:4959   */\n      swap1\n      pop\n        /* \"#utility.yul\":4913:5033   */\n      jump(tag_114)\n    tag_116:\n        /* \"#utility.yul\":4853:5039   */\n      pop\n      pop\n      jump\t// out\n        /* \"#utility.yul\":5045:5588   */\n    tag_54:\n        /* \"#utility.yul\":5146:5148   */\n      0x1f\n        /* \"#utility.yul\":5141:5144   */\n      dup3\n        /* \"#utility.yul\":5138:5149   */\n      gt\n        /* \"#utility.yul\":5135:5581   */\n      iszero\n      tag_119\n      jumpi\n        /* \"#utility.yul\":5180:5218   */\n      tag_120\n        /* \"#utility.yul\":5212:5217   */\n      dup2\n        /* \"#utility.yul\":5180:5218   */\n      tag_43\n      jump\t// in\n    tag_120:\n        /* \"#utility.yul\":5264:5293   */\n      tag_121\n        /* \"#utility.yul\":5282:5292   */\n      dup5\n        /* \"#utility.yul\":5264:5293   */\n      tag_44\n      jump\t// in\n    tag_121:\n        /* \"#utility.yul\":5254:5262   */\n      dup2\n        /* \"#utility.yul\":5250:5294   */\n      add\n        /* \"#utility.yul\":5447:5449   */\n      0x20\n        /* \"#utility.yul\":5435:5445   */\n      dup6\n        /* \"#utility.yul\":5432:5450   */\n      lt\n        /* \"#utility.yul\":5429:5478   */\n      iszero\n      tag_122\n      jumpi\n        /* \"#utility.yul\":5468:5476   */\n      dup2\n        /* \"#utility.yul\":5453:5476   */\n      swap1\n      pop\n        /* \"#utility.yul\":5429:5478   */\n    tag_122:\n        /* \"#utility.yul\":5491:5571   */\n      tag_123\n        /* \"#utility.yul\":5547:5569   */\n      tag_124\n        /* \"#utility.yul\":5565:5568   */\n      dup6\n        /* \"#utility.yul\":5547:5569   */\n      tag_44\n      jump\t// in\n    tag_124:\n        /* \"#utility.yul\":5537:5545   */\n      dup4\n        /* \"#utility.yul\":5533:5570   */\n      add\n        /* \"#utility.yul\":5520:5531   */\n      dup3\n        /* \"#utility.yul\":5491:5571   */\n      tag_53\n      jump\t// in\n    tag_123:\n        /* \"#utility.yul\":5150:5581   */\n      pop\n      pop\n        /* \"#utility.yul\":5135:5581   */\n    tag_119:\n        /* \"#utility.yul\":5045:5588   */\n      pop\n      pop\n      pop\n      jump\t// out\n        /* \"#utility.yul\":5594:5711   */\n    tag_55:\n        /* \"#utility.yul\":5648:5656   */\n      0x00\n        /* \"#utility.yul\":5698:5703   */\n      dup3\n        /* \"#utility.yul\":5692:5696   */\n      dup3\n        /* \"#utility.yul\":5688:5704   */\n      shr\n        /* \"#utility.yul\":5667:5704   */\n      swap1\n      pop\n        /* \"#utility.yul\":5594:5711   */\n      swap3\n      swap2\n      pop\n      pop\n      jump\t// out\n        /* \"#utility.yul\":5717:5886   */\n    tag_56:\n        /* \"#utility.yul\":5761:5767   */\n      0x00\n        /* \"#utility.yul\":5794:5845   */\n      tag_127\n        /* \"#utility.yul\":5842:5843   */\n      0x00\n        /* \"#utility.yul\":5838:5844   */\n      not\n        /* \"#utility.yul\":5830:5835   */\n      dup5\n        /* \"#utility.yul\":5827:5828   */\n      0x08\n        /* \"#utility.yul\":5823:5836   */\n      mul\n        /* \"#utility.yul\":5794:5845   */\n      tag_55\n      jump\t// in\n    tag_127:\n        /* \"#utility.yul\":5790:5846   */\n      not\n        /* \"#utility.yul\":5875:5879   */\n      dup1\n        /* \"#utility.yul\":5869:5873   */\n      dup4\n        /* \"#utility.yul\":5865:5880   */\n      and\n        /* \"#utility.yul\":5855:5880   */\n      swap2\n      pop\n        /* \"#utility.yul\":5768:5886   */\n      pop\n        /* \"#utility.yul\":5717:5886   */\n      swap3\n      swap2\n      pop\n      pop\n      jump\t// out\n        /* \"#utility.yul\":5891:6186   */\n    tag_57:\n        /* \"#utility.yul\":5967:5971   */\n      0x00\n        /* \"#utility.yul\":6113:6142   */\n      tag_129\n        /* \"#utility.yul\":6138:6141   */\n      dup4\n        /* \"#utility.yul\":6132:6136   */\n      dup4\n        /* \"#utility.yul\":6113:6142   */\n      tag_56\n      jump\t// in\n    tag_129:\n        /* \"#utility.yul\":6105:6142   */\n      swap2\n      pop\n        /* \"#utility.yul\":6175:6178   */\n      dup3\n        /* \"#utility.yul\":6172:6173   */\n      0x02\n        /* \"#utility.yul\":6168:6179   */\n      mul\n        /* \"#utility.yul\":6162:6166   */\n      dup3\n        /* \"#utility.yul\":6159:6180   */\n      or\n        /* \"#utility.yul\":6151:6180   */\n      swap1\n      pop\n        /* \"#utility.yul\":5891:6186   */\n      swap3\n      swap2\n      pop\n      pop\n      jump\t// out\n        /* \"#utility.yul\":6191:7586   */\n    tag_27:\n        /* \"#utility.yul\":6308:6345   */\n      tag_131\n        /* \"#utility.yul\":6341:6344   */\n      dup3\n        /* \"#utility.yul\":6308:6345   */\n      tag_36\n      jump\t// in\n    tag_131:\n        /* \"#utility.yul\":6410:6428   */\n      0xffffffffffffffff\n        /* \"#utility.yul\":6402:6408   */\n      dup2\n        /* \"#utility.yul\":6399:6429   */\n      gt\n        /* \"#utility.yul\":6396:6452   */\n      iszero\n      tag_132\n      jumpi\n        /* \"#utility.yul\":6432:6450   */\n      tag_133\n      tag_42\n      jump\t// in\n    tag_133:\n        /* \"#utility.yul\":6396:6452   */\n    tag_132:\n        /* \"#utility.yul\":6476:6514   */\n      tag_134\n        /* \"#utility.yul\":6508:6512   */\n      dup3\n        /* \"#utility.yul\":6502:6513   */\n      sload\n        /* \"#utility.yul\":6476:6514   */\n      tag_19\n      jump\t// in\n    tag_134:\n        /* \"#utility.yul\":6561:6628   */\n      tag_135\n        /* \"#utility.yul\":6621:6627   */\n      dup3\n        /* \"#utility.yul\":6613:6619   */\n      dup3\n        /* \"#utility.yul\":6607:6611   */\n      dup6\n        /* \"#utility.yul\":6561:6628   */\n      tag_54\n      jump\t// in\n    tag_135:\n        /* \"#utility.yul\":6655:6656   */\n      0x00\n        /* \"#utility.yul\":6679:6683   */\n      0x20\n        /* \"#utility.yul\":6666:6683   */\n      swap1\n      pop\n        /* \"#utility.yul\":6711:6713   */\n      0x1f\n        /* \"#utility.yul\":6703:6709   */\n      dup4\n        /* \"#utility.yul\":6700:6714   */\n      gt\n        /* \"#utility.yul\":6728:6729   */\n      0x01\n        /* \"#utility.yul\":6723:7341   */\n      dup2\n      eq\n      tag_137\n      jumpi\n        /* \"#utility.yul\":7385:7386   */\n      0x00\n        /* \"#utility.yul\":7402:7408   */\n      dup5\n        /* \"#utility.yul\":7399:7476   */\n      iszero\n      tag_138\n      jumpi\n        /* \"#utility.yul\":7451:7460   */\n      dup3\n        /* \"#utility.yul\":7446:7449   */\n      dup8\n        /* \"#utility.yul\":7442:7461   */\n      add\n        /* \"#utility.yul\":7436:7462   */\n      mload\n        /* \"#utility.yul\":7427:7462   */\n      swap1\n      pop\n        /* \"#utility.yul\":7399:7476   */\n    tag_138:\n        /* \"#utility.yul\":7502:7569   */\n      tag_139\n        /* \"#utility.yul\":7562:7568   */\n      dup6\n        /* \"#utility.yul\":7555:7560   */\n      dup3\n        /* \"#utility.yul\":7502:7569   */\n      tag_57\n      jump\t// in\n    tag_139:\n        /* \"#utility.yul\":7496:7500   */\n      dup7\n        /* \"#utility.yul\":7489:7570   */\n      sstore\n        /* \"#utility.yul\":7358:7580   */\n      pop\n        /* \"#utility.yul\":6693:7580   */\n      jump(tag_136)\n        /* \"#utility.yul\":6723:7341   */\n    tag_137:\n        /* \"#utility.yul\":6775:6779   */\n      0x1f\n        /* \"#utility.yul\":6771:6780   */\n      not\n        /* \"#utility.yul\":6763:6769   */\n      dup5\n        /* \"#utility.yul\":6759:6781   */\n      and\n        /* \"#utility.yul\":6809:6846   */\n      tag_140\n        /* \"#utility.yul\":6841:6845   */\n      dup7\n        /* \"#utility.yul\":6809:6846   */\n      tag_43\n      jump\t// in\n    tag_140:\n        /* \"#utility.yul\":6868:6869   */\n      0x00\n        /* \"#utility.yul\":6882:7090   */\n    tag_141:\n        /* \"#utility.yul\":6896:6903   */\n      dup3\n        /* \"#utility.yul\":6893:6894   */\n      dup2\n        /* \"#utility.yul\":6890:6904   */\n      lt\n        /* \"#utility.yul\":6882:7090   */\n      iszero\n      tag_143\n      jumpi\n        /* \"#utility.yul\":6975:6984   */\n      dup5\n        /* \"#utility.yul\":6970:6973   */\n      dup10\n        /* \"#utility.yul\":6966:6985   */\n      add\n        /* \"#utility.yul\":6960:6986   */\n      mload\n        /* \"#utility.yul\":6952:6958   */\n      dup3\n        /* \"#utility.yul\":6945:6987   */\n      sstore\n        /* \"#utility.yul\":7026:7027   */\n      0x01\n        /* \"#utility.yul\":7018:7024   */\n      dup3\n        /* \"#utility.yul\":7014:7028   */\n      add\n        /* \"#utility.yul\":7004:7028   */\n      swap2\n      pop\n        /* \"#utility.yul\":7073:7075   */\n      0x20\n        /* \"#utility.yul\":7062:7071   */\n      dup6\n        /* \"#utility.yul\":7058:7076   */\n      add\n        /* \"#utility.yul\":7045:7076   */\n      swap5\n      pop\n        /* \"#utility.yul\":6919:6923   */\n      0x20\n        /* \"#utility.yul\":6916:6917   */\n      dup2\n        /* \"#utility.yul\":6912:6924   */\n      add\n        /* \"#utility.yul\":6907:6924   */\n      swap1\n      pop\n        /* \"#utility.yul\":6882:7090   */\n      jump(tag_141)\n    tag_143:\n        /* \"#utility.yul\":7118:7124   */\n      dup7\n        /* \"#utility.yul\":7109:7116   */\n      dup4\n        /* \"#utility.yul\":7106:7125   */\n      lt\n        /* \"#utility.yul\":7103:7282   */\n      iszero\n      tag_144\n      jumpi\n        /* \"#utility.yul\":7176:7185   */\n      dup5\n        /* \"#utility.yul\":7171:7174   */\n      dup10\n        /* \"#utility.yul\":7167:7186   */\n      add\n        /* \"#utility.yul\":7161:7187   */\n      mload\n        /* \"#utility.yul\":7219:7267   */\n      tag_145\n        /* \"#utility.yul\":7261:7265   */\n      0x1f\n        /* \"#utility.yul\":7253:7259   */\n      dup10\n        /* \"#utility.yul\":7249:7266   */\n      and\n        /* \"#utility.yul\":7238:7247   */\n      dup3\n        /* \"#utility.yul\":7219:7267   */\n      tag_56\n      jump\t// in\n    tag_145:\n        /* \"#utility.yul\":7211:7217   */\n      dup4\n        /* \"#utility.yul\":7204:7268   */\n      sstore\n        /* \"#utility.yul\":7126:7282   */\n      pop\n        /* \"#utility.yul\":7103:7282   */\n    tag_144:\n        /* \"#utility.yul\":7328:7329   */\n      0x01\n        /* \"#utility.yul\":7324:7325   */\n      0x02\n        /* \"#utility.yul\":7316:7322   */\n      dup9\n        /* \"#utility.yul\":7312:7326   */\n      mul\n        /* \"#utility.yul\":7308:7330   */\n      add\n        /* \"#utility.yul\":7302:7306   */\n      dup9\n        /* \"#utility.yul\":7295:7331   */\n      sstore\n        /* \"#utility.yul\":6730:7341   */\n      pop\n      pop\n      pop\n        /* \"#utility.yul\":6693:7580   */\n    tag_136:\n      pop\n        /* \"#utility.yul\":6283:7586   */\n      pop\n      pop\n      pop\n        /* \"#utility.yul\":6191:7586   */\n      pop\n      pop\n      jump\t// out\n\n    auxdata: 0xa2646970667358221220ddc1a7a437aeca9497e2735038d40339ca5d03e277981c7f8362869455f9ea9164736f6c63430008110033\n}\n",
				"bytecode": {
					"linkReferences": {},
					"object": "608060405234801561001057600080fd5b50610681806100206000396000f3fe608060405234801561001057600080fd5b50600436106100365760003560e01c8063ab35ec631461003b578063f8a8fd6d1461006b575b600080fd5b61005560048036038101906100509190610230565b610075565b60405161006291906102ed565b60405180910390f35b610073610125565b005b60606000828154811061008b5761008a61030f565b5b9060005260206000200180546100a09061036d565b80601f01602080910402602001604051908101604052809291908181526020018280546100cc9061036d565b80156101195780601f106100ee57610100808354040283529160200191610119565b820191906000526020600020905b8154815290600101906020018083116100fc57829003601f168201915b50505050509050919050565b600080600181540180825580915050600190039060005260206000200160006040518060400160405280600e81526020017f74657374206d65737361676520310000000000000000000000000000000000008152509091909150908161018b9190610579565b50600080600181540180825580915050600190039060005260206000200160006040518060400160405280600e81526020017f74657374206d6573736167652032000000000000000000000000000000000000815250909190915090816101f29190610579565b50565b600080fd5b6000819050919050565b61020d816101fa565b811461021857600080fd5b50565b60008135905061022a81610204565b92915050565b600060208284031215610246576102456101f5565b5b60006102548482850161021b565b91505092915050565b600081519050919050565b600082825260208201905092915050565b60005b8381101561029757808201518184015260208101905061027c565b60008484015250505050565b6000601f19601f8301169050919050565b60006102bf8261025d565b6102c98185610268565b93506102d9818560208601610279565b6102e2816102a3565b840191505092915050565b6000602082019050818103600083015261030781846102b4565b905092915050565b7f4e487b7100000000000000000000000000000000000000000000000000000000600052603260045260246000fd5b7f4e487b7100000000000000000000000000000000000000000000000000000000600052602260045260246000fd5b6000600282049050600182168061038557607f821691505b6020821081036103985761039761033e565b5b50919050565b7f4e487b7100000000000000000000000000000000000000000000000000000000600052604160045260246000fd5b60008190508160005260206000209050919050565b60006020601f8301049050919050565b600082821b905092915050565b60006008830261042f7fffffffffffffffffffffffffffffffffffffffffffffffffffffffffffffffff826103f2565b61043986836103f2565b95508019841693508086168417925050509392505050565b6000819050919050565b600061047661047161046c846101fa565b610451565b6101fa565b9050919050565b6000819050919050565b6104908361045b565b6104a461049c8261047d565b8484546103ff565b825550505050565b600090565b6104b96104ac565b6104c4818484610487565b505050565b5b818110156104e8576104dd6000826104b1565b6001810190506104ca565b5050565b601f82111561052d576104fe816103cd565b610507846103e2565b81016020851015610516578190505b61052a610522856103e2565b8301826104c9565b50505b505050565b600082821c905092915050565b600061055060001984600802610532565b1980831691505092915050565b6000610569838361053f565b9150826002028217905092915050565b6105828261025d565b67ffffffffffffffff81111561059b5761059a61039e565b5b6105a5825461036d565b6105b08282856104ec565b600060209050601f8311600181146105e357600084156105d1578287015190505b6105db858261055d565b865550610643565b601f1984166105f1866103cd565b60005b82811015610619578489015182556001820191506020850194506020810190506105f4565b868310156106365784890151610632601f89168261053f565b8355505b6001600288020188555050505b50505050505056fea2646970667358221220ddc1a7a437aeca9497e2735038d40339ca5d03e277981c7f8362869455f9ea9164736f6c63430008110033",
					"opcodes": "PUSH1 0x80 PUSH1 0x40 MSTORE CALLVALUE DUP1 ISZERO PUSH2 0x10 JUMPI PUSH1 0x0 DUP1 REVERT JUMPDEST POP PUSH2 0x681 DUP1 PUSH2 0x20 PUSH1 0x0 CODECOPY PUSH1 0x0 RETURN INVALID PUSH1 0x80 PUSH1 0x40 MSTORE CALLVALUE DUP1 ISZERO PUSH2 0x10 JUMPI PUSH1 0x0 DUP1 REVERT JUMPDEST POP PUSH1 0x4 CALLDATASIZE LT PUSH2 0x36 JUMPI PUSH1 0x0 CALLDATALOAD PUSH1 0xE0 SHR DUP1 PUSH4 0xAB35EC63 EQ PUSH2 0x3B JUMPI DUP1 PUSH4 0xF8A8FD6D EQ PUSH2 0x6B JUMPI JUMPDEST PUSH1 0x0 DUP1 REVERT JUMPDEST PUSH2 0x55 PUSH1 0x4 DUP1 CALLDATASIZE SUB DUP2 ADD SWAP1 PUSH2 0x50 SWAP2 SWAP1 PUSH2 0x230 JUMP JUMPDEST PUSH2 0x75 JUMP JUMPDEST PUSH1 0x40 MLOAD PUSH2 0x62 SWAP2 SWAP1 PUSH2 0x2ED JUMP JUMPDEST PUSH1 0x40 MLOAD DUP1 SWAP2 SUB SWAP1 RETURN JUMPDEST PUSH2 0x73 PUSH2 0x125 JUMP JUMPDEST STOP JUMPDEST PUSH1 0x60 PUSH1 0x0 DUP3 DUP2 SLOAD DUP2 LT PUSH2 0x8B JUMPI PUSH2 0x8A PUSH2 0x30F JUMP JUMPDEST JUMPDEST SWAP1 PUSH1 0x0 MSTORE PUSH1 0x20 PUSH1 0x0 KECCAK256 ADD DUP1 SLOAD PUSH2 0xA0 SWAP1 PUSH2 0x36D JUMP JUMPDEST DUP1 PUSH1 0x1F ADD PUSH1 0x20 DUP1 SWAP2 DIV MUL PUSH1 0x20 ADD PUSH1 0x40 MLOAD SWAP1 DUP2 ADD PUSH1 0x40 MSTORE DUP1 SWAP3 SWAP2 SWAP1 DUP2 DUP2 MSTORE PUSH1 0x20 ADD DUP3 DUP1 SLOAD PUSH2 0xCC SWAP1 PUSH2 0x36D JUMP JUMPDEST DUP1 ISZERO PUSH2 0x119 JUMPI DUP1 PUSH1 0x1F LT PUSH2 0xEE JUMPI PUSH2 0x100 DUP1 DUP4 SLOAD DIV MUL DUP4 MSTORE SWAP2 PUSH1 0x20 ADD SWAP2 PUSH2 0x119 JUMP JUMPDEST DUP3 ADD SWAP2 SWAP1 PUSH1 0x0 MSTORE PUSH1 0x20 PUSH1 0x0 KECCAK256 SWAP1 JUMPDEST DUP2 SLOAD DUP2 MSTORE SWAP1 PUSH1 0x1 ADD SWAP1 PUSH1 0x20 ADD DUP1 DUP4 GT PUSH2 0xFC JUMPI DUP3 SWAP1 SUB PUSH1 0x1F AND DUP3 ADD SWAP2 JUMPDEST POP POP POP POP POP SWAP1 POP SWAP2 SWAP1 POP JUMP JUMPDEST PUSH1 0x0 DUP1 PUSH1 0x1 DUP2 SLOAD ADD DUP1 DUP3 SSTORE DUP1 SWAP2 POP POP PUSH1 0x1 SWAP1 SUB SWAP1 PUSH1 0x0 MSTORE PUSH1 0x20 PUSH1 0x0 KECCAK256 ADD PUSH1 0x0 PUSH1 0x40 MLOAD DUP1 PUSH1 0x40 ADD PUSH1 0x40 MSTORE DUP1 PUSH1 0xE DUP2 MSTORE PUSH1 0x20 ADD PUSH32 0x74657374206D6573736167652031000000000000000000000000000000000000 DUP2 MSTORE POP SWAP1 SWAP2 SWAP1 SWAP2 POP SWAP1 DUP2 PUSH2 0x18B SWAP2 SWAP1 PUSH2 0x579 JUMP JUMPDEST POP PUSH1 0x0 DUP1 PUSH1 0x1 DUP2 SLOAD ADD DUP1 DUP3 SSTORE DUP1 SWAP2 POP POP PUSH1 0x1 SWAP1 SUB SWAP1 PUSH1 0x0 MSTORE PUSH1 0x20 PUSH1 0x0 KECCAK256 ADD PUSH1 0x0 PUSH1 0x40 MLOAD DUP1 PUSH1 0x40 ADD PUSH1 0x40 MSTORE DUP1 PUSH1 0xE DUP2 MSTORE PUSH1 0x20 ADD PUSH32 0x74657374206D6573736167652032000000000000000000000000000000000000 DUP2 MSTORE POP SWAP1 SWAP2 SWAP1 SWAP2 POP SWAP1 DUP2 PUSH2 0x1F2 SWAP2 SWAP1 PUSH2 0x579 JUMP JUMPDEST POP JUMP JUMPDEST PUSH1 0x0 DUP1 REVERT JUMPDEST PUSH1 0x0 DUP2 SWAP1 POP SWAP2 SWAP1 POP JUMP JUMPDEST PUSH2 0x20D DUP2 PUSH2 0x1FA JUMP JUMPDEST DUP2 EQ PUSH2 0x218 JUMPI PUSH1 0x0 DUP1 REVERT JUMPDEST POP JUMP JUMPDEST PUSH1 0x0 DUP2 CALLDATALOAD SWAP1 POP PUSH2 0x22A DUP2 PUSH2 0x204 JUMP JUMPDEST SWAP3 SWAP2 POP POP JUMP JUMPDEST PUSH1 0x0 PUSH1 0x20 DUP3 DUP5 SUB SLT ISZERO PUSH2 0x246 JUMPI PUSH2 0x245 PUSH2 0x1F5 JUMP JUMPDEST JUMPDEST PUSH1 0x0 PUSH2 0x254 DUP5 DUP3 DUP6 ADD PUSH2 0x21B JUMP JUMPDEST SWAP2 POP POP SWAP3 SWAP2 POP POP JUMP JUMPDEST PUSH1 0x0 DUP2 MLOAD SWAP1 POP SWAP2 SWAP1 POP JUMP JUMPDEST PUSH1 0x0 DUP3 DUP3 MSTORE PUSH1 0x20 DUP3 ADD SWAP1 POP SWAP3 SWAP2 POP POP JUMP JUMPDEST PUSH1 0x0 JUMPDEST DUP4 DUP2 LT ISZERO PUSH2 0x297 JUMPI DUP1 DUP3 ADD MLOAD DUP2 DUP5 ADD MSTORE PUSH1 0x20 DUP2 ADD SWAP1 POP PUSH2 0x27C JUMP JUMPDEST PUSH1 0x0 DUP5 DUP5 ADD MSTORE POP POP POP POP JUMP JUMPDEST PUSH1 0x0 PUSH1 0x1F NOT PUSH1 0x1F DUP4 ADD AND SWAP1 POP SWAP2 SWAP1 POP JUMP JUMPDEST PUSH1 0x0 PUSH2 0x2BF DUP3 PUSH2 0x25D JUMP JUMPDEST PUSH2 0x2C9 DUP2 DUP6 PUSH2 0x268 JUMP JUMPDEST SWAP4 POP PUSH2 0x2D9 DUP2 DUP6 PUSH1 0x20 DUP7 ADD PUSH2 0x279 JUMP JUMPDEST PUSH2 0x2E2 DUP2 PUSH2 0x2A3 JUMP JUMPDEST DUP5 ADD SWAP2 POP POP SWAP3 SWAP2 POP POP JUMP JUMPDEST PUSH1 0x0 PUSH1 0x20 DUP3 ADD SWAP1 POP DUP2 DUP2 SUB PUSH1 0x0 DUP4 ADD MSTORE PUSH2 0x307 DUP2 DUP5 PUSH2 0x2B4 JUMP JUMPDEST SWAP1 POP SWAP3 SWAP2 POP POP JUMP JUMPDEST PUSH32 0x4E487B7100000000000000000000000000000000000000000000000000000000 PUSH1 0x0 MSTORE PUSH1 0x32 PUSH1 0x4 MSTORE PUSH1 0x24 PUSH1 0x0 REVERT JUMPDEST PUSH32 0x4E487B7100000000000000000000000000000000000000000000000000000000 PUSH1 0x0 MSTORE PUSH1 0x22 PUSH1 0x4 MSTORE PUSH1 0x24 PUSH1 0x0 REVERT JUMPDEST PUSH1 0x0 PUSH1 0x2 DUP3 DIV SWAP1 POP PUSH1 0x1 DUP3 AND DUP1 PUSH2 0x385 JUMPI PUSH1 0x7F DUP3 AND SWAP2 POP JUMPDEST PUSH1 0x20 DUP3 LT DUP2 SUB PUSH2 0x398 JUMPI PUSH2 0x397 PUSH2 0x33E JUMP JUMPDEST JUMPDEST POP SWAP2 SWAP1 POP JUMP JUMPDEST PUSH32 0x4E487B7100000000000000000000000000000000000000000000000000000000 PUSH1 0x0 MSTORE PUSH1 0x41 PUSH1 0x4 MSTORE PUSH1 0x24 PUSH1 0x0 REVERT JUMPDEST PUSH1 0x0 DUP2 SWAP1 POP DUP2 PUSH1 0x0 MSTORE PUSH1 0x20 PUSH1 0x0 KECCAK256 SWAP1 POP SWAP2 SWAP1 POP JUMP JUMPDEST PUSH1 0x0 PUSH1 0x20 PUSH1 0x1F DUP4 ADD DIV SWAP1 POP SWAP2 SWAP1 POP JUMP JUMPDEST PUSH1 0x0 DUP3 DUP3 SHL SWAP1 POP SWAP3 SWAP2 POP POP JUMP JUMPDEST PUSH1 0x0 PUSH1 0x8 DUP4 MUL PUSH2 0x42F PUSH32 0xFFFFFFFFFFFFFFFFFFFFFFFFFFFFFFFFFFFFFFFFFFFFFFFFFFFFFFFFFFFFFFFF DUP3 PUSH2 0x3F2 JUMP JUMPDEST PUSH2 0x439 DUP7 DUP4 PUSH2 0x3F2 JUMP JUMPDEST SWAP6 POP DUP1 NOT DUP5 AND SWAP4 POP DUP1 DUP7 AND DUP5 OR SWAP3 POP POP POP SWAP4 SWAP3 POP POP POP JUMP JUMPDEST PUSH1 0x0 DUP2 SWAP1 POP SWAP2 SWAP1 POP JUMP JUMPDEST PUSH1 0x0 PUSH2 0x476 PUSH2 0x471 PUSH2 0x46C DUP5 PUSH2 0x1FA JUMP JUMPDEST PUSH2 0x451 JUMP JUMPDEST PUSH2 0x1FA JUMP JUMPDEST SWAP1 POP SWAP2 SWAP1 POP JUMP JUMPDEST PUSH1 0x0 DUP2 SWAP1 POP SWAP2 SWAP1 POP JUMP JUMPDEST PUSH2 0x490 DUP4 PUSH2 0x45B JUMP JUMPDEST PUSH2 0x4A4 PUSH2 0x49C DUP3 PUSH2 0x47D JUMP JUMPDEST DUP5 DUP5 SLOAD PUSH2 0x3FF JUMP JUMPDEST DUP3 SSTORE POP POP POP POP JUMP JUMPDEST PUSH1 0x0 SWAP1 JUMP JUMPDEST PUSH2 0x4B9 PUSH2 0x4AC JUMP JUMPDEST PUSH2 0x4C4 DUP2 DUP5 DUP5 PUSH2 0x487 JUMP JUMPDEST POP POP POP JUMP JUMPDEST JUMPDEST DUP2 DUP2 LT ISZERO PUSH2 0x4E8 JUMPI PUSH2 0x4DD PUSH1 0x0 DUP3 PUSH2 0x4B1 JUMP JUMPDEST PUSH1 0x1 DUP2 ADD SWAP1 POP PUSH2 0x4CA JUMP JUMPDEST POP POP JUMP JUMPDEST PUSH1 0x1F DUP3 GT ISZERO PUSH2 0x52D JUMPI PUSH2 0x4FE DUP2 PUSH2 0x3CD JUMP JUMPDEST PUSH2 0x507 DUP5 PUSH2 0x3E2 JUMP JUMPDEST DUP2 ADD PUSH1 0x20 DUP6 LT ISZERO PUSH2 0x516 JUMPI DUP2 SWAP1 POP JUMPDEST PUSH2 0x52A PUSH2 0x522 DUP6 PUSH2 0x3E2 JUMP JUMPDEST DUP4 ADD DUP3 PUSH2 0x4C9 JUMP JUMPDEST POP POP JUMPDEST POP POP POP JUMP JUMPDEST PUSH1 0x0 DUP3 DUP3 SHR SWAP1 POP SWAP3 SWAP2 POP POP JUMP JUMPDEST PUSH1 0x0 PUSH2 0x550 PUSH1 0x0 NOT DUP5 PUSH1 0x8 MUL PUSH2 0x532 JUMP JUMPDEST NOT DUP1 DUP4 AND SWAP2 POP POP SWAP3 SWAP2 POP POP JUMP JUMPDEST PUSH1 0x0 PUSH2 0x569 DUP4 DUP4 PUSH2 0x53F JUMP JUMPDEST SWAP2 POP DUP3 PUSH1 0x2 MUL DUP3 OR SWAP1 POP SWAP3 SWAP2 POP POP JUMP JUMPDEST PUSH2 0x582 DUP3 PUSH2 0x25D JUMP JUMPDEST PUSH8 0xFFFFFFFFFFFFFFFF DUP2 GT ISZERO PUSH2 0x59B JUMPI PUSH2 0x59A PUSH2 0x39E JUMP JUMPDEST JUMPDEST PUSH2 0x5A5 DUP3 SLOAD PUSH2 0x36D JUMP JUMPDEST PUSH2 0x5B0 DUP3 DUP3 DUP6 PUSH2 0x4EC JUMP JUMPDEST PUSH1 0x0 PUSH1 0x20 SWAP1 POP PUSH1 0x1F DUP4 GT PUSH1 0x1 DUP2 EQ PUSH2 0x5E3 JUMPI PUSH1 0x0 DUP5 ISZERO PUSH2 0x5D1 JUMPI DUP3 DUP8 ADD MLOAD SWAP1 POP JUMPDEST PUSH2 0x5DB DUP6 DUP3 PUSH2 0x55D JUMP JUMPDEST DUP7 SSTORE POP PUSH2 0x643 JUMP JUMPDEST PUSH1 0x1F NOT DUP5 AND PUSH2 0x5F1 DUP7 PUSH2 0x3CD JUMP JUMPDEST PUSH1 0x0 JUMPDEST DUP3 DUP2 LT ISZERO PUSH2 0x619 JUMPI DUP5 DUP10 ADD MLOAD DUP3 SSTORE PUSH1 0x1 DUP3 ADD SWAP2 POP PUSH1 0x20 DUP6 ADD SWAP5 POP PUSH1 0x20 DUP2 ADD SWAP1 POP PUSH2 0x5F4 JUMP JUMPDEST DUP7 DUP4 LT ISZERO PUSH2 0x636 JUMPI DUP5 DUP10 ADD MLOAD PUSH2 0x632 PUSH1 0x1F DUP10 AND DUP3 PUSH2 0x53F JUMP JUMPDEST DUP4 SSTORE POP JUMPDEST PUSH1 0x1 PUSH1 0x2 DUP9 MUL ADD DUP9 SSTORE POP POP POP JUMPDEST POP POP POP POP POP POP JUMP INVALID LOG2 PUSH5 0x6970667358 0x22 SLT KECCAK256 0xDD 0xC1 0xA7 LOG4 CALLDATACOPY 0xAE 0xCA SWAP5 SWAP8 0xE2 PUSH20 0x5038D40339CA5D03E277981C7F8362869455F9EA SWAP2 PUSH5 0x736F6C6343 STOP ADDMOD GT STOP CALLER "
				},
				"gasEstimates": {
					"creation": {
						"codeDepositCost": "333000",
						"executionCost": "374",
						"totalCost": "333374"
					},
					"external": {
						"getArray(uint256)": "infinite",
						"test()": "infinite"
					}
				},
				"methodIdentifiers": {
					"getArray(uint256)": "ab35ec63",
					"test()": "f8a8fd6d"
				}
			},
			"storageLayout": {
				"storage": [
					{
						"astId": 34,
						"contract": "tuple.sol:tableau",
						"label": "stringArray",
						"offset": 0,
						"slot": "0",
						"type": "t_array(t_string_storage)dyn_storage"
					}
				],
				"types": {
					"t_array(t_string_storage)dyn_storage": {
						"base": "t_string_storage",
						"encoding": "dynamic_array",
						"label": "string[]",
						"numberOfBytes": "32"
					},
					"t_string_storage": {
						"encoding": "bytes",
						"label": "string",
						"numberOfBytes": "32"
					}
				}
			},
			"userdoc": {
				"kind": "user",
				"methods": {},
				"version": 1
			}
		}
	}
}