{
	"commande.sol": {
		"commande": {
			"abi": [
				{
					"inputs": [],
					"stateMutability": "payable",
					"type": "constructor"
				},
				{
					"inputs": [],
					"name": "EtatIncorrect",
					"type": "error"
				},
				{
					"inputs": [],
					"name": "ValeurImpaire",
					"type": "error"
				},
				{
					"inputs": [],
					"name": "uniquementAcheteur",
					"type": "error"
				},
				{
					"anonymous": false,
					"inputs": [],
					"name": "CommandeConfirmee",
					"type": "event"
				},
				{
					"anonymous": false,
					"inputs": [],
					"name": "CommandeRecue",
					"type": "event"
				},
				{
					"inputs": [],
					"name": "acheteur",
					"outputs": [
						{
							"internalType": "address payable",
							"name": "",
							"type": "address"
						}
					],
					"stateMutability": "view",
					"type": "function"
				},
				{
					"inputs": [],
					"name": "commandeConfirmee",
					"outputs": [],
					"stateMutability": "payable",
					"type": "function"
				},
				{
					"inputs": [],
					"name": "commandeRecue",
					"outputs": [],
					"stateMutability": "nonpayable",
					"type": "function"
				},
				{
					"inputs": [],
					"name": "etat",
					"outputs": [
						{
							"internalType": "enum commande.Etat",
							"name": "",
							"type": "uint8"
						}
					],
					"stateMutability": "view",
					"type": "function"
				},
				{
					"inputs": [],
					"name": "valeur",
					"outputs": [
						{
							"internalType": "uint256",
							"name": "",
							"type": "uint256"
						}
					],
					"stateMutability": "view",
					"type": "function"
				},
				{
					"inputs": [],
					"name": "vendeur",
					"outputs": [
						{
							"internalType": "address payable",
							"name": "",
							"type": "address"
						}
					],
					"stateMutability": "view",
					"type": "function"
				}
			],
			"devdoc": {
				"kind": "dev",
				"methods": {},
				"version": 1
			},
			"evm": {
				"assembly": "    /* \"commande.sol\":138:1605  contract commande {... */\n  mstore(0x40, 0x80)\n    /* \"commande.sol\":670:680  msg.sender */\n  caller\n    /* \"commande.sol\":652:659  vendeur */\n  0x00\n  dup1\n    /* \"commande.sol\":652:681  vendeur = payable(msg.sender) */\n  0x0100\n  exp\n  dup2\n  sload\n  dup2\n  0xffffffffffffffffffffffffffffffffffffffff\n  mul\n  not\n  and\n  swap1\n  dup4\n  0xffffffffffffffffffffffffffffffffffffffff\n  and\n  mul\n  or\n  swap1\n  sstore\n  pop\n    /* \"commande.sol\":712:713  2 */\n  0x02\n    /* \"commande.sol\":700:709  msg.value */\n  callvalue\n    /* \"commande.sol\":700:713  msg.value / 2 */\n  tag_3\n  swap2\n  swap1\n  tag_4\n  jump\t// in\ntag_3:\n    /* \"commande.sol\":691:697  valeur */\n  0x02\n    /* \"commande.sol\":691:713  valeur = msg.value / 2 */\n  dup2\n  swap1\n  sstore\n  pop\n    /* \"commande.sol\":743:752  msg.value */\n  callvalue\n    /* \"commande.sol\":732:738  valeur */\n  sload(0x02)\n    /* \"commande.sol\":728:729  2 */\n  0x02\n    /* \"commande.sol\":728:738  2 * valeur */\n  tag_5\n  swap2\n  swap1\n  tag_6\n  jump\t// in\ntag_5:\n    /* \"commande.sol\":727:752  (2 * valeur) != msg.value */\n  eq\n    /* \"commande.sol\":723:788  if ((2 * valeur) != msg.value)... */\n  tag_7\n  jumpi\n    /* \"commande.sol\":773:788  ValeurImpaire() */\n  mload(0x40)\n  0xa3b6768d00000000000000000000000000000000000000000000000000000000\n  dup2\n  mstore\n  0x04\n  add\n  mload(0x40)\n  dup1\n  swap2\n  sub\n  swap1\n  revert\n    /* \"commande.sol\":723:788  if ((2 * valeur) != msg.value)... */\ntag_7:\n    /* \"commande.sol\":138:1605  contract commande {... */\n  jump(tag_8)\n    /* \"#utility.yul\":7:84   */\ntag_9:\n    /* \"#utility.yul\":44:51   */\n  0x00\n    /* \"#utility.yul\":73:78   */\n  dup2\n    /* \"#utility.yul\":62:78   */\n  swap1\n  pop\n    /* \"#utility.yul\":7:84   */\n  swap2\n  swap1\n  pop\n  jump\t// out\n    /* \"#utility.yul\":90:270   */\ntag_10:\n    /* \"#utility.yul\":138:215   */\n  0x4e487b7100000000000000000000000000000000000000000000000000000000\n    /* \"#utility.yul\":135:136   */\n  0x00\n    /* \"#utility.yul\":128:216   */\n  mstore\n    /* \"#utility.yul\":235:239   */\n  0x12\n    /* \"#utility.yul\":232:233   */\n  0x04\n    /* \"#utility.yul\":225:240   */\n  mstore\n    /* \"#utility.yul\":259:263   */\n  0x24\n    /* \"#utility.yul\":256:257   */\n  0x00\n    /* \"#utility.yul\":249:264   */\n  revert\n    /* \"#utility.yul\":276:456   */\ntag_11:\n    /* \"#utility.yul\":324:401   */\n  0x4e487b7100000000000000000000000000000000000000000000000000000000\n    /* \"#utility.yul\":321:322   */\n  0x00\n    /* \"#utility.yul\":314:402   */\n  mstore\n    /* \"#utility.yul\":421:425   */\n  0x11\n    /* \"#utility.yul\":418:419   */\n  0x04\n    /* \"#utility.yul\":411:426   */\n  mstore\n    /* \"#utility.yul\":445:449   */\n  0x24\n    /* \"#utility.yul\":442:443   */\n  0x00\n    /* \"#utility.yul\":435:450   */\n  revert\n    /* \"#utility.yul\":462:647   */\ntag_4:\n    /* \"#utility.yul\":502:503   */\n  0x00\n    /* \"#utility.yul\":519:539   */\n  tag_17\n    /* \"#utility.yul\":537:538   */\n  dup3\n    /* \"#utility.yul\":519:539   */\n  tag_9\n  jump\t// in\ntag_17:\n    /* \"#utility.yul\":514:539   */\n  swap2\n  pop\n    /* \"#utility.yul\":553:573   */\n  tag_18\n    /* \"#utility.yul\":571:572   */\n  dup4\n    /* \"#utility.yul\":553:573   */\n  tag_9\n  jump\t// in\ntag_18:\n    /* \"#utility.yul\":548:573   */\n  swap3\n  pop\n    /* \"#utility.yul\":592:593   */\n  dup3\n    /* \"#utility.yul\":582:617   */\n  tag_19\n  jumpi\n    /* \"#utility.yul\":597:615   */\n  tag_20\n  tag_10\n  jump\t// in\ntag_20:\n    /* \"#utility.yul\":582:617   */\ntag_19:\n    /* \"#utility.yul\":639:640   */\n  dup3\n    /* \"#utility.yul\":636:637   */\n  dup3\n    /* \"#utility.yul\":632:641   */\n  div\n    /* \"#utility.yul\":627:641   */\n  swap1\n  pop\n    /* \"#utility.yul\":462:647   */\n  swap3\n  swap2\n  pop\n  pop\n  jump\t// out\n    /* \"#utility.yul\":653:1063   */\ntag_6:\n    /* \"#utility.yul\":693:700   */\n  0x00\n    /* \"#utility.yul\":716:736   */\n  tag_22\n    /* \"#utility.yul\":734:735   */\n  dup3\n    /* \"#utility.yul\":716:736   */\n  tag_9\n  jump\t// in\ntag_22:\n    /* \"#utility.yul\":711:736   */\n  swap2\n  pop\n    /* \"#utility.yul\":750:770   */\n  tag_23\n    /* \"#utility.yul\":768:769   */\n  dup4\n    /* \"#utility.yul\":750:770   */\n  tag_9\n  jump\t// in\ntag_23:\n    /* \"#utility.yul\":745:770   */\n  swap3\n  pop\n    /* \"#utility.yul\":805:806   */\n  dup3\n    /* \"#utility.yul\":802:803   */\n  dup3\n    /* \"#utility.yul\":798:807   */\n  mul\n    /* \"#utility.yul\":827:857   */\n  tag_24\n    /* \"#utility.yul\":845:856   */\n  dup2\n    /* \"#utility.yul\":827:857   */\n  tag_9\n  jump\t// in\ntag_24:\n    /* \"#utility.yul\":816:857   */\n  swap2\n  pop\n    /* \"#utility.yul\":1006:1007   */\n  dup3\n    /* \"#utility.yul\":997:1004   */\n  dup3\n    /* \"#utility.yul\":993:1008   */\n  div\n    /* \"#utility.yul\":990:991   */\n  dup5\n    /* \"#utility.yul\":987:1009   */\n  eq\n    /* \"#utility.yul\":967:968   */\n  dup4\n    /* \"#utility.yul\":960:969   */\n  iszero\n    /* \"#utility.yul\":940:1023   */\n  or\n    /* \"#utility.yul\":917:1056   */\n  tag_25\n  jumpi\n    /* \"#utility.yul\":1036:1054   */\n  tag_26\n  tag_11\n  jump\t// in\ntag_26:\n    /* \"#utility.yul\":917:1056   */\ntag_25:\n    /* \"#utility.yul\":701:1063   */\n  pop\n    /* \"#utility.yul\":653:1063   */\n  swap3\n  swap2\n  pop\n  pop\n  jump\t// out\n    /* \"commande.sol\":138:1605  contract commande {... */\ntag_8:\n  dataSize(sub_0)\n  dup1\n  dataOffset(sub_0)\n  0x00\n  codecopy\n  0x00\n  return\nstop\n\nsub_0: assembly {\n        /* \"commande.sol\":138:1605  contract commande {... */\n      mstore(0x40, 0x80)\n      jumpi(tag_1, lt(calldatasize, 0x04))\n      shr(0xe0, calldataload(0x00))\n      dup1\n      0x53cae928\n      eq\n      tag_2\n      jumpi\n      dup1\n      0x5d2c2e73\n      eq\n      tag_3\n      jumpi\n      dup1\n      0x9a2caedc\n      eq\n      tag_4\n      jumpi\n      dup1\n      0xa2287c86\n      eq\n      tag_5\n      jumpi\n      dup1\n      0xc28fda30\n      eq\n      tag_6\n      jumpi\n      dup1\n      0xf9d13142\n      eq\n      tag_7\n      jumpi\n    tag_1:\n      0x00\n      dup1\n      revert\n        /* \"commande.sol\":1340:1602  function commandeRecue() external UniquementAcheteur inState(Etat.Locked) {... */\n    tag_2:\n      callvalue\n      dup1\n      iszero\n      tag_8\n      jumpi\n      0x00\n      dup1\n      revert\n    tag_8:\n      pop\n      tag_9\n      tag_10\n      jump\t// in\n    tag_9:\n      stop\n        /* \"commande.sol\":237:255  uint public valeur */\n    tag_3:\n      callvalue\n      dup1\n      iszero\n      tag_11\n      jumpi\n      0x00\n      dup1\n      revert\n    tag_11:\n      pop\n      tag_12\n      tag_13\n      jump\t// in\n    tag_12:\n      mload(0x40)\n      tag_14\n      swap2\n      swap1\n      tag_15\n      jump\t// in\n    tag_14:\n      mload(0x40)\n      dup1\n      swap2\n      sub\n      swap1\n      return\n        /* \"commande.sol\":163:193  address payable public vendeur */\n    tag_4:\n      callvalue\n      dup1\n      iszero\n      tag_16\n      jumpi\n      0x00\n      dup1\n      revert\n    tag_16:\n      pop\n      tag_17\n      tag_18\n      jump\t// in\n    tag_17:\n      mload(0x40)\n      tag_19\n      swap2\n      swap1\n      tag_20\n      jump\t// in\n    tag_19:\n      mload(0x40)\n      dup1\n      swap2\n      sub\n      swap1\n      return\n        /* \"commande.sol\":352:368  Etat public etat */\n    tag_5:\n      callvalue\n      dup1\n      iszero\n      tag_21\n      jumpi\n      0x00\n      dup1\n      revert\n    tag_21:\n      pop\n      tag_22\n      tag_23\n      jump\t// in\n    tag_22:\n      mload(0x40)\n      tag_24\n      swap2\n      swap1\n      tag_25\n      jump\t// in\n    tag_24:\n      mload(0x40)\n      dup1\n      swap2\n      sub\n      swap1\n      return\n        /* \"commande.sol\":199:230  address payable public acheteur */\n    tag_6:\n      callvalue\n      dup1\n      iszero\n      tag_26\n      jumpi\n      0x00\n      dup1\n      revert\n    tag_26:\n      pop\n      tag_27\n      tag_28\n      jump\t// in\n    tag_27:\n      mload(0x40)\n      tag_29\n      swap2\n      swap1\n      tag_20\n      jump\t// in\n    tag_29:\n      mload(0x40)\n      dup1\n      swap2\n      sub\n      swap1\n      return\n        /* \"commande.sol\":1061:1334  function commandeConfirmee() external UniquementAcheteur payable {... */\n    tag_7:\n      tag_30\n      tag_31\n      jump\t// in\n    tag_30:\n      stop\n        /* \"commande.sol\":1340:1602  function commandeRecue() external UniquementAcheteur inState(Etat.Locked) {... */\n    tag_10:\n        /* \"commande.sol\":859:867  acheteur */\n      0x01\n      0x00\n      swap1\n      sload\n      swap1\n      0x0100\n      exp\n      swap1\n      div\n      0xffffffffffffffffffffffffffffffffffffffff\n      and\n        /* \"commande.sol\":845:867  msg.sender != acheteur */\n      0xffffffffffffffffffffffffffffffffffffffff\n      and\n        /* \"commande.sol\":845:855  msg.sender */\n      caller\n        /* \"commande.sol\":845:867  msg.sender != acheteur */\n      0xffffffffffffffffffffffffffffffffffffffff\n      and\n      eq\n        /* \"commande.sol\":841:921  if (msg.sender != acheteur) {... */\n      tag_33\n      jumpi\n        /* \"commande.sol\":890:910  uniquementAcheteur() */\n      mload(0x40)\n      0xbce420d300000000000000000000000000000000000000000000000000000000\n      dup2\n      mstore\n      0x04\n      add\n      mload(0x40)\n      dup1\n      swap2\n      sub\n      swap1\n      revert\n        /* \"commande.sol\":841:921  if (msg.sender != acheteur) {... */\n    tag_33:\n        /* \"commande.sol\":1401:1412  Etat.Locked */\n      0x01\n        /* \"commande.sol\":995:1000  _etat */\n      dup1\n        /* \"commande.sol\":987:1000  etat != _etat */\n      0x03\n      dup2\n      gt\n      iszero\n      tag_35\n      jumpi\n      tag_36\n      tag_37\n      jump\t// in\n    tag_36:\n    tag_35:\n        /* \"commande.sol\":987:991  etat */\n      0x03\n      0x00\n      swap1\n      sload\n      swap1\n      0x0100\n      exp\n      swap1\n      div\n      0xff\n      and\n        /* \"commande.sol\":987:1000  etat != _etat */\n      0x03\n      dup2\n      gt\n      iszero\n      tag_38\n      jumpi\n      tag_39\n      tag_37\n      jump\t// in\n    tag_39:\n    tag_38:\n      eq\n        /* \"commande.sol\":983:1036  if (etat != _etat)... */\n      tag_40\n      jumpi\n        /* \"commande.sol\":1021:1036  EtatIncorrect() */\n      mload(0x40)\n      0xe115f76500000000000000000000000000000000000000000000000000000000\n      dup2\n      mstore\n      0x04\n      add\n      mload(0x40)\n      dup1\n      swap2\n      sub\n      swap1\n      revert\n        /* \"commande.sol\":983:1036  if (etat != _etat)... */\n    tag_40:\n        /* \"commande.sol\":1429:1444  CommandeRecue() */\n      0xa2d1fcec9ee3d11a949f98e29de35a71c299b2bbdb1c8a072b87e7b70f08e9d6\n      mload(0x40)\n      mload(0x40)\n      dup1\n      swap2\n      sub\n      swap1\n      log1\n        /* \"commande.sol\":1461:1473  Etat.Release */\n      0x02\n        /* \"commande.sol\":1454:1458  etat */\n      0x03\n      0x00\n        /* \"commande.sol\":1454:1473  etat = Etat.Release */\n      0x0100\n      exp\n      dup2\n      sload\n      dup2\n      0xff\n      mul\n      not\n      and\n      swap1\n      dup4\n      0x03\n      dup2\n      gt\n      iszero\n      tag_42\n      jumpi\n      tag_43\n      tag_37\n      jump\t// in\n    tag_43:\n    tag_42:\n      mul\n      or\n      swap1\n      sstore\n      pop\n        /* \"commande.sol\":1485:1494  bool sent */\n      0x00\n        /* \"commande.sol\":1500:1508  acheteur */\n      0x01\n      0x00\n      swap1\n      sload\n      swap1\n      0x0100\n      exp\n      swap1\n      div\n      0xffffffffffffffffffffffffffffffffffffffff\n      and\n        /* \"commande.sol\":1500:1513  acheteur.call */\n      0xffffffffffffffffffffffffffffffffffffffff\n      and\n        /* \"commande.sol\":1521:1527  valeur */\n      sload(0x02)\n        /* \"commande.sol\":1500:1532  acheteur.call{value: valeur}(\"\") */\n      mload(0x40)\n      tag_44\n      swap1\n      tag_45\n      jump\t// in\n    tag_44:\n      0x00\n      mload(0x40)\n      dup1\n      dup4\n      sub\n      dup2\n      dup6\n      dup8\n      gas\n      call\n      swap3\n      pop\n      pop\n      pop\n      returndatasize\n      dup1\n      0x00\n      dup2\n      eq\n      tag_48\n      jumpi\n      mload(0x40)\n      swap2\n      pop\n      and(add(returndatasize, 0x3f), not(0x1f))\n      dup3\n      add\n      0x40\n      mstore\n      returndatasize\n      dup3\n      mstore\n      returndatasize\n      0x00\n      0x20\n      dup5\n      add\n      returndatacopy\n      jump(tag_47)\n    tag_48:\n      0x60\n      swap2\n      pop\n    tag_47:\n      pop\n        /* \"commande.sol\":1484:1532  (bool sent, ) = acheteur.call{value: valeur}(\"\") */\n      pop\n      swap1\n      pop\n        /* \"commande.sol\":1550:1554  sent */\n      dup1\n        /* \"commande.sol\":1542:1595  require(sent, \"la transaction a l'acheteur a echoue\") */\n      tag_49\n      jumpi\n      mload(0x40)\n      0x08c379a000000000000000000000000000000000000000000000000000000000\n      dup2\n      mstore\n      0x04\n      add\n      tag_50\n      swap1\n      tag_51\n      jump\t// in\n    tag_50:\n      mload(0x40)\n      dup1\n      swap2\n      sub\n      swap1\n      revert\n    tag_49:\n        /* \"commande.sol\":1414:1602  {... */\n      pop\n        /* \"commande.sol\":930:931  _ */\n      pop\n        /* \"commande.sol\":1340:1602  function commandeRecue() external UniquementAcheteur inState(Etat.Locked) {... */\n      jump\t// out\n        /* \"commande.sol\":237:255  uint public valeur */\n    tag_13:\n      sload(0x02)\n      dup2\n      jump\t// out\n        /* \"commande.sol\":163:193  address payable public vendeur */\n    tag_18:\n      0x00\n      dup1\n      sload\n      swap1\n      0x0100\n      exp\n      swap1\n      div\n      0xffffffffffffffffffffffffffffffffffffffff\n      and\n      dup2\n      jump\t// out\n        /* \"commande.sol\":352:368  Etat public etat */\n    tag_23:\n      0x03\n      0x00\n      swap1\n      sload\n      swap1\n      0x0100\n      exp\n      swap1\n      div\n      0xff\n      and\n      dup2\n      jump\t// out\n        /* \"commande.sol\":199:230  address payable public acheteur */\n    tag_28:\n      0x01\n      0x00\n      swap1\n      sload\n      swap1\n      0x0100\n      exp\n      swap1\n      div\n      0xffffffffffffffffffffffffffffffffffffffff\n      and\n      dup2\n      jump\t// out\n        /* \"commande.sol\":1061:1334  function commandeConfirmee() external UniquementAcheteur payable {... */\n    tag_31:\n        /* \"commande.sol\":859:867  acheteur */\n      0x01\n      0x00\n      swap1\n      sload\n      swap1\n      0x0100\n      exp\n      swap1\n      div\n      0xffffffffffffffffffffffffffffffffffffffff\n      and\n        /* \"commande.sol\":845:867  msg.sender != acheteur */\n      0xffffffffffffffffffffffffffffffffffffffff\n      and\n        /* \"commande.sol\":845:855  msg.sender */\n      caller\n        /* \"commande.sol\":845:867  msg.sender != acheteur */\n      0xffffffffffffffffffffffffffffffffffffffff\n      and\n      eq\n        /* \"commande.sol\":841:921  if (msg.sender != acheteur) {... */\n      tag_53\n      jumpi\n        /* \"commande.sol\":890:910  uniquementAcheteur() */\n      mload(0x40)\n      0xbce420d300000000000000000000000000000000000000000000000000000000\n      dup2\n      mstore\n      0x04\n      add\n      mload(0x40)\n      dup1\n      swap2\n      sub\n      swap1\n      revert\n        /* \"commande.sol\":841:921  if (msg.sender != acheteur) {... */\n    tag_53:\n        /* \"commande.sol\":1161:1167  valeur */\n      sload(0x02)\n        /* \"commande.sol\":1157:1158  2 */\n      0x02\n        /* \"commande.sol\":1157:1167  2 * valeur */\n      tag_55\n      swap2\n      swap1\n      tag_56\n      jump\t// in\n    tag_55:\n        /* \"commande.sol\":1144:1153  msg.value */\n      callvalue\n        /* \"commande.sol\":1144:1167  msg.value == 2 * valeur */\n      eq\n        /* \"commande.sol\":1136:1224  require(msg.value == 2 * valeur, \"en tant qu'acheteur, tu n'as pas depose suffisamment\") */\n      tag_57\n      jumpi\n      mload(0x40)\n      0x08c379a000000000000000000000000000000000000000000000000000000000\n      dup2\n      mstore\n      0x04\n      add\n      tag_58\n      swap1\n      tag_59\n      jump\t// in\n    tag_58:\n      mload(0x40)\n      dup1\n      swap2\n      sub\n      swap1\n      revert\n    tag_57:\n        /* \"commande.sol\":1240:1259  CommandeConfirmee() */\n      0x6e73933f79d9bbaaba88a1c2c4191ecf6ed548b9457ecf5b1b1c4410a7aa5478\n      mload(0x40)\n      mload(0x40)\n      dup1\n      swap2\n      sub\n      swap1\n      log1\n        /* \"commande.sol\":1288:1298  msg.sender */\n      caller\n        /* \"commande.sol\":1269:1277  acheteur */\n      0x01\n      0x00\n        /* \"commande.sol\":1269:1299  acheteur = payable(msg.sender) */\n      0x0100\n      exp\n      dup2\n      sload\n      dup2\n      0xffffffffffffffffffffffffffffffffffffffff\n      mul\n      not\n      and\n      swap1\n      dup4\n      0xffffffffffffffffffffffffffffffffffffffff\n      and\n      mul\n      or\n      swap1\n      sstore\n      pop\n        /* \"commande.sol\":1316:1327  Etat.Locked */\n      0x01\n        /* \"commande.sol\":1309:1313  etat */\n      0x03\n      0x00\n        /* \"commande.sol\":1309:1327  etat = Etat.Locked */\n      0x0100\n      exp\n      dup2\n      sload\n      dup2\n      0xff\n      mul\n      not\n      and\n      swap1\n      dup4\n      0x03\n      dup2\n      gt\n      iszero\n      tag_60\n      jumpi\n      tag_61\n      tag_37\n      jump\t// in\n    tag_61:\n    tag_60:\n      mul\n      or\n      swap1\n      sstore\n      pop\n        /* \"commande.sol\":1061:1334  function commandeConfirmee() external UniquementAcheteur payable {... */\n      jump\t// out\n        /* \"#utility.yul\":7:84   */\n    tag_62:\n        /* \"#utility.yul\":44:51   */\n      0x00\n        /* \"#utility.yul\":73:78   */\n      dup2\n        /* \"#utility.yul\":62:78   */\n      swap1\n      pop\n        /* \"#utility.yul\":7:84   */\n      swap2\n      swap1\n      pop\n      jump\t// out\n        /* \"#utility.yul\":90:208   */\n    tag_63:\n        /* \"#utility.yul\":177:201   */\n      tag_83\n        /* \"#utility.yul\":195:200   */\n      dup2\n        /* \"#utility.yul\":177:201   */\n      tag_62\n      jump\t// in\n    tag_83:\n        /* \"#utility.yul\":172:175   */\n      dup3\n        /* \"#utility.yul\":165:202   */\n      mstore\n        /* \"#utility.yul\":90:208   */\n      pop\n      pop\n      jump\t// out\n        /* \"#utility.yul\":214:436   */\n    tag_15:\n        /* \"#utility.yul\":307:311   */\n      0x00\n        /* \"#utility.yul\":345:347   */\n      0x20\n        /* \"#utility.yul\":334:343   */\n      dup3\n        /* \"#utility.yul\":330:348   */\n      add\n        /* \"#utility.yul\":322:348   */\n      swap1\n      pop\n        /* \"#utility.yul\":358:429   */\n      tag_85\n        /* \"#utility.yul\":426:427   */\n      0x00\n        /* \"#utility.yul\":415:424   */\n      dup4\n        /* \"#utility.yul\":411:428   */\n      add\n        /* \"#utility.yul\":402:408   */\n      dup5\n        /* \"#utility.yul\":358:429   */\n      tag_63\n      jump\t// in\n    tag_85:\n        /* \"#utility.yul\":214:436   */\n      swap3\n      swap2\n      pop\n      pop\n      jump\t// out\n        /* \"#utility.yul\":442:568   */\n    tag_64:\n        /* \"#utility.yul\":479:486   */\n      0x00\n        /* \"#utility.yul\":519:561   */\n      0xffffffffffffffffffffffffffffffffffffffff\n        /* \"#utility.yul\":512:517   */\n      dup3\n        /* \"#utility.yul\":508:562   */\n      and\n        /* \"#utility.yul\":497:562   */\n      swap1\n      pop\n        /* \"#utility.yul\":442:568   */\n      swap2\n      swap1\n      pop\n      jump\t// out\n        /* \"#utility.yul\":574:678   */\n    tag_65:\n        /* \"#utility.yul\":619:626   */\n      0x00\n        /* \"#utility.yul\":648:672   */\n      tag_88\n        /* \"#utility.yul\":666:671   */\n      dup3\n        /* \"#utility.yul\":648:672   */\n      tag_64\n      jump\t// in\n    tag_88:\n        /* \"#utility.yul\":637:672   */\n      swap1\n      pop\n        /* \"#utility.yul\":574:678   */\n      swap2\n      swap1\n      pop\n      jump\t// out\n        /* \"#utility.yul\":684:826   */\n    tag_66:\n        /* \"#utility.yul\":787:819   */\n      tag_90\n        /* \"#utility.yul\":813:818   */\n      dup2\n        /* \"#utility.yul\":787:819   */\n      tag_65\n      jump\t// in\n    tag_90:\n        /* \"#utility.yul\":782:785   */\n      dup3\n        /* \"#utility.yul\":775:820   */\n      mstore\n        /* \"#utility.yul\":684:826   */\n      pop\n      pop\n      jump\t// out\n        /* \"#utility.yul\":832:1086   */\n    tag_20:\n        /* \"#utility.yul\":941:945   */\n      0x00\n        /* \"#utility.yul\":979:981   */\n      0x20\n        /* \"#utility.yul\":968:977   */\n      dup3\n        /* \"#utility.yul\":964:982   */\n      add\n        /* \"#utility.yul\":956:982   */\n      swap1\n      pop\n        /* \"#utility.yul\":992:1079   */\n      tag_92\n        /* \"#utility.yul\":1076:1077   */\n      0x00\n        /* \"#utility.yul\":1065:1074   */\n      dup4\n        /* \"#utility.yul\":1061:1078   */\n      add\n        /* \"#utility.yul\":1052:1058   */\n      dup5\n        /* \"#utility.yul\":992:1079   */\n      tag_66\n      jump\t// in\n    tag_92:\n        /* \"#utility.yul\":832:1086   */\n      swap3\n      swap2\n      pop\n      pop\n      jump\t// out\n        /* \"#utility.yul\":1092:1272   */\n    tag_37:\n        /* \"#utility.yul\":1140:1217   */\n      0x4e487b7100000000000000000000000000000000000000000000000000000000\n        /* \"#utility.yul\":1137:1138   */\n      0x00\n        /* \"#utility.yul\":1130:1218   */\n      mstore\n        /* \"#utility.yul\":1237:1241   */\n      0x21\n        /* \"#utility.yul\":1234:1235   */\n      0x04\n        /* \"#utility.yul\":1227:1242   */\n      mstore\n        /* \"#utility.yul\":1261:1265   */\n      0x24\n        /* \"#utility.yul\":1258:1259   */\n      0x00\n        /* \"#utility.yul\":1251:1266   */\n      revert\n        /* \"#utility.yul\":1278:1390   */\n    tag_67:\n        /* \"#utility.yul\":1358:1359   */\n      0x04\n        /* \"#utility.yul\":1351:1356   */\n      dup2\n        /* \"#utility.yul\":1348:1360   */\n      lt\n        /* \"#utility.yul\":1338:1384   */\n      tag_95\n      jumpi\n        /* \"#utility.yul\":1364:1382   */\n      tag_96\n      tag_37\n      jump\t// in\n    tag_96:\n        /* \"#utility.yul\":1338:1384   */\n    tag_95:\n        /* \"#utility.yul\":1278:1390   */\n      pop\n      jump\t// out\n        /* \"#utility.yul\":1396:1521   */\n    tag_68:\n        /* \"#utility.yul\":1440:1447   */\n      0x00\n        /* \"#utility.yul\":1469:1474   */\n      dup2\n        /* \"#utility.yul\":1458:1474   */\n      swap1\n      pop\n        /* \"#utility.yul\":1475:1515   */\n      tag_98\n        /* \"#utility.yul\":1509:1514   */\n      dup3\n        /* \"#utility.yul\":1475:1515   */\n      tag_67\n      jump\t// in\n    tag_98:\n        /* \"#utility.yul\":1396:1521   */\n      swap2\n      swap1\n      pop\n      jump\t// out\n        /* \"#utility.yul\":1527:1652   */\n    tag_69:\n        /* \"#utility.yul\":1582:1591   */\n      0x00\n        /* \"#utility.yul\":1615:1646   */\n      tag_100\n        /* \"#utility.yul\":1640:1645   */\n      dup3\n        /* \"#utility.yul\":1615:1646   */\n      tag_68\n      jump\t// in\n    tag_100:\n        /* \"#utility.yul\":1602:1646   */\n      swap1\n      pop\n        /* \"#utility.yul\":1527:1652   */\n      swap2\n      swap1\n      pop\n      jump\t// out\n        /* \"#utility.yul\":1658:1799   */\n    tag_70:\n        /* \"#utility.yul\":1750:1792   */\n      tag_102\n        /* \"#utility.yul\":1786:1791   */\n      dup2\n        /* \"#utility.yul\":1750:1792   */\n      tag_69\n      jump\t// in\n    tag_102:\n        /* \"#utility.yul\":1745:1748   */\n      dup3\n        /* \"#utility.yul\":1738:1793   */\n      mstore\n        /* \"#utility.yul\":1658:1799   */\n      pop\n      pop\n      jump\t// out\n        /* \"#utility.yul\":1805:2037   */\n    tag_25:\n        /* \"#utility.yul\":1903:1907   */\n      0x00\n        /* \"#utility.yul\":1941:1943   */\n      0x20\n        /* \"#utility.yul\":1930:1939   */\n      dup3\n        /* \"#utility.yul\":1926:1944   */\n      add\n        /* \"#utility.yul\":1918:1944   */\n      swap1\n      pop\n        /* \"#utility.yul\":1954:2030   */\n      tag_104\n        /* \"#utility.yul\":2027:2028   */\n      0x00\n        /* \"#utility.yul\":2016:2025   */\n      dup4\n        /* \"#utility.yul\":2012:2029   */\n      add\n        /* \"#utility.yul\":2003:2009   */\n      dup5\n        /* \"#utility.yul\":1954:2030   */\n      tag_70\n      jump\t// in\n    tag_104:\n        /* \"#utility.yul\":1805:2037   */\n      swap3\n      swap2\n      pop\n      pop\n      jump\t// out\n        /* \"#utility.yul\":2043:2190   */\n    tag_71:\n        /* \"#utility.yul\":2144:2155   */\n      0x00\n        /* \"#utility.yul\":2181:2184   */\n      dup2\n        /* \"#utility.yul\":2166:2184   */\n      swap1\n      pop\n        /* \"#utility.yul\":2043:2190   */\n      swap3\n      swap2\n      pop\n      pop\n      jump\t// out\n        /* \"#utility.yul\":2196:2310   */\n    tag_72:\n      pop\n      jump\t// out\n        /* \"#utility.yul\":2316:2714   */\n    tag_73:\n        /* \"#utility.yul\":2475:2478   */\n      0x00\n        /* \"#utility.yul\":2496:2579   */\n      tag_108\n        /* \"#utility.yul\":2577:2578   */\n      0x00\n        /* \"#utility.yul\":2572:2575   */\n      dup4\n        /* \"#utility.yul\":2496:2579   */\n      tag_71\n      jump\t// in\n    tag_108:\n        /* \"#utility.yul\":2489:2579   */\n      swap2\n      pop\n        /* \"#utility.yul\":2588:2681   */\n      tag_109\n        /* \"#utility.yul\":2677:2680   */\n      dup3\n        /* \"#utility.yul\":2588:2681   */\n      tag_72\n      jump\t// in\n    tag_109:\n        /* \"#utility.yul\":2706:2707   */\n      0x00\n        /* \"#utility.yul\":2701:2704   */\n      dup3\n        /* \"#utility.yul\":2697:2708   */\n      add\n        /* \"#utility.yul\":2690:2708   */\n      swap1\n      pop\n        /* \"#utility.yul\":2316:2714   */\n      swap2\n      swap1\n      pop\n      jump\t// out\n        /* \"#utility.yul\":2720:3099   */\n    tag_45:\n        /* \"#utility.yul\":2904:2907   */\n      0x00\n        /* \"#utility.yul\":2926:3073   */\n      tag_111\n        /* \"#utility.yul\":3069:3072   */\n      dup3\n        /* \"#utility.yul\":2926:3073   */\n      tag_73\n      jump\t// in\n    tag_111:\n        /* \"#utility.yul\":2919:3073   */\n      swap2\n      pop\n        /* \"#utility.yul\":3090:3093   */\n      dup2\n        /* \"#utility.yul\":3083:3093   */\n      swap1\n      pop\n        /* \"#utility.yul\":2720:3099   */\n      swap2\n      swap1\n      pop\n      jump\t// out\n        /* \"#utility.yul\":3105:3274   */\n    tag_74:\n        /* \"#utility.yul\":3189:3200   */\n      0x00\n        /* \"#utility.yul\":3223:3229   */\n      dup3\n        /* \"#utility.yul\":3218:3221   */\n      dup3\n        /* \"#utility.yul\":3211:3230   */\n      mstore\n        /* \"#utility.yul\":3263:3267   */\n      0x20\n        /* \"#utility.yul\":3258:3261   */\n      dup3\n        /* \"#utility.yul\":3254:3268   */\n      add\n        /* \"#utility.yul\":3239:3268   */\n      swap1\n      pop\n        /* \"#utility.yul\":3105:3274   */\n      swap3\n      swap2\n      pop\n      pop\n      jump\t// out\n        /* \"#utility.yul\":3280:3503   */\n    tag_75:\n        /* \"#utility.yul\":3420:3454   */\n      0x6c61207472616e73616374696f6e2061206c2761636865746575722061206563\n        /* \"#utility.yul\":3416:3417   */\n      0x00\n        /* \"#utility.yul\":3408:3414   */\n      dup3\n        /* \"#utility.yul\":3404:3418   */\n      add\n        /* \"#utility.yul\":3397:3455   */\n      mstore\n        /* \"#utility.yul\":3489:3495   */\n      0x686f756500000000000000000000000000000000000000000000000000000000\n        /* \"#utility.yul\":3484:3486   */\n      0x20\n        /* \"#utility.yul\":3476:3482   */\n      dup3\n        /* \"#utility.yul\":3472:3487   */\n      add\n        /* \"#utility.yul\":3465:3496   */\n      mstore\n        /* \"#utility.yul\":3280:3503   */\n      pop\n      jump\t// out\n        /* \"#utility.yul\":3509:3875   */\n    tag_76:\n        /* \"#utility.yul\":3651:3654   */\n      0x00\n        /* \"#utility.yul\":3672:3739   */\n      tag_115\n        /* \"#utility.yul\":3736:3738   */\n      0x24\n        /* \"#utility.yul\":3731:3734   */\n      dup4\n        /* \"#utility.yul\":3672:3739   */\n      tag_74\n      jump\t// in\n    tag_115:\n        /* \"#utility.yul\":3665:3739   */\n      swap2\n      pop\n        /* \"#utility.yul\":3748:3841   */\n      tag_116\n        /* \"#utility.yul\":3837:3840   */\n      dup3\n        /* \"#utility.yul\":3748:3841   */\n      tag_75\n      jump\t// in\n    tag_116:\n        /* \"#utility.yul\":3866:3868   */\n      0x40\n        /* \"#utility.yul\":3861:3864   */\n      dup3\n        /* \"#utility.yul\":3857:3869   */\n      add\n        /* \"#utility.yul\":3850:3869   */\n      swap1\n      pop\n        /* \"#utility.yul\":3509:3875   */\n      swap2\n      swap1\n      pop\n      jump\t// out\n        /* \"#utility.yul\":3881:4300   */\n    tag_51:\n        /* \"#utility.yul\":4047:4051   */\n      0x00\n        /* \"#utility.yul\":4085:4087   */\n      0x20\n        /* \"#utility.yul\":4074:4083   */\n      dup3\n        /* \"#utility.yul\":4070:4088   */\n      add\n        /* \"#utility.yul\":4062:4088   */\n      swap1\n      pop\n        /* \"#utility.yul\":4134:4143   */\n      dup2\n        /* \"#utility.yul\":4128:4132   */\n      dup2\n        /* \"#utility.yul\":4124:4144   */\n      sub\n        /* \"#utility.yul\":4120:4121   */\n      0x00\n        /* \"#utility.yul\":4109:4118   */\n      dup4\n        /* \"#utility.yul\":4105:4122   */\n      add\n        /* \"#utility.yul\":4098:4145   */\n      mstore\n        /* \"#utility.yul\":4162:4293   */\n      tag_118\n        /* \"#utility.yul\":4288:4292   */\n      dup2\n        /* \"#utility.yul\":4162:4293   */\n      tag_76\n      jump\t// in\n    tag_118:\n        /* \"#utility.yul\":4154:4293   */\n      swap1\n      pop\n        /* \"#utility.yul\":3881:4300   */\n      swap2\n      swap1\n      pop\n      jump\t// out\n        /* \"#utility.yul\":4306:4486   */\n    tag_77:\n        /* \"#utility.yul\":4354:4431   */\n      0x4e487b7100000000000000000000000000000000000000000000000000000000\n        /* \"#utility.yul\":4351:4352   */\n      0x00\n        /* \"#utility.yul\":4344:4432   */\n      mstore\n        /* \"#utility.yul\":4451:4455   */\n      0x11\n        /* \"#utility.yul\":4448:4449   */\n      0x04\n        /* \"#utility.yul\":4441:4456   */\n      mstore\n        /* \"#utility.yul\":4475:4479   */\n      0x24\n        /* \"#utility.yul\":4472:4473   */\n      0x00\n        /* \"#utility.yul\":4465:4480   */\n      revert\n        /* \"#utility.yul\":4492:4902   */\n    tag_56:\n        /* \"#utility.yul\":4532:4539   */\n      0x00\n        /* \"#utility.yul\":4555:4575   */\n      tag_121\n        /* \"#utility.yul\":4573:4574   */\n      dup3\n        /* \"#utility.yul\":4555:4575   */\n      tag_62\n      jump\t// in\n    tag_121:\n        /* \"#utility.yul\":4550:4575   */\n      swap2\n      pop\n        /* \"#utility.yul\":4589:4609   */\n      tag_122\n        /* \"#utility.yul\":4607:4608   */\n      dup4\n        /* \"#utility.yul\":4589:4609   */\n      tag_62\n      jump\t// in\n    tag_122:\n        /* \"#utility.yul\":4584:4609   */\n      swap3\n      pop\n        /* \"#utility.yul\":4644:4645   */\n      dup3\n        /* \"#utility.yul\":4641:4642   */\n      dup3\n        /* \"#utility.yul\":4637:4646   */\n      mul\n        /* \"#utility.yul\":4666:4696   */\n      tag_123\n        /* \"#utility.yul\":4684:4695   */\n      dup2\n        /* \"#utility.yul\":4666:4696   */\n      tag_62\n      jump\t// in\n    tag_123:\n        /* \"#utility.yul\":4655:4696   */\n      swap2\n      pop\n        /* \"#utility.yul\":4845:4846   */\n      dup3\n        /* \"#utility.yul\":4836:4843   */\n      dup3\n        /* \"#utility.yul\":4832:4847   */\n      div\n        /* \"#utility.yul\":4829:4830   */\n      dup5\n        /* \"#utility.yul\":4826:4848   */\n      eq\n        /* \"#utility.yul\":4806:4807   */\n      dup4\n        /* \"#utility.yul\":4799:4808   */\n      iszero\n        /* \"#utility.yul\":4779:4862   */\n      or\n        /* \"#utility.yul\":4756:4895   */\n      tag_124\n      jumpi\n        /* \"#utility.yul\":4875:4893   */\n      tag_125\n      tag_77\n      jump\t// in\n    tag_125:\n        /* \"#utility.yul\":4756:4895   */\n    tag_124:\n        /* \"#utility.yul\":4540:4902   */\n      pop\n        /* \"#utility.yul\":4492:4902   */\n      swap3\n      swap2\n      pop\n      pop\n      jump\t// out\n        /* \"#utility.yul\":4908:5147   */\n    tag_78:\n        /* \"#utility.yul\":5048:5082   */\n      0x656e2074616e742071752761636865746575722c207475206e27617320706173\n        /* \"#utility.yul\":5044:5045   */\n      0x00\n        /* \"#utility.yul\":5036:5042   */\n      dup3\n        /* \"#utility.yul\":5032:5046   */\n      add\n        /* \"#utility.yul\":5025:5083   */\n      mstore\n        /* \"#utility.yul\":5117:5139   */\n      0x206465706f736520737566666973616d6d656e74000000000000000000000000\n        /* \"#utility.yul\":5112:5114   */\n      0x20\n        /* \"#utility.yul\":5104:5110   */\n      dup3\n        /* \"#utility.yul\":5100:5115   */\n      add\n        /* \"#utility.yul\":5093:5140   */\n      mstore\n        /* \"#utility.yul\":4908:5147   */\n      pop\n      jump\t// out\n        /* \"#utility.yul\":5153:5519   */\n    tag_79:\n        /* \"#utility.yul\":5295:5298   */\n      0x00\n        /* \"#utility.yul\":5316:5383   */\n      tag_128\n        /* \"#utility.yul\":5380:5382   */\n      0x34\n        /* \"#utility.yul\":5375:5378   */\n      dup4\n        /* \"#utility.yul\":5316:5383   */\n      tag_74\n      jump\t// in\n    tag_128:\n        /* \"#utility.yul\":5309:5383   */\n      swap2\n      pop\n        /* \"#utility.yul\":5392:5485   */\n      tag_129\n        /* \"#utility.yul\":5481:5484   */\n      dup3\n        /* \"#utility.yul\":5392:5485   */\n      tag_78\n      jump\t// in\n    tag_129:\n        /* \"#utility.yul\":5510:5512   */\n      0x40\n        /* \"#utility.yul\":5505:5508   */\n      dup3\n        /* \"#utility.yul\":5501:5513   */\n      add\n        /* \"#utility.yul\":5494:5513   */\n      swap1\n      pop\n        /* \"#utility.yul\":5153:5519   */\n      swap2\n      swap1\n      pop\n      jump\t// out\n        /* \"#utility.yul\":5525:5944   */\n    tag_59:\n        /* \"#utility.yul\":5691:5695   */\n      0x00\n        /* \"#utility.yul\":5729:5731   */\n      0x20\n        /* \"#utility.yul\":5718:5727   */\n      dup3\n        /* \"#utility.yul\":5714:5732   */\n      add\n        /* \"#utility.yul\":5706:5732   */\n      swap1\n      pop\n        /* \"#utility.yul\":5778:5787   */\n      dup2\n        /* \"#utility.yul\":5772:5776   */\n      dup2\n        /* \"#utility.yul\":5768:5788   */\n      sub\n        /* \"#utility.yul\":5764:5765   */\n      0x00\n        /* \"#utility.yul\":5753:5762   */\n      dup4\n        /* \"#utility.yul\":5749:5766   */\n      add\n        /* \"#utility.yul\":5742:5789   */\n      mstore\n        /* \"#utility.yul\":5806:5937   */\n      tag_131\n        /* \"#utility.yul\":5932:5936   */\n      dup2\n        /* \"#utility.yul\":5806:5937   */\n      tag_79\n      jump\t// in\n    tag_131:\n        /* \"#utility.yul\":5798:5937   */\n      swap1\n      pop\n        /* \"#utility.yul\":5525:5944   */\n      swap2\n      swap1\n      pop\n      jump\t// out\n\n    auxdata: 0xa2646970667358221220699f8c23f7c5d11622e9e6eeaa739a0b29ca0cb241138a0b278a61cf134da97164736f6c63430008110033\n}\n",
				"bytecode": {
					"linkReferences": {},
					"object": "6080604052336000806101000a81548173ffffffffffffffffffffffffffffffffffffffff021916908373ffffffffffffffffffffffffffffffffffffffff160217905550600234610051919061010b565b600281905550346002546002610067919061013c565b1461009e576040517fa3b6768d00000000000000000000000000000000000000000000000000000000815260040160405180910390fd5b61017e565b6000819050919050565b7f4e487b7100000000000000000000000000000000000000000000000000000000600052601260045260246000fd5b7f4e487b7100000000000000000000000000000000000000000000000000000000600052601160045260246000fd5b6000610116826100a3565b9150610121836100a3565b925082610131576101306100ad565b5b828204905092915050565b6000610147826100a3565b9150610152836100a3565b9250828202610160816100a3565b91508282048414831517610177576101766100dc565b5b5092915050565b61085f8061018d6000396000f3fe6080604052600436106100555760003560e01c806353cae9281461005a5780635d2c2e73146100715780639a2caedc1461009c578063a2287c86146100c7578063c28fda30146100f2578063f9d131421461011d575b600080fd5b34801561006657600080fd5b5061006f610127565b005b34801561007d57600080fd5b50610086610347565b6040516100939190610534565b60405180910390f35b3480156100a857600080fd5b506100b161034d565b6040516100be9190610590565b60405180910390f35b3480156100d357600080fd5b506100dc610371565b6040516100e99190610622565b60405180910390f35b3480156100fe57600080fd5b50610107610384565b6040516101149190610590565b60405180910390f35b6101256103aa565b005b600160009054906101000a900473ffffffffffffffffffffffffffffffffffffffff1673ffffffffffffffffffffffffffffffffffffffff163373ffffffffffffffffffffffffffffffffffffffff16146101ae576040517fbce420d300000000000000000000000000000000000000000000000000000000815260040160405180910390fd5b60018060038111156101c3576101c26105ab565b5b600360009054906101000a900460ff1660038111156101e5576101e46105ab565b5b1461021c576040517fe115f76500000000000000000000000000000000000000000000000000000000815260040160405180910390fd5b7fa2d1fcec9ee3d11a949f98e29de35a71c299b2bbdb1c8a072b87e7b70f08e9d660405160405180910390a16002600360006101000a81548160ff0219169083600381111561026e5761026d6105ab565b5b02179055506000600160009054906101000a900473ffffffffffffffffffffffffffffffffffffffff1673ffffffffffffffffffffffffffffffffffffffff166002546040516102bd9061066e565b60006040518083038185875af1925050503d80600081146102fa576040519150601f19603f3d011682016040523d82523d6000602084013e6102ff565b606091505b5050905080610343576040517f08c379a000000000000000000000000000000000000000000000000000000000815260040161033a90610706565b60405180910390fd5b5050565b60025481565b60008054906101000a900473ffffffffffffffffffffffffffffffffffffffff1681565b600360009054906101000a900460ff1681565b600160009054906101000a900473ffffffffffffffffffffffffffffffffffffffff1681565b600160009054906101000a900473ffffffffffffffffffffffffffffffffffffffff1673ffffffffffffffffffffffffffffffffffffffff163373ffffffffffffffffffffffffffffffffffffffff1614610431576040517fbce420d300000000000000000000000000000000000000000000000000000000815260040160405180910390fd5b60025460026104409190610755565b3414610481576040517f08c379a000000000000000000000000000000000000000000000000000000000815260040161047890610809565b60405180910390fd5b7f6e73933f79d9bbaaba88a1c2c4191ecf6ed548b9457ecf5b1b1c4410a7aa547860405160405180910390a133600160006101000a81548173ffffffffffffffffffffffffffffffffffffffff021916908373ffffffffffffffffffffffffffffffffffffffff1602179055506001600360006101000a81548160ff02191690836003811115610514576105136105ab565b5b0217905550565b6000819050919050565b61052e8161051b565b82525050565b60006020820190506105496000830184610525565b92915050565b600073ffffffffffffffffffffffffffffffffffffffff82169050919050565b600061057a8261054f565b9050919050565b61058a8161056f565b82525050565b60006020820190506105a56000830184610581565b92915050565b7f4e487b7100000000000000000000000000000000000000000000000000000000600052602160045260246000fd5b600481106105eb576105ea6105ab565b5b50565b60008190506105fc826105da565b919050565b600061060c826105ee565b9050919050565b61061c81610601565b82525050565b60006020820190506106376000830184610613565b92915050565b600081905092915050565b50565b600061065860008361063d565b915061066382610648565b600082019050919050565b60006106798261064b565b9150819050919050565b600082825260208201905092915050565b7f6c61207472616e73616374696f6e2061206c276163686574657572206120656360008201527f686f756500000000000000000000000000000000000000000000000000000000602082015250565b60006106f0602483610683565b91506106fb82610694565b604082019050919050565b6000602082019050818103600083015261071f816106e3565b9050919050565b7f4e487b7100000000000000000000000000000000000000000000000000000000600052601160045260246000fd5b60006107608261051b565b915061076b8361051b565b92508282026107798161051b565b915082820484148315176107905761078f610726565b5b5092915050565b7f656e2074616e742071752761636865746575722c207475206e2761732070617360008201527f206465706f736520737566666973616d6d656e74000000000000000000000000602082015250565b60006107f3603483610683565b91506107fe82610797565b604082019050919050565b60006020820190508181036000830152610822816107e6565b905091905056fea2646970667358221220699f8c23f7c5d11622e9e6eeaa739a0b29ca0cb241138a0b278a61cf134da97164736f6c63430008110033",
					"opcodes": "PUSH1 0x80 PUSH1 0x40 MSTORE CALLER PUSH1 0x0 DUP1 PUSH2 0x100 EXP DUP2 SLOAD DUP2 PUSH20 0xFFFFFFFFFFFFFFFFFFFFFFFFFFFFFFFFFFFFFFFF MUL NOT AND SWAP1 DUP4 PUSH20 0xFFFFFFFFFFFFFFFFFFFFFFFFFFFFFFFFFFFFFFFF AND MUL OR SWAP1 SSTORE POP PUSH1 0x2 CALLVALUE PUSH2 0x51 SWAP2 SWAP1 PUSH2 0x10B JUMP JUMPDEST PUSH1 0x2 DUP2 SWAP1 SSTORE POP CALLVALUE PUSH1 0x2 SLOAD PUSH1 0x2 PUSH2 0x67 SWAP2 SWAP1 PUSH2 0x13C JUMP JUMPDEST EQ PUSH2 0x9E JUMPI PUSH1 0x40 MLOAD PUSH32 0xA3B6768D00000000000000000000000000000000000000000000000000000000 DUP2 MSTORE PUSH1 0x4 ADD PUSH1 0x40 MLOAD DUP1 SWAP2 SUB SWAP1 REVERT JUMPDEST PUSH2 0x17E JUMP JUMPDEST PUSH1 0x0 DUP2 SWAP1 POP SWAP2 SWAP1 POP JUMP JUMPDEST PUSH32 0x4E487B7100000000000000000000000000000000000000000000000000000000 PUSH1 0x0 MSTORE PUSH1 0x12 PUSH1 0x4 MSTORE PUSH1 0x24 PUSH1 0x0 REVERT JUMPDEST PUSH32 0x4E487B7100000000000000000000000000000000000000000000000000000000 PUSH1 0x0 MSTORE PUSH1 0x11 PUSH1 0x4 MSTORE PUSH1 0x24 PUSH1 0x0 REVERT JUMPDEST PUSH1 0x0 PUSH2 0x116 DUP3 PUSH2 0xA3 JUMP JUMPDEST SWAP2 POP PUSH2 0x121 DUP4 PUSH2 0xA3 JUMP JUMPDEST SWAP3 POP DUP3 PUSH2 0x131 JUMPI PUSH2 0x130 PUSH2 0xAD JUMP JUMPDEST JUMPDEST DUP3 DUP3 DIV SWAP1 POP SWAP3 SWAP2 POP POP JUMP JUMPDEST PUSH1 0x0 PUSH2 0x147 DUP3 PUSH2 0xA3 JUMP JUMPDEST SWAP2 POP PUSH2 0x152 DUP4 PUSH2 0xA3 JUMP JUMPDEST SWAP3 POP DUP3 DUP3 MUL PUSH2 0x160 DUP2 PUSH2 0xA3 JUMP JUMPDEST SWAP2 POP DUP3 DUP3 DIV DUP5 EQ DUP4 ISZERO OR PUSH2 0x177 JUMPI PUSH2 0x176 PUSH2 0xDC JUMP JUMPDEST JUMPDEST POP SWAP3 SWAP2 POP POP JUMP JUMPDEST PUSH2 0x85F DUP1 PUSH2 0x18D PUSH1 0x0 CODECOPY PUSH1 0x0 RETURN INVALID PUSH1 0x80 PUSH1 0x40 MSTORE PUSH1 0x4 CALLDATASIZE LT PUSH2 0x55 JUMPI PUSH1 0x0 CALLDATALOAD PUSH1 0xE0 SHR DUP1 PUSH4 0x53CAE928 EQ PUSH2 0x5A JUMPI DUP1 PUSH4 0x5D2C2E73 EQ PUSH2 0x71 JUMPI DUP1 PUSH4 0x9A2CAEDC EQ PUSH2 0x9C JUMPI DUP1 PUSH4 0xA2287C86 EQ PUSH2 0xC7 JUMPI DUP1 PUSH4 0xC28FDA30 EQ PUSH2 0xF2 JUMPI DUP1 PUSH4 0xF9D13142 EQ PUSH2 0x11D JUMPI JUMPDEST PUSH1 0x0 DUP1 REVERT JUMPDEST CALLVALUE DUP1 ISZERO PUSH2 0x66 JUMPI PUSH1 0x0 DUP1 REVERT JUMPDEST POP PUSH2 0x6F PUSH2 0x127 JUMP JUMPDEST STOP JUMPDEST CALLVALUE DUP1 ISZERO PUSH2 0x7D JUMPI PUSH1 0x0 DUP1 REVERT JUMPDEST POP PUSH2 0x86 PUSH2 0x347 JUMP JUMPDEST PUSH1 0x40 MLOAD PUSH2 0x93 SWAP2 SWAP1 PUSH2 0x534 JUMP JUMPDEST PUSH1 0x40 MLOAD DUP1 SWAP2 SUB SWAP1 RETURN JUMPDEST CALLVALUE DUP1 ISZERO PUSH2 0xA8 JUMPI PUSH1 0x0 DUP1 REVERT JUMPDEST POP PUSH2 0xB1 PUSH2 0x34D JUMP JUMPDEST PUSH1 0x40 MLOAD PUSH2 0xBE SWAP2 SWAP1 PUSH2 0x590 JUMP JUMPDEST PUSH1 0x40 MLOAD DUP1 SWAP2 SUB SWAP1 RETURN JUMPDEST CALLVALUE DUP1 ISZERO PUSH2 0xD3 JUMPI PUSH1 0x0 DUP1 REVERT JUMPDEST POP PUSH2 0xDC PUSH2 0x371 JUMP JUMPDEST PUSH1 0x40 MLOAD PUSH2 0xE9 SWAP2 SWAP1 PUSH2 0x622 JUMP JUMPDEST PUSH1 0x40 MLOAD DUP1 SWAP2 SUB SWAP1 RETURN JUMPDEST CALLVALUE DUP1 ISZERO PUSH2 0xFE JUMPI PUSH1 0x0 DUP1 REVERT JUMPDEST POP PUSH2 0x107 PUSH2 0x384 JUMP JUMPDEST PUSH1 0x40 MLOAD PUSH2 0x114 SWAP2 SWAP1 PUSH2 0x590 JUMP JUMPDEST PUSH1 0x40 MLOAD DUP1 SWAP2 SUB SWAP1 RETURN JUMPDEST PUSH2 0x125 PUSH2 0x3AA JUMP JUMPDEST STOP JUMPDEST PUSH1 0x1 PUSH1 0x0 SWAP1 SLOAD SWAP1 PUSH2 0x100 EXP SWAP1 DIV PUSH20 0xFFFFFFFFFFFFFFFFFFFFFFFFFFFFFFFFFFFFFFFF AND PUSH20 0xFFFFFFFFFFFFFFFFFFFFFFFFFFFFFFFFFFFFFFFF AND CALLER PUSH20 0xFFFFFFFFFFFFFFFFFFFFFFFFFFFFFFFFFFFFFFFF AND EQ PUSH2 0x1AE JUMPI PUSH1 0x40 MLOAD PUSH32 0xBCE420D300000000000000000000000000000000000000000000000000000000 DUP2 MSTORE PUSH1 0x4 ADD PUSH1 0x40 MLOAD DUP1 SWAP2 SUB SWAP1 REVERT JUMPDEST PUSH1 0x1 DUP1 PUSH1 0x3 DUP2 GT ISZERO PUSH2 0x1C3 JUMPI PUSH2 0x1C2 PUSH2 0x5AB JUMP JUMPDEST JUMPDEST PUSH1 0x3 PUSH1 0x0 SWAP1 SLOAD SWAP1 PUSH2 0x100 EXP SWAP1 DIV PUSH1 0xFF AND PUSH1 0x3 DUP2 GT ISZERO PUSH2 0x1E5 JUMPI PUSH2 0x1E4 PUSH2 0x5AB JUMP JUMPDEST JUMPDEST EQ PUSH2 0x21C JUMPI PUSH1 0x40 MLOAD PUSH32 0xE115F76500000000000000000000000000000000000000000000000000000000 DUP2 MSTORE PUSH1 0x4 ADD PUSH1 0x40 MLOAD DUP1 SWAP2 SUB SWAP1 REVERT JUMPDEST PUSH32 0xA2D1FCEC9EE3D11A949F98E29DE35A71C299B2BBDB1C8A072B87E7B70F08E9D6 PUSH1 0x40 MLOAD PUSH1 0x40 MLOAD DUP1 SWAP2 SUB SWAP1 LOG1 PUSH1 0x2 PUSH1 0x3 PUSH1 0x0 PUSH2 0x100 EXP DUP2 SLOAD DUP2 PUSH1 0xFF MUL NOT AND SWAP1 DUP4 PUSH1 0x3 DUP2 GT ISZERO PUSH2 0x26E JUMPI PUSH2 0x26D PUSH2 0x5AB JUMP JUMPDEST JUMPDEST MUL OR SWAP1 SSTORE POP PUSH1 0x0 PUSH1 0x1 PUSH1 0x0 SWAP1 SLOAD SWAP1 PUSH2 0x100 EXP SWAP1 DIV PUSH20 0xFFFFFFFFFFFFFFFFFFFFFFFFFFFFFFFFFFFFFFFF AND PUSH20 0xFFFFFFFFFFFFFFFFFFFFFFFFFFFFFFFFFFFFFFFF AND PUSH1 0x2 SLOAD PUSH1 0x40 MLOAD PUSH2 0x2BD SWAP1 PUSH2 0x66E JUMP JUMPDEST PUSH1 0x0 PUSH1 0x40 MLOAD DUP1 DUP4 SUB DUP2 DUP6 DUP8 GAS CALL SWAP3 POP POP POP RETURNDATASIZE DUP1 PUSH1 0x0 DUP2 EQ PUSH2 0x2FA JUMPI PUSH1 0x40 MLOAD SWAP2 POP PUSH1 0x1F NOT PUSH1 0x3F RETURNDATASIZE ADD AND DUP3 ADD PUSH1 0x40 MSTORE RETURNDATASIZE DUP3 MSTORE RETURNDATASIZE PUSH1 0x0 PUSH1 0x20 DUP5 ADD RETURNDATACOPY PUSH2 0x2FF JUMP JUMPDEST PUSH1 0x60 SWAP2 POP JUMPDEST POP POP SWAP1 POP DUP1 PUSH2 0x343 JUMPI PUSH1 0x40 MLOAD PUSH32 0x8C379A000000000000000000000000000000000000000000000000000000000 DUP2 MSTORE PUSH1 0x4 ADD PUSH2 0x33A SWAP1 PUSH2 0x706 JUMP JUMPDEST PUSH1 0x40 MLOAD DUP1 SWAP2 SUB SWAP1 REVERT JUMPDEST POP POP JUMP JUMPDEST PUSH1 0x2 SLOAD DUP2 JUMP JUMPDEST PUSH1 0x0 DUP1 SLOAD SWAP1 PUSH2 0x100 EXP SWAP1 DIV PUSH20 0xFFFFFFFFFFFFFFFFFFFFFFFFFFFFFFFFFFFFFFFF AND DUP2 JUMP JUMPDEST PUSH1 0x3 PUSH1 0x0 SWAP1 SLOAD SWAP1 PUSH2 0x100 EXP SWAP1 DIV PUSH1 0xFF AND DUP2 JUMP JUMPDEST PUSH1 0x1 PUSH1 0x0 SWAP1 SLOAD SWAP1 PUSH2 0x100 EXP SWAP1 DIV PUSH20 0xFFFFFFFFFFFFFFFFFFFFFFFFFFFFFFFFFFFFFFFF AND DUP2 JUMP JUMPDEST PUSH1 0x1 PUSH1 0x0 SWAP1 SLOAD SWAP1 PUSH2 0x100 EXP SWAP1 DIV PUSH20 0xFFFFFFFFFFFFFFFFFFFFFFFFFFFFFFFFFFFFFFFF AND PUSH20 0xFFFFFFFFFFFFFFFFFFFFFFFFFFFFFFFFFFFFFFFF AND CALLER PUSH20 0xFFFFFFFFFFFFFFFFFFFFFFFFFFFFFFFFFFFFFFFF AND EQ PUSH2 0x431 JUMPI PUSH1 0x40 MLOAD PUSH32 0xBCE420D300000000000000000000000000000000000000000000000000000000 DUP2 MSTORE PUSH1 0x4 ADD PUSH1 0x40 MLOAD DUP1 SWAP2 SUB SWAP1 REVERT JUMPDEST PUSH1 0x2 SLOAD PUSH1 0x2 PUSH2 0x440 SWAP2 SWAP1 PUSH2 0x755 JUMP JUMPDEST CALLVALUE EQ PUSH2 0x481 JUMPI PUSH1 0x40 MLOAD PUSH32 0x8C379A000000000000000000000000000000000000000000000000000000000 DUP2 MSTORE PUSH1 0x4 ADD PUSH2 0x478 SWAP1 PUSH2 0x809 JUMP JUMPDEST PUSH1 0x40 MLOAD DUP1 SWAP2 SUB SWAP1 REVERT JUMPDEST PUSH32 0x6E73933F79D9BBAABA88A1C2C4191ECF6ED548B9457ECF5B1B1C4410A7AA5478 PUSH1 0x40 MLOAD PUSH1 0x40 MLOAD DUP1 SWAP2 SUB SWAP1 LOG1 CALLER PUSH1 0x1 PUSH1 0x0 PUSH2 0x100 EXP DUP2 SLOAD DUP2 PUSH20 0xFFFFFFFFFFFFFFFFFFFFFFFFFFFFFFFFFFFFFFFF MUL NOT AND SWAP1 DUP4 PUSH20 0xFFFFFFFFFFFFFFFFFFFFFFFFFFFFFFFFFFFFFFFF AND MUL OR SWAP1 SSTORE POP PUSH1 0x1 PUSH1 0x3 PUSH1 0x0 PUSH2 0x100 EXP DUP2 SLOAD DUP2 PUSH1 0xFF MUL NOT AND SWAP1 DUP4 PUSH1 0x3 DUP2 GT ISZERO PUSH2 0x514 JUMPI PUSH2 0x513 PUSH2 0x5AB JUMP JUMPDEST JUMPDEST MUL OR SWAP1 SSTORE POP JUMP JUMPDEST PUSH1 0x0 DUP2 SWAP1 POP SWAP2 SWAP1 POP JUMP JUMPDEST PUSH2 0x52E DUP2 PUSH2 0x51B JUMP JUMPDEST DUP3 MSTORE POP POP JUMP JUMPDEST PUSH1 0x0 PUSH1 0x20 DUP3 ADD SWAP1 POP PUSH2 0x549 PUSH1 0x0 DUP4 ADD DUP5 PUSH2 0x525 JUMP JUMPDEST SWAP3 SWAP2 POP POP JUMP JUMPDEST PUSH1 0x0 PUSH20 0xFFFFFFFFFFFFFFFFFFFFFFFFFFFFFFFFFFFFFFFF DUP3 AND SWAP1 POP SWAP2 SWAP1 POP JUMP JUMPDEST PUSH1 0x0 PUSH2 0x57A DUP3 PUSH2 0x54F JUMP JUMPDEST SWAP1 POP SWAP2 SWAP1 POP JUMP JUMPDEST PUSH2 0x58A DUP2 PUSH2 0x56F JUMP JUMPDEST DUP3 MSTORE POP POP JUMP JUMPDEST PUSH1 0x0 PUSH1 0x20 DUP3 ADD SWAP1 POP PUSH2 0x5A5 PUSH1 0x0 DUP4 ADD DUP5 PUSH2 0x581 JUMP JUMPDEST SWAP3 SWAP2 POP POP JUMP JUMPDEST PUSH32 0x4E487B7100000000000000000000000000000000000000000000000000000000 PUSH1 0x0 MSTORE PUSH1 0x21 PUSH1 0x4 MSTORE PUSH1 0x24 PUSH1 0x0 REVERT JUMPDEST PUSH1 0x4 DUP2 LT PUSH2 0x5EB JUMPI PUSH2 0x5EA PUSH2 0x5AB JUMP JUMPDEST JUMPDEST POP JUMP JUMPDEST PUSH1 0x0 DUP2 SWAP1 POP PUSH2 0x5FC DUP3 PUSH2 0x5DA JUMP JUMPDEST SWAP2 SWAP1 POP JUMP JUMPDEST PUSH1 0x0 PUSH2 0x60C DUP3 PUSH2 0x5EE JUMP JUMPDEST SWAP1 POP SWAP2 SWAP1 POP JUMP JUMPDEST PUSH2 0x61C DUP2 PUSH2 0x601 JUMP JUMPDEST DUP3 MSTORE POP POP JUMP JUMPDEST PUSH1 0x0 PUSH1 0x20 DUP3 ADD SWAP1 POP PUSH2 0x637 PUSH1 0x0 DUP4 ADD DUP5 PUSH2 0x613 JUMP JUMPDEST SWAP3 SWAP2 POP POP JUMP JUMPDEST PUSH1 0x0 DUP2 SWAP1 POP SWAP3 SWAP2 POP POP JUMP JUMPDEST POP JUMP JUMPDEST PUSH1 0x0 PUSH2 0x658 PUSH1 0x0 DUP4 PUSH2 0x63D JUMP JUMPDEST SWAP2 POP PUSH2 0x663 DUP3 PUSH2 0x648 JUMP JUMPDEST PUSH1 0x0 DUP3 ADD SWAP1 POP SWAP2 SWAP1 POP JUMP JUMPDEST PUSH1 0x0 PUSH2 0x679 DUP3 PUSH2 0x64B JUMP JUMPDEST SWAP2 POP DUP2 SWAP1 POP SWAP2 SWAP1 POP JUMP JUMPDEST PUSH1 0x0 DUP3 DUP3 MSTORE PUSH1 0x20 DUP3 ADD SWAP1 POP SWAP3 SWAP2 POP POP JUMP JUMPDEST PUSH32 0x6C61207472616E73616374696F6E2061206C2761636865746575722061206563 PUSH1 0x0 DUP3 ADD MSTORE PUSH32 0x686F756500000000000000000000000000000000000000000000000000000000 PUSH1 0x20 DUP3 ADD MSTORE POP JUMP JUMPDEST PUSH1 0x0 PUSH2 0x6F0 PUSH1 0x24 DUP4 PUSH2 0x683 JUMP JUMPDEST SWAP2 POP PUSH2 0x6FB DUP3 PUSH2 0x694 JUMP JUMPDEST PUSH1 0x40 DUP3 ADD SWAP1 POP SWAP2 SWAP1 POP JUMP JUMPDEST PUSH1 0x0 PUSH1 0x20 DUP3 ADD SWAP1 POP DUP2 DUP2 SUB PUSH1 0x0 DUP4 ADD MSTORE PUSH2 0x71F DUP2 PUSH2 0x6E3 JUMP JUMPDEST SWAP1 POP SWAP2 SWAP1 POP JUMP JUMPDEST PUSH32 0x4E487B7100000000000000000000000000000000000000000000000000000000 PUSH1 0x0 MSTORE PUSH1 0x11 PUSH1 0x4 MSTORE PUSH1 0x24 PUSH1 0x0 REVERT JUMPDEST PUSH1 0x0 PUSH2 0x760 DUP3 PUSH2 0x51B JUMP JUMPDEST SWAP2 POP PUSH2 0x76B DUP4 PUSH2 0x51B JUMP JUMPDEST SWAP3 POP DUP3 DUP3 MUL PUSH2 0x779 DUP2 PUSH2 0x51B JUMP JUMPDEST SWAP2 POP DUP3 DUP3 DIV DUP5 EQ DUP4 ISZERO OR PUSH2 0x790 JUMPI PUSH2 0x78F PUSH2 0x726 JUMP JUMPDEST JUMPDEST POP SWAP3 SWAP2 POP POP JUMP JUMPDEST PUSH32 0x656E2074616E742071752761636865746575722C207475206E27617320706173 PUSH1 0x0 DUP3 ADD MSTORE PUSH32 0x206465706F736520737566666973616D6D656E74000000000000000000000000 PUSH1 0x20 DUP3 ADD MSTORE POP JUMP JUMPDEST PUSH1 0x0 PUSH2 0x7F3 PUSH1 0x34 DUP4 PUSH2 0x683 JUMP JUMPDEST SWAP2 POP PUSH2 0x7FE DUP3 PUSH2 0x797 JUMP JUMPDEST PUSH1 0x40 DUP3 ADD SWAP1 POP SWAP2 SWAP1 POP JUMP JUMPDEST PUSH1 0x0 PUSH1 0x20 DUP3 ADD SWAP1 POP DUP2 DUP2 SUB PUSH1 0x0 DUP4 ADD MSTORE PUSH2 0x822 DUP2 PUSH2 0x7E6 JUMP JUMPDEST SWAP1 POP SWAP2 SWAP1 POP JUMP INVALID LOG2 PUSH5 0x6970667358 0x22 SLT KECCAK256 PUSH10 0x9F8C23F7C5D11622E9E6 0xEE 0xAA PUSH20 0x9A0B29CA0CB241138A0B278A61CF134DA9716473 PUSH16 0x6C634300081100330000000000000000 "
				},
				"gasEstimates": {
					"creation": {
						"codeDepositCost": "428600",
						"executionCost": "infinite",
						"totalCost": "infinite"
					},
					"external": {
						"acheteur()": "2580",
						"commandeConfirmee()": "infinite",
						"commandeRecue()": "infinite",
						"etat()": "2604",
						"valeur()": "2429",
						"vendeur()": "2533"
					}
				},
				"methodIdentifiers": {
					"acheteur()": "c28fda30",
					"commandeConfirmee()": "f9d13142",
					"commandeRecue()": "53cae928",
					"etat()": "a2287c86",
					"valeur()": "5d2c2e73",
					"vendeur()": "9a2caedc"
				}
			},
			"storageLayout": {
				"storage": [
					{
						"astId": 3,
						"contract": "commande.sol:commande",
						"label": "vendeur",
						"offset": 0,
						"slot": "0",
						"type": "t_address_payable"
					},
					{
						"astId": 5,
						"contract": "commande.sol:commande",
						"label": "acheteur",
						"offset": 0,
						"slot": "1",
						"type": "t_address_payable"
					},
					{
						"astId": 7,
						"contract": "commande.sol:commande",
						"label": "valeur",
						"offset": 0,
						"slot": "2",
						"type": "t_uint256"
					},
					{
						"astId": 15,
						"contract": "commande.sol:commande",
						"label": "etat",
						"offset": 0,
						"slot": "3",
						"type": "t_enum(Etat)12"
					}
				],
				"types": {
					"t_address_payable": {
						"encoding": "inplace",
						"label": "address payable",
						"numberOfBytes": "20"
					},
					"t_enum(Etat)12": {
						"encoding": "inplace",
						"label": "enum commande.Etat",
						"numberOfBytes": "1"
					},
					"t_uint256": {
						"encoding": "inplace",
						"label": "uint256",
						"numberOfBytes": "32"
					}
				}
			},
			"userdoc": {
				"kind": "user",
				"methods": {},
				"version": 1
			}
		}
	}
}