{
	"don.sol": {
		"don": {
			"abi": [
				{
					"inputs": [
						{
							"internalType": "address",
							"name": "",
							"type": "address"
						}
					],
					"name": "balance",
					"outputs": [
						{
							"internalType": "uint256",
							"name": "",
							"type": "uint256"
						}
					],
					"stateMutability": "view",
					"type": "function"
				},
				{
					"inputs": [
						{
							"internalType": "address",
							"name": "",
							"type": "address"
						},
						{
							"internalType": "uint256",
							"name": "",
							"type": "uint256"
						}
					],
					"name": "donMap",
					"outputs": [
						{
							"internalType": "uint256",
							"name": "id",
							"type": "uint256"
						},
						{
							"internalType": "uint256",
							"name": "montant",
							"type": "uint256"
						},
						{
							"internalType": "string",
							"name": "donateur",
							"type": "string"
						},
						{
							"internalType": "string",
							"name": "message",
							"type": "string"
						}
					],
					"stateMutability": "view",
					"type": "function"
				},
				{
					"inputs": [
						{
							"internalType": "address",
							"name": "_to",
							"type": "address"
						},
						{
							"internalType": "string",
							"name": "_donateur",
							"type": "string"
						},
						{
							"internalType": "string",
							"name": "_msg",
							"type": "string"
						}
					],
					"name": "donner",
					"outputs": [],
					"stateMutability": "payable",
					"type": "function"
				},
				{
					"inputs": [],
					"name": "getBalanceUser",
					"outputs": [
						{
							"internalType": "uint256",
							"name": "",
							"type": "uint256"
						}
					],
					"stateMutability": "view",
					"type": "function"
				},
				{
					"inputs": [
						{
							"internalType": "address",
							"name": "addr",
							"type": "address"
						}
					],
					"name": "getbalanceMap",
					"outputs": [
						{
							"internalType": "uint256",
							"name": "",
							"type": "uint256"
						}
					],
					"stateMutability": "view",
					"type": "function"
				},
				{
					"inputs": [
						{
							"internalType": "address",
							"name": "addr",
							"type": "address"
						}
					],
					"name": "getdonMap",
					"outputs": [
						{
							"components": [
								{
									"internalType": "uint256",
									"name": "id",
									"type": "uint256"
								},
								{
									"internalType": "uint256",
									"name": "montant",
									"type": "uint256"
								},
								{
									"internalType": "string",
									"name": "donateur",
									"type": "string"
								},
								{
									"internalType": "string",
									"name": "message",
									"type": "string"
								}
							],
							"internalType": "struct don.Don[]",
							"name": "",
							"type": "tuple[]"
						}
					],
					"stateMutability": "view",
					"type": "function"
				},
				{
					"inputs": [],
					"name": "withdraw",
					"outputs": [],
					"stateMutability": "nonpayable",
					"type": "function"
				}
			],
			"devdoc": {
				"kind": "dev",
				"methods": {},
				"version": 1
			},
			"evm": {
				"assembly": "    /* \"don.sol\":138:1816  contract don {... */\n  mstore(0x40, 0x80)\n    /* \"don.sol\":166:167  0 */\n  0x00\n    /* \"don.sol\":158:167  uint id=0 */\n  dup1\n  sstore\n    /* \"don.sol\":185:186  0 */\n  0x00\n    /* \"don.sol\":173:186  uint amount=0 */\n  0x01\n  sstore\n    /* \"don.sol\":138:1816  contract don {... */\n  callvalue\n  dup1\n  iszero\n  tag_1\n  jumpi\n  0x00\n  dup1\n  revert\ntag_1:\n  pop\n  dataSize(sub_0)\n  dup1\n  dataOffset(sub_0)\n  0x00\n  codecopy\n  0x00\n  return\nstop\n\nsub_0: assembly {\n        /* \"don.sol\":138:1816  contract don {... */\n      mstore(0x40, 0x80)\n      jumpi(tag_1, lt(calldatasize, 0x04))\n      shr(0xe0, calldataload(0x00))\n      dup1\n      0x3ccfd60b\n      gt\n      tag_9\n      jumpi\n      dup1\n      0x3ccfd60b\n      eq\n      tag_5\n      jumpi\n      dup1\n      0x4eda6f2a\n      eq\n      tag_6\n      jumpi\n      dup1\n      0xe3d670d7\n      eq\n      tag_7\n      jumpi\n      dup1\n      0xf449c0b4\n      eq\n      tag_8\n      jumpi\n      jump(tag_1)\n    tag_9:\n      dup1\n      0x0ddd9ab1\n      eq\n      tag_2\n      jumpi\n      dup1\n      0x15f75dda\n      eq\n      tag_3\n      jumpi\n      dup1\n      0x31dacf77\n      eq\n      tag_4\n      jumpi\n    tag_1:\n      0x00\n      dup1\n      revert\n        /* \"don.sol\":350:389  mapping(address => Don[]) public donMap */\n    tag_2:\n      callvalue\n      dup1\n      iszero\n      tag_10\n      jumpi\n      0x00\n      dup1\n      revert\n    tag_10:\n      pop\n      tag_11\n      0x04\n      dup1\n      calldatasize\n      sub\n      dup2\n      add\n      swap1\n      tag_12\n      swap2\n      swap1\n      tag_13\n      jump\t// in\n    tag_12:\n      tag_14\n      jump\t// in\n    tag_11:\n      mload(0x40)\n      tag_15\n      swap5\n      swap4\n      swap3\n      swap2\n      swap1\n      tag_16\n      jump\t// in\n    tag_15:\n      mload(0x40)\n      dup1\n      swap2\n      sub\n      swap1\n      return\n        /* \"don.sol\":1609:1710  function getbalanceMap(address addr) public view returns (uint) {... */\n    tag_3:\n      callvalue\n      dup1\n      iszero\n      tag_17\n      jumpi\n      0x00\n      dup1\n      revert\n    tag_17:\n      pop\n      tag_18\n      0x04\n      dup1\n      calldatasize\n      sub\n      dup2\n      add\n      swap1\n      tag_19\n      swap2\n      swap1\n      tag_20\n      jump\t// in\n    tag_19:\n      tag_21\n      jump\t// in\n    tag_18:\n      mload(0x40)\n      tag_22\n      swap2\n      swap1\n      tag_23\n      jump\t// in\n    tag_22:\n      mload(0x40)\n      dup1\n      swap2\n      sub\n      swap1\n      return\n        /* \"don.sol\":1716:1811  function getBalanceUser() public view returns (uint) {... */\n    tag_4:\n      callvalue\n      dup1\n      iszero\n      tag_24\n      jumpi\n      0x00\n      dup1\n      revert\n    tag_24:\n      pop\n      tag_25\n      tag_26\n      jump\t// in\n    tag_25:\n      mload(0x40)\n      tag_27\n      swap2\n      swap1\n      tag_23\n      jump\t// in\n    tag_27:\n      mload(0x40)\n      dup1\n      swap2\n      sub\n      swap1\n      return\n        /* \"don.sol\":1216:1492  function withdraw() public {... */\n    tag_5:\n      callvalue\n      dup1\n      iszero\n      tag_28\n      jumpi\n      0x00\n      dup1\n      revert\n    tag_28:\n      pop\n      tag_29\n      tag_30\n      jump\t// in\n    tag_29:\n      stop\n        /* \"don.sol\":749:1209  function donner(address _to, string memory _donateur, string memory _msg) public payable {... */\n    tag_6:\n      tag_31\n      0x04\n      dup1\n      calldatasize\n      sub\n      dup2\n      add\n      swap1\n      tag_32\n      swap2\n      swap1\n      tag_33\n      jump\t// in\n    tag_32:\n      tag_34\n      jump\t// in\n    tag_31:\n      stop\n        /* \"don.sol\":305:344  mapping(address => uint) public balance */\n    tag_7:\n      callvalue\n      dup1\n      iszero\n      tag_35\n      jumpi\n      0x00\n      dup1\n      revert\n    tag_35:\n      pop\n      tag_36\n      0x04\n      dup1\n      calldatasize\n      sub\n      dup2\n      add\n      swap1\n      tag_37\n      swap2\n      swap1\n      tag_20\n      jump\t// in\n    tag_37:\n      tag_38\n      jump\t// in\n    tag_36:\n      mload(0x40)\n      tag_39\n      swap2\n      swap1\n      tag_23\n      jump\t// in\n    tag_39:\n      mload(0x40)\n      dup1\n      swap2\n      sub\n      swap1\n      return\n        /* \"don.sol\":1499:1603  function getdonMap(address addr) public view returns (Don[] memory) {... */\n    tag_8:\n      callvalue\n      dup1\n      iszero\n      tag_40\n      jumpi\n      0x00\n      dup1\n      revert\n    tag_40:\n      pop\n      tag_41\n      0x04\n      dup1\n      calldatasize\n      sub\n      dup2\n      add\n      swap1\n      tag_42\n      swap2\n      swap1\n      tag_20\n      jump\t// in\n    tag_42:\n      tag_43\n      jump\t// in\n    tag_41:\n      mload(0x40)\n      tag_44\n      swap2\n      swap1\n      tag_45\n      jump\t// in\n    tag_44:\n      mload(0x40)\n      dup1\n      swap2\n      sub\n      swap1\n      return\n        /* \"don.sol\":350:389  mapping(address => Don[]) public donMap */\n    tag_14:\n      mstore(0x20, 0x03)\n      dup2\n      0x00\n      mstore\n      keccak256(0x00, 0x40)\n      dup2\n      dup2\n      sload\n      dup2\n      lt\n      tag_46\n      jumpi\n      0x00\n      dup1\n      revert\n    tag_46:\n      swap1\n      0x00\n      mstore\n      keccak256(0x00, 0x20)\n      swap1\n      0x04\n      mul\n      add\n      0x00\n      swap2\n      pop\n      swap2\n      pop\n      pop\n      dup1\n      0x00\n      add\n      sload\n      swap1\n      dup1\n      0x01\n      add\n      sload\n      swap1\n      dup1\n      0x02\n      add\n      dup1\n      sload\n      tag_48\n      swap1\n      tag_49\n      jump\t// in\n    tag_48:\n      dup1\n      0x1f\n      add\n      0x20\n      dup1\n      swap2\n      div\n      mul\n      0x20\n      add\n      mload(0x40)\n      swap1\n      dup2\n      add\n      0x40\n      mstore\n      dup1\n      swap3\n      swap2\n      swap1\n      dup2\n      dup2\n      mstore\n      0x20\n      add\n      dup3\n      dup1\n      sload\n      tag_50\n      swap1\n      tag_49\n      jump\t// in\n    tag_50:\n      dup1\n      iszero\n      tag_51\n      jumpi\n      dup1\n      0x1f\n      lt\n      tag_52\n      jumpi\n      0x0100\n      dup1\n      dup4\n      sload\n      div\n      mul\n      dup4\n      mstore\n      swap2\n      0x20\n      add\n      swap2\n      jump(tag_51)\n    tag_52:\n      dup3\n      add\n      swap2\n      swap1\n      0x00\n      mstore\n      keccak256(0x00, 0x20)\n      swap1\n    tag_53:\n      dup2\n      sload\n      dup2\n      mstore\n      swap1\n      0x01\n      add\n      swap1\n      0x20\n      add\n      dup1\n      dup4\n      gt\n      tag_53\n      jumpi\n      dup3\n      swap1\n      sub\n      0x1f\n      and\n      dup3\n      add\n      swap2\n    tag_51:\n      pop\n      pop\n      pop\n      pop\n      pop\n      swap1\n      dup1\n      0x03\n      add\n      dup1\n      sload\n      tag_54\n      swap1\n      tag_49\n      jump\t// in\n    tag_54:\n      dup1\n      0x1f\n      add\n      0x20\n      dup1\n      swap2\n      div\n      mul\n      0x20\n      add\n      mload(0x40)\n      swap1\n      dup2\n      add\n      0x40\n      mstore\n      dup1\n      swap3\n      swap2\n      swap1\n      dup2\n      dup2\n      mstore\n      0x20\n      add\n      dup3\n      dup1\n      sload\n      tag_55\n      swap1\n      tag_49\n      jump\t// in\n    tag_55:\n      dup1\n      iszero\n      tag_56\n      jumpi\n      dup1\n      0x1f\n      lt\n      tag_57\n      jumpi\n      0x0100\n      dup1\n      dup4\n      sload\n      div\n      mul\n      dup4\n      mstore\n      swap2\n      0x20\n      add\n      swap2\n      jump(tag_56)\n    tag_57:\n      dup3\n      add\n      swap2\n      swap1\n      0x00\n      mstore\n      keccak256(0x00, 0x20)\n      swap1\n    tag_58:\n      dup2\n      sload\n      dup2\n      mstore\n      swap1\n      0x01\n      add\n      swap1\n      0x20\n      add\n      dup1\n      dup4\n      gt\n      tag_58\n      jumpi\n      dup3\n      swap1\n      sub\n      0x1f\n      and\n      dup3\n      add\n      swap2\n    tag_56:\n      pop\n      pop\n      pop\n      pop\n      pop\n      swap1\n      pop\n      dup5\n      jump\t// out\n        /* \"don.sol\":1609:1710  function getbalanceMap(address addr) public view returns (uint) {... */\n    tag_21:\n        /* \"don.sol\":1667:1671  uint */\n      0x00\n        /* \"don.sol\":1690:1697  balance */\n      0x02\n        /* \"don.sol\":1690:1703  balance[addr] */\n      0x00\n        /* \"don.sol\":1698:1702  addr */\n      dup4\n        /* \"don.sol\":1690:1703  balance[addr] */\n      0xffffffffffffffffffffffffffffffffffffffff\n      and\n      0xffffffffffffffffffffffffffffffffffffffff\n      and\n      dup2\n      mstore\n      0x20\n      add\n      swap1\n      dup2\n      mstore\n      0x20\n      add\n      0x00\n      keccak256\n      sload\n        /* \"don.sol\":1683:1703  return balance[addr] */\n      swap1\n      pop\n        /* \"don.sol\":1609:1710  function getbalanceMap(address addr) public view returns (uint) {... */\n      swap2\n      swap1\n      pop\n      jump\t// out\n        /* \"don.sol\":1716:1811  function getBalanceUser() public view returns (uint) {... */\n    tag_26:\n        /* \"don.sol\":1763:1767  uint */\n      0x00\n        /* \"don.sol\":1786:1796  msg.sender */\n      caller\n        /* \"don.sol\":1786:1804  msg.sender.balance */\n      0xffffffffffffffffffffffffffffffffffffffff\n      and\n      balance\n        /* \"don.sol\":1779:1804  return msg.sender.balance */\n      swap1\n      pop\n        /* \"don.sol\":1716:1811  function getBalanceUser() public view returns (uint) {... */\n      swap1\n      jump\t// out\n        /* \"don.sol\":1216:1492  function withdraw() public {... */\n    tag_30:\n        /* \"don.sol\":1262:1269  balance */\n      0x02\n        /* \"don.sol\":1262:1281  balance[msg.sender] */\n      0x00\n        /* \"don.sol\":1270:1280  msg.sender */\n      caller\n        /* \"don.sol\":1262:1281  balance[msg.sender] */\n      0xffffffffffffffffffffffffffffffffffffffff\n      and\n      0xffffffffffffffffffffffffffffffffffffffff\n      and\n      dup2\n      mstore\n      0x20\n      add\n      swap1\n      dup2\n      mstore\n      0x20\n      add\n      0x00\n      keccak256\n      sload\n        /* \"don.sol\":1253:1259  amount */\n      0x01\n        /* \"don.sol\":1253:1281  amount = balance[msg.sender] */\n      dup2\n      swap1\n      sstore\n      pop\n        /* \"don.sol\":1314:1320  amount */\n      sload(0x01)\n        /* \"don.sol\":1291:1298  balance */\n      0x02\n        /* \"don.sol\":1291:1310  balance[msg.sender] */\n      0x00\n        /* \"don.sol\":1299:1309  msg.sender */\n      caller\n        /* \"don.sol\":1291:1310  balance[msg.sender] */\n      0xffffffffffffffffffffffffffffffffffffffff\n      and\n      0xffffffffffffffffffffffffffffffffffffffff\n      and\n      dup2\n      mstore\n      0x20\n      add\n      swap1\n      dup2\n      mstore\n      0x20\n      add\n      0x00\n      keccak256\n      0x00\n        /* \"don.sol\":1291:1320  balance[msg.sender] -= amount */\n      dup3\n      dup3\n      sload\n      tag_62\n      swap2\n      swap1\n      tag_63\n      jump\t// in\n    tag_62:\n      swap3\n      pop\n      pop\n      dup2\n      swap1\n      sstore\n      pop\n        /* \"don.sol\":1346:1347  0 */\n      0x00\n        /* \"don.sol\":1338:1344  amount */\n      sload(0x01)\n        /* \"don.sol\":1338:1347  amount >0 */\n      gt\n        /* \"don.sol\":1330:1371  require(amount >0, \"votre balance est 0\") */\n      tag_64\n      jumpi\n      mload(0x40)\n      0x08c379a000000000000000000000000000000000000000000000000000000000\n      dup2\n      mstore\n      0x04\n      add\n      tag_65\n      swap1\n      tag_66\n      jump\t// in\n    tag_65:\n      mload(0x40)\n      dup1\n      swap2\n      sub\n      swap1\n      revert\n    tag_64:\n        /* \"don.sol\":1382:1394  bool success */\n      0x00\n        /* \"don.sol\":1399:1409  msg.sender */\n      caller\n        /* \"don.sol\":1399:1414  msg.sender.call */\n      0xffffffffffffffffffffffffffffffffffffffff\n      and\n        /* \"don.sol\":1421:1427  amount */\n      sload(0x01)\n        /* \"don.sol\":1399:1432  msg.sender.call{value:amount}(\"\") */\n      mload(0x40)\n      tag_67\n      swap1\n      tag_68\n      jump\t// in\n    tag_67:\n      0x00\n      mload(0x40)\n      dup1\n      dup4\n      sub\n      dup2\n      dup6\n      dup8\n      gas\n      call\n      swap3\n      pop\n      pop\n      pop\n      returndatasize\n      dup1\n      0x00\n      dup2\n      eq\n      tag_71\n      jumpi\n      mload(0x40)\n      swap2\n      pop\n      and(add(returndatasize, 0x3f), not(0x1f))\n      dup3\n      add\n      0x40\n      mstore\n      returndatasize\n      dup3\n      mstore\n      returndatasize\n      0x00\n      0x20\n      dup5\n      add\n      returndatacopy\n      jump(tag_70)\n    tag_71:\n      0x60\n      swap2\n      pop\n    tag_70:\n      pop\n        /* \"don.sol\":1381:1432  (bool success,) = msg.sender.call{value:amount}(\"\") */\n      pop\n      swap1\n      pop\n        /* \"don.sol\":1450:1457  success */\n      dup1\n        /* \"don.sol\":1442:1485  require(success, \"la transaction a echoue\") */\n      tag_72\n      jumpi\n      mload(0x40)\n      0x08c379a000000000000000000000000000000000000000000000000000000000\n      dup2\n      mstore\n      0x04\n      add\n      tag_73\n      swap1\n      tag_74\n      jump\t// in\n    tag_73:\n      mload(0x40)\n      dup1\n      swap2\n      sub\n      swap1\n      revert\n    tag_72:\n        /* \"don.sol\":1243:1492  {... */\n      pop\n        /* \"don.sol\":1216:1492  function withdraw() public {... */\n      jump\t// out\n        /* \"don.sol\":749:1209  function donner(address _to, string memory _donateur, string memory _msg) public payable {... */\n    tag_34:\n        /* \"don.sol\":1057:1058  0 */\n      0x00\n        /* \"don.sol\":1045:1054  msg.value */\n      callvalue\n        /* \"don.sol\":1045:1058  msg.value > 0 */\n      gt\n        /* \"don.sol\":1037:1079  require(msg.value > 0, \"le depot est nul\") */\n      tag_76\n      jumpi\n      mload(0x40)\n      0x08c379a000000000000000000000000000000000000000000000000000000000\n      dup2\n      mstore\n      0x04\n      add\n      tag_77\n      swap1\n      tag_78\n      jump\t// in\n    tag_77:\n      mload(0x40)\n      dup1\n      swap2\n      sub\n      swap1\n      revert\n    tag_76:\n        /* \"don.sol\":1099:1108  msg.value */\n      callvalue\n        /* \"don.sol\":1090:1096  amount */\n      0x01\n        /* \"don.sol\":1090:1108  amount = msg.value */\n      dup2\n      swap1\n      sstore\n      pop\n        /* \"don.sol\":1134:1140  amount */\n      sload(0x01)\n        /* \"don.sol\":1118:1125  balance */\n      0x02\n        /* \"don.sol\":1118:1130  balance[_to] */\n      0x00\n        /* \"don.sol\":1126:1129  _to */\n      dup6\n        /* \"don.sol\":1118:1130  balance[_to] */\n      0xffffffffffffffffffffffffffffffffffffffff\n      and\n      0xffffffffffffffffffffffffffffffffffffffff\n      and\n      dup2\n      mstore\n      0x20\n      add\n      swap1\n      dup2\n      mstore\n      0x20\n      add\n      0x00\n      keccak256\n      0x00\n        /* \"don.sol\":1118:1140  balance[_to] += amount */\n      dup3\n      dup3\n      sload\n      tag_79\n      swap2\n      swap1\n      tag_80\n      jump\t// in\n    tag_79:\n      swap3\n      pop\n      pop\n      dup2\n      swap1\n      sstore\n      pop\n        /* \"don.sol\":1150:1156  donMap */\n      0x03\n        /* \"don.sol\":1150:1161  donMap[_to] */\n      0x00\n        /* \"don.sol\":1157:1160  _to */\n      dup5\n        /* \"don.sol\":1150:1161  donMap[_to] */\n      0xffffffffffffffffffffffffffffffffffffffff\n      and\n      0xffffffffffffffffffffffffffffffffffffffff\n      and\n      dup2\n      mstore\n      0x20\n      add\n      swap1\n      dup2\n      mstore\n      0x20\n      add\n      0x00\n      keccak256\n        /* \"don.sol\":1167:1201  Don(id++, amount, _donateur, _msg) */\n      mload(0x40)\n      dup1\n      0x80\n      add\n      0x40\n      mstore\n      dup1\n        /* \"don.sol\":1171:1173  id */\n      0x00\n      dup1\n        /* \"don.sol\":1171:1175  id++ */\n      dup2\n      sload\n      dup1\n      swap3\n      swap2\n      swap1\n      tag_81\n      swap1\n      tag_82\n      jump\t// in\n    tag_81:\n      swap2\n      swap1\n      pop\n      sstore\n        /* \"don.sol\":1167:1201  Don(id++, amount, _donateur, _msg) */\n      dup2\n      mstore\n      0x20\n      add\n        /* \"don.sol\":1177:1183  amount */\n      sload(0x01)\n        /* \"don.sol\":1167:1201  Don(id++, amount, _donateur, _msg) */\n      dup2\n      mstore\n      0x20\n      add\n        /* \"don.sol\":1185:1194  _donateur */\n      dup5\n        /* \"don.sol\":1167:1201  Don(id++, amount, _donateur, _msg) */\n      dup2\n      mstore\n      0x20\n      add\n        /* \"don.sol\":1196:1200  _msg */\n      dup4\n        /* \"don.sol\":1167:1201  Don(id++, amount, _donateur, _msg) */\n      dup2\n      mstore\n      pop\n        /* \"don.sol\":1150:1202  donMap[_to].push(Don(id++, amount, _donateur, _msg)) */\n      swap1\n      dup1\n      0x01\n      dup2\n      sload\n      add\n      dup1\n      dup3\n      sstore\n      dup1\n      swap2\n      pop\n      pop\n      0x01\n      swap1\n      sub\n      swap1\n      0x00\n      mstore\n      keccak256(0x00, 0x20)\n      swap1\n      0x04\n      mul\n      add\n      0x00\n      swap1\n      swap2\n      swap1\n      swap2\n      swap1\n      swap2\n      pop\n      0x00\n      dup3\n      add\n      mload\n      dup2\n      0x00\n      add\n      sstore\n      0x20\n      dup3\n      add\n      mload\n      dup2\n      0x01\n      add\n      sstore\n      0x40\n      dup3\n      add\n      mload\n      dup2\n      0x02\n      add\n      swap1\n      dup2\n      tag_84\n      swap2\n      swap1\n      tag_85\n      jump\t// in\n    tag_84:\n      pop\n      0x60\n      dup3\n      add\n      mload\n      dup2\n      0x03\n      add\n      swap1\n      dup2\n      tag_86\n      swap2\n      swap1\n      tag_85\n      jump\t// in\n    tag_86:\n      pop\n      pop\n      pop\n        /* \"don.sol\":749:1209  function donner(address _to, string memory _donateur, string memory _msg) public payable {... */\n      pop\n      pop\n      pop\n      jump\t// out\n        /* \"don.sol\":305:344  mapping(address => uint) public balance */\n    tag_38:\n      mstore(0x20, 0x02)\n      dup1\n      0x00\n      mstore\n      keccak256(0x00, 0x40)\n      0x00\n      swap2\n      pop\n      swap1\n      pop\n      sload\n      dup2\n      jump\t// out\n        /* \"don.sol\":1499:1603  function getdonMap(address addr) public view returns (Don[] memory) {... */\n    tag_43:\n        /* \"don.sol\":1553:1565  Don[] memory */\n      0x60\n        /* \"don.sol\":1584:1590  donMap */\n      0x03\n        /* \"don.sol\":1584:1596  donMap[addr] */\n      0x00\n        /* \"don.sol\":1591:1595  addr */\n      dup4\n        /* \"don.sol\":1584:1596  donMap[addr] */\n      0xffffffffffffffffffffffffffffffffffffffff\n      and\n      0xffffffffffffffffffffffffffffffffffffffff\n      and\n      dup2\n      mstore\n      0x20\n      add\n      swap1\n      dup2\n      mstore\n      0x20\n      add\n      0x00\n      keccak256\n        /* \"don.sol\":1577:1596  return donMap[addr] */\n      dup1\n      sload\n      dup1\n      0x20\n      mul\n      0x20\n      add\n      mload(0x40)\n      swap1\n      dup2\n      add\n      0x40\n      mstore\n      dup1\n      swap3\n      swap2\n      swap1\n      dup2\n      dup2\n      mstore\n      0x20\n      add\n      0x00\n      swap1\n    tag_88:\n      dup3\n      dup3\n      lt\n      iszero\n      tag_89\n      jumpi\n      dup4\n      dup3\n      swap1\n      0x00\n      mstore\n      keccak256(0x00, 0x20)\n      swap1\n      0x04\n      mul\n      add\n      mload(0x40)\n      dup1\n      0x80\n      add\n      0x40\n      mstore\n      swap1\n      dup2\n      0x00\n      dup3\n      add\n      sload\n      dup2\n      mstore\n      0x20\n      add\n      0x01\n      dup3\n      add\n      sload\n      dup2\n      mstore\n      0x20\n      add\n      0x02\n      dup3\n      add\n      dup1\n      sload\n      tag_91\n      swap1\n      tag_49\n      jump\t// in\n    tag_91:\n      dup1\n      0x1f\n      add\n      0x20\n      dup1\n      swap2\n      div\n      mul\n      0x20\n      add\n      mload(0x40)\n      swap1\n      dup2\n      add\n      0x40\n      mstore\n      dup1\n      swap3\n      swap2\n      swap1\n      dup2\n      dup2\n      mstore\n      0x20\n      add\n      dup3\n      dup1\n      sload\n      tag_92\n      swap1\n      tag_49\n      jump\t// in\n    tag_92:\n      dup1\n      iszero\n      tag_93\n      jumpi\n      dup1\n      0x1f\n      lt\n      tag_94\n      jumpi\n      0x0100\n      dup1\n      dup4\n      sload\n      div\n      mul\n      dup4\n      mstore\n      swap2\n      0x20\n      add\n      swap2\n      jump(tag_93)\n    tag_94:\n      dup3\n      add\n      swap2\n      swap1\n      0x00\n      mstore\n      keccak256(0x00, 0x20)\n      swap1\n    tag_95:\n      dup2\n      sload\n      dup2\n      mstore\n      swap1\n      0x01\n      add\n      swap1\n      0x20\n      add\n      dup1\n      dup4\n      gt\n      tag_95\n      jumpi\n      dup3\n      swap1\n      sub\n      0x1f\n      and\n      dup3\n      add\n      swap2\n    tag_93:\n      pop\n      pop\n      pop\n      pop\n      pop\n      dup2\n      mstore\n      0x20\n      add\n      0x03\n      dup3\n      add\n      dup1\n      sload\n      tag_96\n      swap1\n      tag_49\n      jump\t// in\n    tag_96:\n      dup1\n      0x1f\n      add\n      0x20\n      dup1\n      swap2\n      div\n      mul\n      0x20\n      add\n      mload(0x40)\n      swap1\n      dup2\n      add\n      0x40\n      mstore\n      dup1\n      swap3\n      swap2\n      swap1\n      dup2\n      dup2\n      mstore\n      0x20\n      add\n      dup3\n      dup1\n      sload\n      tag_97\n      swap1\n      tag_49\n      jump\t// in\n    tag_97:\n      dup1\n      iszero\n      tag_98\n      jumpi\n      dup1\n      0x1f\n      lt\n      tag_99\n      jumpi\n      0x0100\n      dup1\n      dup4\n      sload\n      div\n      mul\n      dup4\n      mstore\n      swap2\n      0x20\n      add\n      swap2\n      jump(tag_98)\n    tag_99:\n      dup3\n      add\n      swap2\n      swap1\n      0x00\n      mstore\n      keccak256(0x00, 0x20)\n      swap1\n    tag_100:\n      dup2\n      sload\n      dup2\n      mstore\n      swap1\n      0x01\n      add\n      swap1\n      0x20\n      add\n      dup1\n      dup4\n      gt\n      tag_100\n      jumpi\n      dup3\n      swap1\n      sub\n      0x1f\n      and\n      dup3\n      add\n      swap2\n    tag_98:\n      pop\n      pop\n      pop\n      pop\n      pop\n      dup2\n      mstore\n      pop\n      pop\n      dup2\n      mstore\n      0x20\n      add\n      swap1\n      0x01\n      add\n      swap1\n      jump(tag_88)\n    tag_89:\n      pop\n      pop\n      pop\n      pop\n      swap1\n      pop\n        /* \"don.sol\":1499:1603  function getdonMap(address addr) public view returns (Don[] memory) {... */\n      swap2\n      swap1\n      pop\n      jump\t// out\n        /* \"#utility.yul\":7:82   */\n    tag_101:\n        /* \"#utility.yul\":40:46   */\n      0x00\n        /* \"#utility.yul\":73:75   */\n      0x40\n        /* \"#utility.yul\":67:76   */\n      mload\n        /* \"#utility.yul\":57:76   */\n      swap1\n      pop\n        /* \"#utility.yul\":7:82   */\n      swap1\n      jump\t// out\n        /* \"#utility.yul\":88:205   */\n    tag_102:\n        /* \"#utility.yul\":197:198   */\n      0x00\n        /* \"#utility.yul\":194:195   */\n      dup1\n        /* \"#utility.yul\":187:199   */\n      revert\n        /* \"#utility.yul\":211:328   */\n    tag_103:\n        /* \"#utility.yul\":320:321   */\n      0x00\n        /* \"#utility.yul\":317:318   */\n      dup1\n        /* \"#utility.yul\":310:322   */\n      revert\n        /* \"#utility.yul\":334:460   */\n    tag_104:\n        /* \"#utility.yul\":371:378   */\n      0x00\n        /* \"#utility.yul\":411:453   */\n      0xffffffffffffffffffffffffffffffffffffffff\n        /* \"#utility.yul\":404:409   */\n      dup3\n        /* \"#utility.yul\":400:454   */\n      and\n        /* \"#utility.yul\":389:454   */\n      swap1\n      pop\n        /* \"#utility.yul\":334:460   */\n      swap2\n      swap1\n      pop\n      jump\t// out\n        /* \"#utility.yul\":466:562   */\n    tag_105:\n        /* \"#utility.yul\":503:510   */\n      0x00\n        /* \"#utility.yul\":532:556   */\n      tag_168\n        /* \"#utility.yul\":550:555   */\n      dup3\n        /* \"#utility.yul\":532:556   */\n      tag_104\n      jump\t// in\n    tag_168:\n        /* \"#utility.yul\":521:556   */\n      swap1\n      pop\n        /* \"#utility.yul\":466:562   */\n      swap2\n      swap1\n      pop\n      jump\t// out\n        /* \"#utility.yul\":568:690   */\n    tag_106:\n        /* \"#utility.yul\":641:665   */\n      tag_170\n        /* \"#utility.yul\":659:664   */\n      dup2\n        /* \"#utility.yul\":641:665   */\n      tag_105\n      jump\t// in\n    tag_170:\n        /* \"#utility.yul\":634:639   */\n      dup2\n        /* \"#utility.yul\":631:666   */\n      eq\n        /* \"#utility.yul\":621:684   */\n      tag_171\n      jumpi\n        /* \"#utility.yul\":680:681   */\n      0x00\n        /* \"#utility.yul\":677:678   */\n      dup1\n        /* \"#utility.yul\":670:682   */\n      revert\n        /* \"#utility.yul\":621:684   */\n    tag_171:\n        /* \"#utility.yul\":568:690   */\n      pop\n      jump\t// out\n        /* \"#utility.yul\":696:835   */\n    tag_107:\n        /* \"#utility.yul\":742:747   */\n      0x00\n        /* \"#utility.yul\":780:786   */\n      dup2\n        /* \"#utility.yul\":767:787   */\n      calldataload\n        /* \"#utility.yul\":758:787   */\n      swap1\n      pop\n        /* \"#utility.yul\":796:829   */\n      tag_173\n        /* \"#utility.yul\":823:828   */\n      dup2\n        /* \"#utility.yul\":796:829   */\n      tag_106\n      jump\t// in\n    tag_173:\n        /* \"#utility.yul\":696:835   */\n      swap3\n      swap2\n      pop\n      pop\n      jump\t// out\n        /* \"#utility.yul\":841:918   */\n    tag_108:\n        /* \"#utility.yul\":878:885   */\n      0x00\n        /* \"#utility.yul\":907:912   */\n      dup2\n        /* \"#utility.yul\":896:912   */\n      swap1\n      pop\n        /* \"#utility.yul\":841:918   */\n      swap2\n      swap1\n      pop\n      jump\t// out\n        /* \"#utility.yul\":924:1046   */\n    tag_109:\n        /* \"#utility.yul\":997:1021   */\n      tag_176\n        /* \"#utility.yul\":1015:1020   */\n      dup2\n        /* \"#utility.yul\":997:1021   */\n      tag_108\n      jump\t// in\n    tag_176:\n        /* \"#utility.yul\":990:995   */\n      dup2\n        /* \"#utility.yul\":987:1022   */\n      eq\n        /* \"#utility.yul\":977:1040   */\n      tag_177\n      jumpi\n        /* \"#utility.yul\":1036:1037   */\n      0x00\n        /* \"#utility.yul\":1033:1034   */\n      dup1\n        /* \"#utility.yul\":1026:1038   */\n      revert\n        /* \"#utility.yul\":977:1040   */\n    tag_177:\n        /* \"#utility.yul\":924:1046   */\n      pop\n      jump\t// out\n        /* \"#utility.yul\":1052:1191   */\n    tag_110:\n        /* \"#utility.yul\":1098:1103   */\n      0x00\n        /* \"#utility.yul\":1136:1142   */\n      dup2\n        /* \"#utility.yul\":1123:1143   */\n      calldataload\n        /* \"#utility.yul\":1114:1143   */\n      swap1\n      pop\n        /* \"#utility.yul\":1152:1185   */\n      tag_179\n        /* \"#utility.yul\":1179:1184   */\n      dup2\n        /* \"#utility.yul\":1152:1185   */\n      tag_109\n      jump\t// in\n    tag_179:\n        /* \"#utility.yul\":1052:1191   */\n      swap3\n      swap2\n      pop\n      pop\n      jump\t// out\n        /* \"#utility.yul\":1197:1671   */\n    tag_13:\n        /* \"#utility.yul\":1265:1271   */\n      0x00\n        /* \"#utility.yul\":1273:1279   */\n      dup1\n        /* \"#utility.yul\":1322:1324   */\n      0x40\n        /* \"#utility.yul\":1310:1319   */\n      dup4\n        /* \"#utility.yul\":1301:1308   */\n      dup6\n        /* \"#utility.yul\":1297:1320   */\n      sub\n        /* \"#utility.yul\":1293:1325   */\n      slt\n        /* \"#utility.yul\":1290:1409   */\n      iszero\n      tag_181\n      jumpi\n        /* \"#utility.yul\":1328:1407   */\n      tag_182\n      tag_102\n      jump\t// in\n    tag_182:\n        /* \"#utility.yul\":1290:1409   */\n    tag_181:\n        /* \"#utility.yul\":1448:1449   */\n      0x00\n        /* \"#utility.yul\":1473:1526   */\n      tag_183\n        /* \"#utility.yul\":1518:1525   */\n      dup6\n        /* \"#utility.yul\":1509:1515   */\n      dup3\n        /* \"#utility.yul\":1498:1507   */\n      dup7\n        /* \"#utility.yul\":1494:1516   */\n      add\n        /* \"#utility.yul\":1473:1526   */\n      tag_107\n      jump\t// in\n    tag_183:\n        /* \"#utility.yul\":1463:1526   */\n      swap3\n      pop\n        /* \"#utility.yul\":1419:1536   */\n      pop\n        /* \"#utility.yul\":1575:1577   */\n      0x20\n        /* \"#utility.yul\":1601:1654   */\n      tag_184\n        /* \"#utility.yul\":1646:1653   */\n      dup6\n        /* \"#utility.yul\":1637:1643   */\n      dup3\n        /* \"#utility.yul\":1626:1635   */\n      dup7\n        /* \"#utility.yul\":1622:1644   */\n      add\n        /* \"#utility.yul\":1601:1654   */\n      tag_110\n      jump\t// in\n    tag_184:\n        /* \"#utility.yul\":1591:1654   */\n      swap2\n      pop\n        /* \"#utility.yul\":1546:1664   */\n      pop\n        /* \"#utility.yul\":1197:1671   */\n      swap3\n      pop\n      swap3\n      swap1\n      pop\n      jump\t// out\n        /* \"#utility.yul\":1677:1795   */\n    tag_111:\n        /* \"#utility.yul\":1764:1788   */\n      tag_186\n        /* \"#utility.yul\":1782:1787   */\n      dup2\n        /* \"#utility.yul\":1764:1788   */\n      tag_108\n      jump\t// in\n    tag_186:\n        /* \"#utility.yul\":1759:1762   */\n      dup3\n        /* \"#utility.yul\":1752:1789   */\n      mstore\n        /* \"#utility.yul\":1677:1795   */\n      pop\n      pop\n      jump\t// out\n        /* \"#utility.yul\":1801:1900   */\n    tag_112:\n        /* \"#utility.yul\":1853:1859   */\n      0x00\n        /* \"#utility.yul\":1887:1892   */\n      dup2\n        /* \"#utility.yul\":1881:1893   */\n      mload\n        /* \"#utility.yul\":1871:1893   */\n      swap1\n      pop\n        /* \"#utility.yul\":1801:1900   */\n      swap2\n      swap1\n      pop\n      jump\t// out\n        /* \"#utility.yul\":1906:2075   */\n    tag_113:\n        /* \"#utility.yul\":1990:2001   */\n      0x00\n        /* \"#utility.yul\":2024:2030   */\n      dup3\n        /* \"#utility.yul\":2019:2022   */\n      dup3\n        /* \"#utility.yul\":2012:2031   */\n      mstore\n        /* \"#utility.yul\":2064:2068   */\n      0x20\n        /* \"#utility.yul\":2059:2062   */\n      dup3\n        /* \"#utility.yul\":2055:2069   */\n      add\n        /* \"#utility.yul\":2040:2069   */\n      swap1\n      pop\n        /* \"#utility.yul\":1906:2075   */\n      swap3\n      swap2\n      pop\n      pop\n      jump\t// out\n        /* \"#utility.yul\":2081:2327   */\n    tag_114:\n        /* \"#utility.yul\":2162:2163   */\n      0x00\n        /* \"#utility.yul\":2172:2285   */\n    tag_190:\n        /* \"#utility.yul\":2186:2192   */\n      dup4\n        /* \"#utility.yul\":2183:2184   */\n      dup2\n        /* \"#utility.yul\":2180:2193   */\n      lt\n        /* \"#utility.yul\":2172:2285   */\n      iszero\n      tag_192\n      jumpi\n        /* \"#utility.yul\":2271:2272   */\n      dup1\n        /* \"#utility.yul\":2266:2269   */\n      dup3\n        /* \"#utility.yul\":2262:2273   */\n      add\n        /* \"#utility.yul\":2256:2274   */\n      mload\n        /* \"#utility.yul\":2252:2253   */\n      dup2\n        /* \"#utility.yul\":2247:2250   */\n      dup5\n        /* \"#utility.yul\":2243:2254   */\n      add\n        /* \"#utility.yul\":2236:2275   */\n      mstore\n        /* \"#utility.yul\":2208:2210   */\n      0x20\n        /* \"#utility.yul\":2205:2206   */\n      dup2\n        /* \"#utility.yul\":2201:2211   */\n      add\n        /* \"#utility.yul\":2196:2211   */\n      swap1\n      pop\n        /* \"#utility.yul\":2172:2285   */\n      jump(tag_190)\n    tag_192:\n        /* \"#utility.yul\":2319:2320   */\n      0x00\n        /* \"#utility.yul\":2310:2316   */\n      dup5\n        /* \"#utility.yul\":2305:2308   */\n      dup5\n        /* \"#utility.yul\":2301:2317   */\n      add\n        /* \"#utility.yul\":2294:2321   */\n      mstore\n        /* \"#utility.yul\":2143:2327   */\n      pop\n        /* \"#utility.yul\":2081:2327   */\n      pop\n      pop\n      pop\n      jump\t// out\n        /* \"#utility.yul\":2333:2435   */\n    tag_115:\n        /* \"#utility.yul\":2374:2380   */\n      0x00\n        /* \"#utility.yul\":2425:2427   */\n      0x1f\n        /* \"#utility.yul\":2421:2428   */\n      not\n        /* \"#utility.yul\":2416:2418   */\n      0x1f\n        /* \"#utility.yul\":2409:2414   */\n      dup4\n        /* \"#utility.yul\":2405:2419   */\n      add\n        /* \"#utility.yul\":2401:2429   */\n      and\n        /* \"#utility.yul\":2391:2429   */\n      swap1\n      pop\n        /* \"#utility.yul\":2333:2435   */\n      swap2\n      swap1\n      pop\n      jump\t// out\n        /* \"#utility.yul\":2441:2818   */\n    tag_116:\n        /* \"#utility.yul\":2529:2532   */\n      0x00\n        /* \"#utility.yul\":2557:2596   */\n      tag_195\n        /* \"#utility.yul\":2590:2595   */\n      dup3\n        /* \"#utility.yul\":2557:2596   */\n      tag_112\n      jump\t// in\n    tag_195:\n        /* \"#utility.yul\":2612:2683   */\n      tag_196\n        /* \"#utility.yul\":2676:2682   */\n      dup2\n        /* \"#utility.yul\":2671:2674   */\n      dup6\n        /* \"#utility.yul\":2612:2683   */\n      tag_113\n      jump\t// in\n    tag_196:\n        /* \"#utility.yul\":2605:2683   */\n      swap4\n      pop\n        /* \"#utility.yul\":2692:2757   */\n      tag_197\n        /* \"#utility.yul\":2750:2756   */\n      dup2\n        /* \"#utility.yul\":2745:2748   */\n      dup6\n        /* \"#utility.yul\":2738:2742   */\n      0x20\n        /* \"#utility.yul\":2731:2736   */\n      dup7\n        /* \"#utility.yul\":2727:2743   */\n      add\n        /* \"#utility.yul\":2692:2757   */\n      tag_114\n      jump\t// in\n    tag_197:\n        /* \"#utility.yul\":2782:2811   */\n      tag_198\n        /* \"#utility.yul\":2804:2810   */\n      dup2\n        /* \"#utility.yul\":2782:2811   */\n      tag_115\n      jump\t// in\n    tag_198:\n        /* \"#utility.yul\":2777:2780   */\n      dup5\n        /* \"#utility.yul\":2773:2812   */\n      add\n        /* \"#utility.yul\":2766:2812   */\n      swap2\n      pop\n        /* \"#utility.yul\":2533:2818   */\n      pop\n        /* \"#utility.yul\":2441:2818   */\n      swap3\n      swap2\n      pop\n      pop\n      jump\t// out\n        /* \"#utility.yul\":2824:3559   */\n    tag_16:\n        /* \"#utility.yul\":3041:3045   */\n      0x00\n        /* \"#utility.yul\":3079:3082   */\n      0x80\n        /* \"#utility.yul\":3068:3077   */\n      dup3\n        /* \"#utility.yul\":3064:3083   */\n      add\n        /* \"#utility.yul\":3056:3083   */\n      swap1\n      pop\n        /* \"#utility.yul\":3093:3164   */\n      tag_200\n        /* \"#utility.yul\":3161:3162   */\n      0x00\n        /* \"#utility.yul\":3150:3159   */\n      dup4\n        /* \"#utility.yul\":3146:3163   */\n      add\n        /* \"#utility.yul\":3137:3143   */\n      dup8\n        /* \"#utility.yul\":3093:3164   */\n      tag_111\n      jump\t// in\n    tag_200:\n        /* \"#utility.yul\":3174:3246   */\n      tag_201\n        /* \"#utility.yul\":3242:3244   */\n      0x20\n        /* \"#utility.yul\":3231:3240   */\n      dup4\n        /* \"#utility.yul\":3227:3245   */\n      add\n        /* \"#utility.yul\":3218:3224   */\n      dup7\n        /* \"#utility.yul\":3174:3246   */\n      tag_111\n      jump\t// in\n    tag_201:\n        /* \"#utility.yul\":3293:3302   */\n      dup2\n        /* \"#utility.yul\":3287:3291   */\n      dup2\n        /* \"#utility.yul\":3283:3303   */\n      sub\n        /* \"#utility.yul\":3278:3280   */\n      0x40\n        /* \"#utility.yul\":3267:3276   */\n      dup4\n        /* \"#utility.yul\":3263:3281   */\n      add\n        /* \"#utility.yul\":3256:3304   */\n      mstore\n        /* \"#utility.yul\":3321:3399   */\n      tag_202\n        /* \"#utility.yul\":3394:3398   */\n      dup2\n        /* \"#utility.yul\":3385:3391   */\n      dup6\n        /* \"#utility.yul\":3321:3399   */\n      tag_116\n      jump\t// in\n    tag_202:\n        /* \"#utility.yul\":3313:3399   */\n      swap1\n      pop\n        /* \"#utility.yul\":3446:3455   */\n      dup2\n        /* \"#utility.yul\":3440:3444   */\n      dup2\n        /* \"#utility.yul\":3436:3456   */\n      sub\n        /* \"#utility.yul\":3431:3433   */\n      0x60\n        /* \"#utility.yul\":3420:3429   */\n      dup4\n        /* \"#utility.yul\":3416:3434   */\n      add\n        /* \"#utility.yul\":3409:3457   */\n      mstore\n        /* \"#utility.yul\":3474:3552   */\n      tag_203\n        /* \"#utility.yul\":3547:3551   */\n      dup2\n        /* \"#utility.yul\":3538:3544   */\n      dup5\n        /* \"#utility.yul\":3474:3552   */\n      tag_116\n      jump\t// in\n    tag_203:\n        /* \"#utility.yul\":3466:3552   */\n      swap1\n      pop\n        /* \"#utility.yul\":2824:3559   */\n      swap6\n      swap5\n      pop\n      pop\n      pop\n      pop\n      pop\n      jump\t// out\n        /* \"#utility.yul\":3565:3894   */\n    tag_20:\n        /* \"#utility.yul\":3624:3630   */\n      0x00\n        /* \"#utility.yul\":3673:3675   */\n      0x20\n        /* \"#utility.yul\":3661:3670   */\n      dup3\n        /* \"#utility.yul\":3652:3659   */\n      dup5\n        /* \"#utility.yul\":3648:3671   */\n      sub\n        /* \"#utility.yul\":3644:3676   */\n      slt\n        /* \"#utility.yul\":3641:3760   */\n      iszero\n      tag_205\n      jumpi\n        /* \"#utility.yul\":3679:3758   */\n      tag_206\n      tag_102\n      jump\t// in\n    tag_206:\n        /* \"#utility.yul\":3641:3760   */\n    tag_205:\n        /* \"#utility.yul\":3799:3800   */\n      0x00\n        /* \"#utility.yul\":3824:3877   */\n      tag_207\n        /* \"#utility.yul\":3869:3876   */\n      dup5\n        /* \"#utility.yul\":3860:3866   */\n      dup3\n        /* \"#utility.yul\":3849:3858   */\n      dup6\n        /* \"#utility.yul\":3845:3867   */\n      add\n        /* \"#utility.yul\":3824:3877   */\n      tag_107\n      jump\t// in\n    tag_207:\n        /* \"#utility.yul\":3814:3877   */\n      swap2\n      pop\n        /* \"#utility.yul\":3770:3887   */\n      pop\n        /* \"#utility.yul\":3565:3894   */\n      swap3\n      swap2\n      pop\n      pop\n      jump\t// out\n        /* \"#utility.yul\":3900:4122   */\n    tag_23:\n        /* \"#utility.yul\":3993:3997   */\n      0x00\n        /* \"#utility.yul\":4031:4033   */\n      0x20\n        /* \"#utility.yul\":4020:4029   */\n      dup3\n        /* \"#utility.yul\":4016:4034   */\n      add\n        /* \"#utility.yul\":4008:4034   */\n      swap1\n      pop\n        /* \"#utility.yul\":4044:4115   */\n      tag_209\n        /* \"#utility.yul\":4112:4113   */\n      0x00\n        /* \"#utility.yul\":4101:4110   */\n      dup4\n        /* \"#utility.yul\":4097:4114   */\n      add\n        /* \"#utility.yul\":4088:4094   */\n      dup5\n        /* \"#utility.yul\":4044:4115   */\n      tag_111\n      jump\t// in\n    tag_209:\n        /* \"#utility.yul\":3900:4122   */\n      swap3\n      swap2\n      pop\n      pop\n      jump\t// out\n        /* \"#utility.yul\":4128:4245   */\n    tag_117:\n        /* \"#utility.yul\":4237:4238   */\n      0x00\n        /* \"#utility.yul\":4234:4235   */\n      dup1\n        /* \"#utility.yul\":4227:4239   */\n      revert\n        /* \"#utility.yul\":4251:4368   */\n    tag_118:\n        /* \"#utility.yul\":4360:4361   */\n      0x00\n        /* \"#utility.yul\":4357:4358   */\n      dup1\n        /* \"#utility.yul\":4350:4362   */\n      revert\n        /* \"#utility.yul\":4374:4554   */\n    tag_119:\n        /* \"#utility.yul\":4422:4499   */\n      0x4e487b7100000000000000000000000000000000000000000000000000000000\n        /* \"#utility.yul\":4419:4420   */\n      0x00\n        /* \"#utility.yul\":4412:4500   */\n      mstore\n        /* \"#utility.yul\":4519:4523   */\n      0x41\n        /* \"#utility.yul\":4516:4517   */\n      0x04\n        /* \"#utility.yul\":4509:4524   */\n      mstore\n        /* \"#utility.yul\":4543:4547   */\n      0x24\n        /* \"#utility.yul\":4540:4541   */\n      0x00\n        /* \"#utility.yul\":4533:4548   */\n      revert\n        /* \"#utility.yul\":4560:4841   */\n    tag_120:\n        /* \"#utility.yul\":4643:4670   */\n      tag_214\n        /* \"#utility.yul\":4665:4669   */\n      dup3\n        /* \"#utility.yul\":4643:4670   */\n      tag_115\n      jump\t// in\n    tag_214:\n        /* \"#utility.yul\":4635:4641   */\n      dup2\n        /* \"#utility.yul\":4631:4671   */\n      add\n        /* \"#utility.yul\":4773:4779   */\n      dup2\n        /* \"#utility.yul\":4761:4771   */\n      dup2\n        /* \"#utility.yul\":4758:4780   */\n      lt\n        /* \"#utility.yul\":4737:4755   */\n      0xffffffffffffffff\n        /* \"#utility.yul\":4725:4735   */\n      dup3\n        /* \"#utility.yul\":4722:4756   */\n      gt\n        /* \"#utility.yul\":4719:4781   */\n      or\n        /* \"#utility.yul\":4716:4804   */\n      iszero\n      tag_215\n      jumpi\n        /* \"#utility.yul\":4784:4802   */\n      tag_216\n      tag_119\n      jump\t// in\n    tag_216:\n        /* \"#utility.yul\":4716:4804   */\n    tag_215:\n        /* \"#utility.yul\":4824:4834   */\n      dup1\n        /* \"#utility.yul\":4820:4822   */\n      0x40\n        /* \"#utility.yul\":4813:4835   */\n      mstore\n        /* \"#utility.yul\":4603:4841   */\n      pop\n        /* \"#utility.yul\":4560:4841   */\n      pop\n      pop\n      jump\t// out\n        /* \"#utility.yul\":4847:4976   */\n    tag_121:\n        /* \"#utility.yul\":4881:4887   */\n      0x00\n        /* \"#utility.yul\":4908:4928   */\n      tag_218\n      tag_101\n      jump\t// in\n    tag_218:\n        /* \"#utility.yul\":4898:4928   */\n      swap1\n      pop\n        /* \"#utility.yul\":4937:4970   */\n      tag_219\n        /* \"#utility.yul\":4965:4969   */\n      dup3\n        /* \"#utility.yul\":4957:4963   */\n      dup3\n        /* \"#utility.yul\":4937:4970   */\n      tag_120\n      jump\t// in\n    tag_219:\n        /* \"#utility.yul\":4847:4976   */\n      swap2\n      swap1\n      pop\n      jump\t// out\n        /* \"#utility.yul\":4982:5290   */\n    tag_122:\n        /* \"#utility.yul\":5044:5048   */\n      0x00\n        /* \"#utility.yul\":5134:5152   */\n      0xffffffffffffffff\n        /* \"#utility.yul\":5126:5132   */\n      dup3\n        /* \"#utility.yul\":5123:5153   */\n      gt\n        /* \"#utility.yul\":5120:5176   */\n      iszero\n      tag_221\n      jumpi\n        /* \"#utility.yul\":5156:5174   */\n      tag_222\n      tag_119\n      jump\t// in\n    tag_222:\n        /* \"#utility.yul\":5120:5176   */\n    tag_221:\n        /* \"#utility.yul\":5194:5223   */\n      tag_223\n        /* \"#utility.yul\":5216:5222   */\n      dup3\n        /* \"#utility.yul\":5194:5223   */\n      tag_115\n      jump\t// in\n    tag_223:\n        /* \"#utility.yul\":5186:5223   */\n      swap1\n      pop\n        /* \"#utility.yul\":5278:5282   */\n      0x20\n        /* \"#utility.yul\":5272:5276   */\n      dup2\n        /* \"#utility.yul\":5268:5283   */\n      add\n        /* \"#utility.yul\":5260:5283   */\n      swap1\n      pop\n        /* \"#utility.yul\":4982:5290   */\n      swap2\n      swap1\n      pop\n      jump\t// out\n        /* \"#utility.yul\":5296:5442   */\n    tag_123:\n        /* \"#utility.yul\":5393:5399   */\n      dup3\n        /* \"#utility.yul\":5388:5391   */\n      dup2\n        /* \"#utility.yul\":5383:5386   */\n      dup4\n        /* \"#utility.yul\":5370:5400   */\n      calldatacopy\n        /* \"#utility.yul\":5434:5435   */\n      0x00\n        /* \"#utility.yul\":5425:5431   */\n      dup4\n        /* \"#utility.yul\":5420:5423   */\n      dup4\n        /* \"#utility.yul\":5416:5432   */\n      add\n        /* \"#utility.yul\":5409:5436   */\n      mstore\n        /* \"#utility.yul\":5296:5442   */\n      pop\n      pop\n      pop\n      jump\t// out\n        /* \"#utility.yul\":5448:5873   */\n    tag_124:\n        /* \"#utility.yul\":5526:5531   */\n      0x00\n        /* \"#utility.yul\":5551:5617   */\n      tag_226\n        /* \"#utility.yul\":5567:5616   */\n      tag_227\n        /* \"#utility.yul\":5609:5615   */\n      dup5\n        /* \"#utility.yul\":5567:5616   */\n      tag_122\n      jump\t// in\n    tag_227:\n        /* \"#utility.yul\":5551:5617   */\n      tag_121\n      jump\t// in\n    tag_226:\n        /* \"#utility.yul\":5542:5617   */\n      swap1\n      pop\n        /* \"#utility.yul\":5640:5646   */\n      dup3\n        /* \"#utility.yul\":5633:5638   */\n      dup2\n        /* \"#utility.yul\":5626:5647   */\n      mstore\n        /* \"#utility.yul\":5678:5682   */\n      0x20\n        /* \"#utility.yul\":5671:5676   */\n      dup2\n        /* \"#utility.yul\":5667:5683   */\n      add\n        /* \"#utility.yul\":5716:5719   */\n      dup5\n        /* \"#utility.yul\":5707:5713   */\n      dup5\n        /* \"#utility.yul\":5702:5705   */\n      dup5\n        /* \"#utility.yul\":5698:5714   */\n      add\n        /* \"#utility.yul\":5695:5720   */\n      gt\n        /* \"#utility.yul\":5692:5804   */\n      iszero\n      tag_228\n      jumpi\n        /* \"#utility.yul\":5723:5802   */\n      tag_229\n      tag_118\n      jump\t// in\n    tag_229:\n        /* \"#utility.yul\":5692:5804   */\n    tag_228:\n        /* \"#utility.yul\":5813:5867   */\n      tag_230\n        /* \"#utility.yul\":5860:5866   */\n      dup5\n        /* \"#utility.yul\":5855:5858   */\n      dup3\n        /* \"#utility.yul\":5850:5853   */\n      dup6\n        /* \"#utility.yul\":5813:5867   */\n      tag_123\n      jump\t// in\n    tag_230:\n        /* \"#utility.yul\":5532:5873   */\n      pop\n        /* \"#utility.yul\":5448:5873   */\n      swap4\n      swap3\n      pop\n      pop\n      pop\n      jump\t// out\n        /* \"#utility.yul\":5893:6233   */\n    tag_125:\n        /* \"#utility.yul\":5949:5954   */\n      0x00\n        /* \"#utility.yul\":5998:6001   */\n      dup3\n        /* \"#utility.yul\":5991:5995   */\n      0x1f\n        /* \"#utility.yul\":5983:5989   */\n      dup4\n        /* \"#utility.yul\":5979:5996   */\n      add\n        /* \"#utility.yul\":5975:6002   */\n      slt\n        /* \"#utility.yul\":5965:6087   */\n      tag_232\n      jumpi\n        /* \"#utility.yul\":6006:6085   */\n      tag_233\n      tag_117\n      jump\t// in\n    tag_233:\n        /* \"#utility.yul\":5965:6087   */\n    tag_232:\n        /* \"#utility.yul\":6123:6129   */\n      dup2\n        /* \"#utility.yul\":6110:6130   */\n      calldataload\n        /* \"#utility.yul\":6148:6227   */\n      tag_234\n        /* \"#utility.yul\":6223:6226   */\n      dup5\n        /* \"#utility.yul\":6215:6221   */\n      dup3\n        /* \"#utility.yul\":6208:6212   */\n      0x20\n        /* \"#utility.yul\":6200:6206   */\n      dup7\n        /* \"#utility.yul\":6196:6213   */\n      add\n        /* \"#utility.yul\":6148:6227   */\n      tag_124\n      jump\t// in\n    tag_234:\n        /* \"#utility.yul\":6139:6227   */\n      swap2\n      pop\n        /* \"#utility.yul\":5955:6233   */\n      pop\n        /* \"#utility.yul\":5893:6233   */\n      swap3\n      swap2\n      pop\n      pop\n      jump\t// out\n        /* \"#utility.yul\":6239:7218   */\n    tag_33:\n        /* \"#utility.yul\":6336:6342   */\n      0x00\n        /* \"#utility.yul\":6344:6350   */\n      dup1\n        /* \"#utility.yul\":6352:6358   */\n      0x00\n        /* \"#utility.yul\":6401:6403   */\n      0x60\n        /* \"#utility.yul\":6389:6398   */\n      dup5\n        /* \"#utility.yul\":6380:6387   */\n      dup7\n        /* \"#utility.yul\":6376:6399   */\n      sub\n        /* \"#utility.yul\":6372:6404   */\n      slt\n        /* \"#utility.yul\":6369:6488   */\n      iszero\n      tag_236\n      jumpi\n        /* \"#utility.yul\":6407:6486   */\n      tag_237\n      tag_102\n      jump\t// in\n    tag_237:\n        /* \"#utility.yul\":6369:6488   */\n    tag_236:\n        /* \"#utility.yul\":6527:6528   */\n      0x00\n        /* \"#utility.yul\":6552:6605   */\n      tag_238\n        /* \"#utility.yul\":6597:6604   */\n      dup7\n        /* \"#utility.yul\":6588:6594   */\n      dup3\n        /* \"#utility.yul\":6577:6586   */\n      dup8\n        /* \"#utility.yul\":6573:6595   */\n      add\n        /* \"#utility.yul\":6552:6605   */\n      tag_107\n      jump\t// in\n    tag_238:\n        /* \"#utility.yul\":6542:6605   */\n      swap4\n      pop\n        /* \"#utility.yul\":6498:6615   */\n      pop\n        /* \"#utility.yul\":6682:6684   */\n      0x20\n        /* \"#utility.yul\":6671:6680   */\n      dup5\n        /* \"#utility.yul\":6667:6685   */\n      add\n        /* \"#utility.yul\":6654:6686   */\n      calldataload\n        /* \"#utility.yul\":6713:6731   */\n      0xffffffffffffffff\n        /* \"#utility.yul\":6705:6711   */\n      dup2\n        /* \"#utility.yul\":6702:6732   */\n      gt\n        /* \"#utility.yul\":6699:6816   */\n      iszero\n      tag_239\n      jumpi\n        /* \"#utility.yul\":6735:6814   */\n      tag_240\n      tag_103\n      jump\t// in\n    tag_240:\n        /* \"#utility.yul\":6699:6816   */\n    tag_239:\n        /* \"#utility.yul\":6840:6903   */\n      tag_241\n        /* \"#utility.yul\":6895:6902   */\n      dup7\n        /* \"#utility.yul\":6886:6892   */\n      dup3\n        /* \"#utility.yul\":6875:6884   */\n      dup8\n        /* \"#utility.yul\":6871:6893   */\n      add\n        /* \"#utility.yul\":6840:6903   */\n      tag_125\n      jump\t// in\n    tag_241:\n        /* \"#utility.yul\":6830:6903   */\n      swap3\n      pop\n        /* \"#utility.yul\":6625:6913   */\n      pop\n        /* \"#utility.yul\":6980:6982   */\n      0x40\n        /* \"#utility.yul\":6969:6978   */\n      dup5\n        /* \"#utility.yul\":6965:6983   */\n      add\n        /* \"#utility.yul\":6952:6984   */\n      calldataload\n        /* \"#utility.yul\":7011:7029   */\n      0xffffffffffffffff\n        /* \"#utility.yul\":7003:7009   */\n      dup2\n        /* \"#utility.yul\":7000:7030   */\n      gt\n        /* \"#utility.yul\":6997:7114   */\n      iszero\n      tag_242\n      jumpi\n        /* \"#utility.yul\":7033:7112   */\n      tag_243\n      tag_103\n      jump\t// in\n    tag_243:\n        /* \"#utility.yul\":6997:7114   */\n    tag_242:\n        /* \"#utility.yul\":7138:7201   */\n      tag_244\n        /* \"#utility.yul\":7193:7200   */\n      dup7\n        /* \"#utility.yul\":7184:7190   */\n      dup3\n        /* \"#utility.yul\":7173:7182   */\n      dup8\n        /* \"#utility.yul\":7169:7191   */\n      add\n        /* \"#utility.yul\":7138:7201   */\n      tag_125\n      jump\t// in\n    tag_244:\n        /* \"#utility.yul\":7128:7201   */\n      swap2\n      pop\n        /* \"#utility.yul\":6923:7211   */\n      pop\n        /* \"#utility.yul\":6239:7218   */\n      swap3\n      pop\n      swap3\n      pop\n      swap3\n      jump\t// out\n        /* \"#utility.yul\":7224:7357   */\n    tag_126:\n        /* \"#utility.yul\":7310:7316   */\n      0x00\n        /* \"#utility.yul\":7344:7349   */\n      dup2\n        /* \"#utility.yul\":7338:7350   */\n      mload\n        /* \"#utility.yul\":7328:7350   */\n      swap1\n      pop\n        /* \"#utility.yul\":7224:7357   */\n      swap2\n      swap1\n      pop\n      jump\t// out\n        /* \"#utility.yul\":7363:7566   */\n    tag_127:\n        /* \"#utility.yul\":7481:7492   */\n      0x00\n        /* \"#utility.yul\":7515:7521   */\n      dup3\n        /* \"#utility.yul\":7510:7513   */\n      dup3\n        /* \"#utility.yul\":7503:7522   */\n      mstore\n        /* \"#utility.yul\":7555:7559   */\n      0x20\n        /* \"#utility.yul\":7550:7553   */\n      dup3\n        /* \"#utility.yul\":7546:7560   */\n      add\n        /* \"#utility.yul\":7531:7560   */\n      swap1\n      pop\n        /* \"#utility.yul\":7363:7566   */\n      swap3\n      swap2\n      pop\n      pop\n      jump\t// out\n        /* \"#utility.yul\":7572:7723   */\n    tag_128:\n        /* \"#utility.yul\":7658:7662   */\n      0x00\n        /* \"#utility.yul\":7681:7684   */\n      dup2\n        /* \"#utility.yul\":7673:7684   */\n      swap1\n      pop\n        /* \"#utility.yul\":7711:7715   */\n      0x20\n        /* \"#utility.yul\":7706:7709   */\n      dup3\n        /* \"#utility.yul\":7702:7716   */\n      add\n        /* \"#utility.yul\":7694:7716   */\n      swap1\n      pop\n        /* \"#utility.yul\":7572:7723   */\n      swap2\n      swap1\n      pop\n      jump\t// out\n        /* \"#utility.yul\":7729:7837   */\n    tag_129:\n        /* \"#utility.yul\":7806:7830   */\n      tag_249\n        /* \"#utility.yul\":7824:7829   */\n      dup2\n        /* \"#utility.yul\":7806:7830   */\n      tag_108\n      jump\t// in\n    tag_249:\n        /* \"#utility.yul\":7801:7804   */\n      dup3\n        /* \"#utility.yul\":7794:7831   */\n      mstore\n        /* \"#utility.yul\":7729:7837   */\n      pop\n      pop\n      jump\t// out\n        /* \"#utility.yul\":7843:8002   */\n    tag_130:\n        /* \"#utility.yul\":7917:7928   */\n      0x00\n        /* \"#utility.yul\":7951:7957   */\n      dup3\n        /* \"#utility.yul\":7946:7949   */\n      dup3\n        /* \"#utility.yul\":7939:7958   */\n      mstore\n        /* \"#utility.yul\":7991:7995   */\n      0x20\n        /* \"#utility.yul\":7986:7989   */\n      dup3\n        /* \"#utility.yul\":7982:7996   */\n      add\n        /* \"#utility.yul\":7967:7996   */\n      swap1\n      pop\n        /* \"#utility.yul\":7843:8002   */\n      swap3\n      swap2\n      pop\n      pop\n      jump\t// out\n        /* \"#utility.yul\":8008:8365   */\n    tag_131:\n        /* \"#utility.yul\":8086:8089   */\n      0x00\n        /* \"#utility.yul\":8114:8153   */\n      tag_252\n        /* \"#utility.yul\":8147:8152   */\n      dup3\n        /* \"#utility.yul\":8114:8153   */\n      tag_112\n      jump\t// in\n    tag_252:\n        /* \"#utility.yul\":8169:8230   */\n      tag_253\n        /* \"#utility.yul\":8223:8229   */\n      dup2\n        /* \"#utility.yul\":8218:8221   */\n      dup6\n        /* \"#utility.yul\":8169:8230   */\n      tag_130\n      jump\t// in\n    tag_253:\n        /* \"#utility.yul\":8162:8230   */\n      swap4\n      pop\n        /* \"#utility.yul\":8239:8304   */\n      tag_254\n        /* \"#utility.yul\":8297:8303   */\n      dup2\n        /* \"#utility.yul\":8292:8295   */\n      dup6\n        /* \"#utility.yul\":8285:8289   */\n      0x20\n        /* \"#utility.yul\":8278:8283   */\n      dup7\n        /* \"#utility.yul\":8274:8290   */\n      add\n        /* \"#utility.yul\":8239:8304   */\n      tag_114\n      jump\t// in\n    tag_254:\n        /* \"#utility.yul\":8329:8358   */\n      tag_255\n        /* \"#utility.yul\":8351:8357   */\n      dup2\n        /* \"#utility.yul\":8329:8358   */\n      tag_115\n      jump\t// in\n    tag_255:\n        /* \"#utility.yul\":8324:8327   */\n      dup5\n        /* \"#utility.yul\":8320:8359   */\n      add\n        /* \"#utility.yul\":8313:8359   */\n      swap2\n      pop\n        /* \"#utility.yul\":8090:8365   */\n      pop\n        /* \"#utility.yul\":8008:8365   */\n      swap3\n      swap2\n      pop\n      pop\n      jump\t// out\n        /* \"#utility.yul\":8411:9422   */\n    tag_132:\n        /* \"#utility.yul\":8508:8511   */\n      0x00\n        /* \"#utility.yul\":8544:8548   */\n      0x80\n        /* \"#utility.yul\":8539:8542   */\n      dup4\n        /* \"#utility.yul\":8535:8549   */\n      add\n        /* \"#utility.yul\":8629:8633   */\n      0x00\n        /* \"#utility.yul\":8622:8627   */\n      dup4\n        /* \"#utility.yul\":8618:8634   */\n      add\n        /* \"#utility.yul\":8612:8635   */\n      mload\n        /* \"#utility.yul\":8648:8711   */\n      tag_257\n        /* \"#utility.yul\":8705:8709   */\n      0x00\n        /* \"#utility.yul\":8700:8703   */\n      dup7\n        /* \"#utility.yul\":8696:8710   */\n      add\n        /* \"#utility.yul\":8682:8694   */\n      dup3\n        /* \"#utility.yul\":8648:8711   */\n      tag_129\n      jump\t// in\n    tag_257:\n        /* \"#utility.yul\":8559:8721   */\n      pop\n        /* \"#utility.yul\":8806:8810   */\n      0x20\n        /* \"#utility.yul\":8799:8804   */\n      dup4\n        /* \"#utility.yul\":8795:8811   */\n      add\n        /* \"#utility.yul\":8789:8812   */\n      mload\n        /* \"#utility.yul\":8825:8888   */\n      tag_258\n        /* \"#utility.yul\":8882:8886   */\n      0x20\n        /* \"#utility.yul\":8877:8880   */\n      dup7\n        /* \"#utility.yul\":8873:8887   */\n      add\n        /* \"#utility.yul\":8859:8871   */\n      dup3\n        /* \"#utility.yul\":8825:8888   */\n      tag_129\n      jump\t// in\n    tag_258:\n        /* \"#utility.yul\":8731:8898   */\n      pop\n        /* \"#utility.yul\":8984:8988   */\n      0x40\n        /* \"#utility.yul\":8977:8982   */\n      dup4\n        /* \"#utility.yul\":8973:8989   */\n      add\n        /* \"#utility.yul\":8967:8990   */\n      mload\n        /* \"#utility.yul\":9037:9040   */\n      dup5\n        /* \"#utility.yul\":9031:9035   */\n      dup3\n        /* \"#utility.yul\":9027:9041   */\n      sub\n        /* \"#utility.yul\":9020:9024   */\n      0x40\n        /* \"#utility.yul\":9015:9018   */\n      dup7\n        /* \"#utility.yul\":9011:9025   */\n      add\n        /* \"#utility.yul\":9004:9042   */\n      mstore\n        /* \"#utility.yul\":9063:9136   */\n      tag_259\n        /* \"#utility.yul\":9131:9135   */\n      dup3\n        /* \"#utility.yul\":9117:9129   */\n      dup3\n        /* \"#utility.yul\":9063:9136   */\n      tag_131\n      jump\t// in\n    tag_259:\n        /* \"#utility.yul\":9055:9136   */\n      swap2\n      pop\n        /* \"#utility.yul\":8908:9147   */\n      pop\n        /* \"#utility.yul\":9232:9236   */\n      0x60\n        /* \"#utility.yul\":9225:9230   */\n      dup4\n        /* \"#utility.yul\":9221:9237   */\n      add\n        /* \"#utility.yul\":9215:9238   */\n      mload\n        /* \"#utility.yul\":9285:9288   */\n      dup5\n        /* \"#utility.yul\":9279:9283   */\n      dup3\n        /* \"#utility.yul\":9275:9289   */\n      sub\n        /* \"#utility.yul\":9268:9272   */\n      0x60\n        /* \"#utility.yul\":9263:9266   */\n      dup7\n        /* \"#utility.yul\":9259:9273   */\n      add\n        /* \"#utility.yul\":9252:9290   */\n      mstore\n        /* \"#utility.yul\":9311:9384   */\n      tag_260\n        /* \"#utility.yul\":9379:9383   */\n      dup3\n        /* \"#utility.yul\":9365:9377   */\n      dup3\n        /* \"#utility.yul\":9311:9384   */\n      tag_131\n      jump\t// in\n    tag_260:\n        /* \"#utility.yul\":9303:9384   */\n      swap2\n      pop\n        /* \"#utility.yul\":9157:9395   */\n      pop\n        /* \"#utility.yul\":9412:9416   */\n      dup1\n        /* \"#utility.yul\":9405:9416   */\n      swap2\n      pop\n        /* \"#utility.yul\":8513:9422   */\n      pop\n        /* \"#utility.yul\":8411:9422   */\n      swap3\n      swap2\n      pop\n      pop\n      jump\t// out\n        /* \"#utility.yul\":9428:9660   */\n    tag_133:\n        /* \"#utility.yul\":9535:9545   */\n      0x00\n        /* \"#utility.yul\":9570:9654   */\n      tag_262\n        /* \"#utility.yul\":9650:9653   */\n      dup4\n        /* \"#utility.yul\":9642:9648   */\n      dup4\n        /* \"#utility.yul\":9570:9654   */\n      tag_132\n      jump\t// in\n    tag_262:\n        /* \"#utility.yul\":9556:9654   */\n      swap1\n      pop\n        /* \"#utility.yul\":9428:9660   */\n      swap3\n      swap2\n      pop\n      pop\n      jump\t// out\n        /* \"#utility.yul\":9666:9798   */\n    tag_134:\n        /* \"#utility.yul\":9755:9759   */\n      0x00\n        /* \"#utility.yul\":9787:9791   */\n      0x20\n        /* \"#utility.yul\":9782:9785   */\n      dup3\n        /* \"#utility.yul\":9778:9792   */\n      add\n        /* \"#utility.yul\":9770:9792   */\n      swap1\n      pop\n        /* \"#utility.yul\":9666:9798   */\n      swap2\n      swap1\n      pop\n      jump\t// out\n        /* \"#utility.yul\":9848:10911   */\n    tag_135:\n        /* \"#utility.yul\":10005:10008   */\n      0x00\n        /* \"#utility.yul\":10034:10107   */\n      tag_265\n        /* \"#utility.yul\":10101:10106   */\n      dup3\n        /* \"#utility.yul\":10034:10107   */\n      tag_126\n      jump\t// in\n    tag_265:\n        /* \"#utility.yul\":10123:10228   */\n      tag_266\n        /* \"#utility.yul\":10221:10227   */\n      dup2\n        /* \"#utility.yul\":10216:10219   */\n      dup6\n        /* \"#utility.yul\":10123:10228   */\n      tag_127\n      jump\t// in\n    tag_266:\n        /* \"#utility.yul\":10116:10228   */\n      swap4\n      pop\n        /* \"#utility.yul\":10254:10257   */\n      dup4\n        /* \"#utility.yul\":10299:10303   */\n      0x20\n        /* \"#utility.yul\":10291:10297   */\n      dup3\n        /* \"#utility.yul\":10287:10304   */\n      mul\n        /* \"#utility.yul\":10282:10285   */\n      dup6\n        /* \"#utility.yul\":10278:10305   */\n      add\n        /* \"#utility.yul\":10329:10404   */\n      tag_267\n        /* \"#utility.yul\":10398:10403   */\n      dup6\n        /* \"#utility.yul\":10329:10404   */\n      tag_128\n      jump\t// in\n    tag_267:\n        /* \"#utility.yul\":10427:10434   */\n      dup1\n        /* \"#utility.yul\":10458:10459   */\n      0x00\n        /* \"#utility.yul\":10443:10866   */\n    tag_268:\n        /* \"#utility.yul\":10468:10474   */\n      dup6\n        /* \"#utility.yul\":10465:10466   */\n      dup2\n        /* \"#utility.yul\":10462:10475   */\n      lt\n        /* \"#utility.yul\":10443:10866   */\n      iszero\n      tag_270\n      jumpi\n        /* \"#utility.yul\":10539:10548   */\n      dup5\n        /* \"#utility.yul\":10533:10537   */\n      dup5\n        /* \"#utility.yul\":10529:10549   */\n      sub\n        /* \"#utility.yul\":10524:10527   */\n      dup10\n        /* \"#utility.yul\":10517:10550   */\n      mstore\n        /* \"#utility.yul\":10590:10596   */\n      dup2\n        /* \"#utility.yul\":10584:10597   */\n      mload\n        /* \"#utility.yul\":10618:10720   */\n      tag_271\n        /* \"#utility.yul\":10715:10719   */\n      dup6\n        /* \"#utility.yul\":10700:10713   */\n      dup3\n        /* \"#utility.yul\":10618:10720   */\n      tag_133\n      jump\t// in\n    tag_271:\n        /* \"#utility.yul\":10610:10720   */\n      swap5\n      pop\n        /* \"#utility.yul\":10743:10822   */\n      tag_272\n        /* \"#utility.yul\":10815:10821   */\n      dup4\n        /* \"#utility.yul\":10743:10822   */\n      tag_134\n      jump\t// in\n    tag_272:\n        /* \"#utility.yul\":10733:10822   */\n      swap3\n      pop\n        /* \"#utility.yul\":10851:10855   */\n      0x20\n        /* \"#utility.yul\":10846:10849   */\n      dup11\n        /* \"#utility.yul\":10842:10856   */\n      add\n        /* \"#utility.yul\":10835:10856   */\n      swap10\n      pop\n        /* \"#utility.yul\":10503:10866   */\n      pop\n        /* \"#utility.yul\":10490:10491   */\n      0x01\n        /* \"#utility.yul\":10487:10488   */\n      dup2\n        /* \"#utility.yul\":10483:10492   */\n      add\n        /* \"#utility.yul\":10478:10492   */\n      swap1\n      pop\n        /* \"#utility.yul\":10443:10866   */\n      jump(tag_268)\n    tag_270:\n        /* \"#utility.yul\":10447:10461   */\n      pop\n        /* \"#utility.yul\":10882:10886   */\n      dup3\n        /* \"#utility.yul\":10875:10886   */\n      swap8\n      pop\n        /* \"#utility.yul\":10902:10905   */\n      dup8\n        /* \"#utility.yul\":10895:10905   */\n      swap6\n      pop\n        /* \"#utility.yul\":10010:10911   */\n      pop\n      pop\n      pop\n      pop\n      pop\n        /* \"#utility.yul\":9848:10911   */\n      swap3\n      swap2\n      pop\n      pop\n      jump\t// out\n        /* \"#utility.yul\":10917:11366   */\n    tag_45:\n        /* \"#utility.yul\":11098:11102   */\n      0x00\n        /* \"#utility.yul\":11136:11138   */\n      0x20\n        /* \"#utility.yul\":11125:11134   */\n      dup3\n        /* \"#utility.yul\":11121:11139   */\n      add\n        /* \"#utility.yul\":11113:11139   */\n      swap1\n      pop\n        /* \"#utility.yul\":11185:11194   */\n      dup2\n        /* \"#utility.yul\":11179:11183   */\n      dup2\n        /* \"#utility.yul\":11175:11195   */\n      sub\n        /* \"#utility.yul\":11171:11172   */\n      0x00\n        /* \"#utility.yul\":11160:11169   */\n      dup4\n        /* \"#utility.yul\":11156:11173   */\n      add\n        /* \"#utility.yul\":11149:11196   */\n      mstore\n        /* \"#utility.yul\":11213:11359   */\n      tag_274\n        /* \"#utility.yul\":11354:11358   */\n      dup2\n        /* \"#utility.yul\":11345:11351   */\n      dup5\n        /* \"#utility.yul\":11213:11359   */\n      tag_135\n      jump\t// in\n    tag_274:\n        /* \"#utility.yul\":11205:11359   */\n      swap1\n      pop\n        /* \"#utility.yul\":10917:11366   */\n      swap3\n      swap2\n      pop\n      pop\n      jump\t// out\n        /* \"#utility.yul\":11372:11552   */\n    tag_136:\n        /* \"#utility.yul\":11420:11497   */\n      0x4e487b7100000000000000000000000000000000000000000000000000000000\n        /* \"#utility.yul\":11417:11418   */\n      0x00\n        /* \"#utility.yul\":11410:11498   */\n      mstore\n        /* \"#utility.yul\":11517:11521   */\n      0x22\n        /* \"#utility.yul\":11514:11515   */\n      0x04\n        /* \"#utility.yul\":11507:11522   */\n      mstore\n        /* \"#utility.yul\":11541:11545   */\n      0x24\n        /* \"#utility.yul\":11538:11539   */\n      0x00\n        /* \"#utility.yul\":11531:11546   */\n      revert\n        /* \"#utility.yul\":11558:11878   */\n    tag_49:\n        /* \"#utility.yul\":11602:11608   */\n      0x00\n        /* \"#utility.yul\":11639:11640   */\n      0x02\n        /* \"#utility.yul\":11633:11637   */\n      dup3\n        /* \"#utility.yul\":11629:11641   */\n      div\n        /* \"#utility.yul\":11619:11641   */\n      swap1\n      pop\n        /* \"#utility.yul\":11686:11687   */\n      0x01\n        /* \"#utility.yul\":11680:11684   */\n      dup3\n        /* \"#utility.yul\":11676:11688   */\n      and\n        /* \"#utility.yul\":11707:11725   */\n      dup1\n        /* \"#utility.yul\":11697:11778   */\n      tag_277\n      jumpi\n        /* \"#utility.yul\":11763:11767   */\n      0x7f\n        /* \"#utility.yul\":11755:11761   */\n      dup3\n        /* \"#utility.yul\":11751:11768   */\n      and\n        /* \"#utility.yul\":11741:11768   */\n      swap2\n      pop\n        /* \"#utility.yul\":11697:11778   */\n    tag_277:\n        /* \"#utility.yul\":11825:11827   */\n      0x20\n        /* \"#utility.yul\":11817:11823   */\n      dup3\n        /* \"#utility.yul\":11814:11828   */\n      lt\n        /* \"#utility.yul\":11794:11812   */\n      dup2\n        /* \"#utility.yul\":11791:11829   */\n      sub\n        /* \"#utility.yul\":11788:11872   */\n      tag_278\n      jumpi\n        /* \"#utility.yul\":11844:11862   */\n      tag_279\n      tag_136\n      jump\t// in\n    tag_279:\n        /* \"#utility.yul\":11788:11872   */\n    tag_278:\n        /* \"#utility.yul\":11609:11878   */\n      pop\n        /* \"#utility.yul\":11558:11878   */\n      swap2\n      swap1\n      pop\n      jump\t// out\n        /* \"#utility.yul\":11884:12064   */\n    tag_137:\n        /* \"#utility.yul\":11932:12009   */\n      0x4e487b7100000000000000000000000000000000000000000000000000000000\n        /* \"#utility.yul\":11929:11930   */\n      0x00\n        /* \"#utility.yul\":11922:12010   */\n      mstore\n        /* \"#utility.yul\":12029:12033   */\n      0x11\n        /* \"#utility.yul\":12026:12027   */\n      0x04\n        /* \"#utility.yul\":12019:12034   */\n      mstore\n        /* \"#utility.yul\":12053:12057   */\n      0x24\n        /* \"#utility.yul\":12050:12051   */\n      0x00\n        /* \"#utility.yul\":12043:12058   */\n      revert\n        /* \"#utility.yul\":12070:12264   */\n    tag_63:\n        /* \"#utility.yul\":12110:12114   */\n      0x00\n        /* \"#utility.yul\":12130:12150   */\n      tag_282\n        /* \"#utility.yul\":12148:12149   */\n      dup3\n        /* \"#utility.yul\":12130:12150   */\n      tag_108\n      jump\t// in\n    tag_282:\n        /* \"#utility.yul\":12125:12150   */\n      swap2\n      pop\n        /* \"#utility.yul\":12164:12184   */\n      tag_283\n        /* \"#utility.yul\":12182:12183   */\n      dup4\n        /* \"#utility.yul\":12164:12184   */\n      tag_108\n      jump\t// in\n    tag_283:\n        /* \"#utility.yul\":12159:12184   */\n      swap3\n      pop\n        /* \"#utility.yul\":12208:12209   */\n      dup3\n        /* \"#utility.yul\":12205:12206   */\n      dup3\n        /* \"#utility.yul\":12201:12210   */\n      sub\n        /* \"#utility.yul\":12193:12210   */\n      swap1\n      pop\n        /* \"#utility.yul\":12232:12233   */\n      dup2\n        /* \"#utility.yul\":12226:12230   */\n      dup2\n        /* \"#utility.yul\":12223:12234   */\n      gt\n        /* \"#utility.yul\":12220:12257   */\n      iszero\n      tag_284\n      jumpi\n        /* \"#utility.yul\":12237:12255   */\n      tag_285\n      tag_137\n      jump\t// in\n    tag_285:\n        /* \"#utility.yul\":12220:12257   */\n    tag_284:\n        /* \"#utility.yul\":12070:12264   */\n      swap3\n      swap2\n      pop\n      pop\n      jump\t// out\n        /* \"#utility.yul\":12270:12439   */\n    tag_138:\n        /* \"#utility.yul\":12410:12431   */\n      0x766f7472652062616c616e636520657374203000000000000000000000000000\n        /* \"#utility.yul\":12406:12407   */\n      0x00\n        /* \"#utility.yul\":12398:12404   */\n      dup3\n        /* \"#utility.yul\":12394:12408   */\n      add\n        /* \"#utility.yul\":12387:12432   */\n      mstore\n        /* \"#utility.yul\":12270:12439   */\n      pop\n      jump\t// out\n        /* \"#utility.yul\":12445:12811   */\n    tag_139:\n        /* \"#utility.yul\":12587:12590   */\n      0x00\n        /* \"#utility.yul\":12608:12675   */\n      tag_288\n        /* \"#utility.yul\":12672:12674   */\n      0x13\n        /* \"#utility.yul\":12667:12670   */\n      dup4\n        /* \"#utility.yul\":12608:12675   */\n      tag_113\n      jump\t// in\n    tag_288:\n        /* \"#utility.yul\":12601:12675   */\n      swap2\n      pop\n        /* \"#utility.yul\":12684:12777   */\n      tag_289\n        /* \"#utility.yul\":12773:12776   */\n      dup3\n        /* \"#utility.yul\":12684:12777   */\n      tag_138\n      jump\t// in\n    tag_289:\n        /* \"#utility.yul\":12802:12804   */\n      0x20\n        /* \"#utility.yul\":12797:12800   */\n      dup3\n        /* \"#utility.yul\":12793:12805   */\n      add\n        /* \"#utility.yul\":12786:12805   */\n      swap1\n      pop\n        /* \"#utility.yul\":12445:12811   */\n      swap2\n      swap1\n      pop\n      jump\t// out\n        /* \"#utility.yul\":12817:13236   */\n    tag_66:\n        /* \"#utility.yul\":12983:12987   */\n      0x00\n        /* \"#utility.yul\":13021:13023   */\n      0x20\n        /* \"#utility.yul\":13010:13019   */\n      dup3\n        /* \"#utility.yul\":13006:13024   */\n      add\n        /* \"#utility.yul\":12998:13024   */\n      swap1\n      pop\n        /* \"#utility.yul\":13070:13079   */\n      dup2\n        /* \"#utility.yul\":13064:13068   */\n      dup2\n        /* \"#utility.yul\":13060:13080   */\n      sub\n        /* \"#utility.yul\":13056:13057   */\n      0x00\n        /* \"#utility.yul\":13045:13054   */\n      dup4\n        /* \"#utility.yul\":13041:13058   */\n      add\n        /* \"#utility.yul\":13034:13081   */\n      mstore\n        /* \"#utility.yul\":13098:13229   */\n      tag_291\n        /* \"#utility.yul\":13224:13228   */\n      dup2\n        /* \"#utility.yul\":13098:13229   */\n      tag_139\n      jump\t// in\n    tag_291:\n        /* \"#utility.yul\":13090:13229   */\n      swap1\n      pop\n        /* \"#utility.yul\":12817:13236   */\n      swap2\n      swap1\n      pop\n      jump\t// out\n        /* \"#utility.yul\":13242:13389   */\n    tag_140:\n        /* \"#utility.yul\":13343:13354   */\n      0x00\n        /* \"#utility.yul\":13380:13383   */\n      dup2\n        /* \"#utility.yul\":13365:13383   */\n      swap1\n      pop\n        /* \"#utility.yul\":13242:13389   */\n      swap3\n      swap2\n      pop\n      pop\n      jump\t// out\n        /* \"#utility.yul\":13395:13509   */\n    tag_141:\n      pop\n      jump\t// out\n        /* \"#utility.yul\":13515:13913   */\n    tag_142:\n        /* \"#utility.yul\":13674:13677   */\n      0x00\n        /* \"#utility.yul\":13695:13778   */\n      tag_295\n        /* \"#utility.yul\":13776:13777   */\n      0x00\n        /* \"#utility.yul\":13771:13774   */\n      dup4\n        /* \"#utility.yul\":13695:13778   */\n      tag_140\n      jump\t// in\n    tag_295:\n        /* \"#utility.yul\":13688:13778   */\n      swap2\n      pop\n        /* \"#utility.yul\":13787:13880   */\n      tag_296\n        /* \"#utility.yul\":13876:13879   */\n      dup3\n        /* \"#utility.yul\":13787:13880   */\n      tag_141\n      jump\t// in\n    tag_296:\n        /* \"#utility.yul\":13905:13906   */\n      0x00\n        /* \"#utility.yul\":13900:13903   */\n      dup3\n        /* \"#utility.yul\":13896:13907   */\n      add\n        /* \"#utility.yul\":13889:13907   */\n      swap1\n      pop\n        /* \"#utility.yul\":13515:13913   */\n      swap2\n      swap1\n      pop\n      jump\t// out\n        /* \"#utility.yul\":13919:14298   */\n    tag_68:\n        /* \"#utility.yul\":14103:14106   */\n      0x00\n        /* \"#utility.yul\":14125:14272   */\n      tag_298\n        /* \"#utility.yul\":14268:14271   */\n      dup3\n        /* \"#utility.yul\":14125:14272   */\n      tag_142\n      jump\t// in\n    tag_298:\n        /* \"#utility.yul\":14118:14272   */\n      swap2\n      pop\n        /* \"#utility.yul\":14289:14292   */\n      dup2\n        /* \"#utility.yul\":14282:14292   */\n      swap1\n      pop\n        /* \"#utility.yul\":13919:14298   */\n      swap2\n      swap1\n      pop\n      jump\t// out\n        /* \"#utility.yul\":14304:14477   */\n    tag_143:\n        /* \"#utility.yul\":14444:14469   */\n      0x6c61207472616e73616374696f6e2061206563686f7565000000000000000000\n        /* \"#utility.yul\":14440:14441   */\n      0x00\n        /* \"#utility.yul\":14432:14438   */\n      dup3\n        /* \"#utility.yul\":14428:14442   */\n      add\n        /* \"#utility.yul\":14421:14470   */\n      mstore\n        /* \"#utility.yul\":14304:14477   */\n      pop\n      jump\t// out\n        /* \"#utility.yul\":14483:14849   */\n    tag_144:\n        /* \"#utility.yul\":14625:14628   */\n      0x00\n        /* \"#utility.yul\":14646:14713   */\n      tag_301\n        /* \"#utility.yul\":14710:14712   */\n      0x17\n        /* \"#utility.yul\":14705:14708   */\n      dup4\n        /* \"#utility.yul\":14646:14713   */\n      tag_113\n      jump\t// in\n    tag_301:\n        /* \"#utility.yul\":14639:14713   */\n      swap2\n      pop\n        /* \"#utility.yul\":14722:14815   */\n      tag_302\n        /* \"#utility.yul\":14811:14814   */\n      dup3\n        /* \"#utility.yul\":14722:14815   */\n      tag_143\n      jump\t// in\n    tag_302:\n        /* \"#utility.yul\":14840:14842   */\n      0x20\n        /* \"#utility.yul\":14835:14838   */\n      dup3\n        /* \"#utility.yul\":14831:14843   */\n      add\n        /* \"#utility.yul\":14824:14843   */\n      swap1\n      pop\n        /* \"#utility.yul\":14483:14849   */\n      swap2\n      swap1\n      pop\n      jump\t// out\n        /* \"#utility.yul\":14855:15274   */\n    tag_74:\n        /* \"#utility.yul\":15021:15025   */\n      0x00\n        /* \"#utility.yul\":15059:15061   */\n      0x20\n        /* \"#utility.yul\":15048:15057   */\n      dup3\n        /* \"#utility.yul\":15044:15062   */\n      add\n        /* \"#utility.yul\":15036:15062   */\n      swap1\n      pop\n        /* \"#utility.yul\":15108:15117   */\n      dup2\n        /* \"#utility.yul\":15102:15106   */\n      dup2\n        /* \"#utility.yul\":15098:15118   */\n      sub\n        /* \"#utility.yul\":15094:15095   */\n      0x00\n        /* \"#utility.yul\":15083:15092   */\n      dup4\n        /* \"#utility.yul\":15079:15096   */\n      add\n        /* \"#utility.yul\":15072:15119   */\n      mstore\n        /* \"#utility.yul\":15136:15267   */\n      tag_304\n        /* \"#utility.yul\":15262:15266   */\n      dup2\n        /* \"#utility.yul\":15136:15267   */\n      tag_144\n      jump\t// in\n    tag_304:\n        /* \"#utility.yul\":15128:15267   */\n      swap1\n      pop\n        /* \"#utility.yul\":14855:15274   */\n      swap2\n      swap1\n      pop\n      jump\t// out\n        /* \"#utility.yul\":15280:15446   */\n    tag_145:\n        /* \"#utility.yul\":15420:15438   */\n      0x6c65206465706f7420657374206e756c00000000000000000000000000000000\n        /* \"#utility.yul\":15416:15417   */\n      0x00\n        /* \"#utility.yul\":15408:15414   */\n      dup3\n        /* \"#utility.yul\":15404:15418   */\n      add\n        /* \"#utility.yul\":15397:15439   */\n      mstore\n        /* \"#utility.yul\":15280:15446   */\n      pop\n      jump\t// out\n        /* \"#utility.yul\":15452:15818   */\n    tag_146:\n        /* \"#utility.yul\":15594:15597   */\n      0x00\n        /* \"#utility.yul\":15615:15682   */\n      tag_307\n        /* \"#utility.yul\":15679:15681   */\n      0x10\n        /* \"#utility.yul\":15674:15677   */\n      dup4\n        /* \"#utility.yul\":15615:15682   */\n      tag_113\n      jump\t// in\n    tag_307:\n        /* \"#utility.yul\":15608:15682   */\n      swap2\n      pop\n        /* \"#utility.yul\":15691:15784   */\n      tag_308\n        /* \"#utility.yul\":15780:15783   */\n      dup3\n        /* \"#utility.yul\":15691:15784   */\n      tag_145\n      jump\t// in\n    tag_308:\n        /* \"#utility.yul\":15809:15811   */\n      0x20\n        /* \"#utility.yul\":15804:15807   */\n      dup3\n        /* \"#utility.yul\":15800:15812   */\n      add\n        /* \"#utility.yul\":15793:15812   */\n      swap1\n      pop\n        /* \"#utility.yul\":15452:15818   */\n      swap2\n      swap1\n      pop\n      jump\t// out\n        /* \"#utility.yul\":15824:16243   */\n    tag_78:\n        /* \"#utility.yul\":15990:15994   */\n      0x00\n        /* \"#utility.yul\":16028:16030   */\n      0x20\n        /* \"#utility.yul\":16017:16026   */\n      dup3\n        /* \"#utility.yul\":16013:16031   */\n      add\n        /* \"#utility.yul\":16005:16031   */\n      swap1\n      pop\n        /* \"#utility.yul\":16077:16086   */\n      dup2\n        /* \"#utility.yul\":16071:16075   */\n      dup2\n        /* \"#utility.yul\":16067:16087   */\n      sub\n        /* \"#utility.yul\":16063:16064   */\n      0x00\n        /* \"#utility.yul\":16052:16061   */\n      dup4\n        /* \"#utility.yul\":16048:16065   */\n      add\n        /* \"#utility.yul\":16041:16088   */\n      mstore\n        /* \"#utility.yul\":16105:16236   */\n      tag_310\n        /* \"#utility.yul\":16231:16235   */\n      dup2\n        /* \"#utility.yul\":16105:16236   */\n      tag_146\n      jump\t// in\n    tag_310:\n        /* \"#utility.yul\":16097:16236   */\n      swap1\n      pop\n        /* \"#utility.yul\":15824:16243   */\n      swap2\n      swap1\n      pop\n      jump\t// out\n        /* \"#utility.yul\":16249:16440   */\n    tag_80:\n        /* \"#utility.yul\":16289:16292   */\n      0x00\n        /* \"#utility.yul\":16308:16328   */\n      tag_312\n        /* \"#utility.yul\":16326:16327   */\n      dup3\n        /* \"#utility.yul\":16308:16328   */\n      tag_108\n      jump\t// in\n    tag_312:\n        /* \"#utility.yul\":16303:16328   */\n      swap2\n      pop\n        /* \"#utility.yul\":16342:16362   */\n      tag_313\n        /* \"#utility.yul\":16360:16361   */\n      dup4\n        /* \"#utility.yul\":16342:16362   */\n      tag_108\n      jump\t// in\n    tag_313:\n        /* \"#utility.yul\":16337:16362   */\n      swap3\n      pop\n        /* \"#utility.yul\":16385:16386   */\n      dup3\n        /* \"#utility.yul\":16382:16383   */\n      dup3\n        /* \"#utility.yul\":16378:16387   */\n      add\n        /* \"#utility.yul\":16371:16387   */\n      swap1\n      pop\n        /* \"#utility.yul\":16406:16409   */\n      dup1\n        /* \"#utility.yul\":16403:16404   */\n      dup3\n        /* \"#utility.yul\":16400:16410   */\n      gt\n        /* \"#utility.yul\":16397:16433   */\n      iszero\n      tag_314\n      jumpi\n        /* \"#utility.yul\":16413:16431   */\n      tag_315\n      tag_137\n      jump\t// in\n    tag_315:\n        /* \"#utility.yul\":16397:16433   */\n    tag_314:\n        /* \"#utility.yul\":16249:16440   */\n      swap3\n      swap2\n      pop\n      pop\n      jump\t// out\n        /* \"#utility.yul\":16446:16679   */\n    tag_82:\n        /* \"#utility.yul\":16485:16488   */\n      0x00\n        /* \"#utility.yul\":16508:16532   */\n      tag_317\n        /* \"#utility.yul\":16526:16531   */\n      dup3\n        /* \"#utility.yul\":16508:16532   */\n      tag_108\n      jump\t// in\n    tag_317:\n        /* \"#utility.yul\":16499:16532   */\n      swap2\n      pop\n        /* \"#utility.yul\":16554:16620   */\n      0xffffffffffffffffffffffffffffffffffffffffffffffffffffffffffffffff\n        /* \"#utility.yul\":16547:16552   */\n      dup3\n        /* \"#utility.yul\":16544:16621   */\n      sub\n        /* \"#utility.yul\":16541:16644   */\n      tag_318\n      jumpi\n        /* \"#utility.yul\":16624:16642   */\n      tag_319\n      tag_137\n      jump\t// in\n    tag_319:\n        /* \"#utility.yul\":16541:16644   */\n    tag_318:\n        /* \"#utility.yul\":16671:16672   */\n      0x01\n        /* \"#utility.yul\":16664:16669   */\n      dup3\n        /* \"#utility.yul\":16660:16673   */\n      add\n        /* \"#utility.yul\":16653:16673   */\n      swap1\n      pop\n        /* \"#utility.yul\":16446:16679   */\n      swap2\n      swap1\n      pop\n      jump\t// out\n        /* \"#utility.yul\":16685:16826   */\n    tag_147:\n        /* \"#utility.yul\":16734:16738   */\n      0x00\n        /* \"#utility.yul\":16757:16760   */\n      dup2\n        /* \"#utility.yul\":16749:16760   */\n      swap1\n      pop\n        /* \"#utility.yul\":16780:16783   */\n      dup2\n        /* \"#utility.yul\":16777:16778   */\n      0x00\n        /* \"#utility.yul\":16770:16784   */\n      mstore\n        /* \"#utility.yul\":16814:16818   */\n      0x20\n        /* \"#utility.yul\":16811:16812   */\n      0x00\n        /* \"#utility.yul\":16801:16819   */\n      keccak256\n        /* \"#utility.yul\":16793:16819   */\n      swap1\n      pop\n        /* \"#utility.yul\":16685:16826   */\n      swap2\n      swap1\n      pop\n      jump\t// out\n        /* \"#utility.yul\":16832:16925   */\n    tag_148:\n        /* \"#utility.yul\":16869:16875   */\n      0x00\n        /* \"#utility.yul\":16916:16918   */\n      0x20\n        /* \"#utility.yul\":16911:16913   */\n      0x1f\n        /* \"#utility.yul\":16904:16909   */\n      dup4\n        /* \"#utility.yul\":16900:16914   */\n      add\n        /* \"#utility.yul\":16896:16919   */\n      div\n        /* \"#utility.yul\":16886:16919   */\n      swap1\n      pop\n        /* \"#utility.yul\":16832:16925   */\n      swap2\n      swap1\n      pop\n      jump\t// out\n        /* \"#utility.yul\":16931:17038   */\n    tag_149:\n        /* \"#utility.yul\":16975:16983   */\n      0x00\n        /* \"#utility.yul\":17025:17030   */\n      dup3\n        /* \"#utility.yul\":17019:17023   */\n      dup3\n        /* \"#utility.yul\":17015:17031   */\n      shl\n        /* \"#utility.yul\":16994:17031   */\n      swap1\n      pop\n        /* \"#utility.yul\":16931:17038   */\n      swap3\n      swap2\n      pop\n      pop\n      jump\t// out\n        /* \"#utility.yul\":17044:17437   */\n    tag_150:\n        /* \"#utility.yul\":17113:17119   */\n      0x00\n        /* \"#utility.yul\":17163:17164   */\n      0x08\n        /* \"#utility.yul\":17151:17161   */\n      dup4\n        /* \"#utility.yul\":17147:17165   */\n      mul\n        /* \"#utility.yul\":17186:17283   */\n      tag_324\n        /* \"#utility.yul\":17216:17282   */\n      0xffffffffffffffffffffffffffffffffffffffffffffffffffffffffffffffff\n        /* \"#utility.yul\":17205:17214   */\n      dup3\n        /* \"#utility.yul\":17186:17283   */\n      tag_149\n      jump\t// in\n    tag_324:\n        /* \"#utility.yul\":17304:17343   */\n      tag_325\n        /* \"#utility.yul\":17334:17342   */\n      dup7\n        /* \"#utility.yul\":17323:17332   */\n      dup4\n        /* \"#utility.yul\":17304:17343   */\n      tag_149\n      jump\t// in\n    tag_325:\n        /* \"#utility.yul\":17292:17343   */\n      swap6\n      pop\n        /* \"#utility.yul\":17376:17380   */\n      dup1\n        /* \"#utility.yul\":17372:17381   */\n      not\n        /* \"#utility.yul\":17365:17370   */\n      dup5\n        /* \"#utility.yul\":17361:17382   */\n      and\n        /* \"#utility.yul\":17352:17382   */\n      swap4\n      pop\n        /* \"#utility.yul\":17425:17429   */\n      dup1\n        /* \"#utility.yul\":17415:17423   */\n      dup7\n        /* \"#utility.yul\":17411:17430   */\n      and\n        /* \"#utility.yul\":17404:17409   */\n      dup5\n        /* \"#utility.yul\":17401:17431   */\n      or\n        /* \"#utility.yul\":17391:17431   */\n      swap3\n      pop\n        /* \"#utility.yul\":17120:17437   */\n      pop\n      pop\n        /* \"#utility.yul\":17044:17437   */\n      swap4\n      swap3\n      pop\n      pop\n      pop\n      jump\t// out\n        /* \"#utility.yul\":17443:17503   */\n    tag_151:\n        /* \"#utility.yul\":17471:17474   */\n      0x00\n        /* \"#utility.yul\":17492:17497   */\n      dup2\n        /* \"#utility.yul\":17485:17497   */\n      swap1\n      pop\n        /* \"#utility.yul\":17443:17503   */\n      swap2\n      swap1\n      pop\n      jump\t// out\n        /* \"#utility.yul\":17509:17651   */\n    tag_152:\n        /* \"#utility.yul\":17559:17568   */\n      0x00\n        /* \"#utility.yul\":17592:17645   */\n      tag_328\n        /* \"#utility.yul\":17610:17644   */\n      tag_329\n        /* \"#utility.yul\":17619:17643   */\n      tag_330\n        /* \"#utility.yul\":17637:17642   */\n      dup5\n        /* \"#utility.yul\":17619:17643   */\n      tag_108\n      jump\t// in\n    tag_330:\n        /* \"#utility.yul\":17610:17644   */\n      tag_151\n      jump\t// in\n    tag_329:\n        /* \"#utility.yul\":17592:17645   */\n      tag_108\n      jump\t// in\n    tag_328:\n        /* \"#utility.yul\":17579:17645   */\n      swap1\n      pop\n        /* \"#utility.yul\":17509:17651   */\n      swap2\n      swap1\n      pop\n      jump\t// out\n        /* \"#utility.yul\":17657:17732   */\n    tag_153:\n        /* \"#utility.yul\":17700:17703   */\n      0x00\n        /* \"#utility.yul\":17721:17726   */\n      dup2\n        /* \"#utility.yul\":17714:17726   */\n      swap1\n      pop\n        /* \"#utility.yul\":17657:17732   */\n      swap2\n      swap1\n      pop\n      jump\t// out\n        /* \"#utility.yul\":17738:18007   */\n    tag_154:\n        /* \"#utility.yul\":17848:17887   */\n      tag_333\n        /* \"#utility.yul\":17879:17886   */\n      dup4\n        /* \"#utility.yul\":17848:17887   */\n      tag_152\n      jump\t// in\n    tag_333:\n        /* \"#utility.yul\":17909:18000   */\n      tag_334\n        /* \"#utility.yul\":17958:17999   */\n      tag_335\n        /* \"#utility.yul\":17982:17998   */\n      dup3\n        /* \"#utility.yul\":17958:17999   */\n      tag_153\n      jump\t// in\n    tag_335:\n        /* \"#utility.yul\":17950:17956   */\n      dup5\n        /* \"#utility.yul\":17943:17947   */\n      dup5\n        /* \"#utility.yul\":17937:17948   */\n      sload\n        /* \"#utility.yul\":17909:18000   */\n      tag_150\n      jump\t// in\n    tag_334:\n        /* \"#utility.yul\":17903:17907   */\n      dup3\n        /* \"#utility.yul\":17896:18001   */\n      sstore\n        /* \"#utility.yul\":17814:18007   */\n      pop\n        /* \"#utility.yul\":17738:18007   */\n      pop\n      pop\n      pop\n      jump\t// out\n        /* \"#utility.yul\":18013:18086   */\n    tag_155:\n        /* \"#utility.yul\":18058:18061   */\n      0x00\n        /* \"#utility.yul\":18013:18086   */\n      swap1\n      jump\t// out\n        /* \"#utility.yul\":18092:18281   */\n    tag_156:\n        /* \"#utility.yul\":18169:18201   */\n      tag_338\n      tag_155\n      jump\t// in\n    tag_338:\n        /* \"#utility.yul\":18210:18275   */\n      tag_339\n        /* \"#utility.yul\":18268:18274   */\n      dup2\n        /* \"#utility.yul\":18260:18266   */\n      dup5\n        /* \"#utility.yul\":18254:18258   */\n      dup5\n        /* \"#utility.yul\":18210:18275   */\n      tag_154\n      jump\t// in\n    tag_339:\n        /* \"#utility.yul\":18145:18281   */\n      pop\n        /* \"#utility.yul\":18092:18281   */\n      pop\n      pop\n      jump\t// out\n        /* \"#utility.yul\":18287:18473   */\n    tag_157:\n        /* \"#utility.yul\":18347:18467   */\n    tag_341:\n        /* \"#utility.yul\":18364:18367   */\n      dup2\n        /* \"#utility.yul\":18357:18362   */\n      dup2\n        /* \"#utility.yul\":18354:18368   */\n      lt\n        /* \"#utility.yul\":18347:18467   */\n      iszero\n      tag_343\n      jumpi\n        /* \"#utility.yul\":18418:18457   */\n      tag_344\n        /* \"#utility.yul\":18455:18456   */\n      0x00\n        /* \"#utility.yul\":18448:18453   */\n      dup3\n        /* \"#utility.yul\":18418:18457   */\n      tag_156\n      jump\t// in\n    tag_344:\n        /* \"#utility.yul\":18391:18392   */\n      0x01\n        /* \"#utility.yul\":18384:18389   */\n      dup2\n        /* \"#utility.yul\":18380:18393   */\n      add\n        /* \"#utility.yul\":18371:18393   */\n      swap1\n      pop\n        /* \"#utility.yul\":18347:18467   */\n      jump(tag_341)\n    tag_343:\n        /* \"#utility.yul\":18287:18473   */\n      pop\n      pop\n      jump\t// out\n        /* \"#utility.yul\":18479:19022   */\n    tag_158:\n        /* \"#utility.yul\":18580:18582   */\n      0x1f\n        /* \"#utility.yul\":18575:18578   */\n      dup3\n        /* \"#utility.yul\":18572:18583   */\n      gt\n        /* \"#utility.yul\":18569:19015   */\n      iszero\n      tag_346\n      jumpi\n        /* \"#utility.yul\":18614:18652   */\n      tag_347\n        /* \"#utility.yul\":18646:18651   */\n      dup2\n        /* \"#utility.yul\":18614:18652   */\n      tag_147\n      jump\t// in\n    tag_347:\n        /* \"#utility.yul\":18698:18727   */\n      tag_348\n        /* \"#utility.yul\":18716:18726   */\n      dup5\n        /* \"#utility.yul\":18698:18727   */\n      tag_148\n      jump\t// in\n    tag_348:\n        /* \"#utility.yul\":18688:18696   */\n      dup2\n        /* \"#utility.yul\":18684:18728   */\n      add\n        /* \"#utility.yul\":18881:18883   */\n      0x20\n        /* \"#utility.yul\":18869:18879   */\n      dup6\n        /* \"#utility.yul\":18866:18884   */\n      lt\n        /* \"#utility.yul\":18863:18912   */\n      iszero\n      tag_349\n      jumpi\n        /* \"#utility.yul\":18902:18910   */\n      dup2\n        /* \"#utility.yul\":18887:18910   */\n      swap1\n      pop\n        /* \"#utility.yul\":18863:18912   */\n    tag_349:\n        /* \"#utility.yul\":18925:19005   */\n      tag_350\n        /* \"#utility.yul\":18981:19003   */\n      tag_351\n        /* \"#utility.yul\":18999:19002   */\n      dup6\n        /* \"#utility.yul\":18981:19003   */\n      tag_148\n      jump\t// in\n    tag_351:\n        /* \"#utility.yul\":18971:18979   */\n      dup4\n        /* \"#utility.yul\":18967:19004   */\n      add\n        /* \"#utility.yul\":18954:18965   */\n      dup3\n        /* \"#utility.yul\":18925:19005   */\n      tag_157\n      jump\t// in\n    tag_350:\n        /* \"#utility.yul\":18584:19015   */\n      pop\n      pop\n        /* \"#utility.yul\":18569:19015   */\n    tag_346:\n        /* \"#utility.yul\":18479:19022   */\n      pop\n      pop\n      pop\n      jump\t// out\n        /* \"#utility.yul\":19028:19145   */\n    tag_159:\n        /* \"#utility.yul\":19082:19090   */\n      0x00\n        /* \"#utility.yul\":19132:19137   */\n      dup3\n        /* \"#utility.yul\":19126:19130   */\n      dup3\n        /* \"#utility.yul\":19122:19138   */\n      shr\n        /* \"#utility.yul\":19101:19138   */\n      swap1\n      pop\n        /* \"#utility.yul\":19028:19145   */\n      swap3\n      swap2\n      pop\n      pop\n      jump\t// out\n        /* \"#utility.yul\":19151:19320   */\n    tag_160:\n        /* \"#utility.yul\":19195:19201   */\n      0x00\n        /* \"#utility.yul\":19228:19279   */\n      tag_354\n        /* \"#utility.yul\":19276:19277   */\n      0x00\n        /* \"#utility.yul\":19272:19278   */\n      not\n        /* \"#utility.yul\":19264:19269   */\n      dup5\n        /* \"#utility.yul\":19261:19262   */\n      0x08\n        /* \"#utility.yul\":19257:19270   */\n      mul\n        /* \"#utility.yul\":19228:19279   */\n      tag_159\n      jump\t// in\n    tag_354:\n        /* \"#utility.yul\":19224:19280   */\n      not\n        /* \"#utility.yul\":19309:19313   */\n      dup1\n        /* \"#utility.yul\":19303:19307   */\n      dup4\n        /* \"#utility.yul\":19299:19314   */\n      and\n        /* \"#utility.yul\":19289:19314   */\n      swap2\n      pop\n        /* \"#utility.yul\":19202:19320   */\n      pop\n        /* \"#utility.yul\":19151:19320   */\n      swap3\n      swap2\n      pop\n      pop\n      jump\t// out\n        /* \"#utility.yul\":19325:19620   */\n    tag_161:\n        /* \"#utility.yul\":19401:19405   */\n      0x00\n        /* \"#utility.yul\":19547:19576   */\n      tag_356\n        /* \"#utility.yul\":19572:19575   */\n      dup4\n        /* \"#utility.yul\":19566:19570   */\n      dup4\n        /* \"#utility.yul\":19547:19576   */\n      tag_160\n      jump\t// in\n    tag_356:\n        /* \"#utility.yul\":19539:19576   */\n      swap2\n      pop\n        /* \"#utility.yul\":19609:19612   */\n      dup3\n        /* \"#utility.yul\":19606:19607   */\n      0x02\n        /* \"#utility.yul\":19602:19613   */\n      mul\n        /* \"#utility.yul\":19596:19600   */\n      dup3\n        /* \"#utility.yul\":19593:19614   */\n      or\n        /* \"#utility.yul\":19585:19614   */\n      swap1\n      pop\n        /* \"#utility.yul\":19325:19620   */\n      swap3\n      swap2\n      pop\n      pop\n      jump\t// out\n        /* \"#utility.yul\":19625:21020   */\n    tag_85:\n        /* \"#utility.yul\":19742:19779   */\n      tag_358\n        /* \"#utility.yul\":19775:19778   */\n      dup3\n        /* \"#utility.yul\":19742:19779   */\n      tag_112\n      jump\t// in\n    tag_358:\n        /* \"#utility.yul\":19844:19862   */\n      0xffffffffffffffff\n        /* \"#utility.yul\":19836:19842   */\n      dup2\n        /* \"#utility.yul\":19833:19863   */\n      gt\n        /* \"#utility.yul\":19830:19886   */\n      iszero\n      tag_359\n      jumpi\n        /* \"#utility.yul\":19866:19884   */\n      tag_360\n      tag_119\n      jump\t// in\n    tag_360:\n        /* \"#utility.yul\":19830:19886   */\n    tag_359:\n        /* \"#utility.yul\":19910:19948   */\n      tag_361\n        /* \"#utility.yul\":19942:19946   */\n      dup3\n        /* \"#utility.yul\":19936:19947   */\n      sload\n        /* \"#utility.yul\":19910:19948   */\n      tag_49\n      jump\t// in\n    tag_361:\n        /* \"#utility.yul\":19995:20062   */\n      tag_362\n        /* \"#utility.yul\":20055:20061   */\n      dup3\n        /* \"#utility.yul\":20047:20053   */\n      dup3\n        /* \"#utility.yul\":20041:20045   */\n      dup6\n        /* \"#utility.yul\":19995:20062   */\n      tag_158\n      jump\t// in\n    tag_362:\n        /* \"#utility.yul\":20089:20090   */\n      0x00\n        /* \"#utility.yul\":20113:20117   */\n      0x20\n        /* \"#utility.yul\":20100:20117   */\n      swap1\n      pop\n        /* \"#utility.yul\":20145:20147   */\n      0x1f\n        /* \"#utility.yul\":20137:20143   */\n      dup4\n        /* \"#utility.yul\":20134:20148   */\n      gt\n        /* \"#utility.yul\":20162:20163   */\n      0x01\n        /* \"#utility.yul\":20157:20775   */\n      dup2\n      eq\n      tag_364\n      jumpi\n        /* \"#utility.yul\":20819:20820   */\n      0x00\n        /* \"#utility.yul\":20836:20842   */\n      dup5\n        /* \"#utility.yul\":20833:20910   */\n      iszero\n      tag_365\n      jumpi\n        /* \"#utility.yul\":20885:20894   */\n      dup3\n        /* \"#utility.yul\":20880:20883   */\n      dup8\n        /* \"#utility.yul\":20876:20895   */\n      add\n        /* \"#utility.yul\":20870:20896   */\n      mload\n        /* \"#utility.yul\":20861:20896   */\n      swap1\n      pop\n        /* \"#utility.yul\":20833:20910   */\n    tag_365:\n        /* \"#utility.yul\":20936:21003   */\n      tag_366\n        /* \"#utility.yul\":20996:21002   */\n      dup6\n        /* \"#utility.yul\":20989:20994   */\n      dup3\n        /* \"#utility.yul\":20936:21003   */\n      tag_161\n      jump\t// in\n    tag_366:\n        /* \"#utility.yul\":20930:20934   */\n      dup7\n        /* \"#utility.yul\":20923:21004   */\n      sstore\n        /* \"#utility.yul\":20792:21014   */\n      pop\n        /* \"#utility.yul\":20127:21014   */\n      jump(tag_363)\n        /* \"#utility.yul\":20157:20775   */\n    tag_364:\n        /* \"#utility.yul\":20209:20213   */\n      0x1f\n        /* \"#utility.yul\":20205:20214   */\n      not\n        /* \"#utility.yul\":20197:20203   */\n      dup5\n        /* \"#utility.yul\":20193:20215   */\n      and\n        /* \"#utility.yul\":20243:20280   */\n      tag_367\n        /* \"#utility.yul\":20275:20279   */\n      dup7\n        /* \"#utility.yul\":20243:20280   */\n      tag_147\n      jump\t// in\n    tag_367:\n        /* \"#utility.yul\":20302:20303   */\n      0x00\n        /* \"#utility.yul\":20316:20524   */\n    tag_368:\n        /* \"#utility.yul\":20330:20337   */\n      dup3\n        /* \"#utility.yul\":20327:20328   */\n      dup2\n        /* \"#utility.yul\":20324:20338   */\n      lt\n        /* \"#utility.yul\":20316:20524   */\n      iszero\n      tag_370\n      jumpi\n        /* \"#utility.yul\":20409:20418   */\n      dup5\n        /* \"#utility.yul\":20404:20407   */\n      dup10\n        /* \"#utility.yul\":20400:20419   */\n      add\n        /* \"#utility.yul\":20394:20420   */\n      mload\n        /* \"#utility.yul\":20386:20392   */\n      dup3\n        /* \"#utility.yul\":20379:20421   */\n      sstore\n        /* \"#utility.yul\":20460:20461   */\n      0x01\n        /* \"#utility.yul\":20452:20458   */\n      dup3\n        /* \"#utility.yul\":20448:20462   */\n      add\n        /* \"#utility.yul\":20438:20462   */\n      swap2\n      pop\n        /* \"#utility.yul\":20507:20509   */\n      0x20\n        /* \"#utility.yul\":20496:20505   */\n      dup6\n        /* \"#utility.yul\":20492:20510   */\n      add\n        /* \"#utility.yul\":20479:20510   */\n      swap5\n      pop\n        /* \"#utility.yul\":20353:20357   */\n      0x20\n        /* \"#utility.yul\":20350:20351   */\n      dup2\n        /* \"#utility.yul\":20346:20358   */\n      add\n        /* \"#utility.yul\":20341:20358   */\n      swap1\n      pop\n        /* \"#utility.yul\":20316:20524   */\n      jump(tag_368)\n    tag_370:\n        /* \"#utility.yul\":20552:20558   */\n      dup7\n        /* \"#utility.yul\":20543:20550   */\n      dup4\n        /* \"#utility.yul\":20540:20559   */\n      lt\n        /* \"#utility.yul\":20537:20716   */\n      iszero\n      tag_371\n      jumpi\n        /* \"#utility.yul\":20610:20619   */\n      dup5\n        /* \"#utility.yul\":20605:20608   */\n      dup10\n        /* \"#utility.yul\":20601:20620   */\n      add\n        /* \"#utility.yul\":20595:20621   */\n      mload\n        /* \"#utility.yul\":20653:20701   */\n      tag_372\n        /* \"#utility.yul\":20695:20699   */\n      0x1f\n        /* \"#utility.yul\":20687:20693   */\n      dup10\n        /* \"#utility.yul\":20683:20700   */\n      and\n        /* \"#utility.yul\":20672:20681   */\n      dup3\n        /* \"#utility.yul\":20653:20701   */\n      tag_160\n      jump\t// in\n    tag_372:\n        /* \"#utility.yul\":20645:20651   */\n      dup4\n        /* \"#utility.yul\":20638:20702   */\n      sstore\n        /* \"#utility.yul\":20560:20716   */\n      pop\n        /* \"#utility.yul\":20537:20716   */\n    tag_371:\n        /* \"#utility.yul\":20762:20763   */\n      0x01\n        /* \"#utility.yul\":20758:20759   */\n      0x02\n        /* \"#utility.yul\":20750:20756   */\n      dup9\n        /* \"#utility.yul\":20746:20760   */\n      mul\n        /* \"#utility.yul\":20742:20764   */\n      add\n        /* \"#utility.yul\":20736:20740   */\n      dup9\n        /* \"#utility.yul\":20729:20765   */\n      sstore\n        /* \"#utility.yul\":20164:20775   */\n      pop\n      pop\n      pop\n        /* \"#utility.yul\":20127:21014   */\n    tag_363:\n      pop\n        /* \"#utility.yul\":19717:21020   */\n      pop\n      pop\n      pop\n        /* \"#utility.yul\":19625:21020   */\n      pop\n      pop\n      jump\t// out\n\n    auxdata: 0xa2646970667358221220eb9ebf4f3f11f48502a8b808f3d1fb34e81b4ae02b2e484e606691cd53d9ec4564736f6c63430008110033\n}\n",
				"bytecode": {
					"linkReferences": {},
					"object": "608060405260008055600060015534801561001957600080fd5b506113a0806100296000396000f3fe6080604052600436106100705760003560e01c80633ccfd60b1161004e5780633ccfd60b1461011d5780634eda6f2a14610134578063e3d670d714610150578063f449c0b41461018d57610070565b80630ddd9ab11461007557806315f75dda146100b557806331dacf77146100f2575b600080fd5b34801561008157600080fd5b5061009c60048036038101906100979190610942565b6101ca565b6040516100ac9493929190610a21565b60405180910390f35b3480156100c157600080fd5b506100dc60048036038101906100d79190610a74565b610327565b6040516100e99190610aa1565b60405180910390f35b3480156100fe57600080fd5b50610107610370565b6040516101149190610aa1565b60405180910390f35b34801561012957600080fd5b5061013261038f565b005b61014e60048036038101906101499190610bf1565b610523565b005b34801561015c57600080fd5b5061017760048036038101906101729190610a74565b6106ac565b6040516101849190610aa1565b60405180910390f35b34801561019957600080fd5b506101b460048036038101906101af9190610a74565b6106c4565b6040516101c19190610e01565b60405180910390f35b600360205281600052604060002081815481106101e657600080fd5b90600052602060002090600402016000915091505080600001549080600101549080600201805461021690610e52565b80601f016020809104026020016040519081016040528092919081815260200182805461024290610e52565b801561028f5780601f106102645761010080835404028352916020019161028f565b820191906000526020600020905b81548152906001019060200180831161027257829003601f168201915b5050505050908060030180546102a490610e52565b80601f01602080910402602001604051908101604052809291908181526020018280546102d090610e52565b801561031d5780601f106102f25761010080835404028352916020019161031d565b820191906000526020600020905b81548152906001019060200180831161030057829003601f168201915b5050505050905084565b6000600260008373ffffffffffffffffffffffffffffffffffffffff1673ffffffffffffffffffffffffffffffffffffffff168152602001908152602001600020549050919050565b60003373ffffffffffffffffffffffffffffffffffffffff1631905090565b600260003373ffffffffffffffffffffffffffffffffffffffff1673ffffffffffffffffffffffffffffffffffffffff16815260200190815260200160002054600181905550600154600260003373ffffffffffffffffffffffffffffffffffffffff1673ffffffffffffffffffffffffffffffffffffffff16815260200190815260200160002060008282546104269190610eb2565b92505081905550600060015411610472576040517f08c379a000000000000000000000000000000000000000000000000000000000815260040161046990610f32565b60405180910390fd5b60003373ffffffffffffffffffffffffffffffffffffffff1660015460405161049a90610f83565b60006040518083038185875af1925050503d80600081146104d7576040519150601f19603f3d011682016040523d82523d6000602084013e6104dc565b606091505b5050905080610520576040517f08c379a000000000000000000000000000000000000000000000000000000000815260040161051790610fe4565b60405180910390fd5b50565b60003411610566576040517f08c379a000000000000000000000000000000000000000000000000000000000815260040161055d90611050565b60405180910390fd5b34600181905550600154600260008573ffffffffffffffffffffffffffffffffffffffff1673ffffffffffffffffffffffffffffffffffffffff16815260200190815260200160002060008282546105be9190611070565b92505081905550600360008473ffffffffffffffffffffffffffffffffffffffff1673ffffffffffffffffffffffffffffffffffffffff1681526020019081526020016000206040518060800160405280600080815480929190610621906110a4565b91905055815260200160015481526020018481526020018381525090806001815401808255809150506001900390600052602060002090600402016000909190919091506000820151816000015560208201518160010155604082015181600201908161068e9190611298565b5060608201518160030190816106a49190611298565b505050505050565b60026020528060005260406000206000915090505481565b6060600360008373ffffffffffffffffffffffffffffffffffffffff1673ffffffffffffffffffffffffffffffffffffffff168152602001908152602001600020805480602002602001604051908101604052809291908181526020016000905b8282101561088f5783829060005260206000209060040201604051806080016040529081600082015481526020016001820154815260200160028201805461076c90610e52565b80601f016020809104026020016040519081016040528092919081815260200182805461079890610e52565b80156107e55780601f106107ba576101008083540402835291602001916107e5565b820191906000526020600020905b8154815290600101906020018083116107c857829003601f168201915b505050505081526020016003820180546107fe90610e52565b80601f016020809104026020016040519081016040528092919081815260200182805461082a90610e52565b80156108775780601f1061084c57610100808354040283529160200191610877565b820191906000526020600020905b81548152906001019060200180831161085a57829003601f168201915b50505050508152505081526020019060010190610725565b505050509050919050565b6000604051905090565b600080fd5b600080fd5b600073ffffffffffffffffffffffffffffffffffffffff82169050919050565b60006108d9826108ae565b9050919050565b6108e9816108ce565b81146108f457600080fd5b50565b600081359050610906816108e0565b92915050565b6000819050919050565b61091f8161090c565b811461092a57600080fd5b50565b60008135905061093c81610916565b92915050565b60008060408385031215610959576109586108a4565b5b6000610967858286016108f7565b92505060206109788582860161092d565b9150509250929050565b61098b8161090c565b82525050565b600081519050919050565b600082825260208201905092915050565b60005b838110156109cb5780820151818401526020810190506109b0565b60008484015250505050565b6000601f19601f8301169050919050565b60006109f382610991565b6109fd818561099c565b9350610a0d8185602086016109ad565b610a16816109d7565b840191505092915050565b6000608082019050610a366000830187610982565b610a436020830186610982565b8181036040830152610a5581856109e8565b90508181036060830152610a6981846109e8565b905095945050505050565b600060208284031215610a8a57610a896108a4565b5b6000610a98848285016108f7565b91505092915050565b6000602082019050610ab66000830184610982565b92915050565b600080fd5b600080fd5b7f4e487b7100000000000000000000000000000000000000000000000000000000600052604160045260246000fd5b610afe826109d7565b810181811067ffffffffffffffff82111715610b1d57610b1c610ac6565b5b80604052505050565b6000610b3061089a565b9050610b3c8282610af5565b919050565b600067ffffffffffffffff821115610b5c57610b5b610ac6565b5b610b65826109d7565b9050602081019050919050565b82818337600083830152505050565b6000610b94610b8f84610b41565b610b26565b905082815260208101848484011115610bb057610baf610ac1565b5b610bbb848285610b72565b509392505050565b600082601f830112610bd857610bd7610abc565b5b8135610be8848260208601610b81565b91505092915050565b600080600060608486031215610c0a57610c096108a4565b5b6000610c18868287016108f7565b935050602084013567ffffffffffffffff811115610c3957610c386108a9565b5b610c4586828701610bc3565b925050604084013567ffffffffffffffff811115610c6657610c656108a9565b5b610c7286828701610bc3565b9150509250925092565b600081519050919050565b600082825260208201905092915050565b6000819050602082019050919050565b610cb18161090c565b82525050565b600082825260208201905092915050565b6000610cd382610991565b610cdd8185610cb7565b9350610ced8185602086016109ad565b610cf6816109d7565b840191505092915050565b6000608083016000830151610d196000860182610ca8565b506020830151610d2c6020860182610ca8565b5060408301518482036040860152610d448282610cc8565b91505060608301518482036060860152610d5e8282610cc8565b9150508091505092915050565b6000610d778383610d01565b905092915050565b6000602082019050919050565b6000610d9782610c7c565b610da18185610c87565b935083602082028501610db385610c98565b8060005b85811015610def5784840389528151610dd08582610d6b565b9450610ddb83610d7f565b925060208a01995050600181019050610db7565b50829750879550505050505092915050565b60006020820190508181036000830152610e1b8184610d8c565b905092915050565b7f4e487b7100000000000000000000000000000000000000000000000000000000600052602260045260246000fd5b60006002820490506001821680610e6a57607f821691505b602082108103610e7d57610e7c610e23565b5b50919050565b7f4e487b7100000000000000000000000000000000000000000000000000000000600052601160045260246000fd5b6000610ebd8261090c565b9150610ec88361090c565b9250828203905081811115610ee057610edf610e83565b5b92915050565b7f766f7472652062616c616e636520657374203000000000000000000000000000600082015250565b6000610f1c60138361099c565b9150610f2782610ee6565b602082019050919050565b60006020820190508181036000830152610f4b81610f0f565b9050919050565b600081905092915050565b50565b6000610f6d600083610f52565b9150610f7882610f5d565b600082019050919050565b6000610f8e82610f60565b9150819050919050565b7f6c61207472616e73616374696f6e2061206563686f7565000000000000000000600082015250565b6000610fce60178361099c565b9150610fd982610f98565b602082019050919050565b60006020820190508181036000830152610ffd81610fc1565b9050919050565b7f6c65206465706f7420657374206e756c00000000000000000000000000000000600082015250565b600061103a60108361099c565b915061104582611004565b602082019050919050565b600060208201905081810360008301526110698161102d565b9050919050565b600061107b8261090c565b91506110868361090c565b925082820190508082111561109e5761109d610e83565b5b92915050565b60006110af8261090c565b91507fffffffffffffffffffffffffffffffffffffffffffffffffffffffffffffffff82036110e1576110e0610e83565b5b600182019050919050565b60008190508160005260206000209050919050565b60006020601f8301049050919050565b600082821b905092915050565b60006008830261114e7fffffffffffffffffffffffffffffffffffffffffffffffffffffffffffffffff82611111565b6111588683611111565b95508019841693508086168417925050509392505050565b6000819050919050565b600061119561119061118b8461090c565b611170565b61090c565b9050919050565b6000819050919050565b6111af8361117a565b6111c36111bb8261119c565b84845461111e565b825550505050565b600090565b6111d86111cb565b6111e38184846111a6565b505050565b5b81811015611207576111fc6000826111d0565b6001810190506111e9565b5050565b601f82111561124c5761121d816110ec565b61122684611101565b81016020851015611235578190505b61124961124185611101565b8301826111e8565b50505b505050565b600082821c905092915050565b600061126f60001984600802611251565b1980831691505092915050565b6000611288838361125e565b9150826002028217905092915050565b6112a182610991565b67ffffffffffffffff8111156112ba576112b9610ac6565b5b6112c48254610e52565b6112cf82828561120b565b600060209050601f83116001811461130257600084156112f0578287015190505b6112fa858261127c565b865550611362565b601f198416611310866110ec565b60005b8281101561133857848901518255600182019150602085019450602081019050611313565b868310156113555784890151611351601f89168261125e565b8355505b6001600288020188555050505b50505050505056fea2646970667358221220eb9ebf4f3f11f48502a8b808f3d1fb34e81b4ae02b2e484e606691cd53d9ec4564736f6c63430008110033",
					"opcodes": "PUSH1 0x80 PUSH1 0x40 MSTORE PUSH1 0x0 DUP1 SSTORE PUSH1 0x0 PUSH1 0x1 SSTORE CALLVALUE DUP1 ISZERO PUSH2 0x19 JUMPI PUSH1 0x0 DUP1 REVERT JUMPDEST POP PUSH2 0x13A0 DUP1 PUSH2 0x29 PUSH1 0x0 CODECOPY PUSH1 0x0 RETURN INVALID PUSH1 0x80 PUSH1 0x40 MSTORE PUSH1 0x4 CALLDATASIZE LT PUSH2 0x70 JUMPI PUSH1 0x0 CALLDATALOAD PUSH1 0xE0 SHR DUP1 PUSH4 0x3CCFD60B GT PUSH2 0x4E JUMPI DUP1 PUSH4 0x3CCFD60B EQ PUSH2 0x11D JUMPI DUP1 PUSH4 0x4EDA6F2A EQ PUSH2 0x134 JUMPI DUP1 PUSH4 0xE3D670D7 EQ PUSH2 0x150 JUMPI DUP1 PUSH4 0xF449C0B4 EQ PUSH2 0x18D JUMPI PUSH2 0x70 JUMP JUMPDEST DUP1 PUSH4 0xDDD9AB1 EQ PUSH2 0x75 JUMPI DUP1 PUSH4 0x15F75DDA EQ PUSH2 0xB5 JUMPI DUP1 PUSH4 0x31DACF77 EQ PUSH2 0xF2 JUMPI JUMPDEST PUSH1 0x0 DUP1 REVERT JUMPDEST CALLVALUE DUP1 ISZERO PUSH2 0x81 JUMPI PUSH1 0x0 DUP1 REVERT JUMPDEST POP PUSH2 0x9C PUSH1 0x4 DUP1 CALLDATASIZE SUB DUP2 ADD SWAP1 PUSH2 0x97 SWAP2 SWAP1 PUSH2 0x942 JUMP JUMPDEST PUSH2 0x1CA JUMP JUMPDEST PUSH1 0x40 MLOAD PUSH2 0xAC SWAP5 SWAP4 SWAP3 SWAP2 SWAP1 PUSH2 0xA21 JUMP JUMPDEST PUSH1 0x40 MLOAD DUP1 SWAP2 SUB SWAP1 RETURN JUMPDEST CALLVALUE DUP1 ISZERO PUSH2 0xC1 JUMPI PUSH1 0x0 DUP1 REVERT JUMPDEST POP PUSH2 0xDC PUSH1 0x4 DUP1 CALLDATASIZE SUB DUP2 ADD SWAP1 PUSH2 0xD7 SWAP2 SWAP1 PUSH2 0xA74 JUMP JUMPDEST PUSH2 0x327 JUMP JUMPDEST PUSH1 0x40 MLOAD PUSH2 0xE9 SWAP2 SWAP1 PUSH2 0xAA1 JUMP JUMPDEST PUSH1 0x40 MLOAD DUP1 SWAP2 SUB SWAP1 RETURN JUMPDEST CALLVALUE DUP1 ISZERO PUSH2 0xFE JUMPI PUSH1 0x0 DUP1 REVERT JUMPDEST POP PUSH2 0x107 PUSH2 0x370 JUMP JUMPDEST PUSH1 0x40 MLOAD PUSH2 0x114 SWAP2 SWAP1 PUSH2 0xAA1 JUMP JUMPDEST PUSH1 0x40 MLOAD DUP1 SWAP2 SUB SWAP1 RETURN JUMPDEST CALLVALUE DUP1 ISZERO PUSH2 0x129 JUMPI PUSH1 0x0 DUP1 REVERT JUMPDEST POP PUSH2 0x132 PUSH2 0x38F JUMP JUMPDEST STOP JUMPDEST PUSH2 0x14E PUSH1 0x4 DUP1 CALLDATASIZE SUB DUP2 ADD SWAP1 PUSH2 0x149 SWAP2 SWAP1 PUSH2 0xBF1 JUMP JUMPDEST PUSH2 0x523 JUMP JUMPDEST STOP JUMPDEST CALLVALUE DUP1 ISZERO PUSH2 0x15C JUMPI PUSH1 0x0 DUP1 REVERT JUMPDEST POP PUSH2 0x177 PUSH1 0x4 DUP1 CALLDATASIZE SUB DUP2 ADD SWAP1 PUSH2 0x172 SWAP2 SWAP1 PUSH2 0xA74 JUMP JUMPDEST PUSH2 0x6AC JUMP JUMPDEST PUSH1 0x40 MLOAD PUSH2 0x184 SWAP2 SWAP1 PUSH2 0xAA1 JUMP JUMPDEST PUSH1 0x40 MLOAD DUP1 SWAP2 SUB SWAP1 RETURN JUMPDEST CALLVALUE DUP1 ISZERO PUSH2 0x199 JUMPI PUSH1 0x0 DUP1 REVERT JUMPDEST POP PUSH2 0x1B4 PUSH1 0x4 DUP1 CALLDATASIZE SUB DUP2 ADD SWAP1 PUSH2 0x1AF SWAP2 SWAP1 PUSH2 0xA74 JUMP JUMPDEST PUSH2 0x6C4 JUMP JUMPDEST PUSH1 0x40 MLOAD PUSH2 0x1C1 SWAP2 SWAP1 PUSH2 0xE01 JUMP JUMPDEST PUSH1 0x40 MLOAD DUP1 SWAP2 SUB SWAP1 RETURN JUMPDEST PUSH1 0x3 PUSH1 0x20 MSTORE DUP2 PUSH1 0x0 MSTORE PUSH1 0x40 PUSH1 0x0 KECCAK256 DUP2 DUP2 SLOAD DUP2 LT PUSH2 0x1E6 JUMPI PUSH1 0x0 DUP1 REVERT JUMPDEST SWAP1 PUSH1 0x0 MSTORE PUSH1 0x20 PUSH1 0x0 KECCAK256 SWAP1 PUSH1 0x4 MUL ADD PUSH1 0x0 SWAP2 POP SWAP2 POP POP DUP1 PUSH1 0x0 ADD SLOAD SWAP1 DUP1 PUSH1 0x1 ADD SLOAD SWAP1 DUP1 PUSH1 0x2 ADD DUP1 SLOAD PUSH2 0x216 SWAP1 PUSH2 0xE52 JUMP JUMPDEST DUP1 PUSH1 0x1F ADD PUSH1 0x20 DUP1 SWAP2 DIV MUL PUSH1 0x20 ADD PUSH1 0x40 MLOAD SWAP1 DUP2 ADD PUSH1 0x40 MSTORE DUP1 SWAP3 SWAP2 SWAP1 DUP2 DUP2 MSTORE PUSH1 0x20 ADD DUP3 DUP1 SLOAD PUSH2 0x242 SWAP1 PUSH2 0xE52 JUMP JUMPDEST DUP1 ISZERO PUSH2 0x28F JUMPI DUP1 PUSH1 0x1F LT PUSH2 0x264 JUMPI PUSH2 0x100 DUP1 DUP4 SLOAD DIV MUL DUP4 MSTORE SWAP2 PUSH1 0x20 ADD SWAP2 PUSH2 0x28F JUMP JUMPDEST DUP3 ADD SWAP2 SWAP1 PUSH1 0x0 MSTORE PUSH1 0x20 PUSH1 0x0 KECCAK256 SWAP1 JUMPDEST DUP2 SLOAD DUP2 MSTORE SWAP1 PUSH1 0x1 ADD SWAP1 PUSH1 0x20 ADD DUP1 DUP4 GT PUSH2 0x272 JUMPI DUP3 SWAP1 SUB PUSH1 0x1F AND DUP3 ADD SWAP2 JUMPDEST POP POP POP POP POP SWAP1 DUP1 PUSH1 0x3 ADD DUP1 SLOAD PUSH2 0x2A4 SWAP1 PUSH2 0xE52 JUMP JUMPDEST DUP1 PUSH1 0x1F ADD PUSH1 0x20 DUP1 SWAP2 DIV MUL PUSH1 0x20 ADD PUSH1 0x40 MLOAD SWAP1 DUP2 ADD PUSH1 0x40 MSTORE DUP1 SWAP3 SWAP2 SWAP1 DUP2 DUP2 MSTORE PUSH1 0x20 ADD DUP3 DUP1 SLOAD PUSH2 0x2D0 SWAP1 PUSH2 0xE52 JUMP JUMPDEST DUP1 ISZERO PUSH2 0x31D JUMPI DUP1 PUSH1 0x1F LT PUSH2 0x2F2 JUMPI PUSH2 0x100 DUP1 DUP4 SLOAD DIV MUL DUP4 MSTORE SWAP2 PUSH1 0x20 ADD SWAP2 PUSH2 0x31D JUMP JUMPDEST DUP3 ADD SWAP2 SWAP1 PUSH1 0x0 MSTORE PUSH1 0x20 PUSH1 0x0 KECCAK256 SWAP1 JUMPDEST DUP2 SLOAD DUP2 MSTORE SWAP1 PUSH1 0x1 ADD SWAP1 PUSH1 0x20 ADD DUP1 DUP4 GT PUSH2 0x300 JUMPI DUP3 SWAP1 SUB PUSH1 0x1F AND DUP3 ADD SWAP2 JUMPDEST POP POP POP POP POP SWAP1 POP DUP5 JUMP JUMPDEST PUSH1 0x0 PUSH1 0x2 PUSH1 0x0 DUP4 PUSH20 0xFFFFFFFFFFFFFFFFFFFFFFFFFFFFFFFFFFFFFFFF AND PUSH20 0xFFFFFFFFFFFFFFFFFFFFFFFFFFFFFFFFFFFFFFFF AND DUP2 MSTORE PUSH1 0x20 ADD SWAP1 DUP2 MSTORE PUSH1 0x20 ADD PUSH1 0x0 KECCAK256 SLOAD SWAP1 POP SWAP2 SWAP1 POP JUMP JUMPDEST PUSH1 0x0 CALLER PUSH20 0xFFFFFFFFFFFFFFFFFFFFFFFFFFFFFFFFFFFFFFFF AND BALANCE SWAP1 POP SWAP1 JUMP JUMPDEST PUSH1 0x2 PUSH1 0x0 CALLER PUSH20 0xFFFFFFFFFFFFFFFFFFFFFFFFFFFFFFFFFFFFFFFF AND PUSH20 0xFFFFFFFFFFFFFFFFFFFFFFFFFFFFFFFFFFFFFFFF AND DUP2 MSTORE PUSH1 0x20 ADD SWAP1 DUP2 MSTORE PUSH1 0x20 ADD PUSH1 0x0 KECCAK256 SLOAD PUSH1 0x1 DUP2 SWAP1 SSTORE POP PUSH1 0x1 SLOAD PUSH1 0x2 PUSH1 0x0 CALLER PUSH20 0xFFFFFFFFFFFFFFFFFFFFFFFFFFFFFFFFFFFFFFFF AND PUSH20 0xFFFFFFFFFFFFFFFFFFFFFFFFFFFFFFFFFFFFFFFF AND DUP2 MSTORE PUSH1 0x20 ADD SWAP1 DUP2 MSTORE PUSH1 0x20 ADD PUSH1 0x0 KECCAK256 PUSH1 0x0 DUP3 DUP3 SLOAD PUSH2 0x426 SWAP2 SWAP1 PUSH2 0xEB2 JUMP JUMPDEST SWAP3 POP POP DUP2 SWAP1 SSTORE POP PUSH1 0x0 PUSH1 0x1 SLOAD GT PUSH2 0x472 JUMPI PUSH1 0x40 MLOAD PUSH32 0x8C379A000000000000000000000000000000000000000000000000000000000 DUP2 MSTORE PUSH1 0x4 ADD PUSH2 0x469 SWAP1 PUSH2 0xF32 JUMP JUMPDEST PUSH1 0x40 MLOAD DUP1 SWAP2 SUB SWAP1 REVERT JUMPDEST PUSH1 0x0 CALLER PUSH20 0xFFFFFFFFFFFFFFFFFFFFFFFFFFFFFFFFFFFFFFFF AND PUSH1 0x1 SLOAD PUSH1 0x40 MLOAD PUSH2 0x49A SWAP1 PUSH2 0xF83 JUMP JUMPDEST PUSH1 0x0 PUSH1 0x40 MLOAD DUP1 DUP4 SUB DUP2 DUP6 DUP8 GAS CALL SWAP3 POP POP POP RETURNDATASIZE DUP1 PUSH1 0x0 DUP2 EQ PUSH2 0x4D7 JUMPI PUSH1 0x40 MLOAD SWAP2 POP PUSH1 0x1F NOT PUSH1 0x3F RETURNDATASIZE ADD AND DUP3 ADD PUSH1 0x40 MSTORE RETURNDATASIZE DUP3 MSTORE RETURNDATASIZE PUSH1 0x0 PUSH1 0x20 DUP5 ADD RETURNDATACOPY PUSH2 0x4DC JUMP JUMPDEST PUSH1 0x60 SWAP2 POP JUMPDEST POP POP SWAP1 POP DUP1 PUSH2 0x520 JUMPI PUSH1 0x40 MLOAD PUSH32 0x8C379A000000000000000000000000000000000000000000000000000000000 DUP2 MSTORE PUSH1 0x4 ADD PUSH2 0x517 SWAP1 PUSH2 0xFE4 JUMP JUMPDEST PUSH1 0x40 MLOAD DUP1 SWAP2 SUB SWAP1 REVERT JUMPDEST POP JUMP JUMPDEST PUSH1 0x0 CALLVALUE GT PUSH2 0x566 JUMPI PUSH1 0x40 MLOAD PUSH32 0x8C379A000000000000000000000000000000000000000000000000000000000 DUP2 MSTORE PUSH1 0x4 ADD PUSH2 0x55D SWAP1 PUSH2 0x1050 JUMP JUMPDEST PUSH1 0x40 MLOAD DUP1 SWAP2 SUB SWAP1 REVERT JUMPDEST CALLVALUE PUSH1 0x1 DUP2 SWAP1 SSTORE POP PUSH1 0x1 SLOAD PUSH1 0x2 PUSH1 0x0 DUP6 PUSH20 0xFFFFFFFFFFFFFFFFFFFFFFFFFFFFFFFFFFFFFFFF AND PUSH20 0xFFFFFFFFFFFFFFFFFFFFFFFFFFFFFFFFFFFFFFFF AND DUP2 MSTORE PUSH1 0x20 ADD SWAP1 DUP2 MSTORE PUSH1 0x20 ADD PUSH1 0x0 KECCAK256 PUSH1 0x0 DUP3 DUP3 SLOAD PUSH2 0x5BE SWAP2 SWAP1 PUSH2 0x1070 JUMP JUMPDEST SWAP3 POP POP DUP2 SWAP1 SSTORE POP PUSH1 0x3 PUSH1 0x0 DUP5 PUSH20 0xFFFFFFFFFFFFFFFFFFFFFFFFFFFFFFFFFFFFFFFF AND PUSH20 0xFFFFFFFFFFFFFFFFFFFFFFFFFFFFFFFFFFFFFFFF AND DUP2 MSTORE PUSH1 0x20 ADD SWAP1 DUP2 MSTORE PUSH1 0x20 ADD PUSH1 0x0 KECCAK256 PUSH1 0x40 MLOAD DUP1 PUSH1 0x80 ADD PUSH1 0x40 MSTORE DUP1 PUSH1 0x0 DUP1 DUP2 SLOAD DUP1 SWAP3 SWAP2 SWAP1 PUSH2 0x621 SWAP1 PUSH2 0x10A4 JUMP JUMPDEST SWAP2 SWAP1 POP SSTORE DUP2 MSTORE PUSH1 0x20 ADD PUSH1 0x1 SLOAD DUP2 MSTORE PUSH1 0x20 ADD DUP5 DUP2 MSTORE PUSH1 0x20 ADD DUP4 DUP2 MSTORE POP SWAP1 DUP1 PUSH1 0x1 DUP2 SLOAD ADD DUP1 DUP3 SSTORE DUP1 SWAP2 POP POP PUSH1 0x1 SWAP1 SUB SWAP1 PUSH1 0x0 MSTORE PUSH1 0x20 PUSH1 0x0 KECCAK256 SWAP1 PUSH1 0x4 MUL ADD PUSH1 0x0 SWAP1 SWAP2 SWAP1 SWAP2 SWAP1 SWAP2 POP PUSH1 0x0 DUP3 ADD MLOAD DUP2 PUSH1 0x0 ADD SSTORE PUSH1 0x20 DUP3 ADD MLOAD DUP2 PUSH1 0x1 ADD SSTORE PUSH1 0x40 DUP3 ADD MLOAD DUP2 PUSH1 0x2 ADD SWAP1 DUP2 PUSH2 0x68E SWAP2 SWAP1 PUSH2 0x1298 JUMP JUMPDEST POP PUSH1 0x60 DUP3 ADD MLOAD DUP2 PUSH1 0x3 ADD SWAP1 DUP2 PUSH2 0x6A4 SWAP2 SWAP1 PUSH2 0x1298 JUMP JUMPDEST POP POP POP POP POP POP JUMP JUMPDEST PUSH1 0x2 PUSH1 0x20 MSTORE DUP1 PUSH1 0x0 MSTORE PUSH1 0x40 PUSH1 0x0 KECCAK256 PUSH1 0x0 SWAP2 POP SWAP1 POP SLOAD DUP2 JUMP JUMPDEST PUSH1 0x60 PUSH1 0x3 PUSH1 0x0 DUP4 PUSH20 0xFFFFFFFFFFFFFFFFFFFFFFFFFFFFFFFFFFFFFFFF AND PUSH20 0xFFFFFFFFFFFFFFFFFFFFFFFFFFFFFFFFFFFFFFFF AND DUP2 MSTORE PUSH1 0x20 ADD SWAP1 DUP2 MSTORE PUSH1 0x20 ADD PUSH1 0x0 KECCAK256 DUP1 SLOAD DUP1 PUSH1 0x20 MUL PUSH1 0x20 ADD PUSH1 0x40 MLOAD SWAP1 DUP2 ADD PUSH1 0x40 MSTORE DUP1 SWAP3 SWAP2 SWAP1 DUP2 DUP2 MSTORE PUSH1 0x20 ADD PUSH1 0x0 SWAP1 JUMPDEST DUP3 DUP3 LT ISZERO PUSH2 0x88F JUMPI DUP4 DUP3 SWAP1 PUSH1 0x0 MSTORE PUSH1 0x20 PUSH1 0x0 KECCAK256 SWAP1 PUSH1 0x4 MUL ADD PUSH1 0x40 MLOAD DUP1 PUSH1 0x80 ADD PUSH1 0x40 MSTORE SWAP1 DUP2 PUSH1 0x0 DUP3 ADD SLOAD DUP2 MSTORE PUSH1 0x20 ADD PUSH1 0x1 DUP3 ADD SLOAD DUP2 MSTORE PUSH1 0x20 ADD PUSH1 0x2 DUP3 ADD DUP1 SLOAD PUSH2 0x76C SWAP1 PUSH2 0xE52 JUMP JUMPDEST DUP1 PUSH1 0x1F ADD PUSH1 0x20 DUP1 SWAP2 DIV MUL PUSH1 0x20 ADD PUSH1 0x40 MLOAD SWAP1 DUP2 ADD PUSH1 0x40 MSTORE DUP1 SWAP3 SWAP2 SWAP1 DUP2 DUP2 MSTORE PUSH1 0x20 ADD DUP3 DUP1 SLOAD PUSH2 0x798 SWAP1 PUSH2 0xE52 JUMP JUMPDEST DUP1 ISZERO PUSH2 0x7E5 JUMPI DUP1 PUSH1 0x1F LT PUSH2 0x7BA JUMPI PUSH2 0x100 DUP1 DUP4 SLOAD DIV MUL DUP4 MSTORE SWAP2 PUSH1 0x20 ADD SWAP2 PUSH2 0x7E5 JUMP JUMPDEST DUP3 ADD SWAP2 SWAP1 PUSH1 0x0 MSTORE PUSH1 0x20 PUSH1 0x0 KECCAK256 SWAP1 JUMPDEST DUP2 SLOAD DUP2 MSTORE SWAP1 PUSH1 0x1 ADD SWAP1 PUSH1 0x20 ADD DUP1 DUP4 GT PUSH2 0x7C8 JUMPI DUP3 SWAP1 SUB PUSH1 0x1F AND DUP3 ADD SWAP2 JUMPDEST POP POP POP POP POP DUP2 MSTORE PUSH1 0x20 ADD PUSH1 0x3 DUP3 ADD DUP1 SLOAD PUSH2 0x7FE SWAP1 PUSH2 0xE52 JUMP JUMPDEST DUP1 PUSH1 0x1F ADD PUSH1 0x20 DUP1 SWAP2 DIV MUL PUSH1 0x20 ADD PUSH1 0x40 MLOAD SWAP1 DUP2 ADD PUSH1 0x40 MSTORE DUP1 SWAP3 SWAP2 SWAP1 DUP2 DUP2 MSTORE PUSH1 0x20 ADD DUP3 DUP1 SLOAD PUSH2 0x82A SWAP1 PUSH2 0xE52 JUMP JUMPDEST DUP1 ISZERO PUSH2 0x877 JUMPI DUP1 PUSH1 0x1F LT PUSH2 0x84C JUMPI PUSH2 0x100 DUP1 DUP4 SLOAD DIV MUL DUP4 MSTORE SWAP2 PUSH1 0x20 ADD SWAP2 PUSH2 0x877 JUMP JUMPDEST DUP3 ADD SWAP2 SWAP1 PUSH1 0x0 MSTORE PUSH1 0x20 PUSH1 0x0 KECCAK256 SWAP1 JUMPDEST DUP2 SLOAD DUP2 MSTORE SWAP1 PUSH1 0x1 ADD SWAP1 PUSH1 0x20 ADD DUP1 DUP4 GT PUSH2 0x85A JUMPI DUP3 SWAP1 SUB PUSH1 0x1F AND DUP3 ADD SWAP2 JUMPDEST POP POP POP POP POP DUP2 MSTORE POP POP DUP2 MSTORE PUSH1 0x20 ADD SWAP1 PUSH1 0x1 ADD SWAP1 PUSH2 0x725 JUMP JUMPDEST POP POP POP POP SWAP1 POP SWAP2 SWAP1 POP JUMP JUMPDEST PUSH1 0x0 PUSH1 0x40 MLOAD SWAP1 POP SWAP1 JUMP JUMPDEST PUSH1 0x0 DUP1 REVERT JUMPDEST PUSH1 0x0 DUP1 REVERT JUMPDEST PUSH1 0x0 PUSH20 0xFFFFFFFFFFFFFFFFFFFFFFFFFFFFFFFFFFFFFFFF DUP3 AND SWAP1 POP SWAP2 SWAP1 POP JUMP JUMPDEST PUSH1 0x0 PUSH2 0x8D9 DUP3 PUSH2 0x8AE JUMP JUMPDEST SWAP1 POP SWAP2 SWAP1 POP JUMP JUMPDEST PUSH2 0x8E9 DUP2 PUSH2 0x8CE JUMP JUMPDEST DUP2 EQ PUSH2 0x8F4 JUMPI PUSH1 0x0 DUP1 REVERT JUMPDEST POP JUMP JUMPDEST PUSH1 0x0 DUP2 CALLDATALOAD SWAP1 POP PUSH2 0x906 DUP2 PUSH2 0x8E0 JUMP JUMPDEST SWAP3 SWAP2 POP POP JUMP JUMPDEST PUSH1 0x0 DUP2 SWAP1 POP SWAP2 SWAP1 POP JUMP JUMPDEST PUSH2 0x91F DUP2 PUSH2 0x90C JUMP JUMPDEST DUP2 EQ PUSH2 0x92A JUMPI PUSH1 0x0 DUP1 REVERT JUMPDEST POP JUMP JUMPDEST PUSH1 0x0 DUP2 CALLDATALOAD SWAP1 POP PUSH2 0x93C DUP2 PUSH2 0x916 JUMP JUMPDEST SWAP3 SWAP2 POP POP JUMP JUMPDEST PUSH1 0x0 DUP1 PUSH1 0x40 DUP4 DUP6 SUB SLT ISZERO PUSH2 0x959 JUMPI PUSH2 0x958 PUSH2 0x8A4 JUMP JUMPDEST JUMPDEST PUSH1 0x0 PUSH2 0x967 DUP6 DUP3 DUP7 ADD PUSH2 0x8F7 JUMP JUMPDEST SWAP3 POP POP PUSH1 0x20 PUSH2 0x978 DUP6 DUP3 DUP7 ADD PUSH2 0x92D JUMP JUMPDEST SWAP2 POP POP SWAP3 POP SWAP3 SWAP1 POP JUMP JUMPDEST PUSH2 0x98B DUP2 PUSH2 0x90C JUMP JUMPDEST DUP3 MSTORE POP POP JUMP JUMPDEST PUSH1 0x0 DUP2 MLOAD SWAP1 POP SWAP2 SWAP1 POP JUMP JUMPDEST PUSH1 0x0 DUP3 DUP3 MSTORE PUSH1 0x20 DUP3 ADD SWAP1 POP SWAP3 SWAP2 POP POP JUMP JUMPDEST PUSH1 0x0 JUMPDEST DUP4 DUP2 LT ISZERO PUSH2 0x9CB JUMPI DUP1 DUP3 ADD MLOAD DUP2 DUP5 ADD MSTORE PUSH1 0x20 DUP2 ADD SWAP1 POP PUSH2 0x9B0 JUMP JUMPDEST PUSH1 0x0 DUP5 DUP5 ADD MSTORE POP POP POP POP JUMP JUMPDEST PUSH1 0x0 PUSH1 0x1F NOT PUSH1 0x1F DUP4 ADD AND SWAP1 POP SWAP2 SWAP1 POP JUMP JUMPDEST PUSH1 0x0 PUSH2 0x9F3 DUP3 PUSH2 0x991 JUMP JUMPDEST PUSH2 0x9FD DUP2 DUP6 PUSH2 0x99C JUMP JUMPDEST SWAP4 POP PUSH2 0xA0D DUP2 DUP6 PUSH1 0x20 DUP7 ADD PUSH2 0x9AD JUMP JUMPDEST PUSH2 0xA16 DUP2 PUSH2 0x9D7 JUMP JUMPDEST DUP5 ADD SWAP2 POP POP SWAP3 SWAP2 POP POP JUMP JUMPDEST PUSH1 0x0 PUSH1 0x80 DUP3 ADD SWAP1 POP PUSH2 0xA36 PUSH1 0x0 DUP4 ADD DUP8 PUSH2 0x982 JUMP JUMPDEST PUSH2 0xA43 PUSH1 0x20 DUP4 ADD DUP7 PUSH2 0x982 JUMP JUMPDEST DUP2 DUP2 SUB PUSH1 0x40 DUP4 ADD MSTORE PUSH2 0xA55 DUP2 DUP6 PUSH2 0x9E8 JUMP JUMPDEST SWAP1 POP DUP2 DUP2 SUB PUSH1 0x60 DUP4 ADD MSTORE PUSH2 0xA69 DUP2 DUP5 PUSH2 0x9E8 JUMP JUMPDEST SWAP1 POP SWAP6 SWAP5 POP POP POP POP POP JUMP JUMPDEST PUSH1 0x0 PUSH1 0x20 DUP3 DUP5 SUB SLT ISZERO PUSH2 0xA8A JUMPI PUSH2 0xA89 PUSH2 0x8A4 JUMP JUMPDEST JUMPDEST PUSH1 0x0 PUSH2 0xA98 DUP5 DUP3 DUP6 ADD PUSH2 0x8F7 JUMP JUMPDEST SWAP2 POP POP SWAP3 SWAP2 POP POP JUMP JUMPDEST PUSH1 0x0 PUSH1 0x20 DUP3 ADD SWAP1 POP PUSH2 0xAB6 PUSH1 0x0 DUP4 ADD DUP5 PUSH2 0x982 JUMP JUMPDEST SWAP3 SWAP2 POP POP JUMP JUMPDEST PUSH1 0x0 DUP1 REVERT JUMPDEST PUSH1 0x0 DUP1 REVERT JUMPDEST PUSH32 0x4E487B7100000000000000000000000000000000000000000000000000000000 PUSH1 0x0 MSTORE PUSH1 0x41 PUSH1 0x4 MSTORE PUSH1 0x24 PUSH1 0x0 REVERT JUMPDEST PUSH2 0xAFE DUP3 PUSH2 0x9D7 JUMP JUMPDEST DUP2 ADD DUP2 DUP2 LT PUSH8 0xFFFFFFFFFFFFFFFF DUP3 GT OR ISZERO PUSH2 0xB1D JUMPI PUSH2 0xB1C PUSH2 0xAC6 JUMP JUMPDEST JUMPDEST DUP1 PUSH1 0x40 MSTORE POP POP POP JUMP JUMPDEST PUSH1 0x0 PUSH2 0xB30 PUSH2 0x89A JUMP JUMPDEST SWAP1 POP PUSH2 0xB3C DUP3 DUP3 PUSH2 0xAF5 JUMP JUMPDEST SWAP2 SWAP1 POP JUMP JUMPDEST PUSH1 0x0 PUSH8 0xFFFFFFFFFFFFFFFF DUP3 GT ISZERO PUSH2 0xB5C JUMPI PUSH2 0xB5B PUSH2 0xAC6 JUMP JUMPDEST JUMPDEST PUSH2 0xB65 DUP3 PUSH2 0x9D7 JUMP JUMPDEST SWAP1 POP PUSH1 0x20 DUP2 ADD SWAP1 POP SWAP2 SWAP1 POP JUMP JUMPDEST DUP3 DUP2 DUP4 CALLDATACOPY PUSH1 0x0 DUP4 DUP4 ADD MSTORE POP POP POP JUMP JUMPDEST PUSH1 0x0 PUSH2 0xB94 PUSH2 0xB8F DUP5 PUSH2 0xB41 JUMP JUMPDEST PUSH2 0xB26 JUMP JUMPDEST SWAP1 POP DUP3 DUP2 MSTORE PUSH1 0x20 DUP2 ADD DUP5 DUP5 DUP5 ADD GT ISZERO PUSH2 0xBB0 JUMPI PUSH2 0xBAF PUSH2 0xAC1 JUMP JUMPDEST JUMPDEST PUSH2 0xBBB DUP5 DUP3 DUP6 PUSH2 0xB72 JUMP JUMPDEST POP SWAP4 SWAP3 POP POP POP JUMP JUMPDEST PUSH1 0x0 DUP3 PUSH1 0x1F DUP4 ADD SLT PUSH2 0xBD8 JUMPI PUSH2 0xBD7 PUSH2 0xABC JUMP JUMPDEST JUMPDEST DUP2 CALLDATALOAD PUSH2 0xBE8 DUP5 DUP3 PUSH1 0x20 DUP7 ADD PUSH2 0xB81 JUMP JUMPDEST SWAP2 POP POP SWAP3 SWAP2 POP POP JUMP JUMPDEST PUSH1 0x0 DUP1 PUSH1 0x0 PUSH1 0x60 DUP5 DUP7 SUB SLT ISZERO PUSH2 0xC0A JUMPI PUSH2 0xC09 PUSH2 0x8A4 JUMP JUMPDEST JUMPDEST PUSH1 0x0 PUSH2 0xC18 DUP7 DUP3 DUP8 ADD PUSH2 0x8F7 JUMP JUMPDEST SWAP4 POP POP PUSH1 0x20 DUP5 ADD CALLDATALOAD PUSH8 0xFFFFFFFFFFFFFFFF DUP2 GT ISZERO PUSH2 0xC39 JUMPI PUSH2 0xC38 PUSH2 0x8A9 JUMP JUMPDEST JUMPDEST PUSH2 0xC45 DUP7 DUP3 DUP8 ADD PUSH2 0xBC3 JUMP JUMPDEST SWAP3 POP POP PUSH1 0x40 DUP5 ADD CALLDATALOAD PUSH8 0xFFFFFFFFFFFFFFFF DUP2 GT ISZERO PUSH2 0xC66 JUMPI PUSH2 0xC65 PUSH2 0x8A9 JUMP JUMPDEST JUMPDEST PUSH2 0xC72 DUP7 DUP3 DUP8 ADD PUSH2 0xBC3 JUMP JUMPDEST SWAP2 POP POP SWAP3 POP SWAP3 POP SWAP3 JUMP JUMPDEST PUSH1 0x0 DUP2 MLOAD SWAP1 POP SWAP2 SWAP1 POP JUMP JUMPDEST PUSH1 0x0 DUP3 DUP3 MSTORE PUSH1 0x20 DUP3 ADD SWAP1 POP SWAP3 SWAP2 POP POP JUMP JUMPDEST PUSH1 0x0 DUP2 SWAP1 POP PUSH1 0x20 DUP3 ADD SWAP1 POP SWAP2 SWAP1 POP JUMP JUMPDEST PUSH2 0xCB1 DUP2 PUSH2 0x90C JUMP JUMPDEST DUP3 MSTORE POP POP JUMP JUMPDEST PUSH1 0x0 DUP3 DUP3 MSTORE PUSH1 0x20 DUP3 ADD SWAP1 POP SWAP3 SWAP2 POP POP JUMP JUMPDEST PUSH1 0x0 PUSH2 0xCD3 DUP3 PUSH2 0x991 JUMP JUMPDEST PUSH2 0xCDD DUP2 DUP6 PUSH2 0xCB7 JUMP JUMPDEST SWAP4 POP PUSH2 0xCED DUP2 DUP6 PUSH1 0x20 DUP7 ADD PUSH2 0x9AD JUMP JUMPDEST PUSH2 0xCF6 DUP2 PUSH2 0x9D7 JUMP JUMPDEST DUP5 ADD SWAP2 POP POP SWAP3 SWAP2 POP POP JUMP JUMPDEST PUSH1 0x0 PUSH1 0x80 DUP4 ADD PUSH1 0x0 DUP4 ADD MLOAD PUSH2 0xD19 PUSH1 0x0 DUP7 ADD DUP3 PUSH2 0xCA8 JUMP JUMPDEST POP PUSH1 0x20 DUP4 ADD MLOAD PUSH2 0xD2C PUSH1 0x20 DUP7 ADD DUP3 PUSH2 0xCA8 JUMP JUMPDEST POP PUSH1 0x40 DUP4 ADD MLOAD DUP5 DUP3 SUB PUSH1 0x40 DUP7 ADD MSTORE PUSH2 0xD44 DUP3 DUP3 PUSH2 0xCC8 JUMP JUMPDEST SWAP2 POP POP PUSH1 0x60 DUP4 ADD MLOAD DUP5 DUP3 SUB PUSH1 0x60 DUP7 ADD MSTORE PUSH2 0xD5E DUP3 DUP3 PUSH2 0xCC8 JUMP JUMPDEST SWAP2 POP POP DUP1 SWAP2 POP POP SWAP3 SWAP2 POP POP JUMP JUMPDEST PUSH1 0x0 PUSH2 0xD77 DUP4 DUP4 PUSH2 0xD01 JUMP JUMPDEST SWAP1 POP SWAP3 SWAP2 POP POP JUMP JUMPDEST PUSH1 0x0 PUSH1 0x20 DUP3 ADD SWAP1 POP SWAP2 SWAP1 POP JUMP JUMPDEST PUSH1 0x0 PUSH2 0xD97 DUP3 PUSH2 0xC7C JUMP JUMPDEST PUSH2 0xDA1 DUP2 DUP6 PUSH2 0xC87 JUMP JUMPDEST SWAP4 POP DUP4 PUSH1 0x20 DUP3 MUL DUP6 ADD PUSH2 0xDB3 DUP6 PUSH2 0xC98 JUMP JUMPDEST DUP1 PUSH1 0x0 JUMPDEST DUP6 DUP2 LT ISZERO PUSH2 0xDEF JUMPI DUP5 DUP5 SUB DUP10 MSTORE DUP2 MLOAD PUSH2 0xDD0 DUP6 DUP3 PUSH2 0xD6B JUMP JUMPDEST SWAP5 POP PUSH2 0xDDB DUP4 PUSH2 0xD7F JUMP JUMPDEST SWAP3 POP PUSH1 0x20 DUP11 ADD SWAP10 POP POP PUSH1 0x1 DUP2 ADD SWAP1 POP PUSH2 0xDB7 JUMP JUMPDEST POP DUP3 SWAP8 POP DUP8 SWAP6 POP POP POP POP POP POP SWAP3 SWAP2 POP POP JUMP JUMPDEST PUSH1 0x0 PUSH1 0x20 DUP3 ADD SWAP1 POP DUP2 DUP2 SUB PUSH1 0x0 DUP4 ADD MSTORE PUSH2 0xE1B DUP2 DUP5 PUSH2 0xD8C JUMP JUMPDEST SWAP1 POP SWAP3 SWAP2 POP POP JUMP JUMPDEST PUSH32 0x4E487B7100000000000000000000000000000000000000000000000000000000 PUSH1 0x0 MSTORE PUSH1 0x22 PUSH1 0x4 MSTORE PUSH1 0x24 PUSH1 0x0 REVERT JUMPDEST PUSH1 0x0 PUSH1 0x2 DUP3 DIV SWAP1 POP PUSH1 0x1 DUP3 AND DUP1 PUSH2 0xE6A JUMPI PUSH1 0x7F DUP3 AND SWAP2 POP JUMPDEST PUSH1 0x20 DUP3 LT DUP2 SUB PUSH2 0xE7D JUMPI PUSH2 0xE7C PUSH2 0xE23 JUMP JUMPDEST JUMPDEST POP SWAP2 SWAP1 POP JUMP JUMPDEST PUSH32 0x4E487B7100000000000000000000000000000000000000000000000000000000 PUSH1 0x0 MSTORE PUSH1 0x11 PUSH1 0x4 MSTORE PUSH1 0x24 PUSH1 0x0 REVERT JUMPDEST PUSH1 0x0 PUSH2 0xEBD DUP3 PUSH2 0x90C JUMP JUMPDEST SWAP2 POP PUSH2 0xEC8 DUP4 PUSH2 0x90C JUMP JUMPDEST SWAP3 POP DUP3 DUP3 SUB SWAP1 POP DUP2 DUP2 GT ISZERO PUSH2 0xEE0 JUMPI PUSH2 0xEDF PUSH2 0xE83 JUMP JUMPDEST JUMPDEST SWAP3 SWAP2 POP POP JUMP JUMPDEST PUSH32 0x766F7472652062616C616E636520657374203000000000000000000000000000 PUSH1 0x0 DUP3 ADD MSTORE POP JUMP JUMPDEST PUSH1 0x0 PUSH2 0xF1C PUSH1 0x13 DUP4 PUSH2 0x99C JUMP JUMPDEST SWAP2 POP PUSH2 0xF27 DUP3 PUSH2 0xEE6 JUMP JUMPDEST PUSH1 0x20 DUP3 ADD SWAP1 POP SWAP2 SWAP1 POP JUMP JUMPDEST PUSH1 0x0 PUSH1 0x20 DUP3 ADD SWAP1 POP DUP2 DUP2 SUB PUSH1 0x0 DUP4 ADD MSTORE PUSH2 0xF4B DUP2 PUSH2 0xF0F JUMP JUMPDEST SWAP1 POP SWAP2 SWAP1 POP JUMP JUMPDEST PUSH1 0x0 DUP2 SWAP1 POP SWAP3 SWAP2 POP POP JUMP JUMPDEST POP JUMP JUMPDEST PUSH1 0x0 PUSH2 0xF6D PUSH1 0x0 DUP4 PUSH2 0xF52 JUMP JUMPDEST SWAP2 POP PUSH2 0xF78 DUP3 PUSH2 0xF5D JUMP JUMPDEST PUSH1 0x0 DUP3 ADD SWAP1 POP SWAP2 SWAP1 POP JUMP JUMPDEST PUSH1 0x0 PUSH2 0xF8E DUP3 PUSH2 0xF60 JUMP JUMPDEST SWAP2 POP DUP2 SWAP1 POP SWAP2 SWAP1 POP JUMP JUMPDEST PUSH32 0x6C61207472616E73616374696F6E2061206563686F7565000000000000000000 PUSH1 0x0 DUP3 ADD MSTORE POP JUMP JUMPDEST PUSH1 0x0 PUSH2 0xFCE PUSH1 0x17 DUP4 PUSH2 0x99C JUMP JUMPDEST SWAP2 POP PUSH2 0xFD9 DUP3 PUSH2 0xF98 JUMP JUMPDEST PUSH1 0x20 DUP3 ADD SWAP1 POP SWAP2 SWAP1 POP JUMP JUMPDEST PUSH1 0x0 PUSH1 0x20 DUP3 ADD SWAP1 POP DUP2 DUP2 SUB PUSH1 0x0 DUP4 ADD MSTORE PUSH2 0xFFD DUP2 PUSH2 0xFC1 JUMP JUMPDEST SWAP1 POP SWAP2 SWAP1 POP JUMP JUMPDEST PUSH32 0x6C65206465706F7420657374206E756C00000000000000000000000000000000 PUSH1 0x0 DUP3 ADD MSTORE POP JUMP JUMPDEST PUSH1 0x0 PUSH2 0x103A PUSH1 0x10 DUP4 PUSH2 0x99C JUMP JUMPDEST SWAP2 POP PUSH2 0x1045 DUP3 PUSH2 0x1004 JUMP JUMPDEST PUSH1 0x20 DUP3 ADD SWAP1 POP SWAP2 SWAP1 POP JUMP JUMPDEST PUSH1 0x0 PUSH1 0x20 DUP3 ADD SWAP1 POP DUP2 DUP2 SUB PUSH1 0x0 DUP4 ADD MSTORE PUSH2 0x1069 DUP2 PUSH2 0x102D JUMP JUMPDEST SWAP1 POP SWAP2 SWAP1 POP JUMP JUMPDEST PUSH1 0x0 PUSH2 0x107B DUP3 PUSH2 0x90C JUMP JUMPDEST SWAP2 POP PUSH2 0x1086 DUP4 PUSH2 0x90C JUMP JUMPDEST SWAP3 POP DUP3 DUP3 ADD SWAP1 POP DUP1 DUP3 GT ISZERO PUSH2 0x109E JUMPI PUSH2 0x109D PUSH2 0xE83 JUMP JUMPDEST JUMPDEST SWAP3 SWAP2 POP POP JUMP JUMPDEST PUSH1 0x0 PUSH2 0x10AF DUP3 PUSH2 0x90C JUMP JUMPDEST SWAP2 POP PUSH32 0xFFFFFFFFFFFFFFFFFFFFFFFFFFFFFFFFFFFFFFFFFFFFFFFFFFFFFFFFFFFFFFFF DUP3 SUB PUSH2 0x10E1 JUMPI PUSH2 0x10E0 PUSH2 0xE83 JUMP JUMPDEST JUMPDEST PUSH1 0x1 DUP3 ADD SWAP1 POP SWAP2 SWAP1 POP JUMP JUMPDEST PUSH1 0x0 DUP2 SWAP1 POP DUP2 PUSH1 0x0 MSTORE PUSH1 0x20 PUSH1 0x0 KECCAK256 SWAP1 POP SWAP2 SWAP1 POP JUMP JUMPDEST PUSH1 0x0 PUSH1 0x20 PUSH1 0x1F DUP4 ADD DIV SWAP1 POP SWAP2 SWAP1 POP JUMP JUMPDEST PUSH1 0x0 DUP3 DUP3 SHL SWAP1 POP SWAP3 SWAP2 POP POP JUMP JUMPDEST PUSH1 0x0 PUSH1 0x8 DUP4 MUL PUSH2 0x114E PUSH32 0xFFFFFFFFFFFFFFFFFFFFFFFFFFFFFFFFFFFFFFFFFFFFFFFFFFFFFFFFFFFFFFFF DUP3 PUSH2 0x1111 JUMP JUMPDEST PUSH2 0x1158 DUP7 DUP4 PUSH2 0x1111 JUMP JUMPDEST SWAP6 POP DUP1 NOT DUP5 AND SWAP4 POP DUP1 DUP7 AND DUP5 OR SWAP3 POP POP POP SWAP4 SWAP3 POP POP POP JUMP JUMPDEST PUSH1 0x0 DUP2 SWAP1 POP SWAP2 SWAP1 POP JUMP JUMPDEST PUSH1 0x0 PUSH2 0x1195 PUSH2 0x1190 PUSH2 0x118B DUP5 PUSH2 0x90C JUMP JUMPDEST PUSH2 0x1170 JUMP JUMPDEST PUSH2 0x90C JUMP JUMPDEST SWAP1 POP SWAP2 SWAP1 POP JUMP JUMPDEST PUSH1 0x0 DUP2 SWAP1 POP SWAP2 SWAP1 POP JUMP JUMPDEST PUSH2 0x11AF DUP4 PUSH2 0x117A JUMP JUMPDEST PUSH2 0x11C3 PUSH2 0x11BB DUP3 PUSH2 0x119C JUMP JUMPDEST DUP5 DUP5 SLOAD PUSH2 0x111E JUMP JUMPDEST DUP3 SSTORE POP POP POP POP JUMP JUMPDEST PUSH1 0x0 SWAP1 JUMP JUMPDEST PUSH2 0x11D8 PUSH2 0x11CB JUMP JUMPDEST PUSH2 0x11E3 DUP2 DUP5 DUP5 PUSH2 0x11A6 JUMP JUMPDEST POP POP POP JUMP JUMPDEST JUMPDEST DUP2 DUP2 LT ISZERO PUSH2 0x1207 JUMPI PUSH2 0x11FC PUSH1 0x0 DUP3 PUSH2 0x11D0 JUMP JUMPDEST PUSH1 0x1 DUP2 ADD SWAP1 POP PUSH2 0x11E9 JUMP JUMPDEST POP POP JUMP JUMPDEST PUSH1 0x1F DUP3 GT ISZERO PUSH2 0x124C JUMPI PUSH2 0x121D DUP2 PUSH2 0x10EC JUMP JUMPDEST PUSH2 0x1226 DUP5 PUSH2 0x1101 JUMP JUMPDEST DUP2 ADD PUSH1 0x20 DUP6 LT ISZERO PUSH2 0x1235 JUMPI DUP2 SWAP1 POP JUMPDEST PUSH2 0x1249 PUSH2 0x1241 DUP6 PUSH2 0x1101 JUMP JUMPDEST DUP4 ADD DUP3 PUSH2 0x11E8 JUMP JUMPDEST POP POP JUMPDEST POP POP POP JUMP JUMPDEST PUSH1 0x0 DUP3 DUP3 SHR SWAP1 POP SWAP3 SWAP2 POP POP JUMP JUMPDEST PUSH1 0x0 PUSH2 0x126F PUSH1 0x0 NOT DUP5 PUSH1 0x8 MUL PUSH2 0x1251 JUMP JUMPDEST NOT DUP1 DUP4 AND SWAP2 POP POP SWAP3 SWAP2 POP POP JUMP JUMPDEST PUSH1 0x0 PUSH2 0x1288 DUP4 DUP4 PUSH2 0x125E JUMP JUMPDEST SWAP2 POP DUP3 PUSH1 0x2 MUL DUP3 OR SWAP1 POP SWAP3 SWAP2 POP POP JUMP JUMPDEST PUSH2 0x12A1 DUP3 PUSH2 0x991 JUMP JUMPDEST PUSH8 0xFFFFFFFFFFFFFFFF DUP2 GT ISZERO PUSH2 0x12BA JUMPI PUSH2 0x12B9 PUSH2 0xAC6 JUMP JUMPDEST JUMPDEST PUSH2 0x12C4 DUP3 SLOAD PUSH2 0xE52 JUMP JUMPDEST PUSH2 0x12CF DUP3 DUP3 DUP6 PUSH2 0x120B JUMP JUMPDEST PUSH1 0x0 PUSH1 0x20 SWAP1 POP PUSH1 0x1F DUP4 GT PUSH1 0x1 DUP2 EQ PUSH2 0x1302 JUMPI PUSH1 0x0 DUP5 ISZERO PUSH2 0x12F0 JUMPI DUP3 DUP8 ADD MLOAD SWAP1 POP JUMPDEST PUSH2 0x12FA DUP6 DUP3 PUSH2 0x127C JUMP JUMPDEST DUP7 SSTORE POP PUSH2 0x1362 JUMP JUMPDEST PUSH1 0x1F NOT DUP5 AND PUSH2 0x1310 DUP7 PUSH2 0x10EC JUMP JUMPDEST PUSH1 0x0 JUMPDEST DUP3 DUP2 LT ISZERO PUSH2 0x1338 JUMPI DUP5 DUP10 ADD MLOAD DUP3 SSTORE PUSH1 0x1 DUP3 ADD SWAP2 POP PUSH1 0x20 DUP6 ADD SWAP5 POP PUSH1 0x20 DUP2 ADD SWAP1 POP PUSH2 0x1313 JUMP JUMPDEST DUP7 DUP4 LT ISZERO PUSH2 0x1355 JUMPI DUP5 DUP10 ADD MLOAD PUSH2 0x1351 PUSH1 0x1F DUP10 AND DUP3 PUSH2 0x125E JUMP JUMPDEST DUP4 SSTORE POP JUMPDEST PUSH1 0x1 PUSH1 0x2 DUP9 MUL ADD DUP9 SSTORE POP POP POP JUMPDEST POP POP POP POP POP POP JUMP INVALID LOG2 PUSH5 0x6970667358 0x22 SLT KECCAK256 0xEB SWAP15 0xBF 0x4F EXTCODEHASH GT DELEGATECALL DUP6 MUL 0xA8 0xB8 ADDMOD RETURN 0xD1 0xFB CALLVALUE 0xE8 SHL 0x4A 0xE0 0x2B 0x2E BASEFEE 0x4E PUSH1 0x66 SWAP2 0xCD MSTORE8 0xD9 0xEC GASLIMIT PUSH5 0x736F6C6343 STOP ADDMOD GT STOP CALLER "
				},
				"gasEstimates": {
					"creation": {
						"codeDepositCost": "1004800",
						"executionCost": "11053",
						"totalCost": "1015853"
					},
					"external": {
						"balance(address)": "2858",
						"donMap(address,uint256)": "infinite",
						"donner(address,string,string)": "infinite",
						"getBalanceUser()": "2987",
						"getbalanceMap(address)": "2864",
						"getdonMap(address)": "infinite",
						"withdraw()": "infinite"
					}
				},
				"methodIdentifiers": {
					"balance(address)": "e3d670d7",
					"donMap(address,uint256)": "0ddd9ab1",
					"donner(address,string,string)": "4eda6f2a",
					"getBalanceUser()": "31dacf77",
					"getbalanceMap(address)": "15f75dda",
					"getdonMap(address)": "f449c0b4",
					"withdraw()": "3ccfd60b"
				}
			},
			"storageLayout": {
				"storage": [
					{
						"astId": 4,
						"contract": "don.sol:don",
						"label": "id",
						"offset": 0,
						"slot": "0",
						"type": "t_uint256"
					},
					{
						"astId": 7,
						"contract": "don.sol:don",
						"label": "amount",
						"offset": 0,
						"slot": "1",
						"type": "t_uint256"
					},
					{
						"astId": 20,
						"contract": "don.sol:don",
						"label": "balance",
						"offset": 0,
						"slot": "2",
						"type": "t_mapping(t_address,t_uint256)"
					},
					{
						"astId": 26,
						"contract": "don.sol:don",
						"label": "donMap",
						"offset": 0,
						"slot": "3",
						"type": "t_mapping(t_address,t_array(t_struct(Don)16_storage)dyn_storage)"
					}
				],
				"types": {
					"t_address": {
						"encoding": "inplace",
						"label": "address",
						"numberOfBytes": "20"
					},
					"t_array(t_struct(Don)16_storage)dyn_storage": {
						"base": "t_struct(Don)16_storage",
						"encoding": "dynamic_array",
						"label": "struct don.Don[]",
						"numberOfBytes": "32"
					},
					"t_mapping(t_address,t_array(t_struct(Don)16_storage)dyn_storage)": {
						"encoding": "mapping",
						"key": "t_address",
						"label": "mapping(address => struct don.Don[])",
						"numberOfBytes": "32",
						"value": "t_array(t_struct(Don)16_storage)dyn_storage"
					},
					"t_mapping(t_address,t_uint256)": {
						"encoding": "mapping",
						"key": "t_address",
						"label": "mapping(address => uint256)",
						"numberOfBytes": "32",
						"value": "t_uint256"
					},
					"t_string_storage": {
						"encoding": "bytes",
						"label": "string",
						"numberOfBytes": "32"
					},
					"t_struct(Don)16_storage": {
						"encoding": "inplace",
						"label": "struct don.Don",
						"members": [
							{
								"astId": 9,
								"contract": "don.sol:don",
								"label": "id",
								"offset": 0,
								"slot": "0",
								"type": "t_uint256"
							},
							{
								"astId": 11,
								"contract": "don.sol:don",
								"label": "montant",
								"offset": 0,
								"slot": "1",
								"type": "t_uint256"
							},
							{
								"astId": 13,
								"contract": "don.sol:don",
								"label": "donateur",
								"offset": 0,
								"slot": "2",
								"type": "t_string_storage"
							},
							{
								"astId": 15,
								"contract": "don.sol:don",
								"label": "message",
								"offset": 0,
								"slot": "3",
								"type": "t_string_storage"
							}
						],
						"numberOfBytes": "128"
					},
					"t_uint256": {
						"encoding": "inplace",
						"label": "uint256",
						"numberOfBytes": "32"
					}
				}
			},
			"userdoc": {
				"kind": "user",
				"methods": {},
				"version": 1
			}
		}
	}
}