{
	"library.sol": {
		"TestMath": {
			"abi": [
				{
					"inputs": [
						{
							"internalType": "uint256",
							"name": "x",
							"type": "uint256"
						}
					],
					"name": "testRacineCarree",
					"outputs": [
						{
							"internalType": "uint256",
							"name": "",
							"type": "uint256"
						}
					],
					"stateMutability": "pure",
					"type": "function"
				}
			],
			"devdoc": {
				"kind": "dev",
				"methods": {},
				"version": 1
			},
			"evm": {
				"assembly": "    /* \"library.sol\":454:577  contract TestMath {... */\n  mstore(0x40, 0x80)\n  callvalue\n  dup1\n  iszero\n  tag_1\n  jumpi\n  0x00\n  dup1\n  revert\ntag_1:\n  pop\n  dataSize(sub_0)\n  dup1\n  dataOffset(sub_0)\n  0x00\n  codecopy\n  0x00\n  return\nstop\n\nsub_0: assembly {\n        /* \"library.sol\":454:577  contract TestMath {... */\n      mstore(0x40, 0x80)\n      callvalue\n      dup1\n      iszero\n      tag_1\n      jumpi\n      0x00\n      dup1\n      revert\n    tag_1:\n      pop\n      jumpi(tag_2, lt(calldatasize, 0x04))\n      shr(0xe0, calldataload(0x00))\n      dup1\n      0xb0a7916a\n      eq\n      tag_3\n      jumpi\n    tag_2:\n      0x00\n      dup1\n      revert\n        /* \"library.sol\":478:575  function testRacineCarree(uint x) public pure returns (uint) {... */\n    tag_3:\n      tag_4\n      0x04\n      dup1\n      calldatasize\n      sub\n      dup2\n      add\n      swap1\n      tag_5\n      swap2\n      swap1\n      tag_6\n      jump\t// in\n    tag_5:\n      tag_7\n      jump\t// in\n    tag_4:\n      mload(0x40)\n      tag_8\n      swap2\n      swap1\n      tag_9\n      jump\t// in\n    tag_8:\n      mload(0x40)\n      dup1\n      swap2\n      sub\n      swap1\n      return\n    tag_7:\n        /* \"library.sol\":533:537  uint */\n      0x00\n        /* \"library.sol\":556:568  Math.sqrt(x) */\n      tag_11\n        /* \"library.sol\":566:567  x */\n      dup3\n        /* \"library.sol\":556:565  Math.sqrt */\n      tag_12\n        /* \"library.sol\":556:568  Math.sqrt(x) */\n      jump\t// in\n    tag_11:\n        /* \"library.sol\":549:568  return Math.sqrt(x) */\n      swap1\n      pop\n        /* \"library.sol\":478:575  function testRacineCarree(uint x) public pure returns (uint) {... */\n      swap2\n      swap1\n      pop\n      jump\t// out\n        /* \"library.sol\":158:450  function sqrt(uint y) internal pure returns (uint z) {... */\n    tag_12:\n        /* \"library.sol\":203:209  uint z */\n      0x00\n        /* \"library.sol\":229:230  3 */\n      0x03\n        /* \"library.sol\":225:226  y */\n      dup3\n        /* \"library.sol\":225:230  y > 3 */\n      gt\n        /* \"library.sol\":221:444  if (y > 3) {... */\n      iszero\n      tag_14\n      jumpi\n        /* \"library.sol\":250:251  y */\n      dup2\n        /* \"library.sol\":246:251  z = y */\n      swap1\n      pop\n        /* \"library.sol\":265:271  uint x */\n      0x00\n        /* \"library.sol\":282:283  1 */\n      0x01\n        /* \"library.sol\":278:279  2 */\n      0x02\n        /* \"library.sol\":274:275  y */\n      dup5\n        /* \"library.sol\":274:279  y / 2 */\n      tag_15\n      swap2\n      swap1\n      tag_16\n      jump\t// in\n    tag_15:\n        /* \"library.sol\":274:283  y / 2 + 1 */\n      tag_17\n      swap2\n      swap1\n      tag_18\n      jump\t// in\n    tag_17:\n        /* \"library.sol\":265:283  uint x = y / 2 + 1 */\n      swap1\n      pop\n        /* \"library.sol\":297:386  while (x < z) {... */\n    tag_19:\n        /* \"library.sol\":308:309  z */\n      dup2\n        /* \"library.sol\":304:305  x */\n      dup2\n        /* \"library.sol\":304:309  x < z */\n      lt\n        /* \"library.sol\":297:386  while (x < z) {... */\n      iszero\n      tag_20\n      jumpi\n        /* \"library.sol\":333:334  x */\n      dup1\n        /* \"library.sol\":329:334  z = x */\n      swap2\n      pop\n        /* \"library.sol\":370:371  2 */\n      0x02\n        /* \"library.sol\":365:366  x */\n      dup2\n        /* \"library.sol\":361:362  x */\n      dup3\n        /* \"library.sol\":357:358  y */\n      dup6\n        /* \"library.sol\":357:362  y / x */\n      tag_21\n      swap2\n      swap1\n      tag_16\n      jump\t// in\n    tag_21:\n        /* \"library.sol\":357:366  y / x + x */\n      tag_22\n      swap2\n      swap1\n      tag_18\n      jump\t// in\n    tag_22:\n        /* \"library.sol\":356:371  (y / x + x) / 2 */\n      tag_23\n      swap2\n      swap1\n      tag_16\n      jump\t// in\n    tag_23:\n        /* \"library.sol\":352:371  x = (y / x + x) / 2 */\n      swap1\n      pop\n        /* \"library.sol\":297:386  while (x < z) {... */\n      jump(tag_19)\n    tag_20:\n        /* \"library.sol\":232:396  {... */\n      pop\n        /* \"library.sol\":221:444  if (y > 3) {... */\n      jump(tag_24)\n    tag_14:\n        /* \"library.sol\":411:412  0 */\n      0x00\n        /* \"library.sol\":406:407  y */\n      dup3\n        /* \"library.sol\":406:412  y != 0 */\n      eq\n        /* \"library.sol\":402:444  if (y != 0) {... */\n      tag_25\n      jumpi\n        /* \"library.sol\":432:433  1 */\n      0x01\n        /* \"library.sol\":428:433  z = 1 */\n      swap1\n      pop\n        /* \"library.sol\":402:444  if (y != 0) {... */\n    tag_25:\n        /* \"library.sol\":221:444  if (y > 3) {... */\n    tag_24:\n        /* \"library.sol\":158:450  function sqrt(uint y) internal pure returns (uint z) {... */\n      swap2\n      swap1\n      pop\n      jump\t// out\n        /* \"#utility.yul\":88:205   */\n    tag_27:\n        /* \"#utility.yul\":197:198   */\n      0x00\n        /* \"#utility.yul\":194:195   */\n      dup1\n        /* \"#utility.yul\":187:199   */\n      revert\n        /* \"#utility.yul\":334:411   */\n    tag_29:\n        /* \"#utility.yul\":371:378   */\n      0x00\n        /* \"#utility.yul\":400:405   */\n      dup2\n        /* \"#utility.yul\":389:405   */\n      swap1\n      pop\n        /* \"#utility.yul\":334:411   */\n      swap2\n      swap1\n      pop\n      jump\t// out\n        /* \"#utility.yul\":417:539   */\n    tag_30:\n        /* \"#utility.yul\":490:514   */\n      tag_41\n        /* \"#utility.yul\":508:513   */\n      dup2\n        /* \"#utility.yul\":490:514   */\n      tag_29\n      jump\t// in\n    tag_41:\n        /* \"#utility.yul\":483:488   */\n      dup2\n        /* \"#utility.yul\":480:515   */\n      eq\n        /* \"#utility.yul\":470:533   */\n      tag_42\n      jumpi\n        /* \"#utility.yul\":529:530   */\n      0x00\n        /* \"#utility.yul\":526:527   */\n      dup1\n        /* \"#utility.yul\":519:531   */\n      revert\n        /* \"#utility.yul\":470:533   */\n    tag_42:\n        /* \"#utility.yul\":417:539   */\n      pop\n      jump\t// out\n        /* \"#utility.yul\":545:684   */\n    tag_31:\n        /* \"#utility.yul\":591:596   */\n      0x00\n        /* \"#utility.yul\":629:635   */\n      dup2\n        /* \"#utility.yul\":616:636   */\n      calldataload\n        /* \"#utility.yul\":607:636   */\n      swap1\n      pop\n        /* \"#utility.yul\":645:678   */\n      tag_44\n        /* \"#utility.yul\":672:677   */\n      dup2\n        /* \"#utility.yul\":645:678   */\n      tag_30\n      jump\t// in\n    tag_44:\n        /* \"#utility.yul\":545:684   */\n      swap3\n      swap2\n      pop\n      pop\n      jump\t// out\n        /* \"#utility.yul\":690:1019   */\n    tag_6:\n        /* \"#utility.yul\":749:755   */\n      0x00\n        /* \"#utility.yul\":798:800   */\n      0x20\n        /* \"#utility.yul\":786:795   */\n      dup3\n        /* \"#utility.yul\":777:784   */\n      dup5\n        /* \"#utility.yul\":773:796   */\n      sub\n        /* \"#utility.yul\":769:801   */\n      slt\n        /* \"#utility.yul\":766:885   */\n      iszero\n      tag_46\n      jumpi\n        /* \"#utility.yul\":804:883   */\n      tag_47\n      tag_27\n      jump\t// in\n    tag_47:\n        /* \"#utility.yul\":766:885   */\n    tag_46:\n        /* \"#utility.yul\":924:925   */\n      0x00\n        /* \"#utility.yul\":949:1002   */\n      tag_48\n        /* \"#utility.yul\":994:1001   */\n      dup5\n        /* \"#utility.yul\":985:991   */\n      dup3\n        /* \"#utility.yul\":974:983   */\n      dup6\n        /* \"#utility.yul\":970:992   */\n      add\n        /* \"#utility.yul\":949:1002   */\n      tag_31\n      jump\t// in\n    tag_48:\n        /* \"#utility.yul\":939:1002   */\n      swap2\n      pop\n        /* \"#utility.yul\":895:1012   */\n      pop\n        /* \"#utility.yul\":690:1019   */\n      swap3\n      swap2\n      pop\n      pop\n      jump\t// out\n        /* \"#utility.yul\":1025:1143   */\n    tag_32:\n        /* \"#utility.yul\":1112:1136   */\n      tag_50\n        /* \"#utility.yul\":1130:1135   */\n      dup2\n        /* \"#utility.yul\":1112:1136   */\n      tag_29\n      jump\t// in\n    tag_50:\n        /* \"#utility.yul\":1107:1110   */\n      dup3\n        /* \"#utility.yul\":1100:1137   */\n      mstore\n        /* \"#utility.yul\":1025:1143   */\n      pop\n      pop\n      jump\t// out\n        /* \"#utility.yul\":1149:1371   */\n    tag_9:\n        /* \"#utility.yul\":1242:1246   */\n      0x00\n        /* \"#utility.yul\":1280:1282   */\n      0x20\n        /* \"#utility.yul\":1269:1278   */\n      dup3\n        /* \"#utility.yul\":1265:1283   */\n      add\n        /* \"#utility.yul\":1257:1283   */\n      swap1\n      pop\n        /* \"#utility.yul\":1293:1364   */\n      tag_52\n        /* \"#utility.yul\":1361:1362   */\n      0x00\n        /* \"#utility.yul\":1350:1359   */\n      dup4\n        /* \"#utility.yul\":1346:1363   */\n      add\n        /* \"#utility.yul\":1337:1343   */\n      dup5\n        /* \"#utility.yul\":1293:1364   */\n      tag_32\n      jump\t// in\n    tag_52:\n        /* \"#utility.yul\":1149:1371   */\n      swap3\n      swap2\n      pop\n      pop\n      jump\t// out\n        /* \"#utility.yul\":1377:1557   */\n    tag_33:\n        /* \"#utility.yul\":1425:1502   */\n      0x4e487b7100000000000000000000000000000000000000000000000000000000\n        /* \"#utility.yul\":1422:1423   */\n      0x00\n        /* \"#utility.yul\":1415:1503   */\n      mstore\n        /* \"#utility.yul\":1522:1526   */\n      0x12\n        /* \"#utility.yul\":1519:1520   */\n      0x04\n        /* \"#utility.yul\":1512:1527   */\n      mstore\n        /* \"#utility.yul\":1546:1550   */\n      0x24\n        /* \"#utility.yul\":1543:1544   */\n      0x00\n        /* \"#utility.yul\":1536:1551   */\n      revert\n        /* \"#utility.yul\":1563:1743   */\n    tag_34:\n        /* \"#utility.yul\":1611:1688   */\n      0x4e487b7100000000000000000000000000000000000000000000000000000000\n        /* \"#utility.yul\":1608:1609   */\n      0x00\n        /* \"#utility.yul\":1601:1689   */\n      mstore\n        /* \"#utility.yul\":1708:1712   */\n      0x11\n        /* \"#utility.yul\":1705:1706   */\n      0x04\n        /* \"#utility.yul\":1698:1713   */\n      mstore\n        /* \"#utility.yul\":1732:1736   */\n      0x24\n        /* \"#utility.yul\":1729:1730   */\n      0x00\n        /* \"#utility.yul\":1722:1737   */\n      revert\n        /* \"#utility.yul\":1749:1934   */\n    tag_16:\n        /* \"#utility.yul\":1789:1790   */\n      0x00\n        /* \"#utility.yul\":1806:1826   */\n      tag_56\n        /* \"#utility.yul\":1824:1825   */\n      dup3\n        /* \"#utility.yul\":1806:1826   */\n      tag_29\n      jump\t// in\n    tag_56:\n        /* \"#utility.yul\":1801:1826   */\n      swap2\n      pop\n        /* \"#utility.yul\":1840:1860   */\n      tag_57\n        /* \"#utility.yul\":1858:1859   */\n      dup4\n        /* \"#utility.yul\":1840:1860   */\n      tag_29\n      jump\t// in\n    tag_57:\n        /* \"#utility.yul\":1835:1860   */\n      swap3\n      pop\n        /* \"#utility.yul\":1879:1880   */\n      dup3\n        /* \"#utility.yul\":1869:1904   */\n      tag_58\n      jumpi\n        /* \"#utility.yul\":1884:1902   */\n      tag_59\n      tag_33\n      jump\t// in\n    tag_59:\n        /* \"#utility.yul\":1869:1904   */\n    tag_58:\n        /* \"#utility.yul\":1926:1927   */\n      dup3\n        /* \"#utility.yul\":1923:1924   */\n      dup3\n        /* \"#utility.yul\":1919:1928   */\n      div\n        /* \"#utility.yul\":1914:1928   */\n      swap1\n      pop\n        /* \"#utility.yul\":1749:1934   */\n      swap3\n      swap2\n      pop\n      pop\n      jump\t// out\n        /* \"#utility.yul\":1940:2131   */\n    tag_18:\n        /* \"#utility.yul\":1980:1983   */\n      0x00\n        /* \"#utility.yul\":1999:2019   */\n      tag_61\n        /* \"#utility.yul\":2017:2018   */\n      dup3\n        /* \"#utility.yul\":1999:2019   */\n      tag_29\n      jump\t// in\n    tag_61:\n        /* \"#utility.yul\":1994:2019   */\n      swap2\n      pop\n        /* \"#utility.yul\":2033:2053   */\n      tag_62\n        /* \"#utility.yul\":2051:2052   */\n      dup4\n        /* \"#utility.yul\":2033:2053   */\n      tag_29\n      jump\t// in\n    tag_62:\n        /* \"#utility.yul\":2028:2053   */\n      swap3\n      pop\n        /* \"#utility.yul\":2076:2077   */\n      dup3\n        /* \"#utility.yul\":2073:2074   */\n      dup3\n        /* \"#utility.yul\":2069:2078   */\n      add\n        /* \"#utility.yul\":2062:2078   */\n      swap1\n      pop\n        /* \"#utility.yul\":2097:2100   */\n      dup1\n        /* \"#utility.yul\":2094:2095   */\n      dup3\n        /* \"#utility.yul\":2091:2101   */\n      gt\n        /* \"#utility.yul\":2088:2124   */\n      iszero\n      tag_63\n      jumpi\n        /* \"#utility.yul\":2104:2122   */\n      tag_64\n      tag_34\n      jump\t// in\n    tag_64:\n        /* \"#utility.yul\":2088:2124   */\n    tag_63:\n        /* \"#utility.yul\":1940:2131   */\n      swap3\n      swap2\n      pop\n      pop\n      jump\t// out\n\n    auxdata: 0xa264697066735822122018849448ed4aa3079c71de615369d52de412e39c2c20051711415d9b8738230464736f6c63430008110033\n}\n",
				"bytecode": {
					"linkReferences": {},
					"object": "608060405234801561001057600080fd5b50610277806100206000396000f3fe608060405234801561001057600080fd5b506004361061002b5760003560e01c8063b0a7916a14610030575b600080fd5b61004a60048036038101906100459190610127565b610060565b6040516100579190610163565b60405180910390f35b600061006b82610072565b9050919050565b600060038211156100d9578190506000600160028461009191906101dc565b61009b919061020d565b90505b818110156100d35780915060028182856100b891906101dc565b6100c2919061020d565b6100cc91906101dc565b905061009e565b506100e7565b600082146100e657600190505b5b919050565b600080fd5b6000819050919050565b610104816100f1565b811461010f57600080fd5b50565b600081359050610121816100fb565b92915050565b60006020828403121561013d5761013c6100ec565b5b600061014b84828501610112565b91505092915050565b61015d816100f1565b82525050565b60006020820190506101786000830184610154565b92915050565b7f4e487b7100000000000000000000000000000000000000000000000000000000600052601260045260246000fd5b7f4e487b7100000000000000000000000000000000000000000000000000000000600052601160045260246000fd5b60006101e7826100f1565b91506101f2836100f1565b9250826102025761020161017e565b5b828204905092915050565b6000610218826100f1565b9150610223836100f1565b925082820190508082111561023b5761023a6101ad565b5b9291505056fea264697066735822122018849448ed4aa3079c71de615369d52de412e39c2c20051711415d9b8738230464736f6c63430008110033",
					"opcodes": "PUSH1 0x80 PUSH1 0x40 MSTORE CALLVALUE DUP1 ISZERO PUSH2 0x10 JUMPI PUSH1 0x0 DUP1 REVERT JUMPDEST POP PUSH2 0x277 DUP1 PUSH2 0x20 PUSH1 0x0 CODECOPY PUSH1 0x0 RETURN INVALID PUSH1 0x80 PUSH1 0x40 MSTORE CALLVALUE DUP1 ISZERO PUSH2 0x10 JUMPI PUSH1 0x0 DUP1 REVERT JUMPDEST POP PUSH1 0x4 CALLDATASIZE LT PUSH2 0x2B JUMPI PUSH1 0x0 CALLDATALOAD PUSH1 0xE0 SHR DUP1 PUSH4 0xB0A7916A EQ PUSH2 0x30 JUMPI JUMPDEST PUSH1 0x0 DUP1 REVERT JUMPDEST PUSH2 0x4A PUSH1 0x4 DUP1 CALLDATASIZE SUB DUP2 ADD SWAP1 PUSH2 0x45 SWAP2 SWAP1 PUSH2 0x127 JUMP JUMPDEST PUSH2 0x60 JUMP JUMPDEST PUSH1 0x40 MLOAD PUSH2 0x57 SWAP2 SWAP1 PUSH2 0x163 JUMP JUMPDEST PUSH1 0x40 MLOAD DUP1 SWAP2 SUB SWAP1 RETURN JUMPDEST PUSH1 0x0 PUSH2 0x6B DUP3 PUSH2 0x72 JUMP JUMPDEST SWAP1 POP SWAP2 SWAP1 POP JUMP JUMPDEST PUSH1 0x0 PUSH1 0x3 DUP3 GT ISZERO PUSH2 0xD9 JUMPI DUP2 SWAP1 POP PUSH1 0x0 PUSH1 0x1 PUSH1 0x2 DUP5 PUSH2 0x91 SWAP2 SWAP1 PUSH2 0x1DC JUMP JUMPDEST PUSH2 0x9B SWAP2 SWAP1 PUSH2 0x20D JUMP JUMPDEST SWAP1 POP JUMPDEST DUP2 DUP2 LT ISZERO PUSH2 0xD3 JUMPI DUP1 SWAP2 POP PUSH1 0x2 DUP2 DUP3 DUP6 PUSH2 0xB8 SWAP2 SWAP1 PUSH2 0x1DC JUMP JUMPDEST PUSH2 0xC2 SWAP2 SWAP1 PUSH2 0x20D JUMP JUMPDEST PUSH2 0xCC SWAP2 SWAP1 PUSH2 0x1DC JUMP JUMPDEST SWAP1 POP PUSH2 0x9E JUMP JUMPDEST POP PUSH2 0xE7 JUMP JUMPDEST PUSH1 0x0 DUP3 EQ PUSH2 0xE6 JUMPI PUSH1 0x1 SWAP1 POP JUMPDEST JUMPDEST SWAP2 SWAP1 POP JUMP JUMPDEST PUSH1 0x0 DUP1 REVERT JUMPDEST PUSH1 0x0 DUP2 SWAP1 POP SWAP2 SWAP1 POP JUMP JUMPDEST PUSH2 0x104 DUP2 PUSH2 0xF1 JUMP JUMPDEST DUP2 EQ PUSH2 0x10F JUMPI PUSH1 0x0 DUP1 REVERT JUMPDEST POP JUMP JUMPDEST PUSH1 0x0 DUP2 CALLDATALOAD SWAP1 POP PUSH2 0x121 DUP2 PUSH2 0xFB JUMP JUMPDEST SWAP3 SWAP2 POP POP JUMP JUMPDEST PUSH1 0x0 PUSH1 0x20 DUP3 DUP5 SUB SLT ISZERO PUSH2 0x13D JUMPI PUSH2 0x13C PUSH2 0xEC JUMP JUMPDEST JUMPDEST PUSH1 0x0 PUSH2 0x14B DUP5 DUP3 DUP6 ADD PUSH2 0x112 JUMP JUMPDEST SWAP2 POP POP SWAP3 SWAP2 POP POP JUMP JUMPDEST PUSH2 0x15D DUP2 PUSH2 0xF1 JUMP JUMPDEST DUP3 MSTORE POP POP JUMP JUMPDEST PUSH1 0x0 PUSH1 0x20 DUP3 ADD SWAP1 POP PUSH2 0x178 PUSH1 0x0 DUP4 ADD DUP5 PUSH2 0x154 JUMP JUMPDEST SWAP3 SWAP2 POP POP JUMP JUMPDEST PUSH32 0x4E487B7100000000000000000000000000000000000000000000000000000000 PUSH1 0x0 MSTORE PUSH1 0x12 PUSH1 0x4 MSTORE PUSH1 0x24 PUSH1 0x0 REVERT JUMPDEST PUSH32 0x4E487B7100000000000000000000000000000000000000000000000000000000 PUSH1 0x0 MSTORE PUSH1 0x11 PUSH1 0x4 MSTORE PUSH1 0x24 PUSH1 0x0 REVERT JUMPDEST PUSH1 0x0 PUSH2 0x1E7 DUP3 PUSH2 0xF1 JUMP JUMPDEST SWAP2 POP PUSH2 0x1F2 DUP4 PUSH2 0xF1 JUMP JUMPDEST SWAP3 POP DUP3 PUSH2 0x202 JUMPI PUSH2 0x201 PUSH2 0x17E JUMP JUMPDEST JUMPDEST DUP3 DUP3 DIV SWAP1 POP SWAP3 SWAP2 POP POP JUMP JUMPDEST PUSH1 0x0 PUSH2 0x218 DUP3 PUSH2 0xF1 JUMP JUMPDEST SWAP2 POP PUSH2 0x223 DUP4 PUSH2 0xF1 JUMP JUMPDEST SWAP3 POP DUP3 DUP3 ADD SWAP1 POP DUP1 DUP3 GT ISZERO PUSH2 0x23B JUMPI PUSH2 0x23A PUSH2 0x1AD JUMP JUMPDEST JUMPDEST SWAP3 SWAP2 POP POP JUMP INVALID LOG2 PUSH5 0x6970667358 0x22 SLT KECCAK256 XOR DUP5 SWAP5 BASEFEE 0xED 0x4A LOG3 SMOD SWAP13 PUSH18 0xDE615369D52DE412E39C2C20051711415D9B DUP8 CODESIZE 0x23 DIV PUSH5 0x736F6C6343 STOP ADDMOD GT STOP CALLER "
				},
				"gasEstimates": {
					"creation": {
						"codeDepositCost": "126200",
						"executionCost": "171",
						"totalCost": "126371"
					},
					"external": {
						"testRacineCarree(uint256)": "infinite"
					}
				},
				"methodIdentifiers": {
					"testRacineCarree(uint256)": "b0a7916a"
				}
			},
			"storageLayout": {
				"storage": [],
				"types": null
			},
			"userdoc": {
				"kind": "user",
				"methods": {},
				"version": 1
			}
		}
	}
}