{
	"nft/erc721.sol": {
		"ERC721": {
			"abi": [
				{
					"anonymous": false,
					"inputs": [
						{
							"indexed": true,
							"internalType": "address",
							"name": "proprietaire",
							"type": "address"
						},
						{
							"indexed": true,
							"internalType": "address",
							"name": "to",
							"type": "address"
						},
						{
							"indexed": true,
							"internalType": "uint256",
							"name": "id",
							"type": "uint256"
						}
					],
					"name": "Approval",
					"type": "event"
				},
				{
					"anonymous": false,
					"inputs": [
						{
							"indexed": true,
							"internalType": "address",
							"name": "from",
							"type": "address"
						},
						{
							"indexed": true,
							"internalType": "address",
							"name": "to",
							"type": "address"
						},
						{
							"indexed": true,
							"internalType": "uint256",
							"name": "id",
							"type": "uint256"
						}
					],
					"name": "Transfert",
					"type": "event"
				},
				{
					"inputs": [
						{
							"internalType": "uint256",
							"name": "",
							"type": "uint256"
						}
					],
					"name": "approvals",
					"outputs": [
						{
							"internalType": "address",
							"name": "",
							"type": "address"
						}
					],
					"stateMutability": "view",
					"type": "function"
				},
				{
					"inputs": [
						{
							"internalType": "address",
							"name": "destinataire",
							"type": "address"
						},
						{
							"internalType": "uint256",
							"name": "id",
							"type": "uint256"
						}
					],
					"name": "approve",
					"outputs": [],
					"stateMutability": "nonpayable",
					"type": "function"
				},
				{
					"inputs": [
						{
							"internalType": "address",
							"name": "destinataire",
							"type": "address"
						},
						{
							"internalType": "uint256",
							"name": "id",
							"type": "uint256"
						}
					],
					"name": "approveFromApprovals",
					"outputs": [],
					"stateMutability": "nonpayable",
					"type": "function"
				},
				{
					"inputs": [
						{
							"internalType": "uint256",
							"name": "id",
							"type": "uint256"
						}
					],
					"name": "burn",
					"outputs": [],
					"stateMutability": "nonpayable",
					"type": "function"
				},
				{
					"inputs": [
						{
							"internalType": "address",
							"name": "to",
							"type": "address"
						},
						{
							"internalType": "uint256",
							"name": "id",
							"type": "uint256"
						}
					],
					"name": "mint",
					"outputs": [],
					"stateMutability": "nonpayable",
					"type": "function"
				},
				{
					"inputs": [
						{
							"internalType": "address",
							"name": "",
							"type": "address"
						}
					],
					"name": "nbrTokens",
					"outputs": [
						{
							"internalType": "uint256",
							"name": "",
							"type": "uint256"
						}
					],
					"stateMutability": "view",
					"type": "function"
				},
				{
					"inputs": [
						{
							"internalType": "uint256",
							"name": "",
							"type": "uint256"
						}
					],
					"name": "proprietaires",
					"outputs": [
						{
							"internalType": "address",
							"name": "",
							"type": "address"
						}
					],
					"stateMutability": "view",
					"type": "function"
				},
				{
					"inputs": [
						{
							"internalType": "address",
							"name": "to",
							"type": "address"
						},
						{
							"internalType": "uint256",
							"name": "id",
							"type": "uint256"
						}
					],
					"name": "transfert",
					"outputs": [],
					"stateMutability": "nonpayable",
					"type": "function"
				},
				{
					"inputs": [
						{
							"internalType": "address",
							"name": "to",
							"type": "address"
						},
						{
							"internalType": "uint256",
							"name": "id",
							"type": "uint256"
						}
					],
					"name": "transfertFrom",
					"outputs": [],
					"stateMutability": "nonpayable",
					"type": "function"
				}
			],
			"devdoc": {
				"kind": "dev",
				"methods": {},
				"version": 1
			},
			"evm": {
				"assembly": "    /* \"nft/erc721.sol\":138:3674  contract ERC721 {... */\n  mstore(0x40, 0x80)\n  callvalue\n  dup1\n  iszero\n  tag_1\n  jumpi\n  0x00\n  dup1\n  revert\ntag_1:\n  pop\n  dataSize(sub_0)\n  dup1\n  dataOffset(sub_0)\n  0x00\n  codecopy\n  0x00\n  return\nstop\n\nsub_0: assembly {\n        /* \"nft/erc721.sol\":138:3674  contract ERC721 {... */\n      mstore(0x40, 0x80)\n      callvalue\n      dup1\n      iszero\n      tag_1\n      jumpi\n      0x00\n      dup1\n      revert\n    tag_1:\n      pop\n      jumpi(tag_2, lt(calldatasize, 0x04))\n      shr(0xe0, calldataload(0x00))\n      dup1\n      0x42966c68\n      gt\n      tag_12\n      jumpi\n      dup1\n      0x42966c68\n      eq\n      tag_7\n      jumpi\n      dup1\n      0x4362c116\n      eq\n      tag_8\n      jumpi\n      dup1\n      0x63035f66\n      eq\n      tag_9\n      jumpi\n      dup1\n      0xcb819ecb\n      eq\n      tag_10\n      jumpi\n      dup1\n      0xe6c234e0\n      eq\n      tag_11\n      jumpi\n      jump(tag_2)\n    tag_12:\n      dup1\n      0x04984cf2\n      eq\n      tag_3\n      jumpi\n      dup1\n      0x095ea7b3\n      eq\n      tag_4\n      jumpi\n      dup1\n      0x3acf8d9d\n      eq\n      tag_5\n      jumpi\n      dup1\n      0x40c10f19\n      eq\n      tag_6\n      jumpi\n    tag_2:\n      0x00\n      dup1\n      revert\n        /* \"nft/erc721.sol\":2265:2929  function approveFromApprovals(address destinataire, uint id) public {... */\n    tag_3:\n      tag_13\n      0x04\n      dup1\n      calldatasize\n      sub\n      dup2\n      add\n      swap1\n      tag_14\n      swap2\n      swap1\n      tag_15\n      jump\t// in\n    tag_14:\n      tag_16\n      jump\t// in\n    tag_13:\n      stop\n        /* \"nft/erc721.sol\":1831:2259  function approve(address destinataire, uint id) public {... */\n    tag_4:\n      tag_17\n      0x04\n      dup1\n      calldatasize\n      sub\n      dup2\n      add\n      swap1\n      tag_18\n      swap2\n      swap1\n      tag_15\n      jump\t// in\n    tag_18:\n      tag_19\n      jump\t// in\n    tag_17:\n      stop\n        /* \"nft/erc721.sol\":559:604  mapping(uint => address) public proprietaires */\n    tag_5:\n      tag_20\n      0x04\n      dup1\n      calldatasize\n      sub\n      dup2\n      add\n      swap1\n      tag_21\n      swap2\n      swap1\n      tag_22\n      jump\t// in\n    tag_21:\n      tag_23\n      jump\t// in\n    tag_20:\n      mload(0x40)\n      tag_24\n      swap2\n      swap1\n      tag_25\n      jump\t// in\n    tag_24:\n      mload(0x40)\n      dup1\n      swap2\n      sub\n      swap1\n      return\n        /* \"nft/erc721.sol\":705:1016  function mint(address to, uint id) public {... */\n    tag_6:\n      tag_26\n      0x04\n      dup1\n      calldatasize\n      sub\n      dup2\n      add\n      swap1\n      tag_27\n      swap2\n      swap1\n      tag_15\n      jump\t// in\n    tag_27:\n      tag_28\n      jump\t// in\n    tag_26:\n      stop\n        /* \"nft/erc721.sol\":1022:1405  function burn(uint id) public {... */\n    tag_7:\n      tag_29\n      0x04\n      dup1\n      calldatasize\n      sub\n      dup2\n      add\n      swap1\n      tag_30\n      swap2\n      swap1\n      tag_22\n      jump\t// in\n    tag_30:\n      tag_31\n      jump\t// in\n    tag_29:\n      stop\n        /* \"nft/erc721.sol\":1411:1825  function transfert(address to, uint id) public {... */\n    tag_8:\n      tag_32\n      0x04\n      dup1\n      calldatasize\n      sub\n      dup2\n      add\n      swap1\n      tag_33\n      swap2\n      swap1\n      tag_15\n      jump\t// in\n    tag_33:\n      tag_34\n      jump\t// in\n    tag_32:\n      stop\n        /* \"nft/erc721.sol\":657:698  mapping(uint => address) public approvals */\n    tag_9:\n      tag_35\n      0x04\n      dup1\n      calldatasize\n      sub\n      dup2\n      add\n      swap1\n      tag_36\n      swap2\n      swap1\n      tag_22\n      jump\t// in\n    tag_36:\n      tag_37\n      jump\t// in\n    tag_35:\n      mload(0x40)\n      tag_38\n      swap2\n      swap1\n      tag_25\n      jump\t// in\n    tag_38:\n      mload(0x40)\n      dup1\n      swap2\n      sub\n      swap1\n      return\n        /* \"nft/erc721.sol\":2935:3671  function transfertFrom(address to, uint id) public {... */\n    tag_10:\n      tag_39\n      0x04\n      dup1\n      calldatasize\n      sub\n      dup2\n      add\n      swap1\n      tag_40\n      swap2\n      swap1\n      tag_15\n      jump\t// in\n    tag_40:\n      tag_41\n      jump\t// in\n    tag_39:\n      stop\n        /* \"nft/erc721.sol\":610:651  mapping(address => uint) public nbrTokens */\n    tag_11:\n      tag_42\n      0x04\n      dup1\n      calldatasize\n      sub\n      dup2\n      add\n      swap1\n      tag_43\n      swap2\n      swap1\n      tag_44\n      jump\t// in\n    tag_43:\n      tag_45\n      jump\t// in\n    tag_42:\n      mload(0x40)\n      tag_46\n      swap2\n      swap1\n      tag_47\n      jump\t// in\n    tag_46:\n      mload(0x40)\n      dup1\n      swap2\n      sub\n      swap1\n      return\n        /* \"nft/erc721.sol\":2265:2929  function approveFromApprovals(address destinataire, uint id) public {... */\n    tag_16:\n        /* \"nft/erc721.sol\":2486:2506  address proprietaire */\n      0x00\n        /* \"nft/erc721.sol\":2509:2522  proprietaires */\n      dup1\n        /* \"nft/erc721.sol\":2509:2526  proprietaires[id] */\n      0x00\n        /* \"nft/erc721.sol\":2523:2525  id */\n      dup4\n        /* \"nft/erc721.sol\":2509:2526  proprietaires[id] */\n      dup2\n      mstore\n      0x20\n      add\n      swap1\n      dup2\n      mstore\n      0x20\n      add\n      0x00\n      keccak256\n      0x00\n      swap1\n      sload\n      swap1\n      0x0100\n      exp\n      swap1\n      div\n      0xffffffffffffffffffffffffffffffffffffffff\n      and\n        /* \"nft/erc721.sol\":2486:2526  address proprietaire = proprietaires[id] */\n      swap1\n      pop\n        /* \"nft/erc721.sol\":2536:2552  address approuve */\n      0x00\n        /* \"nft/erc721.sol\":2555:2564  approvals */\n      0x02\n        /* \"nft/erc721.sol\":2555:2568  approvals[id] */\n      0x00\n        /* \"nft/erc721.sol\":2565:2567  id */\n      dup5\n        /* \"nft/erc721.sol\":2555:2568  approvals[id] */\n      dup2\n      mstore\n      0x20\n      add\n      swap1\n      dup2\n      mstore\n      0x20\n      add\n      0x00\n      keccak256\n      0x00\n      swap1\n      sload\n      swap1\n      0x0100\n      exp\n      swap1\n      div\n      0xffffffffffffffffffffffffffffffffffffffff\n      and\n        /* \"nft/erc721.sol\":2536:2568  address approuve = approvals[id] */\n      swap1\n      pop\n        /* \"nft/erc721.sol\":2611:2612  0 */\n      0x00\n        /* \"nft/erc721.sol\":2587:2613  proprietaire != address(0) */\n      0xffffffffffffffffffffffffffffffffffffffff\n      and\n        /* \"nft/erc721.sol\":2587:2599  proprietaire */\n      dup3\n        /* \"nft/erc721.sol\":2587:2613  proprietaire != address(0) */\n      0xffffffffffffffffffffffffffffffffffffffff\n      and\n      sub\n        /* \"nft/erc721.sol\":2579:2650  require(proprietaire != address(0), \"ce token n'a pas encore ete cree\") */\n      tag_49\n      jumpi\n      mload(0x40)\n      0x08c379a000000000000000000000000000000000000000000000000000000000\n      dup2\n      mstore\n      0x04\n      add\n      tag_50\n      swap1\n      tag_51\n      jump\t// in\n    tag_50:\n      mload(0x40)\n      dup1\n      swap2\n      sub\n      swap1\n      revert\n    tag_49:\n        /* \"nft/erc721.sol\":2688:2689  0 */\n      0x00\n        /* \"nft/erc721.sol\":2668:2690  approuve != address(0) */\n      0xffffffffffffffffffffffffffffffffffffffff\n      and\n        /* \"nft/erc721.sol\":2668:2676  approuve */\n      dup2\n        /* \"nft/erc721.sol\":2668:2690  approuve != address(0) */\n      0xffffffffffffffffffffffffffffffffffffffff\n      and\n      sub\n        /* \"nft/erc721.sol\":2660:2737  require(approuve != address(0), \"aucune approbation n'a encore ete realisee\") */\n      tag_52\n      jumpi\n      mload(0x40)\n      0x08c379a000000000000000000000000000000000000000000000000000000000\n      dup2\n      mstore\n      0x04\n      add\n      tag_53\n      swap1\n      tag_54\n      jump\t// in\n    tag_53:\n      mload(0x40)\n      dup1\n      swap2\n      sub\n      swap1\n      revert\n    tag_52:\n        /* \"nft/erc721.sol\":2769:2777  approuve */\n      dup1\n        /* \"nft/erc721.sol\":2755:2777  msg.sender == approuve */\n      0xffffffffffffffffffffffffffffffffffffffff\n      and\n        /* \"nft/erc721.sol\":2755:2765  msg.sender */\n      caller\n        /* \"nft/erc721.sol\":2755:2777  msg.sender == approuve */\n      0xffffffffffffffffffffffffffffffffffffffff\n      and\n      eq\n        /* \"nft/erc721.sol\":2747:2831  require(msg.sender == approuve, \"aucune approbation ne t'a ete donne pour ce token\") */\n      tag_55\n      jumpi\n      mload(0x40)\n      0x08c379a000000000000000000000000000000000000000000000000000000000\n      dup2\n      mstore\n      0x04\n      add\n      tag_56\n      swap1\n      tag_57\n      jump\t// in\n    tag_56:\n      mload(0x40)\n      dup1\n      swap2\n      sub\n      swap1\n      revert\n    tag_55:\n        /* \"nft/erc721.sol\":2858:2870  destinataire */\n      dup4\n        /* \"nft/erc721.sol\":2842:2851  approvals */\n      0x02\n        /* \"nft/erc721.sol\":2842:2855  approvals[id] */\n      0x00\n        /* \"nft/erc721.sol\":2852:2854  id */\n      dup6\n        /* \"nft/erc721.sol\":2842:2855  approvals[id] */\n      dup2\n      mstore\n      0x20\n      add\n      swap1\n      dup2\n      mstore\n      0x20\n      add\n      0x00\n      keccak256\n      0x00\n        /* \"nft/erc721.sol\":2842:2870  approvals[id] = destinataire */\n      0x0100\n      exp\n      dup2\n      sload\n      dup2\n      0xffffffffffffffffffffffffffffffffffffffff\n      mul\n      not\n      and\n      swap1\n      dup4\n      0xffffffffffffffffffffffffffffffffffffffff\n      and\n      mul\n      or\n      swap1\n      sstore\n      pop\n        /* \"nft/erc721.sol\":2918:2920  id */\n      dup3\n        /* \"nft/erc721.sol\":2904:2916  destinataire */\n      dup5\n        /* \"nft/erc721.sol\":2885:2921  Approval(approuve, destinataire, id) */\n      0xffffffffffffffffffffffffffffffffffffffff\n      and\n        /* \"nft/erc721.sol\":2894:2902  approuve */\n      dup3\n        /* \"nft/erc721.sol\":2885:2921  Approval(approuve, destinataire, id) */\n      0xffffffffffffffffffffffffffffffffffffffff\n      and\n      0x8c5be1e5ebec7d5bd14f71427d1e84f3dd0314c0f7b2291e5b200ac8c7c3b925\n      mload(0x40)\n      mload(0x40)\n      dup1\n      swap2\n      sub\n      swap1\n      log4\n        /* \"nft/erc721.sol\":2333:2929  {... */\n      pop\n      pop\n        /* \"nft/erc721.sol\":2265:2929  function approveFromApprovals(address destinataire, uint id) public {... */\n      pop\n      pop\n      jump\t// out\n        /* \"nft/erc721.sol\":1831:2259  function approve(address destinataire, uint id) public {... */\n    tag_19:\n        /* \"nft/erc721.sol\":1896:1916  address proprietaire */\n      0x00\n        /* \"nft/erc721.sol\":1919:1932  proprietaires */\n      dup1\n        /* \"nft/erc721.sol\":1919:1936  proprietaires[id] */\n      0x00\n        /* \"nft/erc721.sol\":1933:1935  id */\n      dup4\n        /* \"nft/erc721.sol\":1919:1936  proprietaires[id] */\n      dup2\n      mstore\n      0x20\n      add\n      swap1\n      dup2\n      mstore\n      0x20\n      add\n      0x00\n      keccak256\n      0x00\n      swap1\n      sload\n      swap1\n      0x0100\n      exp\n      swap1\n      div\n      0xffffffffffffffffffffffffffffffffffffffff\n      and\n        /* \"nft/erc721.sol\":1896:1936  address proprietaire = proprietaires[id] */\n      swap1\n      pop\n        /* \"nft/erc721.sol\":1978:1979  0 */\n      0x00\n        /* \"nft/erc721.sol\":1954:1980  proprietaire != address(0) */\n      0xffffffffffffffffffffffffffffffffffffffff\n      and\n        /* \"nft/erc721.sol\":1954:1966  proprietaire */\n      dup2\n        /* \"nft/erc721.sol\":1954:1980  proprietaire != address(0) */\n      0xffffffffffffffffffffffffffffffffffffffff\n      and\n      sub\n        /* \"nft/erc721.sol\":1946:2017  require(proprietaire != address(0), \"ce token n'a pas encore ete cree\") */\n      tag_59\n      jumpi\n      mload(0x40)\n      0x08c379a000000000000000000000000000000000000000000000000000000000\n      dup2\n      mstore\n      0x04\n      add\n      tag_60\n      swap1\n      tag_51\n      jump\t// in\n    tag_60:\n      mload(0x40)\n      dup1\n      swap2\n      sub\n      swap1\n      revert\n    tag_59:\n        /* \"nft/erc721.sol\":2049:2061  proprietaire */\n      dup1\n        /* \"nft/erc721.sol\":2035:2061  msg.sender == proprietaire */\n      0xffffffffffffffffffffffffffffffffffffffff\n      and\n        /* \"nft/erc721.sol\":2035:2045  msg.sender */\n      caller\n        /* \"nft/erc721.sol\":2035:2061  msg.sender == proprietaire */\n      0xffffffffffffffffffffffffffffffffffffffff\n      and\n      eq\n        /* \"nft/erc721.sol\":2027:2158  require(msg.sender == proprietaire, \"tu n'es pas le proprietaire du token, tu n'as donc pas les droits pour realiser cette action\") */\n      tag_61\n      jumpi\n      mload(0x40)\n      0x08c379a000000000000000000000000000000000000000000000000000000000\n      dup2\n      mstore\n      0x04\n      add\n      tag_62\n      swap1\n      tag_63\n      jump\t// in\n    tag_62:\n      mload(0x40)\n      dup1\n      swap2\n      sub\n      swap1\n      revert\n    tag_61:\n        /* \"nft/erc721.sol\":2185:2197  destinataire */\n      dup3\n        /* \"nft/erc721.sol\":2169:2178  approvals */\n      0x02\n        /* \"nft/erc721.sol\":2169:2182  approvals[id] */\n      0x00\n        /* \"nft/erc721.sol\":2179:2181  id */\n      dup5\n        /* \"nft/erc721.sol\":2169:2182  approvals[id] */\n      dup2\n      mstore\n      0x20\n      add\n      swap1\n      dup2\n      mstore\n      0x20\n      add\n      0x00\n      keccak256\n      0x00\n        /* \"nft/erc721.sol\":2169:2197  approvals[id] = destinataire */\n      0x0100\n      exp\n      dup2\n      sload\n      dup2\n      0xffffffffffffffffffffffffffffffffffffffff\n      mul\n      not\n      and\n      swap1\n      dup4\n      0xffffffffffffffffffffffffffffffffffffffff\n      and\n      mul\n      or\n      swap1\n      sstore\n      pop\n        /* \"nft/erc721.sol\":2249:2251  id */\n      dup2\n        /* \"nft/erc721.sol\":2235:2247  destinataire */\n      dup4\n        /* \"nft/erc721.sol\":2212:2252  Approval(proprietaire, destinataire, id) */\n      0xffffffffffffffffffffffffffffffffffffffff\n      and\n        /* \"nft/erc721.sol\":2221:2233  proprietaire */\n      dup3\n        /* \"nft/erc721.sol\":2212:2252  Approval(proprietaire, destinataire, id) */\n      0xffffffffffffffffffffffffffffffffffffffff\n      and\n      0x8c5be1e5ebec7d5bd14f71427d1e84f3dd0314c0f7b2291e5b200ac8c7c3b925\n      mload(0x40)\n      mload(0x40)\n      dup1\n      swap2\n      sub\n      swap1\n      log4\n        /* \"nft/erc721.sol\":1886:2259  {... */\n      pop\n        /* \"nft/erc721.sol\":1831:2259  function approve(address destinataire, uint id) public {... */\n      pop\n      pop\n      jump\t// out\n        /* \"nft/erc721.sol\":559:604  mapping(uint => address) public proprietaires */\n    tag_23:\n      mstore(0x20, 0x00)\n      dup1\n      0x00\n      mstore\n      keccak256(0x00, 0x40)\n      0x00\n      swap2\n      pop\n      sload\n      swap1\n      0x0100\n      exp\n      swap1\n      div\n      0xffffffffffffffffffffffffffffffffffffffff\n      and\n      dup2\n      jump\t// out\n        /* \"nft/erc721.sol\":705:1016  function mint(address to, uint id) public {... */\n    tag_28:\n        /* \"nft/erc721.sol\":779:780  0 */\n      0x00\n        /* \"nft/erc721.sol\":765:781  to != address(0) */\n      0xffffffffffffffffffffffffffffffffffffffff\n      and\n        /* \"nft/erc721.sol\":765:767  to */\n      dup3\n        /* \"nft/erc721.sol\":765:781  to != address(0) */\n      0xffffffffffffffffffffffffffffffffffffffff\n      and\n      sub\n        /* \"nft/erc721.sol\":757:834  require(to != address(0), \"il est interdit de faire un mint sur l'adresse 0\") */\n      tag_65\n      jumpi\n      mload(0x40)\n      0x08c379a000000000000000000000000000000000000000000000000000000000\n      dup2\n      mstore\n      0x04\n      add\n      tag_66\n      swap1\n      tag_67\n      jump\t// in\n    tag_66:\n      mload(0x40)\n      dup1\n      swap2\n      sub\n      swap1\n      revert\n    tag_65:\n        /* \"nft/erc721.sol\":881:882  0 */\n      0x00\n        /* \"nft/erc721.sol\":852:883  proprietaires[id] == address(0) */\n      0xffffffffffffffffffffffffffffffffffffffff\n      and\n        /* \"nft/erc721.sol\":852:865  proprietaires */\n      0x00\n        /* \"nft/erc721.sol\":852:869  proprietaires[id] */\n      dup1\n        /* \"nft/erc721.sol\":866:868  id */\n      dup4\n        /* \"nft/erc721.sol\":852:869  proprietaires[id] */\n      dup2\n      mstore\n      0x20\n      add\n      swap1\n      dup2\n      mstore\n      0x20\n      add\n      0x00\n      keccak256\n      0x00\n      swap1\n      sload\n      swap1\n      0x0100\n      exp\n      swap1\n      div\n      0xffffffffffffffffffffffffffffffffffffffff\n      and\n        /* \"nft/erc721.sol\":852:883  proprietaires[id] == address(0) */\n      0xffffffffffffffffffffffffffffffffffffffff\n      and\n      eq\n        /* \"nft/erc721.sol\":844:906  require(proprietaires[id] == address(0), \"ce nft existe deja\") */\n      tag_68\n      jumpi\n      mload(0x40)\n      0x08c379a000000000000000000000000000000000000000000000000000000000\n      dup2\n      mstore\n      0x04\n      add\n      tag_69\n      swap1\n      tag_70\n      jump\t// in\n    tag_69:\n      mload(0x40)\n      dup1\n      swap2\n      sub\n      swap1\n      revert\n    tag_68:\n        /* \"nft/erc721.sol\":917:926  nbrTokens */\n      0x01\n        /* \"nft/erc721.sol\":917:930  nbrTokens[to] */\n      0x00\n        /* \"nft/erc721.sol\":927:929  to */\n      dup4\n        /* \"nft/erc721.sol\":917:930  nbrTokens[to] */\n      0xffffffffffffffffffffffffffffffffffffffff\n      and\n      0xffffffffffffffffffffffffffffffffffffffff\n      and\n      dup2\n      mstore\n      0x20\n      add\n      swap1\n      dup2\n      mstore\n      0x20\n      add\n      0x00\n      keccak256\n      0x00\n        /* \"nft/erc721.sol\":917:932  nbrTokens[to]++ */\n      dup2\n      sload\n      dup1\n      swap3\n      swap2\n      swap1\n      tag_71\n      swap1\n      tag_72\n      jump\t// in\n    tag_71:\n      swap2\n      swap1\n      pop\n      sstore\n      pop\n        /* \"nft/erc721.sol\":962:964  to */\n      dup2\n        /* \"nft/erc721.sol\":942:955  proprietaires */\n      0x00\n        /* \"nft/erc721.sol\":942:959  proprietaires[id] */\n      dup1\n        /* \"nft/erc721.sol\":956:958  id */\n      dup4\n        /* \"nft/erc721.sol\":942:959  proprietaires[id] */\n      dup2\n      mstore\n      0x20\n      add\n      swap1\n      dup2\n      mstore\n      0x20\n      add\n      0x00\n      keccak256\n      0x00\n        /* \"nft/erc721.sol\":942:964  proprietaires[id] = to */\n      0x0100\n      exp\n      dup2\n      sload\n      dup2\n      0xffffffffffffffffffffffffffffffffffffffff\n      mul\n      not\n      and\n      swap1\n      dup4\n      0xffffffffffffffffffffffffffffffffffffffff\n      and\n      mul\n      or\n      swap1\n      sstore\n      pop\n        /* \"nft/erc721.sol\":1006:1008  id */\n      dup1\n        /* \"nft/erc721.sol\":1002:1004  to */\n      dup3\n        /* \"nft/erc721.sol\":980:1009  Transfert(address(0), to, id) */\n      0xffffffffffffffffffffffffffffffffffffffff\n      and\n        /* \"nft/erc721.sol\":998:999  0 */\n      0x00\n        /* \"nft/erc721.sol\":980:1009  Transfert(address(0), to, id) */\n      0xffffffffffffffffffffffffffffffffffffffff\n      and\n      0xaf9ff3ada675379ca19fdd908e550417162f2a7370166e8257b25888e55926e7\n      mload(0x40)\n      mload(0x40)\n      dup1\n      swap2\n      sub\n      swap1\n      log4\n        /* \"nft/erc721.sol\":705:1016  function mint(address to, uint id) public {... */\n      pop\n      pop\n      jump\t// out\n        /* \"nft/erc721.sol\":1022:1405  function burn(uint id) public {... */\n    tag_31:\n        /* \"nft/erc721.sol\":1062:1082  address proprietaire */\n      0x00\n        /* \"nft/erc721.sol\":1085:1098  proprietaires */\n      dup1\n        /* \"nft/erc721.sol\":1085:1102  proprietaires[id] */\n      0x00\n        /* \"nft/erc721.sol\":1099:1101  id */\n      dup4\n        /* \"nft/erc721.sol\":1085:1102  proprietaires[id] */\n      dup2\n      mstore\n      0x20\n      add\n      swap1\n      dup2\n      mstore\n      0x20\n      add\n      0x00\n      keccak256\n      0x00\n      swap1\n      sload\n      swap1\n      0x0100\n      exp\n      swap1\n      div\n      0xffffffffffffffffffffffffffffffffffffffff\n      and\n        /* \"nft/erc721.sol\":1062:1102  address proprietaire = proprietaires[id] */\n      swap1\n      pop\n        /* \"nft/erc721.sol\":1144:1145  0 */\n      0x00\n        /* \"nft/erc721.sol\":1120:1146  proprietaire != address(0) */\n      0xffffffffffffffffffffffffffffffffffffffff\n      and\n        /* \"nft/erc721.sol\":1120:1132  proprietaire */\n      dup2\n        /* \"nft/erc721.sol\":1120:1146  proprietaire != address(0) */\n      0xffffffffffffffffffffffffffffffffffffffff\n      and\n      sub\n        /* \"nft/erc721.sol\":1112:1183  require(proprietaire != address(0), \"ce token n'a pas encore ete cree\") */\n      tag_74\n      jumpi\n      mload(0x40)\n      0x08c379a000000000000000000000000000000000000000000000000000000000\n      dup2\n      mstore\n      0x04\n      add\n      tag_75\n      swap1\n      tag_51\n      jump\t// in\n    tag_75:\n      mload(0x40)\n      dup1\n      swap2\n      sub\n      swap1\n      revert\n    tag_74:\n        /* \"nft/erc721.sol\":1215:1227  proprietaire */\n      dup1\n        /* \"nft/erc721.sol\":1201:1227  msg.sender == proprietaire */\n      0xffffffffffffffffffffffffffffffffffffffff\n      and\n        /* \"nft/erc721.sol\":1201:1211  msg.sender */\n      caller\n        /* \"nft/erc721.sol\":1201:1227  msg.sender == proprietaire */\n      0xffffffffffffffffffffffffffffffffffffffff\n      and\n      eq\n        /* \"nft/erc721.sol\":1193:1271  require(msg.sender == proprietaire, \"tu n'es pas le proprietaire de ce token\") */\n      tag_76\n      jumpi\n      mload(0x40)\n      0x08c379a000000000000000000000000000000000000000000000000000000000\n      dup2\n      mstore\n      0x04\n      add\n      tag_77\n      swap1\n      tag_78\n      jump\t// in\n    tag_77:\n      mload(0x40)\n      dup1\n      swap2\n      sub\n      swap1\n      revert\n    tag_76:\n        /* \"nft/erc721.sol\":1282:1291  nbrTokens */\n      0x01\n        /* \"nft/erc721.sol\":1282:1305  nbrTokens[proprietaire] */\n      0x00\n        /* \"nft/erc721.sol\":1292:1304  proprietaire */\n      dup3\n        /* \"nft/erc721.sol\":1282:1305  nbrTokens[proprietaire] */\n      0xffffffffffffffffffffffffffffffffffffffff\n      and\n      0xffffffffffffffffffffffffffffffffffffffff\n      and\n      dup2\n      mstore\n      0x20\n      add\n      swap1\n      dup2\n      mstore\n      0x20\n      add\n      0x00\n      keccak256\n      0x00\n        /* \"nft/erc721.sol\":1282:1307  nbrTokens[proprietaire]-- */\n      dup2\n      sload\n      dup1\n      swap3\n      swap2\n      swap1\n      tag_79\n      swap1\n      tag_80\n      jump\t// in\n    tag_79:\n      swap2\n      swap1\n      pop\n      sstore\n      pop\n        /* \"nft/erc721.sol\":1325:1338  proprietaires */\n      0x00\n        /* \"nft/erc721.sol\":1325:1342  proprietaires[id] */\n      dup1\n        /* \"nft/erc721.sol\":1339:1341  id */\n      dup4\n        /* \"nft/erc721.sol\":1325:1342  proprietaires[id] */\n      dup2\n      mstore\n      0x20\n      add\n      swap1\n      dup2\n      mstore\n      0x20\n      add\n      0x00\n      keccak256\n      0x00\n        /* \"nft/erc721.sol\":1318:1342  delete proprietaires[id] */\n      0x0100\n      exp\n      dup2\n      sload\n      swap1\n      0xffffffffffffffffffffffffffffffffffffffff\n      mul\n      not\n      and\n      swap1\n      sstore\n        /* \"nft/erc721.sol\":1394:1396  id */\n      dup2\n        /* \"nft/erc721.sol\":1390:1391  0 */\n      0x00\n        /* \"nft/erc721.sol\":1358:1397  Transfert(proprietaire, address(0), id) */\n      0xffffffffffffffffffffffffffffffffffffffff\n      and\n        /* \"nft/erc721.sol\":1368:1380  proprietaire */\n      dup3\n        /* \"nft/erc721.sol\":1358:1397  Transfert(proprietaire, address(0), id) */\n      0xffffffffffffffffffffffffffffffffffffffff\n      and\n      0xaf9ff3ada675379ca19fdd908e550417162f2a7370166e8257b25888e55926e7\n      mload(0x40)\n      mload(0x40)\n      dup1\n      swap2\n      sub\n      swap1\n      log4\n        /* \"nft/erc721.sol\":1052:1405  {... */\n      pop\n        /* \"nft/erc721.sol\":1022:1405  function burn(uint id) public {... */\n      pop\n      jump\t// out\n        /* \"nft/erc721.sol\":1411:1825  function transfert(address to, uint id) public {... */\n    tag_34:\n        /* \"nft/erc721.sol\":1468:1488  address proprietaire */\n      0x00\n        /* \"nft/erc721.sol\":1491:1504  proprietaires */\n      dup1\n        /* \"nft/erc721.sol\":1491:1508  proprietaires[id] */\n      0x00\n        /* \"nft/erc721.sol\":1505:1507  id */\n      dup4\n        /* \"nft/erc721.sol\":1491:1508  proprietaires[id] */\n      dup2\n      mstore\n      0x20\n      add\n      swap1\n      dup2\n      mstore\n      0x20\n      add\n      0x00\n      keccak256\n      0x00\n      swap1\n      sload\n      swap1\n      0x0100\n      exp\n      swap1\n      div\n      0xffffffffffffffffffffffffffffffffffffffff\n      and\n        /* \"nft/erc721.sol\":1468:1508  address proprietaire = proprietaires[id] */\n      swap1\n      pop\n        /* \"nft/erc721.sol\":1550:1551  0 */\n      0x00\n        /* \"nft/erc721.sol\":1526:1552  proprietaire != address(0) */\n      0xffffffffffffffffffffffffffffffffffffffff\n      and\n        /* \"nft/erc721.sol\":1526:1538  proprietaire */\n      dup2\n        /* \"nft/erc721.sol\":1526:1552  proprietaire != address(0) */\n      0xffffffffffffffffffffffffffffffffffffffff\n      and\n      sub\n        /* \"nft/erc721.sol\":1518:1589  require(proprietaire != address(0), \"ce token n'a pas encore ete cree\") */\n      tag_82\n      jumpi\n      mload(0x40)\n      0x08c379a000000000000000000000000000000000000000000000000000000000\n      dup2\n      mstore\n      0x04\n      add\n      tag_83\n      swap1\n      tag_51\n      jump\t// in\n    tag_83:\n      mload(0x40)\n      dup1\n      swap2\n      sub\n      swap1\n      revert\n    tag_82:\n        /* \"nft/erc721.sol\":1621:1633  proprietaire */\n      dup1\n        /* \"nft/erc721.sol\":1607:1633  msg.sender == proprietaire */\n      0xffffffffffffffffffffffffffffffffffffffff\n      and\n        /* \"nft/erc721.sol\":1607:1617  msg.sender */\n      caller\n        /* \"nft/erc721.sol\":1607:1633  msg.sender == proprietaire */\n      0xffffffffffffffffffffffffffffffffffffffff\n      and\n      eq\n        /* \"nft/erc721.sol\":1599:1677  require(msg.sender == proprietaire, \"tu n'es pas le proprietaire de ce token\") */\n      tag_84\n      jumpi\n      mload(0x40)\n      0x08c379a000000000000000000000000000000000000000000000000000000000\n      dup2\n      mstore\n      0x04\n      add\n      tag_85\n      swap1\n      tag_78\n      jump\t// in\n    tag_85:\n      mload(0x40)\n      dup1\n      swap2\n      sub\n      swap1\n      revert\n    tag_84:\n        /* \"nft/erc721.sol\":1688:1697  nbrTokens */\n      0x01\n        /* \"nft/erc721.sol\":1688:1711  nbrTokens[proprietaire] */\n      0x00\n        /* \"nft/erc721.sol\":1698:1710  proprietaire */\n      dup3\n        /* \"nft/erc721.sol\":1688:1711  nbrTokens[proprietaire] */\n      0xffffffffffffffffffffffffffffffffffffffff\n      and\n      0xffffffffffffffffffffffffffffffffffffffff\n      and\n      dup2\n      mstore\n      0x20\n      add\n      swap1\n      dup2\n      mstore\n      0x20\n      add\n      0x00\n      keccak256\n      0x00\n        /* \"nft/erc721.sol\":1688:1713  nbrTokens[proprietaire]-- */\n      dup2\n      sload\n      dup1\n      swap3\n      swap2\n      swap1\n      tag_86\n      swap1\n      tag_80\n      jump\t// in\n    tag_86:\n      swap2\n      swap1\n      pop\n      sstore\n      pop\n        /* \"nft/erc721.sol\":1723:1732  nbrTokens */\n      0x01\n        /* \"nft/erc721.sol\":1723:1736  nbrTokens[to] */\n      0x00\n        /* \"nft/erc721.sol\":1733:1735  to */\n      dup5\n        /* \"nft/erc721.sol\":1723:1736  nbrTokens[to] */\n      0xffffffffffffffffffffffffffffffffffffffff\n      and\n      0xffffffffffffffffffffffffffffffffffffffff\n      and\n      dup2\n      mstore\n      0x20\n      add\n      swap1\n      dup2\n      mstore\n      0x20\n      add\n      0x00\n      keccak256\n      0x00\n        /* \"nft/erc721.sol\":1723:1738  nbrTokens[to]++ */\n      dup2\n      sload\n      dup1\n      swap3\n      swap2\n      swap1\n      tag_87\n      swap1\n      tag_72\n      jump\t// in\n    tag_87:\n      swap2\n      swap1\n      pop\n      sstore\n      pop\n        /* \"nft/erc721.sol\":1769:1771  to */\n      dup3\n        /* \"nft/erc721.sol\":1749:1762  proprietaires */\n      0x00\n        /* \"nft/erc721.sol\":1749:1766  proprietaires[id] */\n      dup1\n        /* \"nft/erc721.sol\":1763:1765  id */\n      dup5\n        /* \"nft/erc721.sol\":1749:1766  proprietaires[id] */\n      dup2\n      mstore\n      0x20\n      add\n      swap1\n      dup2\n      mstore\n      0x20\n      add\n      0x00\n      keccak256\n      0x00\n        /* \"nft/erc721.sol\":1749:1771  proprietaires[id] = to */\n      0x0100\n      exp\n      dup2\n      sload\n      dup2\n      0xffffffffffffffffffffffffffffffffffffffff\n      mul\n      not\n      and\n      swap1\n      dup4\n      0xffffffffffffffffffffffffffffffffffffffff\n      and\n      mul\n      or\n      swap1\n      sstore\n      pop\n        /* \"nft/erc721.sol\":1815:1817  id */\n      dup2\n        /* \"nft/erc721.sol\":1811:1813  to */\n      dup4\n        /* \"nft/erc721.sol\":1787:1818  Transfert(proprietaire, to, id) */\n      0xffffffffffffffffffffffffffffffffffffffff\n      and\n        /* \"nft/erc721.sol\":1797:1809  proprietaire */\n      dup3\n        /* \"nft/erc721.sol\":1787:1818  Transfert(proprietaire, to, id) */\n      0xffffffffffffffffffffffffffffffffffffffff\n      and\n      0xaf9ff3ada675379ca19fdd908e550417162f2a7370166e8257b25888e55926e7\n      mload(0x40)\n      mload(0x40)\n      dup1\n      swap2\n      sub\n      swap1\n      log4\n        /* \"nft/erc721.sol\":1458:1825  {... */\n      pop\n        /* \"nft/erc721.sol\":1411:1825  function transfert(address to, uint id) public {... */\n      pop\n      pop\n      jump\t// out\n        /* \"nft/erc721.sol\":657:698  mapping(uint => address) public approvals */\n    tag_37:\n      mstore(0x20, 0x02)\n      dup1\n      0x00\n      mstore\n      keccak256(0x00, 0x40)\n      0x00\n      swap2\n      pop\n      sload\n      swap1\n      0x0100\n      exp\n      swap1\n      div\n      0xffffffffffffffffffffffffffffffffffffffff\n      and\n      dup2\n      jump\t// out\n        /* \"nft/erc721.sol\":2935:3671  function transfertFrom(address to, uint id) public {... */\n    tag_41:\n        /* \"nft/erc721.sol\":2997:3017  address proprietaire */\n      0x00\n        /* \"nft/erc721.sol\":3020:3033  proprietaires */\n      dup1\n        /* \"nft/erc721.sol\":3020:3037  proprietaires[id] */\n      0x00\n        /* \"nft/erc721.sol\":3034:3036  id */\n      dup4\n        /* \"nft/erc721.sol\":3020:3037  proprietaires[id] */\n      dup2\n      mstore\n      0x20\n      add\n      swap1\n      dup2\n      mstore\n      0x20\n      add\n      0x00\n      keccak256\n      0x00\n      swap1\n      sload\n      swap1\n      0x0100\n      exp\n      swap1\n      div\n      0xffffffffffffffffffffffffffffffffffffffff\n      and\n        /* \"nft/erc721.sol\":2997:3037  address proprietaire = proprietaires[id] */\n      swap1\n      pop\n        /* \"nft/erc721.sol\":3047:3063  address approuve */\n      0x00\n        /* \"nft/erc721.sol\":3066:3075  approvals */\n      0x02\n        /* \"nft/erc721.sol\":3066:3079  approvals[id] */\n      0x00\n        /* \"nft/erc721.sol\":3076:3078  id */\n      dup5\n        /* \"nft/erc721.sol\":3066:3079  approvals[id] */\n      dup2\n      mstore\n      0x20\n      add\n      swap1\n      dup2\n      mstore\n      0x20\n      add\n      0x00\n      keccak256\n      0x00\n      swap1\n      sload\n      swap1\n      0x0100\n      exp\n      swap1\n      div\n      0xffffffffffffffffffffffffffffffffffffffff\n      and\n        /* \"nft/erc721.sol\":3047:3079  address approuve = approvals[id] */\n      swap1\n      pop\n        /* \"nft/erc721.sol\":3122:3123  0 */\n      0x00\n        /* \"nft/erc721.sol\":3098:3124  proprietaire != address(0) */\n      0xffffffffffffffffffffffffffffffffffffffff\n      and\n        /* \"nft/erc721.sol\":3098:3110  proprietaire */\n      dup3\n        /* \"nft/erc721.sol\":3098:3124  proprietaire != address(0) */\n      0xffffffffffffffffffffffffffffffffffffffff\n      and\n      sub\n        /* \"nft/erc721.sol\":3090:3161  require(proprietaire != address(0), \"ce token n'a pas encore ete cree\") */\n      tag_89\n      jumpi\n      mload(0x40)\n      0x08c379a000000000000000000000000000000000000000000000000000000000\n      dup2\n      mstore\n      0x04\n      add\n      tag_90\n      swap1\n      tag_51\n      jump\t// in\n    tag_90:\n      mload(0x40)\n      dup1\n      swap2\n      sub\n      swap1\n      revert\n    tag_89:\n        /* \"nft/erc721.sol\":3193:3205  proprietaire */\n      dup2\n        /* \"nft/erc721.sol\":3179:3205  msg.sender == proprietaire */\n      0xffffffffffffffffffffffffffffffffffffffff\n      and\n        /* \"nft/erc721.sol\":3179:3189  msg.sender */\n      caller\n        /* \"nft/erc721.sol\":3179:3205  msg.sender == proprietaire */\n      0xffffffffffffffffffffffffffffffffffffffff\n      and\n      eq\n        /* \"nft/erc721.sol\":3179:3231  msg.sender == proprietaire || msg.sender == approuve */\n      dup1\n      tag_91\n      jumpi\n      pop\n        /* \"nft/erc721.sol\":3223:3231  approuve */\n      dup1\n        /* \"nft/erc721.sol\":3209:3231  msg.sender == approuve */\n      0xffffffffffffffffffffffffffffffffffffffff\n      and\n        /* \"nft/erc721.sol\":3209:3219  msg.sender */\n      caller\n        /* \"nft/erc721.sol\":3209:3231  msg.sender == approuve */\n      0xffffffffffffffffffffffffffffffffffffffff\n      and\n      eq\n        /* \"nft/erc721.sol\":3179:3231  msg.sender == proprietaire || msg.sender == approuve */\n    tag_91:\n        /* \"nft/erc721.sol\":3171:3281  require(msg.sender == proprietaire || msg.sender == approuve, \"tu n'as pas le droit d'appeler cette fonction\") */\n      tag_92\n      jumpi\n      mload(0x40)\n      0x08c379a000000000000000000000000000000000000000000000000000000000\n      dup2\n      mstore\n      0x04\n      add\n      tag_93\n      swap1\n      tag_94\n      jump\t// in\n    tag_93:\n      mload(0x40)\n      dup1\n      swap2\n      sub\n      swap1\n      revert\n    tag_92:\n        /* \"nft/erc721.sol\":3321:3322  0 */\n      0x00\n        /* \"nft/erc721.sol\":3299:3323  msg.sender != address(0) */\n      0xffffffffffffffffffffffffffffffffffffffff\n      and\n        /* \"nft/erc721.sol\":3299:3309  msg.sender */\n      caller\n        /* \"nft/erc721.sol\":3299:3323  msg.sender != address(0) */\n      0xffffffffffffffffffffffffffffffffffffffff\n      and\n      sub\n        /* \"nft/erc721.sol\":3291:3396  require(msg.sender != address(0), \"tu n'as pas le droit de realiser une transaction depuis l'addresse 0\") */\n      tag_95\n      jumpi\n      mload(0x40)\n      0x08c379a000000000000000000000000000000000000000000000000000000000\n      dup2\n      mstore\n      0x04\n      add\n      tag_96\n      swap1\n      tag_97\n      jump\t// in\n    tag_96:\n      mload(0x40)\n      dup1\n      swap2\n      sub\n      swap1\n      revert\n    tag_95:\n        /* \"nft/erc721.sol\":3428:3430  to */\n      dup4\n        /* \"nft/erc721.sol\":3414:3430  msg.sender != to */\n      0xffffffffffffffffffffffffffffffffffffffff\n      and\n        /* \"nft/erc721.sol\":3414:3424  msg.sender */\n      caller\n        /* \"nft/erc721.sol\":3414:3430  msg.sender != to */\n      0xffffffffffffffffffffffffffffffffffffffff\n      and\n      sub\n        /* \"nft/erc721.sol\":3406:3493  require(msg.sender != to, \"tu n'as pas le droit de transfert le token au proprietaire\") */\n      tag_98\n      jumpi\n      mload(0x40)\n      0x08c379a000000000000000000000000000000000000000000000000000000000\n      dup2\n      mstore\n      0x04\n      add\n      tag_99\n      swap1\n      tag_100\n      jump\t// in\n    tag_99:\n      mload(0x40)\n      dup1\n      swap2\n      sub\n      swap1\n      revert\n    tag_98:\n        /* \"nft/erc721.sol\":3504:3513  nbrTokens */\n      0x01\n        /* \"nft/erc721.sol\":3504:3527  nbrTokens[proprietaire] */\n      0x00\n        /* \"nft/erc721.sol\":3514:3526  proprietaire */\n      dup4\n        /* \"nft/erc721.sol\":3504:3527  nbrTokens[proprietaire] */\n      0xffffffffffffffffffffffffffffffffffffffff\n      and\n      0xffffffffffffffffffffffffffffffffffffffff\n      and\n      dup2\n      mstore\n      0x20\n      add\n      swap1\n      dup2\n      mstore\n      0x20\n      add\n      0x00\n      keccak256\n      0x00\n        /* \"nft/erc721.sol\":3504:3529  nbrTokens[proprietaire]-- */\n      dup2\n      sload\n      dup1\n      swap3\n      swap2\n      swap1\n      tag_101\n      swap1\n      tag_80\n      jump\t// in\n    tag_101:\n      swap2\n      swap1\n      pop\n      sstore\n      pop\n        /* \"nft/erc721.sol\":3539:3548  nbrTokens */\n      0x01\n        /* \"nft/erc721.sol\":3539:3552  nbrTokens[to] */\n      0x00\n        /* \"nft/erc721.sol\":3549:3551  to */\n      dup6\n        /* \"nft/erc721.sol\":3539:3552  nbrTokens[to] */\n      0xffffffffffffffffffffffffffffffffffffffff\n      and\n      0xffffffffffffffffffffffffffffffffffffffff\n      and\n      dup2\n      mstore\n      0x20\n      add\n      swap1\n      dup2\n      mstore\n      0x20\n      add\n      0x00\n      keccak256\n      0x00\n        /* \"nft/erc721.sol\":3539:3554  nbrTokens[to]++ */\n      dup2\n      sload\n      dup1\n      swap3\n      swap2\n      swap1\n      tag_102\n      swap1\n      tag_72\n      jump\t// in\n    tag_102:\n      swap2\n      swap1\n      pop\n      sstore\n      pop\n        /* \"nft/erc721.sol\":3585:3587  to */\n      dup4\n        /* \"nft/erc721.sol\":3565:3578  proprietaires */\n      0x00\n        /* \"nft/erc721.sol\":3565:3582  proprietaires[id] */\n      dup1\n        /* \"nft/erc721.sol\":3579:3581  id */\n      dup6\n        /* \"nft/erc721.sol\":3565:3582  proprietaires[id] */\n      dup2\n      mstore\n      0x20\n      add\n      swap1\n      dup2\n      mstore\n      0x20\n      add\n      0x00\n      keccak256\n      0x00\n        /* \"nft/erc721.sol\":3565:3587  proprietaires[id] = to */\n      0x0100\n      exp\n      dup2\n      sload\n      dup2\n      0xffffffffffffffffffffffffffffffffffffffff\n      mul\n      not\n      and\n      swap1\n      dup4\n      0xffffffffffffffffffffffffffffffffffffffff\n      and\n      mul\n      or\n      swap1\n      sstore\n      pop\n        /* \"nft/erc721.sol\":3605:3614  approvals */\n      0x02\n        /* \"nft/erc721.sol\":3605:3618  approvals[id] */\n      0x00\n        /* \"nft/erc721.sol\":3615:3617  id */\n      dup5\n        /* \"nft/erc721.sol\":3605:3618  approvals[id] */\n      dup2\n      mstore\n      0x20\n      add\n      swap1\n      dup2\n      mstore\n      0x20\n      add\n      0x00\n      keccak256\n      0x00\n        /* \"nft/erc721.sol\":3598:3618  delete approvals[id] */\n      0x0100\n      exp\n      dup2\n      sload\n      swap1\n      0xffffffffffffffffffffffffffffffffffffffff\n      mul\n      not\n      and\n      swap1\n      sstore\n        /* \"nft/erc721.sol\":3660:3662  id */\n      dup3\n        /* \"nft/erc721.sol\":3656:3658  to */\n      dup5\n        /* \"nft/erc721.sol\":3634:3663  Transfert(msg.sender, to, id) */\n      0xffffffffffffffffffffffffffffffffffffffff\n      and\n        /* \"nft/erc721.sol\":3644:3654  msg.sender */\n      caller\n        /* \"nft/erc721.sol\":3634:3663  Transfert(msg.sender, to, id) */\n      0xffffffffffffffffffffffffffffffffffffffff\n      and\n      0xaf9ff3ada675379ca19fdd908e550417162f2a7370166e8257b25888e55926e7\n      mload(0x40)\n      mload(0x40)\n      dup1\n      swap2\n      sub\n      swap1\n      log4\n        /* \"nft/erc721.sol\":2986:3671  {... */\n      pop\n      pop\n        /* \"nft/erc721.sol\":2935:3671  function transfertFrom(address to, uint id) public {... */\n      pop\n      pop\n      jump\t// out\n        /* \"nft/erc721.sol\":610:651  mapping(address => uint) public nbrTokens */\n    tag_45:\n      mstore(0x20, 0x01)\n      dup1\n      0x00\n      mstore\n      keccak256(0x00, 0x40)\n      0x00\n      swap2\n      pop\n      swap1\n      pop\n      sload\n      dup2\n      jump\t// out\n        /* \"#utility.yul\":88:205   */\n    tag_104:\n        /* \"#utility.yul\":197:198   */\n      0x00\n        /* \"#utility.yul\":194:195   */\n      dup1\n        /* \"#utility.yul\":187:199   */\n      revert\n        /* \"#utility.yul\":334:460   */\n    tag_106:\n        /* \"#utility.yul\":371:378   */\n      0x00\n        /* \"#utility.yul\":411:453   */\n      0xffffffffffffffffffffffffffffffffffffffff\n        /* \"#utility.yul\":404:409   */\n      dup3\n        /* \"#utility.yul\":400:454   */\n      and\n        /* \"#utility.yul\":389:454   */\n      swap1\n      pop\n        /* \"#utility.yul\":334:460   */\n      swap2\n      swap1\n      pop\n      jump\t// out\n        /* \"#utility.yul\":466:562   */\n    tag_107:\n        /* \"#utility.yul\":503:510   */\n      0x00\n        /* \"#utility.yul\":532:556   */\n      tag_143\n        /* \"#utility.yul\":550:555   */\n      dup3\n        /* \"#utility.yul\":532:556   */\n      tag_106\n      jump\t// in\n    tag_143:\n        /* \"#utility.yul\":521:556   */\n      swap1\n      pop\n        /* \"#utility.yul\":466:562   */\n      swap2\n      swap1\n      pop\n      jump\t// out\n        /* \"#utility.yul\":568:690   */\n    tag_108:\n        /* \"#utility.yul\":641:665   */\n      tag_145\n        /* \"#utility.yul\":659:664   */\n      dup2\n        /* \"#utility.yul\":641:665   */\n      tag_107\n      jump\t// in\n    tag_145:\n        /* \"#utility.yul\":634:639   */\n      dup2\n        /* \"#utility.yul\":631:666   */\n      eq\n        /* \"#utility.yul\":621:684   */\n      tag_146\n      jumpi\n        /* \"#utility.yul\":680:681   */\n      0x00\n        /* \"#utility.yul\":677:678   */\n      dup1\n        /* \"#utility.yul\":670:682   */\n      revert\n        /* \"#utility.yul\":621:684   */\n    tag_146:\n        /* \"#utility.yul\":568:690   */\n      pop\n      jump\t// out\n        /* \"#utility.yul\":696:835   */\n    tag_109:\n        /* \"#utility.yul\":742:747   */\n      0x00\n        /* \"#utility.yul\":780:786   */\n      dup2\n        /* \"#utility.yul\":767:787   */\n      calldataload\n        /* \"#utility.yul\":758:787   */\n      swap1\n      pop\n        /* \"#utility.yul\":796:829   */\n      tag_148\n        /* \"#utility.yul\":823:828   */\n      dup2\n        /* \"#utility.yul\":796:829   */\n      tag_108\n      jump\t// in\n    tag_148:\n        /* \"#utility.yul\":696:835   */\n      swap3\n      swap2\n      pop\n      pop\n      jump\t// out\n        /* \"#utility.yul\":841:918   */\n    tag_110:\n        /* \"#utility.yul\":878:885   */\n      0x00\n        /* \"#utility.yul\":907:912   */\n      dup2\n        /* \"#utility.yul\":896:912   */\n      swap1\n      pop\n        /* \"#utility.yul\":841:918   */\n      swap2\n      swap1\n      pop\n      jump\t// out\n        /* \"#utility.yul\":924:1046   */\n    tag_111:\n        /* \"#utility.yul\":997:1021   */\n      tag_151\n        /* \"#utility.yul\":1015:1020   */\n      dup2\n        /* \"#utility.yul\":997:1021   */\n      tag_110\n      jump\t// in\n    tag_151:\n        /* \"#utility.yul\":990:995   */\n      dup2\n        /* \"#utility.yul\":987:1022   */\n      eq\n        /* \"#utility.yul\":977:1040   */\n      tag_152\n      jumpi\n        /* \"#utility.yul\":1036:1037   */\n      0x00\n        /* \"#utility.yul\":1033:1034   */\n      dup1\n        /* \"#utility.yul\":1026:1038   */\n      revert\n        /* \"#utility.yul\":977:1040   */\n    tag_152:\n        /* \"#utility.yul\":924:1046   */\n      pop\n      jump\t// out\n        /* \"#utility.yul\":1052:1191   */\n    tag_112:\n        /* \"#utility.yul\":1098:1103   */\n      0x00\n        /* \"#utility.yul\":1136:1142   */\n      dup2\n        /* \"#utility.yul\":1123:1143   */\n      calldataload\n        /* \"#utility.yul\":1114:1143   */\n      swap1\n      pop\n        /* \"#utility.yul\":1152:1185   */\n      tag_154\n        /* \"#utility.yul\":1179:1184   */\n      dup2\n        /* \"#utility.yul\":1152:1185   */\n      tag_111\n      jump\t// in\n    tag_154:\n        /* \"#utility.yul\":1052:1191   */\n      swap3\n      swap2\n      pop\n      pop\n      jump\t// out\n        /* \"#utility.yul\":1197:1671   */\n    tag_15:\n        /* \"#utility.yul\":1265:1271   */\n      0x00\n        /* \"#utility.yul\":1273:1279   */\n      dup1\n        /* \"#utility.yul\":1322:1324   */\n      0x40\n        /* \"#utility.yul\":1310:1319   */\n      dup4\n        /* \"#utility.yul\":1301:1308   */\n      dup6\n        /* \"#utility.yul\":1297:1320   */\n      sub\n        /* \"#utility.yul\":1293:1325   */\n      slt\n        /* \"#utility.yul\":1290:1409   */\n      iszero\n      tag_156\n      jumpi\n        /* \"#utility.yul\":1328:1407   */\n      tag_157\n      tag_104\n      jump\t// in\n    tag_157:\n        /* \"#utility.yul\":1290:1409   */\n    tag_156:\n        /* \"#utility.yul\":1448:1449   */\n      0x00\n        /* \"#utility.yul\":1473:1526   */\n      tag_158\n        /* \"#utility.yul\":1518:1525   */\n      dup6\n        /* \"#utility.yul\":1509:1515   */\n      dup3\n        /* \"#utility.yul\":1498:1507   */\n      dup7\n        /* \"#utility.yul\":1494:1516   */\n      add\n        /* \"#utility.yul\":1473:1526   */\n      tag_109\n      jump\t// in\n    tag_158:\n        /* \"#utility.yul\":1463:1526   */\n      swap3\n      pop\n        /* \"#utility.yul\":1419:1536   */\n      pop\n        /* \"#utility.yul\":1575:1577   */\n      0x20\n        /* \"#utility.yul\":1601:1654   */\n      tag_159\n        /* \"#utility.yul\":1646:1653   */\n      dup6\n        /* \"#utility.yul\":1637:1643   */\n      dup3\n        /* \"#utility.yul\":1626:1635   */\n      dup7\n        /* \"#utility.yul\":1622:1644   */\n      add\n        /* \"#utility.yul\":1601:1654   */\n      tag_112\n      jump\t// in\n    tag_159:\n        /* \"#utility.yul\":1591:1654   */\n      swap2\n      pop\n        /* \"#utility.yul\":1546:1664   */\n      pop\n        /* \"#utility.yul\":1197:1671   */\n      swap3\n      pop\n      swap3\n      swap1\n      pop\n      jump\t// out\n        /* \"#utility.yul\":1677:2006   */\n    tag_22:\n        /* \"#utility.yul\":1736:1742   */\n      0x00\n        /* \"#utility.yul\":1785:1787   */\n      0x20\n        /* \"#utility.yul\":1773:1782   */\n      dup3\n        /* \"#utility.yul\":1764:1771   */\n      dup5\n        /* \"#utility.yul\":1760:1783   */\n      sub\n        /* \"#utility.yul\":1756:1788   */\n      slt\n        /* \"#utility.yul\":1753:1872   */\n      iszero\n      tag_161\n      jumpi\n        /* \"#utility.yul\":1791:1870   */\n      tag_162\n      tag_104\n      jump\t// in\n    tag_162:\n        /* \"#utility.yul\":1753:1872   */\n    tag_161:\n        /* \"#utility.yul\":1911:1912   */\n      0x00\n        /* \"#utility.yul\":1936:1989   */\n      tag_163\n        /* \"#utility.yul\":1981:1988   */\n      dup5\n        /* \"#utility.yul\":1972:1978   */\n      dup3\n        /* \"#utility.yul\":1961:1970   */\n      dup6\n        /* \"#utility.yul\":1957:1979   */\n      add\n        /* \"#utility.yul\":1936:1989   */\n      tag_112\n      jump\t// in\n    tag_163:\n        /* \"#utility.yul\":1926:1989   */\n      swap2\n      pop\n        /* \"#utility.yul\":1882:1999   */\n      pop\n        /* \"#utility.yul\":1677:2006   */\n      swap3\n      swap2\n      pop\n      pop\n      jump\t// out\n        /* \"#utility.yul\":2012:2130   */\n    tag_113:\n        /* \"#utility.yul\":2099:2123   */\n      tag_165\n        /* \"#utility.yul\":2117:2122   */\n      dup2\n        /* \"#utility.yul\":2099:2123   */\n      tag_107\n      jump\t// in\n    tag_165:\n        /* \"#utility.yul\":2094:2097   */\n      dup3\n        /* \"#utility.yul\":2087:2124   */\n      mstore\n        /* \"#utility.yul\":2012:2130   */\n      pop\n      pop\n      jump\t// out\n        /* \"#utility.yul\":2136:2358   */\n    tag_25:\n        /* \"#utility.yul\":2229:2233   */\n      0x00\n        /* \"#utility.yul\":2267:2269   */\n      0x20\n        /* \"#utility.yul\":2256:2265   */\n      dup3\n        /* \"#utility.yul\":2252:2270   */\n      add\n        /* \"#utility.yul\":2244:2270   */\n      swap1\n      pop\n        /* \"#utility.yul\":2280:2351   */\n      tag_167\n        /* \"#utility.yul\":2348:2349   */\n      0x00\n        /* \"#utility.yul\":2337:2346   */\n      dup4\n        /* \"#utility.yul\":2333:2350   */\n      add\n        /* \"#utility.yul\":2324:2330   */\n      dup5\n        /* \"#utility.yul\":2280:2351   */\n      tag_113\n      jump\t// in\n    tag_167:\n        /* \"#utility.yul\":2136:2358   */\n      swap3\n      swap2\n      pop\n      pop\n      jump\t// out\n        /* \"#utility.yul\":2364:2693   */\n    tag_44:\n        /* \"#utility.yul\":2423:2429   */\n      0x00\n        /* \"#utility.yul\":2472:2474   */\n      0x20\n        /* \"#utility.yul\":2460:2469   */\n      dup3\n        /* \"#utility.yul\":2451:2458   */\n      dup5\n        /* \"#utility.yul\":2447:2470   */\n      sub\n        /* \"#utility.yul\":2443:2475   */\n      slt\n        /* \"#utility.yul\":2440:2559   */\n      iszero\n      tag_169\n      jumpi\n        /* \"#utility.yul\":2478:2557   */\n      tag_170\n      tag_104\n      jump\t// in\n    tag_170:\n        /* \"#utility.yul\":2440:2559   */\n    tag_169:\n        /* \"#utility.yul\":2598:2599   */\n      0x00\n        /* \"#utility.yul\":2623:2676   */\n      tag_171\n        /* \"#utility.yul\":2668:2675   */\n      dup5\n        /* \"#utility.yul\":2659:2665   */\n      dup3\n        /* \"#utility.yul\":2648:2657   */\n      dup6\n        /* \"#utility.yul\":2644:2666   */\n      add\n        /* \"#utility.yul\":2623:2676   */\n      tag_109\n      jump\t// in\n    tag_171:\n        /* \"#utility.yul\":2613:2676   */\n      swap2\n      pop\n        /* \"#utility.yul\":2569:2686   */\n      pop\n        /* \"#utility.yul\":2364:2693   */\n      swap3\n      swap2\n      pop\n      pop\n      jump\t// out\n        /* \"#utility.yul\":2699:2817   */\n    tag_114:\n        /* \"#utility.yul\":2786:2810   */\n      tag_173\n        /* \"#utility.yul\":2804:2809   */\n      dup2\n        /* \"#utility.yul\":2786:2810   */\n      tag_110\n      jump\t// in\n    tag_173:\n        /* \"#utility.yul\":2781:2784   */\n      dup3\n        /* \"#utility.yul\":2774:2811   */\n      mstore\n        /* \"#utility.yul\":2699:2817   */\n      pop\n      pop\n      jump\t// out\n        /* \"#utility.yul\":2823:3045   */\n    tag_47:\n        /* \"#utility.yul\":2916:2920   */\n      0x00\n        /* \"#utility.yul\":2954:2956   */\n      0x20\n        /* \"#utility.yul\":2943:2952   */\n      dup3\n        /* \"#utility.yul\":2939:2957   */\n      add\n        /* \"#utility.yul\":2931:2957   */\n      swap1\n      pop\n        /* \"#utility.yul\":2967:3038   */\n      tag_175\n        /* \"#utility.yul\":3035:3036   */\n      0x00\n        /* \"#utility.yul\":3024:3033   */\n      dup4\n        /* \"#utility.yul\":3020:3037   */\n      add\n        /* \"#utility.yul\":3011:3017   */\n      dup5\n        /* \"#utility.yul\":2967:3038   */\n      tag_114\n      jump\t// in\n    tag_175:\n        /* \"#utility.yul\":2823:3045   */\n      swap3\n      swap2\n      pop\n      pop\n      jump\t// out\n        /* \"#utility.yul\":3051:3220   */\n    tag_115:\n        /* \"#utility.yul\":3135:3146   */\n      0x00\n        /* \"#utility.yul\":3169:3175   */\n      dup3\n        /* \"#utility.yul\":3164:3167   */\n      dup3\n        /* \"#utility.yul\":3157:3176   */\n      mstore\n        /* \"#utility.yul\":3209:3213   */\n      0x20\n        /* \"#utility.yul\":3204:3207   */\n      dup3\n        /* \"#utility.yul\":3200:3214   */\n      add\n        /* \"#utility.yul\":3185:3214   */\n      swap1\n      pop\n        /* \"#utility.yul\":3051:3220   */\n      swap3\n      swap2\n      pop\n      pop\n      jump\t// out\n        /* \"#utility.yul\":3226:3408   */\n    tag_116:\n        /* \"#utility.yul\":3366:3400   */\n      0x636520746f6b656e206e27612070617320656e636f7265206574652063726565\n        /* \"#utility.yul\":3362:3363   */\n      0x00\n        /* \"#utility.yul\":3354:3360   */\n      dup3\n        /* \"#utility.yul\":3350:3364   */\n      add\n        /* \"#utility.yul\":3343:3401   */\n      mstore\n        /* \"#utility.yul\":3226:3408   */\n      pop\n      jump\t// out\n        /* \"#utility.yul\":3414:3780   */\n    tag_117:\n        /* \"#utility.yul\":3556:3559   */\n      0x00\n        /* \"#utility.yul\":3577:3644   */\n      tag_179\n        /* \"#utility.yul\":3641:3643   */\n      0x20\n        /* \"#utility.yul\":3636:3639   */\n      dup4\n        /* \"#utility.yul\":3577:3644   */\n      tag_115\n      jump\t// in\n    tag_179:\n        /* \"#utility.yul\":3570:3644   */\n      swap2\n      pop\n        /* \"#utility.yul\":3653:3746   */\n      tag_180\n        /* \"#utility.yul\":3742:3745   */\n      dup3\n        /* \"#utility.yul\":3653:3746   */\n      tag_116\n      jump\t// in\n    tag_180:\n        /* \"#utility.yul\":3771:3773   */\n      0x20\n        /* \"#utility.yul\":3766:3769   */\n      dup3\n        /* \"#utility.yul\":3762:3774   */\n      add\n        /* \"#utility.yul\":3755:3774   */\n      swap1\n      pop\n        /* \"#utility.yul\":3414:3780   */\n      swap2\n      swap1\n      pop\n      jump\t// out\n        /* \"#utility.yul\":3786:4205   */\n    tag_51:\n        /* \"#utility.yul\":3952:3956   */\n      0x00\n        /* \"#utility.yul\":3990:3992   */\n      0x20\n        /* \"#utility.yul\":3979:3988   */\n      dup3\n        /* \"#utility.yul\":3975:3993   */\n      add\n        /* \"#utility.yul\":3967:3993   */\n      swap1\n      pop\n        /* \"#utility.yul\":4039:4048   */\n      dup2\n        /* \"#utility.yul\":4033:4037   */\n      dup2\n        /* \"#utility.yul\":4029:4049   */\n      sub\n        /* \"#utility.yul\":4025:4026   */\n      0x00\n        /* \"#utility.yul\":4014:4023   */\n      dup4\n        /* \"#utility.yul\":4010:4027   */\n      add\n        /* \"#utility.yul\":4003:4050   */\n      mstore\n        /* \"#utility.yul\":4067:4198   */\n      tag_182\n        /* \"#utility.yul\":4193:4197   */\n      dup2\n        /* \"#utility.yul\":4067:4198   */\n      tag_117\n      jump\t// in\n    tag_182:\n        /* \"#utility.yul\":4059:4198   */\n      swap1\n      pop\n        /* \"#utility.yul\":3786:4205   */\n      swap2\n      swap1\n      pop\n      jump\t// out\n        /* \"#utility.yul\":4211:4440   */\n    tag_118:\n        /* \"#utility.yul\":4351:4385   */\n      0x617563756e6520617070726f626174696f6e206e276120656e636f7265206574\n        /* \"#utility.yul\":4347:4348   */\n      0x00\n        /* \"#utility.yul\":4339:4345   */\n      dup3\n        /* \"#utility.yul\":4335:4349   */\n      add\n        /* \"#utility.yul\":4328:4386   */\n      mstore\n        /* \"#utility.yul\":4420:4432   */\n      0x65207265616c6973656500000000000000000000000000000000000000000000\n        /* \"#utility.yul\":4415:4417   */\n      0x20\n        /* \"#utility.yul\":4407:4413   */\n      dup3\n        /* \"#utility.yul\":4403:4418   */\n      add\n        /* \"#utility.yul\":4396:4433   */\n      mstore\n        /* \"#utility.yul\":4211:4440   */\n      pop\n      jump\t// out\n        /* \"#utility.yul\":4446:4812   */\n    tag_119:\n        /* \"#utility.yul\":4588:4591   */\n      0x00\n        /* \"#utility.yul\":4609:4676   */\n      tag_185\n        /* \"#utility.yul\":4673:4675   */\n      0x2a\n        /* \"#utility.yul\":4668:4671   */\n      dup4\n        /* \"#utility.yul\":4609:4676   */\n      tag_115\n      jump\t// in\n    tag_185:\n        /* \"#utility.yul\":4602:4676   */\n      swap2\n      pop\n        /* \"#utility.yul\":4685:4778   */\n      tag_186\n        /* \"#utility.yul\":4774:4777   */\n      dup3\n        /* \"#utility.yul\":4685:4778   */\n      tag_118\n      jump\t// in\n    tag_186:\n        /* \"#utility.yul\":4803:4805   */\n      0x40\n        /* \"#utility.yul\":4798:4801   */\n      dup3\n        /* \"#utility.yul\":4794:4806   */\n      add\n        /* \"#utility.yul\":4787:4806   */\n      swap1\n      pop\n        /* \"#utility.yul\":4446:4812   */\n      swap2\n      swap1\n      pop\n      jump\t// out\n        /* \"#utility.yul\":4818:5237   */\n    tag_54:\n        /* \"#utility.yul\":4984:4988   */\n      0x00\n        /* \"#utility.yul\":5022:5024   */\n      0x20\n        /* \"#utility.yul\":5011:5020   */\n      dup3\n        /* \"#utility.yul\":5007:5025   */\n      add\n        /* \"#utility.yul\":4999:5025   */\n      swap1\n      pop\n        /* \"#utility.yul\":5071:5080   */\n      dup2\n        /* \"#utility.yul\":5065:5069   */\n      dup2\n        /* \"#utility.yul\":5061:5081   */\n      sub\n        /* \"#utility.yul\":5057:5058   */\n      0x00\n        /* \"#utility.yul\":5046:5055   */\n      dup4\n        /* \"#utility.yul\":5042:5059   */\n      add\n        /* \"#utility.yul\":5035:5082   */\n      mstore\n        /* \"#utility.yul\":5099:5230   */\n      tag_188\n        /* \"#utility.yul\":5225:5229   */\n      dup2\n        /* \"#utility.yul\":5099:5230   */\n      tag_119\n      jump\t// in\n    tag_188:\n        /* \"#utility.yul\":5091:5230   */\n      swap1\n      pop\n        /* \"#utility.yul\":4818:5237   */\n      swap2\n      swap1\n      pop\n      jump\t// out\n        /* \"#utility.yul\":5243:5479   */\n    tag_120:\n        /* \"#utility.yul\":5383:5417   */\n      0x617563756e6520617070726f626174696f6e206e65207427612065746520646f\n        /* \"#utility.yul\":5379:5380   */\n      0x00\n        /* \"#utility.yul\":5371:5377   */\n      dup3\n        /* \"#utility.yul\":5367:5381   */\n      add\n        /* \"#utility.yul\":5360:5418   */\n      mstore\n        /* \"#utility.yul\":5452:5471   */\n      0x6e6e6520706f757220636520746f6b656e000000000000000000000000000000\n        /* \"#utility.yul\":5447:5449   */\n      0x20\n        /* \"#utility.yul\":5439:5445   */\n      dup3\n        /* \"#utility.yul\":5435:5450   */\n      add\n        /* \"#utility.yul\":5428:5472   */\n      mstore\n        /* \"#utility.yul\":5243:5479   */\n      pop\n      jump\t// out\n        /* \"#utility.yul\":5485:5851   */\n    tag_121:\n        /* \"#utility.yul\":5627:5630   */\n      0x00\n        /* \"#utility.yul\":5648:5715   */\n      tag_191\n        /* \"#utility.yul\":5712:5714   */\n      0x31\n        /* \"#utility.yul\":5707:5710   */\n      dup4\n        /* \"#utility.yul\":5648:5715   */\n      tag_115\n      jump\t// in\n    tag_191:\n        /* \"#utility.yul\":5641:5715   */\n      swap2\n      pop\n        /* \"#utility.yul\":5724:5817   */\n      tag_192\n        /* \"#utility.yul\":5813:5816   */\n      dup3\n        /* \"#utility.yul\":5724:5817   */\n      tag_120\n      jump\t// in\n    tag_192:\n        /* \"#utility.yul\":5842:5844   */\n      0x40\n        /* \"#utility.yul\":5837:5840   */\n      dup3\n        /* \"#utility.yul\":5833:5845   */\n      add\n        /* \"#utility.yul\":5826:5845   */\n      swap1\n      pop\n        /* \"#utility.yul\":5485:5851   */\n      swap2\n      swap1\n      pop\n      jump\t// out\n        /* \"#utility.yul\":5857:6276   */\n    tag_57:\n        /* \"#utility.yul\":6023:6027   */\n      0x00\n        /* \"#utility.yul\":6061:6063   */\n      0x20\n        /* \"#utility.yul\":6050:6059   */\n      dup3\n        /* \"#utility.yul\":6046:6064   */\n      add\n        /* \"#utility.yul\":6038:6064   */\n      swap1\n      pop\n        /* \"#utility.yul\":6110:6119   */\n      dup2\n        /* \"#utility.yul\":6104:6108   */\n      dup2\n        /* \"#utility.yul\":6100:6120   */\n      sub\n        /* \"#utility.yul\":6096:6097   */\n      0x00\n        /* \"#utility.yul\":6085:6094   */\n      dup4\n        /* \"#utility.yul\":6081:6098   */\n      add\n        /* \"#utility.yul\":6074:6121   */\n      mstore\n        /* \"#utility.yul\":6138:6269   */\n      tag_194\n        /* \"#utility.yul\":6264:6268   */\n      dup2\n        /* \"#utility.yul\":6138:6269   */\n      tag_121\n      jump\t// in\n    tag_194:\n        /* \"#utility.yul\":6130:6269   */\n      swap1\n      pop\n        /* \"#utility.yul\":5857:6276   */\n      swap2\n      swap1\n      pop\n      jump\t// out\n        /* \"#utility.yul\":6282:6598   */\n    tag_122:\n        /* \"#utility.yul\":6422:6456   */\n      0x7475206e27657320706173206c652070726f7072696574616972652064752074\n        /* \"#utility.yul\":6418:6419   */\n      0x00\n        /* \"#utility.yul\":6410:6416   */\n      dup3\n        /* \"#utility.yul\":6406:6420   */\n      add\n        /* \"#utility.yul\":6399:6457   */\n      mstore\n        /* \"#utility.yul\":6491:6525   */\n      0x6f6b656e2c207475206e27617320646f6e6320706173206c65732064726f6974\n        /* \"#utility.yul\":6486:6488   */\n      0x20\n        /* \"#utility.yul\":6478:6484   */\n      dup3\n        /* \"#utility.yul\":6474:6489   */\n      add\n        /* \"#utility.yul\":6467:6526   */\n      mstore\n        /* \"#utility.yul\":6560:6590   */\n      0x7320706f7572207265616c6973657220636574746520616374696f6e00000000\n        /* \"#utility.yul\":6555:6557   */\n      0x40\n        /* \"#utility.yul\":6547:6553   */\n      dup3\n        /* \"#utility.yul\":6543:6558   */\n      add\n        /* \"#utility.yul\":6536:6591   */\n      mstore\n        /* \"#utility.yul\":6282:6598   */\n      pop\n      jump\t// out\n        /* \"#utility.yul\":6604:6970   */\n    tag_123:\n        /* \"#utility.yul\":6746:6749   */\n      0x00\n        /* \"#utility.yul\":6767:6834   */\n      tag_197\n        /* \"#utility.yul\":6831:6833   */\n      0x5c\n        /* \"#utility.yul\":6826:6829   */\n      dup4\n        /* \"#utility.yul\":6767:6834   */\n      tag_115\n      jump\t// in\n    tag_197:\n        /* \"#utility.yul\":6760:6834   */\n      swap2\n      pop\n        /* \"#utility.yul\":6843:6936   */\n      tag_198\n        /* \"#utility.yul\":6932:6935   */\n      dup3\n        /* \"#utility.yul\":6843:6936   */\n      tag_122\n      jump\t// in\n    tag_198:\n        /* \"#utility.yul\":6961:6963   */\n      0x60\n        /* \"#utility.yul\":6956:6959   */\n      dup3\n        /* \"#utility.yul\":6952:6964   */\n      add\n        /* \"#utility.yul\":6945:6964   */\n      swap1\n      pop\n        /* \"#utility.yul\":6604:6970   */\n      swap2\n      swap1\n      pop\n      jump\t// out\n        /* \"#utility.yul\":6976:7395   */\n    tag_63:\n        /* \"#utility.yul\":7142:7146   */\n      0x00\n        /* \"#utility.yul\":7180:7182   */\n      0x20\n        /* \"#utility.yul\":7169:7178   */\n      dup3\n        /* \"#utility.yul\":7165:7183   */\n      add\n        /* \"#utility.yul\":7157:7183   */\n      swap1\n      pop\n        /* \"#utility.yul\":7229:7238   */\n      dup2\n        /* \"#utility.yul\":7223:7227   */\n      dup2\n        /* \"#utility.yul\":7219:7239   */\n      sub\n        /* \"#utility.yul\":7215:7216   */\n      0x00\n        /* \"#utility.yul\":7204:7213   */\n      dup4\n        /* \"#utility.yul\":7200:7217   */\n      add\n        /* \"#utility.yul\":7193:7240   */\n      mstore\n        /* \"#utility.yul\":7257:7388   */\n      tag_200\n        /* \"#utility.yul\":7383:7387   */\n      dup2\n        /* \"#utility.yul\":7257:7388   */\n      tag_123\n      jump\t// in\n    tag_200:\n        /* \"#utility.yul\":7249:7388   */\n      swap1\n      pop\n        /* \"#utility.yul\":6976:7395   */\n      swap2\n      swap1\n      pop\n      jump\t// out\n        /* \"#utility.yul\":7401:7636   */\n    tag_124:\n        /* \"#utility.yul\":7541:7575   */\n      0x696c2065737420696e74657264697420646520666169726520756e206d696e74\n        /* \"#utility.yul\":7537:7538   */\n      0x00\n        /* \"#utility.yul\":7529:7535   */\n      dup3\n        /* \"#utility.yul\":7525:7539   */\n      add\n        /* \"#utility.yul\":7518:7576   */\n      mstore\n        /* \"#utility.yul\":7610:7628   */\n      0x20737572206c2761647265737365203000000000000000000000000000000000\n        /* \"#utility.yul\":7605:7607   */\n      0x20\n        /* \"#utility.yul\":7597:7603   */\n      dup3\n        /* \"#utility.yul\":7593:7608   */\n      add\n        /* \"#utility.yul\":7586:7629   */\n      mstore\n        /* \"#utility.yul\":7401:7636   */\n      pop\n      jump\t// out\n        /* \"#utility.yul\":7642:8008   */\n    tag_125:\n        /* \"#utility.yul\":7784:7787   */\n      0x00\n        /* \"#utility.yul\":7805:7872   */\n      tag_203\n        /* \"#utility.yul\":7869:7871   */\n      0x30\n        /* \"#utility.yul\":7864:7867   */\n      dup4\n        /* \"#utility.yul\":7805:7872   */\n      tag_115\n      jump\t// in\n    tag_203:\n        /* \"#utility.yul\":7798:7872   */\n      swap2\n      pop\n        /* \"#utility.yul\":7881:7974   */\n      tag_204\n        /* \"#utility.yul\":7970:7973   */\n      dup3\n        /* \"#utility.yul\":7881:7974   */\n      tag_124\n      jump\t// in\n    tag_204:\n        /* \"#utility.yul\":7999:8001   */\n      0x40\n        /* \"#utility.yul\":7994:7997   */\n      dup3\n        /* \"#utility.yul\":7990:8002   */\n      add\n        /* \"#utility.yul\":7983:8002   */\n      swap1\n      pop\n        /* \"#utility.yul\":7642:8008   */\n      swap2\n      swap1\n      pop\n      jump\t// out\n        /* \"#utility.yul\":8014:8433   */\n    tag_67:\n        /* \"#utility.yul\":8180:8184   */\n      0x00\n        /* \"#utility.yul\":8218:8220   */\n      0x20\n        /* \"#utility.yul\":8207:8216   */\n      dup3\n        /* \"#utility.yul\":8203:8221   */\n      add\n        /* \"#utility.yul\":8195:8221   */\n      swap1\n      pop\n        /* \"#utility.yul\":8267:8276   */\n      dup2\n        /* \"#utility.yul\":8261:8265   */\n      dup2\n        /* \"#utility.yul\":8257:8277   */\n      sub\n        /* \"#utility.yul\":8253:8254   */\n      0x00\n        /* \"#utility.yul\":8242:8251   */\n      dup4\n        /* \"#utility.yul\":8238:8255   */\n      add\n        /* \"#utility.yul\":8231:8278   */\n      mstore\n        /* \"#utility.yul\":8295:8426   */\n      tag_206\n        /* \"#utility.yul\":8421:8425   */\n      dup2\n        /* \"#utility.yul\":8295:8426   */\n      tag_125\n      jump\t// in\n    tag_206:\n        /* \"#utility.yul\":8287:8426   */\n      swap1\n      pop\n        /* \"#utility.yul\":8014:8433   */\n      swap2\n      swap1\n      pop\n      jump\t// out\n        /* \"#utility.yul\":8439:8607   */\n    tag_126:\n        /* \"#utility.yul\":8579:8599   */\n      0x6365206e6674206578697374652064656a610000000000000000000000000000\n        /* \"#utility.yul\":8575:8576   */\n      0x00\n        /* \"#utility.yul\":8567:8573   */\n      dup3\n        /* \"#utility.yul\":8563:8577   */\n      add\n        /* \"#utility.yul\":8556:8600   */\n      mstore\n        /* \"#utility.yul\":8439:8607   */\n      pop\n      jump\t// out\n        /* \"#utility.yul\":8613:8979   */\n    tag_127:\n        /* \"#utility.yul\":8755:8758   */\n      0x00\n        /* \"#utility.yul\":8776:8843   */\n      tag_209\n        /* \"#utility.yul\":8840:8842   */\n      0x12\n        /* \"#utility.yul\":8835:8838   */\n      dup4\n        /* \"#utility.yul\":8776:8843   */\n      tag_115\n      jump\t// in\n    tag_209:\n        /* \"#utility.yul\":8769:8843   */\n      swap2\n      pop\n        /* \"#utility.yul\":8852:8945   */\n      tag_210\n        /* \"#utility.yul\":8941:8944   */\n      dup3\n        /* \"#utility.yul\":8852:8945   */\n      tag_126\n      jump\t// in\n    tag_210:\n        /* \"#utility.yul\":8970:8972   */\n      0x20\n        /* \"#utility.yul\":8965:8968   */\n      dup3\n        /* \"#utility.yul\":8961:8973   */\n      add\n        /* \"#utility.yul\":8954:8973   */\n      swap1\n      pop\n        /* \"#utility.yul\":8613:8979   */\n      swap2\n      swap1\n      pop\n      jump\t// out\n        /* \"#utility.yul\":8985:9404   */\n    tag_70:\n        /* \"#utility.yul\":9151:9155   */\n      0x00\n        /* \"#utility.yul\":9189:9191   */\n      0x20\n        /* \"#utility.yul\":9178:9187   */\n      dup3\n        /* \"#utility.yul\":9174:9192   */\n      add\n        /* \"#utility.yul\":9166:9192   */\n      swap1\n      pop\n        /* \"#utility.yul\":9238:9247   */\n      dup2\n        /* \"#utility.yul\":9232:9236   */\n      dup2\n        /* \"#utility.yul\":9228:9248   */\n      sub\n        /* \"#utility.yul\":9224:9225   */\n      0x00\n        /* \"#utility.yul\":9213:9222   */\n      dup4\n        /* \"#utility.yul\":9209:9226   */\n      add\n        /* \"#utility.yul\":9202:9249   */\n      mstore\n        /* \"#utility.yul\":9266:9397   */\n      tag_212\n        /* \"#utility.yul\":9392:9396   */\n      dup2\n        /* \"#utility.yul\":9266:9397   */\n      tag_127\n      jump\t// in\n    tag_212:\n        /* \"#utility.yul\":9258:9397   */\n      swap1\n      pop\n        /* \"#utility.yul\":8985:9404   */\n      swap2\n      swap1\n      pop\n      jump\t// out\n        /* \"#utility.yul\":9410:9590   */\n    tag_128:\n        /* \"#utility.yul\":9458:9535   */\n      0x4e487b7100000000000000000000000000000000000000000000000000000000\n        /* \"#utility.yul\":9455:9456   */\n      0x00\n        /* \"#utility.yul\":9448:9536   */\n      mstore\n        /* \"#utility.yul\":9555:9559   */\n      0x11\n        /* \"#utility.yul\":9552:9553   */\n      0x04\n        /* \"#utility.yul\":9545:9560   */\n      mstore\n        /* \"#utility.yul\":9579:9583   */\n      0x24\n        /* \"#utility.yul\":9576:9577   */\n      0x00\n        /* \"#utility.yul\":9569:9584   */\n      revert\n        /* \"#utility.yul\":9596:9829   */\n    tag_72:\n        /* \"#utility.yul\":9635:9638   */\n      0x00\n        /* \"#utility.yul\":9658:9682   */\n      tag_215\n        /* \"#utility.yul\":9676:9681   */\n      dup3\n        /* \"#utility.yul\":9658:9682   */\n      tag_110\n      jump\t// in\n    tag_215:\n        /* \"#utility.yul\":9649:9682   */\n      swap2\n      pop\n        /* \"#utility.yul\":9704:9770   */\n      0xffffffffffffffffffffffffffffffffffffffffffffffffffffffffffffffff\n        /* \"#utility.yul\":9697:9702   */\n      dup3\n        /* \"#utility.yul\":9694:9771   */\n      sub\n        /* \"#utility.yul\":9691:9794   */\n      tag_216\n      jumpi\n        /* \"#utility.yul\":9774:9792   */\n      tag_217\n      tag_128\n      jump\t// in\n    tag_217:\n        /* \"#utility.yul\":9691:9794   */\n    tag_216:\n        /* \"#utility.yul\":9821:9822   */\n      0x01\n        /* \"#utility.yul\":9814:9819   */\n      dup3\n        /* \"#utility.yul\":9810:9823   */\n      add\n        /* \"#utility.yul\":9803:9823   */\n      swap1\n      pop\n        /* \"#utility.yul\":9596:9829   */\n      swap2\n      swap1\n      pop\n      jump\t// out\n        /* \"#utility.yul\":9835:10061   */\n    tag_129:\n        /* \"#utility.yul\":9975:10009   */\n      0x7475206e27657320706173206c652070726f7072696574616972652064652063\n        /* \"#utility.yul\":9971:9972   */\n      0x00\n        /* \"#utility.yul\":9963:9969   */\n      dup3\n        /* \"#utility.yul\":9959:9973   */\n      add\n        /* \"#utility.yul\":9952:10010   */\n      mstore\n        /* \"#utility.yul\":10044:10053   */\n      0x6520746f6b656e00000000000000000000000000000000000000000000000000\n        /* \"#utility.yul\":10039:10041   */\n      0x20\n        /* \"#utility.yul\":10031:10037   */\n      dup3\n        /* \"#utility.yul\":10027:10042   */\n      add\n        /* \"#utility.yul\":10020:10054   */\n      mstore\n        /* \"#utility.yul\":9835:10061   */\n      pop\n      jump\t// out\n        /* \"#utility.yul\":10067:10433   */\n    tag_130:\n        /* \"#utility.yul\":10209:10212   */\n      0x00\n        /* \"#utility.yul\":10230:10297   */\n      tag_220\n        /* \"#utility.yul\":10294:10296   */\n      0x27\n        /* \"#utility.yul\":10289:10292   */\n      dup4\n        /* \"#utility.yul\":10230:10297   */\n      tag_115\n      jump\t// in\n    tag_220:\n        /* \"#utility.yul\":10223:10297   */\n      swap2\n      pop\n        /* \"#utility.yul\":10306:10399   */\n      tag_221\n        /* \"#utility.yul\":10395:10398   */\n      dup3\n        /* \"#utility.yul\":10306:10399   */\n      tag_129\n      jump\t// in\n    tag_221:\n        /* \"#utility.yul\":10424:10426   */\n      0x40\n        /* \"#utility.yul\":10419:10422   */\n      dup3\n        /* \"#utility.yul\":10415:10427   */\n      add\n        /* \"#utility.yul\":10408:10427   */\n      swap1\n      pop\n        /* \"#utility.yul\":10067:10433   */\n      swap2\n      swap1\n      pop\n      jump\t// out\n        /* \"#utility.yul\":10439:10858   */\n    tag_78:\n        /* \"#utility.yul\":10605:10609   */\n      0x00\n        /* \"#utility.yul\":10643:10645   */\n      0x20\n        /* \"#utility.yul\":10632:10641   */\n      dup3\n        /* \"#utility.yul\":10628:10646   */\n      add\n        /* \"#utility.yul\":10620:10646   */\n      swap1\n      pop\n        /* \"#utility.yul\":10692:10701   */\n      dup2\n        /* \"#utility.yul\":10686:10690   */\n      dup2\n        /* \"#utility.yul\":10682:10702   */\n      sub\n        /* \"#utility.yul\":10678:10679   */\n      0x00\n        /* \"#utility.yul\":10667:10676   */\n      dup4\n        /* \"#utility.yul\":10663:10680   */\n      add\n        /* \"#utility.yul\":10656:10703   */\n      mstore\n        /* \"#utility.yul\":10720:10851   */\n      tag_223\n        /* \"#utility.yul\":10846:10850   */\n      dup2\n        /* \"#utility.yul\":10720:10851   */\n      tag_130\n      jump\t// in\n    tag_223:\n        /* \"#utility.yul\":10712:10851   */\n      swap1\n      pop\n        /* \"#utility.yul\":10439:10858   */\n      swap2\n      swap1\n      pop\n      jump\t// out\n        /* \"#utility.yul\":10864:11035   */\n    tag_80:\n        /* \"#utility.yul\":10903:10906   */\n      0x00\n        /* \"#utility.yul\":10926:10950   */\n      tag_225\n        /* \"#utility.yul\":10944:10949   */\n      dup3\n        /* \"#utility.yul\":10926:10950   */\n      tag_110\n      jump\t// in\n    tag_225:\n        /* \"#utility.yul\":10917:10950   */\n      swap2\n      pop\n        /* \"#utility.yul\":10972:10976   */\n      0x00\n        /* \"#utility.yul\":10965:10970   */\n      dup3\n        /* \"#utility.yul\":10962:10977   */\n      sub\n        /* \"#utility.yul\":10959:11000   */\n      tag_226\n      jumpi\n        /* \"#utility.yul\":10980:10998   */\n      tag_227\n      tag_128\n      jump\t// in\n    tag_227:\n        /* \"#utility.yul\":10959:11000   */\n    tag_226:\n        /* \"#utility.yul\":11027:11028   */\n      0x01\n        /* \"#utility.yul\":11020:11025   */\n      dup3\n        /* \"#utility.yul\":11016:11029   */\n      sub\n        /* \"#utility.yul\":11009:11029   */\n      swap1\n      pop\n        /* \"#utility.yul\":10864:11035   */\n      swap2\n      swap1\n      pop\n      jump\t// out\n        /* \"#utility.yul\":11041:11273   */\n    tag_131:\n        /* \"#utility.yul\":11181:11215   */\n      0x7475206e27617320706173206c652064726f6974206427617070656c65722063\n        /* \"#utility.yul\":11177:11178   */\n      0x00\n        /* \"#utility.yul\":11169:11175   */\n      dup3\n        /* \"#utility.yul\":11165:11179   */\n      add\n        /* \"#utility.yul\":11158:11216   */\n      mstore\n        /* \"#utility.yul\":11250:11265   */\n      0x6574746520666f6e6374696f6e00000000000000000000000000000000000000\n        /* \"#utility.yul\":11245:11247   */\n      0x20\n        /* \"#utility.yul\":11237:11243   */\n      dup3\n        /* \"#utility.yul\":11233:11248   */\n      add\n        /* \"#utility.yul\":11226:11266   */\n      mstore\n        /* \"#utility.yul\":11041:11273   */\n      pop\n      jump\t// out\n        /* \"#utility.yul\":11279:11645   */\n    tag_132:\n        /* \"#utility.yul\":11421:11424   */\n      0x00\n        /* \"#utility.yul\":11442:11509   */\n      tag_230\n        /* \"#utility.yul\":11506:11508   */\n      0x2d\n        /* \"#utility.yul\":11501:11504   */\n      dup4\n        /* \"#utility.yul\":11442:11509   */\n      tag_115\n      jump\t// in\n    tag_230:\n        /* \"#utility.yul\":11435:11509   */\n      swap2\n      pop\n        /* \"#utility.yul\":11518:11611   */\n      tag_231\n        /* \"#utility.yul\":11607:11610   */\n      dup3\n        /* \"#utility.yul\":11518:11611   */\n      tag_131\n      jump\t// in\n    tag_231:\n        /* \"#utility.yul\":11636:11638   */\n      0x40\n        /* \"#utility.yul\":11631:11634   */\n      dup3\n        /* \"#utility.yul\":11627:11639   */\n      add\n        /* \"#utility.yul\":11620:11639   */\n      swap1\n      pop\n        /* \"#utility.yul\":11279:11645   */\n      swap2\n      swap1\n      pop\n      jump\t// out\n        /* \"#utility.yul\":11651:12070   */\n    tag_94:\n        /* \"#utility.yul\":11817:11821   */\n      0x00\n        /* \"#utility.yul\":11855:11857   */\n      0x20\n        /* \"#utility.yul\":11844:11853   */\n      dup3\n        /* \"#utility.yul\":11840:11858   */\n      add\n        /* \"#utility.yul\":11832:11858   */\n      swap1\n      pop\n        /* \"#utility.yul\":11904:11913   */\n      dup2\n        /* \"#utility.yul\":11898:11902   */\n      dup2\n        /* \"#utility.yul\":11894:11914   */\n      sub\n        /* \"#utility.yul\":11890:11891   */\n      0x00\n        /* \"#utility.yul\":11879:11888   */\n      dup4\n        /* \"#utility.yul\":11875:11892   */\n      add\n        /* \"#utility.yul\":11868:11915   */\n      mstore\n        /* \"#utility.yul\":11932:12063   */\n      tag_233\n        /* \"#utility.yul\":12058:12062   */\n      dup2\n        /* \"#utility.yul\":11932:12063   */\n      tag_132\n      jump\t// in\n    tag_233:\n        /* \"#utility.yul\":11924:12063   */\n      swap1\n      pop\n        /* \"#utility.yul\":11651:12070   */\n      swap2\n      swap1\n      pop\n      jump\t// out\n        /* \"#utility.yul\":12076:12368   */\n    tag_133:\n        /* \"#utility.yul\":12216:12250   */\n      0x7475206e27617320706173206c652064726f6974206465207265616c69736572\n        /* \"#utility.yul\":12212:12213   */\n      0x00\n        /* \"#utility.yul\":12204:12210   */\n      dup3\n        /* \"#utility.yul\":12200:12214   */\n      add\n        /* \"#utility.yul\":12193:12251   */\n      mstore\n        /* \"#utility.yul\":12285:12319   */\n      0x20756e65207472616e73616374696f6e20646570756973206c27616464726573\n        /* \"#utility.yul\":12280:12282   */\n      0x20\n        /* \"#utility.yul\":12272:12278   */\n      dup3\n        /* \"#utility.yul\":12268:12283   */\n      add\n        /* \"#utility.yul\":12261:12320   */\n      mstore\n        /* \"#utility.yul\":12354:12360   */\n      0x7365203000000000000000000000000000000000000000000000000000000000\n        /* \"#utility.yul\":12349:12351   */\n      0x40\n        /* \"#utility.yul\":12341:12347   */\n      dup3\n        /* \"#utility.yul\":12337:12352   */\n      add\n        /* \"#utility.yul\":12330:12361   */\n      mstore\n        /* \"#utility.yul\":12076:12368   */\n      pop\n      jump\t// out\n        /* \"#utility.yul\":12374:12740   */\n    tag_134:\n        /* \"#utility.yul\":12516:12519   */\n      0x00\n        /* \"#utility.yul\":12537:12604   */\n      tag_236\n        /* \"#utility.yul\":12601:12603   */\n      0x44\n        /* \"#utility.yul\":12596:12599   */\n      dup4\n        /* \"#utility.yul\":12537:12604   */\n      tag_115\n      jump\t// in\n    tag_236:\n        /* \"#utility.yul\":12530:12604   */\n      swap2\n      pop\n        /* \"#utility.yul\":12613:12706   */\n      tag_237\n        /* \"#utility.yul\":12702:12705   */\n      dup3\n        /* \"#utility.yul\":12613:12706   */\n      tag_133\n      jump\t// in\n    tag_237:\n        /* \"#utility.yul\":12731:12733   */\n      0x60\n        /* \"#utility.yul\":12726:12729   */\n      dup3\n        /* \"#utility.yul\":12722:12734   */\n      add\n        /* \"#utility.yul\":12715:12734   */\n      swap1\n      pop\n        /* \"#utility.yul\":12374:12740   */\n      swap2\n      swap1\n      pop\n      jump\t// out\n        /* \"#utility.yul\":12746:13165   */\n    tag_97:\n        /* \"#utility.yul\":12912:12916   */\n      0x00\n        /* \"#utility.yul\":12950:12952   */\n      0x20\n        /* \"#utility.yul\":12939:12948   */\n      dup3\n        /* \"#utility.yul\":12935:12953   */\n      add\n        /* \"#utility.yul\":12927:12953   */\n      swap1\n      pop\n        /* \"#utility.yul\":12999:13008   */\n      dup2\n        /* \"#utility.yul\":12993:12997   */\n      dup2\n        /* \"#utility.yul\":12989:13009   */\n      sub\n        /* \"#utility.yul\":12985:12986   */\n      0x00\n        /* \"#utility.yul\":12974:12983   */\n      dup4\n        /* \"#utility.yul\":12970:12987   */\n      add\n        /* \"#utility.yul\":12963:13010   */\n      mstore\n        /* \"#utility.yul\":13027:13158   */\n      tag_239\n        /* \"#utility.yul\":13153:13157   */\n      dup2\n        /* \"#utility.yul\":13027:13158   */\n      tag_134\n      jump\t// in\n    tag_239:\n        /* \"#utility.yul\":13019:13158   */\n      swap1\n      pop\n        /* \"#utility.yul\":12746:13165   */\n      swap2\n      swap1\n      pop\n      jump\t// out\n        /* \"#utility.yul\":13171:13416   */\n    tag_135:\n        /* \"#utility.yul\":13311:13345   */\n      0x7475206e27617320706173206c652064726f6974206465207472616e73666572\n        /* \"#utility.yul\":13307:13308   */\n      0x00\n        /* \"#utility.yul\":13299:13305   */\n      dup3\n        /* \"#utility.yul\":13295:13309   */\n      add\n        /* \"#utility.yul\":13288:13346   */\n      mstore\n        /* \"#utility.yul\":13380:13408   */\n      0x74206c6520746f6b656e2061752070726f707269657461697265000000000000\n        /* \"#utility.yul\":13375:13377   */\n      0x20\n        /* \"#utility.yul\":13367:13373   */\n      dup3\n        /* \"#utility.yul\":13363:13378   */\n      add\n        /* \"#utility.yul\":13356:13409   */\n      mstore\n        /* \"#utility.yul\":13171:13416   */\n      pop\n      jump\t// out\n        /* \"#utility.yul\":13422:13788   */\n    tag_136:\n        /* \"#utility.yul\":13564:13567   */\n      0x00\n        /* \"#utility.yul\":13585:13652   */\n      tag_242\n        /* \"#utility.yul\":13649:13651   */\n      0x3a\n        /* \"#utility.yul\":13644:13647   */\n      dup4\n        /* \"#utility.yul\":13585:13652   */\n      tag_115\n      jump\t// in\n    tag_242:\n        /* \"#utility.yul\":13578:13652   */\n      swap2\n      pop\n        /* \"#utility.yul\":13661:13754   */\n      tag_243\n        /* \"#utility.yul\":13750:13753   */\n      dup3\n        /* \"#utility.yul\":13661:13754   */\n      tag_135\n      jump\t// in\n    tag_243:\n        /* \"#utility.yul\":13779:13781   */\n      0x40\n        /* \"#utility.yul\":13774:13777   */\n      dup3\n        /* \"#utility.yul\":13770:13782   */\n      add\n        /* \"#utility.yul\":13763:13782   */\n      swap1\n      pop\n        /* \"#utility.yul\":13422:13788   */\n      swap2\n      swap1\n      pop\n      jump\t// out\n        /* \"#utility.yul\":13794:14213   */\n    tag_100:\n        /* \"#utility.yul\":13960:13964   */\n      0x00\n        /* \"#utility.yul\":13998:14000   */\n      0x20\n        /* \"#utility.yul\":13987:13996   */\n      dup3\n        /* \"#utility.yul\":13983:14001   */\n      add\n        /* \"#utility.yul\":13975:14001   */\n      swap1\n      pop\n        /* \"#utility.yul\":14047:14056   */\n      dup2\n        /* \"#utility.yul\":14041:14045   */\n      dup2\n        /* \"#utility.yul\":14037:14057   */\n      sub\n        /* \"#utility.yul\":14033:14034   */\n      0x00\n        /* \"#utility.yul\":14022:14031   */\n      dup4\n        /* \"#utility.yul\":14018:14035   */\n      add\n        /* \"#utility.yul\":14011:14058   */\n      mstore\n        /* \"#utility.yul\":14075:14206   */\n      tag_245\n        /* \"#utility.yul\":14201:14205   */\n      dup2\n        /* \"#utility.yul\":14075:14206   */\n      tag_136\n      jump\t// in\n    tag_245:\n        /* \"#utility.yul\":14067:14206   */\n      swap1\n      pop\n        /* \"#utility.yul\":13794:14213   */\n      swap2\n      swap1\n      pop\n      jump\t// out\n\n    auxdata: 0xa264697066735822122016bf9c0011b0e70033a4a26a2a04a88842d124ec277981981a196456c94768af64736f6c63430008110033\n}\n",
				"bytecode": {
					"linkReferences": {},
					"object": "608060405234801561001057600080fd5b50611918806100206000396000f3fe608060405234801561001057600080fd5b50600436106100935760003560e01c806342966c681161006657806342966c681461011c5780634362c1161461013857806363035f6614610154578063cb819ecb14610184578063e6c234e0146101a057610093565b806304984cf214610098578063095ea7b3146100b45780633acf8d9d146100d057806340c10f1914610100575b600080fd5b6100b260048036038101906100ad919061118f565b6101d0565b005b6100ce60048036038101906100c9919061118f565b61043e565b005b6100ea60048036038101906100e591906111cf565b610604565b6040516100f7919061120b565b60405180910390f35b61011a6004803603810190610115919061118f565b610637565b005b610136600480360381019061013191906111cf565b61084d565b005b610152600480360381019061014d919061118f565b610a4b565b005b61016e600480360381019061016991906111cf565b610cba565b60405161017b919061120b565b60405180910390f35b61019e6004803603810190610199919061118f565b610ced565b005b6101ba60048036038101906101b59190611226565b6110de565b6040516101c79190611262565b60405180910390f35b600080600083815260200190815260200160002060009054906101000a900473ffffffffffffffffffffffffffffffffffffffff16905060006002600084815260200190815260200160002060009054906101000a900473ffffffffffffffffffffffffffffffffffffffff169050600073ffffffffffffffffffffffffffffffffffffffff168273ffffffffffffffffffffffffffffffffffffffff16036102ae576040517f08c379a00000000000000000000000000000000000000000000000000000000081526004016102a5906112da565b60405180910390fd5b600073ffffffffffffffffffffffffffffffffffffffff168173ffffffffffffffffffffffffffffffffffffffff160361031d576040517f08c379a00000000000000000000000000000000000000000000000000000000081526004016103149061136c565b60405180910390fd5b8073ffffffffffffffffffffffffffffffffffffffff163373ffffffffffffffffffffffffffffffffffffffff161461038b576040517f08c379a0000000000000000000000000000000000000000000000000000000008152600401610382906113fe565b60405180910390fd5b836002600085815260200190815260200160002060006101000a81548173ffffffffffffffffffffffffffffffffffffffff021916908373ffffffffffffffffffffffffffffffffffffffff160217905550828473ffffffffffffffffffffffffffffffffffffffff168273ffffffffffffffffffffffffffffffffffffffff167f8c5be1e5ebec7d5bd14f71427d1e84f3dd0314c0f7b2291e5b200ac8c7c3b92560405160405180910390a450505050565b600080600083815260200190815260200160002060009054906101000a900473ffffffffffffffffffffffffffffffffffffffff169050600073ffffffffffffffffffffffffffffffffffffffff168173ffffffffffffffffffffffffffffffffffffffff16036104e4576040517f08c379a00000000000000000000000000000000000000000000000000000000081526004016104db906112da565b60405180910390fd5b8073ffffffffffffffffffffffffffffffffffffffff163373ffffffffffffffffffffffffffffffffffffffff1614610552576040517f08c379a0000000000000000000000000000000000000000000000000000000008152600401610549906114b6565b60405180910390fd5b826002600084815260200190815260200160002060006101000a81548173ffffffffffffffffffffffffffffffffffffffff021916908373ffffffffffffffffffffffffffffffffffffffff160217905550818373ffffffffffffffffffffffffffffffffffffffff168273ffffffffffffffffffffffffffffffffffffffff167f8c5be1e5ebec7d5bd14f71427d1e84f3dd0314c0f7b2291e5b200ac8c7c3b92560405160405180910390a4505050565b60006020528060005260406000206000915054906101000a900473ffffffffffffffffffffffffffffffffffffffff1681565b600073ffffffffffffffffffffffffffffffffffffffff168273ffffffffffffffffffffffffffffffffffffffff16036106a6576040517f08c379a000000000000000000000000000000000000000000000000000000000815260040161069d90611548565b60405180910390fd5b600073ffffffffffffffffffffffffffffffffffffffff1660008083815260200190815260200160002060009054906101000a900473ffffffffffffffffffffffffffffffffffffffff1673ffffffffffffffffffffffffffffffffffffffff1614610747576040517f08c379a000000000000000000000000000000000000000000000000000000000815260040161073e906115b4565b60405180910390fd5b600160008373ffffffffffffffffffffffffffffffffffffffff1673ffffffffffffffffffffffffffffffffffffffff168152602001908152602001600020600081548092919061079790611603565b91905055508160008083815260200190815260200160002060006101000a81548173ffffffffffffffffffffffffffffffffffffffff021916908373ffffffffffffffffffffffffffffffffffffffff160217905550808273ffffffffffffffffffffffffffffffffffffffff16600073ffffffffffffffffffffffffffffffffffffffff167faf9ff3ada675379ca19fdd908e550417162f2a7370166e8257b25888e55926e760405160405180910390a45050565b600080600083815260200190815260200160002060009054906101000a900473ffffffffffffffffffffffffffffffffffffffff169050600073ffffffffffffffffffffffffffffffffffffffff168173ffffffffffffffffffffffffffffffffffffffff16036108f3576040517f08c379a00000000000000000000000000000000000000000000000000000000081526004016108ea906112da565b60405180910390fd5b8073ffffffffffffffffffffffffffffffffffffffff163373ffffffffffffffffffffffffffffffffffffffff1614610961576040517f08c379a0000000000000000000000000000000000000000000000000000000008152600401610958906116bd565b60405180910390fd5b600160008273ffffffffffffffffffffffffffffffffffffffff1673ffffffffffffffffffffffffffffffffffffffff16815260200190815260200160002060008154809291906109b1906116dd565b919050555060008083815260200190815260200160002060006101000a81549073ffffffffffffffffffffffffffffffffffffffff021916905581600073ffffffffffffffffffffffffffffffffffffffff168273ffffffffffffffffffffffffffffffffffffffff167faf9ff3ada675379ca19fdd908e550417162f2a7370166e8257b25888e55926e760405160405180910390a45050565b600080600083815260200190815260200160002060009054906101000a900473ffffffffffffffffffffffffffffffffffffffff169050600073ffffffffffffffffffffffffffffffffffffffff168173ffffffffffffffffffffffffffffffffffffffff1603610af1576040517f08c379a0000000000000000000000000000000000000000000000000000000008152600401610ae8906112da565b60405180910390fd5b8073ffffffffffffffffffffffffffffffffffffffff163373ffffffffffffffffffffffffffffffffffffffff1614610b5f576040517f08c379a0000000000000000000000000000000000000000000000000000000008152600401610b56906116bd565b60405180910390fd5b600160008273ffffffffffffffffffffffffffffffffffffffff1673ffffffffffffffffffffffffffffffffffffffff1681526020019081526020016000206000815480929190610baf906116dd565b9190505550600160008473ffffffffffffffffffffffffffffffffffffffff1673ffffffffffffffffffffffffffffffffffffffff1681526020019081526020016000206000815480929190610c0490611603565b91905055508260008084815260200190815260200160002060006101000a81548173ffffffffffffffffffffffffffffffffffffffff021916908373ffffffffffffffffffffffffffffffffffffffff160217905550818373ffffffffffffffffffffffffffffffffffffffff168273ffffffffffffffffffffffffffffffffffffffff167faf9ff3ada675379ca19fdd908e550417162f2a7370166e8257b25888e55926e760405160405180910390a4505050565b60026020528060005260406000206000915054906101000a900473ffffffffffffffffffffffffffffffffffffffff1681565b600080600083815260200190815260200160002060009054906101000a900473ffffffffffffffffffffffffffffffffffffffff16905060006002600084815260200190815260200160002060009054906101000a900473ffffffffffffffffffffffffffffffffffffffff169050600073ffffffffffffffffffffffffffffffffffffffff168273ffffffffffffffffffffffffffffffffffffffff1603610dcb576040517f08c379a0000000000000000000000000000000000000000000000000000000008152600401610dc2906112da565b60405180910390fd5b8173ffffffffffffffffffffffffffffffffffffffff163373ffffffffffffffffffffffffffffffffffffffff161480610e3057508073ffffffffffffffffffffffffffffffffffffffff163373ffffffffffffffffffffffffffffffffffffffff16145b610e6f576040517f08c379a0000000000000000000000000000000000000000000000000000000008152600401610e6690611778565b60405180910390fd5b600073ffffffffffffffffffffffffffffffffffffffff163373ffffffffffffffffffffffffffffffffffffffff1603610ede576040517f08c379a0000000000000000000000000000000000000000000000000000000008152600401610ed590611830565b60405180910390fd5b8373ffffffffffffffffffffffffffffffffffffffff163373ffffffffffffffffffffffffffffffffffffffff1603610f4c576040517f08c379a0000000000000000000000000000000000000000000000000000000008152600401610f43906118c2565b60405180910390fd5b600160008373ffffffffffffffffffffffffffffffffffffffff1673ffffffffffffffffffffffffffffffffffffffff1681526020019081526020016000206000815480929190610f9c906116dd565b9190505550600160008573ffffffffffffffffffffffffffffffffffffffff1673ffffffffffffffffffffffffffffffffffffffff1681526020019081526020016000206000815480929190610ff190611603565b91905055508360008085815260200190815260200160002060006101000a81548173ffffffffffffffffffffffffffffffffffffffff021916908373ffffffffffffffffffffffffffffffffffffffff1602179055506002600084815260200190815260200160002060006101000a81549073ffffffffffffffffffffffffffffffffffffffff0219169055828473ffffffffffffffffffffffffffffffffffffffff163373ffffffffffffffffffffffffffffffffffffffff167faf9ff3ada675379ca19fdd908e550417162f2a7370166e8257b25888e55926e760405160405180910390a450505050565b60016020528060005260406000206000915090505481565b600080fd5b600073ffffffffffffffffffffffffffffffffffffffff82169050919050565b6000611126826110fb565b9050919050565b6111368161111b565b811461114157600080fd5b50565b6000813590506111538161112d565b92915050565b6000819050919050565b61116c81611159565b811461117757600080fd5b50565b60008135905061118981611163565b92915050565b600080604083850312156111a6576111a56110f6565b5b60006111b485828601611144565b92505060206111c58582860161117a565b9150509250929050565b6000602082840312156111e5576111e46110f6565b5b60006111f38482850161117a565b91505092915050565b6112058161111b565b82525050565b600060208201905061122060008301846111fc565b92915050565b60006020828403121561123c5761123b6110f6565b5b600061124a84828501611144565b91505092915050565b61125c81611159565b82525050565b60006020820190506112776000830184611253565b92915050565b600082825260208201905092915050565b7f636520746f6b656e206e27612070617320656e636f7265206574652063726565600082015250565b60006112c460208361127d565b91506112cf8261128e565b602082019050919050565b600060208201905081810360008301526112f3816112b7565b9050919050565b7f617563756e6520617070726f626174696f6e206e276120656e636f726520657460008201527f65207265616c6973656500000000000000000000000000000000000000000000602082015250565b6000611356602a8361127d565b9150611361826112fa565b604082019050919050565b6000602082019050818103600083015261138581611349565b9050919050565b7f617563756e6520617070726f626174696f6e206e65207427612065746520646f60008201527f6e6e6520706f757220636520746f6b656e000000000000000000000000000000602082015250565b60006113e860318361127d565b91506113f38261138c565b604082019050919050565b60006020820190508181036000830152611417816113db565b9050919050565b7f7475206e27657320706173206c652070726f707269657461697265206475207460008201527f6f6b656e2c207475206e27617320646f6e6320706173206c65732064726f697460208201527f7320706f7572207265616c6973657220636574746520616374696f6e00000000604082015250565b60006114a0605c8361127d565b91506114ab8261141e565b606082019050919050565b600060208201905081810360008301526114cf81611493565b9050919050565b7f696c2065737420696e74657264697420646520666169726520756e206d696e7460008201527f20737572206c2761647265737365203000000000000000000000000000000000602082015250565b600061153260308361127d565b915061153d826114d6565b604082019050919050565b6000602082019050818103600083015261156181611525565b9050919050565b7f6365206e6674206578697374652064656a610000000000000000000000000000600082015250565b600061159e60128361127d565b91506115a982611568565b602082019050919050565b600060208201905081810360008301526115cd81611591565b9050919050565b7f4e487b7100000000000000000000000000000000000000000000000000000000600052601160045260246000fd5b600061160e82611159565b91507fffffffffffffffffffffffffffffffffffffffffffffffffffffffffffffffff82036116405761163f6115d4565b5b600182019050919050565b7f7475206e27657320706173206c652070726f707269657461697265206465206360008201527f6520746f6b656e00000000000000000000000000000000000000000000000000602082015250565b60006116a760278361127d565b91506116b28261164b565b604082019050919050565b600060208201905081810360008301526116d68161169a565b9050919050565b60006116e882611159565b9150600082036116fb576116fa6115d4565b5b600182039050919050565b7f7475206e27617320706173206c652064726f6974206427617070656c6572206360008201527f6574746520666f6e6374696f6e00000000000000000000000000000000000000602082015250565b6000611762602d8361127d565b915061176d82611706565b604082019050919050565b6000602082019050818103600083015261179181611755565b9050919050565b7f7475206e27617320706173206c652064726f6974206465207265616c6973657260008201527f20756e65207472616e73616374696f6e20646570756973206c2761646472657360208201527f7365203000000000000000000000000000000000000000000000000000000000604082015250565b600061181a60448361127d565b915061182582611798565b606082019050919050565b600060208201905081810360008301526118498161180d565b9050919050565b7f7475206e27617320706173206c652064726f6974206465207472616e7366657260008201527f74206c6520746f6b656e2061752070726f707269657461697265000000000000602082015250565b60006118ac603a8361127d565b91506118b782611850565b604082019050919050565b600060208201905081810360008301526118db8161189f565b905091905056fea264697066735822122016bf9c0011b0e70033a4a26a2a04a88842d124ec277981981a196456c94768af64736f6c63430008110033",
					"opcodes": "PUSH1 0x80 PUSH1 0x40 MSTORE CALLVALUE DUP1 ISZERO PUSH2 0x10 JUMPI PUSH1 0x0 DUP1 REVERT JUMPDEST POP PUSH2 0x1918 DUP1 PUSH2 0x20 PUSH1 0x0 CODECOPY PUSH1 0x0 RETURN INVALID PUSH1 0x80 PUSH1 0x40 MSTORE CALLVALUE DUP1 ISZERO PUSH2 0x10 JUMPI PUSH1 0x0 DUP1 REVERT JUMPDEST POP PUSH1 0x4 CALLDATASIZE LT PUSH2 0x93 JUMPI PUSH1 0x0 CALLDATALOAD PUSH1 0xE0 SHR DUP1 PUSH4 0x42966C68 GT PUSH2 0x66 JUMPI DUP1 PUSH4 0x42966C68 EQ PUSH2 0x11C JUMPI DUP1 PUSH4 0x4362C116 EQ PUSH2 0x138 JUMPI DUP1 PUSH4 0x63035F66 EQ PUSH2 0x154 JUMPI DUP1 PUSH4 0xCB819ECB EQ PUSH2 0x184 JUMPI DUP1 PUSH4 0xE6C234E0 EQ PUSH2 0x1A0 JUMPI PUSH2 0x93 JUMP JUMPDEST DUP1 PUSH4 0x4984CF2 EQ PUSH2 0x98 JUMPI DUP1 PUSH4 0x95EA7B3 EQ PUSH2 0xB4 JUMPI DUP1 PUSH4 0x3ACF8D9D EQ PUSH2 0xD0 JUMPI DUP1 PUSH4 0x40C10F19 EQ PUSH2 0x100 JUMPI JUMPDEST PUSH1 0x0 DUP1 REVERT JUMPDEST PUSH2 0xB2 PUSH1 0x4 DUP1 CALLDATASIZE SUB DUP2 ADD SWAP1 PUSH2 0xAD SWAP2 SWAP1 PUSH2 0x118F JUMP JUMPDEST PUSH2 0x1D0 JUMP JUMPDEST STOP JUMPDEST PUSH2 0xCE PUSH1 0x4 DUP1 CALLDATASIZE SUB DUP2 ADD SWAP1 PUSH2 0xC9 SWAP2 SWAP1 PUSH2 0x118F JUMP JUMPDEST PUSH2 0x43E JUMP JUMPDEST STOP JUMPDEST PUSH2 0xEA PUSH1 0x4 DUP1 CALLDATASIZE SUB DUP2 ADD SWAP1 PUSH2 0xE5 SWAP2 SWAP1 PUSH2 0x11CF JUMP JUMPDEST PUSH2 0x604 JUMP JUMPDEST PUSH1 0x40 MLOAD PUSH2 0xF7 SWAP2 SWAP1 PUSH2 0x120B JUMP JUMPDEST PUSH1 0x40 MLOAD DUP1 SWAP2 SUB SWAP1 RETURN JUMPDEST PUSH2 0x11A PUSH1 0x4 DUP1 CALLDATASIZE SUB DUP2 ADD SWAP1 PUSH2 0x115 SWAP2 SWAP1 PUSH2 0x118F JUMP JUMPDEST PUSH2 0x637 JUMP JUMPDEST STOP JUMPDEST PUSH2 0x136 PUSH1 0x4 DUP1 CALLDATASIZE SUB DUP2 ADD SWAP1 PUSH2 0x131 SWAP2 SWAP1 PUSH2 0x11CF JUMP JUMPDEST PUSH2 0x84D JUMP JUMPDEST STOP JUMPDEST PUSH2 0x152 PUSH1 0x4 DUP1 CALLDATASIZE SUB DUP2 ADD SWAP1 PUSH2 0x14D SWAP2 SWAP1 PUSH2 0x118F JUMP JUMPDEST PUSH2 0xA4B JUMP JUMPDEST STOP JUMPDEST PUSH2 0x16E PUSH1 0x4 DUP1 CALLDATASIZE SUB DUP2 ADD SWAP1 PUSH2 0x169 SWAP2 SWAP1 PUSH2 0x11CF JUMP JUMPDEST PUSH2 0xCBA JUMP JUMPDEST PUSH1 0x40 MLOAD PUSH2 0x17B SWAP2 SWAP1 PUSH2 0x120B JUMP JUMPDEST PUSH1 0x40 MLOAD DUP1 SWAP2 SUB SWAP1 RETURN JUMPDEST PUSH2 0x19E PUSH1 0x4 DUP1 CALLDATASIZE SUB DUP2 ADD SWAP1 PUSH2 0x199 SWAP2 SWAP1 PUSH2 0x118F JUMP JUMPDEST PUSH2 0xCED JUMP JUMPDEST STOP JUMPDEST PUSH2 0x1BA PUSH1 0x4 DUP1 CALLDATASIZE SUB DUP2 ADD SWAP1 PUSH2 0x1B5 SWAP2 SWAP1 PUSH2 0x1226 JUMP JUMPDEST PUSH2 0x10DE JUMP JUMPDEST PUSH1 0x40 MLOAD PUSH2 0x1C7 SWAP2 SWAP1 PUSH2 0x1262 JUMP JUMPDEST PUSH1 0x40 MLOAD DUP1 SWAP2 SUB SWAP1 RETURN JUMPDEST PUSH1 0x0 DUP1 PUSH1 0x0 DUP4 DUP2 MSTORE PUSH1 0x20 ADD SWAP1 DUP2 MSTORE PUSH1 0x20 ADD PUSH1 0x0 KECCAK256 PUSH1 0x0 SWAP1 SLOAD SWAP1 PUSH2 0x100 EXP SWAP1 DIV PUSH20 0xFFFFFFFFFFFFFFFFFFFFFFFFFFFFFFFFFFFFFFFF AND SWAP1 POP PUSH1 0x0 PUSH1 0x2 PUSH1 0x0 DUP5 DUP2 MSTORE PUSH1 0x20 ADD SWAP1 DUP2 MSTORE PUSH1 0x20 ADD PUSH1 0x0 KECCAK256 PUSH1 0x0 SWAP1 SLOAD SWAP1 PUSH2 0x100 EXP SWAP1 DIV PUSH20 0xFFFFFFFFFFFFFFFFFFFFFFFFFFFFFFFFFFFFFFFF AND SWAP1 POP PUSH1 0x0 PUSH20 0xFFFFFFFFFFFFFFFFFFFFFFFFFFFFFFFFFFFFFFFF AND DUP3 PUSH20 0xFFFFFFFFFFFFFFFFFFFFFFFFFFFFFFFFFFFFFFFF AND SUB PUSH2 0x2AE JUMPI PUSH1 0x40 MLOAD PUSH32 0x8C379A000000000000000000000000000000000000000000000000000000000 DUP2 MSTORE PUSH1 0x4 ADD PUSH2 0x2A5 SWAP1 PUSH2 0x12DA JUMP JUMPDEST PUSH1 0x40 MLOAD DUP1 SWAP2 SUB SWAP1 REVERT JUMPDEST PUSH1 0x0 PUSH20 0xFFFFFFFFFFFFFFFFFFFFFFFFFFFFFFFFFFFFFFFF AND DUP2 PUSH20 0xFFFFFFFFFFFFFFFFFFFFFFFFFFFFFFFFFFFFFFFF AND SUB PUSH2 0x31D JUMPI PUSH1 0x40 MLOAD PUSH32 0x8C379A000000000000000000000000000000000000000000000000000000000 DUP2 MSTORE PUSH1 0x4 ADD PUSH2 0x314 SWAP1 PUSH2 0x136C JUMP JUMPDEST PUSH1 0x40 MLOAD DUP1 SWAP2 SUB SWAP1 REVERT JUMPDEST DUP1 PUSH20 0xFFFFFFFFFFFFFFFFFFFFFFFFFFFFFFFFFFFFFFFF AND CALLER PUSH20 0xFFFFFFFFFFFFFFFFFFFFFFFFFFFFFFFFFFFFFFFF AND EQ PUSH2 0x38B JUMPI PUSH1 0x40 MLOAD PUSH32 0x8C379A000000000000000000000000000000000000000000000000000000000 DUP2 MSTORE PUSH1 0x4 ADD PUSH2 0x382 SWAP1 PUSH2 0x13FE JUMP JUMPDEST PUSH1 0x40 MLOAD DUP1 SWAP2 SUB SWAP1 REVERT JUMPDEST DUP4 PUSH1 0x2 PUSH1 0x0 DUP6 DUP2 MSTORE PUSH1 0x20 ADD SWAP1 DUP2 MSTORE PUSH1 0x20 ADD PUSH1 0x0 KECCAK256 PUSH1 0x0 PUSH2 0x100 EXP DUP2 SLOAD DUP2 PUSH20 0xFFFFFFFFFFFFFFFFFFFFFFFFFFFFFFFFFFFFFFFF MUL NOT AND SWAP1 DUP4 PUSH20 0xFFFFFFFFFFFFFFFFFFFFFFFFFFFFFFFFFFFFFFFF AND MUL OR SWAP1 SSTORE POP DUP3 DUP5 PUSH20 0xFFFFFFFFFFFFFFFFFFFFFFFFFFFFFFFFFFFFFFFF AND DUP3 PUSH20 0xFFFFFFFFFFFFFFFFFFFFFFFFFFFFFFFFFFFFFFFF AND PUSH32 0x8C5BE1E5EBEC7D5BD14F71427D1E84F3DD0314C0F7B2291E5B200AC8C7C3B925 PUSH1 0x40 MLOAD PUSH1 0x40 MLOAD DUP1 SWAP2 SUB SWAP1 LOG4 POP POP POP POP JUMP JUMPDEST PUSH1 0x0 DUP1 PUSH1 0x0 DUP4 DUP2 MSTORE PUSH1 0x20 ADD SWAP1 DUP2 MSTORE PUSH1 0x20 ADD PUSH1 0x0 KECCAK256 PUSH1 0x0 SWAP1 SLOAD SWAP1 PUSH2 0x100 EXP SWAP1 DIV PUSH20 0xFFFFFFFFFFFFFFFFFFFFFFFFFFFFFFFFFFFFFFFF AND SWAP1 POP PUSH1 0x0 PUSH20 0xFFFFFFFFFFFFFFFFFFFFFFFFFFFFFFFFFFFFFFFF AND DUP2 PUSH20 0xFFFFFFFFFFFFFFFFFFFFFFFFFFFFFFFFFFFFFFFF AND SUB PUSH2 0x4E4 JUMPI PUSH1 0x40 MLOAD PUSH32 0x8C379A000000000000000000000000000000000000000000000000000000000 DUP2 MSTORE PUSH1 0x4 ADD PUSH2 0x4DB SWAP1 PUSH2 0x12DA JUMP JUMPDEST PUSH1 0x40 MLOAD DUP1 SWAP2 SUB SWAP1 REVERT JUMPDEST DUP1 PUSH20 0xFFFFFFFFFFFFFFFFFFFFFFFFFFFFFFFFFFFFFFFF AND CALLER PUSH20 0xFFFFFFFFFFFFFFFFFFFFFFFFFFFFFFFFFFFFFFFF AND EQ PUSH2 0x552 JUMPI PUSH1 0x40 MLOAD PUSH32 0x8C379A000000000000000000000000000000000000000000000000000000000 DUP2 MSTORE PUSH1 0x4 ADD PUSH2 0x549 SWAP1 PUSH2 0x14B6 JUMP JUMPDEST PUSH1 0x40 MLOAD DUP1 SWAP2 SUB SWAP1 REVERT JUMPDEST DUP3 PUSH1 0x2 PUSH1 0x0 DUP5 DUP2 MSTORE PUSH1 0x20 ADD SWAP1 DUP2 MSTORE PUSH1 0x20 ADD PUSH1 0x0 KECCAK256 PUSH1 0x0 PUSH2 0x100 EXP DUP2 SLOAD DUP2 PUSH20 0xFFFFFFFFFFFFFFFFFFFFFFFFFFFFFFFFFFFFFFFF MUL NOT AND SWAP1 DUP4 PUSH20 0xFFFFFFFFFFFFFFFFFFFFFFFFFFFFFFFFFFFFFFFF AND MUL OR SWAP1 SSTORE POP DUP2 DUP4 PUSH20 0xFFFFFFFFFFFFFFFFFFFFFFFFFFFFFFFFFFFFFFFF AND DUP3 PUSH20 0xFFFFFFFFFFFFFFFFFFFFFFFFFFFFFFFFFFFFFFFF AND PUSH32 0x8C5BE1E5EBEC7D5BD14F71427D1E84F3DD0314C0F7B2291E5B200AC8C7C3B925 PUSH1 0x40 MLOAD PUSH1 0x40 MLOAD DUP1 SWAP2 SUB SWAP1 LOG4 POP POP POP JUMP JUMPDEST PUSH1 0x0 PUSH1 0x20 MSTORE DUP1 PUSH1 0x0 MSTORE PUSH1 0x40 PUSH1 0x0 KECCAK256 PUSH1 0x0 SWAP2 POP SLOAD SWAP1 PUSH2 0x100 EXP SWAP1 DIV PUSH20 0xFFFFFFFFFFFFFFFFFFFFFFFFFFFFFFFFFFFFFFFF AND DUP2 JUMP JUMPDEST PUSH1 0x0 PUSH20 0xFFFFFFFFFFFFFFFFFFFFFFFFFFFFFFFFFFFFFFFF AND DUP3 PUSH20 0xFFFFFFFFFFFFFFFFFFFFFFFFFFFFFFFFFFFFFFFF AND SUB PUSH2 0x6A6 JUMPI PUSH1 0x40 MLOAD PUSH32 0x8C379A000000000000000000000000000000000000000000000000000000000 DUP2 MSTORE PUSH1 0x4 ADD PUSH2 0x69D SWAP1 PUSH2 0x1548 JUMP JUMPDEST PUSH1 0x40 MLOAD DUP1 SWAP2 SUB SWAP1 REVERT JUMPDEST PUSH1 0x0 PUSH20 0xFFFFFFFFFFFFFFFFFFFFFFFFFFFFFFFFFFFFFFFF AND PUSH1 0x0 DUP1 DUP4 DUP2 MSTORE PUSH1 0x20 ADD SWAP1 DUP2 MSTORE PUSH1 0x20 ADD PUSH1 0x0 KECCAK256 PUSH1 0x0 SWAP1 SLOAD SWAP1 PUSH2 0x100 EXP SWAP1 DIV PUSH20 0xFFFFFFFFFFFFFFFFFFFFFFFFFFFFFFFFFFFFFFFF AND PUSH20 0xFFFFFFFFFFFFFFFFFFFFFFFFFFFFFFFFFFFFFFFF AND EQ PUSH2 0x747 JUMPI PUSH1 0x40 MLOAD PUSH32 0x8C379A000000000000000000000000000000000000000000000000000000000 DUP2 MSTORE PUSH1 0x4 ADD PUSH2 0x73E SWAP1 PUSH2 0x15B4 JUMP JUMPDEST PUSH1 0x40 MLOAD DUP1 SWAP2 SUB SWAP1 REVERT JUMPDEST PUSH1 0x1 PUSH1 0x0 DUP4 PUSH20 0xFFFFFFFFFFFFFFFFFFFFFFFFFFFFFFFFFFFFFFFF AND PUSH20 0xFFFFFFFFFFFFFFFFFFFFFFFFFFFFFFFFFFFFFFFF AND DUP2 MSTORE PUSH1 0x20 ADD SWAP1 DUP2 MSTORE PUSH1 0x20 ADD PUSH1 0x0 KECCAK256 PUSH1 0x0 DUP2 SLOAD DUP1 SWAP3 SWAP2 SWAP1 PUSH2 0x797 SWAP1 PUSH2 0x1603 JUMP JUMPDEST SWAP2 SWAP1 POP SSTORE POP DUP2 PUSH1 0x0 DUP1 DUP4 DUP2 MSTORE PUSH1 0x20 ADD SWAP1 DUP2 MSTORE PUSH1 0x20 ADD PUSH1 0x0 KECCAK256 PUSH1 0x0 PUSH2 0x100 EXP DUP2 SLOAD DUP2 PUSH20 0xFFFFFFFFFFFFFFFFFFFFFFFFFFFFFFFFFFFFFFFF MUL NOT AND SWAP1 DUP4 PUSH20 0xFFFFFFFFFFFFFFFFFFFFFFFFFFFFFFFFFFFFFFFF AND MUL OR SWAP1 SSTORE POP DUP1 DUP3 PUSH20 0xFFFFFFFFFFFFFFFFFFFFFFFFFFFFFFFFFFFFFFFF AND PUSH1 0x0 PUSH20 0xFFFFFFFFFFFFFFFFFFFFFFFFFFFFFFFFFFFFFFFF AND PUSH32 0xAF9FF3ADA675379CA19FDD908E550417162F2A7370166E8257B25888E55926E7 PUSH1 0x40 MLOAD PUSH1 0x40 MLOAD DUP1 SWAP2 SUB SWAP1 LOG4 POP POP JUMP JUMPDEST PUSH1 0x0 DUP1 PUSH1 0x0 DUP4 DUP2 MSTORE PUSH1 0x20 ADD SWAP1 DUP2 MSTORE PUSH1 0x20 ADD PUSH1 0x0 KECCAK256 PUSH1 0x0 SWAP1 SLOAD SWAP1 PUSH2 0x100 EXP SWAP1 DIV PUSH20 0xFFFFFFFFFFFFFFFFFFFFFFFFFFFFFFFFFFFFFFFF AND SWAP1 POP PUSH1 0x0 PUSH20 0xFFFFFFFFFFFFFFFFFFFFFFFFFFFFFFFFFFFFFFFF AND DUP2 PUSH20 0xFFFFFFFFFFFFFFFFFFFFFFFFFFFFFFFFFFFFFFFF AND SUB PUSH2 0x8F3 JUMPI PUSH1 0x40 MLOAD PUSH32 0x8C379A000000000000000000000000000000000000000000000000000000000 DUP2 MSTORE PUSH1 0x4 ADD PUSH2 0x8EA SWAP1 PUSH2 0x12DA JUMP JUMPDEST PUSH1 0x40 MLOAD DUP1 SWAP2 SUB SWAP1 REVERT JUMPDEST DUP1 PUSH20 0xFFFFFFFFFFFFFFFFFFFFFFFFFFFFFFFFFFFFFFFF AND CALLER PUSH20 0xFFFFFFFFFFFFFFFFFFFFFFFFFFFFFFFFFFFFFFFF AND EQ PUSH2 0x961 JUMPI PUSH1 0x40 MLOAD PUSH32 0x8C379A000000000000000000000000000000000000000000000000000000000 DUP2 MSTORE PUSH1 0x4 ADD PUSH2 0x958 SWAP1 PUSH2 0x16BD JUMP JUMPDEST PUSH1 0x40 MLOAD DUP1 SWAP2 SUB SWAP1 REVERT JUMPDEST PUSH1 0x1 PUSH1 0x0 DUP3 PUSH20 0xFFFFFFFFFFFFFFFFFFFFFFFFFFFFFFFFFFFFFFFF AND PUSH20 0xFFFFFFFFFFFFFFFFFFFFFFFFFFFFFFFFFFFFFFFF AND DUP2 MSTORE PUSH1 0x20 ADD SWAP1 DUP2 MSTORE PUSH1 0x20 ADD PUSH1 0x0 KECCAK256 PUSH1 0x0 DUP2 SLOAD DUP1 SWAP3 SWAP2 SWAP1 PUSH2 0x9B1 SWAP1 PUSH2 0x16DD JUMP JUMPDEST SWAP2 SWAP1 POP SSTORE POP PUSH1 0x0 DUP1 DUP4 DUP2 MSTORE PUSH1 0x20 ADD SWAP1 DUP2 MSTORE PUSH1 0x20 ADD PUSH1 0x0 KECCAK256 PUSH1 0x0 PUSH2 0x100 EXP DUP2 SLOAD SWAP1 PUSH20 0xFFFFFFFFFFFFFFFFFFFFFFFFFFFFFFFFFFFFFFFF MUL NOT AND SWAP1 SSTORE DUP2 PUSH1 0x0 PUSH20 0xFFFFFFFFFFFFFFFFFFFFFFFFFFFFFFFFFFFFFFFF AND DUP3 PUSH20 0xFFFFFFFFFFFFFFFFFFFFFFFFFFFFFFFFFFFFFFFF AND PUSH32 0xAF9FF3ADA675379CA19FDD908E550417162F2A7370166E8257B25888E55926E7 PUSH1 0x40 MLOAD PUSH1 0x40 MLOAD DUP1 SWAP2 SUB SWAP1 LOG4 POP POP JUMP JUMPDEST PUSH1 0x0 DUP1 PUSH1 0x0 DUP4 DUP2 MSTORE PUSH1 0x20 ADD SWAP1 DUP2 MSTORE PUSH1 0x20 ADD PUSH1 0x0 KECCAK256 PUSH1 0x0 SWAP1 SLOAD SWAP1 PUSH2 0x100 EXP SWAP1 DIV PUSH20 0xFFFFFFFFFFFFFFFFFFFFFFFFFFFFFFFFFFFFFFFF AND SWAP1 POP PUSH1 0x0 PUSH20 0xFFFFFFFFFFFFFFFFFFFFFFFFFFFFFFFFFFFFFFFF AND DUP2 PUSH20 0xFFFFFFFFFFFFFFFFFFFFFFFFFFFFFFFFFFFFFFFF AND SUB PUSH2 0xAF1 JUMPI PUSH1 0x40 MLOAD PUSH32 0x8C379A000000000000000000000000000000000000000000000000000000000 DUP2 MSTORE PUSH1 0x4 ADD PUSH2 0xAE8 SWAP1 PUSH2 0x12DA JUMP JUMPDEST PUSH1 0x40 MLOAD DUP1 SWAP2 SUB SWAP1 REVERT JUMPDEST DUP1 PUSH20 0xFFFFFFFFFFFFFFFFFFFFFFFFFFFFFFFFFFFFFFFF AND CALLER PUSH20 0xFFFFFFFFFFFFFFFFFFFFFFFFFFFFFFFFFFFFFFFF AND EQ PUSH2 0xB5F JUMPI PUSH1 0x40 MLOAD PUSH32 0x8C379A000000000000000000000000000000000000000000000000000000000 DUP2 MSTORE PUSH1 0x4 ADD PUSH2 0xB56 SWAP1 PUSH2 0x16BD JUMP JUMPDEST PUSH1 0x40 MLOAD DUP1 SWAP2 SUB SWAP1 REVERT JUMPDEST PUSH1 0x1 PUSH1 0x0 DUP3 PUSH20 0xFFFFFFFFFFFFFFFFFFFFFFFFFFFFFFFFFFFFFFFF AND PUSH20 0xFFFFFFFFFFFFFFFFFFFFFFFFFFFFFFFFFFFFFFFF AND DUP2 MSTORE PUSH1 0x20 ADD SWAP1 DUP2 MSTORE PUSH1 0x20 ADD PUSH1 0x0 KECCAK256 PUSH1 0x0 DUP2 SLOAD DUP1 SWAP3 SWAP2 SWAP1 PUSH2 0xBAF SWAP1 PUSH2 0x16DD JUMP JUMPDEST SWAP2 SWAP1 POP SSTORE POP PUSH1 0x1 PUSH1 0x0 DUP5 PUSH20 0xFFFFFFFFFFFFFFFFFFFFFFFFFFFFFFFFFFFFFFFF AND PUSH20 0xFFFFFFFFFFFFFFFFFFFFFFFFFFFFFFFFFFFFFFFF AND DUP2 MSTORE PUSH1 0x20 ADD SWAP1 DUP2 MSTORE PUSH1 0x20 ADD PUSH1 0x0 KECCAK256 PUSH1 0x0 DUP2 SLOAD DUP1 SWAP3 SWAP2 SWAP1 PUSH2 0xC04 SWAP1 PUSH2 0x1603 JUMP JUMPDEST SWAP2 SWAP1 POP SSTORE POP DUP3 PUSH1 0x0 DUP1 DUP5 DUP2 MSTORE PUSH1 0x20 ADD SWAP1 DUP2 MSTORE PUSH1 0x20 ADD PUSH1 0x0 KECCAK256 PUSH1 0x0 PUSH2 0x100 EXP DUP2 SLOAD DUP2 PUSH20 0xFFFFFFFFFFFFFFFFFFFFFFFFFFFFFFFFFFFFFFFF MUL NOT AND SWAP1 DUP4 PUSH20 0xFFFFFFFFFFFFFFFFFFFFFFFFFFFFFFFFFFFFFFFF AND MUL OR SWAP1 SSTORE POP DUP2 DUP4 PUSH20 0xFFFFFFFFFFFFFFFFFFFFFFFFFFFFFFFFFFFFFFFF AND DUP3 PUSH20 0xFFFFFFFFFFFFFFFFFFFFFFFFFFFFFFFFFFFFFFFF AND PUSH32 0xAF9FF3ADA675379CA19FDD908E550417162F2A7370166E8257B25888E55926E7 PUSH1 0x40 MLOAD PUSH1 0x40 MLOAD DUP1 SWAP2 SUB SWAP1 LOG4 POP POP POP JUMP JUMPDEST PUSH1 0x2 PUSH1 0x20 MSTORE DUP1 PUSH1 0x0 MSTORE PUSH1 0x40 PUSH1 0x0 KECCAK256 PUSH1 0x0 SWAP2 POP SLOAD SWAP1 PUSH2 0x100 EXP SWAP1 DIV PUSH20 0xFFFFFFFFFFFFFFFFFFFFFFFFFFFFFFFFFFFFFFFF AND DUP2 JUMP JUMPDEST PUSH1 0x0 DUP1 PUSH1 0x0 DUP4 DUP2 MSTORE PUSH1 0x20 ADD SWAP1 DUP2 MSTORE PUSH1 0x20 ADD PUSH1 0x0 KECCAK256 PUSH1 0x0 SWAP1 SLOAD SWAP1 PUSH2 0x100 EXP SWAP1 DIV PUSH20 0xFFFFFFFFFFFFFFFFFFFFFFFFFFFFFFFFFFFFFFFF AND SWAP1 POP PUSH1 0x0 PUSH1 0x2 PUSH1 0x0 DUP5 DUP2 MSTORE PUSH1 0x20 ADD SWAP1 DUP2 MSTORE PUSH1 0x20 ADD PUSH1 0x0 KECCAK256 PUSH1 0x0 SWAP1 SLOAD SWAP1 PUSH2 0x100 EXP SWAP1 DIV PUSH20 0xFFFFFFFFFFFFFFFFFFFFFFFFFFFFFFFFFFFFFFFF AND SWAP1 POP PUSH1 0x0 PUSH20 0xFFFFFFFFFFFFFFFFFFFFFFFFFFFFFFFFFFFFFFFF AND DUP3 PUSH20 0xFFFFFFFFFFFFFFFFFFFFFFFFFFFFFFFFFFFFFFFF AND SUB PUSH2 0xDCB JUMPI PUSH1 0x40 MLOAD PUSH32 0x8C379A000000000000000000000000000000000000000000000000000000000 DUP2 MSTORE PUSH1 0x4 ADD PUSH2 0xDC2 SWAP1 PUSH2 0x12DA JUMP JUMPDEST PUSH1 0x40 MLOAD DUP1 SWAP2 SUB SWAP1 REVERT JUMPDEST DUP2 PUSH20 0xFFFFFFFFFFFFFFFFFFFFFFFFFFFFFFFFFFFFFFFF AND CALLER PUSH20 0xFFFFFFFFFFFFFFFFFFFFFFFFFFFFFFFFFFFFFFFF AND EQ DUP1 PUSH2 0xE30 JUMPI POP DUP1 PUSH20 0xFFFFFFFFFFFFFFFFFFFFFFFFFFFFFFFFFFFFFFFF AND CALLER PUSH20 0xFFFFFFFFFFFFFFFFFFFFFFFFFFFFFFFFFFFFFFFF AND EQ JUMPDEST PUSH2 0xE6F JUMPI PUSH1 0x40 MLOAD PUSH32 0x8C379A000000000000000000000000000000000000000000000000000000000 DUP2 MSTORE PUSH1 0x4 ADD PUSH2 0xE66 SWAP1 PUSH2 0x1778 JUMP JUMPDEST PUSH1 0x40 MLOAD DUP1 SWAP2 SUB SWAP1 REVERT JUMPDEST PUSH1 0x0 PUSH20 0xFFFFFFFFFFFFFFFFFFFFFFFFFFFFFFFFFFFFFFFF AND CALLER PUSH20 0xFFFFFFFFFFFFFFFFFFFFFFFFFFFFFFFFFFFFFFFF AND SUB PUSH2 0xEDE JUMPI PUSH1 0x40 MLOAD PUSH32 0x8C379A000000000000000000000000000000000000000000000000000000000 DUP2 MSTORE PUSH1 0x4 ADD PUSH2 0xED5 SWAP1 PUSH2 0x1830 JUMP JUMPDEST PUSH1 0x40 MLOAD DUP1 SWAP2 SUB SWAP1 REVERT JUMPDEST DUP4 PUSH20 0xFFFFFFFFFFFFFFFFFFFFFFFFFFFFFFFFFFFFFFFF AND CALLER PUSH20 0xFFFFFFFFFFFFFFFFFFFFFFFFFFFFFFFFFFFFFFFF AND SUB PUSH2 0xF4C JUMPI PUSH1 0x40 MLOAD PUSH32 0x8C379A000000000000000000000000000000000000000000000000000000000 DUP2 MSTORE PUSH1 0x4 ADD PUSH2 0xF43 SWAP1 PUSH2 0x18C2 JUMP JUMPDEST PUSH1 0x40 MLOAD DUP1 SWAP2 SUB SWAP1 REVERT JUMPDEST PUSH1 0x1 PUSH1 0x0 DUP4 PUSH20 0xFFFFFFFFFFFFFFFFFFFFFFFFFFFFFFFFFFFFFFFF AND PUSH20 0xFFFFFFFFFFFFFFFFFFFFFFFFFFFFFFFFFFFFFFFF AND DUP2 MSTORE PUSH1 0x20 ADD SWAP1 DUP2 MSTORE PUSH1 0x20 ADD PUSH1 0x0 KECCAK256 PUSH1 0x0 DUP2 SLOAD DUP1 SWAP3 SWAP2 SWAP1 PUSH2 0xF9C SWAP1 PUSH2 0x16DD JUMP JUMPDEST SWAP2 SWAP1 POP SSTORE POP PUSH1 0x1 PUSH1 0x0 DUP6 PUSH20 0xFFFFFFFFFFFFFFFFFFFFFFFFFFFFFFFFFFFFFFFF AND PUSH20 0xFFFFFFFFFFFFFFFFFFFFFFFFFFFFFFFFFFFFFFFF AND DUP2 MSTORE PUSH1 0x20 ADD SWAP1 DUP2 MSTORE PUSH1 0x20 ADD PUSH1 0x0 KECCAK256 PUSH1 0x0 DUP2 SLOAD DUP1 SWAP3 SWAP2 SWAP1 PUSH2 0xFF1 SWAP1 PUSH2 0x1603 JUMP JUMPDEST SWAP2 SWAP1 POP SSTORE POP DUP4 PUSH1 0x0 DUP1 DUP6 DUP2 MSTORE PUSH1 0x20 ADD SWAP1 DUP2 MSTORE PUSH1 0x20 ADD PUSH1 0x0 KECCAK256 PUSH1 0x0 PUSH2 0x100 EXP DUP2 SLOAD DUP2 PUSH20 0xFFFFFFFFFFFFFFFFFFFFFFFFFFFFFFFFFFFFFFFF MUL NOT AND SWAP1 DUP4 PUSH20 0xFFFFFFFFFFFFFFFFFFFFFFFFFFFFFFFFFFFFFFFF AND MUL OR SWAP1 SSTORE POP PUSH1 0x2 PUSH1 0x0 DUP5 DUP2 MSTORE PUSH1 0x20 ADD SWAP1 DUP2 MSTORE PUSH1 0x20 ADD PUSH1 0x0 KECCAK256 PUSH1 0x0 PUSH2 0x100 EXP DUP2 SLOAD SWAP1 PUSH20 0xFFFFFFFFFFFFFFFFFFFFFFFFFFFFFFFFFFFFFFFF MUL NOT AND SWAP1 SSTORE DUP3 DUP5 PUSH20 0xFFFFFFFFFFFFFFFFFFFFFFFFFFFFFFFFFFFFFFFF AND CALLER PUSH20 0xFFFFFFFFFFFFFFFFFFFFFFFFFFFFFFFFFFFFFFFF AND PUSH32 0xAF9FF3ADA675379CA19FDD908E550417162F2A7370166E8257B25888E55926E7 PUSH1 0x40 MLOAD PUSH1 0x40 MLOAD DUP1 SWAP2 SUB SWAP1 LOG4 POP POP POP POP JUMP JUMPDEST PUSH1 0x1 PUSH1 0x20 MSTORE DUP1 PUSH1 0x0 MSTORE PUSH1 0x40 PUSH1 0x0 KECCAK256 PUSH1 0x0 SWAP2 POP SWAP1 POP SLOAD DUP2 JUMP JUMPDEST PUSH1 0x0 DUP1 REVERT JUMPDEST PUSH1 0x0 PUSH20 0xFFFFFFFFFFFFFFFFFFFFFFFFFFFFFFFFFFFFFFFF DUP3 AND SWAP1 POP SWAP2 SWAP1 POP JUMP JUMPDEST PUSH1 0x0 PUSH2 0x1126 DUP3 PUSH2 0x10FB JUMP JUMPDEST SWAP1 POP SWAP2 SWAP1 POP JUMP JUMPDEST PUSH2 0x1136 DUP2 PUSH2 0x111B JUMP JUMPDEST DUP2 EQ PUSH2 0x1141 JUMPI PUSH1 0x0 DUP1 REVERT JUMPDEST POP JUMP JUMPDEST PUSH1 0x0 DUP2 CALLDATALOAD SWAP1 POP PUSH2 0x1153 DUP2 PUSH2 0x112D JUMP JUMPDEST SWAP3 SWAP2 POP POP JUMP JUMPDEST PUSH1 0x0 DUP2 SWAP1 POP SWAP2 SWAP1 POP JUMP JUMPDEST PUSH2 0x116C DUP2 PUSH2 0x1159 JUMP JUMPDEST DUP2 EQ PUSH2 0x1177 JUMPI PUSH1 0x0 DUP1 REVERT JUMPDEST POP JUMP JUMPDEST PUSH1 0x0 DUP2 CALLDATALOAD SWAP1 POP PUSH2 0x1189 DUP2 PUSH2 0x1163 JUMP JUMPDEST SWAP3 SWAP2 POP POP JUMP JUMPDEST PUSH1 0x0 DUP1 PUSH1 0x40 DUP4 DUP6 SUB SLT ISZERO PUSH2 0x11A6 JUMPI PUSH2 0x11A5 PUSH2 0x10F6 JUMP JUMPDEST JUMPDEST PUSH1 0x0 PUSH2 0x11B4 DUP6 DUP3 DUP7 ADD PUSH2 0x1144 JUMP JUMPDEST SWAP3 POP POP PUSH1 0x20 PUSH2 0x11C5 DUP6 DUP3 DUP7 ADD PUSH2 0x117A JUMP JUMPDEST SWAP2 POP POP SWAP3 POP SWAP3 SWAP1 POP JUMP JUMPDEST PUSH1 0x0 PUSH1 0x20 DUP3 DUP5 SUB SLT ISZERO PUSH2 0x11E5 JUMPI PUSH2 0x11E4 PUSH2 0x10F6 JUMP JUMPDEST JUMPDEST PUSH1 0x0 PUSH2 0x11F3 DUP5 DUP3 DUP6 ADD PUSH2 0x117A JUMP JUMPDEST SWAP2 POP POP SWAP3 SWAP2 POP POP JUMP JUMPDEST PUSH2 0x1205 DUP2 PUSH2 0x111B JUMP JUMPDEST DUP3 MSTORE POP POP JUMP JUMPDEST PUSH1 0x0 PUSH1 0x20 DUP3 ADD SWAP1 POP PUSH2 0x1220 PUSH1 0x0 DUP4 ADD DUP5 PUSH2 0x11FC JUMP JUMPDEST SWAP3 SWAP2 POP POP JUMP JUMPDEST PUSH1 0x0 PUSH1 0x20 DUP3 DUP5 SUB SLT ISZERO PUSH2 0x123C JUMPI PUSH2 0x123B PUSH2 0x10F6 JUMP JUMPDEST JUMPDEST PUSH1 0x0 PUSH2 0x124A DUP5 DUP3 DUP6 ADD PUSH2 0x1144 JUMP JUMPDEST SWAP2 POP POP SWAP3 SWAP2 POP POP JUMP JUMPDEST PUSH2 0x125C DUP2 PUSH2 0x1159 JUMP JUMPDEST DUP3 MSTORE POP POP JUMP JUMPDEST PUSH1 0x0 PUSH1 0x20 DUP3 ADD SWAP1 POP PUSH2 0x1277 PUSH1 0x0 DUP4 ADD DUP5 PUSH2 0x1253 JUMP JUMPDEST SWAP3 SWAP2 POP POP JUMP JUMPDEST PUSH1 0x0 DUP3 DUP3 MSTORE PUSH1 0x20 DUP3 ADD SWAP1 POP SWAP3 SWAP2 POP POP JUMP JUMPDEST PUSH32 0x636520746F6B656E206E27612070617320656E636F7265206574652063726565 PUSH1 0x0 DUP3 ADD MSTORE POP JUMP JUMPDEST PUSH1 0x0 PUSH2 0x12C4 PUSH1 0x20 DUP4 PUSH2 0x127D JUMP JUMPDEST SWAP2 POP PUSH2 0x12CF DUP3 PUSH2 0x128E JUMP JUMPDEST PUSH1 0x20 DUP3 ADD SWAP1 POP SWAP2 SWAP1 POP JUMP JUMPDEST PUSH1 0x0 PUSH1 0x20 DUP3 ADD SWAP1 POP DUP2 DUP2 SUB PUSH1 0x0 DUP4 ADD MSTORE PUSH2 0x12F3 DUP2 PUSH2 0x12B7 JUMP JUMPDEST SWAP1 POP SWAP2 SWAP1 POP JUMP JUMPDEST PUSH32 0x617563756E6520617070726F626174696F6E206E276120656E636F7265206574 PUSH1 0x0 DUP3 ADD MSTORE PUSH32 0x65207265616C6973656500000000000000000000000000000000000000000000 PUSH1 0x20 DUP3 ADD MSTORE POP JUMP JUMPDEST PUSH1 0x0 PUSH2 0x1356 PUSH1 0x2A DUP4 PUSH2 0x127D JUMP JUMPDEST SWAP2 POP PUSH2 0x1361 DUP3 PUSH2 0x12FA JUMP JUMPDEST PUSH1 0x40 DUP3 ADD SWAP1 POP SWAP2 SWAP1 POP JUMP JUMPDEST PUSH1 0x0 PUSH1 0x20 DUP3 ADD SWAP1 POP DUP2 DUP2 SUB PUSH1 0x0 DUP4 ADD MSTORE PUSH2 0x1385 DUP2 PUSH2 0x1349 JUMP JUMPDEST SWAP1 POP SWAP2 SWAP1 POP JUMP JUMPDEST PUSH32 0x617563756E6520617070726F626174696F6E206E65207427612065746520646F PUSH1 0x0 DUP3 ADD MSTORE PUSH32 0x6E6E6520706F757220636520746F6B656E000000000000000000000000000000 PUSH1 0x20 DUP3 ADD MSTORE POP JUMP JUMPDEST PUSH1 0x0 PUSH2 0x13E8 PUSH1 0x31 DUP4 PUSH2 0x127D JUMP JUMPDEST SWAP2 POP PUSH2 0x13F3 DUP3 PUSH2 0x138C JUMP JUMPDEST PUSH1 0x40 DUP3 ADD SWAP1 POP SWAP2 SWAP1 POP JUMP JUMPDEST PUSH1 0x0 PUSH1 0x20 DUP3 ADD SWAP1 POP DUP2 DUP2 SUB PUSH1 0x0 DUP4 ADD MSTORE PUSH2 0x1417 DUP2 PUSH2 0x13DB JUMP JUMPDEST SWAP1 POP SWAP2 SWAP1 POP JUMP JUMPDEST PUSH32 0x7475206E27657320706173206C652070726F7072696574616972652064752074 PUSH1 0x0 DUP3 ADD MSTORE PUSH32 0x6F6B656E2C207475206E27617320646F6E6320706173206C65732064726F6974 PUSH1 0x20 DUP3 ADD MSTORE PUSH32 0x7320706F7572207265616C6973657220636574746520616374696F6E00000000 PUSH1 0x40 DUP3 ADD MSTORE POP JUMP JUMPDEST PUSH1 0x0 PUSH2 0x14A0 PUSH1 0x5C DUP4 PUSH2 0x127D JUMP JUMPDEST SWAP2 POP PUSH2 0x14AB DUP3 PUSH2 0x141E JUMP JUMPDEST PUSH1 0x60 DUP3 ADD SWAP1 POP SWAP2 SWAP1 POP JUMP JUMPDEST PUSH1 0x0 PUSH1 0x20 DUP3 ADD SWAP1 POP DUP2 DUP2 SUB PUSH1 0x0 DUP4 ADD MSTORE PUSH2 0x14CF DUP2 PUSH2 0x1493 JUMP JUMPDEST SWAP1 POP SWAP2 SWAP1 POP JUMP JUMPDEST PUSH32 0x696C2065737420696E74657264697420646520666169726520756E206D696E74 PUSH1 0x0 DUP3 ADD MSTORE PUSH32 0x20737572206C2761647265737365203000000000000000000000000000000000 PUSH1 0x20 DUP3 ADD MSTORE POP JUMP JUMPDEST PUSH1 0x0 PUSH2 0x1532 PUSH1 0x30 DUP4 PUSH2 0x127D JUMP JUMPDEST SWAP2 POP PUSH2 0x153D DUP3 PUSH2 0x14D6 JUMP JUMPDEST PUSH1 0x40 DUP3 ADD SWAP1 POP SWAP2 SWAP1 POP JUMP JUMPDEST PUSH1 0x0 PUSH1 0x20 DUP3 ADD SWAP1 POP DUP2 DUP2 SUB PUSH1 0x0 DUP4 ADD MSTORE PUSH2 0x1561 DUP2 PUSH2 0x1525 JUMP JUMPDEST SWAP1 POP SWAP2 SWAP1 POP JUMP JUMPDEST PUSH32 0x6365206E6674206578697374652064656A610000000000000000000000000000 PUSH1 0x0 DUP3 ADD MSTORE POP JUMP JUMPDEST PUSH1 0x0 PUSH2 0x159E PUSH1 0x12 DUP4 PUSH2 0x127D JUMP JUMPDEST SWAP2 POP PUSH2 0x15A9 DUP3 PUSH2 0x1568 JUMP JUMPDEST PUSH1 0x20 DUP3 ADD SWAP1 POP SWAP2 SWAP1 POP JUMP JUMPDEST PUSH1 0x0 PUSH1 0x20 DUP3 ADD SWAP1 POP DUP2 DUP2 SUB PUSH1 0x0 DUP4 ADD MSTORE PUSH2 0x15CD DUP2 PUSH2 0x1591 JUMP JUMPDEST SWAP1 POP SWAP2 SWAP1 POP JUMP JUMPDEST PUSH32 0x4E487B7100000000000000000000000000000000000000000000000000000000 PUSH1 0x0 MSTORE PUSH1 0x11 PUSH1 0x4 MSTORE PUSH1 0x24 PUSH1 0x0 REVERT JUMPDEST PUSH1 0x0 PUSH2 0x160E DUP3 PUSH2 0x1159 JUMP JUMPDEST SWAP2 POP PUSH32 0xFFFFFFFFFFFFFFFFFFFFFFFFFFFFFFFFFFFFFFFFFFFFFFFFFFFFFFFFFFFFFFFF DUP3 SUB PUSH2 0x1640 JUMPI PUSH2 0x163F PUSH2 0x15D4 JUMP JUMPDEST JUMPDEST PUSH1 0x1 DUP3 ADD SWAP1 POP SWAP2 SWAP1 POP JUMP JUMPDEST PUSH32 0x7475206E27657320706173206C652070726F7072696574616972652064652063 PUSH1 0x0 DUP3 ADD MSTORE PUSH32 0x6520746F6B656E00000000000000000000000000000000000000000000000000 PUSH1 0x20 DUP3 ADD MSTORE POP JUMP JUMPDEST PUSH1 0x0 PUSH2 0x16A7 PUSH1 0x27 DUP4 PUSH2 0x127D JUMP JUMPDEST SWAP2 POP PUSH2 0x16B2 DUP3 PUSH2 0x164B JUMP JUMPDEST PUSH1 0x40 DUP3 ADD SWAP1 POP SWAP2 SWAP1 POP JUMP JUMPDEST PUSH1 0x0 PUSH1 0x20 DUP3 ADD SWAP1 POP DUP2 DUP2 SUB PUSH1 0x0 DUP4 ADD MSTORE PUSH2 0x16D6 DUP2 PUSH2 0x169A JUMP JUMPDEST SWAP1 POP SWAP2 SWAP1 POP JUMP JUMPDEST PUSH1 0x0 PUSH2 0x16E8 DUP3 PUSH2 0x1159 JUMP JUMPDEST SWAP2 POP PUSH1 0x0 DUP3 SUB PUSH2 0x16FB JUMPI PUSH2 0x16FA PUSH2 0x15D4 JUMP JUMPDEST JUMPDEST PUSH1 0x1 DUP3 SUB SWAP1 POP SWAP2 SWAP1 POP JUMP JUMPDEST PUSH32 0x7475206E27617320706173206C652064726F6974206427617070656C65722063 PUSH1 0x0 DUP3 ADD MSTORE PUSH32 0x6574746520666F6E6374696F6E00000000000000000000000000000000000000 PUSH1 0x20 DUP3 ADD MSTORE POP JUMP JUMPDEST PUSH1 0x0 PUSH2 0x1762 PUSH1 0x2D DUP4 PUSH2 0x127D JUMP JUMPDEST SWAP2 POP PUSH2 0x176D DUP3 PUSH2 0x1706 JUMP JUMPDEST PUSH1 0x40 DUP3 ADD SWAP1 POP SWAP2 SWAP1 POP JUMP JUMPDEST PUSH1 0x0 PUSH1 0x20 DUP3 ADD SWAP1 POP DUP2 DUP2 SUB PUSH1 0x0 DUP4 ADD MSTORE PUSH2 0x1791 DUP2 PUSH2 0x1755 JUMP JUMPDEST SWAP1 POP SWAP2 SWAP1 POP JUMP JUMPDEST PUSH32 0x7475206E27617320706173206C652064726F6974206465207265616C69736572 PUSH1 0x0 DUP3 ADD MSTORE PUSH32 0x20756E65207472616E73616374696F6E20646570756973206C27616464726573 PUSH1 0x20 DUP3 ADD MSTORE PUSH32 0x7365203000000000000000000000000000000000000000000000000000000000 PUSH1 0x40 DUP3 ADD MSTORE POP JUMP JUMPDEST PUSH1 0x0 PUSH2 0x181A PUSH1 0x44 DUP4 PUSH2 0x127D JUMP JUMPDEST SWAP2 POP PUSH2 0x1825 DUP3 PUSH2 0x1798 JUMP JUMPDEST PUSH1 0x60 DUP3 ADD SWAP1 POP SWAP2 SWAP1 POP JUMP JUMPDEST PUSH1 0x0 PUSH1 0x20 DUP3 ADD SWAP1 POP DUP2 DUP2 SUB PUSH1 0x0 DUP4 ADD MSTORE PUSH2 0x1849 DUP2 PUSH2 0x180D JUMP JUMPDEST SWAP1 POP SWAP2 SWAP1 POP JUMP JUMPDEST PUSH32 0x7475206E27617320706173206C652064726F6974206465207472616E73666572 PUSH1 0x0 DUP3 ADD MSTORE PUSH32 0x74206C6520746F6B656E2061752070726F707269657461697265000000000000 PUSH1 0x20 DUP3 ADD MSTORE POP JUMP JUMPDEST PUSH1 0x0 PUSH2 0x18AC PUSH1 0x3A DUP4 PUSH2 0x127D JUMP JUMPDEST SWAP2 POP PUSH2 0x18B7 DUP3 PUSH2 0x1850 JUMP JUMPDEST PUSH1 0x40 DUP3 ADD SWAP1 POP SWAP2 SWAP1 POP JUMP JUMPDEST PUSH1 0x0 PUSH1 0x20 DUP3 ADD SWAP1 POP DUP2 DUP2 SUB PUSH1 0x0 DUP4 ADD MSTORE PUSH2 0x18DB DUP2 PUSH2 0x189F JUMP JUMPDEST SWAP1 POP SWAP2 SWAP1 POP JUMP INVALID LOG2 PUSH5 0x6970667358 0x22 SLT KECCAK256 AND 0xBF SWAP13 STOP GT 0xB0 0xE7 STOP CALLER LOG4 LOG2 PUSH11 0x2A04A88842D124EC277981 SWAP9 BYTE NOT PUSH5 0x56C94768AF PUSH5 0x736F6C6343 STOP ADDMOD GT STOP CALLER "
				},
				"gasEstimates": {
					"creation": {
						"codeDepositCost": "1284800",
						"executionCost": "1335",
						"totalCost": "1286135"
					},
					"external": {
						"approvals(uint256)": "2883",
						"approve(address,uint256)": "29215",
						"approveFromApprovals(address,uint256)": "31455",
						"burn(uint256)": "infinite",
						"mint(address,uint256)": "infinite",
						"nbrTokens(address)": "2902",
						"proprietaires(uint256)": "2884",
						"transfert(address,uint256)": "infinite",
						"transfertFrom(address,uint256)": "infinite"
					}
				},
				"methodIdentifiers": {
					"approvals(uint256)": "63035f66",
					"approve(address,uint256)": "095ea7b3",
					"approveFromApprovals(address,uint256)": "04984cf2",
					"burn(uint256)": "42966c68",
					"mint(address,uint256)": "40c10f19",
					"nbrTokens(address)": "e6c234e0",
					"proprietaires(uint256)": "3acf8d9d",
					"transfert(address,uint256)": "4362c116",
					"transfertFrom(address,uint256)": "cb819ecb"
				}
			},
			"storageLayout": {
				"storage": [
					{
						"astId": 21,
						"contract": "nft/erc721.sol:ERC721",
						"label": "proprietaires",
						"offset": 0,
						"slot": "0",
						"type": "t_mapping(t_uint256,t_address)"
					},
					{
						"astId": 25,
						"contract": "nft/erc721.sol:ERC721",
						"label": "nbrTokens",
						"offset": 0,
						"slot": "1",
						"type": "t_mapping(t_address,t_uint256)"
					},
					{
						"astId": 29,
						"contract": "nft/erc721.sol:ERC721",
						"label": "approvals",
						"offset": 0,
						"slot": "2",
						"type": "t_mapping(t_uint256,t_address)"
					}
				],
				"types": {
					"t_address": {
						"encoding": "inplace",
						"label": "address",
						"numberOfBytes": "20"
					},
					"t_mapping(t_address,t_uint256)": {
						"encoding": "mapping",
						"key": "t_address",
						"label": "mapping(address => uint256)",
						"numberOfBytes": "32",
						"value": "t_uint256"
					},
					"t_mapping(t_uint256,t_address)": {
						"encoding": "mapping",
						"key": "t_uint256",
						"label": "mapping(uint256 => address)",
						"numberOfBytes": "32",
						"value": "t_address"
					},
					"t_uint256": {
						"encoding": "inplace",
						"label": "uint256",
						"numberOfBytes": "32"
					}
				}
			},
			"userdoc": {
				"kind": "user",
				"methods": {},
				"version": 1
			}
		}
	}
}