{
	"token/MonTokenSwap.sol": {
		"TokenSwap": {
			"abi": [
				{
					"inputs": [
						{
							"internalType": "address",
							"name": "_token1",
							"type": "address"
						},
						{
							"internalType": "address",
							"name": "_owner1",
							"type": "address"
						},
						{
							"internalType": "uint256",
							"name": "_amount1",
							"type": "uint256"
						},
						{
							"internalType": "address",
							"name": "_token2",
							"type": "address"
						},
						{
							"internalType": "address",
							"name": "_owner2",
							"type": "address"
						},
						{
							"internalType": "uint256",
							"name": "_amount2",
							"type": "uint256"
						}
					],
					"stateMutability": "nonpayable",
					"type": "constructor"
				},
				{
					"inputs": [],
					"name": "amount1",
					"outputs": [
						{
							"internalType": "uint256",
							"name": "",
							"type": "uint256"
						}
					],
					"stateMutability": "view",
					"type": "function"
				},
				{
					"inputs": [],
					"name": "amount2",
					"outputs": [
						{
							"internalType": "uint256",
							"name": "",
							"type": "uint256"
						}
					],
					"stateMutability": "view",
					"type": "function"
				},
				{
					"inputs": [],
					"name": "owner1",
					"outputs": [
						{
							"internalType": "address",
							"name": "",
							"type": "address"
						}
					],
					"stateMutability": "view",
					"type": "function"
				},
				{
					"inputs": [],
					"name": "owner2",
					"outputs": [
						{
							"internalType": "address",
							"name": "",
							"type": "address"
						}
					],
					"stateMutability": "view",
					"type": "function"
				},
				{
					"inputs": [],
					"name": "swap",
					"outputs": [],
					"stateMutability": "nonpayable",
					"type": "function"
				},
				{
					"inputs": [],
					"name": "token1",
					"outputs": [
						{
							"internalType": "contract IERC20",
							"name": "",
							"type": "address"
						}
					],
					"stateMutability": "view",
					"type": "function"
				},
				{
					"inputs": [],
					"name": "token2",
					"outputs": [
						{
							"internalType": "contract IERC20",
							"name": "",
							"type": "address"
						}
					],
					"stateMutability": "view",
					"type": "function"
				}
			],
			"devdoc": {
				"kind": "dev",
				"methods": {},
				"version": 1
			},
			"evm": {
				"assembly": "    /* \"token/MonTokenSwap.sol\":2202:3498  contract TokenSwap {... */\n  mstore(0x40, 0x80)\n    /* \"token/MonTokenSwap.sol\":2384:2731  constructor(... */\n  callvalue\n  dup1\n  iszero\n  tag_1\n  jumpi\n  0x00\n  dup1\n  revert\ntag_1:\n  pop\n  mload(0x40)\n  sub(codesize, bytecodeSize)\n  dup1\n  bytecodeSize\n  dup4\n  codecopy\n  dup2\n  dup2\n  add\n  0x40\n  mstore\n  dup2\n  add\n  swap1\n  tag_2\n  swap2\n  swap1\n  tag_3\n  jump\t// in\ntag_2:\n    /* \"token/MonTokenSwap.sol\":2574:2581  _token1 */\n  dup6\n    /* \"token/MonTokenSwap.sol\":2558:2564  token1 */\n  0x00\n  dup1\n    /* \"token/MonTokenSwap.sol\":2558:2582  token1 = IERC20(_token1) */\n  0x0100\n  exp\n  dup2\n  sload\n  dup2\n  0xffffffffffffffffffffffffffffffffffffffff\n  mul\n  not\n  and\n  swap1\n  dup4\n  0xffffffffffffffffffffffffffffffffffffffff\n  and\n  mul\n  or\n  swap1\n  sstore\n  pop\n    /* \"token/MonTokenSwap.sol\":2601:2608  _owner1 */\n  dup5\n    /* \"token/MonTokenSwap.sol\":2592:2598  owner1 */\n  0x01\n  0x00\n    /* \"token/MonTokenSwap.sol\":2592:2608  owner1 = _owner1 */\n  0x0100\n  exp\n  dup2\n  sload\n  dup2\n  0xffffffffffffffffffffffffffffffffffffffff\n  mul\n  not\n  and\n  swap1\n  dup4\n  0xffffffffffffffffffffffffffffffffffffffff\n  and\n  mul\n  or\n  swap1\n  sstore\n  pop\n    /* \"token/MonTokenSwap.sol\":2628:2636  _amount1 */\n  dup4\n    /* \"token/MonTokenSwap.sol\":2618:2625  amount1 */\n  0x02\n    /* \"token/MonTokenSwap.sol\":2618:2636  amount1 = _amount1 */\n  dup2\n  swap1\n  sstore\n  pop\n    /* \"token/MonTokenSwap.sol\":2662:2669  _token2 */\n  dup3\n    /* \"token/MonTokenSwap.sol\":2646:2652  token2 */\n  0x03\n  0x00\n    /* \"token/MonTokenSwap.sol\":2646:2670  token2 = IERC20(_token2) */\n  0x0100\n  exp\n  dup2\n  sload\n  dup2\n  0xffffffffffffffffffffffffffffffffffffffff\n  mul\n  not\n  and\n  swap1\n  dup4\n  0xffffffffffffffffffffffffffffffffffffffff\n  and\n  mul\n  or\n  swap1\n  sstore\n  pop\n    /* \"token/MonTokenSwap.sol\":2689:2696  _owner2 */\n  dup2\n    /* \"token/MonTokenSwap.sol\":2680:2686  owner2 */\n  0x04\n  0x00\n    /* \"token/MonTokenSwap.sol\":2680:2696  owner2 = _owner2 */\n  0x0100\n  exp\n  dup2\n  sload\n  dup2\n  0xffffffffffffffffffffffffffffffffffffffff\n  mul\n  not\n  and\n  swap1\n  dup4\n  0xffffffffffffffffffffffffffffffffffffffff\n  and\n  mul\n  or\n  swap1\n  sstore\n  pop\n    /* \"token/MonTokenSwap.sol\":2716:2724  _amount2 */\n  dup1\n    /* \"token/MonTokenSwap.sol\":2706:2713  amount2 */\n  0x05\n    /* \"token/MonTokenSwap.sol\":2706:2724  amount2 = _amount2 */\n  dup2\n  swap1\n  sstore\n  pop\n    /* \"token/MonTokenSwap.sol\":2384:2731  constructor(... */\n  pop\n  pop\n  pop\n  pop\n  pop\n  pop\n    /* \"token/MonTokenSwap.sol\":2202:3498  contract TokenSwap {... */\n  jump(tag_6)\n    /* \"#utility.yul\":88:205   */\ntag_8:\n    /* \"#utility.yul\":197:198   */\n  0x00\n    /* \"#utility.yul\":194:195   */\n  dup1\n    /* \"#utility.yul\":187:199   */\n  revert\n    /* \"#utility.yul\":334:460   */\ntag_10:\n    /* \"#utility.yul\":371:378   */\n  0x00\n    /* \"#utility.yul\":411:453   */\n  0xffffffffffffffffffffffffffffffffffffffff\n    /* \"#utility.yul\":404:409   */\n  dup3\n    /* \"#utility.yul\":400:454   */\n  and\n    /* \"#utility.yul\":389:454   */\n  swap1\n  pop\n    /* \"#utility.yul\":334:460   */\n  swap2\n  swap1\n  pop\n  jump\t// out\n    /* \"#utility.yul\":466:562   */\ntag_11:\n    /* \"#utility.yul\":503:510   */\n  0x00\n    /* \"#utility.yul\":532:556   */\n  tag_23\n    /* \"#utility.yul\":550:555   */\n  dup3\n    /* \"#utility.yul\":532:556   */\n  tag_10\n  jump\t// in\ntag_23:\n    /* \"#utility.yul\":521:556   */\n  swap1\n  pop\n    /* \"#utility.yul\":466:562   */\n  swap2\n  swap1\n  pop\n  jump\t// out\n    /* \"#utility.yul\":568:690   */\ntag_12:\n    /* \"#utility.yul\":641:665   */\n  tag_25\n    /* \"#utility.yul\":659:664   */\n  dup2\n    /* \"#utility.yul\":641:665   */\n  tag_11\n  jump\t// in\ntag_25:\n    /* \"#utility.yul\":634:639   */\n  dup2\n    /* \"#utility.yul\":631:666   */\n  eq\n    /* \"#utility.yul\":621:684   */\n  tag_26\n  jumpi\n    /* \"#utility.yul\":680:681   */\n  0x00\n    /* \"#utility.yul\":677:678   */\n  dup1\n    /* \"#utility.yul\":670:682   */\n  revert\n    /* \"#utility.yul\":621:684   */\ntag_26:\n    /* \"#utility.yul\":568:690   */\n  pop\n  jump\t// out\n    /* \"#utility.yul\":696:839   */\ntag_13:\n    /* \"#utility.yul\":753:758   */\n  0x00\n    /* \"#utility.yul\":784:790   */\n  dup2\n    /* \"#utility.yul\":778:791   */\n  mload\n    /* \"#utility.yul\":769:791   */\n  swap1\n  pop\n    /* \"#utility.yul\":800:833   */\n  tag_28\n    /* \"#utility.yul\":827:832   */\n  dup2\n    /* \"#utility.yul\":800:833   */\n  tag_12\n  jump\t// in\ntag_28:\n    /* \"#utility.yul\":696:839   */\n  swap3\n  swap2\n  pop\n  pop\n  jump\t// out\n    /* \"#utility.yul\":845:922   */\ntag_14:\n    /* \"#utility.yul\":882:889   */\n  0x00\n    /* \"#utility.yul\":911:916   */\n  dup2\n    /* \"#utility.yul\":900:916   */\n  swap1\n  pop\n    /* \"#utility.yul\":845:922   */\n  swap2\n  swap1\n  pop\n  jump\t// out\n    /* \"#utility.yul\":928:1050   */\ntag_15:\n    /* \"#utility.yul\":1001:1025   */\n  tag_31\n    /* \"#utility.yul\":1019:1024   */\n  dup2\n    /* \"#utility.yul\":1001:1025   */\n  tag_14\n  jump\t// in\ntag_31:\n    /* \"#utility.yul\":994:999   */\n  dup2\n    /* \"#utility.yul\":991:1026   */\n  eq\n    /* \"#utility.yul\":981:1044   */\n  tag_32\n  jumpi\n    /* \"#utility.yul\":1040:1041   */\n  0x00\n    /* \"#utility.yul\":1037:1038   */\n  dup1\n    /* \"#utility.yul\":1030:1042   */\n  revert\n    /* \"#utility.yul\":981:1044   */\ntag_32:\n    /* \"#utility.yul\":928:1050   */\n  pop\n  jump\t// out\n    /* \"#utility.yul\":1056:1199   */\ntag_16:\n    /* \"#utility.yul\":1113:1118   */\n  0x00\n    /* \"#utility.yul\":1144:1150   */\n  dup2\n    /* \"#utility.yul\":1138:1151   */\n  mload\n    /* \"#utility.yul\":1129:1151   */\n  swap1\n  pop\n    /* \"#utility.yul\":1160:1193   */\n  tag_34\n    /* \"#utility.yul\":1187:1192   */\n  dup2\n    /* \"#utility.yul\":1160:1193   */\n  tag_15\n  jump\t// in\ntag_34:\n    /* \"#utility.yul\":1056:1199   */\n  swap3\n  swap2\n  pop\n  pop\n  jump\t// out\n    /* \"#utility.yul\":1205:2339   */\ntag_3:\n    /* \"#utility.yul\":1320:1326   */\n  0x00\n    /* \"#utility.yul\":1328:1334   */\n  dup1\n    /* \"#utility.yul\":1336:1342   */\n  0x00\n    /* \"#utility.yul\":1344:1350   */\n  dup1\n    /* \"#utility.yul\":1352:1358   */\n  0x00\n    /* \"#utility.yul\":1360:1366   */\n  dup1\n    /* \"#utility.yul\":1409:1412   */\n  0xc0\n    /* \"#utility.yul\":1397:1406   */\n  dup8\n    /* \"#utility.yul\":1388:1395   */\n  dup10\n    /* \"#utility.yul\":1384:1407   */\n  sub\n    /* \"#utility.yul\":1380:1413   */\n  slt\n    /* \"#utility.yul\":1377:1497   */\n  iszero\n  tag_36\n  jumpi\n    /* \"#utility.yul\":1416:1495   */\n  tag_37\n  tag_8\n  jump\t// in\ntag_37:\n    /* \"#utility.yul\":1377:1497   */\ntag_36:\n    /* \"#utility.yul\":1536:1537   */\n  0x00\n    /* \"#utility.yul\":1561:1625   */\n  tag_38\n    /* \"#utility.yul\":1617:1624   */\n  dup10\n    /* \"#utility.yul\":1608:1614   */\n  dup3\n    /* \"#utility.yul\":1597:1606   */\n  dup11\n    /* \"#utility.yul\":1593:1615   */\n  add\n    /* \"#utility.yul\":1561:1625   */\n  tag_13\n  jump\t// in\ntag_38:\n    /* \"#utility.yul\":1551:1625   */\n  swap7\n  pop\n    /* \"#utility.yul\":1507:1635   */\n  pop\n    /* \"#utility.yul\":1674:1676   */\n  0x20\n    /* \"#utility.yul\":1700:1764   */\n  tag_39\n    /* \"#utility.yul\":1756:1763   */\n  dup10\n    /* \"#utility.yul\":1747:1753   */\n  dup3\n    /* \"#utility.yul\":1736:1745   */\n  dup11\n    /* \"#utility.yul\":1732:1754   */\n  add\n    /* \"#utility.yul\":1700:1764   */\n  tag_13\n  jump\t// in\ntag_39:\n    /* \"#utility.yul\":1690:1764   */\n  swap6\n  pop\n    /* \"#utility.yul\":1645:1774   */\n  pop\n    /* \"#utility.yul\":1813:1815   */\n  0x40\n    /* \"#utility.yul\":1839:1903   */\n  tag_40\n    /* \"#utility.yul\":1895:1902   */\n  dup10\n    /* \"#utility.yul\":1886:1892   */\n  dup3\n    /* \"#utility.yul\":1875:1884   */\n  dup11\n    /* \"#utility.yul\":1871:1893   */\n  add\n    /* \"#utility.yul\":1839:1903   */\n  tag_16\n  jump\t// in\ntag_40:\n    /* \"#utility.yul\":1829:1903   */\n  swap5\n  pop\n    /* \"#utility.yul\":1784:1913   */\n  pop\n    /* \"#utility.yul\":1952:1954   */\n  0x60\n    /* \"#utility.yul\":1978:2042   */\n  tag_41\n    /* \"#utility.yul\":2034:2041   */\n  dup10\n    /* \"#utility.yul\":2025:2031   */\n  dup3\n    /* \"#utility.yul\":2014:2023   */\n  dup11\n    /* \"#utility.yul\":2010:2032   */\n  add\n    /* \"#utility.yul\":1978:2042   */\n  tag_13\n  jump\t// in\ntag_41:\n    /* \"#utility.yul\":1968:2042   */\n  swap4\n  pop\n    /* \"#utility.yul\":1923:2052   */\n  pop\n    /* \"#utility.yul\":2091:2094   */\n  0x80\n    /* \"#utility.yul\":2118:2182   */\n  tag_42\n    /* \"#utility.yul\":2174:2181   */\n  dup10\n    /* \"#utility.yul\":2165:2171   */\n  dup3\n    /* \"#utility.yul\":2154:2163   */\n  dup11\n    /* \"#utility.yul\":2150:2172   */\n  add\n    /* \"#utility.yul\":2118:2182   */\n  tag_13\n  jump\t// in\ntag_42:\n    /* \"#utility.yul\":2108:2182   */\n  swap3\n  pop\n    /* \"#utility.yul\":2062:2192   */\n  pop\n    /* \"#utility.yul\":2231:2234   */\n  0xa0\n    /* \"#utility.yul\":2258:2322   */\n  tag_43\n    /* \"#utility.yul\":2314:2321   */\n  dup10\n    /* \"#utility.yul\":2305:2311   */\n  dup3\n    /* \"#utility.yul\":2294:2303   */\n  dup11\n    /* \"#utility.yul\":2290:2312   */\n  add\n    /* \"#utility.yul\":2258:2322   */\n  tag_16\n  jump\t// in\ntag_43:\n    /* \"#utility.yul\":2248:2322   */\n  swap2\n  pop\n    /* \"#utility.yul\":2202:2332   */\n  pop\n    /* \"#utility.yul\":1205:2339   */\n  swap3\n  swap6\n  pop\n  swap3\n  swap6\n  pop\n  swap3\n  swap6\n  jump\t// out\n    /* \"token/MonTokenSwap.sol\":2202:3498  contract TokenSwap {... */\ntag_6:\n  dataSize(sub_0)\n  dup1\n  dataOffset(sub_0)\n  0x00\n  codecopy\n  0x00\n  return\nstop\n\nsub_0: assembly {\n        /* \"token/MonTokenSwap.sol\":2202:3498  contract TokenSwap {... */\n      mstore(0x40, 0x80)\n      callvalue\n      dup1\n      iszero\n      tag_1\n      jumpi\n      0x00\n      dup1\n      revert\n    tag_1:\n      pop\n      jumpi(tag_2, lt(calldatasize, 0x04))\n      shr(0xe0, calldataload(0x00))\n      dup1\n      0x73688914\n      gt\n      tag_10\n      jumpi\n      dup1\n      0x73688914\n      eq\n      tag_6\n      jumpi\n      dup1\n      0x8119c065\n      eq\n      tag_7\n      jumpi\n      dup1\n      0xd21220a7\n      eq\n      tag_8\n      jumpi\n      dup1\n      0xf400fde4\n      eq\n      tag_9\n      jumpi\n      jump(tag_2)\n    tag_10:\n      dup1\n      0x057bfcc7\n      eq\n      tag_3\n      jumpi\n      dup1\n      0x25be124e\n      eq\n      tag_4\n      jumpi\n      dup1\n      0x52709725\n      eq\n      tag_5\n      jumpi\n    tag_2:\n      0x00\n      dup1\n      revert\n        /* \"token/MonTokenSwap.sol\":2358:2377  uint public amount2 */\n    tag_3:\n      tag_11\n      tag_12\n      jump\t// in\n    tag_11:\n      mload(0x40)\n      tag_13\n      swap2\n      swap1\n      tag_14\n      jump\t// in\n    tag_13:\n      mload(0x40)\n      dup1\n      swap2\n      sub\n      swap1\n      return\n        /* \"token/MonTokenSwap.sol\":2305:2325  IERC20 public token2 */\n    tag_4:\n      tag_15\n      tag_16\n      jump\t// in\n    tag_15:\n      mload(0x40)\n      tag_17\n      swap2\n      swap1\n      tag_18\n      jump\t// in\n    tag_17:\n      mload(0x40)\n      dup1\n      swap2\n      sub\n      swap1\n      return\n        /* \"token/MonTokenSwap.sol\":2331:2352  address public owner2 */\n    tag_5:\n      tag_19\n      tag_20\n      jump\t// in\n    tag_19:\n      mload(0x40)\n      tag_21\n      swap2\n      swap1\n      tag_22\n      jump\t// in\n    tag_21:\n      mload(0x40)\n      dup1\n      swap2\n      sub\n      swap1\n      return\n        /* \"token/MonTokenSwap.sol\":2253:2274  address public owner1 */\n    tag_6:\n      tag_23\n      tag_24\n      jump\t// in\n    tag_23:\n      mload(0x40)\n      tag_25\n      swap2\n      swap1\n      tag_22\n      jump\t// in\n    tag_25:\n      mload(0x40)\n      dup1\n      swap2\n      sub\n      swap1\n      return\n        /* \"token/MonTokenSwap.sol\":2737:3233  function swap() public {... */\n    tag_7:\n      tag_26\n      tag_27\n      jump\t// in\n    tag_26:\n      stop\n        /* \"token/MonTokenSwap.sol\":2227:2247  IERC20 public token1 */\n    tag_8:\n      tag_28\n      tag_29\n      jump\t// in\n    tag_28:\n      mload(0x40)\n      tag_30\n      swap2\n      swap1\n      tag_18\n      jump\t// in\n    tag_30:\n      mload(0x40)\n      dup1\n      swap2\n      sub\n      swap1\n      return\n        /* \"token/MonTokenSwap.sol\":2280:2299  uint public amount1 */\n    tag_9:\n      tag_31\n      tag_32\n      jump\t// in\n    tag_31:\n      mload(0x40)\n      tag_33\n      swap2\n      swap1\n      tag_14\n      jump\t// in\n    tag_33:\n      mload(0x40)\n      dup1\n      swap2\n      sub\n      swap1\n      return\n        /* \"token/MonTokenSwap.sol\":2358:2377  uint public amount2 */\n    tag_12:\n      sload(0x05)\n      dup2\n      jump\t// out\n        /* \"token/MonTokenSwap.sol\":2305:2325  IERC20 public token2 */\n    tag_16:\n      0x03\n      0x00\n      swap1\n      sload\n      swap1\n      0x0100\n      exp\n      swap1\n      div\n      0xffffffffffffffffffffffffffffffffffffffff\n      and\n      dup2\n      jump\t// out\n        /* \"token/MonTokenSwap.sol\":2331:2352  address public owner2 */\n    tag_20:\n      0x04\n      0x00\n      swap1\n      sload\n      swap1\n      0x0100\n      exp\n      swap1\n      div\n      0xffffffffffffffffffffffffffffffffffffffff\n      and\n      dup2\n      jump\t// out\n        /* \"token/MonTokenSwap.sol\":2253:2274  address public owner1 */\n    tag_24:\n      0x01\n      0x00\n      swap1\n      sload\n      swap1\n      0x0100\n      exp\n      swap1\n      div\n      0xffffffffffffffffffffffffffffffffffffffff\n      and\n      dup2\n      jump\t// out\n        /* \"token/MonTokenSwap.sol\":2737:3233  function swap() public {... */\n    tag_27:\n        /* \"token/MonTokenSwap.sol\":2792:2798  owner1 */\n      0x01\n      0x00\n      swap1\n      sload\n      swap1\n      0x0100\n      exp\n      swap1\n      div\n      0xffffffffffffffffffffffffffffffffffffffff\n      and\n        /* \"token/MonTokenSwap.sol\":2778:2798  msg.sender == owner1 */\n      0xffffffffffffffffffffffffffffffffffffffff\n      and\n        /* \"token/MonTokenSwap.sol\":2778:2788  msg.sender */\n      caller\n        /* \"token/MonTokenSwap.sol\":2778:2798  msg.sender == owner1 */\n      0xffffffffffffffffffffffffffffffffffffffff\n      and\n      eq\n        /* \"token/MonTokenSwap.sol\":2778:2822  msg.sender == owner1 || msg.sender == owner2 */\n      dup1\n      tag_35\n      jumpi\n      pop\n        /* \"token/MonTokenSwap.sol\":2816:2822  owner2 */\n      0x04\n      0x00\n      swap1\n      sload\n      swap1\n      0x0100\n      exp\n      swap1\n      div\n      0xffffffffffffffffffffffffffffffffffffffff\n      and\n        /* \"token/MonTokenSwap.sol\":2802:2822  msg.sender == owner2 */\n      0xffffffffffffffffffffffffffffffffffffffff\n      and\n        /* \"token/MonTokenSwap.sol\":2802:2812  msg.sender */\n      caller\n        /* \"token/MonTokenSwap.sol\":2802:2822  msg.sender == owner2 */\n      0xffffffffffffffffffffffffffffffffffffffff\n      and\n      eq\n        /* \"token/MonTokenSwap.sol\":2778:2822  msg.sender == owner1 || msg.sender == owner2 */\n    tag_35:\n        /* \"token/MonTokenSwap.sol\":2770:2841  require(msg.sender == owner1 || msg.sender == owner2, \"Not authorized\") */\n      tag_36\n      jumpi\n      mload(0x40)\n      0x08c379a000000000000000000000000000000000000000000000000000000000\n      dup2\n      mstore\n      0x04\n      add\n      tag_37\n      swap1\n      tag_38\n      jump\t// in\n    tag_37:\n      mload(0x40)\n      dup1\n      swap2\n      sub\n      swap1\n      revert\n    tag_36:\n        /* \"token/MonTokenSwap.sol\":2915:2922  amount1 */\n      sload(0x02)\n        /* \"token/MonTokenSwap.sol\":2872:2878  token1 */\n      0x00\n      dup1\n      sload\n      swap1\n      0x0100\n      exp\n      swap1\n      div\n      0xffffffffffffffffffffffffffffffffffffffff\n      and\n        /* \"token/MonTokenSwap.sol\":2872:2888  token1.allowance */\n      0xffffffffffffffffffffffffffffffffffffffff\n      and\n      0xdd62ed3e\n        /* \"token/MonTokenSwap.sol\":2889:2895  owner1 */\n      0x01\n      0x00\n      swap1\n      sload\n      swap1\n      0x0100\n      exp\n      swap1\n      div\n      0xffffffffffffffffffffffffffffffffffffffff\n      and\n        /* \"token/MonTokenSwap.sol\":2905:2909  this */\n      address\n        /* \"token/MonTokenSwap.sol\":2872:2911  token1.allowance(owner1, address(this)) */\n      mload(0x40)\n      dup4\n      0xffffffff\n      and\n      0xe0\n      shl\n      dup2\n      mstore\n      0x04\n      add\n      tag_39\n      swap3\n      swap2\n      swap1\n      tag_40\n      jump\t// in\n    tag_39:\n      0x20\n      mload(0x40)\n      dup1\n      dup4\n      sub\n      dup2\n      dup7\n      gas\n      staticcall\n      iszero\n      dup1\n      iszero\n      tag_42\n      jumpi\n      returndatasize\n      0x00\n      dup1\n      returndatacopy\n      revert(0x00, returndatasize)\n    tag_42:\n      pop\n      pop\n      pop\n      pop\n      mload(0x40)\n      returndatasize\n      not(0x1f)\n      0x1f\n      dup3\n      add\n      and\n      dup3\n      add\n      dup1\n      0x40\n      mstore\n      pop\n      dup2\n      add\n      swap1\n      tag_43\n      swap2\n      swap1\n      tag_44\n      jump\t// in\n    tag_43:\n        /* \"token/MonTokenSwap.sol\":2872:2922  token1.allowance(owner1, address(this)) >= amount1 */\n      lt\n      iszero\n        /* \"token/MonTokenSwap.sol\":2851:2973  require(... */\n      tag_45\n      jumpi\n      mload(0x40)\n      0x08c379a000000000000000000000000000000000000000000000000000000000\n      dup2\n      mstore\n      0x04\n      add\n      tag_46\n      swap1\n      tag_47\n      jump\t// in\n    tag_46:\n      mload(0x40)\n      dup1\n      swap2\n      sub\n      swap1\n      revert\n    tag_45:\n        /* \"token/MonTokenSwap.sol\":3047:3054  amount2 */\n      sload(0x05)\n        /* \"token/MonTokenSwap.sol\":3004:3010  token2 */\n      0x03\n      0x00\n      swap1\n      sload\n      swap1\n      0x0100\n      exp\n      swap1\n      div\n      0xffffffffffffffffffffffffffffffffffffffff\n      and\n        /* \"token/MonTokenSwap.sol\":3004:3020  token2.allowance */\n      0xffffffffffffffffffffffffffffffffffffffff\n      and\n      0xdd62ed3e\n        /* \"token/MonTokenSwap.sol\":3021:3027  owner2 */\n      0x04\n      0x00\n      swap1\n      sload\n      swap1\n      0x0100\n      exp\n      swap1\n      div\n      0xffffffffffffffffffffffffffffffffffffffff\n      and\n        /* \"token/MonTokenSwap.sol\":3037:3041  this */\n      address\n        /* \"token/MonTokenSwap.sol\":3004:3043  token2.allowance(owner2, address(this)) */\n      mload(0x40)\n      dup4\n      0xffffffff\n      and\n      0xe0\n      shl\n      dup2\n      mstore\n      0x04\n      add\n      tag_48\n      swap3\n      swap2\n      swap1\n      tag_40\n      jump\t// in\n    tag_48:\n      0x20\n      mload(0x40)\n      dup1\n      dup4\n      sub\n      dup2\n      dup7\n      gas\n      staticcall\n      iszero\n      dup1\n      iszero\n      tag_50\n      jumpi\n      returndatasize\n      0x00\n      dup1\n      returndatacopy\n      revert(0x00, returndatasize)\n    tag_50:\n      pop\n      pop\n      pop\n      pop\n      mload(0x40)\n      returndatasize\n      not(0x1f)\n      0x1f\n      dup3\n      add\n      and\n      dup3\n      add\n      dup1\n      0x40\n      mstore\n      pop\n      dup2\n      add\n      swap1\n      tag_51\n      swap2\n      swap1\n      tag_44\n      jump\t// in\n    tag_51:\n        /* \"token/MonTokenSwap.sol\":3004:3054  token2.allowance(owner2, address(this)) >= amount2 */\n      lt\n      iszero\n        /* \"token/MonTokenSwap.sol\":2983:3105  require(... */\n      tag_52\n      jumpi\n      mload(0x40)\n      0x08c379a000000000000000000000000000000000000000000000000000000000\n      dup2\n      mstore\n      0x04\n      add\n      tag_53\n      swap1\n      tag_54\n      jump\t// in\n    tag_53:\n      mload(0x40)\n      dup1\n      swap2\n      sub\n      swap1\n      revert\n    tag_52:\n        /* \"token/MonTokenSwap.sol\":3116:3166  _safeTransferFrom(token1, owner1, owner2, amount1) */\n      tag_55\n        /* \"token/MonTokenSwap.sol\":3134:3140  token1 */\n      0x00\n      dup1\n      sload\n      swap1\n      0x0100\n      exp\n      swap1\n      div\n      0xffffffffffffffffffffffffffffffffffffffff\n      and\n        /* \"token/MonTokenSwap.sol\":3142:3148  owner1 */\n      0x01\n      0x00\n      swap1\n      sload\n      swap1\n      0x0100\n      exp\n      swap1\n      div\n      0xffffffffffffffffffffffffffffffffffffffff\n      and\n        /* \"token/MonTokenSwap.sol\":3150:3156  owner2 */\n      0x04\n      0x00\n      swap1\n      sload\n      swap1\n      0x0100\n      exp\n      swap1\n      div\n      0xffffffffffffffffffffffffffffffffffffffff\n      and\n        /* \"token/MonTokenSwap.sol\":3158:3165  amount1 */\n      sload(0x02)\n        /* \"token/MonTokenSwap.sol\":3116:3133  _safeTransferFrom */\n      tag_56\n        /* \"token/MonTokenSwap.sol\":3116:3166  _safeTransferFrom(token1, owner1, owner2, amount1) */\n      jump\t// in\n    tag_55:\n        /* \"token/MonTokenSwap.sol\":3176:3226  _safeTransferFrom(token2, owner2, owner1, amount2) */\n      tag_57\n        /* \"token/MonTokenSwap.sol\":3194:3200  token2 */\n      0x03\n      0x00\n      swap1\n      sload\n      swap1\n      0x0100\n      exp\n      swap1\n      div\n      0xffffffffffffffffffffffffffffffffffffffff\n      and\n        /* \"token/MonTokenSwap.sol\":3202:3208  owner2 */\n      0x04\n      0x00\n      swap1\n      sload\n      swap1\n      0x0100\n      exp\n      swap1\n      div\n      0xffffffffffffffffffffffffffffffffffffffff\n      and\n        /* \"token/MonTokenSwap.sol\":3210:3216  owner1 */\n      0x01\n      0x00\n      swap1\n      sload\n      swap1\n      0x0100\n      exp\n      swap1\n      div\n      0xffffffffffffffffffffffffffffffffffffffff\n      and\n        /* \"token/MonTokenSwap.sol\":3218:3225  amount2 */\n      sload(0x05)\n        /* \"token/MonTokenSwap.sol\":3176:3193  _safeTransferFrom */\n      tag_56\n        /* \"token/MonTokenSwap.sol\":3176:3226  _safeTransferFrom(token2, owner2, owner1, amount2) */\n      jump\t// in\n    tag_57:\n        /* \"token/MonTokenSwap.sol\":2737:3233  function swap() public {... */\n      jump\t// out\n        /* \"token/MonTokenSwap.sol\":2227:2247  IERC20 public token1 */\n    tag_29:\n      0x00\n      dup1\n      sload\n      swap1\n      0x0100\n      exp\n      swap1\n      div\n      0xffffffffffffffffffffffffffffffffffffffff\n      and\n      dup2\n      jump\t// out\n        /* \"token/MonTokenSwap.sol\":2280:2299  uint public amount1 */\n    tag_32:\n      sload(0x02)\n      dup2\n      jump\t// out\n        /* \"token/MonTokenSwap.sol\":3239:3496  function _safeTransferFrom(... */\n    tag_56:\n        /* \"token/MonTokenSwap.sol\":3384:3393  bool sent */\n      0x00\n        /* \"token/MonTokenSwap.sol\":3396:3401  token */\n      dup5\n        /* \"token/MonTokenSwap.sol\":3396:3414  token.transferFrom */\n      0xffffffffffffffffffffffffffffffffffffffff\n      and\n      0x23b872dd\n        /* \"token/MonTokenSwap.sol\":3415:3421  sender */\n      dup6\n        /* \"token/MonTokenSwap.sol\":3423:3432  recipient */\n      dup6\n        /* \"token/MonTokenSwap.sol\":3434:3440  amount */\n      dup6\n        /* \"token/MonTokenSwap.sol\":3396:3441  token.transferFrom(sender, recipient, amount) */\n      mload(0x40)\n      dup5\n      0xffffffff\n      and\n      0xe0\n      shl\n      dup2\n      mstore\n      0x04\n      add\n      tag_59\n      swap4\n      swap3\n      swap2\n      swap1\n      tag_60\n      jump\t// in\n    tag_59:\n      0x20\n      mload(0x40)\n      dup1\n      dup4\n      sub\n      dup2\n      0x00\n      dup8\n      gas\n      call\n      iszero\n      dup1\n      iszero\n      tag_62\n      jumpi\n      returndatasize\n      0x00\n      dup1\n      returndatacopy\n      revert(0x00, returndatasize)\n    tag_62:\n      pop\n      pop\n      pop\n      pop\n      mload(0x40)\n      returndatasize\n      not(0x1f)\n      0x1f\n      dup3\n      add\n      and\n      dup3\n      add\n      dup1\n      0x40\n      mstore\n      pop\n      dup2\n      add\n      swap1\n      tag_63\n      swap2\n      swap1\n      tag_64\n      jump\t// in\n    tag_63:\n        /* \"token/MonTokenSwap.sol\":3384:3441  bool sent = token.transferFrom(sender, recipient, amount) */\n      swap1\n      pop\n        /* \"token/MonTokenSwap.sol\":3459:3463  sent */\n      dup1\n        /* \"token/MonTokenSwap.sol\":3451:3489  require(sent, \"Token transfer failed\") */\n      tag_65\n      jumpi\n      mload(0x40)\n      0x08c379a000000000000000000000000000000000000000000000000000000000\n      dup2\n      mstore\n      0x04\n      add\n      tag_66\n      swap1\n      tag_67\n      jump\t// in\n    tag_66:\n      mload(0x40)\n      dup1\n      swap2\n      sub\n      swap1\n      revert\n    tag_65:\n        /* \"token/MonTokenSwap.sol\":3374:3496  {... */\n      pop\n        /* \"token/MonTokenSwap.sol\":3239:3496  function _safeTransferFrom(... */\n      pop\n      pop\n      pop\n      pop\n      jump\t// out\n        /* \"#utility.yul\":7:84   */\n    tag_68:\n        /* \"#utility.yul\":44:51   */\n      0x00\n        /* \"#utility.yul\":73:78   */\n      dup2\n        /* \"#utility.yul\":62:78   */\n      swap1\n      pop\n        /* \"#utility.yul\":7:84   */\n      swap2\n      swap1\n      pop\n      jump\t// out\n        /* \"#utility.yul\":90:208   */\n    tag_69:\n        /* \"#utility.yul\":177:201   */\n      tag_98\n        /* \"#utility.yul\":195:200   */\n      dup2\n        /* \"#utility.yul\":177:201   */\n      tag_68\n      jump\t// in\n    tag_98:\n        /* \"#utility.yul\":172:175   */\n      dup3\n        /* \"#utility.yul\":165:202   */\n      mstore\n        /* \"#utility.yul\":90:208   */\n      pop\n      pop\n      jump\t// out\n        /* \"#utility.yul\":214:436   */\n    tag_14:\n        /* \"#utility.yul\":307:311   */\n      0x00\n        /* \"#utility.yul\":345:347   */\n      0x20\n        /* \"#utility.yul\":334:343   */\n      dup3\n        /* \"#utility.yul\":330:348   */\n      add\n        /* \"#utility.yul\":322:348   */\n      swap1\n      pop\n        /* \"#utility.yul\":358:429   */\n      tag_100\n        /* \"#utility.yul\":426:427   */\n      0x00\n        /* \"#utility.yul\":415:424   */\n      dup4\n        /* \"#utility.yul\":411:428   */\n      add\n        /* \"#utility.yul\":402:408   */\n      dup5\n        /* \"#utility.yul\":358:429   */\n      tag_69\n      jump\t// in\n    tag_100:\n        /* \"#utility.yul\":214:436   */\n      swap3\n      swap2\n      pop\n      pop\n      jump\t// out\n        /* \"#utility.yul\":442:568   */\n    tag_70:\n        /* \"#utility.yul\":479:486   */\n      0x00\n        /* \"#utility.yul\":519:561   */\n      0xffffffffffffffffffffffffffffffffffffffff\n        /* \"#utility.yul\":512:517   */\n      dup3\n        /* \"#utility.yul\":508:562   */\n      and\n        /* \"#utility.yul\":497:562   */\n      swap1\n      pop\n        /* \"#utility.yul\":442:568   */\n      swap2\n      swap1\n      pop\n      jump\t// out\n        /* \"#utility.yul\":574:634   */\n    tag_71:\n        /* \"#utility.yul\":602:605   */\n      0x00\n        /* \"#utility.yul\":623:628   */\n      dup2\n        /* \"#utility.yul\":616:628   */\n      swap1\n      pop\n        /* \"#utility.yul\":574:634   */\n      swap2\n      swap1\n      pop\n      jump\t// out\n        /* \"#utility.yul\":640:782   */\n    tag_72:\n        /* \"#utility.yul\":690:699   */\n      0x00\n        /* \"#utility.yul\":723:776   */\n      tag_104\n        /* \"#utility.yul\":741:775   */\n      tag_105\n        /* \"#utility.yul\":750:774   */\n      tag_106\n        /* \"#utility.yul\":768:773   */\n      dup5\n        /* \"#utility.yul\":750:774   */\n      tag_70\n      jump\t// in\n    tag_106:\n        /* \"#utility.yul\":741:775   */\n      tag_71\n      jump\t// in\n    tag_105:\n        /* \"#utility.yul\":723:776   */\n      tag_70\n      jump\t// in\n    tag_104:\n        /* \"#utility.yul\":710:776   */\n      swap1\n      pop\n        /* \"#utility.yul\":640:782   */\n      swap2\n      swap1\n      pop\n      jump\t// out\n        /* \"#utility.yul\":788:914   */\n    tag_73:\n        /* \"#utility.yul\":838:847   */\n      0x00\n        /* \"#utility.yul\":871:908   */\n      tag_108\n        /* \"#utility.yul\":902:907   */\n      dup3\n        /* \"#utility.yul\":871:908   */\n      tag_72\n      jump\t// in\n    tag_108:\n        /* \"#utility.yul\":858:908   */\n      swap1\n      pop\n        /* \"#utility.yul\":788:914   */\n      swap2\n      swap1\n      pop\n      jump\t// out\n        /* \"#utility.yul\":920:1059   */\n    tag_74:\n        /* \"#utility.yul\":983:992   */\n      0x00\n        /* \"#utility.yul\":1016:1053   */\n      tag_110\n        /* \"#utility.yul\":1047:1052   */\n      dup3\n        /* \"#utility.yul\":1016:1053   */\n      tag_73\n      jump\t// in\n    tag_110:\n        /* \"#utility.yul\":1003:1053   */\n      swap1\n      pop\n        /* \"#utility.yul\":920:1059   */\n      swap2\n      swap1\n      pop\n      jump\t// out\n        /* \"#utility.yul\":1065:1222   */\n    tag_75:\n        /* \"#utility.yul\":1165:1215   */\n      tag_112\n        /* \"#utility.yul\":1209:1214   */\n      dup2\n        /* \"#utility.yul\":1165:1215   */\n      tag_74\n      jump\t// in\n    tag_112:\n        /* \"#utility.yul\":1160:1163   */\n      dup3\n        /* \"#utility.yul\":1153:1216   */\n      mstore\n        /* \"#utility.yul\":1065:1222   */\n      pop\n      pop\n      jump\t// out\n        /* \"#utility.yul\":1228:1476   */\n    tag_18:\n        /* \"#utility.yul\":1334:1338   */\n      0x00\n        /* \"#utility.yul\":1372:1374   */\n      0x20\n        /* \"#utility.yul\":1361:1370   */\n      dup3\n        /* \"#utility.yul\":1357:1375   */\n      add\n        /* \"#utility.yul\":1349:1375   */\n      swap1\n      pop\n        /* \"#utility.yul\":1385:1469   */\n      tag_114\n        /* \"#utility.yul\":1466:1467   */\n      0x00\n        /* \"#utility.yul\":1455:1464   */\n      dup4\n        /* \"#utility.yul\":1451:1468   */\n      add\n        /* \"#utility.yul\":1442:1448   */\n      dup5\n        /* \"#utility.yul\":1385:1469   */\n      tag_75\n      jump\t// in\n    tag_114:\n        /* \"#utility.yul\":1228:1476   */\n      swap3\n      swap2\n      pop\n      pop\n      jump\t// out\n        /* \"#utility.yul\":1482:1578   */\n    tag_76:\n        /* \"#utility.yul\":1519:1526   */\n      0x00\n        /* \"#utility.yul\":1548:1572   */\n      tag_116\n        /* \"#utility.yul\":1566:1571   */\n      dup3\n        /* \"#utility.yul\":1548:1572   */\n      tag_70\n      jump\t// in\n    tag_116:\n        /* \"#utility.yul\":1537:1572   */\n      swap1\n      pop\n        /* \"#utility.yul\":1482:1578   */\n      swap2\n      swap1\n      pop\n      jump\t// out\n        /* \"#utility.yul\":1584:1702   */\n    tag_77:\n        /* \"#utility.yul\":1671:1695   */\n      tag_118\n        /* \"#utility.yul\":1689:1694   */\n      dup2\n        /* \"#utility.yul\":1671:1695   */\n      tag_76\n      jump\t// in\n    tag_118:\n        /* \"#utility.yul\":1666:1669   */\n      dup3\n        /* \"#utility.yul\":1659:1696   */\n      mstore\n        /* \"#utility.yul\":1584:1702   */\n      pop\n      pop\n      jump\t// out\n        /* \"#utility.yul\":1708:1930   */\n    tag_22:\n        /* \"#utility.yul\":1801:1805   */\n      0x00\n        /* \"#utility.yul\":1839:1841   */\n      0x20\n        /* \"#utility.yul\":1828:1837   */\n      dup3\n        /* \"#utility.yul\":1824:1842   */\n      add\n        /* \"#utility.yul\":1816:1842   */\n      swap1\n      pop\n        /* \"#utility.yul\":1852:1923   */\n      tag_120\n        /* \"#utility.yul\":1920:1921   */\n      0x00\n        /* \"#utility.yul\":1909:1918   */\n      dup4\n        /* \"#utility.yul\":1905:1922   */\n      add\n        /* \"#utility.yul\":1896:1902   */\n      dup5\n        /* \"#utility.yul\":1852:1923   */\n      tag_77\n      jump\t// in\n    tag_120:\n        /* \"#utility.yul\":1708:1930   */\n      swap3\n      swap2\n      pop\n      pop\n      jump\t// out\n        /* \"#utility.yul\":1936:2105   */\n    tag_78:\n        /* \"#utility.yul\":2020:2031   */\n      0x00\n        /* \"#utility.yul\":2054:2060   */\n      dup3\n        /* \"#utility.yul\":2049:2052   */\n      dup3\n        /* \"#utility.yul\":2042:2061   */\n      mstore\n        /* \"#utility.yul\":2094:2098   */\n      0x20\n        /* \"#utility.yul\":2089:2092   */\n      dup3\n        /* \"#utility.yul\":2085:2099   */\n      add\n        /* \"#utility.yul\":2070:2099   */\n      swap1\n      pop\n        /* \"#utility.yul\":1936:2105   */\n      swap3\n      swap2\n      pop\n      pop\n      jump\t// out\n        /* \"#utility.yul\":2111:2275   */\n    tag_79:\n        /* \"#utility.yul\":2251:2267   */\n      0x4e6f7420617574686f72697a6564000000000000000000000000000000000000\n        /* \"#utility.yul\":2247:2248   */\n      0x00\n        /* \"#utility.yul\":2239:2245   */\n      dup3\n        /* \"#utility.yul\":2235:2249   */\n      add\n        /* \"#utility.yul\":2228:2268   */\n      mstore\n        /* \"#utility.yul\":2111:2275   */\n      pop\n      jump\t// out\n        /* \"#utility.yul\":2281:2647   */\n    tag_80:\n        /* \"#utility.yul\":2423:2426   */\n      0x00\n        /* \"#utility.yul\":2444:2511   */\n      tag_124\n        /* \"#utility.yul\":2508:2510   */\n      0x0e\n        /* \"#utility.yul\":2503:2506   */\n      dup4\n        /* \"#utility.yul\":2444:2511   */\n      tag_78\n      jump\t// in\n    tag_124:\n        /* \"#utility.yul\":2437:2511   */\n      swap2\n      pop\n        /* \"#utility.yul\":2520:2613   */\n      tag_125\n        /* \"#utility.yul\":2609:2612   */\n      dup3\n        /* \"#utility.yul\":2520:2613   */\n      tag_79\n      jump\t// in\n    tag_125:\n        /* \"#utility.yul\":2638:2640   */\n      0x20\n        /* \"#utility.yul\":2633:2636   */\n      dup3\n        /* \"#utility.yul\":2629:2641   */\n      add\n        /* \"#utility.yul\":2622:2641   */\n      swap1\n      pop\n        /* \"#utility.yul\":2281:2647   */\n      swap2\n      swap1\n      pop\n      jump\t// out\n        /* \"#utility.yul\":2653:3072   */\n    tag_38:\n        /* \"#utility.yul\":2819:2823   */\n      0x00\n        /* \"#utility.yul\":2857:2859   */\n      0x20\n        /* \"#utility.yul\":2846:2855   */\n      dup3\n        /* \"#utility.yul\":2842:2860   */\n      add\n        /* \"#utility.yul\":2834:2860   */\n      swap1\n      pop\n        /* \"#utility.yul\":2906:2915   */\n      dup2\n        /* \"#utility.yul\":2900:2904   */\n      dup2\n        /* \"#utility.yul\":2896:2916   */\n      sub\n        /* \"#utility.yul\":2892:2893   */\n      0x00\n        /* \"#utility.yul\":2881:2890   */\n      dup4\n        /* \"#utility.yul\":2877:2894   */\n      add\n        /* \"#utility.yul\":2870:2917   */\n      mstore\n        /* \"#utility.yul\":2934:3065   */\n      tag_127\n        /* \"#utility.yul\":3060:3064   */\n      dup2\n        /* \"#utility.yul\":2934:3065   */\n      tag_80\n      jump\t// in\n    tag_127:\n        /* \"#utility.yul\":2926:3065   */\n      swap1\n      pop\n        /* \"#utility.yul\":2653:3072   */\n      swap2\n      swap1\n      pop\n      jump\t// out\n        /* \"#utility.yul\":3078:3410   */\n    tag_40:\n        /* \"#utility.yul\":3199:3203   */\n      0x00\n        /* \"#utility.yul\":3237:3239   */\n      0x40\n        /* \"#utility.yul\":3226:3235   */\n      dup3\n        /* \"#utility.yul\":3222:3240   */\n      add\n        /* \"#utility.yul\":3214:3240   */\n      swap1\n      pop\n        /* \"#utility.yul\":3250:3321   */\n      tag_129\n        /* \"#utility.yul\":3318:3319   */\n      0x00\n        /* \"#utility.yul\":3307:3316   */\n      dup4\n        /* \"#utility.yul\":3303:3320   */\n      add\n        /* \"#utility.yul\":3294:3300   */\n      dup6\n        /* \"#utility.yul\":3250:3321   */\n      tag_77\n      jump\t// in\n    tag_129:\n        /* \"#utility.yul\":3331:3403   */\n      tag_130\n        /* \"#utility.yul\":3399:3401   */\n      0x20\n        /* \"#utility.yul\":3388:3397   */\n      dup4\n        /* \"#utility.yul\":3384:3402   */\n      add\n        /* \"#utility.yul\":3375:3381   */\n      dup5\n        /* \"#utility.yul\":3331:3403   */\n      tag_77\n      jump\t// in\n    tag_130:\n        /* \"#utility.yul\":3078:3410   */\n      swap4\n      swap3\n      pop\n      pop\n      pop\n      jump\t// out\n        /* \"#utility.yul\":3497:3614   */\n    tag_82:\n        /* \"#utility.yul\":3606:3607   */\n      0x00\n        /* \"#utility.yul\":3603:3604   */\n      dup1\n        /* \"#utility.yul\":3596:3608   */\n      revert\n        /* \"#utility.yul\":3743:3865   */\n    tag_84:\n        /* \"#utility.yul\":3816:3840   */\n      tag_135\n        /* \"#utility.yul\":3834:3839   */\n      dup2\n        /* \"#utility.yul\":3816:3840   */\n      tag_68\n      jump\t// in\n    tag_135:\n        /* \"#utility.yul\":3809:3814   */\n      dup2\n        /* \"#utility.yul\":3806:3841   */\n      eq\n        /* \"#utility.yul\":3796:3859   */\n      tag_136\n      jumpi\n        /* \"#utility.yul\":3855:3856   */\n      0x00\n        /* \"#utility.yul\":3852:3853   */\n      dup1\n        /* \"#utility.yul\":3845:3857   */\n      revert\n        /* \"#utility.yul\":3796:3859   */\n    tag_136:\n        /* \"#utility.yul\":3743:3865   */\n      pop\n      jump\t// out\n        /* \"#utility.yul\":3871:4014   */\n    tag_85:\n        /* \"#utility.yul\":3928:3933   */\n      0x00\n        /* \"#utility.yul\":3959:3965   */\n      dup2\n        /* \"#utility.yul\":3953:3966   */\n      mload\n        /* \"#utility.yul\":3944:3966   */\n      swap1\n      pop\n        /* \"#utility.yul\":3975:4008   */\n      tag_138\n        /* \"#utility.yul\":4002:4007   */\n      dup2\n        /* \"#utility.yul\":3975:4008   */\n      tag_84\n      jump\t// in\n    tag_138:\n        /* \"#utility.yul\":3871:4014   */\n      swap3\n      swap2\n      pop\n      pop\n      jump\t// out\n        /* \"#utility.yul\":4020:4371   */\n    tag_44:\n        /* \"#utility.yul\":4090:4096   */\n      0x00\n        /* \"#utility.yul\":4139:4141   */\n      0x20\n        /* \"#utility.yul\":4127:4136   */\n      dup3\n        /* \"#utility.yul\":4118:4125   */\n      dup5\n        /* \"#utility.yul\":4114:4137   */\n      sub\n        /* \"#utility.yul\":4110:4142   */\n      slt\n        /* \"#utility.yul\":4107:4226   */\n      iszero\n      tag_140\n      jumpi\n        /* \"#utility.yul\":4145:4224   */\n      tag_141\n      tag_82\n      jump\t// in\n    tag_141:\n        /* \"#utility.yul\":4107:4226   */\n    tag_140:\n        /* \"#utility.yul\":4265:4266   */\n      0x00\n        /* \"#utility.yul\":4290:4354   */\n      tag_142\n        /* \"#utility.yul\":4346:4353   */\n      dup5\n        /* \"#utility.yul\":4337:4343   */\n      dup3\n        /* \"#utility.yul\":4326:4335   */\n      dup6\n        /* \"#utility.yul\":4322:4344   */\n      add\n        /* \"#utility.yul\":4290:4354   */\n      tag_85\n      jump\t// in\n    tag_142:\n        /* \"#utility.yul\":4280:4354   */\n      swap2\n      pop\n        /* \"#utility.yul\":4236:4364   */\n      pop\n        /* \"#utility.yul\":4020:4371   */\n      swap3\n      swap2\n      pop\n      pop\n      jump\t// out\n        /* \"#utility.yul\":4377:4552   */\n    tag_86:\n        /* \"#utility.yul\":4517:4544   */\n      0x546f6b656e203120616c6c6f77616e636520746f6f206c6f7700000000000000\n        /* \"#utility.yul\":4513:4514   */\n      0x00\n        /* \"#utility.yul\":4505:4511   */\n      dup3\n        /* \"#utility.yul\":4501:4515   */\n      add\n        /* \"#utility.yul\":4494:4545   */\n      mstore\n        /* \"#utility.yul\":4377:4552   */\n      pop\n      jump\t// out\n        /* \"#utility.yul\":4558:4924   */\n    tag_87:\n        /* \"#utility.yul\":4700:4703   */\n      0x00\n        /* \"#utility.yul\":4721:4788   */\n      tag_145\n        /* \"#utility.yul\":4785:4787   */\n      0x19\n        /* \"#utility.yul\":4780:4783   */\n      dup4\n        /* \"#utility.yul\":4721:4788   */\n      tag_78\n      jump\t// in\n    tag_145:\n        /* \"#utility.yul\":4714:4788   */\n      swap2\n      pop\n        /* \"#utility.yul\":4797:4890   */\n      tag_146\n        /* \"#utility.yul\":4886:4889   */\n      dup3\n        /* \"#utility.yul\":4797:4890   */\n      tag_86\n      jump\t// in\n    tag_146:\n        /* \"#utility.yul\":4915:4917   */\n      0x20\n        /* \"#utility.yul\":4910:4913   */\n      dup3\n        /* \"#utility.yul\":4906:4918   */\n      add\n        /* \"#utility.yul\":4899:4918   */\n      swap1\n      pop\n        /* \"#utility.yul\":4558:4924   */\n      swap2\n      swap1\n      pop\n      jump\t// out\n        /* \"#utility.yul\":4930:5349   */\n    tag_47:\n        /* \"#utility.yul\":5096:5100   */\n      0x00\n        /* \"#utility.yul\":5134:5136   */\n      0x20\n        /* \"#utility.yul\":5123:5132   */\n      dup3\n        /* \"#utility.yul\":5119:5137   */\n      add\n        /* \"#utility.yul\":5111:5137   */\n      swap1\n      pop\n        /* \"#utility.yul\":5183:5192   */\n      dup2\n        /* \"#utility.yul\":5177:5181   */\n      dup2\n        /* \"#utility.yul\":5173:5193   */\n      sub\n        /* \"#utility.yul\":5169:5170   */\n      0x00\n        /* \"#utility.yul\":5158:5167   */\n      dup4\n        /* \"#utility.yul\":5154:5171   */\n      add\n        /* \"#utility.yul\":5147:5194   */\n      mstore\n        /* \"#utility.yul\":5211:5342   */\n      tag_148\n        /* \"#utility.yul\":5337:5341   */\n      dup2\n        /* \"#utility.yul\":5211:5342   */\n      tag_87\n      jump\t// in\n    tag_148:\n        /* \"#utility.yul\":5203:5342   */\n      swap1\n      pop\n        /* \"#utility.yul\":4930:5349   */\n      swap2\n      swap1\n      pop\n      jump\t// out\n        /* \"#utility.yul\":5355:5530   */\n    tag_88:\n        /* \"#utility.yul\":5495:5522   */\n      0x546f6b656e203220616c6c6f77616e636520746f6f206c6f7700000000000000\n        /* \"#utility.yul\":5491:5492   */\n      0x00\n        /* \"#utility.yul\":5483:5489   */\n      dup3\n        /* \"#utility.yul\":5479:5493   */\n      add\n        /* \"#utility.yul\":5472:5523   */\n      mstore\n        /* \"#utility.yul\":5355:5530   */\n      pop\n      jump\t// out\n        /* \"#utility.yul\":5536:5902   */\n    tag_89:\n        /* \"#utility.yul\":5678:5681   */\n      0x00\n        /* \"#utility.yul\":5699:5766   */\n      tag_151\n        /* \"#utility.yul\":5763:5765   */\n      0x19\n        /* \"#utility.yul\":5758:5761   */\n      dup4\n        /* \"#utility.yul\":5699:5766   */\n      tag_78\n      jump\t// in\n    tag_151:\n        /* \"#utility.yul\":5692:5766   */\n      swap2\n      pop\n        /* \"#utility.yul\":5775:5868   */\n      tag_152\n        /* \"#utility.yul\":5864:5867   */\n      dup3\n        /* \"#utility.yul\":5775:5868   */\n      tag_88\n      jump\t// in\n    tag_152:\n        /* \"#utility.yul\":5893:5895   */\n      0x20\n        /* \"#utility.yul\":5888:5891   */\n      dup3\n        /* \"#utility.yul\":5884:5896   */\n      add\n        /* \"#utility.yul\":5877:5896   */\n      swap1\n      pop\n        /* \"#utility.yul\":5536:5902   */\n      swap2\n      swap1\n      pop\n      jump\t// out\n        /* \"#utility.yul\":5908:6327   */\n    tag_54:\n        /* \"#utility.yul\":6074:6078   */\n      0x00\n        /* \"#utility.yul\":6112:6114   */\n      0x20\n        /* \"#utility.yul\":6101:6110   */\n      dup3\n        /* \"#utility.yul\":6097:6115   */\n      add\n        /* \"#utility.yul\":6089:6115   */\n      swap1\n      pop\n        /* \"#utility.yul\":6161:6170   */\n      dup2\n        /* \"#utility.yul\":6155:6159   */\n      dup2\n        /* \"#utility.yul\":6151:6171   */\n      sub\n        /* \"#utility.yul\":6147:6148   */\n      0x00\n        /* \"#utility.yul\":6136:6145   */\n      dup4\n        /* \"#utility.yul\":6132:6149   */\n      add\n        /* \"#utility.yul\":6125:6172   */\n      mstore\n        /* \"#utility.yul\":6189:6320   */\n      tag_154\n        /* \"#utility.yul\":6315:6319   */\n      dup2\n        /* \"#utility.yul\":6189:6320   */\n      tag_89\n      jump\t// in\n    tag_154:\n        /* \"#utility.yul\":6181:6320   */\n      swap1\n      pop\n        /* \"#utility.yul\":5908:6327   */\n      swap2\n      swap1\n      pop\n      jump\t// out\n        /* \"#utility.yul\":6333:6775   */\n    tag_60:\n        /* \"#utility.yul\":6482:6486   */\n      0x00\n        /* \"#utility.yul\":6520:6522   */\n      0x60\n        /* \"#utility.yul\":6509:6518   */\n      dup3\n        /* \"#utility.yul\":6505:6523   */\n      add\n        /* \"#utility.yul\":6497:6523   */\n      swap1\n      pop\n        /* \"#utility.yul\":6533:6604   */\n      tag_156\n        /* \"#utility.yul\":6601:6602   */\n      0x00\n        /* \"#utility.yul\":6590:6599   */\n      dup4\n        /* \"#utility.yul\":6586:6603   */\n      add\n        /* \"#utility.yul\":6577:6583   */\n      dup7\n        /* \"#utility.yul\":6533:6604   */\n      tag_77\n      jump\t// in\n    tag_156:\n        /* \"#utility.yul\":6614:6686   */\n      tag_157\n        /* \"#utility.yul\":6682:6684   */\n      0x20\n        /* \"#utility.yul\":6671:6680   */\n      dup4\n        /* \"#utility.yul\":6667:6685   */\n      add\n        /* \"#utility.yul\":6658:6664   */\n      dup6\n        /* \"#utility.yul\":6614:6686   */\n      tag_77\n      jump\t// in\n    tag_157:\n        /* \"#utility.yul\":6696:6768   */\n      tag_158\n        /* \"#utility.yul\":6764:6766   */\n      0x40\n        /* \"#utility.yul\":6753:6762   */\n      dup4\n        /* \"#utility.yul\":6749:6767   */\n      add\n        /* \"#utility.yul\":6740:6746   */\n      dup5\n        /* \"#utility.yul\":6696:6768   */\n      tag_69\n      jump\t// in\n    tag_158:\n        /* \"#utility.yul\":6333:6775   */\n      swap5\n      swap4\n      pop\n      pop\n      pop\n      pop\n      jump\t// out\n        /* \"#utility.yul\":6781:6871   */\n    tag_90:\n        /* \"#utility.yul\":6815:6822   */\n      0x00\n        /* \"#utility.yul\":6858:6863   */\n      dup2\n        /* \"#utility.yul\":6851:6864   */\n      iszero\n        /* \"#utility.yul\":6844:6865   */\n      iszero\n        /* \"#utility.yul\":6833:6865   */\n      swap1\n      pop\n        /* \"#utility.yul\":6781:6871   */\n      swap2\n      swap1\n      pop\n      jump\t// out\n        /* \"#utility.yul\":6877:6993   */\n    tag_91:\n        /* \"#utility.yul\":6947:6968   */\n      tag_161\n        /* \"#utility.yul\":6962:6967   */\n      dup2\n        /* \"#utility.yul\":6947:6968   */\n      tag_90\n      jump\t// in\n    tag_161:\n        /* \"#utility.yul\":6940:6945   */\n      dup2\n        /* \"#utility.yul\":6937:6969   */\n      eq\n        /* \"#utility.yul\":6927:6987   */\n      tag_162\n      jumpi\n        /* \"#utility.yul\":6983:6984   */\n      0x00\n        /* \"#utility.yul\":6980:6981   */\n      dup1\n        /* \"#utility.yul\":6973:6985   */\n      revert\n        /* \"#utility.yul\":6927:6987   */\n    tag_162:\n        /* \"#utility.yul\":6877:6993   */\n      pop\n      jump\t// out\n        /* \"#utility.yul\":6999:7136   */\n    tag_92:\n        /* \"#utility.yul\":7053:7058   */\n      0x00\n        /* \"#utility.yul\":7084:7090   */\n      dup2\n        /* \"#utility.yul\":7078:7091   */\n      mload\n        /* \"#utility.yul\":7069:7091   */\n      swap1\n      pop\n        /* \"#utility.yul\":7100:7130   */\n      tag_164\n        /* \"#utility.yul\":7124:7129   */\n      dup2\n        /* \"#utility.yul\":7100:7130   */\n      tag_91\n      jump\t// in\n    tag_164:\n        /* \"#utility.yul\":6999:7136   */\n      swap3\n      swap2\n      pop\n      pop\n      jump\t// out\n        /* \"#utility.yul\":7142:7487   */\n    tag_64:\n        /* \"#utility.yul\":7209:7215   */\n      0x00\n        /* \"#utility.yul\":7258:7260   */\n      0x20\n        /* \"#utility.yul\":7246:7255   */\n      dup3\n        /* \"#utility.yul\":7237:7244   */\n      dup5\n        /* \"#utility.yul\":7233:7256   */\n      sub\n        /* \"#utility.yul\":7229:7261   */\n      slt\n        /* \"#utility.yul\":7226:7345   */\n      iszero\n      tag_166\n      jumpi\n        /* \"#utility.yul\":7264:7343   */\n      tag_167\n      tag_82\n      jump\t// in\n    tag_167:\n        /* \"#utility.yul\":7226:7345   */\n    tag_166:\n        /* \"#utility.yul\":7384:7385   */\n      0x00\n        /* \"#utility.yul\":7409:7470   */\n      tag_168\n        /* \"#utility.yul\":7462:7469   */\n      dup5\n        /* \"#utility.yul\":7453:7459   */\n      dup3\n        /* \"#utility.yul\":7442:7451   */\n      dup6\n        /* \"#utility.yul\":7438:7460   */\n      add\n        /* \"#utility.yul\":7409:7470   */\n      tag_92\n      jump\t// in\n    tag_168:\n        /* \"#utility.yul\":7399:7470   */\n      swap2\n      pop\n        /* \"#utility.yul\":7355:7480   */\n      pop\n        /* \"#utility.yul\":7142:7487   */\n      swap3\n      swap2\n      pop\n      pop\n      jump\t// out\n        /* \"#utility.yul\":7493:7664   */\n    tag_93:\n        /* \"#utility.yul\":7633:7656   */\n      0x546f6b656e207472616e73666572206661696c65640000000000000000000000\n        /* \"#utility.yul\":7629:7630   */\n      0x00\n        /* \"#utility.yul\":7621:7627   */\n      dup3\n        /* \"#utility.yul\":7617:7631   */\n      add\n        /* \"#utility.yul\":7610:7657   */\n      mstore\n        /* \"#utility.yul\":7493:7664   */\n      pop\n      jump\t// out\n        /* \"#utility.yul\":7670:8036   */\n    tag_94:\n        /* \"#utility.yul\":7812:7815   */\n      0x00\n        /* \"#utility.yul\":7833:7900   */\n      tag_171\n        /* \"#utility.yul\":7897:7899   */\n      0x15\n        /* \"#utility.yul\":7892:7895   */\n      dup4\n        /* \"#utility.yul\":7833:7900   */\n      tag_78\n      jump\t// in\n    tag_171:\n        /* \"#utility.yul\":7826:7900   */\n      swap2\n      pop\n        /* \"#utility.yul\":7909:8002   */\n      tag_172\n        /* \"#utility.yul\":7998:8001   */\n      dup3\n        /* \"#utility.yul\":7909:8002   */\n      tag_93\n      jump\t// in\n    tag_172:\n        /* \"#utility.yul\":8027:8029   */\n      0x20\n        /* \"#utility.yul\":8022:8025   */\n      dup3\n        /* \"#utility.yul\":8018:8030   */\n      add\n        /* \"#utility.yul\":8011:8030   */\n      swap1\n      pop\n        /* \"#utility.yul\":7670:8036   */\n      swap2\n      swap1\n      pop\n      jump\t// out\n        /* \"#utility.yul\":8042:8461   */\n    tag_67:\n        /* \"#utility.yul\":8208:8212   */\n      0x00\n        /* \"#utility.yul\":8246:8248   */\n      0x20\n        /* \"#utility.yul\":8235:8244   */\n      dup3\n        /* \"#utility.yul\":8231:8249   */\n      add\n        /* \"#utility.yul\":8223:8249   */\n      swap1\n      pop\n        /* \"#utility.yul\":8295:8304   */\n      dup2\n        /* \"#utility.yul\":8289:8293   */\n      dup2\n        /* \"#utility.yul\":8285:8305   */\n      sub\n        /* \"#utility.yul\":8281:8282   */\n      0x00\n        /* \"#utility.yul\":8270:8279   */\n      dup4\n        /* \"#utility.yul\":8266:8283   */\n      add\n        /* \"#utility.yul\":8259:8306   */\n      mstore\n        /* \"#utility.yul\":8323:8454   */\n      tag_174\n        /* \"#utility.yul\":8449:8453   */\n      dup2\n        /* \"#utility.yul\":8323:8454   */\n      tag_94\n      jump\t// in\n    tag_174:\n        /* \"#utility.yul\":8315:8454   */\n      swap1\n      pop\n        /* \"#utility.yul\":8042:8461   */\n      swap2\n      swap1\n      pop\n      jump\t// out\n\n    auxdata: 0xa2646970667358221220ff825c19bac00c7430cb2b04f041906da333ed6860ba5db7d79d18617a3bcaad64736f6c634300080f0033\n}\n",
				"bytecode": {
					"linkReferences": {},
					"object": "60806040523480156200001157600080fd5b5060405162000d4c38038062000d4c8339818101604052810190620000379190620001f9565b856000806101000a81548173ffffffffffffffffffffffffffffffffffffffff021916908373ffffffffffffffffffffffffffffffffffffffff16021790555084600160006101000a81548173ffffffffffffffffffffffffffffffffffffffff021916908373ffffffffffffffffffffffffffffffffffffffff1602179055508360028190555082600360006101000a81548173ffffffffffffffffffffffffffffffffffffffff021916908373ffffffffffffffffffffffffffffffffffffffff16021790555081600460006101000a81548173ffffffffffffffffffffffffffffffffffffffff021916908373ffffffffffffffffffffffffffffffffffffffff1602179055508060058190555050505050505062000295565b600080fd5b600073ffffffffffffffffffffffffffffffffffffffff82169050919050565b6000620001868262000159565b9050919050565b620001988162000179565b8114620001a457600080fd5b50565b600081519050620001b8816200018d565b92915050565b6000819050919050565b620001d381620001be565b8114620001df57600080fd5b50565b600081519050620001f381620001c8565b92915050565b60008060008060008060c0878903121562000219576200021862000154565b5b60006200022989828a01620001a7565b96505060206200023c89828a01620001a7565b95505060406200024f89828a01620001e2565b94505060606200026289828a01620001a7565b93505060806200027589828a01620001a7565b92505060a06200028889828a01620001e2565b9150509295509295509295565b610aa780620002a56000396000f3fe608060405234801561001057600080fd5b506004361061007d5760003560e01c8063736889141161005b57806373688914146100dc5780638119c065146100fa578063d21220a714610104578063f400fde4146101225761007d565b8063057bfcc71461008257806325be124e146100a057806352709725146100be575b600080fd5b61008a610140565b604051610097919061069c565b60405180910390f35b6100a8610146565b6040516100b59190610736565b60405180910390f35b6100c661016c565b6040516100d39190610772565b60405180910390f35b6100e4610192565b6040516100f19190610772565b60405180910390f35b6101026101b8565b005b61010c61058e565b6040516101199190610736565b60405180910390f35b61012a6105b2565b604051610137919061069c565b60405180910390f35b60055481565b600360009054906101000a900473ffffffffffffffffffffffffffffffffffffffff1681565b600460009054906101000a900473ffffffffffffffffffffffffffffffffffffffff1681565b600160009054906101000a900473ffffffffffffffffffffffffffffffffffffffff1681565b600160009054906101000a900473ffffffffffffffffffffffffffffffffffffffff1673ffffffffffffffffffffffffffffffffffffffff163373ffffffffffffffffffffffffffffffffffffffff1614806102615750600460009054906101000a900473ffffffffffffffffffffffffffffffffffffffff1673ffffffffffffffffffffffffffffffffffffffff163373ffffffffffffffffffffffffffffffffffffffff16145b6102a0576040517f08c379a0000000000000000000000000000000000000000000000000000000008152600401610297906107ea565b60405180910390fd5b60025460008054906101000a900473ffffffffffffffffffffffffffffffffffffffff1673ffffffffffffffffffffffffffffffffffffffff1663dd62ed3e600160009054906101000a900473ffffffffffffffffffffffffffffffffffffffff16306040518363ffffffff1660e01b815260040161032092919061080a565b602060405180830381865afa15801561033d573d6000803e3d6000fd5b505050506040513d601f19601f820116820180604052508101906103619190610864565b10156103a2576040517f08c379a0000000000000000000000000000000000000000000000000000000008152600401610399906108dd565b60405180910390fd5b600554600360009054906101000a900473ffffffffffffffffffffffffffffffffffffffff1673ffffffffffffffffffffffffffffffffffffffff1663dd62ed3e600460009054906101000a900473ffffffffffffffffffffffffffffffffffffffff16306040518363ffffffff1660e01b815260040161042492919061080a565b602060405180830381865afa158015610441573d6000803e3d6000fd5b505050506040513d601f19601f820116820180604052508101906104659190610864565b10156104a6576040517f08c379a000000000000000000000000000000000000000000000000000000000815260040161049d90610949565b60405180910390fd5b61051860008054906101000a900473ffffffffffffffffffffffffffffffffffffffff16600160009054906101000a900473ffffffffffffffffffffffffffffffffffffffff16600460009054906101000a900473ffffffffffffffffffffffffffffffffffffffff166002546105b8565b61058c600360009054906101000a900473ffffffffffffffffffffffffffffffffffffffff16600460009054906101000a900473ffffffffffffffffffffffffffffffffffffffff16600160009054906101000a900473ffffffffffffffffffffffffffffffffffffffff166005546105b8565b565b60008054906101000a900473ffffffffffffffffffffffffffffffffffffffff1681565b60025481565b60008473ffffffffffffffffffffffffffffffffffffffff166323b872dd8585856040518463ffffffff1660e01b81526004016105f793929190610969565b6020604051808303816000875af1158015610616573d6000803e3d6000fd5b505050506040513d601f19601f8201168201806040525081019061063a91906109d8565b90508061067c576040517f08c379a000000000000000000000000000000000000000000000000000000000815260040161067390610a51565b60405180910390fd5b5050505050565b6000819050919050565b61069681610683565b82525050565b60006020820190506106b1600083018461068d565b92915050565b600073ffffffffffffffffffffffffffffffffffffffff82169050919050565b6000819050919050565b60006106fc6106f76106f2846106b7565b6106d7565b6106b7565b9050919050565b600061070e826106e1565b9050919050565b600061072082610703565b9050919050565b61073081610715565b82525050565b600060208201905061074b6000830184610727565b92915050565b600061075c826106b7565b9050919050565b61076c81610751565b82525050565b60006020820190506107876000830184610763565b92915050565b600082825260208201905092915050565b7f4e6f7420617574686f72697a6564000000000000000000000000000000000000600082015250565b60006107d4600e8361078d565b91506107df8261079e565b602082019050919050565b60006020820190508181036000830152610803816107c7565b9050919050565b600060408201905061081f6000830185610763565b61082c6020830184610763565b9392505050565b600080fd5b61084181610683565b811461084c57600080fd5b50565b60008151905061085e81610838565b92915050565b60006020828403121561087a57610879610833565b5b60006108888482850161084f565b91505092915050565b7f546f6b656e203120616c6c6f77616e636520746f6f206c6f7700000000000000600082015250565b60006108c760198361078d565b91506108d282610891565b602082019050919050565b600060208201905081810360008301526108f6816108ba565b9050919050565b7f546f6b656e203220616c6c6f77616e636520746f6f206c6f7700000000000000600082015250565b600061093360198361078d565b915061093e826108fd565b602082019050919050565b6000602082019050818103600083015261096281610926565b9050919050565b600060608201905061097e6000830186610763565b61098b6020830185610763565b610998604083018461068d565b949350505050565b60008115159050919050565b6109b5816109a0565b81146109c057600080fd5b50565b6000815190506109d2816109ac565b92915050565b6000602082840312156109ee576109ed610833565b5b60006109fc848285016109c3565b91505092915050565b7f546f6b656e207472616e73666572206661696c65640000000000000000000000600082015250565b6000610a3b60158361078d565b9150610a4682610a05565b602082019050919050565b60006020820190508181036000830152610a6a81610a2e565b905091905056fea2646970667358221220ff825c19bac00c7430cb2b04f041906da333ed6860ba5db7d79d18617a3bcaad64736f6c634300080f0033",
					"opcodes": "PUSH1 0x80 PUSH1 0x40 MSTORE CALLVALUE DUP1 ISZERO PUSH3 0x11 JUMPI PUSH1 0x0 DUP1 REVERT JUMPDEST POP PUSH1 0x40 MLOAD PUSH3 0xD4C CODESIZE SUB DUP1 PUSH3 0xD4C DUP4 CODECOPY DUP2 DUP2 ADD PUSH1 0x40 MSTORE DUP2 ADD SWAP1 PUSH3 0x37 SWAP2 SWAP1 PUSH3 0x1F9 JUMP JUMPDEST DUP6 PUSH1 0x0 DUP1 PUSH2 0x100 EXP DUP2 SLOAD DUP2 PUSH20 0xFFFFFFFFFFFFFFFFFFFFFFFFFFFFFFFFFFFFFFFF MUL NOT AND SWAP1 DUP4 PUSH20 0xFFFFFFFFFFFFFFFFFFFFFFFFFFFFFFFFFFFFFFFF AND MUL OR SWAP1 SSTORE POP DUP5 PUSH1 0x1 PUSH1 0x0 PUSH2 0x100 EXP DUP2 SLOAD DUP2 PUSH20 0xFFFFFFFFFFFFFFFFFFFFFFFFFFFFFFFFFFFFFFFF MUL NOT AND SWAP1 DUP4 PUSH20 0xFFFFFFFFFFFFFFFFFFFFFFFFFFFFFFFFFFFFFFFF AND MUL OR SWAP1 SSTORE POP DUP4 PUSH1 0x2 DUP2 SWAP1 SSTORE POP DUP3 PUSH1 0x3 PUSH1 0x0 PUSH2 0x100 EXP DUP2 SLOAD DUP2 PUSH20 0xFFFFFFFFFFFFFFFFFFFFFFFFFFFFFFFFFFFFFFFF MUL NOT AND SWAP1 DUP4 PUSH20 0xFFFFFFFFFFFFFFFFFFFFFFFFFFFFFFFFFFFFFFFF AND MUL OR SWAP1 SSTORE POP DUP2 PUSH1 0x4 PUSH1 0x0 PUSH2 0x100 EXP DUP2 SLOAD DUP2 PUSH20 0xFFFFFFFFFFFFFFFFFFFFFFFFFFFFFFFFFFFFFFFF MUL NOT AND SWAP1 DUP4 PUSH20 0xFFFFFFFFFFFFFFFFFFFFFFFFFFFFFFFFFFFFFFFF AND MUL OR SWAP1 SSTORE POP DUP1 PUSH1 0x5 DUP2 SWAP1 SSTORE POP POP POP POP POP POP POP PUSH3 0x295 JUMP JUMPDEST PUSH1 0x0 DUP1 REVERT JUMPDEST PUSH1 0x0 PUSH20 0xFFFFFFFFFFFFFFFFFFFFFFFFFFFFFFFFFFFFFFFF DUP3 AND SWAP1 POP SWAP2 SWAP1 POP JUMP JUMPDEST PUSH1 0x0 PUSH3 0x186 DUP3 PUSH3 0x159 JUMP JUMPDEST SWAP1 POP SWAP2 SWAP1 POP JUMP JUMPDEST PUSH3 0x198 DUP2 PUSH3 0x179 JUMP JUMPDEST DUP2 EQ PUSH3 0x1A4 JUMPI PUSH1 0x0 DUP1 REVERT JUMPDEST POP JUMP JUMPDEST PUSH1 0x0 DUP2 MLOAD SWAP1 POP PUSH3 0x1B8 DUP2 PUSH3 0x18D JUMP JUMPDEST SWAP3 SWAP2 POP POP JUMP JUMPDEST PUSH1 0x0 DUP2 SWAP1 POP SWAP2 SWAP1 POP JUMP JUMPDEST PUSH3 0x1D3 DUP2 PUSH3 0x1BE JUMP JUMPDEST DUP2 EQ PUSH3 0x1DF JUMPI PUSH1 0x0 DUP1 REVERT JUMPDEST POP JUMP JUMPDEST PUSH1 0x0 DUP2 MLOAD SWAP1 POP PUSH3 0x1F3 DUP2 PUSH3 0x1C8 JUMP JUMPDEST SWAP3 SWAP2 POP POP JUMP JUMPDEST PUSH1 0x0 DUP1 PUSH1 0x0 DUP1 PUSH1 0x0 DUP1 PUSH1 0xC0 DUP8 DUP10 SUB SLT ISZERO PUSH3 0x219 JUMPI PUSH3 0x218 PUSH3 0x154 JUMP JUMPDEST JUMPDEST PUSH1 0x0 PUSH3 0x229 DUP10 DUP3 DUP11 ADD PUSH3 0x1A7 JUMP JUMPDEST SWAP7 POP POP PUSH1 0x20 PUSH3 0x23C DUP10 DUP3 DUP11 ADD PUSH3 0x1A7 JUMP JUMPDEST SWAP6 POP POP PUSH1 0x40 PUSH3 0x24F DUP10 DUP3 DUP11 ADD PUSH3 0x1E2 JUMP JUMPDEST SWAP5 POP POP PUSH1 0x60 PUSH3 0x262 DUP10 DUP3 DUP11 ADD PUSH3 0x1A7 JUMP JUMPDEST SWAP4 POP POP PUSH1 0x80 PUSH3 0x275 DUP10 DUP3 DUP11 ADD PUSH3 0x1A7 JUMP JUMPDEST SWAP3 POP POP PUSH1 0xA0 PUSH3 0x288 DUP10 DUP3 DUP11 ADD PUSH3 0x1E2 JUMP JUMPDEST SWAP2 POP POP SWAP3 SWAP6 POP SWAP3 SWAP6 POP SWAP3 SWAP6 JUMP JUMPDEST PUSH2 0xAA7 DUP1 PUSH3 0x2A5 PUSH1 0x0 CODECOPY PUSH1 0x0 RETURN INVALID PUSH1 0x80 PUSH1 0x40 MSTORE CALLVALUE DUP1 ISZERO PUSH2 0x10 JUMPI PUSH1 0x0 DUP1 REVERT JUMPDEST POP PUSH1 0x4 CALLDATASIZE LT PUSH2 0x7D JUMPI PUSH1 0x0 CALLDATALOAD PUSH1 0xE0 SHR DUP1 PUSH4 0x73688914 GT PUSH2 0x5B JUMPI DUP1 PUSH4 0x73688914 EQ PUSH2 0xDC JUMPI DUP1 PUSH4 0x8119C065 EQ PUSH2 0xFA JUMPI DUP1 PUSH4 0xD21220A7 EQ PUSH2 0x104 JUMPI DUP1 PUSH4 0xF400FDE4 EQ PUSH2 0x122 JUMPI PUSH2 0x7D JUMP JUMPDEST DUP1 PUSH4 0x57BFCC7 EQ PUSH2 0x82 JUMPI DUP1 PUSH4 0x25BE124E EQ PUSH2 0xA0 JUMPI DUP1 PUSH4 0x52709725 EQ PUSH2 0xBE JUMPI JUMPDEST PUSH1 0x0 DUP1 REVERT JUMPDEST PUSH2 0x8A PUSH2 0x140 JUMP JUMPDEST PUSH1 0x40 MLOAD PUSH2 0x97 SWAP2 SWAP1 PUSH2 0x69C JUMP JUMPDEST PUSH1 0x40 MLOAD DUP1 SWAP2 SUB SWAP1 RETURN JUMPDEST PUSH2 0xA8 PUSH2 0x146 JUMP JUMPDEST PUSH1 0x40 MLOAD PUSH2 0xB5 SWAP2 SWAP1 PUSH2 0x736 JUMP JUMPDEST PUSH1 0x40 MLOAD DUP1 SWAP2 SUB SWAP1 RETURN JUMPDEST PUSH2 0xC6 PUSH2 0x16C JUMP JUMPDEST PUSH1 0x40 MLOAD PUSH2 0xD3 SWAP2 SWAP1 PUSH2 0x772 JUMP JUMPDEST PUSH1 0x40 MLOAD DUP1 SWAP2 SUB SWAP1 RETURN JUMPDEST PUSH2 0xE4 PUSH2 0x192 JUMP JUMPDEST PUSH1 0x40 MLOAD PUSH2 0xF1 SWAP2 SWAP1 PUSH2 0x772 JUMP JUMPDEST PUSH1 0x40 MLOAD DUP1 SWAP2 SUB SWAP1 RETURN JUMPDEST PUSH2 0x102 PUSH2 0x1B8 JUMP JUMPDEST STOP JUMPDEST PUSH2 0x10C PUSH2 0x58E JUMP JUMPDEST PUSH1 0x40 MLOAD PUSH2 0x119 SWAP2 SWAP1 PUSH2 0x736 JUMP JUMPDEST PUSH1 0x40 MLOAD DUP1 SWAP2 SUB SWAP1 RETURN JUMPDEST PUSH2 0x12A PUSH2 0x5B2 JUMP JUMPDEST PUSH1 0x40 MLOAD PUSH2 0x137 SWAP2 SWAP1 PUSH2 0x69C JUMP JUMPDEST PUSH1 0x40 MLOAD DUP1 SWAP2 SUB SWAP1 RETURN JUMPDEST PUSH1 0x5 SLOAD DUP2 JUMP JUMPDEST PUSH1 0x3 PUSH1 0x0 SWAP1 SLOAD SWAP1 PUSH2 0x100 EXP SWAP1 DIV PUSH20 0xFFFFFFFFFFFFFFFFFFFFFFFFFFFFFFFFFFFFFFFF AND DUP2 JUMP JUMPDEST PUSH1 0x4 PUSH1 0x0 SWAP1 SLOAD SWAP1 PUSH2 0x100 EXP SWAP1 DIV PUSH20 0xFFFFFFFFFFFFFFFFFFFFFFFFFFFFFFFFFFFFFFFF AND DUP2 JUMP JUMPDEST PUSH1 0x1 PUSH1 0x0 SWAP1 SLOAD SWAP1 PUSH2 0x100 EXP SWAP1 DIV PUSH20 0xFFFFFFFFFFFFFFFFFFFFFFFFFFFFFFFFFFFFFFFF AND DUP2 JUMP JUMPDEST PUSH1 0x1 PUSH1 0x0 SWAP1 SLOAD SWAP1 PUSH2 0x100 EXP SWAP1 DIV PUSH20 0xFFFFFFFFFFFFFFFFFFFFFFFFFFFFFFFFFFFFFFFF AND PUSH20 0xFFFFFFFFFFFFFFFFFFFFFFFFFFFFFFFFFFFFFFFF AND CALLER PUSH20 0xFFFFFFFFFFFFFFFFFFFFFFFFFFFFFFFFFFFFFFFF AND EQ DUP1 PUSH2 0x261 JUMPI POP PUSH1 0x4 PUSH1 0x0 SWAP1 SLOAD SWAP1 PUSH2 0x100 EXP SWAP1 DIV PUSH20 0xFFFFFFFFFFFFFFFFFFFFFFFFFFFFFFFFFFFFFFFF AND PUSH20 0xFFFFFFFFFFFFFFFFFFFFFFFFFFFFFFFFFFFFFFFF AND CALLER PUSH20 0xFFFFFFFFFFFFFFFFFFFFFFFFFFFFFFFFFFFFFFFF AND EQ JUMPDEST PUSH2 0x2A0 JUMPI PUSH1 0x40 MLOAD PUSH32 0x8C379A000000000000000000000000000000000000000000000000000000000 DUP2 MSTORE PUSH1 0x4 ADD PUSH2 0x297 SWAP1 PUSH2 0x7EA JUMP JUMPDEST PUSH1 0x40 MLOAD DUP1 SWAP2 SUB SWAP1 REVERT JUMPDEST PUSH1 0x2 SLOAD PUSH1 0x0 DUP1 SLOAD SWAP1 PUSH2 0x100 EXP SWAP1 DIV PUSH20 0xFFFFFFFFFFFFFFFFFFFFFFFFFFFFFFFFFFFFFFFF AND PUSH20 0xFFFFFFFFFFFFFFFFFFFFFFFFFFFFFFFFFFFFFFFF AND PUSH4 0xDD62ED3E PUSH1 0x1 PUSH1 0x0 SWAP1 SLOAD SWAP1 PUSH2 0x100 EXP SWAP1 DIV PUSH20 0xFFFFFFFFFFFFFFFFFFFFFFFFFFFFFFFFFFFFFFFF AND ADDRESS PUSH1 0x40 MLOAD DUP4 PUSH4 0xFFFFFFFF AND PUSH1 0xE0 SHL DUP2 MSTORE PUSH1 0x4 ADD PUSH2 0x320 SWAP3 SWAP2 SWAP1 PUSH2 0x80A JUMP JUMPDEST PUSH1 0x20 PUSH1 0x40 MLOAD DUP1 DUP4 SUB DUP2 DUP7 GAS STATICCALL ISZERO DUP1 ISZERO PUSH2 0x33D JUMPI RETURNDATASIZE PUSH1 0x0 DUP1 RETURNDATACOPY RETURNDATASIZE PUSH1 0x0 REVERT JUMPDEST POP POP POP POP PUSH1 0x40 MLOAD RETURNDATASIZE PUSH1 0x1F NOT PUSH1 0x1F DUP3 ADD AND DUP3 ADD DUP1 PUSH1 0x40 MSTORE POP DUP2 ADD SWAP1 PUSH2 0x361 SWAP2 SWAP1 PUSH2 0x864 JUMP JUMPDEST LT ISZERO PUSH2 0x3A2 JUMPI PUSH1 0x40 MLOAD PUSH32 0x8C379A000000000000000000000000000000000000000000000000000000000 DUP2 MSTORE PUSH1 0x4 ADD PUSH2 0x399 SWAP1 PUSH2 0x8DD JUMP JUMPDEST PUSH1 0x40 MLOAD DUP1 SWAP2 SUB SWAP1 REVERT JUMPDEST PUSH1 0x5 SLOAD PUSH1 0x3 PUSH1 0x0 SWAP1 SLOAD SWAP1 PUSH2 0x100 EXP SWAP1 DIV PUSH20 0xFFFFFFFFFFFFFFFFFFFFFFFFFFFFFFFFFFFFFFFF AND PUSH20 0xFFFFFFFFFFFFFFFFFFFFFFFFFFFFFFFFFFFFFFFF AND PUSH4 0xDD62ED3E PUSH1 0x4 PUSH1 0x0 SWAP1 SLOAD SWAP1 PUSH2 0x100 EXP SWAP1 DIV PUSH20 0xFFFFFFFFFFFFFFFFFFFFFFFFFFFFFFFFFFFFFFFF AND ADDRESS PUSH1 0x40 MLOAD DUP4 PUSH4 0xFFFFFFFF AND PUSH1 0xE0 SHL DUP2 MSTORE PUSH1 0x4 ADD PUSH2 0x424 SWAP3 SWAP2 SWAP1 PUSH2 0x80A JUMP JUMPDEST PUSH1 0x20 PUSH1 0x40 MLOAD DUP1 DUP4 SUB DUP2 DUP7 GAS STATICCALL ISZERO DUP1 ISZERO PUSH2 0x441 JUMPI RETURNDATASIZE PUSH1 0x0 DUP1 RETURNDATACOPY RETURNDATASIZE PUSH1 0x0 REVERT JUMPDEST POP POP POP POP PUSH1 0x40 MLOAD RETURNDATASIZE PUSH1 0x1F NOT PUSH1 0x1F DUP3 ADD AND DUP3 ADD DUP1 PUSH1 0x40 MSTORE POP DUP2 ADD SWAP1 PUSH2 0x465 SWAP2 SWAP1 PUSH2 0x864 JUMP JUMPDEST LT ISZERO PUSH2 0x4A6 JUMPI PUSH1 0x40 MLOAD PUSH32 0x8C379A000000000000000000000000000000000000000000000000000000000 DUP2 MSTORE PUSH1 0x4 ADD PUSH2 0x49D SWAP1 PUSH2 0x949 JUMP JUMPDEST PUSH1 0x40 MLOAD DUP1 SWAP2 SUB SWAP1 REVERT JUMPDEST PUSH2 0x518 PUSH1 0x0 DUP1 SLOAD SWAP1 PUSH2 0x100 EXP SWAP1 DIV PUSH20 0xFFFFFFFFFFFFFFFFFFFFFFFFFFFFFFFFFFFFFFFF AND PUSH1 0x1 PUSH1 0x0 SWAP1 SLOAD SWAP1 PUSH2 0x100 EXP SWAP1 DIV PUSH20 0xFFFFFFFFFFFFFFFFFFFFFFFFFFFFFFFFFFFFFFFF AND PUSH1 0x4 PUSH1 0x0 SWAP1 SLOAD SWAP1 PUSH2 0x100 EXP SWAP1 DIV PUSH20 0xFFFFFFFFFFFFFFFFFFFFFFFFFFFFFFFFFFFFFFFF AND PUSH1 0x2 SLOAD PUSH2 0x5B8 JUMP JUMPDEST PUSH2 0x58C PUSH1 0x3 PUSH1 0x0 SWAP1 SLOAD SWAP1 PUSH2 0x100 EXP SWAP1 DIV PUSH20 0xFFFFFFFFFFFFFFFFFFFFFFFFFFFFFFFFFFFFFFFF AND PUSH1 0x4 PUSH1 0x0 SWAP1 SLOAD SWAP1 PUSH2 0x100 EXP SWAP1 DIV PUSH20 0xFFFFFFFFFFFFFFFFFFFFFFFFFFFFFFFFFFFFFFFF AND PUSH1 0x1 PUSH1 0x0 SWAP1 SLOAD SWAP1 PUSH2 0x100 EXP SWAP1 DIV PUSH20 0xFFFFFFFFFFFFFFFFFFFFFFFFFFFFFFFFFFFFFFFF AND PUSH1 0x5 SLOAD PUSH2 0x5B8 JUMP JUMPDEST JUMP JUMPDEST PUSH1 0x0 DUP1 SLOAD SWAP1 PUSH2 0x100 EXP SWAP1 DIV PUSH20 0xFFFFFFFFFFFFFFFFFFFFFFFFFFFFFFFFFFFFFFFF AND DUP2 JUMP JUMPDEST PUSH1 0x2 SLOAD DUP2 JUMP JUMPDEST PUSH1 0x0 DUP5 PUSH20 0xFFFFFFFFFFFFFFFFFFFFFFFFFFFFFFFFFFFFFFFF AND PUSH4 0x23B872DD DUP6 DUP6 DUP6 PUSH1 0x40 MLOAD DUP5 PUSH4 0xFFFFFFFF AND PUSH1 0xE0 SHL DUP2 MSTORE PUSH1 0x4 ADD PUSH2 0x5F7 SWAP4 SWAP3 SWAP2 SWAP1 PUSH2 0x969 JUMP JUMPDEST PUSH1 0x20 PUSH1 0x40 MLOAD DUP1 DUP4 SUB DUP2 PUSH1 0x0 DUP8 GAS CALL ISZERO DUP1 ISZERO PUSH2 0x616 JUMPI RETURNDATASIZE PUSH1 0x0 DUP1 RETURNDATACOPY RETURNDATASIZE PUSH1 0x0 REVERT JUMPDEST POP POP POP POP PUSH1 0x40 MLOAD RETURNDATASIZE PUSH1 0x1F NOT PUSH1 0x1F DUP3 ADD AND DUP3 ADD DUP1 PUSH1 0x40 MSTORE POP DUP2 ADD SWAP1 PUSH2 0x63A SWAP2 SWAP1 PUSH2 0x9D8 JUMP JUMPDEST SWAP1 POP DUP1 PUSH2 0x67C JUMPI PUSH1 0x40 MLOAD PUSH32 0x8C379A000000000000000000000000000000000000000000000000000000000 DUP2 MSTORE PUSH1 0x4 ADD PUSH2 0x673 SWAP1 PUSH2 0xA51 JUMP JUMPDEST PUSH1 0x40 MLOAD DUP1 SWAP2 SUB SWAP1 REVERT JUMPDEST POP POP POP POP POP JUMP JUMPDEST PUSH1 0x0 DUP2 SWAP1 POP SWAP2 SWAP1 POP JUMP JUMPDEST PUSH2 0x696 DUP2 PUSH2 0x683 JUMP JUMPDEST DUP3 MSTORE POP POP JUMP JUMPDEST PUSH1 0x0 PUSH1 0x20 DUP3 ADD SWAP1 POP PUSH2 0x6B1 PUSH1 0x0 DUP4 ADD DUP5 PUSH2 0x68D JUMP JUMPDEST SWAP3 SWAP2 POP POP JUMP JUMPDEST PUSH1 0x0 PUSH20 0xFFFFFFFFFFFFFFFFFFFFFFFFFFFFFFFFFFFFFFFF DUP3 AND SWAP1 POP SWAP2 SWAP1 POP JUMP JUMPDEST PUSH1 0x0 DUP2 SWAP1 POP SWAP2 SWAP1 POP JUMP JUMPDEST PUSH1 0x0 PUSH2 0x6FC PUSH2 0x6F7 PUSH2 0x6F2 DUP5 PUSH2 0x6B7 JUMP JUMPDEST PUSH2 0x6D7 JUMP JUMPDEST PUSH2 0x6B7 JUMP JUMPDEST SWAP1 POP SWAP2 SWAP1 POP JUMP JUMPDEST PUSH1 0x0 PUSH2 0x70E DUP3 PUSH2 0x6E1 JUMP JUMPDEST SWAP1 POP SWAP2 SWAP1 POP JUMP JUMPDEST PUSH1 0x0 PUSH2 0x720 DUP3 PUSH2 0x703 JUMP JUMPDEST SWAP1 POP SWAP2 SWAP1 POP JUMP JUMPDEST PUSH2 0x730 DUP2 PUSH2 0x715 JUMP JUMPDEST DUP3 MSTORE POP POP JUMP JUMPDEST PUSH1 0x0 PUSH1 0x20 DUP3 ADD SWAP1 POP PUSH2 0x74B PUSH1 0x0 DUP4 ADD DUP5 PUSH2 0x727 JUMP JUMPDEST SWAP3 SWAP2 POP POP JUMP JUMPDEST PUSH1 0x0 PUSH2 0x75C DUP3 PUSH2 0x6B7 JUMP JUMPDEST SWAP1 POP SWAP2 SWAP1 POP JUMP JUMPDEST PUSH2 0x76C DUP2 PUSH2 0x751 JUMP JUMPDEST DUP3 MSTORE POP POP JUMP JUMPDEST PUSH1 0x0 PUSH1 0x20 DUP3 ADD SWAP1 POP PUSH2 0x787 PUSH1 0x0 DUP4 ADD DUP5 PUSH2 0x763 JUMP JUMPDEST SWAP3 SWAP2 POP POP JUMP JUMPDEST PUSH1 0x0 DUP3 DUP3 MSTORE PUSH1 0x20 DUP3 ADD SWAP1 POP SWAP3 SWAP2 POP POP JUMP JUMPDEST PUSH32 0x4E6F7420617574686F72697A6564000000000000000000000000000000000000 PUSH1 0x0 DUP3 ADD MSTORE POP JUMP JUMPDEST PUSH1 0x0 PUSH2 0x7D4 PUSH1 0xE DUP4 PUSH2 0x78D JUMP JUMPDEST SWAP2 POP PUSH2 0x7DF DUP3 PUSH2 0x79E JUMP JUMPDEST PUSH1 0x20 DUP3 ADD SWAP1 POP SWAP2 SWAP1 POP JUMP JUMPDEST PUSH1 0x0 PUSH1 0x20 DUP3 ADD SWAP1 POP DUP2 DUP2 SUB PUSH1 0x0 DUP4 ADD MSTORE PUSH2 0x803 DUP2 PUSH2 0x7C7 JUMP JUMPDEST SWAP1 POP SWAP2 SWAP1 POP JUMP JUMPDEST PUSH1 0x0 PUSH1 0x40 DUP3 ADD SWAP1 POP PUSH2 0x81F PUSH1 0x0 DUP4 ADD DUP6 PUSH2 0x763 JUMP JUMPDEST PUSH2 0x82C PUSH1 0x20 DUP4 ADD DUP5 PUSH2 0x763 JUMP JUMPDEST SWAP4 SWAP3 POP POP POP JUMP JUMPDEST PUSH1 0x0 DUP1 REVERT JUMPDEST PUSH2 0x841 DUP2 PUSH2 0x683 JUMP JUMPDEST DUP2 EQ PUSH2 0x84C JUMPI PUSH1 0x0 DUP1 REVERT JUMPDEST POP JUMP JUMPDEST PUSH1 0x0 DUP2 MLOAD SWAP1 POP PUSH2 0x85E DUP2 PUSH2 0x838 JUMP JUMPDEST SWAP3 SWAP2 POP POP JUMP JUMPDEST PUSH1 0x0 PUSH1 0x20 DUP3 DUP5 SUB SLT ISZERO PUSH2 0x87A JUMPI PUSH2 0x879 PUSH2 0x833 JUMP JUMPDEST JUMPDEST PUSH1 0x0 PUSH2 0x888 DUP5 DUP3 DUP6 ADD PUSH2 0x84F JUMP JUMPDEST SWAP2 POP POP SWAP3 SWAP2 POP POP JUMP JUMPDEST PUSH32 0x546F6B656E203120616C6C6F77616E636520746F6F206C6F7700000000000000 PUSH1 0x0 DUP3 ADD MSTORE POP JUMP JUMPDEST PUSH1 0x0 PUSH2 0x8C7 PUSH1 0x19 DUP4 PUSH2 0x78D JUMP JUMPDEST SWAP2 POP PUSH2 0x8D2 DUP3 PUSH2 0x891 JUMP JUMPDEST PUSH1 0x20 DUP3 ADD SWAP1 POP SWAP2 SWAP1 POP JUMP JUMPDEST PUSH1 0x0 PUSH1 0x20 DUP3 ADD SWAP1 POP DUP2 DUP2 SUB PUSH1 0x0 DUP4 ADD MSTORE PUSH2 0x8F6 DUP2 PUSH2 0x8BA JUMP JUMPDEST SWAP1 POP SWAP2 SWAP1 POP JUMP JUMPDEST PUSH32 0x546F6B656E203220616C6C6F77616E636520746F6F206C6F7700000000000000 PUSH1 0x0 DUP3 ADD MSTORE POP JUMP JUMPDEST PUSH1 0x0 PUSH2 0x933 PUSH1 0x19 DUP4 PUSH2 0x78D JUMP JUMPDEST SWAP2 POP PUSH2 0x93E DUP3 PUSH2 0x8FD JUMP JUMPDEST PUSH1 0x20 DUP3 ADD SWAP1 POP SWAP2 SWAP1 POP JUMP JUMPDEST PUSH1 0x0 PUSH1 0x20 DUP3 ADD SWAP1 POP DUP2 DUP2 SUB PUSH1 0x0 DUP4 ADD MSTORE PUSH2 0x962 DUP2 PUSH2 0x926 JUMP JUMPDEST SWAP1 POP SWAP2 SWAP1 POP JUMP JUMPDEST PUSH1 0x0 PUSH1 0x60 DUP3 ADD SWAP1 POP PUSH2 0x97E PUSH1 0x0 DUP4 ADD DUP7 PUSH2 0x763 JUMP JUMPDEST PUSH2 0x98B PUSH1 0x20 DUP4 ADD DUP6 PUSH2 0x763 JUMP JUMPDEST PUSH2 0x998 PUSH1 0x40 DUP4 ADD DUP5 PUSH2 0x68D JUMP JUMPDEST SWAP5 SWAP4 POP POP POP POP JUMP JUMPDEST PUSH1 0x0 DUP2 ISZERO ISZERO SWAP1 POP SWAP2 SWAP1 POP JUMP JUMPDEST PUSH2 0x9B5 DUP2 PUSH2 0x9A0 JUMP JUMPDEST DUP2 EQ PUSH2 0x9C0 JUMPI PUSH1 0x0 DUP1 REVERT JUMPDEST POP JUMP JUMPDEST PUSH1 0x0 DUP2 MLOAD SWAP1 POP PUSH2 0x9D2 DUP2 PUSH2 0x9AC JUMP JUMPDEST SWAP3 SWAP2 POP POP JUMP JUMPDEST PUSH1 0x0 PUSH1 0x20 DUP3 DUP5 SUB SLT ISZERO PUSH2 0x9EE JUMPI PUSH2 0x9ED PUSH2 0x833 JUMP JUMPDEST JUMPDEST PUSH1 0x0 PUSH2 0x9FC DUP5 DUP3 DUP6 ADD PUSH2 0x9C3 JUMP JUMPDEST SWAP2 POP POP SWAP3 SWAP2 POP POP JUMP JUMPDEST PUSH32 0x546F6B656E207472616E73666572206661696C65640000000000000000000000 PUSH1 0x0 DUP3 ADD MSTORE POP JUMP JUMPDEST PUSH1 0x0 PUSH2 0xA3B PUSH1 0x15 DUP4 PUSH2 0x78D JUMP JUMPDEST SWAP2 POP PUSH2 0xA46 DUP3 PUSH2 0xA05 JUMP JUMPDEST PUSH1 0x20 DUP3 ADD SWAP1 POP SWAP2 SWAP1 POP JUMP JUMPDEST PUSH1 0x0 PUSH1 0x20 DUP3 ADD SWAP1 POP DUP2 DUP2 SUB PUSH1 0x0 DUP4 ADD MSTORE PUSH2 0xA6A DUP2 PUSH2 0xA2E JUMP JUMPDEST SWAP1 POP SWAP2 SWAP1 POP JUMP INVALID LOG2 PUSH5 0x6970667358 0x22 SLT KECCAK256 SELFDESTRUCT DUP3 0x5C NOT 0xBA 0xC0 0xC PUSH21 0x30CB2B04F041906DA333ED6860BA5DB7D79D18617A EXTCODESIZE 0xCA 0xAD PUSH5 0x736F6C6343 STOP ADDMOD 0xF STOP CALLER "
				},
				"gasEstimates": {
					"creation": {
						"codeDepositCost": "545400",
						"executionCost": "infinite",
						"totalCost": "infinite"
					},
					"external": {
						"amount1()": "2495",
						"amount2()": "2430",
						"owner1()": "2514",
						"owner2()": "2559",
						"swap()": "infinite",
						"token1()": "infinite",
						"token2()": "infinite"
					},
					"internal": {
						"_safeTransferFrom(contract IERC20,address,address,uint256)": "infinite"
					}
				},
				"methodIdentifiers": {
					"amount1()": "f400fde4",
					"amount2()": "057bfcc7",
					"owner1()": "73688914",
					"owner2()": "52709725",
					"swap()": "8119c065",
					"token1()": "d21220a7",
					"token2()": "25be124e"
				}
			},
			"storageLayout": {
				"storage": [
					{
						"astId": 241,
						"contract": "token/MonTokenSwap.sol:TokenSwap",
						"label": "token1",
						"offset": 0,
						"slot": "0",
						"type": "t_contract(IERC20)68"
					},
					{
						"astId": 243,
						"contract": "token/MonTokenSwap.sol:TokenSwap",
						"label": "owner1",
						"offset": 0,
						"slot": "1",
						"type": "t_address"
					},
					{
						"astId": 245,
						"contract": "token/MonTokenSwap.sol:TokenSwap",
						"label": "amount1",
						"offset": 0,
						"slot": "2",
						"type": "t_uint256"
					},
					{
						"astId": 248,
						"contract": "token/MonTokenSwap.sol:TokenSwap",
						"label": "token2",
						"offset": 0,
						"slot": "3",
						"type": "t_contract(IERC20)68"
					},
					{
						"astId": 250,
						"contract": "token/MonTokenSwap.sol:TokenSwap",
						"label": "owner2",
						"offset": 0,
						"slot": "4",
						"type": "t_address"
					},
					{
						"astId": 252,
						"contract": "token/MonTokenSwap.sol:TokenSwap",
						"label": "amount2",
						"offset": 0,
						"slot": "5",
						"type": "t_uint256"
					}
				],
				"types": {
					"t_address": {
						"encoding": "inplace",
						"label": "address",
						"numberOfBytes": "20"
					},
					"t_contract(IERC20)68": {
						"encoding": "inplace",
						"label": "contract IERC20",
						"numberOfBytes": "20"
					},
					"t_uint256": {
						"encoding": "inplace",
						"label": "uint256",
						"numberOfBytes": "32"
					}
				}
			},
			"userdoc": {
				"kind": "user",
				"methods": {},
				"version": 1
			}
		}
	}
}